:100000000C9402050C94F2220C941F230C942A05E4
:100010000C942A050C94A80A0C942A050C942A0521
:100020000C942A050C942A050C942A050C942A0594
:100030000C942A050C942A050C942A050C942A0584
:100040000C944C230C942A050C9443250C94912574
:100050000C942A050C942A050C942A050C942A0564
:100060000C942A050C942A057818801880187818A2
:1000700080188018801880188018801880188018C0
:10008000801880188018801880189516801880189D
:10009000801880188018F61580188018801880182D
:1000A0008018801880188018801880188018801890
:1000B000801880188018A116A116A116A116A116E5
:1000C000A116A116A116A1168018801880188018F4
:1000D00080188018FD15A016A016A016A01680186E
:1000E000B616C016CA16D216DA16E216EA16F216B6
:1000F000FC160617801880184416041680188018FD
:10010000801880189516801880188018801880181C
:100110008018801880189F169F169F169F168018AB
:10012000B616C016CA16D216DA16E216EA16F21675
:10013000FC160617801880184416041680188018BC
:10014000801880189516456E746572206D656E7501
:100150002E2E2E00436F6E6E656374696E67207479
:100160006F2052582C20706F776572207570207444
:1001700068652052582028776974682062696E6427
:1001800020706C7567206966206E6F7420757369C6
:100190006E6720616C776179732062696E642900F3
:1001A000546F67676C65642027616C776179732091
:1001B00062696E642700546F67676C6564205050F5
:1001C0004D206368616E6E656C206C696D697400AA
:1001D000536574205253534920696E6A6563637492
:1001E000696F6E206368616E6E656C2028303D3DDE
:1001F00064697361626C6529005365742050504DC9
:10020000206D696E696D756D2073796E630053653D
:100210007420626561636F6E20696E7465727661C9
:100220006C0053657420626561636F6E2064656C59
:1002300061790053657420626561636F6E20667238
:10024000657175656E637920696E20487A3A203051
:100250003D64697361626C652C2050783D504D524D
:10026000206368616E6E656C20782C2046783D4670
:100270005253206368616E6E656C2078005365741C
:10028000206661696C736166652064656C617920C4
:10029000287820302E31732900546F67676C6564AD
:1002A000202773746F702050574D2700546F676775
:1002B0006C6564202773746F702050504D27002A9E
:1002C0002A2A2A2A2A2A2A2A2A2A2A2A2A2A2A2A8E
:1002D0002A2A2A2A2A2A2A2A2A2A2A2A005258205C
:1002E00041636B6564202D2072657665727420739E
:1002F00075636365737366756C21002A2A2A2A2A3E
:100300002A2A2A2A2A2A2A2A2A2A2A2A2A2A2A2A4D
:100310002A2A2A2A2A2A2A2A002A2A2A2A2A2A2A67
:100320002A2A2A2A2A2A2A2A2A2A2A2A2A2A2A2A2D
:100330002A2A2A2A2A2A0052582041636B656420FF
:100340002D207570646174652073756363657373C4
:1003500066756C21002A2A2A2A2A2A2A2A2A2A2A67
:100360002A2A2A2A2A2A2A2A2A2A2A2A2A2A2A2AED
:100370002A2A0056616C69642063686F696365733B
:10038000206172653A205B315D2D5B31365D20283E
:100390006368616E6E656C20312D313629005365BE
:1003A00074206F757470757420666F7220706F7230
:1003B0007420005B585D2061626F72742063686115
:1003C0006E67657320616E64206578697420525889
:1003D00020636F6E666967005B535D2073617665AD
:1003E0002073657474696E677320746F20525800AF
:1003F0005B525D2072657665727420525820736579
:100400007474696E677320746F2064656661756CBF
:10041000747300557365206E756D62657273205B31
:10042000312D445D20746F206564697420706F7293
:100430007473205B452D4E5D20666F72207365746A
:1004400074696E6773000A6F70656E4C52536E6705
:100450002076332E31202D207265636569766572B2
:1004600020636F6E666967757261746F72005365A1
:10047000742073657269616C206261756472617465
:10048000653A2000546F67676C6564204672536B51
:100490007920656D756C6174696F6E2100546F67AA
:1004A000676C65642074656C656D65747279210094
:1004B00056616C69642063686F696365733A2031C3
:1004C000202D20342B34202F2032202D2038202F97
:1004D0002033202D20382B34202F2034202D203184
:1004E00032202F2035202D2031322B34202F203662
:1004F000202D20313600536574204368616E6E658F
:100500006C20636F6E6669673A20005365742044FF
:10051000617461726174652028302D32293A20009F
:1005200053657420486F70206368616E6E656C73EC
:1005300020286D61782032342C20736570617261DF
:1005400074656420627920636F6D6D617329207614
:10055000616C69642076616C75657320312D32356C
:10056000353A2000536574206368616E6E656C20B7
:1005700073706163696E6720287831306B487A291F
:100580003A200053657420524620706F77657220C0
:1005900028302D37293A2000536574205246206DAB
:1005A0006167696320286865782920652E672E2099
:1005B000307844454144463030443A200053657415
:1005C0002062617365206672657175656E6379205E
:1005D00028696E20487A293A20005B5A5D20656EB2
:1005E00074657220726563656976657220636F6EEB
:1005F00066696775726174696F6E207574696C796C
:10060000005B465D20646973706C6179206163747E
:1006100075616C206672657175656E6369657320BE
:1006200075736564005B525D2063616C63756C611A
:1006300074652072616E646F6D206B657920616EE8
:100640006420686F70206C697374005B495D207270
:1006500065696E697469616C697A65207365747423
:10066000696E677320746F20736B657463682064B0
:10067000656661756C7473005B585D2072657665A4
:100680007274206368616E67657320616E642065B3
:10069000786974206D656E75005B535D20736176BB
:1006A000652073657474696E677320746F204545A7
:1006B00050524F4D20616E642065786974206D65DD
:1006C0006E7500557365206E756D62657273205B83
:1006D000302D395D20746F206564697420706172FB
:1006E000616D6574657273000A6F70656E4C52536C
:1006F0006E672076332E31004F292054696D656472
:100700002042494E44206174207374617274757084
:1007100020203A20004E292050504D206F757470D3
:100720007574206C696D6974656420202020203AFE
:10073000200044495341424C4544004D292050502B
:100740004D205253534920746F206368616E6E656B
:100750006C202020203A20004C292050504D206D44
:10076000696E696D756D2073796E632028757329C4
:1007700020203A200044495341424C4544004B2933
:10078000204661696C7361666520626561636F6EA6
:1007900020696E74762E2028352D323535293A2081
:1007A000004A29204661696C736166652062656153
:1007B000636F6E2064656C6179202831302D363589
:1007C000353335293A20004929204661696C736127
:1007D000666520626561636F6E206672712E203AD5
:1007E0002000207820302E3173004829204661698E
:1007F0006C7361666520737065656420202020201D
:1008000020203A200047292053746F702050574D04
:10081000206F6E206661696C73616665203A204FB7
:100820000046292053746F702050504D206F6E2069
:100830006661696C73616665203A204F0050574DC0
:10084000206368616E6E656C200066756E63746906
:100850006F6E3A20002920706F7274200044544655
:10086000205548462033322D626974203130636848
:10087000004F70656E4C52536E675258206D696E12
:10088000692034636800466C7974726F6E2F4F7202
:10089000616E67655258205548462038636800529B
:1008A0005820747970653A2000487A00203D3D2038
:1008B0000043616C63756C61746564207061636B87
:1008C000657420696E74657276616C3A2000302917
:1008D0002053657269616C20626175647261746530
:1008E0003A003929204672536B7920656D756C6129
:1008F00074696F6E3A200038292054656C656D6507
:100900007472793A202020202020200037292043AB
:1009100068616E6E656C20636F6E6669673A202051
:100920000036292044617461726174652028302D7D
:1009300032293A20202000352920486F7020636832
:10094000616E6E656C733A202020202000342920CF
:100950004368616E6E656C2073706163696E673A9F
:10096000202000332920524620706F77657220289E
:10097000302D37293A202020003229205246206D80
:10098000616769633A202020202020202020003148
:10099000292042617365206672657175656E6379A1
:1009A0003A2020200000000000240027002A000038
:1009B000000000250028002B000000000023002676
:1009C00000290004040404040404040202020202D4
:1009D0000203030303030301020408102040800103
:1009E0000204081020010204081020000000070083
:1009F00002010000030406000000000000000000E7
:100A00002B0BFD2611241FBECFEFD8E0DEBFCDBFDC
:100A100014E0A0E0B1E0E6E0F5E502C005900D923B
:100A2000A434B107D9F716E0A4E4B4E001C01D92E4
:100A3000A839B107E1F71AE0C4E0DAE004C0229770
:100A4000FE010E943B2AC030D107C9F70E945327FC
:100A50000C94812A0C940000A0E0B0E0E2E3F5E001
:100A60000C94522AEC01A880B980CA80DB80A114C2
:100A7000B104C104D10441F484E2A82E89EDB82E5A
:100A80008BE5C82E87E0D82EC601B5012DE133EFE6
:100A900041E050E00E940A2A27EA31E440E050E0B9
:100AA0000E94B6297B018C01C601B5012DE133EF0F
:100AB00041E050E00E940A2ACA01B9012CEE34EF4D
:100AC0004FEF5FEF0E94B6296E0D7F1D801F911FB3
:100AD00097FF04C0615070408040904868837983DC
:100AE0008A839B839B01AC015F77B901CA01CDB7B3
:100AF000DEB7EAE00C946E2A0E942C0508958BE480
:100B000093E00E942C05089560934B0370934C036F
:100B100080934D0390934E030895A0E0B0E0E3E985
:100B2000F5E00C944B2AEC012B016A01611571056B
:100B300019F0FB0191838083C114D10449F0C601EF
:100B40000297839728F020E030E040E050E0DCC0DE
:100B5000A9908A2D90E00E943F2A892BC9F7FDE2D7
:100B6000AF1621F4A9903324339405C08BE2A81664
:100B700009F4A9903324C114D10421F0E0E1CE1688
:100B8000D10411F5F0E3AF1669F48881883711F0CC
:100B9000883541F4A980229682E0382A20E1C22ECD
:100BA000D12C12C0C114D10479F4E0E3AE1659F18E
:100BB00099E9E92E99E9F92E99E9092F99E1192F77
:100BC0008AE0C82ED12C3AC0FAE0CF16D10491F0B9
:100BD00080E1C816D10429F0E8E0CE16D104F9F47A
:100BE00015C0BFEFEB2EBFEFFB2EBFEF0B2FBFE00B
:100BF0001B2F24C0A9E9EA2EA9E9FA2EA9E90A2F98
:100C0000A9E11A2F1BC0F8E0CF2ED12CEFEFEE2E6A
:100C1000EFEFFE2EEFEF0E2FEFE11E2F0FC096012C
:100C2000442737FD4095542F6FEF7FEF8FEF9FEFF5
:100C30000E94E829C901DA017C018D0120E030E041
:100C400040E050E060E03601882477FC8094982CE6
:100C500070EDB72EBA0CF9E0FB1570F48A2D8154B3
:100C60008A3118F499ECB92E06C08A2D81568A3142
:100C700048F589EAB82EBA0C8B2D90E08C159D05AD
:100C80000CF56F3FE9F0E216F30604071507B8F01C
:100C9000CA01B901A40193010E94B6299B01AC01CC
:100CA0008B2D90E0A0E0B0E0280F391F4A1F5B1F9A
:100CB000281739074A075B0710F061E001C06FEFA2
:100CC000A990C6CF4114510451F0662311F0219729
:100CD00003C031FE04C02297F201D183C08330FEED
:100CE00007C050954095309521953F4F4F4F5F4F2E
:100CF00067FF0AC082E290E0909397068093960681
:100D00002FEF3FEF4FEF5FEFB901CA01CDB7DEB76D
:100D1000E1E10C94672AFC0188279927E894219146
:100D20002032E9F3293010F02E30C8F32B3241F095
:100D30002D3239F4689404C00E94E906820F911D97
:100D4000219120532A30C0F31EF4909581959F4F36
:100D5000089544E454E00E94B7060895FB01DC01C5
:100D600002C001900D9241505040D8F7089500976D
:100D700031F4DA018D919C91009709F40EC0DC01E9
:100D8000FB013D912191222319F03217C9F3FACFCB
:100D9000332331F4DA011D921C9288279927089594
:100DA0001197AF93BF93FB013D912191321771F4DD
:100DB000332321F488279927119702C01E92119698
:100DC000FA01A193B0839F918F910895222369F72F
:100DD000EACF7AE0979F902D879F802D910D112467
:100DE000089580914604813019F482E0809346048E
:100DF00080914604833019F484E08093460408957A
:100E000027E02093470480E092ECA1E0B0E08093DB
:100E1000480490934904A0934A04B0934B04209350
:100E2000540480EC92E9ADEEB9E180934C049093C8
:100E30004D04A0934E04B0934F0485E08093550475
:100E40008DEE9EEFADEABEED809350049093510479
:100E5000A0935204B0935304A6E5B4E080E090E080
:100E6000863010F0E0E004C0FC01E25DFB4FE08161
:100E7000ED9301968831910599F782E080936E0495
:100E80008AE080936F0408958F929F92AF92BF92F1
:100E9000CF92DF92EF92FF920F931F93FC0100A578
:100EA00010E087A190E023E130E0829FF001839F72
:100EB000F00D929FF00D1124E857FC4F8080918037
:100EC000A280B380F801E770F070EA5DFB4F6081AB
:100ED00070E0615F7F4F882777FD8095982F20E431
:100EE0003FE14DE750E00E94B629A50194010E9420
:100EF000E82969017A0180ED97E0A0E0B0E0C80E32
:100F0000D91EEA1EFB1E03FF10C060E07EEE8AEBD6
:100F10009BE0A50194010E94E82928513C4F4F4FC6
:100F20005F4FC20ED31EE41EF51E87EE93E0A0E0D5
:100F3000B0E0C80ED91EEA1EFB1EC701B60128EE9E
:100F400033E040E050E00E94E829CA01B90128EEF0
:100F500033E040E050E00E94B6291F910F91FF90CE
:100F6000EF90DF90CF90BF90AF909F908F900895BB
:100F7000FF920F931F93082FFB01DA01F82EF694CE
:100F800010E0808191818C938281938111968C9362
:100F900011978481958112968C93129786819781FF
:100FA00013968C9313972081318142815381648100
:100FB0007581868197819295990F990F907C832FE7
:100FC0008370982B852F8370880F880F982B872F1D
:100FD00083708295807F982B14969C931497159616
:100FE00038961F5FF11668F600FF5CC08081918122
:100FF0008F3F910509F010F440E00CC022E08030F2
:10100000920710F441E006C08050934010F043E096
:1010100001C042E0828193818F3F910509F010F475
:1010200050E00CC022E08030920710F451E006C07E
:101030008050934010F053E001C052E084819581CC
:101040008F3F910509F010F480E00CC022E0803061
:10105000920710F481E006C08050934010F083E0C6
:1010600001C082E0268137812F3F310509F010F45D
:1010700090E00CC092E02030390710F491E006C0F7
:101080002050334010F093E001C092E05295507F21
:101090004295440F440F407C452B880F880F842BCA
:1010A000892B8C931F910F91FF90089523E080323C
:1010B000920718F420E030E026C023E0883E920733
:1010C00048F49C012F513340E4E036952795EA958A
:1010D000E1F719C027E0803D920720F49C012C5DC8
:1010E000334011C028E08839920718F02FEF33E021
:1010F0000AC09C01285C374074E0369527957A95A4
:10110000E1F72D503C4FC9010895882339F05F98CD
:101110000000289A00005F9A000008955F98000080
:10112000289800005F9A000008950F931F93082FDE
:101130005C9A5F985C9810E0802F80780E94850808
:10114000000F1F5F1830C1F75F981F910F9108952E
:101150008F770E94950808950F931F93082F10E032
:10116000802F80780E948508000F1F5F1830C1F71C
:101170005F981F910F9108955F9820E030E0220F53
:101180005F9A000083B15F98000090E09695879584
:101190008170280F3F5F383091F7822F08950E94A9
:1011A000A8080E94BC085C9A08951F93162F8068B7
:1011B0000E949508812F0E94AC085C9A1F910895A7
:1011C000682F89E70E94D508089586E20E94CF081B
:1011D00008950F931F938C018CE1F80164810E94A4
:1011E000D5088DE1F80165810E94D5088EE1F801EE
:1011F00066810E94D50880E2F80167810E94D508C7
:1012000081E2F80160850E94D50882E2F8016185DB
:101210000E94D50883E2F80162850E94D50884E225
:10122000F80163850E94D50885E2F80164850E9473
:10123000D5088AE2F80165850E94D5088EE6F80196
:1012400066850E94D5088FE6F80167850E94D5085B
:1012500080E7F80160890E94D50881E7F80161897B
:101260000E94D50882E7F80162890E94D5081F9183
:101270000F910895EF92FF920F931F93CF93DF93F7
:101280007B018C01603028E372072CE982072CE196
:10129000920728F520E836E948E950E00E94E8295D
:1012A000E9016897B90180E090E020E839E647E677
:1012B0005FEF0E94B6296E0D7F1D801F911FF2E027
:1012C000660F771F881F991FFA95D1F721E732E043
:1012D00040E050E00E94E829890180E421C020E03C
:1012E0003DE241E351E00E94E829E9016897B90134
:1012F00080E090E020E033ED4EEC5EEF0E94B629F6
:101300006E0D7F1D801F911F660F771F881F991F0D
:1013100021E732E040E050E00E94E829890180E6C0
:101320009E012F71622F680F85E70E94D50886E71E
:10133000612F0E94D50887E7602F0E94D508DF91B2
:10134000CF911F910F91FF90EF9008959F92AF92D0
:10135000BF92CF92DF920F93DF93CF9300D000D054
:10136000CDB7DEB7982E83E00E94CF0880938A0421
:1013700084E00E94CF0880938B0486E060E00E94A6
:10138000D50887E061E00E94D50889E06FE70E94F8
:10139000D5088AE065E00E94D5088BE062E10E94F2
:1013A000D5088CE065E10E94D5088DE06DEF0E94C4
:1013B000D5088EE060E00E94D508992019F081ECF4
:1013C00093E008C080916E0423E1829FC001112444
:1013D00088579C4F0E94E90880E36CE80E94D5087A
:1013E00082E36FE00E94D50883E362E40E94D5089F
:1013F00084E36AE00E94D50885E36AE20E94D5088A
:1014000086E36DE20E94D50887E364ED0E94D5086B
:1014100088E360E00E94D50889E360E00E94D50877
:10142000992049F00CE1A02E0EEBB02E01ECC02E5D
:101430000EEDD02E08C0A0905004B0905104C09082
:101440005204D09053040AE38D2D9927AA27BB2775
:1014500089839A83AB83BC83802F69810E94D508DE
:10146000802F8B5F69810E94D508DC2CCB2CBA2C95
:10147000AA240F5F0E3341F783E46FEF0E94D50873
:1014800084E46FEF0E94D50885E46FEF0E94D508D1
:1014900086E46FEF0E94D508992019F08DE660E090
:1014A00003C08DE6609154040E94D50889E760E08E
:1014B0000E94D5088AE7609155040E94D50883E709
:1014C00060E00E94D50884E760E00E94D50899207A
:1014D00029F060EC72E98DEE99E108C060914C044E
:1014E00070914D0480914E0490914F040E943A09EE
:1014F0000F900F900F900F90CF91DF910F91DF9091
:10150000CF90BF90AF909F90089587E061E00E94D8
:10151000D5088EE764E20E94D50888E063E00E9467
:10152000D50888E060E00E94D50887E065E00E9469
:10153000D50885E062E00E94D50883E00E94CF08CC
:1015400080938A0484E00E94CF0880938B040895DE
:101550001F920F920FB60F921124EF92FF921F93DA
:101560002F933F934F935F936F937F938F939F93AB
:10157000AF93BF93EF93FF934B9959C02091840091
:101580003091850010928500109284008091F503BF
:101590008823F9F08091F503833368F01092F50306
:1015A000809193058B3020F081E0809393053FC0BC
:1015B000109293053CC02C5D354028F48091930532
:1015C0008F5F809393058091F5038F5F8093F50380
:1015D0002EC080919305882311F436952795E9E074
:1015E000253C3E0728F01092F403109292051FC08C
:1015F000F2E02D3B3F07C0F08091F4038031A0F46E
:101600001091F403E12EFF24C9010E945608EE0C4C
:10161000FF1C24ED33E0E20EF31EF701918380837B
:101620001F5F1093F40303C080E18093F403FF91E4
:10163000EF91BF91AF919F918F917F916F915F914A
:101640004F913F912F911F91FF90EF900F900FBE00
:101650000F901F9018951092920410929704109278
:10166000960410929904109298040895FF920F9393
:101670001F93CF93DF93182F092FF62E8EE30E942E
:10168000D508212F302FC901EC0110E005C08FE7EC
:1016900069910E94D5081F5F1F15C8F385E064E0BB
:1016A0000E94D50883E00E94CF0880938A0484E0DA
:1016B0000E94CF0880938B040E94A22360938C0425
:1016C00070938D0480938E0490938F0487E069E07B
:1016D0000E94D50881E080934604DF91CF911F914D
:1016E0000F91FF9008950E94360B8091460481303F
:1016F000D9F40E94A22320918C0430918D04409152
:101700008E0450918F04621B730B840B950B605AEF
:1017100076488140904040F4E8CF84E796E060E06E
:1017200071E00E9479290895809146048130A9F3DF
:1017300008950F931F93CF93DF93182F092F84E7FA
:1017400096E06EE70E94BD26212F302FC901EC01E3
:1017500010E000E288818D57823040F484E796E003
:101760006DE70E94BD2688818027888384E796E004
:1017700069910E94BD261F5F193061F784E796E0EA
:101780006EE70E94BD26DF91CF911F910F910895C2
:10179000DF93CF93CDB7DEB729970FB6F894DEBFAE
:1017A0000FBECDBF382F80917705882379F48EEF57
:1017B00089833A836B83842F90E0959587958C83FA
:1017C0002D83198618861F821E822FC040917605B0
:1017D000842F90E09C012F70307054E09595879590
:1017E0005A95E1F78217930721F18DEF89831A82C9
:1017F0001B82DE01149620E008C0EA59FA4F80816E
:101800008D93405F2F5F263069F0842F90E0FC01BC
:1018100034E0F595E7953A95E1F78F709070E81709
:10182000F90759F7409376052A83CE0101960E9465
:10183000990B8091770590E0019666E070E00E9438
:10184000D5298093770529960FB6F894DEBF0FBE91
:10185000CDBFCF91DF910895FF920F931F938C011D
:10186000F62E84E796E00E94BD26F80184818F253C
:1018700084831F910F91FF900895BF92CF92DF92C2
:10188000EF92FF920F931F937C01D62EC42EB52E9C
:1018900004E716E0C80165EB0E94BD26C80162E6B8
:1018A0000E94BD26F7011482C7016D2D0E942C0CE9
:1018B000C7016C2D0E942C0CC7016B2D0E942C0CB3
:1018C0001F910F91FF90EF90DF90CF90BF90089500
:1018D0000F931F938C016AEC41E050E00E943D0C95
:1018E000C80160E00E942C0C1F910F91089589E0BF
:1018F00060E00E945C2488E061E00E945C2487E054
:1019000061E00E945C2482E060E00E945C2484E04C
:1019100061E00E945C240895892B19F08AE061E05F
:1019200002C08AE060E00E949B2408958AE061E0A2
:101930000E945C248AE060E00E949B24089584E772
:1019400096E040E855E260E070E00E94CC25089502
:1019500083E00E94CF0880938A0484E00E94CF082D
:1019600080938B0487E061E00E94D5086AE070E014
:1019700080E090E00E94C8230E94850A000008953C
:101980000F931F93082F17C02D9A64E670E080E034
:1019900090E00E94C8232D9864E670E080E090E01B
:1019A0000E94C8231F5F101778F36CE271E080E09B
:1019B00090E00E94C82310E0F6CF80917905813035
:1019C000D1F0813020F0823009F043C037C08BE085
:1019D0000E94EF24892B09F03CC081E080937905B7
:1019E0000E94942360937A0570937B0580937C0515
:1019F00090937D0508958BE00E94EF24892BD9F404
:101A00000E94942320917A0530917B0540917C05BA
:101A100050917D05621B730B840B950B695E7340BF
:101A200080409040B0F082E08093790580ED97E0AF
:101A30000E948C0C08951092790508958BE00E9405
:101A4000EF24892B31F080E090E00E948C0C109202
:101A500079050895AF92BF92CF92DF92EF92FF92F5
:101A60000F931F93CF93DF938CE00E94CF088823BE
:101A700069F484E796E06CE071E00E9479292D9A80
:101A800080E00E94A6090E94850A2D9884E796E0CE
:101A90000E945326892B09F455C28091DC05C82F7A
:101AA000D0E09E012F5F3F4F2F7130708091DB059A
:101AB00090E02817390709F445C284E796E00E94B0
:101AC0008426CE54DA4F88838091DC0590E001961D
:101AD0008F7190708093DC05D9CF0E94A223609310
:101AE0008205709383058093840590938505611525
:101AF00071058105910561F481E090E0A0E0B0E01E
:101B00008093820590938305A0938405B093850507
:101B100083E0809346048FE70E94A808C9EAD5E0D5
:101B20000E94BC08899305E0C23BD007C9F74091E9
:101B300094058091A905282F30E0842F90E082271A
:101B4000932786FF54C080E4482740939405C90139
:101B500088739070C897D9F510E02EC01F5F8091F0
:101B60006F04E12FF0E084FF20C0E755FA4F608159
:101B700040917605842F90E0FC01EF70F0709F019A
:101B80002F5F3F4F74E0959587957A95E1F7281779
:101B9000390791F0EA59FA4F6083842F8F5F8F7075
:101BA000407F842B8093760507C0E755FA4F84E782
:101BB00096E060810E94BD26212F30E08091A9052A
:101BC00090E0877090708217930744F610C02F73CF
:101BD0003070232B61F48091AA0580938A0580914F
:101BE000AB0580938C058091AC0580938D05809129
:101BF000DD05813019F482E08093DD058091DD05FB
:101C0000833011F41092DD050E94A2235B016C0168
:101C100080918E0590918F05A0919005B0919105CE
:101C20000097A105B105C9F0A6019501281B390B44
:101C30004A0B5B0BDA01C901885B9B40A040B040B6
:101C400060F00E94E50880938B0510928E0510923B
:101C50008F05109290051092910587E494E00E9400
:101C6000440720917E0530917F0540918005509179
:101C7000810586017501E21AF30A040B150BE616BD
:101C8000F7060807190708F414C1A0927E05B09260
:101C90007F05C0928005D0928105809192058830A1
:101CA00008F0FFC0809192058F5F80939205E090CD
:101CB0008205F09083050091840510918505E1145B
:101CC000F10401051105F1F087E494E00E94440756
:101CD000AE18BF08C00AD10A6A157B058C059D05A0
:101CE00068F480ED97E00E948C0C109282051092AF
:101CF0008305109284051092850504C080E090E071
:101D00000E948C0C20919405207C20939405509186
:101D1000DC059091DB055917D1F18091DD0582300A
:101D2000B1F5205820939405E0916F04F0E0E7703E
:101D3000F070EA5DFB4FE081E93010F048E002C04E
:101D40004E2F415030E013C03F5FA32FB0E0892FEA
:101D500090E0FC01EE54FA4F2081FD01EC56FA4F61
:101D60002083AE52BA4F2C930196982F9F7134174F
:101D700010F4951749F79093DB05832F895C9091B8
:101D80009405892B809394053093D2051AC09091C5
:101D9000DD059430D1F49091D205E3EDF5E0A5E9AD
:101DA000B5E0292F30E02E0F3F1F02C081918D93A7
:101DB000E217F307D9F7995C80919405982B9093DB
:101DC000940583E08093DD0523C0809179058230FE
:101DD00029F42160209394052D9A0FC02093940537
:101DE0002D98992319F481E08093DD058091DD051C
:101DF000833019F484E08093DD05F89480916F04BA
:101E0000877064ED73E045E955E00E94B807789467
:101E10002C9AE0917805F0E0E95BFB4F87850E9402
:101E2000E008E0916F04F0E0E770F070EA5DFB4FCE
:101E300084E995E060810E94730BE0917805EF5F83
:101E4000E0937805E83131F0F0E0E95BFB4F8785FE
:101E5000882311F41092780580916F0483FF29C0C4
:101E600083E0809346040E94850A0E94A223609327
:101E70008E0570938F058093900590939105611561
:101E8000710581059105A9F481E090E0A0E0B0E042
:101E900080938E0590938F05A0939005B093910544
:101EA00008C080919205883009F42D9A89E08093CA
:101EB000920580916F0484FF37C00E94A223209175
:101EC0008605309187054091880550918905621BF0
:101ED000730B840B950B615375478040904020F144
:101EE0000E94A223609386057093870580938805DE
:101EF0009093890530918C0560918D0580918205C4
:101F000090918305A0918405B09185050097A10566
:101F1000B10519F420E040E004C040918A05209109
:101F20008B05832F0E94C80B2C980E94DD0CDF913B
:101F3000CF911F910F91FF90EF90DF90CF90BF90C6
:101F4000AF90089580914604843009F05DCEC5CDF0
:101F50001092640585E6EFEFF4E0DF011D928A95AB
:101F6000E9F708951F93182F8F3719F0883009F07B
:101F700042C0E0916405EE2309F45DC0E150E093B6
:101F80006405F0E0E150FB4F108284E796E06DE0DD
:101F90000E94BD2610E00DC0E12FF0E0E150FB4FA4
:101FA0006081772767FD709584E796E00E94BD26E3
:101FB0001F5F80916405181778F384E796E060E26C
:101FC0000E94BD2684E796E06DE00E94BD2610E0E9
:101FD0000DC0E12FF0E0E150FB4F6081772767FDF6
:101FE000709584E796E00E94BD261F5F809164058E
:101FF000181778F325C08B3119F40E94A80F02C07E
:102000008D3011F481E01DC080916405843698F410
:10201000612F772767FD709584E796E00E94BD26C3
:1020200080916405E82FF0E0E150FB4F10838F5F53
:102030008093640505C084E796E067E00E94AF27BF
:1020400080E01F9108951F93CF93DF93C6E5D4E0FE
:1020500010E03BC084E796E06BE171E00E947629D6
:1020600084E796E0612F4AE050E00E94D42884E79C
:1020700096E068E271E00E947629699170E080E064
:1020800090E02091550430E040E050E00E94B629F5
:1020900020E137E240E050E00E94B629DC01CB01AC
:1020A00040914C0450914D0460914E0470914F0446
:1020B000480F591F6A1F7B1F84E796E02AE030E033
:1020C0000E9492281F5F183119F08881882311F629
:1020D000DF91CF911F910895FF920F931F93CF939C
:1020E000DF9384E796E06FE978E00E948C27809187
:1020F0007004813049F484E796E066E878E00E9455
:10210000D7270DE0F02E15C0823049F484E796E021
:1021100061E778E00E94D72716E0F12E0AC08430EC
:1021200041F484E796E06DE578E00E94D727BAE0B5
:10213000FB2E01E714E0C0E0D0E043C0C930D10578
:1021400014F0685C01C06F5C84E796E00E94AF27E2
:1021500084E796E065E578E00E948C27219684E785
:1021600096E0BE014AE050E00E94442984E796E0F0
:102170006AE478E00E948C27D801EC91E03190F479
:1021800084E796E06DE378E00E948C27F801608197
:1021900070E06F5F7F4F84E796E04AE050E00E9476
:1021A00057290DC0F0E0E770F070EE0FFF1FEA5006
:1021B000FC4F6081718184E796E00E9479290F5F6E
:1021C0001F4F6C2FCF1508F4B9CF84E796E061E27A
:1021D00078E00E948C2780917E0480FD03C06CE231
:1021E00071E002C06FE271E084E796E00E94792915
:1021F00084E796E065E078E00E948C2780917E0479
:1022000081FD03C06CE271E002C06FE271E084E71F
:1022100096E00E94792984E796E06AEE77E00E94D2
:102220008C2784E796E0609189044AE050E00E94A0
:10223000D42884E796E062EE77E00E94D72784E70F
:1022400096E067EC77E00E948C27409180045091E3
:1022500081046091820470918304411551056105E8
:10226000710529F184E796E02AE030E00E94922887
:1022700084E796E061EA77E00E948C27609184040D
:102280007091850484E796E04AE050E00E94B72808
:1022900084E796E06EE777E00E948C2784E796E07B
:1022A000609186044AE050E00E94E62806C084E778
:1022B00096E065E777E00E94D72784E796E068E537
:1022C00077E00E948C27609187047091880484E7EE
:1022D00096E04AE050E00E94B72884E796E06BE37E
:1022E00077E00E948C2760917F04603150F470E0A9
:1022F0006F5F7F4F84E796E04AE050E00E945729E5
:1023000006C084E796E062E377E00E94D72784E77F
:1023100096E065E177E00E948C2780917E0482FD43
:1023200003C061E371E002C065E371E084E796E019
:102330000E94792984E796E068EF76E00E948C2776
:1023400080917E0483FD03C069E371E002C062E412
:1023500071E084E796E00E947929DF91CF911F9187
:102360000F91FF9008951F93CF93DF938091FE0408
:102370008B3054F48730DCF58F3F51F08F3F0CF4F5
:1023800095C08130CCF592C08E300CF08FC02AC041
:1023900084E796E06CE00E94BD2684E796E066E460
:1023A00074E00E94D72784E796E063E174E00E941E
:1023B000D72784E796E060EF73E00E94D72784E791
:1023C00096E068ED73E00E94D72784E796E063EB20
:1023D00073E00E94D72784E796E00E94B7270E9407
:1023E0006C1064C080917004843009F45FC08091E7
:1023F0007004823009F45AC084E796E06EE973E015
:102400000E948C276091FE04772767FD709584E712
:1024100096E04AE050E00E94572984E796E063E79F
:1024200073E00E948C27CFE4D3E014E138C08091A0
:102430007004981799F5298130E08091FE0499275E
:1024400087FD909501972817390741F584E796E0B5
:102450006AE471E00E94762984E796E0612F4AE001
:1024600050E00E94D42884E796E06EE471E00E9478
:102470007629EA81F0E0E770F070EE0FFF1FEA5076
:10248000FC4F6081718184E796E00E94762984E7A1
:1024900096E062E571E00E9476291F5F239698819D
:1024A000992329F684E796E00E94B7276AE070E056
:1024B00080E090E00E94C82304C084E796E00E9478
:1024C000842684E796E00E945326892BB1F7DF919A
:1024D000CF911F9108951F93CF93DF9384E796E0E8
:1024E0006FE879E00E948C2740914C0450914D0494
:1024F00060914E0470914F0484E796E02AE030E04A
:102500000E94922884E796E069E779E00E948C2790
:1025100040915004509151046091520470915304C1
:1025200084E796E020E130E00E94922884E796E07C
:1025300063E679E00E948C2784E796E0609154047A
:102540004AE050E00E94E62884E796E06DE479E0F6
:102550000E948C2784E796E0609155044AE050E0A1
:102560000E94E62884E796E067E379E00E948C27E2
:10257000C6E5D4E010E012C0112331F084E796E004
:1025800064E571E00E94762984E796E069914AE06B
:1025900050E00E94D4281F5F183119F088818823E9
:1025A00059F784E796E00E94B72784E796E061E256
:1025B00079E00E948C2784E796E060916E044AE0FF
:1025C00050E00E94E62884E796E06CE079E00E9403
:1025D0008C27E0916F04F0E0E770F070EE0FFF1FC2
:1025E000EA5FFB4F6081718184E796E00E94792960
:1025F00084E796E067EF78E00E948C2780916F0473
:1026000083FD03C069E371E002C062E471E084E726
:1026100096E00E94792984E796E062EE78E00E94D5
:102620008C2780916F0484FD03C069E371E002C0D0
:1026300062E471E084E796E00E94792984E796E0FD
:102640006EEC78E00E948C27409148045091490438
:1026500060914A0470914B0484E796E02AE030E0F0
:102660000E94922884E796E061EB78E00E948C2734
:1026700087E494E00E944407AB01BC0184E796E044
:102680002AE030E00E94832884E796E06CEA78E054
:102690000E948C2787E494E00E9444079B01AC01D0
:1026A00060E472E48FE090E00E94E82984E796E01D
:1026B000BA01A9012AE030E00E94832884E796E06D
:1026C00069EA78E00E94D727DF91CF911F910895A2
:1026D0008091FE04853009F477C0863094F482300E
:1026E00009F463C0833034F48F3FF1F0813009F096
:1026F00090C056C0833009F45DC0843009F089C0B1
:102700005EC0883009F475C089303CF4863009F425
:1027100060C0873009F07DC061C0893009F46EC0A7
:102720008A3009F076C06FC084E796E06CE00E94C2
:10273000BD2684E796E068EE76E00E94D72784E71E
:1027400096E063EC76E00E94D72784E796E069E99B
:1027500076E00E94D72784E796E068E776E00E945B
:10276000D72784E796E06BE476E00E94D72784E7DA
:1027700096E065E276E00E94D72784E796E061E084
:1027800076E00E94D72784E796E06AED75E00E9424
:10279000D72784E796E00E94B7270E946B1239C0C2
:1027A00084E796E06DEB75E032C084E796E068E977
:1027B00075E02DC084E796E063E875E028C084E703
:1027C00096E064E675E023C084E796E060E275E099
:1027D0001EC084E796E06BE075E019C084E796E0E0
:1027E00066EF74E00E94D72784E796E060EB74E020
:1027F0000EC084E796E06DE974E009C084E796E0D6
:1028000064E874E004C084E796E06EE674E00E9439
:10281000D7276AE070E080E090E00E94C82304C0FF
:1028200084E796E00E94842684E796E00E9453267F
:10283000892BB1F708952F923F924F925F926F923A
:102840007F928F929F92AF92BF92CF92DF92EF9240
:10285000FF920F931F93DF93CF9300D000D00F927E
:10286000CDB7DEB78C839D834B018DB79EB79A831E
:102870008983ADB69EB79B830E9494231B012C01D4
:102880008DB79EB7881999090FB6F8949EBF0FBEF1
:102890008DBF6DB67EB60894611C711CEE24FF24BA
:1028A000BB24B8C084E796E00E945326892B09F424
:1028B000B1C084E796E00E948426282F93E0B916E1
:1028C000E1F09B1530F081E0B816B9F08B15D0F02F
:1028D0000EC095E0B91609F471C0B916E0F186E0B2
:1028E000B81659F097E0B91609F094C06CC02335BA
:1028F00009F09CC0BB24B3948DC02A3309F096C064
:10290000B39488C0822F80538A30A8F4C701A3E013
:10291000880F991FAA95E1F7EE0CFF1CE80EF91E2F
:1029200080ED9FEFE80EF91E822F992787FD909585
:10293000E80EF91E6FC0283409F078C0E814F904D5
:1029400009F074C0EE24FF24E3E0BE2E00E010E0A6
:10295000CC24DD245FC0822F80538A30C0F1822FC7
:102960008154863070F474E0000F111F7A95E1F7FE
:1029700007531040822F992787FD9095080F191F44
:1029800049C02C3209F052C0F301EE0DFF1D008347
:102990000894E11CF11C8D2D992787FD90958827BF
:1029A000990F881F9927CC0CDD1CC80ED91E1070FA
:1029B000C026D126E814F90459F528C02435B1F50C
:1029C00046E0B42E25C0822F80538A3040F434E094
:1029D000000F111F3A95E1F700531040CBCF822F23
:1029E0008154863008F4BFCF2A33A1F4C016D10633
:1029F000E9F484E796E066E571E00E9479298C812C
:102A00009D81B301A4010E94AE0627C025E0B22E2D
:102A100000E010E00E94942362197309840995096B
:102A2000605D77408040904008F43CCF84E796E0BA
:102A300065E671E00E9479296AE070E080E090E04C
:102A40000E94C82304C084E796E00E94842684E79D
:102A500096E00E945326892BB1F78A2D9B819C0119
:102A60000FB6F8943EBF0FBE2DBF89819A810FB675
:102A7000F8949EBF0FBE8DBF0F900F900F900F90D8
:102A80000F90CF91DF911F910F91FF90EF90DF900A
:102A9000CF90BF90AF909F908F907F906F905F90FE
:102AA0004F903F902F900895EF92FF920F931F93B6
:102AB000CF93DF93182F092F7B0184E796E068E717
:102AC00071E00E94762984E796E0B7014AE050E081
:102AD0000E94A628E114F10419F4C0E0D0E044C03B
:102AE000812F902F9C01890184E796E06CE771E0CB
:102AF0000E947629C0E0D0E0D801EC91F0E034E00B
:102B0000F595E7953A95E1F7EA5EFB4F84E796E0A5
:102B100060810E94AF27D801EC91F0E0EF70F07077
:102B2000EA5EFB4F84E796E060810E94AF2784E76E
:102B300096E06CE20E94AF278D2F992787FD909534
:102B40008827990F881F9927CC0FDD1FC80FD91F21
:102B5000F80181918F0190E0C827D9270894E108F6
:102B6000F108E114F10441F684E796E06FE771E0C3
:102B70000E94762984E796E0BE0140E150E00E9481
:102B8000A62884E796E062E871E00E947929DF9147
:102B9000CF911F910F91FF90EF900895EF92FF92C8
:102BA0000F931F93DF93CF93CDB7DEB76B970FB61D
:102BB000F894DEBF0FBECDBF282F8091FE048F3F5B
:102BC00009F031C1822F992787FD9095A92FB92F40
:102BD000FC013A97EF36F10508F092C2EC5CFF4F2A
:102BE000EE0FFF1F0590F491E02D099480E794E02B
:102BF0006AE170E00E94541583C280E794E06AE1C4
:102C000070E00E941B1474C284E796E064E871E0EF
:102C10000E94792985E78983DE011296E0E7F4E0D6
:102C20008AE101900D928150E1F7CE0101966BE1AE
:102C30000E94730B0E94850A83E08093460468EC2F
:102C400070E080E090E00E94C823809146048430C8
:102C500009F056C28FE70E94A8080E94BC08898329
:102C6000853509F04DC284E796E065E573E00E9482
:102C7000D72784E796E067E373E00E94D72784E7CD
:102C800096E069E173E0B5C084E796E06CE971E035
:102C90000E94792989E68983CE01019661E00E942C
:102CA000730B0E94850A83E08093460468EC70E011
:102CB00080E090E00E94C82380914604843009F0AF
:102CC0001FC28FE70E94A8080E94BC0889838E015A
:102CD0000E5F1F4F7CE1E72EF12CEC0EFD1E0E94D3
:102CE000BC08D8018D938D01AE15BF05C1F7A0E7D3
:102CF000B4E0FE0132968AE101900D928150E1F735
:102D00008981893409F0FCC184E796E06BEF72E0B9
:102D10000E94D72784E796E06DED72E00E94D727E6
:102D200084E796E06FEB72E064C084E796E066EBC0
:102D300071E00E9479298EEF8093FE04E1C1205258
:102D40002750822F805390917004873014F0923076
:102D500031F08B300CF472C0943009F06FC084E70E
:102D600096E065EC71E00E947929CAC184E796E09B
:102D70006CEA72E00E94D72780917E0491E04FC0F8
:102D800084E796E069E972E00E94D72780917E048B
:102D900092E045C086E18093FE0484E796E06DE70B
:102DA00072E027C087E18093FE0484E796E063E346
:102DB00072E01FC088E18093FE0484E796E062E23F
:102DC00072E017C089E18093FE0484E796E06EE02C
:102DD00072E00FC08AE18093FE0484E796E069EF19
:102DE00071E007C08BE18093FE0484E796E060ED1C
:102DF00071E00E94D72784C184E796E066EB71E01A
:102E00000E94D72780917E0494E009C084E796E071
:102E100060EA71E00E94D72780917E0498E08927BC
:102E200080937E040AC0822F0E94B20F882309F487
:102E300067C180916405882321F48FEF8093FE049D
:102E400057C18FEF94E060E070E040E050E00E94F6
:102E50008D059B01AC01E091FE04EE3044F4EB30B3
:102E6000E4F4E1300CF434C1E7300CF11BC0E8317C
:102E700009F4D3C0E9313CF4E63109F45AC0E73132
:102E800009F026C164C0EA3109F4E5C0EA310CF466
:102E9000D4C0EB3109F01CC1EFC0809170048430C4
:102EA00009F416C180917004823009F411C1DA016D
:102EB000C9010197A109B1094097A105B10570F0B9
:102EC000E090700464E1F62EF0E06FE473E00E2F02
:102ED000112707FD10950150104026C0FF27E7FD80
:102EE000F095E059FB4F822F81508083D9C08E1519
:102EF000C9F4DB0111968C9190E08017910791F451
:102F00008F2D90E0A0E0B0E082179307A407B507EB
:102F100041F4F801E059FB4FDB0112968C9181835B
:102F2000F1E0F3946D5F7F4FDB018C918823F9F61C
:102F3000B5C0DC01CB010197A109B1098F3F910513
:102F4000A105B10508F0C4C020938904A9C08091EF
:102F5000FF048062803719F580E095E060E070E062
:102F600040E050E00E948D059B01AC01DC01CB01EB
:102F70000197A109B1090897A105B10508F0BBC0E7
:102F8000CA01B90124ED30E340E050E00E94B629C7
:102F90009B01AC012A5E3C4A4A46554E24C0863607
:102FA00011F580E095E060E070E040E050E00E94C4
:102FB0008D059B01AC01DC01CB010197A109B10991
:102FC0000797A105B10508F096C0CA01B90128EA22
:102FD00031E640E050E00E94B6299B01AC01245E3E
:102FE0003C434E46544E211531054105510561F0D3
:102FF000DA01C9018054914EAD49B8418158904FD2
:10300000AA4FB24008F064C020938004309381043A
:10301000409382045093830443C0DC01CB010A97A0
:10302000A109B109865F9F4FA040B04008F050C091
:10303000309385042093840433C0DC01CB010597D1
:10304000A109B1098B3F9105A105B10508F040C068
:103050002093860425C0DC01CB01845C9940A0400C
:10306000B0408D549D41A040B04030F4309388046E
:1030700020938704F1E001C0F0E0211531054105FE
:10308000510511F48FEF07C021313105410551057C
:1030900028F4822F815080937F0402C0FF23C1F067
:1030A000809165058823D1F480915004909151045A
:1030B000A0915204B09153040196A11DB11D8093BB
:1030C000500490935104A0935204B093530406C04B
:1030D00084E796E067ED71E00E9479290E94A80FCD
:1030E0008FEF8093FE0484E796E06AE00E94EB276E
:1030F0000E94B31105C021E030E040E050E078CFFD
:103100006B960FB6F894DEBF0FBECDBFCF91DF91A7
:103110001F910F91FF90EF900895AF92BF92CF92C1
:10312000DF92EF92FF920F931F93DF93CF93CDB770
:10313000DEB76B970FB6F894DEBF0FBECDBF0E940F
:10314000A2237B018C0184E796E064E571E00E9494
:10315000D72781E00E94A609F0E7AF2E6E01089400
:10316000C11CD11CE3E0BE2EA982C60161E00E9411
:10317000730BB09246040E94850A6AEF70E080E00B
:1031800090E00E94C82384E796E065EF71E00E941A
:10319000762980914604833009F04BC00E94A22317
:1031A0006E197F09800B910B60507D4281439140E5
:1031B00008F03FC0D9CF84E796E067EF71E012C016
:1031C00084E796E06FEF71E00E9479298FE70E9413
:1031D000A8080E94BC088983803539F084E796E00E
:1031E0006CE072E00E94792929C000E714E00E9497
:1031F000BC08F80181938F01F4E00A381F07B9F782
:103200008FEF8093FE04109265050E94B3110CC0ED
:1032100084E796E00E945326892B31F084E796E0FC
:103220000E9484260E94CE158091FE048E3F81F775
:1032300005C080914604833019F6BDCF6B960FB65A
:10324000F894DEBF0FBECDBFCF91DF911F910F91DC
:10325000FF90EF90DF90CF90BF90AF9008952F92A6
:103260003F924F925F926F927F928F929F92AF9216
:10327000BF92CF92DF92EF92FF920F93DF93CF93A3
:10328000CDB7DEB7A8970FB6F894DEBF0FBECDBF9F
:103290007E010894E11CF11C80E1D7011D928A9502
:1032A000E9F72D982C9884E796E06DE172E00E9492
:1032B00079290E94A80C198A1A8A1B8A1C8A20E480
:1032C00031EE4DE958E129A33AA34BA35CA380EC6E
:1032D00091EDA8E9BBE18D8F9E8FAF8FB8A324EF4E
:1032E00031E040E050E0298F3A8F4B8F5C8F80E5D2
:1032F00093ECA0E0B0E08D8B9E8BAF8BB88FB0E4E9
:103300004B2EB1EE5B2EBDE96B2EB8E17B2E8824EF
:103310009924540100E02224332402C184E796E07A
:103320000E9484268C32D9F1843421F0833209F052
:10333000C5C024C084E796E064E40E94AF2784E718
:1033400096E040E451EE6DE978E12AE030E00E9439
:10335000042984E796E06CE20E94AF2784E796E0B8
:1033600040EC51ED68E97BE12AE030E00E9404295D
:1033700084E796E06CE20E94EB27D2C019821A82A1
:103380001B821C821D821E821F82188619861A8645
:103390001B861C861D861E861F86188A42C00F5FEC
:1033A000043009F0BDC069817A818B819C8128EE4F
:1033B00033E040E050E00E94B62969A37AA38BA3D2
:1033C0009CA36D817E818F8198850E94B6296D8F27
:1033D0007E8F8F8F98A329853A854B855C85298FB1
:1033E0003A8F4B8F5C8F6D857E858F85988928EE0F
:1033F00033E040E050E00E94B6296D8B7E8B8F8BCE
:10340000988F60527E448040904068F48CE162E383
:103410000E94D50849A05AA06BA07CA088249924BA
:10342000540100E07DC08D899E89AF89B88D80539D
:103430009547A040B04018F48CE162E2E9CF2D89B5
:103440003E894F89588D20543C494040504018F4E3
:103450008CE166E2DDCF2D893E894F89588D20555C
:10346000334C4040504018F48CE162E1D1CF2D89BB
:103470003E894F89588D20563A4E4040504018F4AE
:103480008CE165E1C5CF2D893E894F89588D205744
:1034900031414140504018F48CE161E0B9CF2D89B1
:1034A0003E894F89588D205A36484140504018F483
:1034B0008CE163E0ADCF8CE165E0AACF80538A3028
:1034C00078F5C02EDD24CC0CDD1CCC0CDD1CA1E07D
:1034D000B0E0AC0FBD1FCA0EDB1E282F332727FD1F
:1034E0003095432F532F2DA33EA34FA358A7D601AA
:1034F0006D917D918D919C912AE030E040E050E00B
:103500000E94B6292DA13EA14FA158A5260F371F15
:10351000481F591FD6012D933D934D935C931397EC
:1035200084E796E00E945326892B09F0F7CE811498
:103530009104A104B10489F4C301B2010E943A09C3
:1035400061E070E080E090E00E94C823198A1A8A46
:103550001B8A1C8A22242A943324298D3A8D4B8D70
:103560005C8D82169306A406B506D0F40E94E50889
:1035700029893A894B895C89280F311D411D511DCC
:10358000298B3A8B4B8B5C8B381608F4382E8215BE
:1035900008F4282E0894811C911CA11CB11CC0CFDA
:1035A000C301B20128EE33E040E050E00E94E82978
:1035B00084E796E0BA01A9012AE030E00E9483285E
:1035C00084E796E06CE20E94AF2784E796E0632DE3
:1035D0004AE050E00E94D42884E796E06CE20E9422
:1035E000AF2769897A898B899C89A50194010E94FA
:1035F000E82984E796E0BA01A9012AE030E00E94B8
:10360000832884E796E06CE20E94AF2784E796E087
:10361000622D4AE050E00E94D42884E796E06CE2F4
:103620000E94EB278D899E89AF89B88D480E591E5F
:103630006A1E7B1E2D8D3E8D4F8D58A1241535059C
:103640004605570520F449A05AA06BA07CA0882409
:103650009924540165CFDF92EF92FF920F931F934D
:10366000CF93DF930E94A223DC01CB010E94AE29FD
:10367000109250041092510410925204109253046C
:10368000DD24E0905004F090510400915204109118
:103690005304102F0F2DFE2CEE246FEF70E080E00E
:1036A00090E00E948C29E60EF71E081F191FE09279
:1036B0005004F09251040093520410935304D39495
:1036C00084E0D816F1F6C6E5D4E010E015C062E358
:1036D00070E080E090E00E948C296F5FE6E5F4E006
:1036E00090E004C08191861791F39F5F9117D0F30A
:1036F00069931F5F183119F08881882341F7DF91A2
:10370000CF911F910F91FF90EF90DF900895EF926E
:10371000FF920F931F93CF93DF9380E090E0A0E0A0
:10372000B0E0C0E0D1E0EE24F82E092F1A2F8EED84
:1037300095E0BE010E94BC22A8019701280F311D0F
:10374000411D511DDA01C901219631E0C430D30772
:1037500051F78C519E4BA14CBE4D19F020E030E04A
:1037600018C0C4E0D1E08EED95E0BE010E94BC22FD
:10377000FE01ED5BFC4F8083219651E0CD32D507F1
:1037800091F720E030E080914704873011F421E088
:1037900030E0C901DF91CF911F910F91FF90EF9021
:1037A00008950F931F93CF93DF93EC01062F15E03D
:1037B000115071F08EED95E0BE010E94BC220817F9
:1037C00051F08EED95E0BE01402F0E94C322F0CF54
:1037D00082E00E94C00CDF91CF911F910F9108955C
:1037E000CF92DF92EF92FF920F931F93CF93DF93CD
:1037F000C8E1D0E000E011E03CE1C32E3EEBD32E67
:1038000031ECE32E3EEDF32EA70196010C2E04C001
:1038100056954795379527950A94D2F7C801622F98
:103820000E94D11B28970F5F1F4F8FEFC83FD8070B
:1038300059F7C4E0D1E0FE01ED5BFC4FCE016081A1
:103840000E94D11B219681E0CD32D807A1F7DF91EC
:10385000CF911F910F91FF90EF90DF90CF9008953F
:103860008F929F92AF92BF92CF92DF92EF92FF9290
:103870000F931F93DF93CF93CDB7DEB7E6970FB6C5
:10388000F894DEBF0FBECDBF7C01FC01828186367D
:1038900009F4B9C0873690F4833009F448C0843005
:1038A00030F48130F1F0823009F04BC12DC084300A
:1038B00009F493C0853609F044C192C0893609F4F1
:1038C000EEC08A3638F4873609F4B0C0883609F07D
:1038D00038C1B5C08A3609F4EBC0873C09F031C164
:1038E0002DC1C70161E049E250E00E943D0C07E4B0
:1038F00014E0C701F80161918F010E942C0CF4E0E3
:1039000000371F07B1F720C1C70162E04AE150E06C
:103910000E943D0C00E714E0C701F80161918F019E
:103920000E942C0CF4E00A381F07B1F70DC1C70143
:1039300063E041E050E00E943D0C0E94A2235B0145
:103940006C0181E00E94A60960E7862E8E010F5F60
:103950001F4F53E0952E8982C80161E00E94730BCE
:10396000909246040E94850A68EC70E080E090E046
:103970000E94C82380914604833009F0FEC084E78A
:1039800096E00E945326892B09F0F7C00E94A223DB
:103990006A197B098C099D096058734C894C9140C8
:1039A00008F0EBC0D8CFC70162E0C5C08FE70E9426
:1039B000A8080E94BC088983803519F0C70163E01C
:1039C000BAC000E714E00E94BC08F80181938F019F
:1039D000F4E00A381F07B9F7A9C00E942F19B4C034
:1039E000F70187819085899709F0ABC0D701E7E49B
:1039F000F4E019968C9119978193119624E0E037A1
:103A0000F207B9F7A1C0F701878190854A9709F0BD
:103A100098C0D701E0E7F4E019968C91199781934B
:103A2000119624E0EA38F207B9F78EC0C70167E6BD
:103A300041E050E00E943D0C0E94F01B77C0C7019E
:103A400068E641E050E00E943D0C85E78983DE0195
:103A50001296E0E7F4E08AE101900D928150E1F7DF
:103A6000CE0101966BE10E94730B0E94850A83E0F0
:103A70008093460468EC70E080E090E00E94C823E8
:103A800080914604843009F05FC08FE70E94A80847
:103A90000E94BC088983853509F04BC047C0C70127
:103AA00069E641E050E00E943D0C0E9400073EC0E4
:103AB000C7016AE641E050E00E943D0C89E68C8F28
:103AC000CE014C9661E00E94730B0E94850A83E050
:103AD0008093460468EC70E080E090E00E94C82388
:103AE00080914604843081F58FE70E94A8080E94E7
:103AF000BC088C8F8E01035E1F4F47E3C42ED12C70
:103B0000CC0EDD1E0E94BC08F80181938F01EC15DC
:103B1000FD05C1F7A0E7B4E0FE017D968AE10190C2
:103B20000D928150E1F78C8D893419F4C70161E061
:103B300002C0C70160E00E942C0C06C010929004E5
:103B400003C0C7010E94680C84E796E0F701648116
:103B50000E94BD26E6960FB6F894DEBF0FBECDBF1D
:103B6000CF91DF911F910F91FF90EF90DF90CF9059
:103B7000BF90AF909F908F900895809146048330BE
:103B800009F014CF10CF6F927F928F929F92AF92D5
:103B9000BF92CF92DF92EF92FF920F931F93CF933A
:103BA000DF9381E08093900486E9E82E84E0F82E8C
:103BB00004E0C02ED12CCE0CDF1C14E6612EB4E044
:103BC0007B2EA6E09A2EF5E08F2EE2E0AE2E73E07B
:103BD000B72EB8C084E796E00E945326892B09F4DB
:103BE000B1C0A9C084E796E00E948426982F8093F4
:103BF000910480919204833021F1843028F4813043
:103C000099F08230B8F409C0853009F450C085308D
:103C100020F1863009F08FC067C0953B09F08BC05A
:103C200081E08093920487C0923609F082C0A0920E
:103C3000920481C09093930490939404B092920460
:103C40007AC090939604F701118280919404892799
:103C500080939404709292046EC0D92FC0E020919A
:103C60009604309197042C2B3D2B3093970420938E
:103C700096048091940489278093940480929204FE
:103C80002536310508F457C081E994E06CEC41E039
:103C900050E00E943D0C81E994E061E00E942C0C10
:103CA00084E796E0609195040E94BD2642C0209171
:103CB000980430919904F901EF56FB4F9187809158
:103CC00094048927809394042F5F3F4F3093990485
:103CD00020939804809196049091970428173907AF
:103CE00050F19092920427C000919404091729F48E
:103CF00081E994E00E94301C13C01091930481E983
:103D000094E06BEC42E050E00E943D0C81E994E0CD
:103D1000612F0E942C0C81E994E0602F0E942C0CF2
:103D2000F601862D11928A95E9F710929904109266
:103D300098041092920484E796E00E945326892BFF
:103D400009F050CF80919004813009F443CFDF9186
:103D5000CF911F910F91FF90EF90DF90CF90BF9088
:103D6000AF909F908F907F906F9008950F931F93C7
:103D70000091FE040F3F09F09EC0863409F47AC01A
:103D8000873414F5803309F491C0813384F48D3085
:103D900009F471C18E3024F48A3009F074C16BC10A
:103DA0008B3109F44BC0813209F06DC132C08833C8
:103DB00009F465C088330CF460C0893309F468C025
:103DC000803409F060C12CC0863609F453C08736B0
:103DD00084F4833561F1843534F48934D9F1823542
:103DE00009F051C13EC0883549F18A3509F04BC10F
:103DF0005FC08337E1F0843734F4893659F1823774
:103E000009F041C12EC08837C9F08A3709F03BC19B
:103E10004FC087E494E069E270E00E94541533C11A
:103E200087E494E069E270E00E941B1424C10E94C0
:103E3000F01B84E796E06AE272E006C00E94871BEE
:103E400084E796E064E472E00E9479298EEF809323
:103E5000FE0419C10E94000784E796E063E672E061
:103E600006C00E942B1B84E796E06CE772E00E947C
:103E7000792901C10E94231006C1805326C018E091
:103E80001093FE040E94681380916F04812709C07B
:103E900089E08093FE040E94681380916F0490E192
:103EA000892780936F040093FE04E5C08AE00DC06B
:103EB0000E948D1809C00E94B20F882309F4E3C044
:103EC00080916405882321F48FEF8093FE04D3C092
:103ED0008FEF94E060E070E040E050E00E948D05DC
:103EE0009B01AC018091FE04843009F441C085300F
:103EF00044F4823041F1833094F5813009F097C069
:103F00000DC0863009F467C086300CF43EC087309F
:103F100009F469C08A3009F08AC075C0DA01C901A4
:103F20008154914EAD49B8418F57904FAA4FB2403E
:103F300008F07DC020934C0430934D0440934E0410
:103F400050934F049BC020935004309351044093EE
:103F500052045093530481E0809365058FC028304C
:103F600031054105510508F062C02093540486C014
:103F7000DA01C9010197A109B1090A97A105B105A3
:103F800008F055C02093550479C08FEF94E064E5A4
:103F900071E00E94A90610E00EC0183130F4E12F44
:103FA000F0E0E95BFB4F87871F5F80E090E064E50E
:103FB00071E00E94A906009759F00E948B060097B5
:103FC00061F706C0E12FF0E0E95BFB4F17861F5F4A
:103FD0001831C0F353C0233031054105510538F580
:103FE00020936E044BC0DA01C9010197A109B10900
:103FF0000697A105B105D8F480916F04887F822BC4
:1040000080936F043BC0DA01C901805B9440A040FB
:10401000B04081559D4BA140B04048F420934804E6
:104020003093490440934A0450934B0427C084E7DB
:1040300096E067ED71E00E94792913C080915004E9
:1040400090915104A0915204B09153040196A11D86
:10405000B11D8093500490935104A0935204B093E7
:1040600053040E94A80F8FEF8093FE0484E796E02C
:104070006AE00E94EB270E94681305C080916505E5
:104080008823E1F2EECF1F910F9108958FEF809377
:10409000FE04109265050E9468130CC084E796E048
:1040A0000E945326892B31F084E796E00E948426F3
:1040B0000E94B61E8091FE048E3F81F76AE070E098
:1040C00080E090E00E94C82304C084E796E00E944C
:1040D000842684E796E00E945326892BB1F7089541
:1040E0007F928F929F92AF92BF92CF92DF92EF9288
:1040F000FF920F931F93DF93CF93CDB7DEB7AA97AD
:104100000FB6F894DEBF0FBECDBF0E9494236B01A3
:104110007C0181E00E94A60904C084E796E00E9429
:10412000842684E796E00E945326892BB1F711E09C
:1041300022E6722E92E0892E912C8C0E9D1E5E013D
:104140000894A11CB11C03E00E94942320E030E0FD
:104150006C197D098E099F09693C710581059105DE
:1041600010F021E030E0812F90E028233923232B29
:10417000A9F10E9494236B017C012C9A80ED97E0B9
:104180000E948C0C7982D401E7E4F4E089E201908A
:104190000D928150E1F7C5016AE20E94730B2C98E1
:1041A00080E090E00E948C0C009346040E94850AF7
:1041B00062E370E080E090E00E94C82380914604B2
:1041C000843059F4009346048FE70E94A8080E94A7
:1041D000BC08823411F410E001C011E08BE00E94B1
:1041E000EF24892B21F511E022C084E796E00E949C
:1041F00084268D30910569F08E3091051CF40A9764
:10420000B1F407C08332910569F08234910579F4E5
:104210000CC084E796E066E471E00E94D7270E9414
:10422000462005C00E942F1902C00E94C31D84E7CA
:1042300096E00E945326892B09F486CFD6CF84E7D7
:1042400096E00E94532604970CF184E796E00E94C2
:10425000842682349105D1F484E796E00E94842676
:104260008E34910599F484E796E00E948426843484
:10427000910561F484E796E00E948426819731F4E9
:1042800080E090E00E948C0C0E94702008958F9234
:104290009F92AF92BF92CF92DF92EF92FF920F93D5
:1042A0001F938BE00E94EF24892B09F08AC068ECF1
:1042B00070E080E090E00E94C82380E090E00E94DF
:1042C0008C0C0E9494235B016C0130ECE32E32E1F4
:1042D000F32E012D112DE60EF71E081F191F06C023
:1042E0008BE00E94EF24892B09F063C00E94942385
:1042F0006E157F058007910798F38BE00E94EF24ED
:10430000892B09F056C080ED97E00E948C0C0E942A
:1043100094237B018C0188249924939488E496E269
:10432000A0E0B0E0A80EB91ECA1EDB1E29C0AE1464
:10433000BF04C006D10638F480ED97E00E948C0CD3
:10434000882483941DC00E9494236E197F09800BDA
:10435000910B693C71058105910590F00E949423B1
:104360007B018C0180E0992009F481E0982E88235C
:1043700019F480E090E002C080ED97E00E948C0C80
:104380008BE00E94EF24892B91F280E090E00E9464
:104390008C0C0E94A223DC01CB010E94AE29882054
:1043A00011F00E9400070E942B1B0E94F01B0E942C
:1043B0006B1284E796E069E972E00E9479290E9415
:1043C00070201F910F91FF90EF90DF90CF90BF90E2
:1043D000AF909F908F90089580E061EF76E042E08B
:1043E00050E00E94CF2208950E94770C8DE061E09A
:1043F0000E945C248CE061E00E945C248BE060E021
:104400000E945C2483E060E00E945C2483E061E021
:104410000E949B248EE061E00E945C248EE060E0BC
:104420000E949B240E94960C84E796E040E052ECA8
:1044300061E070E00E94CC250E94871B892B39F037
:1044400084E796E060EB72E00E94792910C084E76F
:1044500096E06DEC72E00E9476290E9400070E94AF
:10446000F01B84E796E06FEE72E00E94762981E00F
:104470008093F5031092930583E0809380008AE196
:10448000809381008FEF9FEF909389008093880045
:1044900010926F0088E080936D00809168008460C6
:1044A000809368000E94EC2180E00E94A609E091C0
:1044B0007805F0E0E95BFB4F87850E94E00878947F
:1044C00080ED97E00E948C0C8BE061E00E949B24C1
:1044D0002D9A04C084E796E00E94842684E796E043
:1044E0000E945326892BB1F784E796E062E073E0DF
:1044F0000E94792968EC70E080E090E00E94C82377
:104500000E941F210E9447212D9880E090E00E9488
:104510008C0C8FEF809392050E94850A1092DB0528
:104520001092DC051092DD0580916F0484FF15C0A8
:104530000E949F0C0E94A2236093860570938705BA
:10454000809388059093890584E796E040E855E2DA
:1045500060E070E00E94CC25089583FF0CC040917C
:1045600048045091490460914A0470914B0484E7D7
:1045700096E00E94CC250895F999FECF72BD61BDE9
:10458000F89A80B50895F999FECF1FBA72BD61BD42
:1045900040BD0FB6F894FA9AF99A0FBE089582308A
:1045A00000F5E82FF0E0EE0FFF1FE152FA4F7183A4
:1045B0006083882319F08130A1F408C080916900DC
:1045C0008C7F842B80936900E89A0895809169001C
:1045D000440F551F440F551F837F842B8093690020
:1045E000E99A08951F920F920FB60F9211242F93FC
:1045F0003F934F935F936F937F938F939F93AF936B
:10460000BF93EF93FF938091DF059091E005892B95
:1046100029F0E091DF05F091E0050995FF91EF9118
:10462000BF91AF919F918F917F916F915F914F91CA
:104630003F912F910F900FBE0F901F9018951F92D2
:104640000F920FB60F9211242F933F934F935F93C6
:104650006F937F938F939F93AF93BF93EF93FF934A
:104660008091E1059091E205892B29F0E091E10527
:10467000F091E2050995FF91EF91BF91AF919F9164
:104680008F917F916F915F914F913F912F910F90FB
:104690000FBE0F901F9018951F920F920FB60F929A
:1046A00011242F933F938F939F93AF93BF93809148
:1046B000E7059091E805A091E905B091EA053091F0
:1046C000EB050196A11DB11D232F2D5F2D3720F085
:1046D0002D570196A11DB11D2093EB058093E70591
:1046E0009093E805A093E905B093EA058091E3056E
:1046F0009091E405A091E505B091E6050196A11D14
:10470000B11D8093E3059093E405A093E505B09374
:10471000E605BF91AF919F918F913F912F910F909F
:104720000FBE0F901F9018958FB7F8942091E70552
:104730003091E8054091E9055091EA058FBFB90134
:10474000CA0108959FB7F8942091E3053091E405DC
:104750004091E5055091E60586B5A89B06C08F3FC0
:1047600021F02F5F3F4F4F4F5F4F9FBF542F432F7D
:10477000322F2227280F311D411D511D82E0220FAB
:10478000331F441F551F8A95D1F7B901CA010895F7
:104790009B01AC017FB7F8948091E3059091E4050B
:1047A000A091E505B091E60566B5A89B05C06F3FF1
:1047B00019F00196A11DB11D7FBFBA2FA92F982F07
:1047C0008827860F911DA11DB11D62E0880F991FDA
:1047D000AA1FBB1F6A95D1F7BC012DC0FFB7F89483
:1047E0008091E3059091E405A091E505B091E6057F
:1047F000E6B5A89B05C0EF3F19F00196A11DB11DBC
:10480000FFBFBA2FA92F982F88278E0F911DA11DAA
:10481000B11DE2E0880F991FAA1FBB1FEA95D1F7CF
:10482000861B970B885E9340C8F221503040404071
:10483000504068517C4F211531054105510571F6F5
:104840000895789484B5826084BD84B5816084BD08
:1048500085B5826085BD85B5816085BDEEE6F0E0F9
:10486000808181608083E1E8F0E010828081826055
:104870008083808181608083E0E8F0E080818160D6
:104880008083E1EBF0E0808184608083E0EBF0E006
:10489000808181608083EAE7F0E0808184608083AA
:1048A0008081826080838081816080838081806854
:1048B00080831092C1000895CF93DF93482F50E07A
:1048C000CA018952964FFC0134914D53564FFA015B
:1048D0008491882369F190E0880F991FFC01EB55C2
:1048E000F64FA591B491FC01E155F64FC591D491D5
:1048F000662351F42FB7F8948C91932F90958923C8
:104900008C93888189230BC0623061F42FB7F894AF
:104910008C91932F909589238C938881832B888306
:104920002FBF06C09FB7F8948C91832B8C939FBFA9
:10493000DF91CF910895482F50E0CA018551964FDD
:10494000FC012491CA018952964FFC0194914D5368
:10495000564FFA013491332309F440C0222351F118
:10496000233071F0243028F42130A1F0223011F5E9
:1049700014C02630B1F02730C1F02430D9F404C07F
:10498000809180008F7703C0809180008F7D80931D
:10499000800010C084B58F7702C084B58F7D84BD40
:1049A00009C08091B0008F7703C08091B0008F7DE7
:1049B0008093B000E32FF0E0EE0FFF1FE155F64FBC
:1049C000A591B4912FB7F894662321F48C9190951A
:1049D000892302C08C91892B8C932FBF0895682F57
:1049E00070E0CB018551964FFC012491CB01895297
:1049F000964FFC0144916D53764FFB01949199239E
:104A000019F420E030E03CC0222351F1233071F052
:104A1000243028F42130A1F0223011F514C02630C2
:104A2000B1F02730C1F02430D9F404C08091800067
:104A30008F7703C0809180008F7D8093800010C0AD
:104A400084B58F7702C084B58F7D84BD09C0809105
:104A5000B0008F7703C08091B0008F7D8093B0004D
:104A6000892F90E0880F991F8754964FFC01A591DC
:104A7000B4918C9120E030E0842311F021E030E00B
:104A8000C901089508951F920F920FB60F92112435
:104A90002F933F934F938F939F93EF93FF93809127
:104AA000C00082FD1DC04091C60020912C063091AF
:104AB0002D062F5F3F4F2F73307080912E069091FF
:104AC0002F062817390771F0E0912C06F0912D067A
:104AD000E451FA4F408330932D0620932C0602C0F8
:104AE0008091C600FF91EF919F918F914F913F91DF
:104AF0002F910F900FBE0F901F901895E091800698
:104B0000F0918106E05CFF4F81919191208131818C
:104B1000821B930B8F739070892B11F00E9442259A
:104B200008951F920F920FB60F9211242F933F9367
:104B30008F939F93EF93FF932091700630917106AE
:104B400080917206909173062817390731F480918D
:104B5000C1008F7D8093C10014C0E0917206F09176
:104B60007306E05DF94F2081809172069091730683
:104B700001968F73907090937306809372062093C2
:104B8000C600FF91EF919F918F913F912F910F90D0
:104B90000FBE0F901F901895AF92BF92DF92EF92C9
:104BA000FF920F931F93CF93DF93EC017A018B0158
:104BB000DD24403081EE580780E0680780E0780708
:104BC00011F0DD24D39491E0A92EB12CEC89FD895C
:104BD000DD2069F0C50108A002C0880F991F0A9462
:104BE000E2F7808360E079E08DE390E005C0108219
:104BF00060E874E88EE190E0A80197010E94E8293E
:104C00002150304040405040569547953795279564
:104C100080E12030380720F0DD2011F0DD24D6CFF0
:104C2000E889F9893083EA89FB89208319A2EE8912
:104C3000FF89408121E030E0C9010C8C02C0880F5F
:104C4000991F0A94E2F7482B4083EE89FF8940813F
:104C5000C9010D8C02C0880F991F0A94E2F7482BF6
:104C60004083EE89FF894081C9010E8C02C0880F04
:104C7000991F0A94E2F7482B4083EE89FF898081CF
:104C80000F8C02C0220F331F0A94E2F720952823CD
:104C90002083DF91CF911F910F91FF90EF90DF90D4
:104CA000BF90AF900895DC011C96ED91FC911D978B
:104CB000E05CFF4F2191319180819181281B390B5C
:104CC0002F733070C9010895DC011C96ED91FC91A1
:104CD0001D97E05CFF4F20813181E054F040DF01FF
:104CE000AE5BBF4F8D919C9111972817390719F42E
:104CF0002FEF3FEF07C08D919C91E80FF91F808146
:104D0000282F30E0C9010895DC011C96ED91FC913B
:104D10001D97E05CFF4F20813181E054F040DF01BE
:104D2000AE5BBF4F8D919C9111972817390719F4ED
:104D30002FEF3FEF10C08D919C911197E80FF91F55
:104D400020818D919C91119701968F73907011968F
:104D50009C938E9330E0C9010895DC0191968C916B
:104D60009197882339F05496ED91FC915597808165
:104D700086FFF9CF91961C920895CF93DF93EC01B3
:104D8000EE85FF85E05CFF4F20813181E054F040EB
:104D90002F5F3F4F2F733070DF01AE5BBF4F8D91A0
:104DA0009C91119728173907D1F3E05CFF4F808160
:104DB0009181E054F040E80FF91F6083EE85FF8594
:104DC000E05CFF4F31832083EE89FF89208181E001
:104DD00090E00F8C02C0880F991F0A94E2F7282BED
:104DE000208381E089A3EC89FD89808180648083B0
:104DF00081E090E0DF91CF910895109277061092B4
:104E0000760688EE93E0A0E0B0E080937806909379
:104E10007906A0937A06B0937B0688E394E090939A
:104E20007506809374068CEE95E0909381068093CE
:104E3000800680E396E0909383068093820685EC5B
:104E400090E0909385068093840684EC90E09093A4
:104E500087068093860680EC90E090938906809385
:104E6000880681EC90E090938B0680938A0682EC12
:104E700090E090938D0680938C0686EC90E0909362
:104E80008F0680938E0684E08093900683E0809363
:104E9000910687E08093920685E08093930681E0F7
:104EA000809394060895CF93DF930E9421240E945B
:104EB000F421CEE7D5E20E942A0D2097E1F30E946B
:104EC0007E25F9CFCF92DF92EF92FF920F931F933F
:104ED000CF93DF937C016B018A01C0E0D0E00FC06B
:104EE000D6016D916D01D701ED91FC910190F0819A
:104EF000E02DC7010995C80FD91F015010400115B9
:104F0000110571F7CE01DF91CF911F910F91FF90A5
:104F1000EF90DF90CF900895EF92FF920F931F9341
:104F2000CF93DF937C018B01C0E0D0E0F8010F5FED
:104F30001F4F6491662359F0D701ED91FC910190C8
:104F4000F081E02DC7010995C80FD91FEFCFCE0121
:104F5000DF91CF911F910F91FF90EF900895DC01A9
:104F6000ED91FC910190F081E02D09950895EF926B
:104F7000FF920F931F938C01DC01ED91FC91019046
:104F8000F081E02D6DE009957C01D801ED91FC9157
:104F90000190F081E02DC8016AE009959C012E0D79
:104FA0003F1DC9011F910F91FF90EF900895EF925F
:104FB000FF920F931F937C010E948C278C01C701E5
:104FC0000E94B7279C01200F311FC9011F910F912B
:104FD000FF90EF900895EF92FF920F931F937C0143
:104FE000DC01ED91FC910190F081E02D09958C019F
:104FF000C7010E94B727080F191FC8011F910F9101
:10500000FF90EF900895CF93DF93EC016115710548
:1050100019F420E030E00FC0DB010D900020E9F72B
:105020001197A61BB70BE881F9810280F381E02D6F
:10503000AD0109959C01C901DF91CF9108954F926F
:105040005F927F928F929F92AF92BF92CF92DF92A8
:10505000EF92FF920F931F93DF93CF93CDB7DEB7FD
:10506000A1970FB6F894DEBF0FBECDBF2C01742EF2
:10507000CB01223008F42AE019A231E2C32ED12C50
:10508000CC0EDD1E822E9924AA24BB24672D752FF9
:10509000A50194010E94E82979018A01C801B7019C
:1050A000A50194010E94B629472D461B0894C1080A
:1050B000D1084A3014F4405D01C0495CF6014083D8
:1050C000E114F1040105110521F07E2C5F2DC801CA
:1050D000DDCFC201B6010E940328A1960FB6F89455
:1050E000DEBF0FBECDBFCF91DF911F910F91FF901B
:1050F000EF90DF90CF90BF90AF909F908F907F9078
:105100005F904F900895DC012115310541F4ED9138
:10511000FC910190F081E02D642F099508950E9483
:105120001F280895EF92FF920F931F937C010E9416
:1051300083288C01C7010E94B7279C01200F311FD3
:10514000C9011F910F91FF90EF900895EF92FF9288
:105150000F931F939A017B0100E010E0B801A701B3
:105160000E9483281F910F91FF90EF900895CF9296
:10517000DF92EF92FF920F931F936C017B019A01D4
:1051800000E010E0B801A7010E9483288C01C6014D
:105190000E94B727080F191FC8011F910F91FF9098
:1051A000EF90DF90CF900895EF92FF920F931F93AF
:1051B0009A01E62EFF2400E010E0B801A7010E944A
:1051C00083281F910F91FF90EF900895CF92DF9267
:1051D000EF92FF920F931F936C01E62E9A01FF242A
:1051E00000E010E0B801A7010E9483288C01C601ED
:1051F0000E94B727080F191FC8011F910F91FF9038
:10520000EF90DF90CF900895CF92DF92EF92FF92D0
:105210000F931F93CF93DF93EC016A017B0121155C
:10522000310541F4E881F9810190F081E02D642F8E
:1052300009951FC02A303105D1F477FF17C0E881E6
:10524000F9810190F081E02D6DE209958C014427F0
:105250005527BA014C195D096E097F09CE012AE074
:105260000E941F289801280F391F04C02AE00E94BD
:105270001F289C01C901DF91CF911F910F91FF90D1
:10528000EF90DF90CF900895EF92FF920F931F93CE
:105290007B019A010027F7FC0095102FB801A701A8
:1052A0000E9404291F910F91FF90EF900895CF92D3
:1052B000DF92EF92FF920F931F936C017B019A0193
:1052C0000027F7FC0095102FB801A7010E940429C0
:1052D0008C01C6010E94B727080F191FC8011F9132
:1052E0000F91FF90EF90DF90CF9008950E940328D8
:1052F0000895EF92FF920F931F937C010E94032861
:105300008C01C7010E94B727080F191FC8011F9100
:105310000F91FF90EF900895EF92FF920F931F93DC
:105320007B018C01611571058105910529F420E04F
:1053300030E040E050E00BC00E947F05A8019701DB
:105340000E940A2AAC01CB01DA019C01AD01B9012E
:10535000CA011F910F91FF90EF900895009729F0D7
:10536000BC0180E090E00E9484050895629FD00116
:10537000739FF001829FE00DF11D649FE00DF11D10
:10538000929FF00D839FF00D749FF00D659FF00DBF
:105390009927729FB00DE11DF91F639FB00DE11DAC
:1053A000F91FBD01CF011124089597FB092E07268F
:1053B0000AD077FD04D049D006D000201AF47095A9
:1053C00061957F4F0895F6F7909581959F4F0895C9
:1053D000A1E21A2EAA1BBB1BFD010DC0AA1FBB1FF9
:1053E000EE1FFF1FA217B307E407F50720F0A21B6B
:1053F000B30BE40BF50B661F771F881F991F1A94D8
:1054000069F760957095809590959B01AC01BD0101
:10541000CF01089597FB092E05260ED057FD04D025
:10542000D7DF0AD0001C38F450954095309521956F
:105430003F4F4F4F5F4F0895F6F7909580957095C9
:1054400061957F4F8F4F9F4F0895AA1BBB1B51E162
:1054500007C0AA1FBB1FA617B70710F0A61BB70BE4
:10546000881F991F5A95A9F780959095BC01CD0189
:105470000895EE0FFF1F0590F491E02D099491110E
:1054800006C0803219F089508550D0F708959927C9
:10549000882708952F923F924F925F926F927F924A
:1054A0008F929F92AF92BF92CF92DF92EF92FF9234
:1054B0000F931F93CF93DF93CDB7DEB7CA1BDB0BE0
:1054C0000FB6F894DEBF0FBECDBF09942A88398885
:1054D00048885F846E847D848C849B84AA84B9848C
:1054E000C884DF80EE80FD800C811B81AA81B98198
:1054F000CE0FD11D0FB6F894DEBF0FBECDBFED01AC
:065500000895F894FFCFAE
:1055060054582074696D656F757421006D6F6475EC
:105516006C65206C6F636B65643F00486F70206339
:1055260068616E6E656C2000204020004646004E85
:10553600004E2F41003863680044697361626C65F0
:105546006400456E61626C6564002C205B005D2022
:10555600280029002C0042494E415259204C4F4107
:1055660044204F4B0054696D656F7574206F72202F
:105576006572726F7221210040533A00483A005416
:105586003A003A0053656E64696E672073657474F9
:10559600696E677320746F2052580A0052657365EE
:1055A6007474696E672073657474696E6773206FAF
:1055B6006E2052580A0041626F72746564206564F9
:1055C6006974730A00696E76616C69642073656C30
:1055D600656374696F6E000D0A496E76616C696465
:1055E60020696E707574202D20646973636172641E
:1055F60065642107002E0054494D454F55540067F8
:105606006F7420726573706F6E736500496E766194
:105616006C696420726573706F6E73650073636185
:105626006E6E6572206D6F64650053657474696E85
:10563600677320736176656420746F204545505208
:105646004F4D0A0052657665727465642073657401
:1056560074696E67732066726F6D20454550524FB0
:105666004D0A004C6F6164656420666163746F72F5
:10567600792064656661756C74730A004B657920E0
:10568600616E64206368616E6E656C732072616E14
:10569600646F6D697A65640A00456E746572696E39
:1056A600672062696E64696E67206D6F64650A00C3
:1056B6004C6F616465642073657474696E677320EA
:1056C60066726F6D20454550524F4D0A0045455054
:1056D600524F4D2064617461206E6F742076616C48
:1056E60069642C207265696E6974696E670A004583
:1056F6004550524F4D206461746120736176656434
:105706000A004F70656E4C52536E67207374617257
:1057160074696E670050504D00525353490053440C
:10572600410053434C0052584400545844004149E8
:105736004E0078787800342B34003800382B34004B
:1057460031320031322B34003136000100000001C5
:105756000021010520010922010926010A23010A67
:1057660026010B24010C250200200201220201263B
:105776000202210203230203260204240205250451
:105786000821040920000000C01200001A400AA1E6
:10579600204EA5001B1E27522C2330802500000515
:1057A600400AA1204EA50020244EA52C2330004BF4
:1057B600000006400AD0009D49007B289D492C2305
:1057C600308025000005400AA1204EA50020244E69
:1057D600A52C233000020002000200020002000293
:1057E60000020002000200020002000200020002A3
:1057F600000200021001150319031E0322032603EB
:105806002A032E033203310136033A033C034003D5
:1058160043034803310130313233343536373839B2
:1058260041424344454600070B0C10111500160A69
:105836001322312900000000BD2662275326842644
:045846006426AD2601
:00000001FF
