:100000000C9402050C9465230C9492230C942A05FD
:100010000C942A050C942A050C942A050C942A05A4
:100020000C942A050C942A050C94A50A0C942A0514
:100030000C942A050C942A050C942A050C942A0584
:100040000C94BF230C942A050C94B6250C9404261A
:100050000C942A050C942A050C942A050C942A0564
:100060000C942A050C942A05C618CE18CE18C6186A
:10007000CE18CE18CE18CE18CE18CE18CE18CE1850
:10008000CE18CE18CE18CE18CE18E316CE18CE182D
:10009000CE18CE18CE184416CE18CE18CE18CE18BC
:1000A000CE18CE18CE18CE18CE18CE18CE18CE1820
:1000B000CE18CE18CE18EF16EF16EF16EF16EF1675
:1000C000EF16EF16EF16EF16CE18CE18CE18CE1884
:1000D000CE18CE184B16EE16EE16EE16EE16CE18FD
:1000E00004170E171817201728173017381740173E
:1000F0004A175417CE18CE1892165216CE18CE188C
:10010000CE18CE18E316CE18CE18CE18CE18CE18AC
:10011000CE18CE18CE18ED16ED16ED16ED16CE183B
:1001200004170E17181720172817301738174017FD
:100130004A175417CE18CE1892165216CE18CE184B
:10014000CE18CE18E316456E746572206D656E7517
:100150002E2E2E00436F6E6E656374696E67207479
:100160006F2052582C20706F776572207570207444
:1001700068652052582028776974682062696E6427
:1001800020706C7567206966206E6F7420757369C6
:100190006E6720616C776179732062696E642900F3
:1001A000546F67676C65642027616C776179732091
:1001B00062696E642700546F67676C6564205050F5
:1001C0004D206368616E6E656C206C696D697400AA
:1001D000536574205253534920696E6A6563637492
:1001E000696F6E206368616E6E656C2028303D3DDE
:1001F00064697361626C6529005365742050504DC9
:10020000206D696E696D756D2073796E630053653D
:100210007420626561636F6E20696E7465727661C9
:100220006C0053657420626561636F6E2064656C59
:1002300061790053657420626561636F6E20667238
:10024000657175656E637920696E20487A3A203051
:100250003D64697361626C652C2050783D504D524D
:10026000206368616E6E656C20782C2046783D4670
:100270005253206368616E6E656C2078005365741C
:10028000206661696C736166652064656C617920C4
:10029000287820302E31732900546F67676C6564AD
:1002A000202773746F702050574D2700546F676775
:1002B0006C6564202773746F702050504D27002A9E
:1002C0002A2A2A2A2A2A2A2A2A2A2A2A2A2A2A2A8E
:1002D0002A2A2A2A2A2A2A2A2A2A2A2A005258205C
:1002E00041636B6564202D2072657665727420739E
:1002F00075636365737366756C21002A2A2A2A2A3E
:100300002A2A2A2A2A2A2A2A2A2A2A2A2A2A2A2A4D
:100310002A2A2A2A2A2A2A2A002A2A2A2A2A2A2A67
:100320002A2A2A2A2A2A2A2A2A2A2A2A2A2A2A2A2D
:100330002A2A2A2A2A2A0052582041636B656420FF
:100340002D207570646174652073756363657373C4
:1003500066756C21002A2A2A2A2A2A2A2A2A2A2A67
:100360002A2A2A2A2A2A2A2A2A2A2A2A2A2A2A2AED
:100370002A2A0056616C69642063686F696365733B
:10038000206172653A205B315D2D5B31365D20283E
:100390006368616E6E656C20312D313629005365BE
:1003A00074206F757470757420666F7220706F7230
:1003B0007420005B585D2061626F72742063686115
:1003C0006E67657320616E64206578697420525889
:1003D00020636F6E666967005B535D2073617665AD
:1003E0002073657474696E677320746F20525800AF
:1003F0005B525D2072657665727420525820736579
:100400007474696E677320746F2064656661756CBF
:10041000747300557365206E756D62657273205B31
:10042000312D445D20746F206564697420706F7293
:100430007473205B452D4E5D20666F72207365746A
:1004400074696E6773000A6F70656E4C52536E6705
:100450002076332E31202D207265636569766572B2
:1004600020636F6E666967757261746F72005365A1
:10047000742073657269616C206261756472617465
:10048000653A2000546F67676C6564204672536B51
:100490007920656D756C6174696F6E2100546F67AA
:1004A000676C65642074656C656D65747279210094
:1004B00056616C69642063686F696365733A2031C3
:1004C000202D20342B34202F2032202D2038202F97
:1004D0002033202D20382B34202F2034202D203184
:1004E00032202F2035202D2031322B34202F203662
:1004F000202D20313600536574204368616E6E658F
:100500006C20636F6E6669673A20005365742044FF
:10051000617461726174652028302D32293A20009F
:1005200053657420486F70206368616E6E656C73EC
:1005300020286D61782032342C20736570617261DF
:1005400074656420627920636F6D6D617329207614
:10055000616C69642076616C75657320312D32356C
:10056000353A2000536574206368616E6E656C20B7
:1005700073706163696E6720287831306B487A291F
:100580003A200053657420524620706F77657220C0
:1005900028302D37293A2000536574205246206DAB
:1005A0006167696320286865782920652E672E2099
:1005B000307844454144463030443A200053657415
:1005C0002062617365206672657175656E6379205E
:1005D00028696E20487A293A20005B5A5D20656EB2
:1005E00074657220726563656976657220636F6EEB
:1005F00066696775726174696F6E207574696C796C
:10060000005B465D20646973706C6179206163747E
:1006100075616C206672657175656E6369657320BE
:1006200075736564005B525D2063616C63756C611A
:1006300074652072616E646F6D206B657920616EE8
:100640006420686F70206C697374005B495D207270
:1006500065696E697469616C697A65207365747423
:10066000696E677320746F20736B657463682064B0
:10067000656661756C7473005B585D2072657665A4
:100680007274206368616E67657320616E642065B3
:10069000786974206D656E75005B535D20736176BB
:1006A000652073657474696E677320746F204545A7
:1006B00050524F4D20616E642065786974206D65DD
:1006C0006E7500557365206E756D62657273205B83
:1006D000302D395D20746F206564697420706172FB
:1006E000616D6574657273000A6F70656E4C52536C
:1006F0006E672076332E31004F292054696D656472
:100700002042494E44206174207374617274757084
:1007100020203A20004E292050504D206F757470D3
:100720007574206C696D6974656420202020203AFE
:10073000200044495341424C4544004D292050502B
:100740004D205253534920746F206368616E6E656B
:100750006C202020203A20004C292050504D206D44
:10076000696E696D756D2073796E632028757329C4
:1007700020203A200044495341424C4544004B2933
:10078000204661696C7361666520626561636F6EA6
:1007900020696E74762E2028352D323535293A2081
:1007A000004A29204661696C736166652062656153
:1007B000636F6E2064656C6179202831302D363589
:1007C000353335293A20004929204661696C736127
:1007D000666520626561636F6E206672712E203AD5
:1007E0002000207820302E3173004829204661698E
:1007F0006C7361666520737065656420202020201D
:1008000020203A200047292053746F702050574D04
:10081000206F6E206661696C73616665203A204FB7
:100820000046292053746F702050504D206F6E2069
:100830006661696C73616665203A204F0050574DC0
:10084000206368616E6E656C200066756E63746906
:100850006F6E3A20002920706F7274200044544655
:10086000205548462033322D626974203130636848
:10087000004F70656E4C52536E675258206D696E12
:10088000692034636800466C7974726F6E2F4F7202
:10089000616E67655258205548462038636800529B
:1008A0005820747970653A2000487A00203D3D2038
:1008B0000043616C63756C61746564207061636B87
:1008C000657420696E74657276616C3A2000302917
:1008D0002053657269616C20626175647261746530
:1008E0003A003929204672536B7920656D756C6129
:1008F00074696F6E3A200038292054656C656D6507
:100900007472793A202020202020200037292043AB
:1009100068616E6E656C20636F6E6669673A202051
:100920000036292044617461726174652028302D7D
:1009300032293A20202000352920486F7020636832
:10094000616E6E656C733A202020202000342920CF
:100950004368616E6E656C2073706163696E673A9F
:10096000202000332920524620706F77657220289E
:10097000302D37293A202020003229205246206D80
:10098000616769633A202020202020202020003148
:10099000292042617365206672657175656E6379A1
:1009A0003A2020200000000000240027002A000038
:1009B000000000250028002B000000000023002676
:1009C00000290004040404040404040202020202D4
:1009D0000203030303030301020408102040800103
:1009E0000204081020010204081020000000070083
:1009F00002010000030406000000000000000000E7
:100A0000310B702711241FBECFEFD8E0DEBFCDBF62
:100A100014E0A0E0B1E0ECEEF5E502C005900D9227
:100A2000A434B107D9F716E0A4E4B4E001C01D92E4
:100A3000AA39B107E1F71AE0C4E0DAE004C022976E
:100A4000FE010E94AE2AC030D107C9F70E94C62716
:100A50000C94F42A0C940000A0E0B0E0E2E3F5E08E
:100A60000C94C52AEC01A880B980CA80DB80A1144F
:100A7000B104C104D10441F484E2A82E89EDB82E5A
:100A80008BE5C82E87E0D82EC601B5012DE133EFE6
:100A900041E050E00E947D2A27EA31E440E050E046
:100AA0000E94292A7B018C01C601B5012DE133EF9B
:100AB00041E050E00E947D2ACA01B9012CEE34EFDA
:100AC0004FEF5FEF0E94292A6E0D7F1D801F911F3F
:100AD00097FF04C0615070408040904868837983DC
:100AE0008A839B839B01AC015F77B901CA01CDB7B3
:100AF000DEB7EAE00C94E12A0E942C0508958BE40D
:100B000093E00E942C05089560934B0370934C036F
:100B100080934D0390934E030895A0E0B0E0E3E985
:100B2000F5E00C94BE2AEC012B016A0161157105F8
:100B300019F0FB0191838083C114D10449F0C601EF
:100B40000297839728F020E030E040E050E0DCC0DE
:100B5000A9908A2D90E00E94B22A892BC9F7FDE264
:100B6000AF1621F4A9903324339405C08BE2A81664
:100B700009F4A9903324C114D10421F0E0E1CE1688
:100B8000D10411F5F0E3AF1669F48881883711F0CC
:100B9000883541F4A980229682E0382A20E1C22ECD
:100BA000D12C12C0C114D10479F4E0E3AE1659F18E
:100BB00099E9E92E99E9F92E99E9092F99E1192F77
:100BC0008AE0C82ED12C3AC0FAE0CF16D10491F0B9
:100BD00080E1C816D10429F0E8E0CE16D104F9F47A
:100BE00015C0BFEFEB2EBFEFFB2EBFEF0B2FBFE00B
:100BF0001B2F24C0A9E9EA2EA9E9FA2EA9E90A2F98
:100C0000A9E11A2F1BC0F8E0CF2ED12CEFEFEE2E6A
:100C1000EFEFFE2EEFEF0E2FEFE11E2F0FC096012C
:100C2000442737FD4095542F6FEF7FEF8FEF9FEFF5
:100C30000E945B2AC901DA017C018D0120E030E0CD
:100C400040E050E060E03601882477FC8094982CE6
:100C500070EDB72EBA0CF9E0FB1570F48A2D8154B3
:100C60008A3118F499ECB92E06C08A2D81568A3142
:100C700048F589EAB82EBA0C8B2D90E08C159D05AD
:100C80000CF56F3FE9F0E216F30604071507B8F01C
:100C9000CA01B901A40193010E94292A9B01AC0158
:100CA0008B2D90E0A0E0B0E0280F391F4A1F5B1F9A
:100CB000281739074A075B0710F061E001C06FEFA2
:100CC000A990C6CF4114510451F0662311F0219729
:100CD00003C031FE04C02297F201D183C08330FEED
:100CE00007C050954095309521953F4F4F4F5F4F2E
:100CF00067FF0AC082E290E090939906809398067D
:100D00002FEF3FEF4FEF5FEFB901CA01CDB7DEB76D
:100D1000E1E10C94DA2AFC0188279927E8942191D3
:100D20002032E9F3293010F02E30C8F32B3241F095
:100D30002D3239F4689404C00E94E906820F911D97
:100D4000219120532A30C0F31EF4909581959F4F36
:100D5000089544E454E00E94B7060895FB01DC01C5
:100D600002C001900D9241505040D8F7089500976D
:100D700031F4DA018D919C91009709F40EC0DC01E9
:100D8000FB013D912191222319F03217C9F3FACFCB
:100D9000332331F4DA011D921C9288279927089594
:100DA0001197AF93BF93FB013D912191321771F4DD
:100DB000332321F488279927119702C01E92119698
:100DC000FA01A193B0839F918F910895222369F72F
:100DD000EACF7AE0979F902D879F802D910D112467
:100DE000089580914604813019F482E0809346048E
:100DF00080914604833019F484E08093460408957A
:100E000027E02093470480E092ECA1E0B0E08093DB
:100E1000480490934904A0934A04B0934B04209350
:100E2000540480EC92E9ADEEB9E180934C049093C8
:100E30004D04A0934E04B0934F0485E08093550475
:100E40008DEE9EEFADEABEED809350049093510479
:100E5000A0935204B0935304A6E5B4E080E090E080
:100E6000863010F0E0E004C0FC01E25DFB4FE08161
:100E7000ED9301968831910599F782E080936E0495
:100E80008AE080936F0408958F929F92AF92BF92F1
:100E9000CF92DF92EF92FF920F931F93FC0100A578
:100EA00010E087A190E023E130E0829FF001839F72
:100EB000F00D929FF00D1124E857FC4F8080918037
:100EC000A280B380F801E770F070EA5DFB4F6081AB
:100ED00070E0615F7F4F882777FD8095982F20E431
:100EE0003FE14DE750E00E94292AA50194010E94AC
:100EF0005B2A69017A0180ED97E0A0E0B0E0C80EBE
:100F0000D91EEA1EFB1E03FF10C060E07EEE8AEBD6
:100F10009BE0A50194010E945B2A28513C4F4F4F52
:100F20005F4FC20ED31EE41EF51E87EE93E0A0E0D5
:100F3000B0E0C80ED91EEA1EFB1EC701B60128EE9E
:100F400033E040E050E00E945B2ACA01B90128EE7C
:100F500033E040E050E00E94292A1F910F91FF905A
:100F6000EF90DF90CF90BF90AF909F908F900895BB
:100F7000FF920F931F93082FFB01DA01F82EF694CE
:100F800010E0808191818C938281938111968C9362
:100F900011978481958112968C93129786819781FF
:100FA00013968C9313972081318142815381648100
:100FB0007581868197819295990F990F907C832FE7
:100FC0008370982B852F8370880F880F982B872F1D
:100FD00083708295807F982B14969C931497159616
:100FE00038961F5FF11668F600FF5CC08081918122
:100FF0008F3F910509F010F440E00CC022E08030F2
:10100000920710F441E006C08050934010F043E096
:1010100001C042E0828193818F3F910509F010F475
:1010200050E00CC022E08030920710F451E006C07E
:101030008050934010F053E001C052E084819581CC
:101040008F3F910509F010F480E00CC022E0803061
:10105000920710F481E006C08050934010F083E0C6
:1010600001C082E0268137812F3F310509F010F45D
:1010700090E00CC092E02030390710F491E006C0F7
:101080002050334010F093E001C092E05295507F21
:101090004295440F440F407C452B880F880F842BCA
:1010A000892B8C931F910F91FF90089523E080323C
:1010B000920718F420E030E026C023E0883E920733
:1010C00048F49C012F513340E4E036952795EA958A
:1010D000E1F719C027E0803D920720F49C012C5DC8
:1010E000334011C028E08839920718F02FEF33E021
:1010F0000AC09C01285C374074E0369527957A95A4
:10110000E1F72D503C4FC9010895882339F04298EA
:101110000000419A0000429A0000089542980000A1
:1011200041980000429A000008950F931F93082FE2
:101130005C9A42985C9810E0802F80780E94850825
:10114000000F1F5F1830C1F742981F910F9108954B
:101150008F770E94950808950F931F93082F10E032
:10116000802F80780E948508000F1F5F1830C1F71C
:1011700042981F910F910895429890E020E0990FB6
:10118000429A000086B1429800008170980F2F5F4C
:101190002830A9F7892F08950E94A8080E94BC084A
:1011A0005C9A08951F93162F80680E949508812FDE
:1011B0000E94AC085C9A1F910895682F89E70E94ED
:1011C000D208089586E20E94CC0808950F931F93D9
:1011D0008C018CE1F80164810E94D2088DE1F80154
:1011E00065810E94D2088EE1F80166810E94D208D2
:1011F00080E2F80167810E94D20881E2F8016085EF
:101200000E94D20882E2F80161850E94D20883E23E
:10121000F80162850E94D20884E2F80163850E9489
:10122000D20885E2F80164850E94D2088AE2F801BA
:1012300065850E94D2088EE6F80166850E94D20874
:101240008FE6F80167850E94D20880E7F80160897F
:101250000E94D20881E7F80161890E94D20882E7E2
:10126000F80162890E94D2081F910F910895EF92B0
:10127000FF920F931F93CF93DF937B018C0160301C
:1012800028E372072CE982072CE1920728F520E871
:1012900036E948E950E00E945B2AE9016897B90104
:1012A00080E090E020E839E647E65FEF0E94292AD7
:1012B0006E0D7F1D801F911F22E0660F771F881F14
:1012C000991F2A95D1F721E732E040E050E00E94D3
:1012D0005B2A890180E421C020E03DE241E351E046
:1012E0000E945B2AE9016897B90180E090E020E064
:1012F00033ED4EEC5EEF0E94292A6E0D7F1D801F9C
:10130000911F660F771F881F991F21E732E040E089
:1013100050E00E945B2A890180E69E012F71622FB6
:10132000680F85E70E94D20886E7612F0E94D208E5
:1013300087E7602F0E94D208DF91CF911F910F9114
:10134000FF90EF9008959F92AF92BF92CF92DF925D
:101350000F93DF93CF9300D000D0CDB7DEB7982E98
:1013600083E00E94CC0880938A0484E00E94CC0829
:1013700080938B0486E060E00E94D20887E061E001
:101380000E94D20889E06FE70E94D2088AE065E0F7
:101390000E94D2088BE062E10E94D2088CE065E1F5
:1013A0000E94D2088DE06DEF0E94D2088EE060E0CE
:1013B0000E94D208992019F081EC93E008C0809136
:1013C0006E0423E1829FC001112488579C4F0E9424
:1013D000E60880E36CE80E94D20882E36FE00E9496
:1013E000D20883E362E40E94D20884E36AE00E94A8
:1013F000D20885E36AE20E94D20886E36DE20E9489
:10140000D20887E364ED0E94D20888E360E00E947E
:10141000D20889E360E00E94D208992049F05CE19B
:10142000A52E5EEBB52E51ECC52E5EEDD52E08C077
:10143000A0905004B0905104C0905204D090530436
:101440000AE38D2D9927AA27BB2789839A83AB832B
:10145000BC83802F69810E94D208802F8B5F6981B5
:101460000E94D208DC2CCB2CBA2CAA240F5F0E339E
:1014700041F783E46FEF0E94D20884E46FEF0E948B
:10148000D20885E46FEF0E94D20886E46FEF0E94D5
:10149000D208992019F08DE660E003C08DE66091D6
:1014A00054040E94D20889E760E00E94D2088AE7CB
:1014B000609155040E94D20883E760E00E94D20840
:1014C00084E760E00E94D208992029F060EC72E97C
:1014D0008DEE99E108C060914C0470914D048091AB
:1014E0004E0490914F040E9437090F900F900F9077
:1014F0000F90CF91DF910F91DF90CF90BF90AF9081
:101500009F90089587E061E00E94D2088EE764E230
:101510000E94D20888E063E00E94D20888E060E080
:101520000E94D20887E065E00E94D20885E062E070
:101530000E94D20883E00E94CC0880938A0484E051
:101540000E94CC0880938B0408951F920F920FB6CF
:101550000F921124EF92FF921F932F933F934F937B
:101560005F936F937F938F939F93AF93BF93CF932B
:10157000DF93EF93FF93C0918600D0918700809115
:101580009405909195059E01281B390B8091F503D8
:101590008823F9F08091F503833368F01092F50306
:1015A000809193058B3020F081E0809393053BC0C0
:1015B0001092930538C02C5D354028F48091930536
:1015C0008F5F809393058091F5038F5F8093F50380
:1015D0002AC080919305882311F436952795E9E078
:1015E000253C3E0728F01092F403109292051BC090
:1015F000F2E02D3B3F0788F18091F403803168F5DC
:101600001091F403E12EFF24C9010E945608EE0C4C
:10161000FF1C24ED33E0E20EF31EF701918380837B
:101620001F5F1093F403D0939505C0939405FF9129
:10163000EF91DF91CF91BF91AF919F918F917F916A
:101640006F915F914F913F912F911F91FF90EF907C
:101650000F900FBE0F901F90189580E18093F403B8
:10166000E2CF109292041092970410929604109276
:101670009904109298040895FF920F931F93CF93AB
:10168000DF93182F092FF62E8EE30E94D208212F08
:10169000302FC901EC0110E005C08FE769910E946D
:1016A000D2081F5F1F15C8F385E064E00E94D208CE
:1016B00083E00E94CC0880938A0484E00E94CC08D6
:1016C00080938B040E94152460938C0470938D0486
:1016D00080938E0490938F0487E069E00E94D20883
:1016E00081E080934604DF91CF911F910F91FF908D
:1016F00008950E943C0B809146048130D9F40E94E9
:10170000152420918C0430918D0440918E045091C9
:101710008F04621B730B840B950B605A76488140D3
:10172000904040F4E8CF86E796E060E071E00E94E8
:10173000EC290895809146048130A9F308950F9310
:101740001F93CF93DF93182F092F86E796E06EE75C
:101750000E943027212F302FC901EC0110E000E258
:1017600088818D57823040F486E796E06DE70E94CD
:10177000302788818027888386E796E069910E94D8
:1017800030271F5F193061F786E796E06EE70E9409
:101790003027DF91CF911F910F910895DF93CF9361
:1017A000CDB7DEB729970FB6F894DEBF0FBECDBF19
:1017B000382F80917705882379F48EEF89833A83D7
:1017C0006B83842F90E0959587958C832D83198664
:1017D00018861F821E822FC040917605842F90E0CC
:1017E0009C012F70307054E0959587955A95E1F7DC
:1017F0008217930721F18DEF89831A821B82DE0104
:10180000149620E008C0EA59FA4F80818D93405F1A
:101810002F5F263069F0842F90E0FC0134E0F595CD
:10182000E7953A95E1F78F709070E817F90759F747
:10183000409376052A83CE0101960E949F0B8091EA
:10184000770590E0019666E070E00E94482A809358
:10185000770529960FB6F894DEBF0FBECDBFCF91A6
:10186000DF910895FF920F931F938C01F62E86E768
:1018700096E00E943027F80184818F2584831F9190
:101880000F91FF900895BF92CF92DF92EF92FF9257
:101890000F931F937C01D62EC42EB52E06E716E0BB
:1018A000C80165EB0E943027C80162E60E9430271C
:1018B000F7011482C7016D2D0E94320CC7016C2DF7
:1018C0000E94320CC7016B2D0E94320C1F910F91A8
:1018D000FF90EF90DF90CF90BF9008950F931F93EC
:1018E0008C016AEC41E050E00E94430CC80160E0CA
:1018F0000E94320C1F910F9108958EE060E00E94CB
:10190000CF248FE061E00E94CF2480E161E00E945B
:10191000CF2482E060E00E94CF2484E061E00E9456
:10192000CF240895CF93DF93EC01009741F186E037
:1019300061E00E940E259E0140E050E068E478EEF0
:1019400081E090E00E947D2AC901DA018F3F910574
:10195000A105B10531F028F08FEF90E0A0E0B0E0F4
:1019600008C00097A105B10521F481E090E0A0E056
:10197000B0E08093B3008091B000806107C086E042
:1019800060E00E940E258091B0008F7E8093B000B1
:10199000DF91CF91089586E061E00E94CF2486E038
:1019A00060E00E940E2582E08093B00085E0809385
:1019B000B10083E061E00E94CF2483E060E00E94F8
:1019C0000E25089586E796E040E855E260E070E075
:1019D0000E943F26089583E00E94CC0880938A04E9
:1019E00084E00E94CC0880938B0487E061E00E9431
:1019F000D2086AE070E080E090E00E943B240E9400
:101A0000820A000008950F931F93082F19C0439A6C
:101A1000299A64E670E080E090E00E943B244398BD
:101A2000299864E670E080E090E00E943B241F5F0C
:101A3000101768F36CE271E080E090E00E943B24B4
:101A400010E0F6CF809179058130D1F0813020F01F
:101A5000823009F043C037C087E00E946225892B9D
:101A600009F03CC081E0809379050E9407246093CF
:101A70007A0570937B0580937C0590937D0508958E
:101A800087E00E946225892BD9F40E9407242091C7
:101A90007A0530917B0540917C0550917D05621B54
:101AA000730B840B950B695E734080409040B0F0DF
:101AB00082E08093790580ED97E00E94920C089572
:101AC00010927905089587E00E946225892B31F0F4
:101AD00080E090E00E94920C109279050895AF92F8
:101AE000BF92CF92DF92EF92FF920F931F93CF930B
:101AF000DF938CE00E94CC08882379F486E796E097
:101B00006CE071E00E94EC29439A299A80E00E94DF
:101B1000A3090E94820A4398299886E796E00E94CA
:101B2000C626892B09F45CC28091DE05C82FD0E05F
:101B30009E012F5F3F4F2F7130708091DD0590E047
:101B40002817390709F44CC286E796E00E94F72669
:101B5000CC54DA4F88838091DE0590E001968F7136
:101B600090708093DE05D9CF0E9415246093820582
:101B700070938305809384059093850561157105A5
:101B80008105910561F481E090E0A0E0B0E08093F0
:101B9000820590938305A0938405B093850583E027
:101BA000809346048FE70E94A808CBEAD5E00E9404
:101BB000BC08899305E0C43BD007C9F7409196055E
:101BC0008091AB05282F30E0842F90E08227932767
:101BD00086FF54C080E4482740939605C901887366
:101BE0009070C897D9F510E02EC01F5F80916F04E8
:101BF000E12FF0E084FF20C0E555FA4F608140916D
:101C00007605842F90E0FC01EF70F0709F012F5F4C
:101C10003F4F74E0959587957A95E1F72817390736
:101C200091F0EA59FA4F6083842F8F5F8F70407F65
:101C3000842B8093760507C0E555FA4F86E796E03A
:101C400060810E943027212F30E08091AB0590E029
:101C5000877090708217930744F610C02F7330700E
:101C6000232B61F48091AC0580938A058091AD05AA
:101C700080938C058091AE0580938D058091DF0562
:101C8000813019F482E08093DF058091DF05833095
:101C900011F41092DF050E9415245B016C01809104
:101CA0008E0590918F05A0919005B09191050097B8
:101CB000A105B105C9F0A6019501281B390B4A0BF6
:101CC0005B0BDA01C901885B9B40A040B04060F02B
:101CD0000E94E20880938B0510928E0510928F056A
:101CE000109290051092910587E494E00E944407B9
:101CF00020917E0530917F054091800550918105AE
:101D000086017501E21AF30A040B150BE616F706B5
:101D10000807190708F419C1A0927E05B0927F0543
:101D2000C0928005D092810580919205883008F09C
:101D300003C1809192058F5F80939205E0908205A8
:101D4000F09083050091840510918505E114F1045C
:101D500001051105F1F087E494E00E944407AE18F4
:101D6000BF08C00AD10A6A157B058C059D0568F479
:101D700080ED97E00E94920C1092820510928305EC
:101D8000109284051092850504C080E090E00E94C6
:101D9000920C20919605207C209396055091DE05AB
:101DA0009091DD055917D1F18091DF058230B1F5B1
:101DB000205820939605E0916F04F0E0E770F070F2
:101DC000EA5DFB4FE081E93010F048E002C04E2FA1
:101DD000415030E013C03F5FA32FB0E0892F90E067
:101DE000FC01EC54FA4F2081FD01EA56FA4F2083A2
:101DF000AC52BA4F2C930196982F9F71341710F460
:101E0000951749F79093DD05832F895C909196058E
:101E1000892B809396053093D4051AC09091DF05E5
:101E20009430D1F49091D405E5EDF5E0A7E9B5E063
:101E3000292F30E02E0F3F1F02C081918D93E217B2
:101E4000F307D9F7995C80919605982B90939605A6
:101E500083E08093DF0525C080917905823031F4DD
:101E6000216020939605439A299A10C020939605E5
:101E700043982998992319F481E08093DF05809194
:101E8000DF05833019F484E08093DF05F8948091B6
:101E90006F04877064ED73E047E955E00E94B8076E
:101EA000789485B1846285B9E0917805F0E0E95BCA
:101EB000FB4F87850E94DD08E0916F04F0E0E7703A
:101EC000F070EA5DFB4F86E995E060810E94790B36
:101ED000E0917805EF5FE0937805E83131F0F0E0CC
:101EE000E95BFB4F8785882311F410927805809178
:101EF0006F0483FF2AC083E0809346040E94820A15
:101F00000E94152460938E0570938F058093900531
:101F1000909391056115710581059105B1F481E0FA
:101F200090E0A0E0B0E080938E0590938F05A093A1
:101F30009005B093910509C080919205883011F405
:101F4000439A299A89E08093920580916F0484FFD7
:101F500037C00E9415242091860530918705409155
:101F6000880550918905621B730B840B950B615397
:101F700075478040904020F10E94152460938605AB
:101F800070938705809388059093890530918C051F
:101F900060918D058091820590918305A0918405C3
:101FA000B09185050097A105B10519F420E040E046
:101FB00004C040918A0520918B05832F0E94CE0B8F
:101FC00085B18B7D85B90E94220DDF91CF911F9144
:101FD0000F91FF90EF90DF90CF90BF90AF9008955A
:101FE00080914604843009F056CEBECD109264052F
:101FF00085E6EFEFF4E0DF011D928A95E9F7089599
:102000001F93182F8F3719F0883009F042C0E091E4
:102010006405EE2309F45DC0E150E0936405F0E04F
:10202000E150FB4F108286E796E06DE00E9430277A
:1020300010E00DC0E12FF0E0E150FB4F6081772709
:1020400067FD709586E796E00E9430271F5F8091BC
:102050006405181778F386E796E060E20E9430275F
:1020600086E796E06DE00E94302710E00DC0E12F7A
:10207000F0E0E150FB4F6081772767FD709586E7C0
:1020800096E00E9430271F5F80916405181778F34F
:1020900025C08B3119F40E94F60F02C08D3011F467
:1020A00081E01DC080916405843698F4612F772704
:1020B00067FD709586E796E00E9430278091640561
:1020C000E82FF0E0E150FB4F10838F5F80936405B1
:1020D00005C086E796E067E00E94222880E01F9115
:1020E00008951F93CF93DF93C6E5D4E010E03BC083
:1020F00086E796E06BE171E00E94E92986E796E0C9
:10210000612F4AE050E00E94472986E796E068E2A6
:1021100071E00E94E929699170E080E090E02091EF
:10212000550430E040E050E00E94292A20E137E2E7
:1021300040E050E00E94292ADC01CB0140914C0490
:1021400050914D0460914E0470914F04480F591FF7
:102150006A1F7B1F86E796E02AE030E00E9405298F
:102160001F5F183119F08881882311F6DF91CF9114
:102170001F910895FF920F931F93CF93DF9386E7EC
:1021800096E06FE978E00E94FF278091700481302B
:1021900049F486E796E066E878E00E944A280DE078
:1021A000F02E15C0823049F486E796E061E778E0CA
:1021B0000E944A2816E0F12E0AC0843041F486E7D6
:1021C00096E06DE578E00E944A28BAE0FB2E01E730
:1021D00014E0C0E0D0E043C0C930D10514F0685C21
:1021E00001C06F5C86E796E00E94222886E796E0B1
:1021F00065E578E00E94FF27219686E796E0BE011C
:102200004AE050E00E94B72986E796E06AE478E069
:102210000E94FF27D801EC91E03190F486E796E028
:102220006DE378E00E94FF27F801608170E06F5F46
:102230007F4F86E796E04AE050E00E94CA290DC031
:10224000F0E0E770F070EE0FFF1FEA50FC4F608186
:10225000718186E796E00E94EC290F5F1F4F6C2F7B
:10226000CF1508F4B9CF86E796E061E278E00E94E6
:10227000FF2780917E0480FD03C06CE271E002C004
:102280006FE271E086E796E00E94EC2986E796E02F
:1022900065E078E00E94FF2780917E0481FD03C005
:1022A0006CE271E002C06FE271E086E796E00E94A6
:1022B000EC2986E796E06AEE77E00E94FF2786E742
:1022C00096E0609189044AE050E00E94472986E741
:1022D00096E062EE77E00E944A2886E796E067EC97
:1022E00077E00E94FF274091800450918104609123
:1022F000820470918304411551056105710529F12E
:1023000086E796E02AE030E00E94052986E796E01D
:1023100061EA77E00E94FF27609184047091850450
:1023200086E796E04AE050E00E942A2986E796E098
:102330006EE777E00E94FF2786E796E060918604CB
:102340004AE050E00E94592906C086E796E065E71A
:1023500077E00E944A2886E796E068E577E00E94E9
:10236000FF27609187047091880486E796E04AE031
:1023700050E00E942A2986E796E06BE377E00E940E
:10238000FF2760917F04603150F470E06F5F7F4FF2
:1023900086E796E04AE050E00E94CA2906C086E738
:1023A00096E062E377E00E944A2886E796E065E1DE
:1023B00077E00E94FF2780917E0482FD03C061E3E5
:1023C00071E002C065E371E086E796E00E94EC29C7
:1023D00086E796E068EF76E00E94FF2780917E0412
:1023E00083FD03C069E371E002C062E471E086E747
:1023F00096E00E94EC29DF91CF911F910F91FF9001
:1024000008951F93CF93DF938091FE048B3054F493
:102410008730DCF58F3F51F08F3F0CF495C0813051
:10242000CCF592C08E300CF08FC02AC086E796E0C3
:102430006CE00E94302786E796E066E474E00E9434
:102440004A2886E796E063E174E00E944A2886E71E
:1024500096E060EF73E00E944A2886E796E068ED18
:1024600073E00E944A2886E796E063EB73E00E94DF
:102470004A2886E796E00E942A280E94BA1064C083
:1024800080917004843009F45FC0809170048230C0
:1024900009F45AC086E796E06EE973E00E94FF27D0
:1024A0006091FE04772767FD709586E796E04AE025
:1024B00050E00E94CA2986E796E063E773E00E9435
:1024C000FF2714E1CFE4D3E038C08091700498175F
:1024D00099F5298130E08091FE04992787FD909538
:1024E00001972817390741F586E796E06AE471E01D
:1024F0000E94E92986E796E0612F4AE050E00E94B9
:10250000472986E796E06EE471E00E94E929EA81B6
:10251000F0E0E770F070EE0FFF1FEA50FC4F6081B3
:10252000718186E796E00E94E92986E796E062E5F8
:1025300071E00E94E9291F5F23969881992329F66B
:1025400086E796E00E942A286AE070E080E090E04A
:102550000E943B2404C086E796E00E94F72686E7A7
:1025600096E00E94C626892BB1F7DF91CF911F918B
:1025700008951F93CF93DF9386E796E06FE879E0A5
:102580000E94FF2740914C0450914D0460914E04ED
:1025900070914F0486E796E02AE030E00E9405291A
:1025A00086E796E069E779E00E94FF2740915004B2
:1025B00050915104609152047091530486E796E063
:1025C00020E130E00E94052986E796E063E679E0A5
:1025D0000E94FF2786E796E0609154044AE050E0AD
:1025E0000E94592986E796E06DE479E00E94FF2772
:1025F00086E796E0609155044AE050E00E94592930
:1026000086E796E067E379E00E94FF27C6E5D4E01D
:1026100010E012C0112331F086E796E064E571E026
:102620000E94E92986E796E069914AE050E00E941D
:1026300047291F5F183119F08881882359F786E7E9
:1026400096E00E942A2886E796E061E279E00E94FF
:10265000FF2786E796E060916E044AE050E00E9412
:10266000592986E796E06CE079E00E94FF27E09127
:102670006F04F0E0E770F070EE0FFF1FEA5FFB4FB2
:102680006081718186E796E00E94EC2986E796E0FA
:1026900067EF78E00E94FF2780916F0483FD03C0FD
:1026A00069E371E002C062E471E086E796E00E94AF
:1026B000EC2986E796E062EE78E00E94FF278091A1
:1026C0006F0484FD03C069E371E002C062E471E05D
:1026D00086E796E00E94EC2986E796E06EEC78E0CB
:1026E0000E94FF27409148045091490460914A0498
:1026F00070914B0486E796E02AE030E00E940529BD
:1027000086E796E061EB78E00E94FF2787E494E09B
:102710000E944407AB01BC0186E796E02AE030E066
:102720000E94F62886E796E06CEA78E00E94FF2790
:1027300087E494E00E9444079B01AC0160E472E4EA
:102740008FE090E00E945B2A86E796E0BA01A9013B
:102750002AE030E00E94F62886E796E069EA78E011
:102760000E944A28DF91CF911F9108958091FE0425
:10277000853009F477C0863094F4823009F463C060
:10278000833034F48F3FF1F0813009F090C056C0AF
:10279000833009F45DC0843009F089C05EC08830A0
:1027A00009F475C089303CF4863009F460C0873084
:1027B00009F07DC061C0893009F46EC08A3009F02B
:1027C00076C06FC086E796E06CE00E94302786E70F
:1027D00096E068EE76E00E944A2886E796E063EC91
:1027E00076E00E944A2886E796E069E976E00E9452
:1027F0004A2886E796E068E776E00E944A2886E75E
:1028000096E06BE476E00E944A2886E796E065E26F
:1028100076E00E944A2886E796E061E076E00E9432
:102820004A2886E796E06AED75E00E944A2886E726
:1028300096E00E942A280E94B91239C086E796E0E5
:102840006DEB75E032C086E796E068E975E02DC073
:1028500086E796E063E875E028C086E796E064E6E0
:1028600075E023C086E796E060E275E01EC086E76B
:1028700096E06BE075E019C086E796E066EF74E0DD
:102880000E944A2886E796E060EB74E00EC086E777
:1028900096E06DE974E009C086E796E064E874E0CC
:1028A00004C086E796E06EE674E00E944A286AE07B
:1028B00070E080E090E00E943B2404C086E796E050
:1028C0000E94F72686E796E00E94C626892BB1F77C
:1028D00008952F923F924F925F926F927F928F92C4
:1028E0009F92AF92BF92CF92DF92EF92FF920F939F
:1028F0001F93DF93CF9300D000D00F92CDB7DEB7F8
:102900008C839D834B018DB79EB79A838983ADB627
:102910009EB79B830E9407241B012C018DB79EB795
:10292000881999090FB6F8949EBF0FBE8DBF6DB67A
:102930007EB60894611C711CEE24FF24BB24B8C031
:1029400086E796E00E94C626892B09F4B1C086E787
:1029500096E00E94F726282F93E0B916E1F09B1528
:1029600030F081E0B816B9F08B15D0F00EC095E0CC
:10297000B91609F471C0B916E0F186E0B81659F03D
:1029800097E0B91609F094C06CC0233509F09CC0DB
:10299000BB24B3948DC02A3309F096C0B39488C089
:1029A000822F80538A30A8F4C701A3E0880F991FB3
:1029B000AA95E1F7EE0CFF1CE80EF91E80ED9FEFE3
:1029C000E80EF91E822F992787FD9095E80EF91ED3
:1029D0006FC0283409F078C0E814F90409F074C015
:1029E000EE24FF24E3E0BE2E00E010E0CC24DD2442
:1029F0005FC0822F80538A30C0F1822F815486308D
:102A000070F474E0000F111F7A95E1F7075310403E
:102A1000822F992787FD9095080F191F49C02C32E6
:102A200009F052C0F301EE0DFF1D00830894E11C74
:102A3000F11C8D2D992787FD90958827990F881F68
:102A40009927CC0CDD1CC80ED91E1070C026D126CB
:102A5000E814F90459F528C02435B1F546E0B42E40
:102A600025C0822F80538A3040F434E0000F111FBC
:102A70003A95E1F700531040CBCF822F8154863036
:102A800008F4BFCF2A33A1F4C016D106E9F486E7D3
:102A900096E066E571E00E94EC298C819D81B3018E
:102AA000A4010E94AE0627C025E0B22E00E010E08F
:102AB0000E9407246219730984099509605D7740B3
:102AC0008040904008F43CCF86E796E065E671E0F0
:102AD0000E94EC296AE070E080E090E00E943B24D4
:102AE00004C086E796E00E94F72686E796E00E94FB
:102AF000C626892BB1F78A2D9B819C010FB6F894CD
:102B00003EBF0FBE2DBF89819A810FB6F8949EBF3C
:102B10000FBE8DBF0F900F900F900F900F90CF9121
:102B2000DF911F910F91FF90EF90DF90CF90BF90BA
:102B3000AF909F908F907F906F905F904F903F905D
:102B40002F900895EF92FF920F931F93CF93DF93EF
:102B5000182F092F7B0186E796E068E771E00E9455
:102B6000E92986E796E0B7014AE050E00E9419297A
:102B7000E114F10419F4C0E0D0E044C0812F902F9B
:102B80009C01890186E796E06CE771E00E94E929E3
:102B9000C0E0D0E0D801EC91F0E034E0F595E795A5
:102BA0003A95E1F7EA5EFB4F86E796E060810E9486
:102BB0002228D801EC91F0E0EF70F070EA5EFB4F54
:102BC00086E796E060810E94222886E796E06CE224
:102BD0000E9422288D2F992787FD90958827990F8D
:102BE000881F9927CC0FDD1FC80FD91FF8018191CD
:102BF0008F0190E0C827D9270894E108F108E11473
:102C0000F10441F686E796E06FE771E00E94E9295A
:102C100086E796E0BE0140E150E00E94192986E770
:102C200096E062E871E00E94EC29DF91CF911F915C
:102C30000F91FF90EF900895EF92FF920F931F93E3
:102C4000DF93CF93CDB7DEB76B970FB6F894DEBFA7
:102C50000FBECDBF282F8091FE048F3F09F031C1F8
:102C6000822F992787FD9095A92FB92FFC013A97BC
:102C7000EF36F10508F092C2EC5CFF4FEE0FFF1F3C
:102C80000590F491E02D099480E794E06AE170E00A
:102C90000E94A21583C280E794E06AE170E00E947E
:102CA000691474C286E796E064E871E00E94EC293A
:102CB00085E78983DE011296E0E7F4E08AE101907E
:102CC0000D928150E1F7CE0101966BE10E94790BE4
:102CD0000E94820A83E08093460468EC70E080E002
:102CE00090E00E943B2480914604843009F056C253
:102CF0008FE70E94A8080E94BC088983853509F0E7
:102D00004DC286E796E065E573E00E944A2886E7B3
:102D100096E067E373E00E944A2886E796E069E15F
:102D200073E0B5C086E796E06CE971E00E94EC299B
:102D300089E68983CE01019661E00E94790B0E94A9
:102D4000820A83E08093460468EC70E080E090E0C3
:102D50000E943B2480914604843009F01FC28FE713
:102D60000E94A8080E94BC0889838E010E5F1F4F35
:102D70007CE1E72EF12CEC0EFD1E0E94BC08D80170
:102D80008D938D01AE15BF05C1F7A0E7B4E0FE013C
:102D900032968AE101900D928150E1F78981893460
:102DA00009F0FCC186E796E06BEF72E00E944A28CA
:102DB00086E796E06DED72E00E944A2886E796E08D
:102DC0006FEB72E064C086E796E066EB71E00E940C
:102DD000EC298EEF8093FE04E1C120522750822F10
:102DE000805390917004873014F0923031F08B3022
:102DF0000CF472C0943009F06FC086E796E065EC81
:102E000071E00E94EC29CAC186E796E06CEA72E0A4
:102E10000E944A2880917E0491E04FC086E796E0A8
:102E200069E972E00E944A2880917E0492E045C0E0
:102E300086E18093FE0486E796E06DE772E027C0A6
:102E400087E18093FE0486E796E063E372E01FC0AB
:102E500088E18093FE0486E796E062E272E017C0A4
:102E600089E18093FE0486E796E06EE072E00FC091
:102E70008AE18093FE0486E796E069EF71E007C07F
:102E80008BE18093FE0486E796E060ED71E00E949E
:102E90004A2884C186E796E066EB71E00E944A28E2
:102EA00080917E0494E009C086E796E060EA71E0D4
:102EB0000E944A2880917E0498E0892780937E04AE
:102EC0000AC0822F0E940010882309F467C18091F4
:102ED0006405882321F48FEF8093FE0457C18FEFA0
:102EE00094E060E070E040E050E00E948D059B01BE
:102EF000AC01E091FE04EE3044F4EB30E4F4E13058
:102F00000CF434C1E7300CF11BC0E83109F4D3C034
:102F1000E9313CF4E63109F45AC0E73109F026C141
:102F200064C0EA3109F4E5C0EA310CF4D4C0EB31F5
:102F300009F01CC1EFC080917004843009F416C1FF
:102F400080917004823009F411C1DA01C90101973E
:102F5000A109B1094097A105B10570F0E090700496
:102F600064E1F62EF0E06FE473E00E2F112707FD09
:102F700010950150104026C0FF27E7FDF095E0595D
:102F8000FB4F822F81508083D9C08E15C9F4DB019D
:102F900011968C9190E08017910791F48F2D90E01D
:102FA000A0E0B0E082179307A407B50741F4F80149
:102FB000E059FB4FDB0112968C918183F1E0F39491
:102FC0006D5F7F4FDB018C918823F9F6B5C0DC0182
:102FD000CB010197A109B1098F3F9105A105B10569
:102FE00008F0C4C020938904A9C08091FF048062C6
:102FF000803719F580E095E060E070E040E050E057
:103000000E948D059B01AC01DC01CB010197A10958
:10301000B1090897A105B10508F0BBC0CA01B90103
:1030200024ED30E340E050E00E94292A9B01AC01EE
:103030002A5E3C4A4A46554E24C0863611F580E049
:1030400095E060E070E040E050E00E948D059B015B
:10305000AC01DC01CB010197A109B1090797A105DA
:10306000B10508F096C0CA01B90128EA31E640E08E
:1030700050E00E94292A9B01AC01245E3C434E464D
:10308000544E211531054105510561F0DA01C901A0
:103090008054914EAD49B8418158904FAA4FB240EB
:1030A00008F064C02093800430938104409382042C
:1030B0005093830443C0DC01CB010A97A109B109F5
:1030C000865F9F4FA040B04008F050C03093850409
:1030D0002093840433C0DC01CB010597A109B10919
:1030E0008B3F9105A105B10508F040C020938604EF
:1030F00025C0DC01CB01845C9940A040B0408D54D8
:103100009D41A040B04030F4309388042093870460
:10311000F1E001C0F0E0211531054105510511F440
:103120008FEF07C0213131054105510528F4822F69
:10313000815080937F0402C0FF23C1F08091650518
:103140008823D1F48091500490915104A0915204AD
:10315000B09153040196A11DB11D8093500490932A
:103160005104A0935204B093530406C086E796E03E
:1031700067ED71E00E94EC290E94F60F8FEF8093BB
:10318000FE0486E796E06AE00E945E280E94011233
:1031900005C021E030E040E050E078CF6B960FB6FC
:1031A000F894DEBF0FBECDBFCF91DF911F910F917D
:1031B000FF90EF900895AF92BF92CF92DF92EF927F
:1031C000FF920F931F93DF93CF93CDB7DEB76B972B
:1031D0000FB6F894DEBF0FBECDBF0E9415247B0151
:1031E0008C0186E796E064E571E00E944A2881E060
:1031F0000E94A309F0E7AF2E6E010894C11CD11CF8
:10320000E3E0BE2EA982C60161E00E94790BB09274
:1032100046040E94820A6AEF70E080E090E00E941B
:103220003B2486E796E065EF71E00E94E9298091F2
:103230004604833009F04BC00E9415246E197F09A3
:10324000800B910B60507D428143914008F03FC05C
:10325000D9CF86E796E067EF71E012C086E796E087
:103260006FEF71E00E94EC298FE70E94A8080E948E
:10327000BC088983803539F086E796E06CE072E01F
:103280000E94EC2929C000E714E00E94BC08F80164
:1032900081938F01F4E00A381F07B9F78FEF80930D
:1032A000FE04109265050E9401120CC086E796E0AC
:1032B0000E94C626892B31F086E796E00E94F72609
:1032C0000E941C168091FE048E3F81F705C08091FC
:1032D0004604833019F6BDCF6B960FB6F894DEBF67
:1032E0000FBECDBFCF91DF911F910F91FF90EF9057
:1032F000DF90CF90BF90AF9008952F923F924F9262
:103300005F926F927F928F929F92AF92BF92CF9275
:10331000DF92EF92FF920F93DF93CF93CDB7DEB79B
:10332000A8970FB6F894DEBF0FBECDBF7E010894FC
:10333000E11CF11C80E1D7011D928A95E9F74398C1
:10334000299885B18B7D85B986E796E06DE172E0BD
:103350000E94EC290E94EB0C20E431EE4DE958E18B
:1033600029A33AA34BA35CA380EC91EDA8E9BBE1B0
:103370008D8F9E8FAF8FB8A324EF31E040E050E0F7
:10338000298F3A8F4B8F5C8F80E593ECA0E0B0E003
:103390008D8B9E8BAF8BB88FB0E44B2EB1EE5B2E36
:1033A000BDE96B2EB8E17B2E88249924540100E0FE
:1033B00022243324198A1A8A1B8A1C8A02C186E7AE
:1033C00096E00E94F7268C32D9F1843421F08332C2
:1033D00009F0C5C024C086E796E064E40E94222874
:1033E00086E796E040E451EE6DE978E12AE030E0CE
:1033F0000E94772986E796E06CE20E94222886E701
:1034000096E040EC51ED68E97BE12AE030E00E9473
:10341000772986E796E06CE20E945E28D2C0198286
:103420001A821B821C821D821E821F8218861986A8
:103430001A861B861C861D861E861F86188A42C019
:103440000F5F043009F0BDC069817A818B819C8156
:1034500028EE33E040E050E00E94292A69A37AA3D5
:103460008BA39CA36D817E818F8198850E94292AE0
:103470006D8F7E8F8F8F98A329853A854B855C85CC
:10348000298F3A8F4B8F5C8F6D857E858F859889CC
:1034900028EE33E040E050E00E94292A6D8B7E8BBD
:1034A0008F8B988F60527E448040904068F48CE10E
:1034B00062E30E94D20849A05AA06BA07CA0882495
:1034C0009924540100E07DC08D899E89AF89B88D13
:1034D00080539547A040B04018F48CE162E2E9CFF8
:1034E0002D893E894F89588D20543C494040504099
:1034F00018F48CE166E2DDCF2D893E894F89588D25
:103500002055334C4040504018F48CE162E1D1CF5B
:103510002D893E894F89588D20563A4E4040504063
:1035200018F48CE165E1C5CF2D893E894F89588D0E
:10353000205731414140504018F48CE161E0B9CF4F
:103540002D893E894F89588D205A36484140504038
:1035500018F48CE163E0ADCF8CE165E0AACF805335
:103560008A3078F5C02EDD24CC0CDD1CCC0CDD1CA3
:10357000A1E0B0E0AC0FBD1FCA0EDB1E282F332721
:1035800027FD3095432F532F2DA33EA34FA358A7BC
:10359000D6016D917D918D919C912AE030E040E0C3
:1035A00050E00E94292A2DA13EA14FA158A5260F27
:1035B000371F481F591FD6012D933D934D935C93A0
:1035C000139786E796E00E94C626892B09F0F7CE6E
:1035D00081149104A104B10489F4C301B2010E94D1
:1035E000370961E070E080E090E00E943B242224F3
:1035F0002A943324198A1A8A1B8A1C8A298D3A8DA7
:103600004B8D5C8D82169306A406B506D0F40E94FD
:10361000E20829893A894B895C89280F311D411DAF
:10362000511D298B3A8B4B8B5C8B381608F4382E46
:10363000821508F4282E0894811C911CA11CB11C31
:103640005AC0C301B20128EE33E040E050E00E94CE
:103650005B2A86E796E0BA01A9012AE030E00E94E1
:10366000F62886E796E06CE20E94222886E796E03C
:10367000632D4AE050E00E94472986E796E06CE21D
:103680000E94222869897A898B899C89A5019401E5
:103690000E945B2A86E796E0BA01A9012AE030E0A1
:1036A0000E94F62886E796E06CE20E94222886E7D0
:1036B00096E0622D4AE050E00E94472986E796E0B6
:1036C0006CE20E945E288D899E89AF89B88D480E74
:1036D000591E6A1E7B1E2D8D3E8D4F8D58A12415BF
:1036E00035054605570520F449A05AA06BA07CA0DB
:1036F00088249924540189A19AA1ABA1BCA1885E18
:103700009340A040B04009F05CCFA8960FB6F89463
:10371000DEBF0FBECDBFCF91DF910F91FF90EF9035
:10372000DF90CF90BF90AF909F908F907F906F90E1
:103730005F904F903F902F900895DF92EF92FF920D
:103740000F931F93CF93DF930E941524DC01CB01CD
:103750000E94212A10925004109251041092520497
:1037600010925304DD24E0905004F0905104009135
:10377000520410915304102F0F2DFE2CEE246FEFE6
:1037800070E080E090E00E94FF29E60EF71E081F1F
:10379000191FE0925004F0925104009352041093C8
:1037A0005304D39484E0D816F1F6C6E5D4E010E0D3
:1037B00015C062E370E080E090E00E94FF296F5F37
:1037C000E6E5F4E090E004C08191861791F39F5FF5
:1037D0009117D0F369931F5F183119F088818823FE
:1037E00041F7DF91CF911F910F91FF90EF90DF9004
:1037F0000895EF92FF920F931F93CF93DF9380E092
:1038000090E0A0E0B0E0C0E0D1E0EE24F82E092F77
:103810001A2F80EE95E0BE010E942F23A801970188
:10382000280F311D411D511DDA01C901219631E0DA
:10383000C430D30751F78C519E4BA14CBE4D19F0AB
:1038400020E030E018C0C4E0D1E080EE95E0BE0199
:103850000E942F23FE01ED5BFC4F8083219651E0F7
:10386000CD32D50791F720E030E0809147048730D2
:1038700011F421E030E0C901DF91CF911F910F9148
:10388000FF90EF9008950F931F93CF93DF93EC0178
:10389000062F15E0115071F080EE95E0BE010E94F8
:1038A0002F23081751F080EE95E0BE01402F0E94B3
:1038B0003623F0CF82E00E94030DDF91CF911F915C
:1038C0000F910895CF92DF92EF92FF920F931F9383
:1038D000CF93DF93C8E1D0E000E011E03CE1C32EDC
:1038E0003EEBD32E31ECE32E3EEDF32EA7019601F5
:1038F0000C2E04C056954795379527950A94D2F714
:10390000C801622F0E94431C28970F5F1F4F8FEF43
:10391000C83FD80759F7C4E0D1E0FE01ED5BFC4F8A
:10392000CE0160810E94431C219681E0CD32D807F0
:10393000A1F7DF91CF911F910F91FF90EF90DF9052
:10394000CF9008958F929F92AF92BF92CF92DF92C5
:10395000EF92FF920F931F93DF93CF93CDB7DEB714
:10396000E6970FB6F894DEBF0FBECDBF7C01FC0119
:103970008281863609F4B9C0873690F4833009F421
:1039800048C0843030F48130F1F0823009F04BC10E
:103990002DC0843009F493C0853609F044C192C02B
:1039A000893609F4EEC08A3638F4873609F4B0C097
:1039B000883609F038C1B5C08A3609F4EBC0873CB7
:1039C00009F031C12DC1C70161E049E250E00E9418
:1039D000430C07E414E0C701F80161918F010E94D4
:1039E000320CF4E000371F07B1F720C1C70162E0D5
:1039F0004AE150E00E94430C00E714E0C701F801DF
:103A000061918F010E94320CF4E00A381F07B1F770
:103A10000DC1C70163E041E050E00E94430C0E94E9
:103A200015245B016C0181E00E94A30960E7862EEA
:103A30008E010F5F1F4F53E0952E8982C80161E010
:103A40000E94790B909246040E94820A68EC70E012
:103A500080E090E00E943B2480914604833009F08E
:103A6000FEC086E796E00E94C626892B09F0F7C0C3
:103A70000E9415246A197B098C099D096058734CB2
:103A8000894C914008F0EBC0D8CFC70162E0C5C0B7
:103A90008FE70E94A8080E94BC088983803519F02E
:103AA000C70163E0BAC000E714E00E94BC08F80157
:103AB00081938F01F4E00A381F07B9F7A9C00E946B
:103AC0007D19B4C0F70187819085899709F0ABC053
:103AD000D701E7E4F4E019968C9119978193119638
:103AE00024E0E037F207B9F7A1C0F701878190859C
:103AF0004A9709F098C0D701E0E7F4E019968C9155
:103B000019978193119624E0EA38F207B9F78EC02D
:103B1000C70167E641E050E00E94430C0E94621C2E
:103B200077C0C70168E641E050E00E94430C85E79A
:103B30008983DE011296E0E7F4E08AE101900D92BC
:103B40008150E1F7CE0101966BE10E94790B0E9452
:103B5000820A83E08093460468EC70E080E090E0A5
:103B60000E943B2480914604843009F05FC08FE7B7
:103B70000E94A8080E94BC088983853509F04BC0C3
:103B800047C0C70169E641E050E00E94430C0E9433
:103B900000073EC0C7016AE641E050E00E94430CC6
:103BA00089E68C8FCE014C9661E00E94790B0E94D1
:103BB000820A83E08093460468EC70E080E090E045
:103BC0000E943B2480914604843081F58FE70E9457
:103BD000A8080E94BC088C8F8E01035E1F4F47E32C
:103BE000C42ED12CCC0EDD1E0E94BC08F80181939E
:103BF0008F01EC15FD05C1F7A0E7B4E0FE017D964D
:103C00008AE101900D928150E1F78C8D893419F48D
:103C1000C70161E002C0C70160E00E94320C06C02B
:103C20001092900403C0C7010E946E0C86E796E0D4
:103C3000F70164810E943027E6960FB6F894DEBF44
:103C40000FBECDBFCF91DF911F910F91FF90EF90ED
:103C5000DF90CF90BF90AF909F908F90089580910C
:103C60004604833009F014CF10CF6F927F928F9269
:103C70009F92AF92BF92CF92DF92EF92FF920F93FB
:103C80001F93CF93DF9381E08093900486E9E82E21
:103C900084E0F82E04E0C02ED12CCE0CDF1C14E6FC
:103CA000612EB4E07B2EA6E09A2EF5E08F2EE2E0A6
:103CB000AE2E73E0B72EB8C086E796E00E94C62607
:103CC000892B09F4B1C0A9C086E796E00E94F726C7
:103CD000982F8093910480919204833021F1843055
:103CE00028F4813099F08230B8F409C0853009F4A5
:103CF00050C0853020F1863009F08FC067C0953BF9
:103D000009F08BC081E08093920487C0923609F05D
:103D100082C0A092920481C09093930490939404E3
:103D2000B09292047AC090939604F7011182809128
:103D30009404892780939404709292046EC0D92FC2
:103D4000C0E020919604309197042C2B3D2B3093AA
:103D50009704209396048091940489278093940477
:103D6000809292042536310508F457C081E994E029
:103D70006CEC41E050E00E94430C81E994E061E08A
:103D80000E94320C86E796E0609195040E943027ED
:103D900042C02091980430919904F901EF56FB4FED
:103DA0009187809194048927809394042F5F3F4FDB
:103DB00030939904209398048091960490919704ED
:103DC0002817390750F19092920427C0009194046B
:103DD000091729F481E994E00E94A21C13C01091F4
:103DE000930481E994E06BEC42E050E00E94430CC4
:103DF00081E994E0612F0E94320C81E994E0602F08
:103E00000E94320CF601862D11928A95E9F71092E4
:103E10009904109298041092920486E796E00E940A
:103E2000C626892B09F050CF80919004813009F487
:103E300043CFDF91CF911F910F91FF90EF90DF90D3
:103E4000CF90BF90AF909F908F907F906F9008958C
:103E50000F931F930091FE040F3F09F09EC086341C
:103E600009F47AC0873414F5803309F491C08133A2
:103E700084F48D3009F471C18E3024F48A3009F055
:103E800074C16BC18B3109F44BC0813209F06DC133
:103E900032C0883309F465C088330CF460C08933BC
:103EA00009F468C0803409F060C12CC0863609F47A
:103EB00053C0873684F4833561F1843534F4893412
:103EC000D9F1823509F051C13EC0883549F18A35B2
:103ED00009F04BC15FC08337E1F0843734F4893691
:103EE00059F1823709F041C12EC08837C9F08A37AD
:103EF00009F03BC14FC087E494E069E270E00E94A2
:103F0000A21533C187E494E069E270E00E9469146D
:103F100024C10E94621C86E796E06AE272E006C055
:103F20000E94F91B86E796E064E472E00E94EC29A7
:103F30008EEF8093FE0419C10E94000786E796E089
:103F400063E672E006C00E949D1B86E796E06CE780
:103F500072E00E94EC2901C10E94711006C18053D9
:103F600026C018E01093FE040E94B61380916F04DF
:103F7000812709C089E08093FE040E94B6138091D6
:103F80006F0490E1892780936F040093FE04E5C0DD
:103F90008AE00DC00E94DB1809C00E94001088232F
:103FA00009F4E3C080916405882321F48FEF8093A6
:103FB000FE04D3C08FEF94E060E070E040E050E09A
:103FC0000E948D059B01AC018091FE04843009F4B0
:103FD00041C0853044F4823041F1833094F5813022
:103FE00009F097C00DC0863009F467C086300CF424
:103FF0003EC0873009F469C08A3009F08AC075C0B4
:10400000DA01C9018154914EAD49B8418F57904FA3
:10401000AA4FB24008F07DC020934C0430934D0469
:1040200040934E0450934F049BC020935004309310
:104030005104409352045093530481E080936505EA
:104040008FC0283031054105510508F062C020932A
:10405000540486C0DA01C9010197A109B1090A9780
:10406000A105B10508F055C02093550479C08FEF24
:1040700094E064E571E00E94A90610E00EC01831DA
:1040800030F4E12FF0E0E95BFB4F87871F5F80E0B2
:1040900090E064E571E00E94A906009759F00E9443
:1040A0008B06009761F706C0E12FF0E0E95BFB4F5C
:1040B00017861F5F1831C0F353C023303105410507
:1040C000510538F520936E044BC0DA01C901019700
:1040D000A109B1090697A105B105D8F480916F0433
:1040E000887F822B80936F043BC0DA01C901805B1B
:1040F0009440A040B04081559D4BA140B04048F451
:10410000209348043093490440934A0450934B044D
:1041100027C086E796E067ED71E00E94EC2913C0A6
:104120008091500490915104A0915204B091530495
:104130000196A11DB11D8093500490935104A0934A
:104140005204B09353040E94F60F8FEF8093FE0445
:1041500086E796E06AE00E945E280E94B61305C0DA
:10416000809165058823E1F2EECF1F910F910895AC
:104170008FEF8093FE04109265050E94B6130CC069
:1041800086E796E00E94C626892B31F086E796E006
:104190000E94F7260E94281F8091FE048E3F81F71F
:1041A0006AE070E080E090E00E943B2404C086E773
:1041B00096E00E94F72686E796E00E94C626892BA5
:1041C000B1F708957F928F929F92AF92BF92CF9254
:1041D000DF92EF92FF920F931F93DF93CF93CDB7B0
:1041E000DEB7AA970FB6F894DEBF0FBECDBF0E9410
:1041F00007246B017C0181E00E94A30904C086E7CB
:1042000096E00E94F72686E796E00E94C626892B54
:10421000B1F711E022E6722E92E0892E912C8C0EDD
:104220009D1E5E010894A11CB11C03E00E9407249E
:1042300020E030E06C197D098E099F09693C710509
:104240008105910510F021E030E0812F90E02823D6
:104250003923232BC9F10E9407246B017C0185B10E
:10426000846285B980ED97E00E94920C7982D40136
:10427000E7E4F4E089E201900D928150E1F7C50195
:104280006AE20E94790B85B18B7D85B980E090E070
:104290000E94920C009346040E94820A62E370E03E
:1042A00080E090E00E943B2480914604843059F4E1
:1042B000009346048FE70E94A8080E94BC0882343D
:1042C00011F410E001C011E087E00E946225892B03
:1042D00021F511E022C086E796E00E94F7268D3096
:1042E000910569F08E3091051CF40A97B1F407C06E
:1042F0008332910569F08234910579F40CC086E728
:1043000096E066E471E00E944A280E94B82005C049
:104310000E947D1902C00E94351E86E796E00E9429
:10432000C626892B09F482CFD6CF86E796E00E9475
:10433000C62604970CF186E796E00E94F7268234A1
:104340009105D1F486E796E00E94F7268E34910518
:1043500099F486E796E00E94F7268434910561F48B
:1043600086E796E00E94F726819731F480E090E09E
:104370000E94920C0E94E22008958F929F92AF9229
:10438000BF92CF92DF92EF92FF920F931F9387E03D
:104390000E946225892B09F08AC068EC70E080E0F9
:1043A00090E00E943B2480E090E00E94920C0E94EA
:1043B00007245B016C0130ECE32E32E1F32E012D7A
:1043C000112DE60EF71E081F191F06C087E00E9478
:1043D0006225892B09F063C00E9407246E157F05B2
:1043E0008007910798F387E00E946225892B09F0E6
:1043F00056C080ED97E00E94920C0E9407247B013A
:104400008C0199249394882488E496E2A0E0B0E09B
:10441000A80EB91ECA1EDB1E29C0AE14BF04C006FA
:10442000D10638F480ED97E00E94920C88248394A2
:104430001DC00E9407246E197F09800B910B693CF7
:1044400071058105910590F00E9407247B018C0184
:1044500080E0992009F481E0982E882319F480E007
:1044600090E002C080ED97E00E94920C87E00E94ED
:104470006225892B91F280E090E00E94920C0E94CC
:104480001524DC01CB010E94212A882011F00E9412
:1044900000070E949D1B0E94621C0E94B91286E7C1
:1044A00096E069E972E00E94EC290E94E2201F91E7
:1044B0000F91FF90EF90DF90CF90BF90AF909F90C3
:1044C0008F90089580E061EF76E042E050E00E9436
:1044D000422308950E947D0C81E161E00E94CF2477
:1044E0008DE061E00E94CF2489E061E00E94CF244A
:1044F0008AE061E00E94CF2487E060E00E94CF2440
:1045000088E060E00E94CF2488E061E00E940E25F0
:104510000E94CB0C86E796E040E052EC61E070E050
:104520000E943F260E94F91B892B39F086E796E00E
:1045300060EB72E00E94EC2910C086E796E06DEC1B
:1045400072E00E94E9290E9400070E94621C86E72F
:1045500096E06FEE72E00E94E92981E08093F50316
:104560001092930583E0809380008AE1809381001C
:104570008FEF9FEF909389008093880080916F0068
:10458000806280936F000E94622280E00E94A309F3
:10459000E0917805F0E0E95BFB4F87850E94DD083C
:1045A000789480ED97E00E94920C87E061E00E9491
:1045B0000E25439A299A04C086E796E00E94F726C2
:1045C00086E796E00E94C626892BB1F786E796E03B
:1045D00062E073E00E94EC2968EC70E080E090E01B
:1045E0000E943B240E9495210E94BD214398299856
:1045F00080E090E00E94920C8FEF809392050E94E1
:10460000820A1092DD051092DE051092DF0580917E
:104610006F0484FF15C00E94E20C0E941524609371
:10462000860570938705809388059093890586E7B2
:1046300096E040E855E260E070E00E943F26089571
:1046400083FF0CC0409148045091490460914A0492
:1046500070914B0486E796E00E943F260895F999F1
:10466000FECF72BD61BDF89A80B50895F999FECF6D
:104670001FBA72BD61BD40BD0FB6F894FA9AF99A9F
:104680000FBE0895823000F5E82FF0E0EE0FFF1F17
:10469000EF51FA4F71836083882319F08130A1F4C0
:1046A00008C0809169008C7F842B80936900E89A10
:1046B000089580916900440F551F440F551F837F53
:1046C000842B80936900E99A08951F920F920FB688
:1046D0000F9211242F933F934F935F936F937F9388
:1046E0008F939F93AF93BF93EF93FF938091E105D7
:1046F0009091E205892B29F0E091E105F091E20526
:104700000995FF91EF91BF91AF919F918F917F910B
:104710006F915F914F913F912F910F900FBE0F902E
:104720001F9018951F920F920FB60F9211242F937E
:104730003F934F935F936F937F938F939F93AF9329
:10474000BF93EF93FF938091E3059091E405892B4C
:1047500029F0E091E305F091E4050995FF91EF91CF
:10476000BF91AF919F918F917F916F915F914F9189
:104770003F912F910F900FBE0F901F9018951F9291
:104780000F920FB60F9211242F933F938F939F9305
:10479000AF93BF938091E9059091EA05A091EB0555
:1047A000B091EC053091ED050196A11DB11D232FAF
:1047B0002D5F2D3720F02D570196A11DB11D20939F
:1047C000ED058093E9059093EA05A093EB05B0937E
:1047D000EC058091E5059091E605A091E705B09183
:1047E000E8050196A11DB11D8093E5059093E605AE
:1047F000A093E705B093E805BF91AF919F918F918A
:104800003F912F910F900FBE0F901F9018958FB76B
:10481000F8942091E9053091EA054091EB0550911B
:10482000EC058FBFB901CA0108959FB7F894209194
:10483000E5053091E6054091E7055091E80586B51C
:10484000A89B06C08F3F21F02F5F3F4F4F4F5F4F18
:104850009FBF542F432F322F2227280F311D411D78
:10486000511D82E0220F331F441F551F8A95D1F737
:10487000B901CA0108959B01AC017FB7F8948091FA
:10488000E5059091E605A091E705B091E80566B5CC
:10489000A89B05C06F3F19F00196A11DB11D7FBFF8
:1048A000BA2FA92F982F8827860F911DA11DB11D02
:1048B00062E0880F991FAA1FBB1F6A95D1F7BC0140
:1048C0002DC0FFB7F8948091E5059091E605A09181
:1048D000E705B091E805E6B5A89B05C0EF3F19F0E4
:1048E0000196A11DB11DFFBFBA2FA92F982F8827B0
:1048F0008E0F911DA11DB11DE2E0880F991FAA1F07
:10490000BB1FEA95D1F7861B970B885E9340C8F2D0
:10491000215030404040504068517C4F21153105B6
:104920004105510571F60895789484B5826084BD7F
:1049300084B5816084BD85B5826085BD85B58160A3
:1049400085BDEEE6F0E0808181608083E1E8F0E003
:104950001082808182608083808181608083E0E832
:10496000F0E0808181608083E1EBF0E08081846011
:104970008083E0EBF0E0808181608083EAE7F0E013
:104980008081846080838081826080838081816077
:1049900080838081806880831092C1000895CF93C6
:1049A000DF93482F50E0CA018952964FFC013491A1
:1049B0004D53564FFA018491882369F190E0880F96
:1049C000991FFC01EB55F64FA591B491FC01E155FF
:1049D000F64FC591D491662351F42FB7F8948C917A
:1049E000932F909589238C93888189230BC0623003
:1049F00061F42FB7F8948C91932F909589238C9321
:104A00008881832B88832FBF06C09FB7F8948C9131
:104A1000832B8C939FBFDF91CF910895482F50E057
:104A2000CA018551964FFC012491CA018952964FC3
:104A3000FC0194914D53564FFA013491332309F4FC
:104A400040C0222351F1233071F0243028F421306A
:104A5000A1F0223011F514C02630B1F02730C1F09A
:104A60002430D9F404C0809180008F7703C08091F6
:104A700080008F7D8093800010C084B58F7702C046
:104A800084B58F7D84BD09C08091B0008F7703C04D
:104A90008091B0008F7D8093B000E32FF0E0EE0FA7
:104AA000FF1FE155F64FA591B4912FB7F8946623F7
:104AB00021F48C919095892302C08C91892B8C9341
:104AC0002FBF0895682F70E0CB018551964FFC01F0
:104AD0002491CB018952964FFC0144916D53764F3E
:104AE000FB019491992319F420E030E03CC022238B
:104AF00051F1233071F0243028F42130A1F022301C
:104B000011F514C02630B1F02730C1F02430D9F4AB
:104B100004C0809180008F7703C0809180008F7DDA
:104B20008093800010C084B58F7702C084B58F7DDC
:104B300084BD09C08091B0008F7703C08091B00020
:104B40008F7D8093B000892F90E0880F991F875444
:104B5000964FFC01A591B4918C9120E030E0842324
:104B600011F021E030E0C901089508951F920F92DD
:104B70000FB60F9211242F933F934F938F939F93D0
:104B8000EF93FF938091C00082FD1DC04091C6004D
:104B900020912E0630912F062F5F3F4F2F733070DC
:104BA00080913006909131062817390771F0E09115
:104BB0002E06F0912F06E251FA4F408330932F06D4
:104BC00020932E0602C08091C600FF91EF919F9125
:104BD0008F914F913F912F910F900FBE0F901F908B
:104BE0001895E0918206F0918306E05CFF4F819179
:104BF000919120813181821B930B8F739070892B4F
:104C000011F00E94B52508951F920F920FB60F92D2
:104C100011242F933F938F939F93EF93FF932091B2
:104C2000720630917306809174069091750628176C
:104C3000390731F48091C1008F7D8093C10014C089
:104C4000E0917406F0917506EE5CF94F2081809139
:104C500074069091750601968F7390709093750607
:104C6000809374062093C600FF91EF919F918F91DE
:104C70003F912F910F900FBE0F901F901895AF92FC
:104C8000BF92DF92EF92FF920F931F93CF93DF9328
:104C9000EC017A018B01DD24403081EE580780E081
:104CA000680780E0780711F0DD24D39491E0A92E05
:104CB000B12CEC89FD89DD2069F0C50108A002C096
:104CC000880F991F0A94E2F7808360E079E08DE312
:104CD00090E005C0108260E874E88EE190E0A801E1
:104CE00097010E945B2A2150304040405040569529
:104CF00047953795279580E12030380720F0DD2053
:104D000011F0DD24D6CFE889F9893083EA89FB895F
:104D1000208319A2EE89FF89408121E030E0C9019A
:104D20000C8C02C0880F991F0A94E2F7482B40832D
:104D3000EE89FF894081C9010D8C02C0880F991F3F
:104D40000A94E2F7482B4083EE89FF894081C9012C
:104D50000E8C02C0880F991F0A94E2F7482B4083FB
:104D6000EE89FF8980810F8C02C0220F331F0A94C5
:104D7000E2F7209528232083DF91CF911F910F9197
:104D8000FF90EF90DF90BF90AF900895DC011C96EC
:104D9000ED91FC911D97E05CFF4F21913191808155
:104DA0009181281B390B2F733070C9010895DC01E4
:104DB0001C96ED91FC911D97E05CFF4F20813181A5
:104DC000E054F040DF01AE5BBF4F8D919C91119795
:104DD0002817390719F42FEF3FEF07C08D919C91E9
:104DE000E80FF91F8081282F30E0C9010895DC0108
:104DF0001C96ED91FC911D97E05CFF4F2081318165
:104E0000E054F040DF01AE5BBF4F8D919C91119754
:104E10002817390719F42FEF3FEF10C08D919C919F
:104E20001197E80FF91F20818D919C9111970196A0
:104E30008F73907011969C938E9330E0C901089502
:104E4000DC0191968C919197882339F05496ED91DD
:104E5000FC915597808186FFF9CF91961C92089519
:104E6000CF93DF93EC01EE85FF85E05CFF4F20815F
:104E70003181E054F0402F5F3F4F2F733070DF01DE
:104E8000AE5BBF4F8D919C91119728173907D1F3D5
:104E9000E05CFF4F80819181E054F040E80FF91F02
:104EA0006083EE85FF85E05CFF4F31832083EE89D0
:104EB000FF89208181E090E00F8C02C0880F991F4C
:104EC0000A94E2F7282B208381E089A3EC89FD89ED
:104ED00080818064808381E090E0DF91CF910895AC
:104EE000109279061092780688EE93E0A0E0B0E088
:104EF00080937A0690937B06A0937C06B0937D0600
:104F000088E394E090937706809376068EEE95E0A2
:104F1000909383068093820682E396E090938506C1
:104F20008093840685EC90E09093870680938606B4
:104F300084EC90E0909389068093880680EC90E062
:104F400090938B0680938A0681EC90E090938D0677
:104F500080938C0682EC90E090938F0680938E066F
:104F600086EC90E0909391068093900684E0809385
:104F7000920683E08093930687E08093940685E011
:104F80008093950681E0809396060895CF93DF93F2
:104F90000E9494240E946A22C1EFD5E20E946F0D04
:104FA0002097E1F30E94F125F9CFCF92DF92EF92A3
:104FB000FF920F931F93CF93DF937C016B018A01C4
:104FC000C0E0D0E00FC0D6016D916D01D701ED9129
:104FD000FC910190F081E02DC7010995C80FD91F00
:104FE000015010400115110571F7CE01DF91CF91ED
:104FF0001F910F91FF90EF90DF90CF900895EF9267
:10500000FF920F931F93CF93DF937C018B01C0E03E
:10501000D0E0F8010F5F1F4F6491662359F0D7016C
:10502000ED91FC910190F081E02DC7010995C80F29
:10503000D91FEFCFCE01DF91CF911F910F91FF903C
:10504000EF900895DC01ED91FC910190F081E02D4D
:1050500009950895EF92FF920F931F938C01DC0145
:10506000ED91FC910190F081E02D6DE009957C01BE
:10507000D801ED91FC910190F081E02DC8016AE02A
:1050800009959C012E0D3F1DC9011F910F91FF90A5
:10509000EF900895EF92FF920F931F937C010E946F
:1050A000FF278C01C7010E942A289C01200F311F75
:1050B000C9011F910F91FF90EF900895EF92FF9219
:1050C0000F931F937C01DC01ED91FC910190F08125
:1050D000E02D09958C01C7010E942A28080F191F8D
:1050E000C8011F910F91FF90EF900895CF93DF9328
:1050F000EC016115710519F420E030E00FC0DB010F
:105100000D900020E9F71197A61BB70BE881F981F4
:105110000280F381E02DAD0109959C01C901DF9169
:10512000CF9108954F925F927F928F929F92AF920C
:10513000BF92CF92DF92EF92FF920F931F93DF9374
:10514000CF93CDB7DEB7A1970FB6F894DEBF0FBEF1
:10515000CDBF2C01742ECB01223008F42AE019A215
:1051600031E2C32ED12CCC0EDD1E822E9924AA242E
:10517000BB24672D752FA50194010E945B2A79013C
:105180008A01C801B701A50194010E94292A472D6F
:10519000461B0894C108D1084A3014F4405D01C090
:1051A000495CF6014083E114F1040105110521F089
:1051B0007E2C5F2DC801DDCFC201B6010E9476288A
:1051C000A1960FB6F894DEBF0FBECDBFCF91DF9191
:1051D0001F910F91FF90EF90DF90CF90BF90AF9015
:1051E0009F908F907F905F904F900895DC012115E4
:1051F000310541F4ED91FC910190F081E02D642F97
:10520000099508950E9492280895EF92FF920F93B6
:105210001F937C010E94F6288C01C7010E942A2856
:105220009C01200F311FC9011F910F91FF90EF903A
:105230000895EF92FF920F931F939A017B0100E074
:1052400010E0B801A7010E94F6281F910F91FF906E
:10525000EF900895CF92DF92EF92FF920F931F93FA
:105260006C017B019A0100E010E0B801A7010E94E7
:10527000F6288C01C6010E942A28080F191FC801B0
:105280001F910F91FF90EF90DF90CF900895EF92D4
:10529000FF920F931F939A01E62EFF2400E010E087
:1052A000B801A7010E94F6281F910F91FF90EF907F
:1052B0000895CF92DF92EF92FF920F931F936C01AC
:1052C000E62E9A01FF2400E010E0B801A7010E9439
:1052D000F6288C01C6010E942A28080F191FC80150
:1052E0001F910F91FF90EF90DF90CF900895CF9294
:1052F000DF92EF92FF920F931F93CF93DF93EC0116
:105300006A017B012115310541F4E881F9810190A1
:10531000F081E02D642F09951FC02A303105D1F4AA
:1053200077FF17C0E881F9810190F081E02D6DE2EF
:1053300009958C0144275527BA014C195D096E095E
:105340007F09CE012AE00E9492289801280F391F78
:1053500004C02AE00E9492289C01C901DF91CF91EC
:105360001F910F91FF90EF90DF90CF900895EF92F3
:10537000FF920F931F937B019A010027F7FC009582
:10538000102FB801A7010E9477291F910F91FF905C
:10539000EF900895CF92DF92EF92FF920F931F93B9
:1053A0006C017B019A010027F7FC0095102FB801D2
:1053B000A7010E9477298C01C6010E942A28080FA4
:1053C000191FC8011F910F91FF90EF90DF90CF90B0
:1053D00008950E9476280895EF92FF920F931F93ED
:1053E0007C010E9476288C01C7010E942A28080FA0
:1053F000191FC8011F910F91FF90EF900895EF9230
:10540000FF920F931F937B018C016115710581053C
:10541000910529F420E030E040E050E00BC00E940C
:105420007F05A80197010E947D2AAC01CB01DA011A
:105430009C01AD01B901CA011F910F91FF90EF903E
:105440000895009729F0BC0180E090E00E94840557
:105450000895629FD001739FF001829FE00DF11DBE
:10546000649FE00DF11D929FF00D839FF00D749FDE
:10547000F00D659FF00D9927729FB00DE11DF91F8A
:10548000639FB00DE11DF91FBD01CF0111240895E7
:1054900097FB092E07260AD077FD04D049D006D005
:1054A00000201AF4709561957F4F0895F6F7909556
:1054B00081959F4F0895A1E21A2EAA1BBB1BFD01E7
:1054C0000DC0AA1FBB1FEE1FFF1FA217B307E407E3
:1054D000F50720F0A21BB30BE40BF50B661F771F3B
:1054E000881F991F1A9469F760957095809590951B
:1054F0009B01AC01BD01CF01089597FB092E052644
:105500000ED057FD04D0D7DF0AD0001C38F45095D8
:105510004095309521953F4F4F4F5F4F0895F6F7D7
:1055200090958095709561957F4F8F4F9F4F08950F
:10553000AA1BBB1B51E107C0AA1FBB1FA617B707B9
:1055400010F0A61BB70B881F991F5A95A9F78095D5
:105550009095BC01CD010895EE0FFF1F0590F491C9
:10556000E02D0994911106C0803219F089508550C0
:10557000D0F708959927882708952F923F924F9248
:105580005F926F927F928F929F92AF92BF92CF92D3
:10559000DF92EF92FF920F931F93CF93DF93CDB7DC
:1055A000DEB7CA1BDB0B0FB6F894DEBF0FBECDBF54
:1055B00009942A88398848885F846E847D848C8425
:1055C0009B84AA84B984C884DF80EE80FD800C812E
:1055D0001B81AA81B981CE0FD11D0FB6F894DEBF11
:0C55E0000FBECDBFED010895F894FFCF81
:1055EC0054582074696D656F757421006D6F647506
:1055FC006C65206C6F636B65643F00486F70206353
:10560C0068616E6E656C2000204020004646004E9E
:10561C00004E2F41003863680044697361626C6509
:10562C006400456E61626C6564002C205B005D203B
:10563C00280029002C0042494E415259204C4F4120
:10564C0044204F4B0054696D656F7574206F722048
:10565C006572726F7221210040533A00483A00542F
:10566C003A003A0053656E64696E67207365747412
:10567C00696E677320746F2052580A005265736507
:10568C007474696E672073657474696E6773206FC8
:10569C006E2052580A0041626F7274656420656412
:1056AC006974730A00696E76616C69642073656C49
:1056BC00656374696F6E000D0A496E76616C69647E
:1056CC0020696E707574202D206469736361726437
:1056DC0065642107002E0054494D454F5554006711
:1056EC006F7420726573706F6E736500496E7661AE
:1056FC006C696420726573706F6E7365007363619F
:10570C006E6E6572206D6F64650053657474696E9E
:10571C00677320736176656420746F204545505221
:10572C004F4D0A005265766572746564207365741A
:10573C0074696E67732066726F6D20454550524FC9
:10574C004D0A004C6F6164656420666163746F720E
:10575C00792064656661756C74730A004B657920F9
:10576C00616E64206368616E6E656C732072616E2D
:10577C00646F6D697A65640A00456E746572696E52
:10578C00672062696E64696E67206D6F64650A00DC
:10579C004C6F616465642073657474696E67732003
:1057AC0066726F6D20454550524F4D0A004545506D
:1057BC00524F4D2064617461206E6F742076616C61
:1057CC0069642C207265696E6974696E670A00459C
:1057DC004550524F4D20646174612073617665644D
:1057EC000A004F70656E4C52536E67207374617271
:1057FC0074696E670050504D005253534900534426
:10580C00410053434C005258440054584400414901
:10581C004E0078787800342B34003800382B340064
:10582C0031320031322B34003136000100000001DE
:10583C000021010520010922010926010A23010A80
:10584C0026010B24010C2502002002012202012654
:10585C00020221020323020326020424020525046A
:10586C000821040920000000C01200001A400AA1FF
:10587C00204EA5001B1E27522C233080250000052E
:10588C00400AA1204EA50020244EA52C2330004B0D
:10589C00000006400AD0009D49007B289D492C231E
:1058AC00308025000005400AA1204EA50020244E82
:1058BC00A52C2330000200020002000200020002AC
:1058CC0000020002000200020002000200020002BC
:1058DC00000200021001150319031E032203260304
:1058EC002A032E033203310136033A033C034003EF
:1058FC0043034803310130313233343536373839CC
:10590C0041424344454600070B0C10111500160A82
:10591C0013223129000000003027D527C626F72690
:04592C00D726202733
:00000001FF
