:100000000C94E3050C94AE280C94DB280C940B069E
:100010000C940B060C940B060C940B060C940B061C
:100020000C940B060C940B060C94410C0C940B06D0
:100030000C940B060C940B060C940B060C940B06FC
:100040000C9408290C940B060C94292D0C94772DF4
:100050000C940B060C940B060C940B060C940B06DC
:100060000C940B060C940B06EE1BF51BF51BEE1BFC
:10007000F51BF51BF51BF51BF51BF51BF51BF51B00
:10008000F51BF51BF51BF51BF51B5D1BF51BF51B88
:10009000F51BF51BF51BC01AF51BF51BF51BF51B16
:1000A000F51BF51BF51BF51BF51BF51BF51BF51BD0
:1000B000F51BF51BF51B691B691B691B691B691B7C
:1000C000691B691B691B691BF51BF51BF51BF51BE0
:1000D000F51BF51BC51A681B681B681B681BF51B05
:1000E0007F1B871B8F1B971B9F1BA71BAF1BB71B60
:1000F000C11BCB1BD51BDF1B0C1BCC1AF51BF51B27
:10010000F51BF51B5D1BF51BF51BF51BF51BF51B07
:10011000F51BF51BF51B671B671B671B671BF51B97
:100120007F1B871B8F1B971B9F1BA71BAF1BB71B1F
:10013000C11BCB1BD51BDF1B0C1BCC1AF51BF51BE6
:10014000F51BF51B5D1B456E746572206D656E7544
:100150002E2E2E00546F67676C6564206D69637284
:100160006F50504D00546F67676C656420696E7600
:1001700065727465642050504D2100546F67676C40
:100180006564205458206D7574696E672100546F42
:1001900067676C65642074656C656D657472792140
:1001A0000050726F746F636F6C206572726F722093
:1001B000776974682052580054696D656F757420B2
:1001C0007768656E20636F6E6E656374696E672015
:1001D000746F20525800507265737320616E7920DD
:1001E0006B657920746F2063616E63656C00436F8B
:1001F0006E6E656374696E6720746F2052582C2090
:10020000706F776572207570207468652052582071
:1002100028776974682062696E6420706C75672045
:100220006966206E6F74207573696E6720616C77E4
:100230006179732062696E642900546F67676C6529
:10024000642027696D6D656469617465206F7574DC
:100250007075742700546F67676C65642027736C32
:10026000617665206D6F64652700546F67676C6504
:10027000642027616C776179732062696E6427005E
:10028000546F67676C65642050504D206368616EE1
:100290006E656C206C696D697400536574205253EF
:1002A000534920696E6A656374696F6E2063686183
:1002B0006E6E656C2028303D3D64697361626C65CB
:1002C00029005365742050504D206D696E696D751D
:1002D0006D2073796E630053657420626561636F8E
:1002E0006E20696E74657276616C0053657420626D
:1002F0006561636F6E2064656C617900536574207D
:10030000626561636F6E206672657175656E637993
:1003100020696E20487A3A20303D64697361626CCE
:10032000652C2050783D504D52206368616E6E659B
:100330006C20782C2046783D465253206368616ECD
:100340006E656C2078005365742050574D2073748F
:100350006F702064656C6179202830206469736156
:10036000626C65642C20312D323535203D3D2030C6
:100370002E3173202D2035306D696E290053657440
:100380002050504D2073746F702064656C6179202B
:1003900028302064697361626C65642C20312D32D1
:1003A0003535203D3D20302E3173202D2035306DE8
:1003B000696E2900536574206661696C73616665B6
:1003C0002064656C61792028302064697361626CF7
:1003D00065642C20312D323535203D3D20302E31C5
:1003E00073202D2035306D696E29002A2A2A2A2A89
:1003F0002A2A2A2A2A2A2A2A2A2A2A2A2A2A2A2A5D
:100400002A2A2A2A2A2A2A2A0052582041636B655E
:1004100064202D2072657665727420737563636540
:10042000737366756C21002A2A2A2A2A2A2A2A2A04
:100430002A2A2A2A2A2A2A2A2A2A2A2A2A2A2A2A1C
:100440002A2A2A2A002A2A2A2A2A2A2A2A2A2A2A36
:100450002A2A2A2A2A2A2A2A2A2A2A2A2A2A2A2AFC
:100460002A2A0052582041636B6564202D20757044
:1004700064617465207375636365737366756C215D
:10048000002A2A2A2A2A2A2A2A2A2A2A2A2A2A2AF6
:100490002A2A2A2A2A2A2A2A2A2A2A2A2A2A0056BA
:1004A000616C69642063686F69636573206172655C
:1004B0003A205B315D2D5B31365D20286368616ECB
:1004C0006E656C20312D31362900536574206F75AF
:1004D0007470757420666F7220706F727420005B88
:1004E000585D2061626F7274206368616E67657326
:1004F00020616E64206578697420525820636F6EA5
:10050000666967005B535D2073617665207365746F
:1005100074696E677320746F205258005B525D20BF
:100520007265766572742052582073657474696EB2
:10053000677320746F2064656661756C7473005511
:100540007365206E756D62657273205B312D445D3D
:1005500020746F206564697420706F727473205BFF
:10056000452D515D20666F722073657474696E67E6
:100570007300202D20726563656976657220636F54
:100580006E666967757261746F722C207278207361
:100590007720000A0A6F70656E4C52536E67200018
:1005A0005365742073657269616C20626175647251
:1005B0006174653A200056616C69642063686F69F4
:1005C0006365733A2031202D20342B34202F2032C4
:1005D000202D2038202F2033202D20382B34202F81
:1005E0002034202D203132202F2035202D20313273
:1005F0002B34202F2036202D2031360053657420D7
:100600004368616E6E656C20636F6E6669673A2041
:1006100000536574204461746172617465202830F0
:100620002D32293A200053657420486F702063688A
:10063000616E6E656C7320286D61782032342C20D9
:1006400073657061726174656420627920636F6D97
:100650006D6173292076616C69642076616C7565C3
:100660007320312D3235353A20005365742063688C
:10067000616E6E656C2073706163696E67202878A7
:1006800031306B487A293A20005365742052462055
:10069000706F7765722028302D37293A2000536516
:1006A00074205246206D6167696320286865782947
:1006B00020652E672E203078444541444630304432
:1006C0003A2000536574206261736520667265711B
:1006D00075656E63792028696E20487A293A200072
:1006E0005B5A5D20656E746572207265636569761C
:1006F000657220636F6E66696775726174696F6E8B
:10070000207574696C79005B465D20646973706C58
:1007100061792061637475616C20667265717565BD
:100720006E636965732075736564005B525D206359
:10073000616C63756C6174652072616E646F6D20AD
:100740006B657920616E6420686F70206C697374CA
:10075000005B495D207265696E697469616C697AD4
:10076000652073657474696E677320746F20736B92
:10077000657463682064656661756C7473005B58AA
:100780005D20726576657274206368616E6765735B
:1007900020616E642065786974206D656E75005BFC
:1007A000535D20736176652073657474696E677339
:1007B00020746F20454550524F4D20616E64206576
:1007C000786974206D656E7500557365206E756D62
:1007D00062657273205B302D395D20746F20656413
:1007E000697420706172616D657465727300202D8B
:1007F0002053797374656D20636F6E6669677572D7
:100800006174696F6E000A0A6F70656E4C52536EA8
:100810006720005129204F757470757420626566D9
:100820006F7265206C696E6B20283D465329203A13
:100830002000502920536C617665206D6F6465201F
:10084000286578706572696D656E74616C293A20EF
:10085000004F292054696D65642042494E4420614F
:1008600074207374617274757020203A20004E29D0
:100870002050504D206F7574707574206C696D69CF
:1008800074656420202020203A20004449534142CE
:100890004C4544004D292050504D2052535349207F
:1008A000746F206368616E6E656C202020203A2092
:1008B000004C292050504D206D696E696D756D207A
:1008C00073796E63202875732920203A20004449EB
:1008D0005341424C4544004B29204661696C736189
:1008E000666520626561636F6E20696E74762E2086
:1008F00028312D32353573293A20004A29204661A6
:10090000696C7361666520626561636F6E20646502
:100910006C61792028302D323535203D3E20313034
:1009200073202D203135306D696E293A2000492918
:10093000204661696C7361666520626561636F6EF4
:10094000206672712E203A200048292050574D20F1
:1009500073746F702064656C6179202020202020E2
:10096000203A200047292050504D2073746F70208A
:1009700064656C6179202020202020203A200046E8
:1009800029204661696C736166652064656C6179D4
:10099000202020202020203A200050574D2063683E
:1009A000616E6E656C200066756E6374696F6E3A79
:1009B00020002920706F727420004454462055484E
:1009C000462033322D6269742031306368004F70E5
:1009D000656E4C52536E675258206D696E692034B3
:1009E0002F36636800466C7974726F6E2F4F726198
:1009F0006E67655258205548462038636800525843
:100A000020747970653A200044697361626C656492
:100A100000487A00203D3D200043616C63756C61A5
:100A2000746564207061636B657420696E746572AF
:100A300076616C3A20004229204D6963726F20284C
:100A400068616C66292050504D202020203A0041DA
:100A50002920496E7665727465642050504D206976
:100A60006E20202020203A003029204D757465200A
:100A700062757A7A657220286D6F73746C79293A81
:100A80000039292053657269616C20626175647256
:100A90006174653A00736D617274506F72740046D0
:100AA00072536B79005472616E73706172656E740B
:100AB0000044697361626C65640038292054656C78
:100AC000656D657472793A2020202020202000373F
:100AD00029204368616E6E656C20636F6E6669677E
:100AE0003A202000362920446174617261746520C7
:100AF00028302D32293A20202000352920486F70D7
:100B0000206368616E6E656C733A2020202020009F
:100B10003429204368616E6E656C2073706163696F
:100B20006E673A202000332920524620706F776587
:100B3000722028302D37293A2020200032292052D7
:100B400046206D616769633A202020202020202004
:100B500020003129204261736520667265717565D8
:100B60006E63793A20202000000000002400270056
:100B70002A0000000000250028002B0000000000D3
:100B800023002600290004040404040404040202CF
:100B900002020202030303030303010204081020FC
:100BA0004080010204081020010204081020000007
:100BB000000700020100000304060000000000001E
:100BC0000000AF0CE32E11241FBECFEFD8E0DEBF34
:100BD000CDBF13E0A0E0B1E0EAE2F0E602C005908C
:100BE0000D92AE3FB107D9F716E0AEEFB3E001C00A
:100BF0001D92A33BB107E1F71BE0C6ECDBE004C0AC
:100C00002297FE010E94CD2FC23CD107C9F70E9456
:100C1000392F0C9413300C940000A0E0B0E0E3E115
:100C2000F6E00C94E42FEC01A880B980CA80DB8048
:100C3000A114B104C104D10441F484E2A82E89EDC9
:100C4000B82E8BE5C82E87E0D82EC601B5012DE160
:100C500033EF41E050E00E949C2F27EA31E440E06E
:100C600050E00E94482F7B018C01C601B5012DE1A7
:100C700033EF41E050E00E949C2FCA01B9012CEEF5
:100C800034EF4FEF5FEF0E94482F6E0D7F1D801FE6
:100C9000911F97FF04C06150704080409048688366
:100CA00079838A839B839B01AC015F77B901CA0179
:100CB000CDB7DEB7EAE00C9400300E940D0608952F
:100CC00088E193E00E940D060895609318037093E5
:100CD000190380931A0390931B030895A0E0B0E0DA
:100CE000E4E7F6E00C94DD2FEC012B016A016115BD
:100CF000710519F0FB0191838083C114D10449F07F
:100D0000C6010297839728F020E030E040E050E0F1
:100D1000DCC0A9908A2D90E00E94D12F892BC9F7C1
:100D2000FDE2AF1621F4A9903324339405C08BE281
:100D3000A81609F4A9903324C114D10421F0E0E1EC
:100D4000CE16D10411F5F0E3AF1669F48881883727
:100D500011F0883541F4A980229682E0382A20E1FA
:100D6000C22ED12C12C0C114D10479F4E0E3AE1626
:100D700059F199E9E92E99E9F92E99E9092F99E1B3
:100D8000192F8AE0C82ED12C3AC0FAE0CF16D10430
:100D900091F080E1C816D10429F0E8E0CE16D10424
:100DA000F9F415C0BFEFEB2EBFEFFB2EBFEF0B2FFB
:100DB000BFE01B2F24C0A9E9EA2EA9E9FA2EA9E970
:100DC0000A2FA9E11A2F1BC0F8E0CF2ED12CEFEF8C
:100DD000EE2EEFEFFE2EEFEF0E2FEFE11E2F0FC0E6
:100DE0009601442737FD4095542F6FEF7FEF8FEF2B
:100DF0009FEF0E947A2FC901DA017C018D0120E06A
:100E000030E040E050E060E03601882477FC8094D8
:100E1000982C70EDB72EBA0CF9E0FB1570F48A2D02
:100E200081548A3118F499ECB92E06C08A2D815666
:100E30008A3148F589EAB82EBA0C8B2D90E08C15D2
:100E40009D050CF56F3FE9F0E216F3060407150760
:100E5000B8F0CA01B901A40193010E94482F9B0177
:100E6000AC018B2D90E0A0E0B0E0280F391F4A1FA5
:100E70005B1F281739074A075B0710F061E001C0C4
:100E80006FEFA990C6CF4114510451F0662311F0C1
:100E9000219703C031FE04C02297F201D183C083A1
:100EA00030FE07C050954095309521953F4F4F4FEC
:100EB0005F4F67FF0AC082E290E09093B206809392
:100EC000B1062FEF3FEF4FEF5FEFB901CA01CDB78A
:100ED000DEB7E1E10C94F92FFC0188279927E8940B
:100EE00021912032E9F3293010F02E30C8F32B3253
:100EF00041F02D3239F4689404C00E94C107820F7A
:100F0000911D219120532A30C0F31EF490958195B4
:100F10009F4F08954EEF53E00E948F07089500976A
:100F200031F4DA018D919C91009709F40EC0DC0137
:100F3000FB013D912191222319F03217C9F3FACF19
:100F4000332331F4DA011D921C92882799270895E2
:100F50001197AF93BF93FB013D912191321771F42B
:100F6000332321F488279927119702C01E921196E6
:100F7000FA01A193B0839F918F910895222369F77D
:100F8000EACF7AE0979F902D879F802D910D1124B5
:100F9000089580910004813019F482E08093000468
:100FA00080910004833019F484E080930004089554
:100FB000009721F19C0140E050E068E478EE81E088
:100FC00090E00E949C2FC901DA018F3F9105A10595
:100FD000B10531F028F08FEF90E0A0E0B0E008C05C
:100FE0000097A105B10521F481E090E0A0E0B0E018
:100FF0008093B3008091B000806103C08091B00005
:101000008F7E8093B000089580912A04E82FF0E04D
:101010003496DF0126E0AA0FBB1F2A95E1F720E0F6
:1010200030E040E050E060E070E0F999FECFCB01A5
:101030008A0F9B1F92BD81BDF89A80B5542F432F14
:10104000322F2227280F311D411D511D6F5F7F4F09
:101050006430710551F72E513E4B414C5E4D19F0F5
:1010600020E030E01FC09F0186E0220F331F8A95E9
:10107000E1F72C5F3F4FE1E0F4E0F999FECF32BD9C
:1010800021BDF89A80B581932F5F3F4F84E0EA320B
:10109000F80799F720E030E080910104893011F4DD
:1010A00021E030E0C901089589E08093010480E0E7
:1010B00092ECA1E0B0E08093020490930304A0932B
:1010C0000404B093050487E080930E0480EC92E959
:1010D000ADEEB9E18093060490930704A093080451
:1010E000B093090485E080930F048DEE9EEFADEA86
:1010F000BEED80930A0490930B04A0930C04B0936C
:101100000D04A0E1B4E080E090E0863010F0E0E073
:1011100004C0FC01E951FC4FE081ED930196883158
:10112000910599F782E0809328048AE0809329044E
:101130000895682F70E0CB018C599F4F8E3B91052D
:1011400048F4665F7F4F80E090E02AE030E040E0C6
:1011500050E014C0823D910548F46055704080E035
:1011600090E024E630E040E050E008C0695670406E
:1011700080E090E028E532E040E050E00E94482F17
:1011800024E630E040E050E00E94482F08958F921E
:101190009F92AF92BF92CF92DF92EF92FF920F9306
:1011A0001F93FC0100A510E087A190E023E130E04F
:1011B000829FF001839FF00D929FF00D1124E45E59
:1011C000FC4F80809180A280B380F801E770F070BE
:1011D000E152FC4F608170E0615F7F4F882777FDAF
:1011E0008095982F20E43FE14DE750E00E94482F82
:1011F000A50194010E947A2F69017A0180ED97E0A0
:10120000A0E0B0E0C80ED91EEA1EFB1E08711070E7
:10121000012B81F060E07EEE8AEB9BE0A50194015A
:101220000E947A2F28513C4F4F4F5F4FC20ED31E62
:10123000E41EF51E87EE93E0A0E0B0E0C80ED91ED4
:10124000EA1EFB1EC701B60128EE33E040E050E085
:101250000E947A2FCA01B90128EE33E040E050E045
:101260000E94482F1F910F91FF90EF90DF90CF9039
:10127000BF90AF909F908F900895FF920F931F9310
:10128000082FFB01DA01F82EF69410E0808191819D
:101290008C938281938111968C931197848195818F
:1012A00012968C9312978681978113968C9313973D
:1012B000208131814281538164817581868197814A
:1012C0009295990F990F907C832F8370982B852F7F
:1012D0008370880F880F982B872F83708295807F6B
:1012E000982B14969C931497159638961F5FF116B9
:1012F00068F600FF5CC0808191818F3F910509F005
:1013000010F440E00CC022E08030920710F441E07D
:1013100006C08050934010F043E001C042E082815B
:1013200093818F3F910509F010F450E00CC022E04A
:101330008030920710F451E006C08050934010F0C6
:1013400053E001C052E0848195818F3F910509F0FF
:1013500010F480E00CC022E08030920710F481E0AD
:1013600006C08050934010F083E001C082E02681E7
:1013700037812F3F310509F010F490E00CC092E066
:101380002030390710F491E006C02050334010F0AF
:1013900093E001C092E05295507F4295440F440F74
:1013A000407C452B880F880F842B892B8C931F91B1
:1013B0000F91FF90089523E08032920718F420E007
:1013C00030E026C023E0883E920748F49C012F516C
:1013D0003340E4E036952795EA95E1F719C027E018
:1013E000803D920720F49C012C5D334011C028E021
:1013F0008839920718F02FEF33E00AC09C01285C6F
:10140000374074E0369527957A95E1F72D503C4F9B
:10141000C9010895882339F02D9800002B9A000007
:101420002D9A000008952D9800002B9800002D9A09
:10143000000008950F931F93082F5C9A2D985C98D5
:1014400010E0802F80780E940A0A000F1F5F18307A
:10145000C1F72D981F910F9108958F770E941A0A56
:1014600008950F931F93082F10E0802F80780E941B
:101470000A0A000F1F5F1830C1F72D981F910F91B6
:1014800008952D9820E030E0220F2D9A000083B1BE
:101490002D98000090E074E0969587957A95E1F795
:1014A0008170280F3F5F383079F7822F08950E94AE
:1014B0002D0A0E94410A5C9A08951F93162F806896
:1014C0000E941A0A812F0E94310A5C9A1F91089586
:1014D0001F9310910A041827E1E0F4E0E80FF11DD2
:1014E00089E767850E945D0A8DE3612F0E945D0A8E
:1014F00082E4612F0E945D0A1F91089586E20E9496
:10150000570A08950F931F938C018CE1F8016481B1
:101510000E945D0A8DE1F80165810E945D0A8EE1FD
:10152000F80166810E945D0A80E2F80167810E94ED
:101530005D0A81E2F80160850E945D0A82E2F8019D
:1015400061850E945D0A83E2F80162850E945D0A5E
:1015500084E2F80163850E945D0A85E2F8016485F2
:101560000E945D0A8AE2F80165850E945D0A8EE6A6
:10157000F80166850E945D0A8FE6F80167850E9482
:101580005D0A80E7F80160890E945D0A81E7F80141
:1015900061890E945D0A82E7F80162890E945D0A02
:1015A0001F910F910895EF92FF920F931F93CF9386
:1015B000DF937B018C01603028E372072CE98207FE
:1015C0002CE1920728F520E836E948E950E00E942E
:1015D0007A2FE9016897B90180E090E020E839E6C8
:1015E00047E65FEF0E94482F6E0D7F1D801F911F01
:1015F000B2E0660F771F881F991FBA95D1F721E7D0
:1016000032E040E050E00E947A2F890180E421C05E
:1016100020E03DE241E351E00E947A2FE901689722
:10162000B90180E090E020E033ED4EEC5EEF0E94E7
:10163000482F6E0D7F1D801F911F660F771F881F1B
:10164000991F21E732E040E050E00E947A2F8901A3
:1016500080E69E012F71622F680F85E70E945D0A68
:1016600086E7612F0E945D0A87E7602F0E945D0A6E
:10167000DF91CF911F910F91FF90EF9008959F926E
:10168000AF92BF92CF92DF920F93DF93CF9300D0B0
:1016900000D0CDB7DEB7982E83E00E94570A809322
:1016A000460484E00E94570A8093470486E060E085
:1016B0000E945D0A87E061E00E945D0A89E06FE7B1
:1016C0000E945D0A8AE065E00E945D0A8BE065E1A8
:1016D0000E945D0A8CE062E10E945D0A8DE06DEF80
:1016E0000E945D0A8EE060E00E945D0A992019F078
:1016F0008BE793E008C08091280423E1829FC0011A
:101700001124845E9C4F0E94820A80E36CE80E9450
:101710005D0A82E36FE00E945D0A83E362E40E9457
:101720005D0A84E36AE00E945D0A85E36AE20E9442
:101730005D0A86E36DE20E945D0A87E364ED0E9424
:101740005D0A88E360E00E945D0A89E360E00E9430
:101750005D0A992049F02EE1A22E2EEBB22E21EC4B
:10176000C22E2EEDD22E08C0A0900A04B0900B0419
:10177000C0900C04D0900D040AE38D2D9927AA2760
:10178000BB2789839A83AB83BC83802F69810E94A6
:101790005D0A802F8B5F69810E945D0ADC2CCB2C57
:1017A000BA2CAA240F5F0E3341F783E46FEF0E9437
:1017B0005D0A84E46FEF0E945D0A85E46FEF0E948A
:1017C0005D0A86E46FEF0E945D0A992019F08DE6AC
:1017D00066E003C08DE660910E040E945D0A89E711
:1017E00060E00E945D0A8AE760910F040E945D0A32
:1017F00083E760E00E945D0A84E760E00E945D0A82
:10180000992029F060EC72E98DEE99E108C06091B1
:1018100006047091070480910804909109040E94C5
:10182000D30A0F900F900F900F90CF91DF910F91EF
:10183000DF90CF90BF90AF909F90089587E061E0D8
:101840000E945D0A8EE764E20E945D0A88E063E020
:101850000E945D0A88E060E00E945D0A87E065E022
:101860000E945D0A85E062E00E945D0A83E00E94BA
:10187000570A8093460484E00E94570A80934704E5
:1018800008951F920F920FB60F921124EF92FF92BC
:101890001F932F933F934F935F936F937F938F93F8
:1018A0009F93AF93BF93CF93DF93EF93FF93C09139
:1018B0008600D09187002091790530917A0580913A
:1018C0007805882371F5CE01821B930B9C018091D2
:1018D000290487FD02C03695279599E0253C3907F4
:1018E00028F01092AE03109277051BC0E2E02D3B6A
:1018F0003E0788F18091AE03803168F51091AE0308
:10190000E12EFF24C9010E94DB09EE0CFF1C2EE82A
:1019100033E0E20EF31EF701918380831F5F109383
:10192000AE03D0937A05C0937905FF91EF91DF91D3
:10193000CF91BF91AF919F918F917F916F915F9167
:101940004F913F912F911F91FF90EF900F900FBEFD
:101950000F901F90189580E18093AE03E2CF109214
:101960004E04109253041092520410925504109297
:1019700054040895CF92DF92EF92FF921F93182F95
:101980000E945E299B01AC018091F6059091F705BC
:10199000A091F805B091F90569017A01C81AD90A30
:1019A000EA0AFB0AD701C60189589341A040B0401A
:1019B00010F01092F5052093F6053093F70540934B
:1019C000F8055093F9058091F505882329F41F3017
:1019D00009F069C181E008C0883148F4E82FF0E0DF
:1019E000EC53FA4F10838F5F8093F5055CC188310B
:1019F00009F057C1112309F054C18091C5054091E8
:101A0000C605942F97709595879590938F03809333
:101A10008E034695469546952091C705322F3295FF
:101A2000330F307E832F842B269526952695922F73
:101A30009770959587959093910380939003269541
:101A4000269526954091C805342F330F330F832FE9
:101A5000822B42954695469543705091C905252F96
:101A60002170220F220F922F942B9595879590939A
:101A700093038093920356952091CA05322F379590
:101A800033273795832F852B2695922F9770959521
:101A90008795909395038093940326952695269594
:101AA0003091CB05432F4295407F842F822B329576
:101AB0003F70932F97709595879590939703809398
:101AC00096033695369536954091CC05242F220FF6
:101AD000822F832B441F4427441F5091CD05252F6F
:101AE0002370220F922F942B9595879590939903AD
:101AF00080939803569556952091CE05322F3295B6
:101B0000330F330F307C832F852B26952695922F0C
:101B100097709595879590939B0380939A0326954C
:101B2000269526954091CF05342F330F330F330F71
:101B3000832F822B942F92959695977095958795E4
:101B400090939D0380939C038091D0054091D10593
:101B5000942F97709595879590939F0380939E03FC
:101B60004695469546952091D205322F3295330FF2
:101B7000307E832F842B269526952695922F97705D
:101B8000959587959093A1038093A003269526951C
:101B900026954091D305342F330F330F832F822B9B
:101BA00042954695469543705091D405252F217056
:101BB000220F220F922F942B959587959093A30334
:101BC0008093A20356952091D505322F3795332760
:101BD0003795832F852B2695922F9770959587950E
:101BE0009093A5038093A40326952695269530917E
:101BF000D605432F4295407F842F822B32953F702C
:101C0000932F9770959587959093A7038093A6033C
:101C10003695369536954091D705242F220F822F81
:101C2000832B441F4427441F5091D805252F237030
:101C3000220F922F942B959587959093A9038093CB
:101C4000A803569556952091D905322F3295330F1A
:101C5000330F307C832F852B26952695922F9770F6
:101C6000959587959093AB038093AA032695269527
:101C700026954091DA05342F330F330F330F832F1E
:101C8000822B942F92959695977095958795909322
:101C9000AD038093AC038091DB0583FD02C01092FD
:101CA00077051092F5051F91FF90EF90DF90CF9090
:101CB0000895CF92DF92EF92FF921F93182F0E9408
:101CC0005E299B01AC018091F6059091F705A091EA
:101CD000F805B091F90569017A01C81AD90AEA0A2A
:101CE000FB0AD701C60189589341A040B04010F0CB
:101CF0001092F5052093F6053093F7054093F8050B
:101D00005093F9058091F505882329F4133009F0E3
:101D100040C081E005C0813031F41130C1F582E06E
:101D20008093F50536C0803190F5E82FF0E0EB5355
:101D3000FA4F10838F5F8093F505803151F5209124
:101D40007805A7ECB5E0213039F41196EC911197A4
:101D5000E695E6958C9109C08D919C911197E92F9C
:101D6000E695E695E69596958795E03140F4F0E0A6
:101D700090E0EE0FFF1FE257FC4F9183808310929B
:101D80007705129685E0A53DB807E9F602C01092E6
:101D9000F5051F91FF90EF90DF90CF900895282FC9
:101DA00090917805892F8150823020F4822F0E94F3
:101DB000590E0895933019F4822F0E94BA0C089599
:101DC000FF920F931F93CF93DF93182F092FF62EB7
:101DD0008EE30E945D0A212F302FC901EC0110E033
:101DE00005C08FE769910E945D0A1F5F1F15C8F348
:101DF00085E064E00E945D0A83E00E94570A8093B8
:101E0000460484E00E94570A809347040E945E299A
:101E1000609348047093490480934A0490934B0460
:101E200087E069E00E945D0A81E080930004DF9111
:101E3000CF911F910F91FF9008950E94E00E809125
:101E400000048130D9F40E945E2920914804309129
:101E5000490440914A0450914B04621B730B840B5C
:101E6000950B605A76488140904040F4E8CF8FE867
:101E700096E060E071E00E94152D089580910004C5
:101E80008130A9F308958FE896E06EE70E94A32EB3
:101E90000895BF92CF92DF92EF92FF920F931F931C
:101EA000CF93DF936C018FE896E06EE70E94A32E3C
:101EB000760100E010E0C0E0D0E0F0E2BF2E0AC002
:101EC0000830110521F49E012095F6012087089421
:101ED000E11CF11CF7016081862F8D57823040F4A0
:101EE0008FE896E06DE70E94A32EF70160816B25D5
:101EF0008FE896E00E94A32E0115110551F0F7011D
:101F000080819E01280F311DC32FDD27C20FD31FF3
:101F1000D0700F5F1F4F0930110591F6DF91CF91FF
:101F20001F910F91FF90EF90DF90CF90BF90089599
:101F3000DF93CF93CDB7DEB729970FB6F894DEBF06
:101F40000FBECDBF382FE62F80915C0590E0019643
:101F500064E270E00E94672F982F80935C0588E907
:101F6000898380E18A83913071F0913028F092303A
:101F700099F09330E1F416C085E08B8381EF8C8378
:101F80002F5F2D8317C09B8381EF8C8384E6489F4E
:101F9000C00111249D830EC084E08B8381EF8C836C
:101FA0003D8308C09B8381EF8C83ED8303C00E9437
:101FB000430F04C0CE0101960E94490F29960FB627
:101FC000F894DEBF0FBECDBFCF91DF9108950F9380
:101FD0001F93CF93DF93182F092F8FE896E06EE7BA
:101FE0000E94A32E212F302FC901EC0110E000E246
:101FF00088818D57823040F48FE896E06DE70E942B
:10200000A32E8881802788838FE896E069910E94BB
:10201000A32E1F5F193061F78FE896E06EE70E94EC
:10202000A32EDF91CF911F910F910895DF93CF934E
:10203000CDB7DEB729970FB6F894DEBF0FBECDBF80
:10204000382F80915C05882379F48EEF89833A8359
:102050006B83842F90E0959587958C832D831986CB
:1020600018861F821E822FC040915705842F90E052
:102070009C012F70307054E0959587955A95E1F743
:102080008217930721F18DEF89831A821B82DE016B
:10209000149620E008C0E95BFA4F80818D93405F81
:1020A0002F5F263069F0842F90E0FC0134E0F59535
:1020B000E7953A95E1F78F709070E817F90759F7AF
:1020C000409357052A83CE0101960E94E70F809125
:1020D0005C0590E0019666E070E00E94672F8093B7
:1020E0005C0529960FB6F894DEBF0FBECDBFCF9129
:1020F000DF9108959F92AF92BF92CF92DF92EF92BD
:10210000FF920F931F93B82EA62ED42EC22E902E80
:102110000E945E297B018C01809146052091580523
:102120003091590540915A0550915B058823B1F0D3
:10213000D801C701821B930BA40BB50B815E9E4295
:10214000A040B04020F12C2DDC1408F42D2D8B2D57
:102150006A2D422F292D0E94980F11C0D801C70166
:10216000821B930BA40BB50B81539547A040B04045
:1021700070F08B2D6A2D4D2D2C2D0E941610E092A3
:102180005805F092590500935A0510935B051F916D
:102190000F91FF90EF90DF90CF90BF90AF909F9006
:1021A0000895FF920F931F938C01F62E8FE896E00F
:1021B0000E94A32EF80184818F2584831F910F91A3
:1021C000FF900895FF920F931F938C01F72E0E94AA
:1021D000D110C8016F2D0E94D1101F910F91FF9057
:1021E0000895BF92CF92DF92EF92FF920F931F93C9
:1021F0007C01B62E6A010FE816E0C80165EB0E946B
:10220000A32EC80162E60E94A32EF7011482C70123
:102210006B2D0E94D110C701B6010E94E2101F91E0
:102220000F91FF90EF90DF90CF90BF9008958CE0DA
:1022300060E00E94182A8BE061E00E94182A8DE07D
:1022400061E00E94182A82E060E00E94182A84E07F
:1022500061E00E94182A089582E08093B00085E032
:102260008093B10083E061E00E94182A83E060E07F
:102270000E94572A08951F93182F0E945E29609389
:1022800058057093590580935A0590935B051093F8
:102290004605112329F440E855E260E070E004C0EF
:1022A00040E051EE60E070E08FE896E00E94B22DD1
:1022B0001F910895AF92BF92CF92DF92EF92FF925B
:1022C0000F931F93DF93CF93CDB7DEB76C970FB605
:1022D000F894DEBF0FBECDBF0E945E297B018C014A
:1022E00081E00E943F0BF4E7AF2E6E010894C11C01
:1022F000D11CE3E0BE2EA982C60161E00E941D0F41
:10230000B09200040E941E0C6AEF70E080E090E042
:102310000E94842980910004833009F08AC08FE8EC
:1023200096E00E94392E892B09F083C00E945E2915
:102330006E197F09800B910B6058734C894C91404A
:1023400008F077C0D8CF8FE70E942D0A0E94410A7B
:10235000843509F05CC089830E94410A182F00E08F
:1023600010934505009344050E94410A080F111D72
:1023700010934505009344050E94410A809343054C
:102380000E94410A80934205813108F040C0FF2439
:1023900007C00E94410A0E5D1A4FF8018083F39432
:1023A0000F2D10E08091420590E0880F991F0817CB
:1023B000190778F380E78983CE01019661E00E94D6
:1023C0001D0F83E0809300040E941E0C62E370E006
:1023D00080E090E00E948429809100048330A9F07D
:1023E0008FE70E942D0A0E94410A803581F489837B
:1023F0000BE214E00E94410AF80181938F01F4E09E
:1024000006341F07B9F781E003C082E001C083E012
:102410006C960FB6F894DEBF0FBECDBFCF91DF91A3
:102420001F910F91FF90EF90DF90CF90BF90AF90F2
:10243000089580910004833009F085CFE6CF83E0D2
:102440000E94570A8093460484E00E94570A8093B2
:10245000470487E061E00E945D0A6AE070E080E086
:1024600090E00E9484290E941E0C000008950F93A2
:102470001F93082F17C05E9A64E670E080E090E03A
:102480000E9484295E9864E670E080E090E00E94FB
:1024900084291F5F101778F36CE271E080E090E010
:1024A0000E94842910E0F6CF482F392F25E00DC077
:1024B000F999FECF1FBA842F932F92BD81BD60BDC5
:1024C0000FB6F894FA9AF99A0FBE215059F0F9997B
:1024D000FECF842F932F92BD81BDF89A80B56817E7
:1024E00039F7089582E00E9437120895CF92DF9263
:1024F000EF92FF920F931F93CF93DF93C0E0D0E052
:1025000008E110E08EE1C82E8EEBD82E81ECE82E8B
:102510008EEDF82E80912A0490E00496B6E0880FA4
:10252000991FBA95E1F7A7019601002E04C05695B0
:102530004795379527950A94D2F78C0F9D1F622FE8
:102540000E945412219608501040C430D10511F752
:10255000C0E0D0E080912A0490E0A6E0880F991FA7
:10256000AA95E1F78C5F9E4FFE01EF5FFB4F8C0F4A
:102570009D1F60810E9454122196C932D10551F7E6
:10258000DF91CF911F910F91FF90EF90DF90CF904F
:10259000089580E490E060912A040E945412089506
:1025A000F999FECF80E490E092BD81BDF89A80B5A4
:1025B00080932A04843020F010922A040E94C912C9
:1025C00008951F93182F0E94D01280912A0481171A
:1025D00031F0143020F410932A040E94C9121F9184
:1025E000089580915E058130D1F0813020F08230F5
:1025F00009F043C037C08EE00E94AB2A892B09F056
:102600003CC081E080935E050E94502960935F0585
:1026100070936005809361059093620508958EE044
:102620000E94AB2A892BD9F40E94502920915F0582
:10263000309160054091610550916205621B730BFA
:10264000840B950B695E734080409040B0F082E04F
:1026500080935E0580ED97E00E94D8070895109260
:102660005E0508958EE00E94AB2A892B31F080E050
:1026700090E00E94D80710925E050895AF92BF9235
:10268000CF92DF92EF92FF920F931F93CF93DF933E
:102690008CE00E94570A8823B9F58FE896E06CE039
:1026A00071E00E94152D5E9A80E00E943F0B0E940F
:1026B0001E0C5E9829C080917805882339F08FE838
:1026C00096E00E946A2E0E94CF0E1EC08091C30524
:1026D000C82FD0E09E012F5F3F4F2F713070809147
:1026E000C20590E02817390779F08FE896E00E943C
:1026F0006A2EC756DA4F88838091C30590E0019611
:102700008F7190708093C3058FE896E00E94392EF8
:10271000892B89F680910004843009F0A6C00E94BC
:102720005E296093670570936805809369059093AF
:102730006A05611571058105910561F481E090E0FC
:10274000A0E0B0E08093670590936805A0936905C9
:10275000B0936A05809173059091740581609093A0
:1027600074058093730583E0809300048FE70E94D3
:102770002D0AC0E9D5E00E94410A899305E0C939D4
:10278000D007C9F740917B0580919005282F30E054
:10279000842F90E08227932786FF5AC080E4482741
:1027A00040937B05C90188739070C897D9F510E0F4
:1027B0002EC01F5F80912904E12FF0E084FF20C02C
:1027C000E057FA4F608140915705842F90E0FC015B
:1027D000EF70F0709F012F5F3F4FA4E095958795B4
:1027E000AA95E1F72817390791F0E95BFA4F608362
:1027F000842F8F5F8F70407F842B8093570507C095
:10280000E057FA4F8FE896E060810E94A32E212FB7
:1028100030E08091900590E0877090708217930768
:1028200044F616C02F733070232B91F480919105DC
:1028300080936B058091920580936D05809193053F
:1028400080936E05809196058093750510927605AC
:102850008091C405813019F482E08093C405809191
:10286000C405833011F41092C4050E945E295B01F7
:102870006C0180916F0590917005A0917105B091E8
:1028800072050097A105B105C9F0A6019501281BA5
:10289000390B4A0B5B0BDA01C901885B9B40A040F6
:1028A000B04060F00E947E0A80936C0510926F0524
:1028B00010927005109271051092720581E094E0FB
:1028C0000E94C70820916305309164054091650519
:1028D0005091660586017501E21AF30A040B150B87
:1028E000E616F7060807190708F4F0C0A09263057A
:1028F000B0926405C0926505D09266058091770517
:10290000883008F0DBC0809177058F5F8093770572
:10291000E0906705F09068050091690510916A05DF
:10292000E114F1040105110511F181E094E00E9428
:10293000C708AE18BF08C00AD10A6A157B058C0506
:102940009D0588F48091290485FD04C080ED97E001
:102950000E94D807109267051092680510926905C9
:1029600010926A0504C080E090E00E94D807209190
:102970007B05207C20937B055091C3059091C20577
:102980005917D1F18091C4058230B1F520582093B8
:102990007B05E0912904F0E0E770F070E152FC4F14
:1029A000E081E93010F048E002C04E2F415030E0A5
:1029B00013C03F5FA32FB0E0892F90E0FC01E756E2
:1029C000FA4F2081FD01E558FA4F2083A754BA4FF2
:1029D0002C930196982F9F71341710F4951749F78F
:1029E0009093C205832F895C90917B05892B8093FE
:1029F0007B053093B9051AC09091C4059430D1F489
:102A00009091B905EAEBF5E0ACE7B5E0292F30E0AD
:102A10002E0F3F1F02C081918D93E217F307D9F764
:102A2000995C80917B05982B90937B0583E0809344
:102A3000C40523C080915E05823029F42160209373
:102A40007B055E9A0FC020937B055E98992319F44D
:102A500081E08093C4058091C405833019F484E03B
:102A60008093C405F8948091290487706EE873E020
:102A70004CE755E00E943D0978945D9A80915D0590
:102A80000E94680AE0912904F0E0E770F070E152DA
:102A9000FC4F8BE795E060810E94E00EE0915D05C0
:102AA000EF5FE0935D05E83131F0F0E0EF5FFB4F61
:102AB0008785882359F410925D0508C080917705B9
:102AC000883009F45E9A89E0809377058091290423
:102AD000887171F180910004823051F58091730505
:102AE00090917405880F991F9093740580937305D6
:102AF00083E0809300040E941E0C0E945E29609374
:102B00006F05709370058093710590937205611540
:102B100071058105910561F481E090E0A0E0B0E0ED
:102B200080936F0590937005A0937105B093720523
:102B30008091290484FF4EC0209173053091740563
:102B40002E7FC9019695879585759575281B390B3C
:102B5000A90156954795569547954373537323732B
:102B60003373420F531FCA0124E0969587952A9527
:102B7000E1F7840F951F8F709F7021E031E08C0189
:102B8000029FC001039F900D129F900D1124809110
:102B90006B05409175054F3028F0482F46954695B6
:102BA000405404C08DE0489F402D112420916C05B5
:102BB0009F3020F026952695205404C08DE0989FE4
:102BC000202D112480916D0560916E0500912A04DD
:102BD0000E947A105D980E94F112DF91CF911F91AF
:102BE0000F91FF90EF90DF90CF90BF90AF9008953E
:102BF0001092200585E6EBEBF4E0DF011D928A954B
:102C0000E9F708951F93182F8F3719F0883009F0CE
:102C100042C0E0912005EE2309F45EC0E150E0934C
:102C20002005F0E0E554FB4F10828FE896E06DE060
:102C30000E94A32E10E00DC0E12FF0E0E554FB4F01
:102C40006081772767FD70958FE896E00E94A32E3C
:102C50001F5F80912005181778F38FE896E060E2F7
:102C60000E94A32E8FE896E06DE00E94A32E10E054
:102C70000DC0E12FF0E0E554FB4F6081772767FD41
:102C800070958FE896E00E94A32E1F5F809120052B
:102C9000181778F31FC08B3119F40E94F81522C061
:102CA0008D3001F18A30F1F0809120058436A0F456
:102CB000612F772767FD70958FE896E00E94A32E1D
:102CC00080912005E82FF0E0E554FB4F10838F5FE3
:102CD0008093200580E007C08FE896E067E00E94BF
:102CE0004B2BF8CF81E01F9108951F93CF93DF9373
:102CF000C0E1D4E010E03BC08FE896E06BE171E00A
:102D00000E94122D8FE896E0612F4AE050E00E9469
:102D1000702C8FE896E068E271E00E94122D6991B4
:102D200070E080E090E020910F0430E040E050E05F
:102D30000E94482F20E137E240E050E00E94482FF7
:102D4000DC01CB0140910604509107046091080416
:102D500070910904480F591F6A1F7B1F8FE896E086
:102D60002AE030E00E942E2C1F5F183119F0888174
:102D7000882311F6DF91CF911F910895EF92FF9272
:102D80000F931F93882339F48FE896E068E07AE088
:102D90000E94732B64C0682F70E06436710518F4CC
:102DA00080E090E022C06E3B710548F46A557040A7
:102DB00080E090E02AE030E040E050E014C0623D66
:102DC000710548F4645B704080E090E024E630E0F8
:102DD00040E050E008C06D5C704080E090E028E585
:102DE00032E040E050E00E94482F24E630E040E02E
:102DF00050E00E94482F0E947A2F122F032FF42EAA
:102E0000E52E622F732F842F952F2AE030E040E0CB
:102E100050E00E947A2F8FE896E0BA01A9012AE0DB
:102E200030E00E941F2C8FE896E06EE20E944B2B50
:102E3000612F702F8F2D9E2D2AE030E040E050E072
:102E40000E947A2FAB01BC018FE896E02AE030E0C7
:102E50000E941F2C8FE896E063E70E94872B1F914A
:102E60000F91FF90EF9008951F93CF93DF938FE81A
:102E700096E06EEF79E00E94282B80912B04813040
:102E800041F48FE896E065EE79E00E94732B10E044
:102E900055C0823029F48FE896E06EEC79E0F5CFEA
:102EA0008430A9F78FE896E06AEB79E0EECFC12F86
:102EB000D0E0C930D1051CF0612F685C02C0612FE1
:102EC0006F5C8FE896E00E944B2B8FE896E062EBF8
:102ED00079E00E94282BBE016F5F7F4F8FE896E05C
:102EE0004AE050E00E94E02C8FE896E067EA79E043
:102EF0000E94282BC55DDB4FE981E03188F48FE823
:102F000096E06AE979E00E94282B698170E06F5FA2
:102F10007F4F8FE896E04AE050E00E94F32C0DC00E
:102F2000F0E0EF70F070EE0FFF1FE155FC4F608195
:102F300071818FE896E00E94152D1F5F80914305F7
:102F4000181708F4B4CF8FE896E06FE779E00E9495
:102F5000282B809143040E94BE168FE896E064E619
:102F600079E00E94282B809144040E94BE168FE8CD
:102F700096E069E479E00E94282B809145040E9444
:102F8000BE168FE896E06EE279E00E94282B409111
:102F90003B0450913C0460913D0470913E04411506
:102FA00051056105710539F18FE896E02AE030E0BE
:102FB0000E942E2C8FE896E06BEF78E00E94282B81
:102FC00080913F040E949908AB01BC018FE896E014
:102FD0002AE030E00E942E2C8FE896E067ED78E042
:102FE0000E94282B8FE896E0609140044AE050E070
:102FF0000E94822C06C08FE896E06EEC78E00E947A
:10300000732B8FE896E061EB78E00E94282B6091AB
:103010004104709142048FE896E04AE050E00E943B
:10302000532C8FE896E064E978E00E94282B6091A9
:103030003A04603150F470E06F5F7F4F8FE896E0A4
:103040004AE050E00E94F32C06C08FE896E06BE85F
:1030500078E00E94732B8FE896E06EE678E00E949D
:10306000282B8091390480FD03C06CE271E002C01E
:1030700060E371E08FE896E00E94152D8FE896E0FE
:1030800061E578E00E94282B8091390481FD03C01E
:1030900064E371E002C06DE371E08FE896E00E94A6
:1030A000152D8FE896E062E378E00E94282B80914E
:1030B000390482FD03C064E371E002C06DE371E096
:1030C0008FE896E00E94152D8FE896E063E178E0A6
:1030D0000E94282B8091390483FD03C064E371E0D2
:1030E00002C06DE371E08FE896E00E94152DDF913C
:1030F000CF911F9108951F93CF93DF938FE896E0B0
:1031000062E57BE00E94282B409106045091070461
:1031100060910804709109048FE896E02AE030E09D
:103120000E942E2C8FE896E06CE37BE00E94282B17
:1031300040910A0450910B0460910C0470910D04AD
:103140008FE896E020E130E00E942E2C8FE896E098
:1031500066E27BE00E94282B8FE896E060910E04E7
:103160004AE050E00E94822C8FE896E060E17BE02C
:103170000E94282B8FE896E060910F044AE050E00F
:103180000E94822C8FE896E06AEF7AE00E94282B5A
:10319000C0E1D4E010E012C0112331F08FE896E0D6
:1031A00065E471E00E94122D8FE896E069914AE093
:1031B00050E00E94702C1F5F183119F0888188231D
:1031C00059F78FE896E00E94532B8FE896E064EE63
:1031D0007AE00E94282B8FE896E0609128044AE06C
:1031E00050E00E94822C8FE896E06FEC7AE00E941B
:1031F000282BE0912904F0E0E770F070EE0FFF1F3C
:10320000E153FC4F608171818FE896E00E94152D9B
:103210008FE896E06AEB7AE00E94282B80912904DF
:1032200090E0887190708830910589F0893091051F
:103230001CF4892B39F01BC08031910569F0489747
:10324000B1F40FC08FE896E061EB7AE00EC08FE832
:1032500096E065EA7AE009C08FE896E06FE97AE0E7
:1032600004C08FE896E065E97AE00E94732B8FE84E
:1032700096E061E87AE00E94282B40910204509188
:10328000030460910404709105048FE896E02AE03D
:1032900030E00E942E2C8FE896E068E67AE00E94EB
:1032A000282B8091290485FD03C067E471E002C0EA
:1032B0006AE471E08FE896E00E94152D8FE896E0B1
:1032C0006FE47AE00E94282B8091290486FD03C0D8
:1032D00067E471E002C06AE471E08FE896E00E9462
:1032E000152D8FE896E066E37AE00E94282B809106
:1032F000290487FD03C067E471E002C06AE471E05D
:103300008FE896E00E94152D8FE896E069E17AE05B
:103310000E94282B81E094E00E94C708AB01BC0109
:103320008FE896E02AE030E00E941F2C8FE896E0BC
:1033300064E17AE00E94282B81E094E00E94C708B3
:103340009B01AC0160E472E48FE090E00E947A2F70
:103350008FE896E0BA01A9012AE030E00E941F2C14
:103360008FE896E061E17AE00E94732BDF91CF91C4
:103370001F910895EF92FF920F931F937C010FE826
:1033800016E0C8016F2D70E04AE050E00E94422C28
:10339000C8016EE20E944B2BB70184E076956795D9
:1033A0008A95E1F76F707070C8014AE050E00E94A2
:1033B000422CC8016EE20E944B2B8FE0E822FF24D2
:1033C000C801B7014AE050E00E94422C1F910F91C2
:1033D000FF90EF9008950F931F93CF93DF93209169
:1033E000BA042F3FA9F58FE896E063E975E00E94E3
:1033F000282B84E593E00E94BA198FE896E062E7F3
:1034000075E00E94282B80914405909145050E940B
:10341000BA198FE896E06FE375E00E94732B8FE88E
:1034200096E06CE175E00E94732B8FE896E064E013
:1034300075E00E94732B8FE896E06FED74E00E94B8
:10344000732B8FE896E00E94532B0E94341769C0BB
:1034500012160CF066C0332727FD30958091430586
:1034600090E0821793070CF45CC08FE896E06AEC5A
:1034700074E00E94282B6091BA04772767FD70954D
:103480008FE896E04AE050E00E94F32C8FE896E047
:103490006FE974E00E94282B04E110E03AC0C12FCC
:1034A000D0E0CC0FDD1FCE5DDA4F288130E0809177
:1034B000BA04992787FD909501972817390741F598
:1034C0008FE896E06EE471E00E94122D8FE896E09E
:1034D000602F4AE050E00E94702C8FE896E062E591
:1034E00071E00E94122DE981F0E0EF70F070EE0FB4
:1034F000FF1FE155FC4F608171818FE896E00E94CB
:10350000122D8FE896E066E571E00E94122D0F5FA4
:103510001F5F80914205181710F28FE896E00E9415
:10352000532BDF91CF911F910F910895CF92DF928E
:10353000EF92FF920F931F93DF93CF93CDB7DEB738
:103540006C970FB6F894DEBF0FBECDBF282F8091C9
:10355000BA048F3F09F050C1822F992787FD9095BB
:10356000A92FB92FFC013A97EF36F10508F03DC1BC
:10357000EC5CFF4FEE0FFF1F0590F491E02D0994D6
:103580008FE896E068E571E0B4C08FE896E068E502
:1035900071E00E94152D22C18FE896E064E671E08B
:1035A0000E94152D85E78983DE011296EBE2F4E097
:1035B0008BE101900D928150E1F7CE0101966CE113
:1035C0000E941D0F0E941E0C83E08093000468EC93
:1035D00070E080E090E00E948429809100048430B3
:1035E00009F003C18FE70E942D0A0E94410A8983D6
:1035F000853509F0FAC08FE896E061E874E00E9432
:10360000732B8FE896E063E674E00E94732B8FE8DB
:1036100096E065E474E0B2C08FE896E06CE771E094
:103620000E94152D89E68983CE01019661E00E94F2
:103630001D0F0E941E0C83E08093000468EC70E074
:1036400080E090E00E94842980910004843009F099
:10365000CCC08FE70E942D0A0E94410A89838E0107
:103660000E5F1F4FFDE1EF2EF12CEC0EFD1E0E94B0
:10367000410AD8018D938D01AE15BF05C1F7ABE2AC
:10368000B4E0FE0132968BE101900D928150E1F79A
:103690008981893409F0A9C08FE896E067E274E077
:1036A0000E94732B8FE896E069E074E00E94732B10
:1036B0008FE896E06BEE73E061C08FE896E066E914
:1036C00071E00E94152D8EEF8093BA048EC02052B7
:1036D0002750422F4053242F332727FD30958091C8
:1036E000430590E0821793073CF48FE896E065EA83
:1036F00071E00E94152D79C04093BA046FC084E137
:103700008093BA048FE896E064EB73E037C085E1FC
:103710008093BA048FE896E06DE773E02FC086E1EE
:103720008093BA048FE896E066E473E027C087E1EF
:103730008093BA048FE896E06CEF72E01FC088E1D6
:103740008093BA048FE896E06BEE72E017C089E1CF
:103750008093BA048FE896E067ED72E00FC08AE1CB
:103760008093BA048FE896E062EC72E007C08BE1C8
:103770008093BA048FE896E06AE972E00E94732BA6
:1037800034C08FE896E060E872E00E94732B80916D
:10379000390491E01DC08FE896E06AE672E00E946D
:1037A000732B8091390492E013C08FE896E065E5B1
:1037B00072E00E94732B8091390494E009C08FE875
:1037C00096E06AE372E00E94732B8091390498E0DE
:1037D0008927809339048FEF8093BA040E94EB19F4
:1037E00004C08FE896E00E946A2E8FE896E00E945F
:1037F000392E892BB1F777C1822F0E9402168823B8
:1038000009F471C180912005882321F48FEF809302
:10381000BA0461C18BEB94E060E070E040E050E0FE
:103820000E946E069B01AC019091BA04963109F496
:103830007CC0973164F4943109F463C095310CF085
:103840006AC0892F81508D3008F035C113C099317D
:1038500009F4E5C09A313CF4973109F470C098310D
:1038600009F029C1D2C09A3109F4E7C09B3109F0AF
:1038700022C1F5C0E92FFF27E7FDF09580914305B0
:1038800090E08E179F070CF416C1DA01C901019769
:10389000A109B1094097A105B10540F0FF2410E04E
:1038A00004E16F010894C108D10826C0E55DFB4F13
:1038B000822F81508083E7C0612F70E0660F771FF1
:1038C0006E5D7A4FFB01808190E08C159D0599F427
:1038D000802F90E0A0E0B0E082179307A407B5071F
:1038E00049F4F601E55DFB4FDB0111968C91818374
:1038F000FF24F3940F5F1F5F809142051817E0F2D9
:10390000C0C02F3F31054105510511F008F0D3C06B
:1039100020934304B8C02F3F31054105510511F0F4
:1039200008F0C9C020934404AEC02F3F31054105C3
:10393000510511F008F0BFC020934504A4C0809148
:10394000BB048062803719F58CEB94E060E070E096
:1039500040E050E00E946E069B01AC01DC01CB010F
:103960000197A109B1090897A105B10508F0B6C0F2
:10397000CA01B90124ED30E340E050E00E94482F35
:103980009B01AC012A5E3C4A4A46554E24C086360D
:1039900011F58CEB94E060E070E040E050E00E94B4
:1039A0006E069B01AC01DC01CB010197A109B109B5
:1039B0000797A105B10508F091C0CA01B90128EA2D
:1039C00031E640E050E00E94482F9B01AC01245EAC
:1039D0003C434E46544E211531054105510561F0D9
:1039E000DA01C9018054914EAD49B8418158904FD8
:1039F000AA4FB24008F05FC020933B0430933C04D0
:103A000040933D0450933E043EC02F3F3105410595
:103A1000510511F008F04FC020933F0434C0DA0183
:103A2000C9010197A109B1098F3F9105A105B10510
:103A300008F041C02093400426C0DA01C901845C2B
:103A40009940A040B0408D549D41A040B04038F412
:103A50003093420420934104FF24F39401C0FF24D7
:103A6000211531054105510511F48FEF07C02131B2
:103A700031054105510528F4822F815080933A0485
:103A800002C0FF20C1F0809121058823D1F48091EC
:103A90000A0490910B04A0910C04B0910D040196BE
:103AA000A11DB11D80930A0490930B04A0930C04F4
:103AB000B0930D0406C08FE896E067EB71E00E94BA
:103AC000152D0E94F8158FEF8093BA048FE896E0C9
:103AD0006AE00E94872B0E94EB1905C021E030E0CC
:103AE00040E050E07DCF6C960FB6F894DEBF0FBE7D
:103AF000CDBFCF91DF911F910F91FF90EF90DF909D
:103B0000CF9008958FE896E06EEE71E00E94732BDF
:103B10008FE896E066ED71E00E94732B8FE896E0E7
:103B20000E94392E892B31F08FE896E00E946A2E90
:103B30000E94961A0E945A11823019F0833069F45B
:103B400005C08FE896E068EB71E004C08FE896E06E
:103B500061EA71E00E94732B08958FEF8093BA049D
:103B6000109221050E94EB190CC08FE896E00E948C
:103B7000392E892B31F08FE896E00E946A2E0E9440
:103B8000961A8091BA048E3F81F708958091BA0405
:103B9000843009F46FC0853084F4813009F45BC04F
:103BA000823024F48F3F09F085C014C0823009F4BC
:103BB00057C0833009F07EC058C0863009F464C015
:103BC00086300CF45CC0873009F463C0893009F09A
:103BD00071C06AC08FE896E066E078E00E94732BBF
:103BE00084E593E00E94BA198FE896E06EEE77E0E4
:103BF0000E94732B8FE896E069EC77E00E94732BAC
:103C00008FE896E06FE977E00E94732B8FE896E0EB
:103C10006EE777E00E94732B8FE896E061E577E02E
:103C20000E94732B8FE896E06BE277E00E94732B83
:103C30008FE896E067E077E00E94732B8FE896E0CC
:103C400060EE76E00E94732B8FE896E00E94532B83
:103C50000E947B182FC08FE896E063EC76E028C0C6
:103C60008FE896E06EE976E023C08FE896E069E899
:103C700076E01EC08FE896E06AE676E019C08FE82D
:103C800096E066E276E014C08FE896E061E176E0C7
:103C90000FC08FE896E06CEF75E00E94732B8FE801
:103CA00096E066EB75E004C08FE896E060EA75E0A8
:103CB0000E94732B6AE070E080E090E00E9484290B
:103CC00004C08FE896E00E946A2E8FE896E00E947A
:103CD000392E892BB1F708952F923F924F925F9220
:103CE0006F927F928F929F92AF92BF92CF92DF920C
:103CF000EF92FF920F93DF93CF93CDB7DEB7A897E4
:103D00000FB6F894DEBF0FBECDBF7E010894E11C54
:103D1000F11C80E1D7011D928A95E9F75E985D98C4
:103D20008FE896E065ED71E00E94152D0E941F124C
:103D300020E431EE4DE958E129A33AA34BA35CA35B
:103D400080EC91EDA8E9BBE18D8F9E8FAF8FB8A37A
:103D500024EF31E040E050E0298F3A8F4B8F5C8FA9
:103D6000B0E58B2EB3EC9B2EA12CB12C80E491EE10
:103D7000ADE9B8E18D8B9E8BAF8BB88F4424552471
:103D8000320100E022243324198A1A8A1B8A1C8AF1
:103D90000DC18FE896E00E946A2E8434C9F0853404
:103DA00034F48332C9F18C3209F0CEC046C0833579
:103DB00009F0CAC029A13AA14BA15CA1C901DA014D
:103DC0008D8B9E8BAF8BB88F442455243201EEC06F
:103DD0008FE896E064E40E944B2B8FE896E040E485
:103DE00051EE6DE978E12AE030E00E94A02C8FE8E6
:103DF00096E06CE20E944B2B8FE896E040EC51ED90
:103E000068E97BE12AE030E00E94A02C8FE896E090
:103E10006CE20E94872BCAC019821A821B821C8204
:103E20001D821E821F82188619861A861B861C8692
:103E30001D861E861F86188A3CC00F5F043009F05D
:103E4000B5C069817A818B819C8128EE33E040E0A6
:103E500050E00E94482F69A37AA38BA39CA36D8195
:103E60007E818F8198850E94482F6D8F7E8F8F8FE6
:103E700098A329853A854B855C85298F3A8F4B8F8E
:103E80005C8F6D857E858F85988928EE33E040E0D4
:103E900050E00E94482F4B015C0160323EE4730702
:103EA00030E0830730E0930730F48CE162E30E9456
:103EB0005D0A00E07BC0603345E7740740E084079B
:103EC00040E0940718F48CE162E2F1CF60345CE9E1
:103ED000750750E0850750E0950718F48CE166E21D
:103EE000E6CF80E5881683EC980680E0A80680E09F
:103EF000B80618F48CE162E1DACF90E689169AEE02
:103F0000990690E0A90690E0B90618F48CE165E105
:103F1000CECFA0E78A16A1E19A06A1E0AA06A0E00A
:103F2000BA0618F48CE161E0C2CFB0EA8B16B6E8AD
:103F30009B06B1E0AB06B0E0BB0618F48CE163E091
:103F4000B6CF8CE165E0B3CF80538A3078F5C02ED0
:103F5000DD24CC0CDD1CCC0CDD1CE1E0F0E0EC0F32
:103F6000FD1FCE0EDF1E282F332727FD3095432F50
:103F7000532F2DA33EA34FA358A7D6016D917D913A
:103F80008D919C912AE030E040E050E00E94482F63
:103F90002DA13EA14FA158A5260F371F481F591F1D
:103FA000D6012D933D934D935C9313978FE896E044
:103FB0000E94392E892B09F0ECCE41145104610482
:103FC000710499F46D897E898F89988D0E94D30A36
:103FD00061E070E080E090E00E94842922242A942D
:103FE0003324198A1A8A1B8A1C8A298D3A8D4B8D93
:103FF0005C8D4216530664067506D0F40E947E0A54
:1040000029893A894B895C89280F311D411D511D31
:10401000298B3A8B4B8B5C8B381608F4382E821523
:1040200008F4282E0894411C511C611C711C64C0AA
:104030006D897E898F89988D28EE33E040E050E0CD
:104040000E947A2F8FE896E0BA01A9012AE030E0B9
:104050000E941F2C8FE896E06CE20E944B2B8FE8A9
:1040600096E0632D4AE050E00E94702C8FE896E0C5
:104070006CE20E944B2B69897A898B899C89A30108
:1040800092010E947A2F8FE896E0BA01A9012AE0F6
:1040900030E00E941F2C8FE896E06CE20E944B2BD0
:1040A0008FE896E0622D4AE050E00E94702C8FE885
:1040B00096E06CE20E94872B8D899E89AF89B88D2E
:1040C000880D991DAA1DBB1D8D8B9E8BAF8BB88F44
:1040D0002D8D3E8D4F8D58A1281739074A075B0754
:1040E00040F489A19AA1ABA1BCA18D8B9E8BAF8B13
:1040F000B88F44245524320129A13AA14BA15CA1D7
:10410000285E33404040504009F050CFA8960FB68B
:10411000F894DEBF0FBECDBFCF91DF910F91FF901E
:10412000EF90DF90CF90BF90AF909F908F907F9057
:104130006F905F904F903F902F900895CF92DF92B5
:10414000EF92FF920F931F93DF93CF93CDB7DEB71C
:10415000E8970FB6F894DEBF0FBECDBF7C01FC011F
:104160008281883009F4ABC08930A8F4843009F426
:104170005FC0853048F48230E9F1833008F04DC0EB
:10418000813009F080C123C0863009F482C08730B5
:1041900008F08BC060C0883609F4D4C0893650F46A
:1041A000863609F4AFC0873608F0C5C0853609F0F9
:1041B0006AC18FC08A3609F4FEC08A3608F4F2C09C
:1041C0008B3609F438C1873C09F05DC149C1C7018C
:1041D00061E049E250E00E94F11001E014E0C70103
:1041E000F80161918F010E94D110F4E00A321F079B
:1041F000B1F753C1C70162E04BE150E00E94F110FA
:104200000BE214E0C701F80161918F010E94D11007
:10421000F4E006341F07B1F740C1C70163E041E095
:1042200050E00E94F1100E945A11682FC70133C15B
:10423000C70164E041E050E00E94F110C70161E075
:104240000E94D1108FE896E0F70164810E94A32EAE
:104250000E946C1E28C14091420550E0440F551F3A
:10426000C70165E00E94F11000E010E009C0F8010C
:10427000EE5DFA4FC70160810E94D1100F5F1F4FA2
:104280008091420590E0880F991F0817190778F36D
:1042900004C1C70166E042E050E00E94F110C7018E
:1042A00064E573E00E94E210F8C0C70167E041E0F6
:1042B00050E00E94F110C70160914305ECC0C701B6
:1042C00068E041E050E00E94F110C70160912A04CB
:1042D000E2C0C70165E641E050E00E94F110F7013D
:1042E00087819085899709F0D4C0D701E1E0F4E097
:1042F00019968C9119978193119684E0EA32F80708
:10430000B9F7ABC0C70166E641E050E00E94F1108A
:10431000F701878190854B9709F0BBC0D701EBE28D
:10432000F4E019968C9119978193119684E0E63404
:10433000F807B9F792C0C70167E641E050E00E9474
:10434000F11089C0C70168E641E050E00E94F11019
:1043500085E78983DE011296EBE2F4E08BE10190C0
:104360000D928150E1F7CE0101966CE10E941D0F84
:104370000E941E0C83E08093000468EC70E080E0F3
:1043800090E00E94842980910004843009F081C06B
:104390008FE70E942D0A0E94410A8983853509F022
:1043A00078C05BC0C70169E641E050E00E94F110AF
:1043B0000E94540852C0C7016AE641E050E00E94E2
:1043C000F11089E68D8FCE014D9661E00E941D0FA0
:1043D0000E941E0C83E08093000468EC70E080E093
:1043E00090E00E94842980910004843009F051C03B
:1043F0008FE70E942D0A0E94410A8D8F8E01025E76
:104400001F4F89E3C82ED12CCC0EDD1E0E94410A1D
:10441000F80181938F01EC15FD05C1F7ABE2B4E023
:10442000FE017E968BE101900D928150E1F78D8D1A
:10443000893479F512C0C7016BE641E050E00E9473
:10444000F110F70181850E94E1120E940408892B76
:1044500021F40E9454080E947612C70161E01BC03B
:10446000C70167EC41E050E00E94F110C70161E034
:104470000E94D1108FE896E0F70164810E94A32E7C
:1044800010924C0410C0C7016AEC41E050E00E9459
:10449000F110C70160E00E94D1108FE896E0F701AB
:1044A00064810E94A32EE8960FB6F894DEBF0FBE7B
:1044B000CDBFCF91DF911F910F91FF90EF90DF90D3
:1044C000CF9008956F927F928F929F92AF92BF92FA
:1044D000CF92DF92EF92FF920F931F93CF93DF93D0
:1044E00081E080934C04B2E5EB2EB4E0FB2EA4E017
:1044F000CA2ED12CCE0CDF1CF4E66F2EE4E07E2E0B
:1045000076E0972E65E0862E52E0A52E43E0B42E8D
:10451000B8C08FE896E00E94392E892B09F4B1C00B
:10452000A9C08FE896E00E946A2E982F80934D04D0
:1045300080914E04833021F1843028F4813099F049
:104540008230B8F409C0853009F450C0853020F1BC
:10455000863009F08FC067C0953B09F08BC081E0C1
:1045600080934E0487C0923609F082C0A0924E0418
:1045700081C090934F0490935004B0924E047AC03F
:1045800090935204F70111828091500489278093FF
:10459000500470924E046EC0D92FC0E02091520496
:1045A000309153042C2B3D2B309353042093520411
:1045B0008091500489278093500480924E042536C0
:1045C000310508F457C08DE494E06CEC41E050E014
:1045D0000E94F1108DE494E061E00E94D1108FE818
:1045E00096E0609151040E94A32E42C02091540491
:1045F00030915504F901E35BFB4F918780915004A2
:104600008927809350042F5F3F4F309355042093A8
:10461000540480915204909153042817390750F1A3
:1046200090924E0427C000915004091729F48DE49C
:1046300094E00E949E2013C010914F048DE494E0FA
:104640006BEC42E050E00E94F1108DE494E0612FA9
:104650000E94D1108DE494E0602F0E94D110F601E9
:10466000862D11928A95E9F7109255041092540400
:1046700010924E048FE896E00E94392E892B09F0A3
:1046800050CF80914C04813009F443CFDF91CF911A
:104690001F910F91FF90EF90DF90CF90BF90AF9060
:1046A0009F908F907F906F900895DF92EF92FF928E
:1046B0000F931F93CF93DF930E945E2961157105BD
:1046C00081059105C9F30E94650610920A041092B3
:1046D0000B0410920C0410920D04DD24E0900A04E7
:1046E000F0900B0400910C0410910D04102F0F2D6D
:1046F000FE2CEE240E9460062FEF30E040E050E0F8
:104700000E949C2FE60EF71E081F191FE0920A0454
:10471000F0920B0400930C0410930D04D39484E0E6
:10472000D816E1F6C0E1D4E010E017C00E946006A0
:1047300022E330E040E050E00E949C2F6F5FE0E118
:10474000F4E090E004C08191861781F39F5F911798
:10475000D0F369931F5F183119F08881882331F7EE
:10476000DF91CF911F910F91FF90EF90DF9008950F
:104770001F931091BA041F3F09F0CAC0863409F490
:1047800089C087345CF58833B4F481330CF085C07C
:104790008B3109F463C08C313CF48A3009F497C141
:1047A0008D3009F09CC193C1813209F444C080333B
:1047B00009F095C184C0803409F444C081343CF4CC
:1047C000883309F46CC0893309F089C176C081341B
:1047D00009F484C0823409F082C18BC0823609F4A6
:1047E00088C08336ACF4833591F184353CF4893448
:1047F00009F440C0823509F072C143C08A3509F41A
:1048000084C0813609F46AC0883509F068C126C0C1
:104810008237B9F1833734F48636E1F1893609F00D
:104820005EC128C08837D1F08A3709F46EC083375B
:1048300009F055C10CC08FE896E068E571E00E9470
:10484000152D4DC18FE896E068E571E020C00E940B
:1048500076128FE896E062EE71E006C00E940408CE
:104860008FE896E06CEF71E00E94152D8EEF80933B
:10487000BA0435C10E9454088FE896E06BE172E0FB
:1048800006C00E9455238FE896E064E372E00E9420
:10489000152D1DC10E94751622C1805343C08FE89B
:1048A00096E06EE871E00E94732B90912904892FA5
:1048B000885F8871977E892B0CC089E033C08FE8B0
:1048C00096E06BE771E00E94732B8091290490E2DF
:1048D0008927809329041093BA04F9C08FE896E0E1
:1048E00065E671E00E94732B8091290490E489278A
:1048F00009C08FE896E064E571E00E94732B809117
:1049000029048058809329040CC00E94821D09C08C
:104910000E940216882309F4E2C0809120058823B2
:1049200021F48FEF8093BA04D2C08BEB94E060E067
:1049300070E040E050E00E946E069B01AC01809167
:10494000BA04843009F441C0853044F4823041F126
:10495000833094F5813009F096C00DC0863009F49B
:1049600067C086300CF43EC0873009F469C08930D6
:1049700009F089C075C0DA01C9018154914EAD4971
:10498000B8418F57904FAA4FB24008F07CC0209397
:1049900006043093070440930804509309049AC016
:1049A00020930A0430930B0440930C0450930D049D
:1049B00081E0809321058EC02830310541055105E5
:1049C00008F061C020930E0485C0DA01C901019787
:1049D000A109B1090A97A105B10508F054C02093B7
:1049E0000F0478C08BEB94E065E471E00E948A07C5
:1049F00010E00EC0183130F4E12FF0E0EF5FFB4F14
:104A000087871F5F80E090E065E471E00E948A077D
:104A1000009759F00E946C07009761F706C0E12FDC
:104A2000F0E0EF5FFB4F17861F5F1831C0F352C0F5
:104A3000253031054105510530F5209328044AC041
:104A4000DA01C9010197A109B1090697A105B105CC
:104A5000D0F480912904887F822B809329043AC066
:104A6000DA01C9010197A109B1098050924CA14016
:104A7000B04048F4209302043093030440930404AC
:104A80005093050427C08FE896E067EB71E00E9421
:104A9000152D13C080910A0490910B04A0910C0471
:104AA000B0910D040196A11DB11D80930A0490934D
:104AB0000B04A0930C04B0930D040E94F8158FEF23
:104AC0008093BA048FE896E06AE00E94872B0E94E8
:104AD000C61D05C0809121058823E1F2EECF1F910C
:104AE00008958FEF8093BA04109221050E94C61D8D
:104AF0000CC08FE896E00E94392E892B31F08FE8A8
:104B000096E00E946A2E0E94B8238091BA048E3FDC
:104B100081F76AE070E080E090E00E94842904C0A0
:104B20008FE896E00E946A2E8FE896E00E94392E68
:104B3000892BB1F708957F928F929F92AF92BF9287
:104B4000CF92DF92EF92FF920F931F93DF93CF9359
:104B5000CDB7DEB7AA970FB6F894DEBF0FBECDBFB4
:104B60000E9450296B017C0181E00E943F0B04C030
:104B70008FE896E00E946A2E8FE896E00E94392E18
:104B8000892BB1F711E022E6722E92E0892E912C4A
:104B90008C0E9D1E5E010894A11CB11C03E00E94B6
:104BA000502920E030E06C197D098E099F09693C8D
:104BB00071058105910510F021E030E0812F90E032
:104BC00028233923232BA9F10E9450296B017C0152
:104BD0005D9A80ED97E00E94D8077982D401E1E0E8
:104BE000F4E089E201900D928150E1F7C5016AE29B
:104BF0000E941D0F5D9880E090E00E94D80700930E
:104C000000040E941E0C62E370E080E090E00E94CD
:104C1000842980910004843059F4009300048FE7C4
:104C20000E942D0A0E94410A823411F410E001C052
:104C300011E08EE00E94AB2A892B21F511E022C001
:104C40008FE896E00E946A2E8D30910569F08E30D3
:104C500091051CF40A97B1F407C08332910569F0FD
:104C60008234910579F40CC08FE896E066E471E037
:104C70000E94732B0E94712505C00E946C1E02C009
:104C80000E9462228FE896E00E94392E892B09F457
:104C900086CFD6CF8FE896E00E94392E04970CF18C
:104CA0008FE896E00E946A2E82349105D1F48FE855
:104CB00096E00E946A2E8E34910599F48FE896E072
:104CC0000E946A2E8434910561F48FE896E00E9478
:104CD0006A2E819731F480E090E00E94D8070E940C
:104CE0009B2508958F929F92AF92BF92CF92DF92B1
:104CF000EF92FF920F931F938EE00E94AB2A892BB5
:104D000009F0ACC068EC70E080E090E00E9484297B
:104D100080E090E00E94D8070E9450295B016C015E
:104D200030ECE32E32E1F32E012D112DE60EF71EAD
:104D3000081F191F06C08EE00E94AB2A892B09F0BC
:104D400085C00E9450296E157F058007910798F352
:104D50008EE00E94AB2A892B09F078C080ED97E0A5
:104D60000E94D8070E9450297B018C0199249394BA
:104D7000882488E496E2A0E0B0E0A80EB91ECA1E1E
:104D8000DB1E29C0AE14BF04C006D10638F480ED86
:104D900097E00E94D807882483941DC00E94502960
:104DA0006E197F09800B910B693C71058105910596
:104DB00090F00E9450297B018C0180E0992009F439
:104DC00081E0982E882319F480E090E002C080ED05
:104DD00097E00E94D8078EE00E94AB2A892B91F2BF
:104DE00080E090E00E94D807882051F180912A0449
:104DF0008F5F83700E94E1128FE896E061E572E0B8
:104E00000E94122D8FE896E060912A044AE050E05B
:104E10000E94822C0E940408892B39F08FE896E0CA
:104E20006EE572E00E94152D19C08FE896E06BE7E1
:104E300072E00E94122D0E9454080E9476120EC049
:104E40000E9455230E9476120E947B188FE896E0FC
:104E50006DE972E00E94152D0E949B251F910F9114
:104E6000FF90EF90DF90CF90BF90AF909F908F908A
:104E7000089580E069EC77E042E050E00E948B28E2
:104E80000895EF92FF920F931F930E94171189E0EC
:104E900061E00E94182A89E060E00E94572A86E0BB
:104EA00061E00E94182A85E061E00E94182A8EE0E5
:104EB00060E00E94182A88E060E00E94182A88E0DA
:104EC00061E00E94572A81E161E00E94182A81E195
:104ED00060E00E94572A0E942C118FE896E040E083
:104EE00052EC61E070E00E94B22D0E94D0120E944C
:104EF0000408892B39F08FE896E06EE572E00E9495
:104F0000152D0AC08FE896E06BE772E00E94122D23
:104F10000E9454080E94761283E0809380008AE900
:104F2000809381008091290486FD05C080918100D5
:104F30008064809381008FEF9FEF9093890080932E
:104F4000880080916F00806280936F008FEF809364
:104F500077050E94392778940E9450297B018C01A3
:104F6000809177058F3F09F0C7C00E9450296E19C4
:104F70007F09800B910B605D77408040904008F086
:104F8000BBC0EECF8FE896E00E946A2E8FE896E0D5
:104F90000E94392E892BB1F78FE896E064EB72E01E
:104FA0000E94122D84E593E00E94BA198FE896E0E2
:104FB0006BEC72E00E94122D8FE896E064E070E0E6
:104FC0004AE050E00E94F32C68EC70E080E090E052
:104FD0000E9484290E944A264091020450910304B1
:104FE0006091040470910504DB01CA010197A109D5
:104FF000B1090397A105B10568F4409378054330E2
:1050000029F040E052EC61E070E004C040EA56E86C
:1050100061E070E08FE896E00E94B22D0E94722657
:105020005E9880E090E00E94D80783E08093800043
:105030008AE9809381008091290486FD05C08091D2
:1050400081008064809381008FEF9FEF90938900AF
:105050008093880080916F00806280936F0080E071
:105060000E943F0B80915D050E94680A0E941E0C01
:105070001092C2051092C3051092C4056CE271E053
:1050800080E090E00E94842980ED97E00E94D8079C
:1050900064E670E080E090E00E94842980E090E087
:1050A0000E94D80710E015C064E670E080E090E050
:1050B0000E94842980ED97E00E94D80764E670E0A2
:1050C00080E090E00E94842980E090E00E94D80770
:1050D0001F5F80912A04181738F38091290490E00B
:1050E00084FF14C020E088719070489709F421E093
:1050F000822F0E943B110AC080ED97E00E94D807E2
:105100008EE061E00E94572A5E9A40CF1F910F9176
:10511000FF90EF900895823000F5E82FF0E0EE0F59
:10512000FF1FE650FA4F71836083882319F08130A6
:10513000A1F408C0809169008C7F842B8093690062
:10514000E89A089580916900440F551F440F551F38
:10515000837F842B80936900E99A08951F920F92B0
:105160000FB60F9211242F933F934F935F936F933A
:105170007F938F939F93AF93BF93EF93FF93809110
:10518000FA059091FB05892B29F0E091FA05F09141
:10519000FB050995FF91EF91BF91AF919F918F9181
:1051A0007F916F915F914F913F912F910F900FBE23
:1051B0000F901F9018951F920F920FB60F92112407
:1051C0002F933F934F935F936F937F938F939F930F
:1051D000AF93BF93EF93FF938091FC059091FD05F2
:1051E000892B29F0E091FC05F091FD050995FF91CF
:1051F000EF91BF91AF919F918F917F916F915F914F
:105200004F913F912F910F900FBE0F901F901895C7
:105210001F920F920FB60F9211242F933F938F93EB
:105220009F93AF93BF938091020690910306A09144
:105230000406B0910506309106060196A11DB11D28
:10524000232F2D5F2D3720F02D570196A11DB11D65
:10525000209306068093020690930306A09304060B
:10526000B09305068091FE059091FF05A091000680
:10527000B09101060196A11DB11D8093FE0590938A
:10528000FF05A0930006B0930106BF91AF919F91D7
:105290008F913F912F910F900FBE0F901F901895F7
:1052A0008FB7F894209102063091030640910406CE
:1052B000509105068FBFB901CA0108959FB7F894B0
:1052C0002091FE053091FF054091000650910106A6
:1052D00086B5A89B06C08F3F21F02F5F3F4F4F4FF1
:1052E0005F4F9FBF542F432F322F2227280F311D8E
:1052F000411D511D82E0220F331F441F551F8A9507
:10530000D1F7B901CA0108959B01AC017FB7F894A8
:105310008091FE059091FF05A0910006B0910106D5
:1053200066B5A89B05C06F3F19F00196A11DB11D80
:105330007FBFBA2FA92F982F8827860F911DA11DF7
:10534000B11D62E0880F991FAA1FBB1F6A95D1F794
:10535000BC012DC0FFB7F8948091FE059091FF0528
:10536000A0910006B0910106E6B5A89B05C0EF3FED
:1053700019F00196A11DB11DFFBFBA2FA92F982FBB
:1053800088278E0F911DA11DB11DE2E0880F991F86
:10539000AA1FBB1FEA95D1F7861B970B885E934027
:1053A000C8F2215030404040504068517C4F211598
:1053B00031054105510571F60895789484B58260F0
:1053C00084BD84B5816084BD85B5826085BD85B5A9
:1053D000816085BDEEE6F0E0808181608083E1E858
:1053E000F0E0108280818260808380818160808390
:1053F000E0E8F0E0808181608083E1EBF0E0808193
:1054000084608083E0EBF0E0808181608083EAE764
:10541000F0E08081846080838081826080838081ED
:10542000816080838081806880831092C1000895AC
:10543000CF93DF93482F50E0CA018656944FFC016A
:1054400034914A57544FFA018491882369F190E0CE
:10545000880F991FFC01E859F44FA591B491FC0104
:10546000EE58F44FC591D491662351F42FB7F894B8
:105470008C91932F909589238C93888189230BC0DD
:10548000623061F42FB7F8948C91932F9095892313
:105490008C938881832B88832FBF06C09FB7F89495
:1054A0008C91832B8C939FBFDF91CF910895482FD0
:1054B00050E0CA018255944FFC012491CA018656DE
:1054C000944FFC0194914A57544FFA01349133237D
:1054D00009F440C0222351F1233071F0243028F424
:1054E0002130A1F0223011F514C02630B1F0273060
:1054F000C1F02430D9F404C0809180008F7703C0BC
:10550000809180008F7D8093800010C084B58F775C
:1055100002C084B58F7D84BD09C08091B0008F77B3
:1055200003C08091B0008F7D8093B000E32FF0E046
:10553000EE0FFF1FEE58F44FA591B4912FB7F894DA
:10554000662321F48C919095892302C08C91892B3C
:105550008C932FBF0895682F70E0CB018255944F34
:10556000FC012491CB018656944FFC0144916A576B
:10557000744FFB019491992319F420E030E03CC072
:10558000222351F1233071F0243028F42130A1F08E
:10559000223011F514C02630B1F02730C1F024308C
:1055A000D9F404C0809180008F7703C0809180007F
:1055B0008F7D8093800010C084B58F7702C084B542
:1055C0008F7D84BD09C08091B0008F7703C080912A
:1055D000B0008F7D8093B000892F90E0880F991FD5
:1055E0008458944FFC01A591B4918C9120E030E057
:1055F000842311F021E030E0C9010895CF92DF92B9
:10560000EF92FF920F931F93CF93DF937C016B0177
:105610008A01C0E0D0E00FC0D6016D916D01D701C5
:10562000ED91FC910190F081E02DC7010995C80F23
:10563000D91F015010400115110571F7CE01DF91FE
:10564000CF911F910F91FF90EF90DF90CF90089531
:10565000EF92FF920F931F93CF93DF937C018B0107
:10566000C0E0D0E0F8010F5F1F4F6491662359F04E
:10567000D701ED91FC910190F081E02DC7010995D2
:10568000C80FD91FEFCFCE01DF91CF911F910F919E
:10569000FF90EF900895DC01ED91FC910190F08175
:1056A000E02D09950895EF92FF920F931F938C01BF
:1056B000DC01ED91FC910190F081E02D6DE0099508
:1056C0007C01D801ED91FC910190F081E02DC801A1
:1056D0006AE009959C012E0D3F1DC9011F910F9194
:1056E000FF90EF900895EF92FF920F931F937C012C
:1056F0000E94282B8C01C7010E94532B9C01200F74
:10570000311FC9011F910F91FF90EF900895EF9203
:10571000FF920F931F937C01DC01ED91FC910190AE
:10572000F081E02D09958C01C7010E94532B080FD1
:10573000191FC8011F910F91FF90EF900895CF930B
:10574000DF93EC016115710519F420E030E00FC022
:10575000DB010D900020E9F71197A61BB70BE8813C
:10576000F9810280F381E02DAD0109959C01C90109
:10577000DF91CF9108954F925F927F928F929F9287
:10578000AF92BF92CF92DF92EF92FF920F931F934F
:10579000DF93CF93CDB7DEB7A1970FB6F894DEBFF6
:1057A0000FBECDBF2C01742ECB01223008F42AE0AD
:1057B00019A231E2C32ED12CCC0EDD1E822E9924EB
:1057C000AA24BB24672D752FA50194010E947A2F6E
:1057D00079018A01C801B701A50194010E94482FEF
:1057E000472D461B0894C108D1084A3014F4405D87
:1057F00001C0495CF6014083E114F1040105110583
:1058000021F07E2C5F2DC801DDCFC201B6010E94C0
:105810009F2BA1960FB6F894DEBF0FBECDBFCF91E0
:10582000DF911F910F91FF90EF90DF90CF90BF908D
:10583000AF909F908F907F905F904F900895DC0184
:105840002115310541F4ED91FC910190F081E02D9D
:10585000642F099508950E94BB2B0895EF92FF9243
:105860000F931F937C010E941F2C8C01C7010E9483
:10587000532B9C01200F311FC9011F910F91FF90E5
:10588000EF900895EF92FF920F931F939A017B017F
:1058900000E010E0B801A7010E941F2C1F910F919A
:1058A000FF90EF900895CF92DF92EF92FF920F93C7
:1058B0001F936C017B019A0100E010E0B801A70181
:1058C0000E941F2C8C01C6010E94532B080F191F28
:1058D000C8011F910F91FF90EF90DF90CF90089536
:1058E000EF92FF920F931F939A01E62EFF2400E0A0
:1058F00010E0B801A7010E941F2C1F910F91FF908B
:10590000EF900895CF92DF92EF92FF920F931F9343
:105910006C01E62E9A01FF2400E010E0B801A70117
:105920000E941F2C8C01C6010E94532B080F191FC7
:10593000C8011F910F91FF90EF90DF90CF900895D5
:10594000CF92DF92EF92FF920F931F93CF93DF934B
:10595000EC016A017B012115310541F4E881F981EF
:105960000190F081E02D642F09951FC02A30310588
:10597000D1F477FF17C0E881F9810190F081E02D23
:105980006DE209958C0144275527BA014C195D0930
:105990006E097F09CE012AE00E94BB2B9801280FD7
:1059A000391F04C02AE00E94BB2B9C01C901DF9172
:1059B000CF911F910F91FF90EF90DF90CF900895BE
:1059C000EF92FF920F931F937B019A010027F7FC40
:1059D0000095102FB801A7010E94A02C1F910F91D4
:1059E000FF90EF900895CF92DF92EF92FF920F9386
:1059F0001F936C017B019A010027F7FC0095102F83
:105A0000B801A7010E94A02C8C01C6010E94532B53
:105A1000080F191FC8011F910F91FF90EF90DF90A1
:105A2000CF9008950E949F2B0895EF92FF920F93BD
:105A30001F937C010E949F2B8C01C7010E94532B56
:105A4000080F191FC8011F910F91FF90EF90089543
:105A500008951F920F920FB60F9211242F933F9328
:105A60004F938F939F93EF93FF938091C00082FD9C
:105A70001DC04091C60020914706309148062F5F17
:105A80003F4F2F7330708091490690914A06281736
:105A9000390771F0E0914706F0914806E95FF94F48
:105AA0004083309348062093470602C08091C60089
:105AB000FF91EF919F918F914F913F912F910F9077
:105AC0000FBE0F901F901895E0919B06F0919C06D9
:105AD000E05CFF4F8191919120813181821B930B7A
