:100000000C94B7050C94E9260C9416270C94DF0584
:100010000C94DF050C94DF050C94DF050C94DF05D0
:100020000C94DF050C94DF050C94CE0B0C94DF05CB
:100030000C94DF050C94DF050C94DF050C94DF05B0
:100040000C9443270C94DF050C943A290C948829CE
:100050000C94DF050C94DF050C94DF050C94DF0590
:100060000C94DF050C94DF05691A701A701A691A6E
:10007000701A701A701A701A701A701A701A701A30
:10008000701A701A701A701A701AD819701A701AB9
:10009000701A701A701A3919701A701A701A701A48
:1000A000701A701A701A701A701A701A701A701A00
:1000B000701A701A701AE419E419E419E419E419B1
:1000C000E419E419E419E419701A701A701A701A14
:1000D000701A701A4019E319E319E319E319701A39
:1000E000FA19021A0A1A121A1A1A221A2A1A321A91
:1000F0003C1A461A501A5A1A87194719701A701A58
:10010000701A701AD819701A701A701A701A701A38
:10011000701A701A701AE219E219E219E219701ACB
:10012000FA19021A0A1A121A1A1A221A2A1A321A50
:100130003C1A461A501A5A1A87194719701A701A17
:10014000701A701AD819456E746572206D656E75D7
:100150002E2E2E00546F67676C6564205458206DF6
:100160007574696E672100546F67676C65642074ED
:10017000656C656D65747279210050726F746F6380
:100180006F6C206572726F722077697468205258A4
:100190000054696D656F7574207768656E20636FB4
:1001A0006E6E656374696E6720746F2052580050DC
:1001B0007265737320616E79206B657920746F208E
:1001C00063616E63656C00436F6E6E656374696E28
:1001D0006720746F2052582C20706F7765722075DD
:1001E00070207468652052582028776974682062EE
:1001F000696E6420706C7567206966206E6F74206C
:100200007573696E6720616C776179732062696EBE
:10021000642900546F67676C65642027696D6D659C
:100220006469617465206F75747075742700546F0C
:1002300067676C65642027736C617665206D6F64F9
:10024000652700546F67676C65642027616C776170
:1002500079732062696E642700546F67676C656408
:100260002050504D206368616E6E656C206C696D26
:10027000697400536574205253534920696E6A654E
:100280006374696F6E206368616E6E656C202830E0
:100290003D3D64697361626C65290053657420504B
:1002A000504D206D696E696D756D2073796E6300B8
:1002B00053657420626561636F6E20696E74657248
:1002C00076616C0053657420626561636F6E2064B3
:1002D000656C61790053657420626561636F6E209F
:1002E0006672657175656E637920696E20487A3A29
:1002F00020303D64697361626C652C2050783D50FC
:100300004D52206368616E6E656C20782C204678B3
:100310003D465253206368616E6E656C20780053D1
:1003200065742050574D2073746F702064656C6144
:10033000792028302064697361626C65642C2031F7
:100340002D323535203D3D20302E3173202D203586
:10035000306D696E29005365742050504D207374C0
:100360006F702064656C6179202830206469736146
:10037000626C65642C20312D323535203D3D2030B6
:100380002E3173202D2035306D696E290053657430
:10039000206661696C736166652064656C617920B3
:1003A00028302064697361626C65642C20312D32C1
:1003B0003535203D3D20302E3173202D2035306DD8
:1003C000696E29002A2A2A2A2A2A2A2A2A2A2A2A35
:1003D0002A2A2A2A2A2A2A2A2A2A2A2A2A2A2A2A7D
:1003E0002A0052582041636B6564202D2072657687
:1003F000657274207375636365737366756C210031
:100400002A2A2A2A2A2A2A2A2A2A2A2A2A2A2A2A4C
:100410002A2A2A2A2A2A2A2A2A2A2A2A2A002A2A66
:100420002A2A2A2A2A2A2A2A2A2A2A2A2A2A2A2A2C
:100430002A2A2A2A2A2A2A2A2A2A2A0052582041E3
:10044000636B6564202D207570646174652073751D
:10045000636365737366756C21002A2A2A2A2A2A27
:100460002A2A2A2A2A2A2A2A2A2A2A2A2A2A2A2AEC
:100470002A2A2A2A2A2A2A0056616C69642063687B
:100480006F69636573206172653A205B315D2D5B36
:1004900031365D20286368616E6E656C20312D31C8
:1004A000362900536574206F757470757420666FFB
:1004B0007220706F727420005B585D2061626F72F1
:1004C00074206368616E67657320616E642065786F
:1004D000697420525820636F6E666967005B535DD4
:1004E00020736176652073657474696E6773207418
:1004F0006F205258005B525D2072657665727420E1
:1005000052582073657474696E677320746F206429
:10051000656661756C747300557365206E756D62E8
:10052000657273205B312D445D20746F20656469B2
:100530007420706F727473205B452D515D20666F5F
:10054000722073657474696E677300202D20726564
:1005500063656976657220636F6E6669677572613F
:10056000746F722C20727820737720000A0A6F70E3
:10057000656E4C52536E672000536574207365722C
:1005800069616C2062617564726174653A2000561D
:10059000616C69642063686F696365733A20312018
:1005A0002D20342B34202F2032202D2038202F20B6
:1005B00033202D20382B34202F2034202D20313291
:1005C000202F2035202D2031322B34202F20362093
:1005D0002D20313600536574204368616E6E656C62
:1005E00020636F6E6669673A20005365742044612A
:1005F0007461726174652028302D32293A200053CD
:10060000657420486F70206368616E6E656C73203E
:10061000286D61782032342C2073657061726174AA
:10062000656420627920636F6D6D61732920766146
:100630006C69642076616C75657320312D323535B7
:100640003A2000536574206368616E6E656C207398
:10065000706163696E6720287831306B487A293A77
:10066000200053657420524620706F7765722028F1
:10067000302D37293A2000536574205246206D6191
:1006800067696320286865782920652E672E2030E9
:100690007844454144463030443A20005365742044
:1006A00062617365206672657175656E6379202875
:1006B000696E20487A293A20005B5A5D20656E7485
:1006C000657220726563656976657220636F6E6618
:1006D000696775726174696F6E207574696C7900F1
:1006E0005B465D20646973706C6179206163747529
:1006F000616C206672657175656E636965732075DE
:10070000736564005B525D2063616C63756C61743A
:10071000652072616E646F6D206B657920616E6417
:1007200020686F70206C697374005B495D2072658E
:10073000696E697469616C697A652073657474693E
:100740006E677320746F20736B65746368206465D3
:100750006661756C7473005B585D207265766572B6
:1007600074206368616E67657320616E64206578CC
:100770006974206D656E75005B535D2073617665ED
:100780002073657474696E677320746F20454550DB
:10079000524F4D20616E642065786974206D656EDE
:1007A0007500557365206E756D62657273205B30E0
:1007B0002D395D20746F20656469742070617261E9
:1007C0006D657465727300202D2053797374656DA7
:1007D00020636F6E66696775726174696F6E000A77
:1007E0000A6F70656E4C52536E6720005129204F7E
:1007F0007574707574206265666F7265206C696EC1
:100800006B20283D465329203A2000502920536C64
:10081000617665206D6F6465202865787065726902
:100820006D656E74616C293A20004F292054696D02
:1008300065642042494E442061742073746172746F
:10084000757020203A20004E292050504D206F75A1
:1008500074707574206C696D697465642020202043
:10086000203A200044495341424C4544004D292040
:1008700050504D205253534920746F206368616E6D
:100880006E656C202020203A20004C292050504DCD
:10089000206D696E696D756D2073796E63202875A2
:1008A000732920203A200044495341424C454400DA
:1008B0004B29204661696C736166652062656163DE
:1008C0006F6E20696E74762E2028312D3235357387
:1008D000293A20004A29204661696C7361666520C7
:1008E000626561636F6E2064656C61792028302DCC
:1008F000323535203D3E20313073202D20313530CA
:100900006D696E293A20004929204661696C73613E
:10091000666520626561636F6E206672712E203A93
:10092000200048292050574D2073746F7020646553
:100930006C6179202020202020203A2000472920A7
:1009400050504D2073746F702064656C6179202065
:1009500020202020203A20004629204661696C731F
:100960006166652064656C6179202020202020204C
:100970003A200050574D206368616E6E656C200010
:1009800066756E6374696F6E3A20002920706F720D
:10099000742000445446205548462033322D626965
:1009A000742031306368004F70656E4C52536E672F
:1009B0005258206D696E6920342F36636800466C8A
:1009C0007974726F6E2F4F72616E67655258205541
:1009D00048462038636800525820747970653A2080
:1009E0000044697361626C656400487A00203D3D93
:1009F000200043616C63756C617465642070616391
:100A00006B657420696E74657276616C3A20003093
:100A100029204D7574652062757A7A657220286D7B
:100A20006F73746C79293A003929205365726961B2
:100A30006C2062617564726174653A00736D6172F5
:100A400074506F7274004672536B79005472616E09
:100A500073706172656E740044697361626C656481
:100A60000038292054656C656D657472793A2020D0
:100A70002020202020003729204368616E6E656C9D
:100A800020636F6E6669673A202000362920446132
:100A90007461726174652028302D32293A2020203B
:100AA00000352920486F70206368616E6E656C7335
:100AB0003A2020202020003429204368616E6E6592
:100AC0006C2073706163696E673A202000332920BF
:100AD000524620706F7765722028302D37293A20D2
:100AE0002020003229205246206D616769633A2038
:100AF0002020202020202020003129204261736501
:100B0000206672657175656E63793A202020000059
:100B1000000000240027002A000000000025002813
:100B2000002B00000000002300260029000404041C
:100B30000404040404020202020202030303030386
:100B40000301020408102040800102040810200163
:100B50000204081020000000070002010000030446
:100B6000060000000000000000005A0CF42A1124C6
:100B70001FBECFEFD8E0DEBFCDBF13E0A0E0B1E0F5
:100B8000E4EFFCE502C005900D92AE3FB107D9F746
:100B900016E0AEEFB3E001C01D92AE37B107E1F74A
:100BA0001BE0CEE6DBE004C02297FE010E94322E5D
:100BB000CA36D107C9F70E944A2B0C94782E0C94A0
:100BC0000000A0E0B0E0E7EEF5E00C94492EEC0167
:100BD000A880B980CA80DB80A114B104C104D1040B
:100BE00041F484E2A82E89EDB82E8BE5C82E87E06B
:100BF000D82EC601B5012DE133EF41E050E00E944F
:100C0000152E27EA31E440E050E00E94AD2D7B0133
:100C10008C01C601B5012DE133EF41E050E00E94A7
:100C2000152ECA01B9012CEE34EF4FEF5FEF0E9491
:100C3000AD2D6E0D7F1D801F911F97FF04C0615069
:100C4000704080409048688379838A839B839B01AE
:100C5000AC015F77B901CA01CDB7DEB7EAE00C9409
:100C6000652E0E94E105089587E193E00E94E10569
:100C7000089560931703709318038093190390935A
:100C80001A030895A0E0B0E0E8E4F6E00C94422EE8
:100C9000EC012B016A016115710519F0FB019183CB
:100CA0008083C114D10449F0C6010297839728F0CC
:100CB00020E030E040E050E0DCC0A9908A2D90E0D8
:100CC0000E94362E892BC9F7FDE2AF1621F4A990B8
:100CD0003324339405C08BE2A81609F4A990332479
:100CE000C114D10421F0E0E1CE16D10411F5F0E3F6
:100CF000AF1669F48881883711F0883541F4A980EE
:100D0000229682E0382A20E1C22ED12C12C0C114D2
:100D1000D10479F4E0E3AE1659F199E9E92E99E9A5
:100D2000F92E99E9092F99E1192F8AE0C82ED12CC3
:100D30003AC0FAE0CF16D10491F080E1C816D10490
:100D400029F0E8E0CE16D104F9F415C0BFEFEB2E80
:100D5000BFEFFB2EBFEF0B2FBFE01B2F24C0A9E975
:100D6000EA2EA9E9FA2EA9E90A2FA9E11A2F1BC038
:100D7000F8E0CF2ED12CEFEFEE2EEFEFFE2EEFEFBF
:100D80000E2FEFE11E2F0FC09601442737FD40952F
:100D9000542F6FEF7FEF8FEF9FEF0E94F32DC9016C
:100DA000DA017C018D0120E030E040E050E060E0BD
:100DB0003601882477FC8094982C70EDB72EBA0CFD
:100DC000F9E0FB1570F48A2D81548A3118F499ECFE
:100DD000B92E06C08A2D81568A3148F589EAB82E87
:100DE000BA0C8B2D90E08C159D050CF56F3FE9F04A
:100DF000E216F30604071507B8F0CA01B901A40109
:100E000093010E94AD2D9B01AC018B2D90E0A0E0E1
:100E1000B0E0280F391F4A1F5B1F281739074A0700
:100E20005B0710F061E001C06FEFA990C6CF4114DD
:100E3000510451F0662311F0219703C031FE04C024
:100E40002297F201D183C08330FE07C050954095B0
:100E5000309521953F4F4F4F5F4F67FF0AC082E2A9
:100E600090E090937D0680937C062FEF3FEF4FEF4D
:100E70005FEFB901CA01CDB7DEB7E1E10C945E2E98
:100E8000FC0188279927E89421912032E9F3293041
:100E900010F02E30C8F32B3241F02D3239F4689423
:100EA00004C00E949E07820F911D219120532A3079
:100EB000C0F31EF4909581959F4F08954EEF53E037
:100EC0000E946C070895FB01DC0102C001900D92A5
:100ED00041505040D8F70895009731F4DA018D91D0
:100EE0009C91009709F40EC0DC01FB013D9121911A
:100EF000222319F03217C9F3FACF332331F4DA0180
:100F00001D921C928827992708951197AF93BF933C
:100F1000FB013D912191321771F4332321F488278D
:100F20009927119702C01E921196FA01A193B083DE
:100F30009F918F910895222369F7EACF7AE0979FD6
:100F4000902D879F802D910D11240895809100048C
:100F5000813019F482E08093000480910004833092
:100F600019F484E0809300040895009721F19C0116
:100F700040E050E068E478EE81E090E00E94152EB9
:100F8000C901DA018F3F9105A105B10531F028F0C3
:100F90008FEF90E0A0E0B0E008C00097A105B10598
:100FA00021F481E090E0A0E0B0E08093B300809174
:100FB000B000806103C08091B0008F7E8093B0004C
:100FC000089589E08093010480E092ECA1E0B0E014
:100FD0008093020490930304A0930404B093050447
:100FE00087E080930E0480EC92E9ADEEB9E1809346
:100FF000060490930704A0930804B093090485E0C5
:1010000080930F048DEE9EEFADEABEED80930A044F
:1010100090930B04A0930C04B0930D04A0E1B4E0F2
:1010200080E090E0863010F0E0E004C0FC01E9517F
:10103000FC4FE081ED9301968831910599F782E0AC
:10104000809328048AE0809329040895682F70E033
:10105000CB018C599F4F8E3B910548F4665F7F4FC3
:1010600080E090E02AE030E040E050E014C0823DB3
:10107000910548F46055704080E090E024E630E04F
:1010800040E050E008C06956704080E090E028E5FC
:1010900032E040E050E00E94AD2D24E630E040E038
:1010A00050E00E94AD2D08958F929F92AF92BF9213
:1010B000CF92DF92EF92FF920F931F93FC0100A556
:1010C00010E087A190E023E130E0829FF001839F50
:1010D000F00D929FF00D1124E55EFC4F8080918011
:1010E000A280B380F801E770F070E152FC4F60819C
:1010F00070E0615F7F4F882777FD8095982F20E40F
:101100003FE14DE750E00E94AD2DA50194010E9402
:10111000F32D69017A0180ED97E0A0E0B0E0C80E00
:10112000D91EEA1EFB1E08711070012B81F060E0D1
:101130007EEE8AEB9BE0A50194010E94F32D2851DD
:101140003C4F4F4F5F4FC20ED31EE41EF51E87EE7D
:1011500093E0A0E0B0E0C80ED91EEA1EFB1EC70156
:10116000B60128EE33E040E050E00E94F32DCA01C2
:10117000B90128EE33E040E050E00E94AD2D1F9110
:101180000F91FF90EF90DF90CF90BF90AF909F9026
:101190008F900895FF920F931F93082FFB01DA01A0
:1011A000F82EF69410E0808191818C938281938156
:1011B00011968C9311978481958112968C93129736
:1011C0008681978113968C93139720813181428178
:1011D000538164817581868197819295990F990FCA
:1011E000907C832F8370982B852F8370880F880FB6
:1011F000982B872F83708295807F982B14969C93D1
:101200001497159638961F5FF11668F600FF5CC0BC
:10121000808191818F3F910509F010F440E00CC06E
:1012200022E08030920710F441E006C080509340E5
:1012300010F043E001C042E0828193818F3F91052D
:1012400009F010F450E00CC022E08030920710F456
:1012500051E006C08050934010F053E001C052E0CE
:10126000848195818F3F910509F010F480E00CC0D6
:1012700022E08030920710F481E006C08050934055
:1012800010F083E001C082E0268137812F3F3105D5
:1012900009F010F490E00CC092E02030390710F40F
:1012A00091E006C02050334010F093E001C092E07E
:1012B0005295507F4295440F440F407C452B880F38
:1012C000880F842B892B8C931F910F91FF90089589
:1012D00023E08032920718F420E030E026C023E0BB
:1012E000883E920748F49C012F513340E4E0369544
:1012F0002795EA95E1F719C027E0803D920720F491
:101300009C012C5D334011C028E08839920718F009
:101310002FEF33E00AC09C01285C374074E036951B
:1013200027957A95E1F72D503C4FC9010895882300
:1013300039F02D9800002B9A00002D9A0000089596
:101340002D9800002B9800002D9A000008950F930F
:101350001F93082F5C9A2D985C9810E0802F80785E
:101360000E949709000F1F5F1830C1F72D981F9139
:101370000F9108958F770E94A70908950F931F93E7
:10138000082F10E0802F80780E949709000F1F5FC0
:101390001830C1F72D981F910F9108952D9820E0D6
:1013A00030E0220F2D9A000083B12D98000090E0CC
:1013B00074E0969587957A95E1F78170280F3F5FE5
:1013C000383079F7822F08950E94BA090E94CE0919
:1013D0005C9A08951F93162F80680E94A709812F99
:1013E0000E94BE095C9A1F9108951F9310910A04F0
:1013F0001827E1E0F4E0E80FF11D89E767850E9416
:10140000EA098DE3612F0E94EA0982E4612F0E94BC
:10141000EA091F91089586E20E94E40908950F9356
:101420001F938C018CE1F80164810E94EA098DE12F
:10143000F80165810E94EA098EE1F80166810E9447
:10144000EA0980E2F80167810E94EA0981E2F80175
:1014500060850E94EA0982E2F80161850E94EA093A
:1014600083E2F80162850E94EA0984E2F80163855B
:101470000E94EA0985E2F80164850E94EA098AE28D
:10148000F80165850E94EA098EE6F80166850E94EA
:10149000EA098FE6F80167850E94EA0980E7F8010A
:1014A00060890E94EA0981E7F80161890E94EA09DE
:1014B00082E7F80162890E94EA091F910F9108955D
:1014C000EF92FF920F931F93CF93DF937B018C01D9
:1014D000603028E372072CE982072CE1920728F597
:1014E00020E836E948E950E00E94F32DE9016897C9
:1014F000B90180E090E020E839E647E65FEF0E941E
:10150000AD2D6E0D7F1D801F911FB2E0660F771FFE
:10151000881F991FBA95D1F721E732E040E050E0EB
:101520000E94F32D890180E421C020E03DE241E3E7
:1015300051E00E94F32DE9016897B90180E090E045
:1015400020E033ED4EEC5EEF0E94AD2D6E0D7F1D61
:10155000801F911F660F771F881F991F21E732E0B8
:1015600040E050E00E94F32D890180E69E012F713A
:10157000622F680F85E70E94EA0986E7612F0E94C3
:10158000EA0987E7602F0E94EA09DF91CF911F9156
:101590000F91FF90EF9008959F92AF92BF92CF92DC
:1015A000DF920F93DF93CF9300D000D0CDB7DEB79B
:1015B000982E83E00E94E4098093450484E00E9411
:1015C000E4098093460486E060E00E94EA0987E02F
:1015D00061E00E94EA0989E06FE70E94EA098AE077
:1015E00065E00E94EA098BE065E10E94EA098CE06F
:1015F00062E10E94EA098DE06DEF0E94EA098EE047
:1016000060E00E94EA09992019F08AE793E008C097
:101610008091280423E1829FC0011124855E9C4FA4
:101620000E940F0A80E36CE80E94EA0982E36FE0FF
:101630000E94EA0983E362E40E94EA0984E36AE023
:101640000E94EA0985E36AE20E94EA0986E36DE204
:101650000E94EA0987E364ED0E94EA0988E360E0FA
:101660000E94EA0989E360E00E94EA09992049F0B2
:101670002EE1A22E2EEBB22E21ECC22E2EEDD22E7A
:1016800008C0A0900A04B0900B04C0900C04D09045
:101690000D040AE38D2D9927AA27BB2789839A83F6
:1016A000AB83BC83802F69810E94EA09802F8B5F06
:1016B00069810E94EA09DC2CCB2CBA2CAA240F5F8A
:1016C0000E3341F783E46FEF0E94EA0984E46FEF81
:1016D0000E94EA0985E46FEF0E94EA0986E46FEF51
:1016E0000E94EA09992019F08DE666E003C08DE6B4
:1016F00060910E040E94EA0989E760E00E94EA090D
:101700008AE760910F040E94EA0983E760E00E9483
:10171000EA0984E760E00E94EA09992029F060EC78
:1017200072E98DEE99E108C060910604709107049A
:1017300080910804909109040E94600A0F900F9014
:101740000F900F90CF91DF910F91DF90CF90BF90CE
:10175000AF909F90089587E061E00E94EA098EE7CC
:1017600064E20E94EA0988E063E00E94EA0988E0F6
:1017700060E00E94EA0987E065E00E94EA0985E0EE
:1017800062E00E94EA0983E00E94E4098093450434
:1017900084E00E94E4098093460408951F920F920A
:1017A0000FB60F921124EF92FF921F932F933F9346
:1017B0004F935F936F937F938F939F93AF93BF9359
:1017C000CF93DF93EF93FF93C0918600D091870072
:1017D00080917805909179059E01281B390B8091A5
:1017E000AE038823F9F08091AE03833368F0109242
:1017F000AE03809177058B3020F081E080937705F0
:101800003BC01092770538C02C5D354028F480919C
:1018100077058F5F809377058091AE038F5F80930C
:10182000AE032AC080917705882311F43695279559
:10183000E9E0253C3E0728F01092AD0310927605B2
:101840001BC0F2E02D3B3F0788F18091AD03803152
:1018500068F51091AD03E12EFF24C9010E946809CB
:10186000EE0CFF1C2DE833E0E20EF31EF70191832E
:1018700080831F5F1093AD03D0937905C0937805E3
:10188000FF91EF91DF91CF91BF91AF919F918F9198
:101890007F916F915F914F913F912F911F91FF9099
:1018A000EF900F900FBE0F901F90189580E18093DE
:1018B000AD03E2CF10924D041092520410925104E5
:1018C00010925404109253040895FF920F931F93A3
:1018D000CF93DF93182F092FF62E8EE30E94EA098B
:1018E000212F302FC901EC0110E005C08FE769916D
:1018F0000E94EA091F5F1F15C8F385E064E00E949B
:10190000EA0983E00E94E4098093450484E00E9490
:10191000E409809346040E949927609347047093DA
:1019200048048093490490934A0487E069E00E9448
:10193000EA0981E080930004DF91CF911F910F911C
:10194000FF9008950E94650C809100048130D9F4C5
:101950000E949927209147043091480440914904FE
:1019600050914A04621B730B840B950B605A7648A6
:101970008140904040F4E8CF8AE596E060E071E075
:101980000E94702D0895809100048130A9F308957C
:101990008AE596E06EE70E94B42A0895BF92CF923E
:1019A000DF92EF92FF920F931F93CF93DF936C011F
:1019B0008AE596E06EE70E94B42A760100E010E026
:1019C000C0E0D0E0A0E2BA2E0AC00830110521F430
:1019D0009E012095F60120870894E11CF11CF70177
:1019E0006081862F8D57823040F48AE596E06DE75E
:1019F0000E94B42AF70160816B258AE596E00E9477
:101A0000B42A0115110551F0F70180819E01280FBC
:101A1000311DC32FDD27C20FD31FD0700F5F1F4FA3
:101A20000930110591F6DF91CF911F910F91FF9031
:101A3000EF90DF90CF90BF900895DF93CF93CDB715
:101A4000DEB729970FB6F894DEBF0FBECDBF382F93
:101A5000E62F80915B0590E0019664E270E00E94C1
:101A6000E02D982F80935B0588E9898380E18A8344
:101A7000913069F0913028F09230A9F09330F1F470
:101A800018C085E08B8381EF8C831D821AC09B83F5
:101A900081EF8C83421708F4242F84E6289FC0012D
:101AA00011249D830EC084E08B8381EF8C833D8362
:101AB00008C09B8381EF8C83ED8303C00E94C80C18
:101AC00004C0CE0101960E94CE0C29960FB6F89460
:101AD000DEBF0FBECDBFCF91DF9108950F931F934F
:101AE000CF93DF93182F092F8AE596E06EE70E94C7
:101AF000B42A212F302FC901EC0110E000E28881C7
:101B00008D57823040F48AE596E06DE70E94B42A52
:101B10008881802788838AE596E069910E94B42AAB
:101B20001F5F193061F78AE596E06EE70E94B42ADC
:101B3000DF91CF911F910F910895DF93CF93CDB790
:101B4000DEB729970FB6F894DEBF0FBECDBF382F92
:101B500080915B05882379F48EEF89833A836B83C8
:101B6000842F90E0959587958C832D831986188610
:101B70001F821E822FC040915605842F90E09C0149
:101B80002F70307054E0959587955A95E1F782173C
:101B9000930721F18DEF89831A821B82DE0114964F
:101BA00020E008C0EA5BFA4F80818D93405F2F5F91
:101BB000263069F0842F90E0FC0134E0F595E7953C
:101BC0003A95E1F78F709070E817F90759F740934D
:101BD00056052A83CE0101960E946E0D80915B0509
:101BE00090E0019666E070E00E94E02D80935B0536
:101BF00029960FB6F894DEBF0FBECDBFCF91DF910F
:101C00000895AF92BF92CF92DF92EF92FF920F931F
:101C10001F93D82EC62EB42EA22E0E9499277B0188
:101C20008C018091450520915705309158054091D0
:101C3000590550915A05882391F0D801C701821B9C
:101C4000930BA40BB50B815E9E42A040B04000F107
:101C50008D2D6C2D4B2D2A2D0E941D0D11C0D801EC
:101C6000C701821B930BA40BB50B81539547A04072
:101C7000B04070F08D2D6C2D4B2D2A2D0E949D0DA6
:101C8000E0925705F09258050093590510935A05B4
:101C90001F910F91FF90EF90DF90CF90BF90AF908A
:101CA0000895FF920F931F938C01F62E8AE596E01C
:101CB0000E94B42AF80184818F2584831F910F919B
:101CC000FF900895FF920F931F938C01F72E0E94AF
:101CD000510EC8016F2D0E94510E1F910F91FF9060
:101CE0000895BF92CF92DF92EF92FF920F931F93CE
:101CF0007C01B62E6A010AE516E0C80165EB0E9478
:101D0000B42AC80162E60E94B42AF7011482C7010E
:101D10006B2D0E94510EC701B6010E94620E1F91E9
:101D20000F91FF90EF90DF90CF90BF9008958CE0DF
:101D300060E00E9453288BE061E00E9453288DE010
:101D400061E00E94532882E060E00E94532884E012
:101D500061E00E945328089582E08093B00085E0FE
:101D60008093B10083E061E00E94532883E060E04B
:101D70000E94922808951F93182F0E94992760931C
:101D80005705709358058093590590935A05109301
:101D90004505112329F440E855E260E070E004C0F5
:101DA00040E051EE60E070E08AE596E00E94C329D1
:101DB0001F910895AF92BF92CF92DF92EF92FF9260
:101DC0000F931F93DF93CF93CDB7DEB76C970FB60A
:101DD000F894DEBF0FBECDBF0E9499277B018C0116
:101DE00081E00E94CC0AF4E7AF2E6E010894C11C7A
:101DF000D11CE3E0BE2EA982C60161E00E94A20CC4
:101E0000B09200040E94AB0B6AEF70E080E090E0BB
:101E10000E94BF2780910004833009F08AC08AE5C0
:101E200096E00E944A2A892B09F083C00E949927D4
:101E30006E197F09800B910B6058734C894C91404F
:101E400008F077C0D8CF8FE70E94BA090E94CE0968
:101E5000843509F05CC089830E94CE09182F00E008
:101E600010934405009343050E94CE09080F111DED
:101E700010934405009343050E94CE0980934205C8
:101E80000E94CE0980934105813108F040C0FF24B3
:101E900007C00E94CE090F5D1A4FF8018083F394AA
:101EA0000F2D10E08091410590E0880F991F0817D1
:101EB000190778F380E78983CE01019661E00E94DB
:101EC000A20C83E0809300040E94AB0B62E370E0FD
:101ED00080E090E00E94BF27809100048330A9F049
:101EE0008FE70E94BA090E94CE09803581F4898368
:101EF0000AE214E00E94CE09F80181938F01F4E018
:101F000005341F07B9F781E003C082E001C083E018
:101F10006C960FB6F894DEBF0FBECDBFCF91DF91A8
:101F20001F910F91FF90EF90DF90CF90BF90AF90F7
:101F3000089580910004833009F085CFE6CF83E0D7
:101F40000E94E4098093450484E00E94E4098093A0
:101F5000460487E061E00E94EA096AE070E080E000
:101F600090E00E94BF270E94AB0B000008950F93E2
:101F70001F93082F17C05E9A64E670E080E090E03F
:101F80000E94BF275E9864E670E080E090E00E94C7
:101F9000BF271F5F101778F36CE271E080E090E0DC
:101FA0000E94BF2710E0F6CF80915D058130D1F00F
:101FB000813020F0823009F043C037C08EE00E94AB
:101FC000E628892B09F03CC081E080935D050E94E2
:101FD0008B2760935E0570935F05809360059093F7
:101FE000610508958EE00E94E628892BD9F40E94AD
:101FF0008B2720915E0530915F05409160055091DF
:102000006105621B730B840B950B695E7340804006
:102010009040B0F082E080935D0580ED97E00E94F3
:10202000B507089510925D0508958EE00E94E62898
:10203000892B31F080E090E00E94B50710925D0599
:102040000895AF92BF92CF92DF92EF92FF920F93DB
:102050001F93CF93DF938CE00E94E409882369F4F7
:102060008AE596E06CE071E00E94702D5E9A80E057
:102070000E94CC0A0E94AB0B5E988AE596E00E9413
:102080004A2A892B09F49AC28091C205C82FD0E050
:102090009E012F5F3F4F2F7130708091C10590E0FE
:1020A0002817390709F48AC28AE596E00E947B2A3C
:1020B000C856DA4F88838091C20590E001968F71EF
:1020C00090708093C205D9CF0E94992760936605CE
:1020D0007093670580936805909369056115710594
:1020E0008105910561F481E090E0A0E0B0E080938B
:1020F000660590936705A0936805B0936905809184
:1021000072059091730581609093730580937205B9
:1021100083E0809300048FE70E94BA09CFE8D5E0FE
:102120000E94CE09899305E0C839D007C9F74091CC
:102130007A0580918F05282F30E0842F90E0822748
:10214000932786FF5AC080E4482740937A05C90147
:1021500088739070C897D9F510E02EC01F5F8091EA
:102160002904E12FF0E084FF20C0E157FA4F60819D
:1021700040915605842F90E0FC01EF70F0709F01B4
:102180002F5F3F4F74E0959587957A95E1F7281773
:10219000390791F0EA5BFA4F6083842F8F5F8F706D
:1021A000407F842B8093560507C0E157FA4F8AE59C
:1021B00096E060810E94B42A212F30E080918F0543
:1021C00090E0877090708217930744F616C02F73C3
:1021D0003070232B91F48091900580936A05809153
:1021E000910580936C058091920580936D05809197
:1021F000950580937405109275058091C305813013
:1022000019F482E08093C3058091C305833011F4F3
:102210001092C3050E9499275B016C0180916E05A5
:1022200090916F05A0917005B09171050097A1057F
:10223000B105C9F0A6019501281B390B4A0B5B0BB0
:10224000DA01C901885B9B40A040B04060F00E9469
:102250000B0A80936B0510926E0510926F05109219
:1022600070051092710581E094E00E94540820915D
:1022700062053091630540916405509165058601C2
:102280007501E21AF30A040B150BE616F7060807A8
:10229000190708F41EC1A0926205B0926305C092AE
:1022A0006405D092650580917605883008F009C1F3
:1022B000809176058F5F80937605E0906605F090BB
:1022C00067050091680510916905E114F1040105A5
:1022D000110511F181E094E00E945408AE18BF0886
:1022E000C00AD10A6A157B058C059D0588F480918A
:1022F000290485FD04C080ED97E00E94B507109287
:10230000660510926705109268051092690504C071
:1023100080E090E00E94B50720917A05207C209310
:102320007A055091C2059091C1055917D1F180915C
:10233000C3058230B1F5205820937A05E091290435
:10234000F0E0E770F070E152FC4FE081E93010F00E
:1023500048E002C04E2F415030E013C03F5FA32F32
:10236000B0E0892F90E0FC01E856FA4F2081FD0192
:10237000E658FA4F2083A854BA4F2C930196982F11
:102380009F71341710F4951749F79093C105832F67
:10239000895C90917A05892B80937A053093B805F2
:1023A0001AC09091C3059430D1F49091B805E9EB2F
:1023B000F5E0ABE7B5E0292F30E02E0F3F1F02C05C
:1023C00081918D93E217F307D9F7995C80917A0593
:1023D000982B90937A0583E08093C30523C0809166
:1023E0005D05823029F4216020937A055E9A0FC042
:1023F00020937A055E98992319F481E08093C305B0
:102400008091C305833019F484E08093C305F89468
:102410008091290487706DE873E04BE755E00E94D6
:10242000CA0878945D9A80915C050E94F509E09154
:102430002904F0E0E770F070E152FC4F8AE795E084
:1024400060810E94A20CE0915C05EF5FE0935C0567
:10245000E83131F0F0E0EF5FFB4F8785882311F41E
:1024600010925C0580912904887199F18091720520
:1024700090917305880F991F90937305809372054F
:1024800083E0809300040E94AB0B0E949927609325
:102490006E0570936F0580937005909371056115BB
:1024A000710581059105A9F481E090E0A0E0B0E01C
:1024B00080936E0590936F05A0937005B09371059E
:1024C00008C080917605883009F45E9A89E080938F
:1024D00076058091290484FF63C0209172053091B4
:1024E00073052E7FC9019695879585759575281B6F
:1024F000390BC90196958795969587958373937344
:1025000023733373820F931FFC0114E0F695E79554
:102510001A95E1F7E80FF91F80916A0590E095950B
:1025200087959595879580549F4F2091740530919C
:1025300075058C01029FC001039F900D129F900DA5
:1025400011246FE070E00E94CC2D462FEF70FF70D9
:1025500081E091E09C01E29FC001E39F900DF29F1A
:10256000900D1124292F30E080916B0590E0959516
:1025700087959595879580549F4FBC01269FC001F4
:10258000279F900D369F900D11246FE070E00E9400
:10259000CC2D262F80916C0560916D050E94010E57
:1025A0005D980E94D40FDF91CF911F910F91FF9002
:1025B000EF90DF90CF90BF90AF900895809100048E
:1025C000843009F027CE80CD10921F0585E6EAEB16
:1025D000F4E0DF011D928A95E9F708951F93182F03
:1025E0008F3719F0883009F042C0E0911F05EE23C3
:1025F00009F45EC0E150E0931F05F0E0E654FB4FA4
:1026000010828AE596E06DE00E94B42A10E00DC0C9
:10261000E12FF0E0E654FB4F6081772767FD70956E
:102620008AE596E00E94B42A1F5F80911F05181763
:1026300078F38AE596E060E20E94B42A8AE596E0A3
:102640006DE00E94B42A10E00DC0E12FF0E0E654E6
:10265000FB4F6081772767FD70958AE596E00E94C1
:10266000B42A1F5F80911F05181778F31FC08B31A4
:1026700019F40E94E41222C08D3001F18A30F1F089
:1026800080911F058436A0F4612F772767FD709530
:102690008AE596E00E94B42A80911F05E82FF0E0B9
:1026A000E654FB4F10838F5F80931F0580E007C0C7
:1026B0008AE596E067E00E94A62BF8CF81E01F91A3
:1026C00008951F93CF93DF93C0E1D4E010E03BC0A7
:1026D0008AE596E06BE171E00E946D2D8AE596E057
:1026E000612F4AE050E00E94CB2C8AE596E068E238
:1026F00071E00E946D2D699170E080E090E0209182
:102700000F0430E040E050E00E94AD2D20E137E2C0
:1027100040E050E00E94AD2DDC01CB014091060469
:10272000509107046091080470910904480F591FE3
:102730006A1F7B1F8AE596E02AE030E00E94892C20
:102740001F5F183119F08881882311F6DF91CF912E
:102750001F910895EF92FF920F931F93882339F4EE
:102760008AE596E061EE79E00E94CE2B64C0682F86
:1027700070E06436710518F480E090E022C06E3B92
:10278000710548F46A55704080E090E02AE030E03E
:1027900040E050E014C0623D710548F4645B704055
:1027A00080E090E024E630E040E050E008C06D5C5E
:1027B000704080E090E028E532E040E050E00E9488
:1027C000AD2D24E630E040E050E00E94AD2D0E94A7
:1027D000F32D122F032FF42EE52E622F732F842F4B
:1027E000952F2AE030E040E050E00E94F32D8AE58A
:1027F00096E0BA01A9012AE030E00E947A2C8AE52D
:1028000096E06EE20E94A62B612F702F8F2D9E2DD9
:102810002AE030E040E050E00E94F32DAB01BC0123
:102820008AE596E02AE030E00E947A2C8AE596E07C
:1028300063E70E94E22B1F910F91FF90EF900895A4
:102840001F93CF93DF938AE596E067ED79E00E94CE
:10285000832B80912A04813041F48AE596E06EEB67
:1028600079E00E94CE2B10E055C0823029F48AE531
:1028700096E067EA79E0F5CF8430A9F78AE596E03B
:1028800063E979E0EECFC12FD0E0C930D1051CF06B
:10289000612F685C02C0612F6F5C8AE596E00E9440
:1028A000A62B8AE596E06BE879E00E94832BBE01B7
:1028B0006F5F7F4F8AE596E04AE050E00E943B2D33
:1028C0008AE596E060E879E00E94832BC65DDB4FE5
:1028D000E981E03188F48AE596E063E779E00E94D7
:1028E000832B698170E06F5F7F4F8AE596E04AE055
:1028F00050E00E944E2D0DC0F0E0E770F070EE0F3A
:10290000FF1FE155FC4F608171818AE596E00E94CE
:10291000702D1F5F80914205181708F4B4CF8AE527
:1029200096E068E579E00E94832B809142040E9442
:10293000AA138AE596E06DE379E00E94832B8091EB
:1029400043040E94AA138AE596E062E279E00E94BD
:10295000832B809144040E94AA138AE596E067E0E5
:1029600079E00E94832B40913A0450913B0460919E
:102970003C0470913D04411551056105710539F123
:102980008AE596E02AE030E00E94892C8AE596E00C
:1029900064ED78E00E94832B80913E040E9426081B
:1029A000AB01BC018AE596E02AE030E00E94892C68
:1029B0008AE596E060EB78E00E94832B8AE596E05A
:1029C00060913F044AE050E00E94DD2C06C08AE599
:1029D00096E067EA78E00E94CE2B8AE596E06AE806
:1029E00078E00E94832B60914004709141048AE555
:1029F00096E04AE050E00E94AE2C8AE596E06DE653
:102A000078E00E94832B60913904603150F470E0CB
:102A10006F5F7F4F8AE596E04AE050E00E944E2DBE
:102A200006C08AE596E064E678E00E94CE2B8AE54F
:102A300096E067E478E00E94832B8091380480FD63
:102A400003C06CE271E002C060E371E08AE596E0E9
:102A50000E94702D8AE596E06AE278E00E94832B5E
:102A60008091380481FD03C064E371E002C06DE32E
:102A700071E08AE596E00E94702D8AE596E06BE0B1
:102A800078E00E94832B8091380482FD03C064E3C8
:102A900071E002C06DE371E08AE596E00E94702D5E
:102AA0008AE596E06CEE77E00E94832B80913804F3
:102AB00083FD03C064E371E002C06DE371E08AE569
:102AC00096E00E94702DDF91CF911F9108951F9382
:102AD000CF93DF938AE596E069EF7AE00E94832B3B
:102AE0004091060450910704609108047091090414
:102AF0008AE596E02AE030E00E94892C8AE596E09B
:102B000063EE7AE00E94832B40910A0450910B04FB
:102B100060910C0470910D048AE596E020E130E0AC
:102B20000E94892C8AE596E06DEC7AE00E94832B66
:102B30008AE596E060910E044AE050E00E94DD2CA8
:102B40008AE596E067EB7AE00E94832B8AE596E0BF
:102B500060910F044AE050E00E94DD2C8AE596E087
:102B600061EA7AE00E94832BC0E1D4E010E012C059
:102B7000112331F08AE596E065E471E00E946D2D45
:102B80008AE596E069914AE050E00E94CB2C1F5FF5
:102B9000183119F08881882359F78AE596E00E9458
:102BA000AE2B8AE596E06BE87AE00E94832B8AE5FB
:102BB00096E0609128044AE050E00E94DD2C8AE50E
:102BC00096E066E77AE00E94832BE0912904F0E02A
:102BD000E770F070EE0FFF1FE154FC4F60817181D0
:102BE0008AE596E00E94702D8AE596E061E67AE03B
:102BF0000E94832B8091290490E088719070883026
:102C0000910589F0893091051CF4892B39F01BC09E
:102C10008031910569F04897B1F40FC08AE596E0DC
:102C200068E57AE00EC08AE596E06CE47AE009C0D7
:102C30008AE596E066E47AE004C08AE596E06CE313
:102C40007AE00E94CE2B8AE596E068E27AE00E9464
:102C5000832B40910204509103046091040470910D
:102C600005048AE596E02AE030E00E94892C8AE596
:102C700096E06FE07AE00E94832B8091290485FD25
:102C800003C067E471E002C06AE471E08AE596E09F
:102C90000E94702D8AE596E062EF79E00E94832B16
:102CA00081E094E00E945408AB01BC018AE596E003
:102CB0002AE030E00E947A2C8AE596E06DEE79E019
:102CC0000E94832B81E094E00E9454089B01AC0198
:102CD00060E472E48FE090E00E94F32D8AE596E0D4
:102CE000BA01A9012AE030E00E947A2C8AE596E038
:102CF0006AEE79E00E94CE2BDF91CF911F9108956B
:102D00002F923F924F925F926F927F928F929F92FB
:102D1000AF92BF92CF92DF92EF92FF920F931F93E9
:102D2000DF93CF9300D000D00F92CDB7DEB78C8366
:102D30009D834B018DB79EB79A838983ADB69EB7AD
:102D40009B830E948B271B012C018DB79EB788198E
:102D500099090FB6F8949EBF0FBE8DBF6DB67EB6B3
:102D60000894611C711CEE24FF24BB2454C08AE526
:102D700096E00E944A2A892B09F4B1C08AE596E0C0
:102D80000E947B2A282F93E0B916E1F09B1530F0C2
:102D900081E0B816B9F08B15D0F00EC095E0B916E9
:102DA00009F463C0B916E0F186E0B81659F097E06F
:102DB000B91609F094C05FC0233509F09CC0BB244C
:102DC000B3948DC02A3309F096C0B39488C0822F83
:102DD00080538A30A8F4C70173E0880F991F7A9551
:102DE000E1F7EE0CFF1CE80EF91E80ED9FEFE80EF8
:102DF000F91E822F992787FD9095E80EF91E6FC066
:102E0000283409F078C0E814F90409F074C0EE24FD
:102E1000FF2453E0B52E00E010E0CC24DD245FC099
:102E2000822F80538A3058F1822F8154863098F156
:102E30002C3209F060C0F301EE0DFF1D00830894F1
:102E4000E11CF11C8D2D992787FD90958827990FFE
:102E5000881F9927CC0CDD1CC80ED91E1070C02607
:102E6000D126E814F904C9F536C0243509F043C069
:102E700026E0B22E32C0822F80538A3040F494E094
:102E8000000F111F9A95E1F7005310400BC0822FDD
:102E90008154863070F484E0000F111F8A95E1F7A9
:102EA00007531040822F992787FD9095080F191F0F
:102EB00016C02A33A1F4C016D106E9F48AE596E0DB
:102EC0006EE471E00E94702D8C819D81B301A4019C
:102ED0000E94630727C015E0B12E00E010E00E94B9
:102EE0008B276219730984099509605D77408040DA
:102EF000904008F43CCF8AE596E06DE571E00E94D1
:102F0000702D6AE070E080E090E00E94BF2704C06E
:102F10008AE596E00E947B2A8AE596E00E944A2A8A
:102F2000892BB1F78A2D9B819C010FB6F8943EBF87
:102F30000FBE2DBF89819A810FB6F8949EBF0FBE38
:102F40008DBF0F900F900F900F900F90CF91DF914A
:102F50001F910F91FF90EF90DF90CF90BF90AF90B7
:102F60009F908F907F906F905F904F903F902F90A9
:102F70000895EF92FF920F931F93CF93DF93182F33
:102F8000092F7B018AE596E060E771E00E946D2DD4
:102F90008AE596E0B7014AE050E00E949D2CE114DA
:102FA000F10419F4C0E0D0E044C0812F902F9C01BF
:102FB00089018AE596E064E771E00E946D2DC0E02A
:102FC000D0E0D801EC91F0E0A4E0F595E795AA9562
:102FD000E1F7E153FC4F8AE596E060810E94A62B61
:102FE000D801EC91F0E0EF70F070E153FC4F8AE50E
:102FF00096E060810E94A62B8AE596E06CE20E9432
:10300000A62B8D2F992787FD90958827990F881FCC
:103010009927CC0FDD1FC80FD91FF80181918F01AF
:1030200090E0C827D9270894E108F108E114F104D9
:1030300041F68AE596E067E771E00E946D2D8AE52A
:1030400096E0BE0140E150E00E949D2C8AE596E0AA
:103050006AE771E00E94702DDF91CF911F910F916F
:10306000FF90EF900895EF92FF920F931F937C01D2
:103070000AE516E0C8016F2D70E04AE050E00E94BA
:103080009D2CC8016EE20E94A62BB701B4E0769594
:103090006795BA95E1F76F707070C8014AE050E02B
:1030A0000E949D2CC8016EE20E94A62B8FE0E822B0
:1030B000FF24C801B7014AE050E00E949D2C1F91F7
:1030C0000F91FF90EF9008950F931F93CF93DF938D
:1030D0002091B9042F3FA9F58AE596E06CE675E0EA
:1030E0000E94832B84E393E00E9433188AE596E0E4
:1030F0006BE475E00E94832B809143059091440519
:103100000E9433188AE596E068E175E00E94CE2BB4
:103110008AE596E065EF74E00E94CE2B8AE596E0A2
:103120006DED74E00E94CE2B8AE596E068EB74E0CA
:103130000E94CE2B8AE596E00E94AE2B0E942014BE
:1031400069C012160CF066C0332727FD30958091B8
:10315000420590E0821793070CF45CC08AE596E084
:1031600063EA74E00E94832B6091B904772767FDBE
:1031700070958AE596E04AE050E00E944E2D8AE57F
:1031800096E068E774E00E94832B10E004E13AC007
:10319000C12FD0E0CC0FDD1FCF5DDA4F288130E0AA
:1031A0008091B904992787FD9095019728173907D1
:1031B00041F58AE596E06CE771E00E946D2D8AE5A5
:1031C00096E0602F4AE050E00E94CB2C8AE596E022
:1031D00060E871E00E946D2DE981F0E0E770F07029
:1031E000EE0FFF1FE155FC4F608171818AE596E08B
:1031F0000E946D2D8AE596E064E871E00E946D2DD5
:103200000F5F1F5F80914105181710F28AE596E065
:103210000E94AE2BDF91CF911F910F910895CF9215
:10322000DF92EF92FF920F931F93DF93CF93CDB76F
:10323000DEB76C970FB6F894DEBF0FBECDBF282F58
:103240008091B9048F3F09F052C1822F992787FDE1
:103250009095A92FB92FFC013A97EF36F10508F0A8
:103260003FC1EC5CFF4FEE0FFF1F0590F491E02D86
:1032700009948AE294E06BE170E00E94B91730C1D2
:103280008AE294E06BE170E00E94801622C18AE538
:1032900096E066E871E00E94702D85E78983DE0183
:1032A0001296EAE2F4E08BE101900D928150E1F791
:1032B000CE0101966CE10E94A20C0E94AB0B83E050
:1032C0008093000468EC70E080E090E00E94BF27EB
:1032D00080910004843009F003C18FE70E94BA098D
:1032E0000E94CE098983853509F0FAC08AE596E007
:1032F0006AE574E00E94CE2B8AE596E06CE374E008
:103300000E94CE2B8AE596E06EE174E0B2C08AE5B9
:1033100096E06EE971E00E94702D89E68983CE0106
:10332000019661E00E94A20C0E94AB0B83E08093A7
:10333000000468EC70E080E090E00E94BF2780917C
:103340000004843009F0CCC08FE70E94BA090E94C3
:10335000CE0989838E010E5F1F4FBDE1EB2EF12C4C
:10336000EC0EFD1E0E94CE09D8018D938D01AE1585
:10337000BF05C1F7AAE2B4E0FE0132968BE10190ED
:103380000D928150E1F78981893409F0A9C08AE55D
:1033900096E060E074E00E94CE2B8AE596E062EE53
:1033A00073E00E94CE2B8AE596E064EC73E061C086
:1033B0008AE596E068EB71E00E94702D8EEF8093B5
:1033C000B9048EC020522750422F4053242F332758
:1033D00027FD30958091420590E0821793073CF4D9
:1033E0008AE596E067EC71E00E94702D79C0409309
:1033F000B9046FC084E18093B9048AE596E06DE872
:1034000073E037C085E18093B9048AE596E066E50C
:1034100073E02FC086E18093B9048AE596E06FE1FE
:1034200073E027C087E18093B9048AE596E065EDF3
:1034300072E01FC088E18093B9048AE596E064ECED
:1034400072E017C089E18093B9048AE596E060EBE9
:1034500072E00FC08AE18093B9048AE596E06BE9D7
:1034600072E007C08BE18093B9048AE596E063E7D8
:1034700072E00E94CE2B34C08AE596E069E572E0E6
:103480000E94CE2B8091380491E01DC08AE596E021
:1034900063E472E00E94CE2B8091380492E013C066
:1034A0008AE596E06EE272E00E94CE2B80913804AD
:1034B00094E009C08AE596E063E172E00E94CE2BB9
:1034C0008091380498E08927809338048FEF8093A7
:1034D000B9040E94641804C08AE596E00E947B2A21
:1034E0008AE596E00E944A2A892BB1F776C1822F9D
:1034F0000E94EE12882309F470C180911F05882371
:1035000021F48FEF8093B90460C18AEB94E060E00E
:1035100070E040E050E00E9442069B01AC019091B7
:10352000B904963109F47CC0973164F4943109F4FC
:1035300063C095310CF06AC0892F81508D3008F03E
:1035400034C113C0993109F4E5C09A313CF4973184
:1035500009F470C0983109F028C1D2C09A3109F439
:10356000E7C09B3109F021C1F4C0E92FFF27E7FD37
:10357000F0958091420590E08E179F070CF415C1DD
:10358000DA01C9010197A109B1094097A105B10567
:1035900048F0A4E1FA2E00E010E06F010894C108A1
:1035A000D10825C0E65DFB4F822F81508083E5C0A6
:1035B000612F70E0660F771F6F5D7A4FFB0180818E
:1035C00090E08C159D0591F48F2D90E0A0E0B0E087
:1035D00082179307A407B50741F4F601E65DFB4F98
:1035E000DB0111968C91818301E0F3941F5F809140
:1035F00041051817E8F2BFC02F3F310541055105BD
:1036000011F008F0D2C020934204B7C02F3F31051B
:103610004105510511F008F0C8C020934304ADC026
:103620002F3F31054105510511F008F0BEC0209330
:103630004404A3C08091BA048062803719F58BEBF3
:1036400094E060E070E040E050E00E9442069B01A0
:10365000AC01DC01CB010197A109B1090897A105D3
:10366000B10508F0B5C0CA01B90124ED30E340E06E
:1036700050E00E94AD2D9B01AC012A5E3C4A4A46B7
:10368000554E24C0863611F58BEB94E060E070E077
:1036900040E050E00E9442069B01AC01DC01CB01FE
:1036A0000197A109B1090797A105B10508F090C0DC
:1036B000CA01B90128EA31E640E050E00E94AD2D90
:1036C0009B01AC01245E3C434E46544E211531050E
:1036D0004105510561F0DA01C9018054914EAD49AF
:1036E000B8418158904FAA4FB24008F05EC0209375
:1036F0003A0430933B0440933C0450933D043DC056
:103700002F3F31054105510511F008F04EC02093BF
:103710003E0433C0DA01C9010197A109B1098F3F05
:103720009105A105B10508F040C020933F0425C0D4
:10373000DA01C901845C9940A040B0408D549D419C
:10374000A040B04030F4309341042093400401E0A5
:1037500001C000E0211531054105510511F48FEF3D
:1037600007C0213131054105510528F4822F8150D0
:103770008093390402C00023C1F080912005882382
:10378000D1F480910A0490910B04A0910C04B091A3
:103790000D040196A11DB11D80930A0490930B04A2
:1037A000A0930C04B0930D0406C08AE596E069ED81
:1037B00071E00E94702D0E94E4128FEF8093B90493
:1037C0008AE596E06AE00E94E22B0E94641805C038
:1037D00021E030E040E050E07ECF6C960FB6F894E8
:1037E000DEBF0FBECDBFCF91DF911F910F91FF9034
:1037F000EF90DF90CF9008958AE596E067EC71E056
:103800000E94CE2B8AE596E06FEA71E00E94CE2BF3
:103810008AE596E00E944A2A892B31F08AE596E0F3
:103820000E947B2A0E940F190E94DA0E823019F042
:10383000833069F405C08AE596E061E971E004C06F
:103840008AE596E06AE771E00E94CE2B08958FEF3B
:103850008093B904109220050E9464180CC08AE578
:1038600096E00E944A2A892B31F08AE596E00E9470
:103870007B2A0E940F198091B9048E3F81F7089529
:103880008091B904843009F46FC0853084F48130AC
:1038900009F45BC0823024F48F3F09F085C014C066
:1038A000823009F457C0833009F07EC058C086309A
:1038B00009F464C086300CF45CC0873009F463C03E
:1038C000893009F071C06AC08AE596E06FED77E053
:1038D0000E94CE2B84E393E00E9433188AE596E0A1
:1038E00067EC77E00E94CE2B8AE596E062EA77E00B
:1038F0000E94CE2B8AE596E068E777E00E94CE2B07
:103900008AE596E067E577E00E94CE2B8AE596E0AF
:103910006AE277E00E94CE2B8AE596E064E077E0E9
:103920000E94CE2B8AE596E060EE76E00E94CE2BD8
:103930008AE596E069EB76E00E94CE2B8AE596E078
:103940000E94AE2B0E9467152FC08AE596E06CE9B5
:1039500076E028C08AE596E067E776E023C08AE54E
:1039600096E062E676E01EC08AE596E063E476E0E3
:1039700019C08AE596E06FEF75E014C08AE596E01D
:103980006AEE75E00FC08AE596E065ED75E00E948D
:10399000CE2B8AE596E06FE875E004C08AE596E0F4
:1039A00069E775E00E94CE2B6AE070E080E090E06D
:1039B0000E94BF2704C08AE596E00E947B2A8AE520
:1039C00096E00E944A2A892BB1F708952F923F92E0
:1039D0004F925F926F927F928F929F92AF92BF921F
:1039E000CF92DF92EF92FF920F93DF93CF93CDB7F9
:1039F000DEB7A8970FB6F894DEBF0FBECDBF7E012D
:103A00000894E11CF11C80E1D7011D928A95E9F729
:103A10005E985D988AE596E067EF71E00E94702DF0
:103A20000E949F0F20E431EE4DE958E129A33AA30B
:103A30004BA35CA380EC91EDA8E9BBE18D8F9E8F39
:103A4000AF8FB8A324EF31E040E050E0298F3A8FE8
:103A50004B8F5C8F80E593ECA0E0B0E08D8B9E8B6C
:103A6000AF8BB88F20E4422E21EE522E2DE9622E2C
:103A700028E1722E88249924540100E02224332462
:103A8000198A1A8A1B8A1C8A02C18AE596E00E945A
:103A90007B2A8C32D9F1843421F0833209F0C5C0FD
:103AA00024C08AE596E064E40E94A62B8AE596E0AD
:103AB00040E451EE6DE978E12AE030E00E94FB2C11
:103AC0008AE596E06CE20E94A62B8AE596E040EC3F
:103AD00051ED68E97BE12AE030E00E94FB2C8AE5A9
:103AE00096E06CE20E94E22BD2C019821A821B82FD
:103AF0001C821D821E821F82188619861A861B86CA
:103B00001C861D861E861F86188A42C00F5F0430E1
:103B100009F0BDC069817A818B819C8128EE33E0F8
:103B200040E050E00E94AD2D69A37AA38BA39CA333
:103B30006D817E818F8198850E94AD2D6D8F7E8FE6
:103B40008F8F98A329853A854B855C85298F3A8F7D
:103B50004B8F5C8F6D857E858F85988928EE33E04D
:103B600040E050E00E94AD2D6D8B7E8B8F8B988F47
:103B700060527E448040904068F48CE162E30E9491
:103B8000EA0949A05AA06BA07CA08824992454017A
:103B900000E07DC08D899E89AF89B88D805395479F
:103BA000A040B04018F48CE162E2E9CF2D893E8953
:103BB0004F89588D20543C494040504018F48CE1C6
:103BC00066E2DDCF2D893E894F89588D2055334CD3
:103BD0004040504018F48CE162E1D1CF2D893E89FC
:103BE0004F89588D20563A4E4040504018F48CE191
:103BF00065E1C5CF2D893E894F89588D20573141C8
:103C00004140504018F48CE161E0B9CF2D893E89E4
:103C10004F89588D205A36484140504018F48CE165
:103C200063E0ADCF8CE165E0AACF80538A3078F5B0
:103C3000C02EDD24CC0CDD1CCC0CDD1CA1E0B0E0E2
:103C4000AC0FBD1FCA0EDB1E282F332727FD309572
:103C5000432F532F2DA33EA34FA358A7D6016D91F9
:103C60007D918D919C912AE030E040E050E00E94EF
:103C7000AD2D2DA13EA14FA158A5260F371F481FDE
:103C8000591FD6012D933D934D935C9313978AE56D
:103C900096E00E944A2A892B09F0F7CE81149104FC
:103CA000A104B10489F4C301B2010E94600A61E079
:103CB00070E080E090E00E94BF2722242A94332401
:103CC000198A1A8A1B8A1C8A298D3A8D4B8D5C8D24
:103CD00082169306A406B506D0F40E940B0A298921
:103CE0003A894B895C89280F311D411D511D298B53
:103CF0003A8B4B8B5C8B381608F4382E821508F4FF
:103D0000282E0894811C911CA11CB11C5AC0C3010F
:103D1000B20128EE33E040E050E00E94F32D8AE546
:103D200096E0BA01A9012AE030E00E947A2C8AE5E7
:103D300096E06CE20E94A62B8AE596E0632D4AE0AD
:103D400050E00E94CB2C8AE596E06CE20E94A62B04
:103D500069897A898B899C89A50194010E94F32D38
:103D60008AE596E0BA01A9012AE030E00E947A2CA7
:103D70008AE596E06CE20E94A62B8AE596E0622D29
:103D80004AE050E00E94CB2C8AE596E06CE20E946B
:103D9000E22B8D899E89AF89B88D480E591E6A1E07
:103DA0007B1E2D8D3E8D4F8D58A124153505460562
:103DB000570520F449A05AA06BA07CA08824992420
:103DC000540189A19AA1ABA1BCA1885E9340A040F7
:103DD000B04009F05CCFA8960FB6F894DEBF0FBED6
:103DE000CDBFCF91DF910F91FF90EF90DF90CF90FB
:103DF000BF90AF909F908F907F906F905F904F900B
:103E00003F902F900895DF92EF92FF920F931F93B0
:103E1000CF93DF930E949927DC01CB010E94A52D4F
:103E200010920A0410920B0410920C0410920D04CC
:103E3000DD24E0900A04F0900B0400910C04109132
:103E40000D04102F0F2DFE2CEE246FEF70E080E09C
:103E500090E00E94832DE60EF71E081F191FE092C6
:103E60000A04F0920B0400930C0410930D04D394F5
:103E700084E0D816F1F6C0E1D4E010E015C062E3AA
:103E800070E080E090E00E94832D6F5FE0E1F4E05D
:103E900090E004C08191861791F39F5F9117D0F352
:103EA00069931F5F183119F08881882341F7DF91EA
:103EB000CF911F910F91FF90EF90DF900895EF92B7
:103EC000FF920F931F93CF93DF9380E090E0A0E0E9
:103ED000B0E0C0E0D1E0EE24F82E092F1A2F84ECD8
:103EE00095E0BE010E94B326A8019701280F311D5D
:103EF000411D511DDA01C901219631E0C430D307BB
:103F000051F78E519E4BA14CBE4D19F020E030E090
:103F100018C0C4E0D1E084EC95E0BE010E94B32655
:103F2000FE01E350FD4F8083219651E0CD32D5074D
:103F300091F720E030E080910104893011F421E014
:103F400030E0C901DF91CF911F910F91FF90EF9069
:103F500008950F931F93CF93DF93EC01062F15E085
:103F6000115071F084EC95E0BE010E94B326081751
:103F700051F084EC95E0BE01402F0E94BA26F0CFAC
:103F800082E00E94B70FDF91CF911F910F910895AA
:103F9000CF92DF92EF92FF920F931F93CF93DF9315
:103FA000C8E1D0E000E011E05EE1C52E5EEBD52E69
:103FB00051ECE52E5EEDF52EA70196010C2E04C006
:103FC00056954795379527950A94D2F7C801622FE1
:103FD0000E94A91F28970F5F1F4F8FEFC83FD80778
:103FE00059F7C4E0D1E0FE01E350FD4FCE016081FE
:103FF0000E94A91F219681E0CD32D807A1F7DF9159
:10400000CF911F910F91FF90EF90DF90CF90089587
:10401000CF92DF92EF92FF920F931F93DF93CF9394
:10402000CDB7DEB7E8970FB6F894DEBF0FBECDBFB1
:104030007C01FC018281873009F49BC0883090F4B8
:10404000833009F44EC0843030F4813021F1823065
:1040500009F062C133C0853009F461C0863008F0D0
:104060007CC04AC0883609F4C9C0893650F4863607
:1040700009F4A2C0873608F0B8C0853609F04CC1F3
:1040800082C08A3609F4F3C08A3608F4E7C0873C58
:1040900009F042C12EC1C70161E049E250E00E942F
:1040A000710E01E014E0C701F80161918F010E94D7
:1040B000510EF4E00A321F07B1F738C1C70162E0C0
:1040C0004BE150E00E94710E0AE214E0C701F801D2
:1040D00061918F010E94510EF4E005341F07B1F782
:1040E00025C1C70163E041E050E00E94710E0E94CB
:1040F000DA0E682FC70118C1C70164E041E050E043
:104100000E94710EC70161E00E94510E8AE596E09F
:10411000F70164810E94B42A0E94E61C0DC14091FF
:10412000410550E0440F551FC70165E00E94710E24
:1041300000E010E009C0F801EF5DFA4FC7016081AF
:104140000E94510E0F5F1F4F8091410590E0880F34
:10415000991F0817190778F3E9C0C70166E042E024
:1041600050E00E94710EC70164E373E00E94620E8A
:10417000DDC0C70167E041E050E00E94710EC70159
:1041800060914205D1C0C70165E641E050E00E9460
:10419000710EF70187819085899709F0C3C0D70117
:1041A000E1E0F4E019968C9119978193119684E0DF
:1041B000EA32F807B9F79AC0C70166E641E050E075
:1041C0000E94710EF701878190854B9709F0AAC074
:1041D000D701EAE2F4E019968C9119978193119630
:1041E00084E0E534F807B9F781C0C70167E641E02C
:1041F00050E00E94710E0E94C81F78C0C70168E697
:1042000041E050E00E94710E85E78983DE0112963D
:10421000EAE2F4E08BE101900D928150E1F7CE01EA
:1042200001966CE10E94A20C0E94AB0B83E080938C
:10423000000468EC70E080E090E00E94BF2780916D
:104240000004843009F06EC08FE70E94BA090E9412
:10425000CE098983853509F065C048C0C70169E684
:1042600041E050E00E94710E0E94E1073FC0C7018B
:104270006AE641E050E00E94710E89E68D8FCE0122
:104280004D9661E00E94A20C0E94AB0B83E08093EC
:10429000000468EC70E080E090E00E94BF2780910D
:1042A0000004843009F03EC08FE70E94BA090E94E2
:1042B000CE098D8F8E01025E1F4F69E3C62ED12C71
:1042C000CC0EDD1E0E94CE09F80181938F01EC1502
:1042D000FD05C1F7AAE2B4E0FE017E968BE10190F4
:1042E0000D928150E1F78D8D8934E1F4C70161E0D1
:1042F0001BC0C70167EC41E050E00E94710EC7018E
:1043000061E00E94510E8AE596E0F70164810E9407
:10431000B42A10924B0410C0C7016AEC41E050E08F
:104320000E94710EC70160E00E94510E8AE596E07E
:10433000F70164810E94B42AE8960FB6F894DEBFB4
:104340000FBECDBFCF91DF911F910F91FF90EF90E6
:10435000DF90CF9008956F927F928F929F92AF924D
:10436000BF92CF92DF92EF92FF920F931F93CF9362
:10437000DF9381E080934B0421E5E22E24E0F22ECE
:1043800094E0C92ED12CCE0CDF1C84E6682E04E00C
:10439000702E16E0912EB5E08B2EA2E0AA2EF3E04F
:1043A000BF2EB8C08AE596E00E944A2A892B09F4FC
:1043B000B1C0A9C08AE596E00E947B2A982F80931D
:1043C0004C0480914D04833021F1843028F48130F5
:1043D00099F08230B8F409C0853009F450C08530B6
:1043E00020F1863009F08FC067C0953B09F08BC083
:1043F00081E080934D0487C0923609F082C0A0927C
:104400004D0481C090934E0490934F04B0924D049C
:104410007AC090935104F701118280914F0489274B
:1044200080934F0470924D046EC0D92FC0E020914C
:104430005104309152042C2B3D2B30935204209385
:10444000510480914F04892780934F0480924D043A
:104450002536310508F457C08CE494E06CEC41E05B
:1044600050E00E94710E8CE494E061E00E94510ED5
:104470008AE596E0609150040E94B42A42C02091DF
:10448000530430915404F901E45BFB4F9187809110
:104490004F04892780934F042F5F3F4F309354047C
:1044A00020935304809151049091520428173907A6
:1044B00050F190924D0427C000914F04091729F440
:1044C0008CE494E00E94082013C010914E048CE408
:1044D00094E06BEC42E050E00E94710E8CE494E0BA
:1044E000612F0E94510E8CE494E0602F0E94510EC7
:1044F000F601862D11928A95E9F7109254041092D4
:10450000530410924D048AE596E00E944A2A892BB2
:1045100009F050CF80914B04813009F443CFDF91F3
:10452000CF911F910F91FF90EF90DF90CF90BF90B0
:10453000AF909F908F907F906F9008951F931091F0
:10454000B9041F3F09F0A4C0863409F47AC0873447
:1045500014F5803309F48AC0813384F48D3009F472
:1045600077C18E3024F48A3009F07AC171C18B3161
:1045700009F44BC0813209F073C132C0883309F4A9
:1045800065C088330CF460C0893309F46DC0803491
:1045900009F066C12CC0863609F453C0873684F40E
:1045A000833561F1843534F48934D9F1823509F0E9
:1045B00057C13EC0883549F18A3509F051C165C0FF
:1045C0008337E1F0843734F4893659F1823709F0C2
:1045D00047C12EC08837C9F08A3709F041C155C09C
:1045E00081E094E069E270E00E94B91739C181E08E
:1045F00094E069E270E00E9480162AC10E94C81F00
:104600008AE596E064E072E006C00E945F1F8AE5DA
:1046100096E06EE172E00E94702D8EEF8093B904F7
:104620001FC10E94E1078AE596E06DE372E006C0D3
:104630000E94031F8AE596E066E572E00E94702DF5
:1046400007C10E9461130CC180532CC08AE596E01B
:1046500067E671E00E94CE2B90912904892F885F34
:104660008871977E892B0CC089E01CC08AE596E092
:1046700064E571E00E94CE2B8091290490E28927A5
:10468000809329041093B904E3C00E94FC1B09C065
:104690000E94EE12882309F4E3C080911F0588234D
:1046A00021F48FEF8093B904D3C08AEB94E060E0EB
:1046B00070E040E050E00E9442069B01AC01809116
:1046C000B904843009F441C0853044F4823041F1AA
:1046D000833094F5813009F097C00DC0863009F41D
:1046E00067C086300CF43EC0873009F469C0893059
:1046F00009F08AC075C0DA01C9018154914EAD49F3
:10470000B8418F57904FAA4FB24008F07DC0209318
:1047100006043093070440930804509309049BC097
:1047200020930A0430930B0440930C0450930D041F
:1047300081E0809320058FC0283031054105510567
:1047400008F062C020930E0486C0DA01C901019707
:10475000A109B1090A97A105B10508F055C0209338
:104760000F0479C08AEB94E065E471E00E945E0773
:1047700010E00EC0183130F4E12FF0E0EF5FFB4F96
:1047800087871F5F80E090E065E471E00E945E072C
:10479000009759F00E944007009761F706C0E12F8B
:1047A000F0E0EF5FFB4F17861F5F1831C0F353C077
:1047B000253031054105510538F5209328044BC0BB
:1047C000DA01C9010197A109B1090697A105B1054F
:1047D000D8F480912904887F822B809329043BC0E0
:1047E000DA01C901805B9440A040B04081559D4BE7
:1047F000A140B04048F42093020430930304409356
:1048000004045093050427C08AE596E069ED71E041
:104810000E94702D13C080910A0490910B04A09106
:104820000C04B0910D040196A11DB11D80930A04E2
:1048300090930B04A0930C04B0930D040E94E41217
:104840008FEF8093B9048AE596E06AE00E94E22B3C
:104850000E94401C05C0809120058823E1F2EECF24
:104860001F9108958FEF8093B904109220050E9444
:10487000401C0CC08AE596E00E944A2A892B31F040
:104880008AE596E00E947B2A0E949E228091B904CC
:104890008E3F81F76AE070E080E090E00E94BF27E1
:1048A00004C08AE596E00E947B2A8AE596E00E9491
:1048B0004A2A892BB1F708957F928F929F92AF92E7
:1048C000BF92CF92DF92EF92FF920F931F93DF93ED
:1048D000CF93CDB7DEB7AA970FB6F894DEBF0FBE61
:1048E000CDBF0E948B276B017C0181E00E94CC0A26
:1048F00004C08AE596E00E947B2A8AE596E00E9441
:104900004A2A892BB1F711E042E6742E32E0832E59
:10491000912C8C0E9D1E5E010894A11CB11C03E01D
:104920000E948B2720E030E06C197D098E099F09D9
:10493000693C71058105910510F021E030E0812F7F
:1049400090E028233923232BA9F10E948B276B01A8
:104950007C015D9A80ED97E00E94B5077982D401D1
:10496000E1E0F4E089E201900D928150E1F7C501A8
:104970006AE20E94A20C5D9880E090E00E94B50778
:10498000009300040E94AB0B62E370E080E090E0D3
:104990000E94BF2780910004843059F400930004E2
:1049A0008FE70E94BA090E94CE09823411F410E008
:1049B00001C011E08EE00E94E628892B21F511E06C
:1049C00022C08AE596E00E947B2A8D30910569F02D
:1049D0008E3091051CF40A97B1F407C0833291051B
:1049E00069F08234910579F40CC08AE596E066E4BA
:1049F00071E00E94CE2B0E94322405C00E94E61C6A
:104A000002C00E94AB218AE596E00E944A2A892BC7
:104A100009F486CFD6CF8AE596E00E944A2A049709
:104A20000CF18AE596E00E947B2A82349105D1F44C
:104A30008AE596E00E947B2A8E34910599F48AE5F6
:104A400096E00E947B2A8434910561F48AE596E021
:104A50000E947B2A819731F480E090E00E94B507A4
:104A60000E945C2408958F929F92AF92BF92CF9242
:104A7000DF92EF92FF920F931F938EE00E94E62841
:104A8000892B09F08AC068EC70E080E090E00E9419
:104A9000BF2780E090E00E94B5070E948B275B0152
:104AA0006C0150ECE52E52E1F52E012D112DE60E94
:104AB000F71E081F191F06C08EE00E94E628892BEA
:104AC00009F063C00E948B276E157F058007910750
:104AD00098F38EE00E94E628892B09F056C080EDFD
:104AE00097E00E94B5070E948B277B018C019924D7
:104AF0009394882488E496E2A0E0B0E0A80EB91E62
:104B0000CA1EDB1E29C0AE14BF04C006D10638F48D
:104B100080ED97E00E94B507882483941DC00E9411
:104B20008B276E197F09800B910B693C71058105FC
:104B3000910590F00E948B277B018C0180E09920E9
:104B400009F481E0982E882319F480E090E002C0F7
:104B500080ED97E00E94B5078EE00E94E628892B41
:104B600091F280E090E00E94B5070E949927DC0155
:104B7000CB010E94A52D882011F00E94E1070E9420
:104B8000031F0E94C81F0E9467158AE596E063E72D
:104B900072E00E94702D0E945C241F910F91FF9083
:104BA000EF90DF90CF90BF90AF909F908F9008953F
:104BB00080E066EA77E042E050E00E94C626089571
:104BC000EF92FF920F931F930E94970E89E061E08E
:104BD0000E94532889E060E00E94922886E061E00C
:104BE0000E94532885E061E00E9453288EE060E037
:104BF0000E94532888E060E00E94532888E061E02A
:104C00000E94922881E161E00E94532881E160E0E6
:104C10000E9492280E94AC0E8AE596E040E052EC99
:104C200061E070E00E94C3290E945F1F892B39F068
:104C30008AE596E06AE872E00E94702D0AC08AE573
:104C400096E067EA72E00E946D2D0E94E1070E94E3
:104C5000C81F81E08093AE031092770583E08093B4
:104C600080008AE1809381008FEF9FEF909389000D
:104C70008093880080916F00806280936F008FEF37
:104C8000809376050E94D82580E00E94CC0A80910E
:104C90005C050E94F50978940E948B277B018C01AA
:104CA000809176058F3F09F04FC00E948B276E19C7
:104CB0007F09800B910B605D77408040904008F049
:104CC00043C0EECF8AE596E00E947B2A8AE596E013
:104CD0000E944A2A892BB1F78AE596E069EC72E0D6
:104CE0000E94702D68EC70E080E090E00E94BF2789
:104CF0000E940B254091020450910304609104042A
:104D0000709105048AE596E00E94C3290E9433252C
:104D10005E9880E090E00E94B5070E94AB0B109275
:104D2000C1051092C2051092C3058091290490E03C
:104D300084FF14C020E088719070489709F421E046
:104D4000822F0E94BB0E0AC080ED97E00E94B5073B
:104D50008EE061E00E9492285E9AB8CF1F910F9179
:104D6000FF90EF900895F999FECF72BD61BDF89A5A
:104D700080B50895F999FECF1FBA72BD61BD40BDDF
:104D80000FB6F894FA9AF99A0FBE0895823000F59A
:104D9000E82FF0E0EE0FFF1FEB53FA4F71836083B3
:104DA000882319F08130A1F408C0809169008C7FBC
:104DB000842B80936900E89A089580916900440FDC
:104DC000551F440F551F837F842B80936900E99AF8
:104DD00008951F920F920FB60F9211242F933F93B5
:104DE0004F935F936F937F938F939F93AF93BF93F3
:104DF000EF93FF938091C5059091C605892B29F00B
:104E0000E091C505F091C6050995FF91EF91BF911D
:104E1000AF919F918F917F916F915F914F913F9152
:104E20002F910F900FBE0F901F9018951F920F9209
:104E30000FB60F9211242F933F934F935F936F936D
:104E40007F938F939F93AF93BF93EF93FF93809143
:104E5000C7059091C805892B29F0E091C705F0910D
:104E6000C8050995FF91EF91BF91AF919F918F91E7
:104E70007F916F915F914F913F912F910F900FBE56
:104E80000F901F9018951F920F920FB60F9211243A
:104E90002F933F938F939F93AF93BF938091CD05B3
:104EA0009091CE05A091CF05B091D0053091D1055C
:104EB0000196A11DB11D232F2D5F2D3720F02D57F9
:104EC0000196A11DB11D2093D1058093CD0590932E
:104ED000CE05A093CF05B093D0058091C9059091E0
:104EE000CA05A091CB05B091CC050196A11DB11DBD
:104EF0008093C9059093CA05A093CB05B093CC05C8
:104F0000BF91AF919F918F913F912F910F900FBEC5
:104F10000F901F9018958FB7F8942091CD05309180
:104F2000CE054091CF055091D0058FBFB901CA0180
:104F300008959FB7F8942091C9053091CA05409112
:104F4000CB055091CC0586B5A89B06C08F3F21F0BC
:104F50002F5F3F4F4F4F5F4F9FBF542F432F322F35
:104F60002227280F311D411D511D82E0220F331FC2
:104F7000441F551F8A95D1F7B901CA0108959B01B5
:104F8000AC017FB7F8948091C9059091CA05A091B2
:104F9000CB05B091CC0566B5A89B05C06F3F19F055
:104FA0000196A11DB11D7FBFBA2FA92F982F882769
:104FB000860F911DA11DB11D62E0880F991FAA1FC8
:104FC000BB1F6A95D1F7BC012DC0FFB7F894809143
:104FD000C9059091CA05A091CB05B091CC05E6B565
:104FE000A89B05C0EF3F19F00196A11DB11DFFBFA1
:104FF000BA2FA92F982F88278E0F911DA11DB11DA3
:10500000E2E0880F991FAA1FBB1FEA95D1F7861B04
:10501000970B885E9340C8F221503040404050408A
:1050200068517C4F211531054105510571F60895F0
:10503000789484B5826084BD84B5816084BD85B573
:10504000826085BD85B5816085BDEEE6F0E080813A
:1050500081608083E1E8F0E010828081826080835B
:10506000808181608083E0E8F0E0808181608083DE
:10507000E1EBF0E0808184608083E0EBF0E0808110
:1050800081608083EAE7F0E08081846080838081B2
:10509000826080838081816080838081806880835A
:1050A0001092C1000895CF93DF93482F50E0CA01BA
:1050B0008F5B944FFC013491435D544FFA0184910E
:1050C000882369F190E0880F991FFC01E15FF44F9C
:1050D000A591B491FC01E75EF44FC591D49166238C
:1050E00051F42FB7F8948C91932F909589238C933A
:1050F000888189230BC0623061F42FB7F8948C91BA
:10510000932F909589238C938881832B88832FBF3D
:1051100006C09FB7F8948C91832B8C939FBFDF912F
:10512000CF910895482F50E0CA018B5A944FFC014B
:105130002491CA018F5B944FFC019491435D544FBD
:10514000FA013491332309F440C0222351F1233072
:1051500071F0243028F42130A1F0223011F514C070
:105160002630B1F02730C1F02430D9F404C080914A
:1051700080008F7703C0809180008F7D80938000B6
:1051800010C084B58F7702C084B58F7D84BD09C0FF
:105190008091B0008F7703C08091B0008F7D8093A5
:1051A000B000E32FF0E0EE0FFF1FE75EF44FA59194
:1051B000B4912FB7F894662321F48C9190958923AC
:1051C00002C08C91892B8C932FBF0895682F70E0BB
:1051D000CB018B5A944FFC012491CB018F5B944FF0
:1051E000FC014491635D744FFB019491992319F480
:1051F00020E030E03CC0222351F1233071F0243014
:1052000028F42130A1F0223011F514C02630B1F07D
:105210002730C1F02430D9F404C0809180008F770A
:1052200003C0809180008F7D8093800010C084B582
:105230008F7702C084B58F7D84BD09C08091B00096
:105240008F7703C08091B0008F7D8093B000892F4D
:1052500090E0880F991F8D5D944FFC01A591B4914A
:105260008C9120E030E0842311F021E030E0C9018E
:10527000089508951F920F920FB60F9211242F9345
:105280003F934F938F939F93EF93FF938091C00031
:1052900082FD1DC04091C600209112063091130678
:1052A0002F5F3F4F2F733070809114069091150639
:1052B0002817390771F0E0911206F0911306EE52AB
:1052C000FA4F4083309313062093120602C0809158
:1052D000C600FF91EF919F918F914F913F912F9138
:1052E0000F900FBE0F901F901895E0916606F091F9
:1052F0006706E05CFF4F8191919120813181821B93
:10530000930B8F739070892B11F00E9439290895A7
:105310001F920F920FB60F9211242F933F938F93EA
:105320009F93EF93FF9320915606309157068091FB
:105330005806909159062817390731F48091C10019
:105340008F7D8093C10014C0E0915806F0915906FA
:10535000EA5EF94F20818091580690915906019696
:105360008F73907090935906809358062093C600CF
:10537000FF91EF919F918F913F912F910F900FBED1
:105380000F901F901895AF92BF92DF92EF92FF920D
:105390000F931F93CF93DF93EC017A018B01DD24F0
:1053A000403081EE580780E0680780E0780711F010
:1053B000DD24D39491E0A92EB12CEC89FD89DD2068
:1053C00069F0C50108A002C0880F991F0A94E2F78E
:1053D000808360E079E08DE390E005C0108260E8B2
:1053E00074E88EE190E0A80197010E94F32D21500E
:1053F000304040405040569547953795279580E17D
:105400002030380720F0DD2011F0DD24D6CFE889E8
:10541000F9893083EA89FB89208319A2EE89FF8903
:10542000408121E030E0C9010C8C02C0880F991F37
:105430000A94E2F7482B4083EE89FF894081C90135
:105440000D8C02C0880F991F0A94E2F7482B408305
:10545000EE89FF894081C9010E8C02C0880F991F17
:105460000A94E2F7482B4083EE89FF8980810F8CF4
:1054700002C0220F331F0A94E2F7209528232083CD
:10548000DF91CF911F910F91FF90EF90DF90BF9030
:10549000AF900895DC011C96ED91FC911D97E05CA6
:1054A000FF4F2191319180819181281B390B2F73FE
:1054B0003070C9010895DC011C96ED91FC911D9797
:1054C000E05CFF4F20813181E054F040DF01AE5BB2
:1054D000BF4F8D919C9111972817390719F42FEF21
:1054E0003FEF07C08D919C91E80FF91F8081282F15
:1054F00030E0C9010895DC011C96ED91FC911D97E7
:10550000E05CFF4F20813181E054F040DF01AE5B71
:10551000BF4F8D919C9111972817390719F42FEFE0
:105520003FEF10C08D919C911197E80FF91F2081DA
:105530008D919C91119701968F73907011969C9309
:105540008E9330E0C9010895DC0191968C9191977A
:10555000882339F05496ED91FC915597808186FF10
:10556000F9CF91961C920895CF93DF93EC01EE85CD
:10557000FF85E05CFF4F20813181E054F0402F5FD8
:105580003F4F2F733070DF01AE5BBF4F8D919C9109
:10559000119728173907D1F3E05CFF4F8081918183
:1055A000E054F040E80FF91F6083EE85FF85E05C72
:1055B000FF4F31832083EE89FF89208181E090E0D5
:1055C0000F8C02C0880F991F0A94E2F7282B2083C2
:1055D00081E089A3EC89FD8980818064808381E0FA
:1055E00090E0DF91CF91089510925D0610925C06D5
:1055F00088EE93E0A0E0B0E080935E0690935F06B3
:10560000A0936006B093610681EF93E090935B06F0
:1056100080935A0682ED95E0909367068093660624
:1056200086E196E0909369068093680685EC90E0A9
:1056300090936B0680936A0684EC90E090936D06DD
:1056400080936C0680EC90E090936F0680936E06DA
:1056500081EC90E0909371068093700682EC90E06C
:10566000909373068093720686EC90E09093750693
:105670008093740684E08093760683E080937706B7
:1056800087E08093780685E08093790681E08093B7
:105690007A060895CF93DF930E9418280E94E02590
:1056A000C5E7D9E20E9421102097E1F30E947529F5
:1056B000F9CFCF92DF92EF92FF920F931F93CF9388
:1056C000DF937C016B018A01C0E0D0E00FC0D601FE
:1056D0006D916D01D701ED91FC910190F081E02D6C
:1056E000C7010995C80FD91F0150104001151105B8
:1056F00071F7CE01DF91CF911F910F91FF90EF9045
:10570000DF90CF900895EF92FF920F931F93CF9366
:10571000DF937C018B01C0E0D0E0F8010F5F1F4FE9
:105720006491662359F0D701ED91FC910190F081CD
:10573000E02DC7010995C80FD91FEFCFCE01DF912A
:10574000CF911F910F91FF90EF900895DC01ED91A3
:10575000FC910190F081E02D09950895EF92FF9260
:105760000F931F938C01DC01ED91FC910190F0816E
:10577000E02D6DE009957C01D801ED91FC9101903F
:10578000F081E02DC8016AE009959C012E0D3F1DB6
:10579000C9011F910F91FF90EF900895EF92FF9232
:1057A0000F931F937C010E94832B8C01C7010E94E1
:1057B000AE2B9C01200F311FC9011F910F91FF904B
:1057C000EF900895EF92FF920F931F937C01DC01FD
:1057D000ED91FC910190F081E02D09958C01C701BC
:1057E0000E94AE2B080F191FC8011F910F91FF9047
:1057F000EF900895CF93DF93EC016115710519F4D3
:1058000020E030E00FC0DB010D900020E9F7119798
:10581000A61BB70BE881F9810280F381E02DAD0171
:1058200009959C01C901DF91CF9108954F925F9234
:105830007F928F929F92AF92BF92CF92DF92EF9220
:10584000FF920F931F93DF93CF93CDB7DEB7A1974E
:105850000FB6F894DEBF0FBECDBF2C01742ECB0166
:10586000223008F42AE019A231E2C32ED12CCC0E4A
:10587000DD1E822E9924AA24BB24672D752FA50135
:1058800094010E94F32D79018A01C801B701A50195
:1058900094010E94AD2D472D461B0894C108D108E4
:1058A0004A3014F4405D01C0495CF6014083E114C4
:1058B000F1040105110521F07E2C5F2DC801DDCF1B
:1058C000C201B6010E94FA2BA1960FB6F894DEBF72
:1058D0000FBECDBFCF91DF911F910F91FF90EF9041
:1058E000DF90CF90BF90AF909F908F907F905F9010
:1058F0004F900895DC012115310541F4ED91FC91A3
:105900000190F081E02D642F099508950E94162CD6
:105910000895EF92FF920F931F937C010E947A2CBF
:105920008C01C7010E94AE2B9C01200F311FC901C1
:105930001F910F91FF90EF900895EF92FF920F93B8
:105940001F939A017B0100E010E0B801A7010E94BB
:105950007A2C1F910F91FF90EF900895CF92DF92D4
:10596000EF92FF920F931F936C017B019A0100E06D
:1059700010E0B801A7010E947A2C8C01C6010E9498
:10598000AE2B080F191FC8011F910F91FF90EF90C8
:10599000DF90CF900895EF92FF920F931F939A019B
:1059A000E62EFF2400E010E0B801A7010E947A2C47
:1059B0001F910F91FF90EF900895CF92DF92EF9299
:1059C000FF920F931F936C01E62E9A01FF2400E0D3
:1059D00010E0B801A7010E947A2C8C01C6010E9438
:1059E000AE2B080F191FC8011F910F91FF90EF9068
:1059F000DF90CF900895CF92DF92EF92FF920F93B6
:105A00001F93CF93DF93EC016A017B0121153105D0
:105A100041F4E881F9810190F081E02D642F09952E
:105A20001FC02A303105D1F477FF17C0E881F98112
:105A30000190F081E02D6DE209958C0144275527F6
:105A4000BA014C195D096E097F09CE012AE00E9456
:105A5000162C9801280F391F04C02AE00E94162C2A
:105A60009C01C901DF91CF911F910F91FF90EF90A1
:105A7000DF90CF900895EF92FF920F931F937B01D9
:105A80009A010027F7FC0095102FB801A7010E948A
:105A9000FB2C1F910F91FF90EF900895CF92DF9212
:105AA000EF92FF920F931F936C017B019A010027E5
:105AB000F7FC0095102FB801A7010E94FB2C8C0168
:105AC000C6010E94AE2B080F191FC8011F910F912C
:105AD000FF90EF90DF90CF9008950E94FA2B0895E9
