:100000000C9462000C94C21A0C94EF1A0C948A009F
:100010000C948A000C948A000C948A000C948A0038
:100020000C948A000C948A000C948A000C948A0028
:100030000C948A000C94BF060C948A000C948A00DD
:100040000C941C1B0C948A000C946F1E0C94AA1E1A
:100050000C948A000C948A000C948A000C948A00F8
:100060000C9443050C948A00000000002400270033
:100070002A0000000000250028002B0000000000DE
:1000800023002600290004040404040404040202DA
:100090000202020203030303030301020408102007
:1000A0004080010204081020010204081020000012
:1000B0000007000201000003040600000000000029
:1000C0000000522011241FBECFEFD8E0DEBFCDBF0D
:1000D00012E0A0E0B1E0EAEAF2E402C005900D927D
:1000E000AC3BB107D9F714E0ACEBB2E001C01D9214
:1000F000A63AB107E1F710E0C4ECD0E004C02297C3
:10010000FE010E944F21C23CD107C9F70E949720EF
:100110000C9453210C940000FB01DC0102C00190FF
:100120000D9241505040D8F708958091BC02813023
:1001300019F482E08093BC028091BC02833019F4F0
:1001400084E08093BC020895E3E0F0E089E08093CE
:100150005700849190E08670863009F491E0892FF1
:1001600008951F93182F0E94A400882379F09FB749
:1001700081E08093EC03F894A89588E18093600077
:1001800010936000112309F0A8959FBF1F91089557
:10019000382F20E08091ED039091EE038227932782
:1001A00040E061E270E19C01220F331F97FF04C021
:1001B000C9018627972701C0C9014F5F483099F7C9
:1001C0009093EE038093ED0308958436910520F417
:1001D000BC0180E090E025C08E3B910550F48A552B
:1001E0009040BC0180E090E02AE030E040E050E048
:1001F00016C0823D910550F4845B9040BC0180E0C4
:1002000090E024E630E040E050E009C08D5C904092
:10021000BC0180E090E028E532E040E050E00E9440
:10022000A62024E630E040E050E00E94A620089599
:1002300090E08C599F4F0E94E5000895DC0198964C
:10024000EC91F0E0E770F070EC55FD4F808108957F
:10025000FC0120A530E0C9018170907001962770E3
:10026000307035952795820F931F880F880F08955A
:100270008F929F92AF92BF92CF92DF92EF92FF92B6
:100280000F931F938C010E941E01D80197962C9109
:1002900030E043E150E0249FF001259FF00D349FB2
:1002A000F00D1124E051FE4F80809180A280B38038
:1002B00090E00F96AA2797FDA095BA2FBC01CD011B
:1002C00020E43FE14DE750E00E94A620A501940103
:1002D0000E94D92069017A0180ED97E0A0E0B0E0AA
:1002E000C80ED91EEA1EFB1ED80198968C91887103
:1002F00081F060E07EEE8AEB9BE0A50194010E9414
:10030000D92028513C4F4F4F5F4FC20ED31EE41EE1
:10031000F51E87EE93E0A0E0B0E0C80ED91EEA1EFD
:10032000FB1EC701B60128EE33E040E050E00E941A
:10033000D920CA01B90128EE33E040E050E00E9424
:10034000A6201F910F91FF90EF90DF90CF90BF906C
:10035000AF909F908F9008951F93182FDB01FA01A3
:10036000482F469530E0848190E083709070982FFC
:1003700088272081820F911D11969C938E938481F2
:1003800090E08C70907076E0880F991F7A95E1F775
:100390002181820F911D13969C938E9312978481D5
:1003A00090E08073907064E0880F991F6A95E1F780
:1003B0002281820F911D15969C938E9314978481B0
:1003C00090E0807C9070880F991F880F991F23817F
:1003D000820F911D17969C938E93169735961896BB
:1003E0003F5F431708F0BFCF10FF50C08081829558
:1003F00086958695837090E02DE431E0AC01429FB4
:10040000C001439F900D529F900D11240C961196A0
:100410009C938E93808190E044E0969587954A95D1
:10042000E1F783709070AC01429FC001439F900D33
:10043000529F900D11240C9613969C938E931297B5
:10044000808190E0969587959695879583709070BA
:10045000AC01429FC001439F900D529F900D11240B
:100460000C9615969C938E931497808190E08370E0
:100470009070AC01429FC001439F900D529F900D20
:1004800011240C9617969C938E9316971F9108959E
:1004900023E08032920718F420E030E026C023E009
:1004A000883E920748F49C012F51334054E0369522
:1004B00027955A95E1F719C027E0803D920720F46F
:1004C0009C012C5D334011C028E08839920718F058
:1004D0002FEF33E00AC09C01285C374044E036959A
:1004E00027954A95E1F72D503C4FC90108958C306E
:1004F000910548F49C0174E0220F331F7A95E1F7CF
:10050000285D3C4F17C023E0843F920720F49C01F4
:1005100024523C4F0FC024E08030920718F020E9AD
:1005200038E008C09C012657334F64E0220F331F88
:100530006A95E1F7C90108959C01369527952575BF
:100540003575821B930B9C0136952795369527951B
:100550002373337383739373280F391FC901E4E046
:1005600096958795EA95E1F7820F931F8F709F709C
:1005700021E031E0AC01429FC001439F900D529FAA
:10058000900D1124892F0895882339F05F98000079
:10059000289A00005F9A000008955F98000028984C
:1005A00000005F9A000008955F9A000083B15F9891
:1005B000000090E096958795817008950F931F93A2
:1005C000082F5C9A5F985C9810E0802F80780E94DA
:1005D000C402000F1F5F1830C1F75F981F910F9181
:1005E00008958F770E94DE0208950F931F93082FBE
:1005F00010E0802F80780E94C402000F1F5F183027
:10060000C1F75F981F910F9108950F931F935F9803
:1006100080E000E0182F110F0E94D402810F0F5FBD
:100620000830C1F71F910F9108950E94F1020E94B6
:1006300005035C9A08951F93162F80680E94DE02BE
:10064000812F0E94F5025C9A1F9108951F931091CB
:10065000E1021827E8EDF2E0E80FF11D89E7678570
:100660000E941B038DE3612F0E941B0382E4612F14
:100670000E941B031F91089586E20E9415030895AE
:100680000F931F938BE20E941503082F8CE20E94A8
:100690001503282F30E096E0369527959A95E1F7D7
:1006A00010E0000F111F000F111F202B312BC9016B
:1006B0001F910F9108950F931F938C018CE1F80106
:1006C00064810E941B038DE1F80165810E941B0378
:1006D0008EE1F80166810E941B0380E2F8016781C8
:1006E0000E941B0381E2F80160850E941B0382E2E5
:1006F000F80161850E941B0383E2F80162850E9474
:100700001B0384E2F80163850E941B0385E2F80164
:1007100064850E941B038AE2F80165850E941B0321
:100720008EE6F80166850E941B038FE6F801678557
:100730000E941B0380E7F80160890E941B0381E788
:10074000F80161890E941B0382E7F80162890E9417
:100750001B031F910F910895EF92FF920F931F9328
:10076000CF93DF937B018C01603028E372072CE983
:1007700082072CE1920728F520E836E948E950E0A5
:100780000E94D920E9016897B90180E090E020E853
:1007900039E647E65FEF0E94A6206E0D7F1D801FA1
:1007A000911F32E0660F771F881F991F3A95D1F786
:1007B00021E732E040E050E00E94D920890180E446
:1007C00021C020E03DE241E351E00E94D920E9014F
:1007D0006897B90180E090E020E033ED4EEC5EEFE9
:1007E0000E94A6206E0D7F1D801F911F660F771F30
:1007F000881F991F21E732E040E050E00E94D92095
:10080000890180E69E012F71622F680F85E70E94A3
:100810001B0386E7612F0E941B0387E7602F0E945E
:100820001B03CDB7DEB7E6E00C943E219F92AF925A
:10083000BF92CF92DF920F93DF93CF9300D000D07F
:10084000CDB7DEB7982E83E00E9415038093010395
:1008500084E00E9415038093020386E060E00E941A
:100860001B0387E061E00E941B0389E06FE70E94A1
:100870001B038AE065E00E941B038BE062E10E949B
:100880001B038CE065E10E941B038DE06DEF0E946D
:100890001B038EE060E00E941B03992019F08FE497
:1008A00092E008C08091FF0223E1829FC0011124E1
:1008B00080519E4F0E945B0380E36CE80E941B0303
:1008C00082E36FE00E941B0383E362E40E941B0348
:1008D00084E36AE00E941B0385E36AE20E941B0333
:1008E00086E36DE20E941B0387E364ED0E941B0315
:1008F00088E360E00E941B0389E360E00E941B0321
:10090000992049F065E8A62E61ECB62E61ECC62E62
:100910006EEDD62E08C0A090E102B090E202C09029
:10092000E302D090E4020AE38D2D9927AA27BB2782
:1009300089839A83AB83BC83802F69810E941B03C8
:10094000802F8B5F69810E941B03DC2CCB2CBA2C7F
:10095000AA240F5F0E3341F783E46FEF0E941B035D
:1009600084E46FEF0E941B0385E46FEF0E941B037A
:1009700086E46FEF0E941B03992019F08DE666E074
:1009800003C08DE66091E5020E941B0389E760E0E9
:100990000E941B038AE76091E6020E941B0383E723
:1009A00060E00E941B0384E760E00E941B03992023
:1009B00029F060EC72E98DEE99E108C06091DD02EA
:1009C0007091DE028091DF029091E0020E94AC0300
:1009D0000F900F900F900F90CF91DF910F91DF90BC
:1009E000CF90BF90AF909F90089587E061E00E9404
:1009F0001B038EE764E20E941B0388E063E00E9411
:100A00001B0388E060E00E941B0387E065E00E9412
:100A10001B0385E062E00E941B0383E00E94150334
:100A20008093010384E00E941503809302030895DC
:100A300090E0411191E0880F982B9093BA00660FD7
:100A40006093BD0030930803209307030895882323
:100A500011F085EC01C085E88093BC00089585ED18
:100A60008093BC008091BC0084FDFCCF089585EC90
:100A70008093BC000895ECEBF0E0108285E4808365
:100A800010920D0308951F920F920FB60F9211242A
:100A90002F933F934F935F936F937F938F939F9386
:100AA000AF93BF93EF93FF93DF93CF930F92CDB7A5
:100AB000DEB78091B90090E0887F90708036910514
:100AC00009F4EAC081369105CCF58832910509F424
:100AD0007CC089329105B4F48031910509F470C06D
:100AE000813191053CF4009709F40EC1089709F093
:100AF0000DC166C08831910509F467C0809709F07F
:100B000005C177C08034910509F490C08134910506
:100B100044F48033910509F46EC0C89709F0F6C01B
:100B20006CC08035910509F471C08835910509F4D0
:100B300083C08834910509F0E9C0A5C088399105C2
:100B400009F4DCC089399105ECF48837910509F482
:100B5000A3C0893791054CF48836910509F49CC0EF
:100B60008037910509F0D2C097C08838910509F403
:100B7000C5C08039910509F492C08038910509F00B
:100B8000C5C08DC0803B910509F4A5C0813B91058E
:100B90004CF4803A910509F499C0883A910509F01E
:100BA000B5C099C0803C910509F4AAC0883C910564
:100BB00009F4A6C0883B910509F0A8C080E08CC06C
:100BC000809109038093BB009BC080910C038150EE
:100BD00080930C038F5F09F43FC0E0910A03F0910A
:100BE0000B0381918093BB00F0930B03E0930A0306
:100BF00087C082E049C083E047C084E080930E0351
:100C000080910D038B7F80930D0362C08091BB00A8
:100C1000E0910A03F0910B038193F0930B03E093AF
:100C20000A0380910C03815080930C0380910C0384
:100C3000823008F065C062C08091BB00E0910A0379
:100C4000F0910B038193F0930B03E0930A038091DF
:100C50000C03815080930C0380910D038B7F809354
:100C60000D0380910D0380FF4FC080910D038E7F97
:100C700080930D0380910D03826080930D0384EABD
:100C80008093BC0043C085E080930E0380910D03E8
:100C90008B7F80930D0338C010920C0331C0E0911C
:100CA0000703F0910803309749F19091BB008091C0
:100CB0000C038F5F80930C03815011F060E001C042
:100CC00062E09983CE01019609951BC00E942F0511
:100CD0000E9437051BC081E0E0910703F0910803F3
:100CE000309761F0882311F461E001C063E0CE0128
:100CF0000196099599819093BB0003C080E001C0E3
:100D000081E00E94270502C00E942F050F90CF911D
:100D1000DF91FF91EF91BF91AF919F918F917F9163
:100D20006F915F914F913F912F910F900FBE0F9058
:100D30001F90189525B190E0FC01EE0FFF1FE80F02
:100D4000F91FEC58FC4F8081282B25B988B191817F
:100D5000892B88B98BB19281892B8BB9089585B184
:100D60009091A403892385B988B19091A503892323
:100D700088B98BB19091A60389238BB908951F92EE
:100D80000F920FB60F9211241F932F933F934F93FF
:100D90005F936F937F938F939F93AF93BF93CF9303
:100DA000DF93EF93FF931091470380918602C091E8
:100DB0008402D0918502181708F05BC08091A703C8
:100DC0009091A8039093870080938600E12FF0E034
:100DD000EE0FFF1FEE59FD4F808191810E94770237
:100DE000880F991F9093A8038093A7038091A7036E
:100DF0009091A8039E01281B390BC90130938502ED
:100E0000209384022091D3023091D402220F331F09
:100E10008217930720F430938502209384028091F7
:100E20004903882339F48091CB0280FF59C01830E0
:100E300008F456C08FEF9FEF90938B0080938A0049
:100E400080918400909185008097D0F30E94AF0636
:100E500080914803882339F480914703882319F04F
:100E600081500E949A06809147038F5F80934703C9
:100E70003EC08091A7039091A80390938700809330
:100E80008600D093A803C093A703809149038823C9
:100E900019F08FEF9FEF06C08091A7039091A803F0
:100EA0008855924090938B0080938A0080E49CE95F
:100EB00090938502809384028091840090918500B4
:100EC0008097D0F30E94AF0680914803882329F4CD
:100ED0008091860281500E949A061092470307C0B3
:100EE0008091A7039091A80388559240A5CFFF91C8
:100EF000EF91DF91CF91BF91AF919F918F917F91B2
:100F00006F915F914F913F912F911F910F900FBE65
:100F10000F901F90189590E0880F991F880F991FC8
:100F20008C30910518F42CE030E007C09C0183E080
:100F3000253F380710F024EF33E0C90108950F93DF
:100F40001F930091CC020033C0F4202F30E0C90180
:100F500080739070009719F0409749F403C0809116
:100F6000410307C0809146038295807F02C0809133
:100F7000400389010F70107016C00F33E8F410E0C1
:100F80000F701070809146038295807F0E948B07BE
:100F9000F801EE0FFF1FEE59FD4F918380830F5F25
:100FA0001F4F809140030E948B07000F111F0E59A5
:100FB0001D4FF801918380831F910F9108951F9316
:100FC00080914B0390914C038F5F9F4F39F11091AB
:100FD000CC02412F50E04F705070BA016F5F7F4FCD
:100FE000ABE4B3E020E030E02417350789F02617A2
:100FF000370711F4103360F4F8948D919C91119798
:10100000F901EE0FFF1FEE59FD4F91838083789415
:101010002F5F3F4F12962031310531F71F91089510
:101020001F93CF93DF93EC0170E0CB01827090703F
:1010300060FF1AC0892B31F080916D038883109274
:10104000EB0345C01091EB0388ED92E00E941E0176
:101050001817D8F5E12FF0E0E755FC4F8081888321
:101060001F5F1093EB0333C0892BC1F098819093DD
:10107000EA031092EB03892F807E803651F4809131
:101080006D03823010F188818F7180932B0383E090
:101090001AC09E3FE1F410926D0317C08091EA03DD
:1010A0008F3FA9F42091EB03293278F4E22FF0E08E
:1010B000E852FD4F88818083822F8F5F8093EB03FE
:1010C000893229F481E080936D0380E001C081E0E2
:1010D000DF91CF911F910895EF92FF920F931F938D
:1010E000CF93DF9380E260E040E020E138E00E94AF
:1010F000180510926D0392E0E92E85E0F82E04E0C9
:1011000080916D03813039F480E00E941604E092F2
:101110006D032D98F5CF10916D03133061F42C9869
:1011200080912B030E9426031093BC020E94F504B9
:1011300000936D03E5CF80916D03843009F78091B2
:10114000BC028430E9F68FE70E94F102C0E0D0E0F3
:1011500007C00E940503FE01E755FC4F80832196DE
:1011600088ED92E00E941E0190E0C817D9078CF329
:10117000F0926D032C9AC4CFA0E0B0E0E2ECF8E06E
:101180000C941E21EC010E94721B5B016C017E011C
:1011900000E010E011C0209779F00E94721B6A19DC
:1011A0007B098C099D09E616F7060807190720F444
:1011B0000E943B0581E008C080910D0382FDEBCFCA
:1011C00080910E0310920E03CDB7DEB7EAE00C94C7
:1011D0003A21A0E0B0E0EFEEF8E00C942021182FC7
:1011E0007B01042FC22FD0E024E0C22ED12CCC22D0
:1011F000DD22C2FF03C080E090E004C08091820243
:10120000909183020E94BC08282F8823B9F5109280
:101210000E0300930C03F0920B03E0920A03110FEC
:1012200011601093090390910D03C1FD02C084E089
:1012300001C085E0892B80930D0380910D0381FF10
:101240000BC080910D038D7F80930D038091090366
:101250008093BB0085EC01C085EE8093BC00C0FF8D
:101260000DC0C114D10419F080E090E004C0809159
:101270008202909183020E94BC08282F822FCDB752
:10128000DEB7E8E00C943C21A0E0B0E0EAE4F9E04D
:101290000C942021182F7B01042FC22FD0E034E0C2
:1012A000C32ED12CCC22DD2222FF03C080E090E0AF
:1012B00004C080918202909183020E94BC08282F72
:1012C0008823B1F510920E0300930C03F0920B03E8
:1012D000E0920A03110F1093090390910D03C1FDD1
:1012E00002C084E001C085E0892B80930D038091CA
:1012F0000D0381FF0BC080910D038D7F80930D0343
:10130000809109038093BB0085EC01C085EE80933A
:10131000BC00C0FF0DC0C114D10419F080E090E002
:1013200004C080918202909183020E94BC08282F01
:10133000822FCDB7DEB7E8E00C943C218091BC024F
:10134000813011F081E008950E94721B2091030307
:10135000309104034091050350910603621B730B07
:10136000840B950B615A76488140904010F480E0E0
:10137000089582E00895FF920F931F93CF93DF9318
:10138000182F092FF62E8EE30E941B03212F302FDA
:10139000C901EC0110E005C08FE769910E941B03B1
:1013A0001F5F1F15C8F385E064E00E941B0383E004
:1013B0000E9415038093010384E00E94150380932B
:1013C00002030E94721B60930303709304038093D3
:1013D00005039093060387E069E00E941B0381E008
:1013E0008093BC02CDB7DEB7E5E00C943F210E94AC
:1013F000BB098091BC028130D9F40E94721B2091FC
:101400000303309104034091050350910603621BCE
:10141000730B840B950B605A76488140904040F4E2
:10142000E8CF84E894E060E071E00E945A1E0895DD
:101430008091BC028130A9F30895A1E0B0E0E3E21D
:10144000FAE00C94262180916D038230B9F480E299
:10145000BE016F5F7F4F41E021E00E94E9088823D1
:1014600079F08FEF80936D030E94641B60936E038D
:1014700070936F0380937003909371038FEF01C09B
:1014800089812196E2E00C944221A1E0B0E0EBE4F6
:10149000FAE00C94262180916D038230D9F480917A
:1014A0002B03805A898380E2BE016F5F7F4F41E04A
:1014B00021E00E944409882369F08FEF80936D0337
:1014C0000E94641B60936E0370936F03809370039C
:1014D000909371032196E2E00C944221AAE2B0E0DD
:1014E000E4E7FAE00C9424218FEF8983DE01129661
:1014F000E8EDF2E089E201900D928150E1F780E29F
:101500008E010F5F1F4FB8014AE221E00E9444099B
:10151000882351F480E2B80141E021E00E94E9080B
:10152000882311F482E001C08FEF80936D038091D6
:101530006D03823051F00E94641B60936E037093C0
:101540006F038093700390937103AA96E4E00C9468
:101550004021A2E0B0E0EFEAFAE00C9422210E94E0
:10156000721B9B01AC0180910F0390911003A0911D
:101570001103B091120379018A01E81AF90A0A0BE2
:101580001B0BD801C70181519742A040B04008F41D
:1015900044C0809113038F5F80931303815080FDBB
:1015A00002C000E001C007E020930F033093100356
:1015B000409311035093120384E894E063E00E9487
:1015C000122084E894E061E00E94122077E0F72E78
:1015D000F00E802F90E0880F991F9C012E593D4FEF
:1015E0003A832983F90160817181672F77276370BE
:1015F0007070880F991F682B792B84E894E00E9403
:101600001220E981FA8160817181707084E894E030
:101610000E9412200F5F0F15E1F62296E6E00C946F
:101620003E211F93182F84E894E0612F0E9412201E
:10163000812F0E94C8001F910895A0E0B0E0E3E26E
:10164000FBE00C942021082F0E94721B9B01AC012F
:1016500080910F0390911003A0911103B091120398
:1016600069017A01C81AD90AEA0AFB0AD701C60138
:1016700081519742A040B04008F443C020930F032B
:101680003093100340931103509312031092EE0312
:101690001092ED0388EA0E94110B002311F481E0FF
:1016A00001C081E80E94110B80E10E94110BC0E093
:1016B000D0E0FE01EE0FFF1FEE59FD4F80819181BA
:1016C0000E9477028C01E3E0000F111FEA95E1F719
:1016D000812F0E94110B802F0E94110B2196C03187
:1016E000D10539F76091EE0384E894E00E9412205E
:1016F0006091ED037091EE03707084E894E00E94B5
:101700001220CDB7DEB7E8E00C943C21A0E0B0E0B9
:10171000ECE8FBE00C942021182F062F0E94721B8E
:101720009B01AC0180910F0390911003A0911103D4
:10173000B091120369017A01C81AD90AEA0AFB0AB0
:10174000D701C60181519742A040B04008F4D6C1EC
:1017500020930F033093100340931103509312030F
:101760008091620290916302880F991F8093140305
:10177000977080911503887F892B809315032091A2
:10178000640230916502220F331F922F990F990F37
:10179000990F8770892B80931503422F42954695A8
:1017A000477080911603807C932F9770990F990F43
:1017B000990F842B892B8093160320916602309118
:1017C0006702220F331F922F9295990F990F907CE9
:1017D0008F73892B80931603932F9295990F990FEE
:1017E000907C822F86958695892B80931703932F63
:1017F000969596959170809118038E7F892B809392
:1018000018032091680230916902220F331F922F32
:10181000990F8170892B80931803422F441F44270E
:10182000441F80911903807F932F9770990F842B09
:10183000892B8093190320916A0230916B02220F49
:10184000331F922F9295907F8F70892B809319036D
:10185000422F42954F7080911A038078932F977092
:101860009295907F842B892B80931A0320916C0290
:1018700030916D02220F331F8F7780931A03932FBD
:10188000979599279795822F8695892B80931B038F
:10189000932F9695937080911C038C7F892B809356
:1018A0001C0340916E0250916F02440F551F942FFC
:1018B000990F990F8370892B80931C03942F929515
:1018C00096959695937020911D03207E852F8770A5
:1018D000880F880F292B282B20931D0380917002DD
:1018E00090917102880F991F382F3295330F307EF7
:1018F0002F71232B20931D03292F2295220F207E49
:10190000869586958695822B80931E038091720220
:1019100090917302880F991F80931F039770809195
:101920002003887F892B80932003209174023091BB
:101930007502220F331F922F990F990F990F8770FD
:10194000892B80932003422F4295469547708091C2
:101950002103807C932F9770990F990F990F842BF7
:10196000892B809321032091760230917702220FF8
:10197000331F922F9295990F990F907C8F73892B1B
:1019800080932103932F9295990F990F907C822F2A
:1019900086958695892B80932203932F969596950D
:1019A0009170809123038E7F892B80932303209154
:1019B000780230917902220F331F922F990F817094
:1019C000892B80932303422F441F4427441F809177
:1019D0002403807F932F9770990F842B892B8093FA
:1019E000240320917A0230917B02220F331F922F21
:1019F0009295907F8F70892B80932403422F42957C
:101A00004F70809125038078932F97709295907FE7
:101A1000842B892B8093250320917C0230917D02B9
:101A2000220F331F8F7780932503932F9795992744
:101A30009795822F8695892B80932603932F9695D1
:101A40009370809127038C7F892B8093270340918B
:101A50007E0250917F02440F551F942F990F990FCA
:101A60008370892B80932703942F92959695969552
:101A7000937020912803207E852F8770880F880F10
:101A8000292B282B2093280380918002909181029A
:101A9000880F991F382F3295330F307E2F71232BEB
:101AA00020932803292F2295220F207E8695869544
:101AB0008695822B80932903112311F490E001C0B5
:101AC00098E0002311F480E001C084E0892B80932A
:101AD0002A0384E894E06FE00E941220C4E1D3E07E
:101AE00084E894E069910E94122083E0CB32D80709
:101AF000B9F784E894E060E00E941220CDB7DEB729
:101B0000E8E00C943C211F93182F8091C0028B3287
:101B100021F48EE0612F0E946D1C8091BF028732FC
:101B200059F4112321F08091B000806103C08091AD
:101B3000B0008F7E8093B0001F9108958091440380
:101B4000909145039F770E949C02982F80934603B3
:101B50008F3029F4809140038695805804C089E035
:101B6000989FC001112480934103F8940E949F071D
:101B700078948091BF028132C9F490914103892FFA
:101B800081508E3F60F08091B0008F7D8093B000D7
:101B900060E0911161E083E00E946D1C08959093D4
:101BA000B4008091B00080628093B00008951F93CC
:101BB000182F811111E082E1612F0E946D1C83E1D9
:101BC000612F0E946D1C10920C0310920D038091E6
:101BD000B9008C6F8093B90080E28093B80085E4EF
:101BE0008093BC001F910895CF93DF9384E894E025
:101BF0000E949F1F892BF9F08091E803C82FD0E045
:101C00009E012F5F3F4F2F7130708091E70390E06E
:101C10002817390781F084E894E00E94D91FC9533E
:101C2000DC4F88838091E80390E001968F7190707B
:101C30008093E803DBCFDF91CF910895EF92FF927D
:101C40001F93CF93DF9388ED92E00E942801482FE5
:101C5000809386025091CC02252F30E02F70307097
:101C600090E02817390719F44F5F409386025033EC
:101C700058F040918602842F90E001972817390789
:101C800019F44F5F40938602E4E7F3E0108211827B
:101C90001282339623E0E938F207C1F78FEF809381
:101CA000A4038093A5038093A6038EEBE82E82E025
:101CB000F82EAFE8B2E0E7016FEF5FEF4FEF8881FA
:101CC0008031F0F490E03C91FC01EE0FFF1FE80F33
:101CD000F91FEC58FC4F8081832B808311962C9147
:101CE00011978181822B818312969C911297828118
:101CF000892B828330954323209552239095692325
:101D00002196139682E0C53CD807C9F66093A603D6
:101D10005093A5034093A403C8E8D2E010E0F70174
:101D20008081823238F08632B0F0863219F48881B0
:101D300060E00FC0153021F48091C1008F7E05C096
:101D4000163029F48091C100877F8093C10088817B
:101D500061E00E94011C1F5F0894E11CF11C2196A8
:101D60001730E9F68091BE02803231F48AE061E0FA
:101D70000E946D1C82E201C082E08093800081E0BD
:101D800080934803809349038091BF02813211F010
:101D90008732D9F483E061E00E94011C83E060E0B7
:101DA0000E946D1C8091BF02813231F481E08093EA
:101DB000B0008093B10009C082E08093B00085E05C
:101DC0008093B1008EE38093B3008AE18093810019
:101DD0008FEF9FEF90938B0080938A0080ED97E0C8
:101DE000909387008093860080E49CE9909385021D
:101DF000809384029093A8038093A70310924703D3
:101E000080916F00816080936F008091CB0283FF8F
:101E10000DC080914B0390914C038F5F9F4F31F029
:101E20000E94DF071092490310924803DF91CF917F
:101E30001F91FF90EF90089589E060E00E94011CDF
:101E400088E061E00E94011C87E061E00E94011CC3
:101E500082E060E00E94011C84E061E00E94011CBD
:101E6000089583E00E9415038093010384E00E949B
:101E700015038093020387E061E00E941B036AE080
:101E800070E080E090E00E94981B0E94F504000042
:101E900008950F931F93082F17C02D9A64E670E0E2
:101EA00080E090E00E94981B2D9864E670E080E04E
:101EB00090E00E94981B1F5F101778F36CE271E0AE
:101EC00080E090E00E94981B10E0F6CF482F392F59
:101ED00025E00DC0F999FECF1FBA842F932F92BD34
:101EE00081BD60BD0FB6F894FA9AF99A0FBE2150E1
:101EF00059F0F999FECF842F932F92BD81BDF89AA6
:101F000080B5681739F7089582E00E94490F089557
:101F1000A0E0B0E0EEE8FFE00C941821482E562E29
:101F2000EE24FF24C0E0D0E0CC24DD2488249924D2
:101F300004C055245394CC24DD24442051F46DEB8B
:101F4000E62E62E0F62EC0E0D0E05BE1852E912C1B
:101F500019C021E0421651F448EDE42E42E0F42E7F
:101F6000CDE1D0E039E2832E912C0CC032E0431653
:101F700049F42BE4E22E23E0F22EC8E4D0E090E214
:101F8000892E912C3E016C0C7D1C1092EE03109258
:101F9000ED03E3011BC0552059F4F999FECFD2BDE2
:101FA000C1BDF89A80B5F701E00FF11F808307C02B
:101FB000F701E00FF11FCE0160810E94660F0E0D48
:101FC0001F1DF80180810E94C80021969E012619DC
:101FD000022F10E008151905F0F2CE015520D9F4B2
:101FE000F999FECFD2BDC1BDF89A20B5F999FECFBF
:101FF0002196D2BDC1BD2197F89A80B590E0B22E4E
:10200000AA248A299B292091ED033091EE032817F9
:10201000390759F48ECF21966091EE030E94660F26
:10202000CE016091ED030E94660F80E091E0C80E42
:10203000D91E91E0C91693E0D90608F47ECF852D0C
:10204000CDB7DEB7E0E10C94342182E060E00E947D
:10205000880F882331F48FEF9FEF90934C03809388
:102060004B03089582E061E00E94880F089597E095
:102070009093BD0290E29093BE0291E29093BF02D2
:102080001092C00296E29093C1029093C20294E231
:102090009093C30295E29093C40292E09093CB0296
:1020A0009FEF9093CC022AE02093D5021092D602A3
:1020B0001092D7021092CD021092CE021092CF024F
:1020C0001092D0029EE19093D1022093D20228EB8D
:1020D0003BE03093D4022093D302882361F080E068
:1020E00061E00E94880F8FEF9FEF90934C038093E5
:1020F0004B030E9432100895ADE5B0E0E2E8F0E154
:102100000C9416215B016C010E94641B1B012C01C5
:1021100081E00E94160483E08093BC020E94310F8C
:1021200084E894E06CE071E00E945A1E3E0108943D
:10213000611C711CE4C084E894E06AE171E00E94D3
:102140005A1E8FE70E94F1020E940503182F89830F
:10215000823601F508ED12E00E940503F801819333
:102160008F01F3E001301F07B9F78091D802873360
:1021700009F0C0C084E894E063E271E00E945A1E56
:1021800082E48983CE01019661E00E94F7092C9ACE
:1021900081E0CBC0803719F0893631F506C020E5E3
:1021A0002A83AA24BB24650105C081E00E94371060
:1021B00089E48A838091EC03882321F08091CB020B
:1021C000806803C08091CB028F778093CB02DE01C1
:1021D0001396EDEBF2E08BE101900D928150E1F767
:1021E000CE0102966CE184C08437E1F434E53E8F81
:1021F00083E08F8F92E798A3E7E0E9A3FDE0FAA3DD
:10220000DE019396E6EDF1E08AE101900D928150B6
:10221000E1F7CE014E966FE10E94F709AA24BB2494
:10222000650168C0853791F40DEB12E00E9405034B
:10223000F80181938F01F2E0083D1F07B9F780E0B4
:1022400061E00E94880F25E5298350C0863631F56C
:1022500080914B0390914C038F5F9F4FD1F086E4A8
:102260008DAF7BE4E72E73E0F72E8E01025C1F4FEB
:10227000F701819191917F010E947702F80190838B
:1022800081830E5F1F4FFBE6EF16F3E0FF0681F739
:1022900001C01DAFCE01CD9661E22AC08736D9F4C8
:1022A0000BE413E00E940503982E88240E94050386
:1022B0009401280F311DC9010E944802F801819341
:1022C00091938F01F3E00B361F0761F727E4298311
:1022D0000E9432100BC0873469F48FEF9FEF909308
:1022E0004C0380934B030E9432101983C30161E0B9
:1022F0000E94F70993E09093BC020E94F504A11498
:10230000B104C104D10459F00E94641B621973091D
:10231000840995096A157B058C059D0528F4809133
:10232000BC02843061F707CF80E0C35ADF4FE2E19F
:102330000C94322180E060E00E94880F882319F419
:1023400081E00E943710089581E061E00E94880FCB
:10235000089581E060E00E94880F882311F490E0E6
:1023600006C090E08091D802873309F491E0892F6C
:102370000895EF92FF920F931F93CF93DF93EB019A
:102380009C01442737FD4095542F60E271EA87E0B5
:1023900090E00E94FB2089011216130614F001E060
:1023A00010E0BE01882777FD8095982F20E231EA62
:1023B00047E050E00E94A6209801442737FD409551
:1023C000542F0E94FB207901C0E0D0E009C0289A78
:1023D000C8010E94BC1B2898C8010E94BC1B219602
:1023E000CE15DF05A4F3CDB7DEB7E6E00C943E21B1
:1023F0001F93182F2C9A83E00E94150380930103EA
:1024000084E00E9415038093020386E060E00E944E
:102410001B0387E061E00E941B0389E06FE70E94D5
:102420001B038AE065E00E941B038BE062E10E94CF
:102430001B038CE065E10E941B038DE06DEF0E94A1
:102440001B038EE060E00E941B0380E76CE20E94A9
:102450001B0380E360E00E941B0389E760E00E94A9
:102460001B038AE765E00E941B0381E762E10E948B
:102470001B0382E762E00E941B0383E760E00E9487
:102480001B0384E760E00E941B036091CD02709102
:10249000CE028091CF029091D0020E94AC038DE6D3
:1024A00067E00E941B036AE070E080E090E00E9419
:1024B000981B87E069E00E941B036AE070E080E0FF
:1024C00090E00E94981B112369F010E007C088EB90
:1024D00091E061E070E00E94B911A8951F5F15318D
:1024E000B1F74BC088E891E061E070E00E94B9115B
:1024F000A8958DE665E00E941B036AE070E080E02D
:1025000090E00E94981B88EB91E061E070E00E94EF
:10251000B911A8958DE664E00E941B036AE070E0A3
:1025200080E090E00E94981B8DE591E061E070E012
:102530000E94B911A8958DE662E00E941B036AE033
:1025400070E080E090E00E94981B8FEA90E061E0EC
:1025500070E00E94B911A8958DE660E00E941B030F
:102560006AE070E080E090E00E94981B85E091E0D6
:1025700062E070E00E94B911A89587E061E00E94D6
:102580001B032C981F910895A6E1B0E0EAECF2E15C
:102590000C941821A8958CE00E941503882359F407
:1025A00084E894E06EE271E00E945A1E80E00E948E
:1025B00016040E94310F0E94F40D0E94721B0E94AB
:1025C0001D0AB82E8E010F5F1F4FAA24AA94809176
:1025D000BC02843029F065E0E62EBE1409F087C104
:1025E0000E94721B6B017C018091BC028430E9F473
:1025F0008FE70E94F10200E010E008C00E9405038E
:10260000F801E755FC4F80830F5F1F4F88ED92E084
:102610000E941E0190E00817190784F30E944003EE
:10262000909343038093420328C088ED92E00E9478
:102630001E01482F4F5F80E2B80121E00E94E908A7
:10264000882369F0A0926D030E94641B60936E035F
:1026500070936F038093700390937103B8CF88EDEC
:1026600092E00E941E01482F29EA33E0FE013296D3
:10267000C901BF0150E00E948C00C0922C03D0928F
:102680002D03E0922E03F0922F0310926C038091A1
:10269000440390914503880F991F816090934503EF
:1026A000809344032D982C9A80E00E94830D8091A2
:1026B000A903282F30E0C9018E739070892B99F5FA
:1026C000F89480910003877062E672E04AEA53E072
:1026D0000E94AC010E949F0778948091A903909179
:1026E000730380FF1BC0992309F045C0ABE4B3E03E
:1026F00020E030E0F901EE0FFF1FEE59FD4F808121
:1027000091818D939D932F5F3F4F2031310591F73C
:102710000E94321081E0809373032DC0992359F1F8
:102720001092730328C0C90188739070C89719F577
:102730004091BE03842F822787FF1DC040584093DD
:10274000BE038091C4028532B1F410E00AC01F5F5D
:10275000E12FF0E0E755FC4F84E894E060810E94AF
:102760001220212F30E08091A90390E087709070B3
:102770008217930764F780916B03882319F481E033
:1027800080936B0310924A031092480310924903FE
:1027900080910003887109F4A1C04091BE0380912B
:1027A000A90390E0242F30E08227932786FD60C0A4
:1027B000407C80E448274093BE039091E7038091DA
:1027C000E803981701F1AFEBB3E030E00FC03F5FD3
:1027D000892F90E0FC01E953FC4F20812D93019655
:1027E0008F7190708093E703383031F09091E70358
:1027F0008091E803981759F7395C8091BE03382B14
:102800003093BE0335C080913F038093BF03809116
:10281000C102863251F482E10E94D01C95958795C1
:10282000959587958093C00302C01092C003809154
:10283000C202863251F483E10E94D01C959587959F
:10284000959587958093C10302C01092C103809132
:1028500043038093C203809142038093C30380911A
:102860004403909145039F770E949C028093C40388
:102870008EEB93E069E00E94BB0902C00E94F40D58
:102880000E949E098823D1F30EEB12E088E8E82E1F
:1028900082E0F82EF8018081E82FF0E0CF01807F00
:1028A0009070409791F4EF70F070EE0FFF1FEE59AB
:1028B000FD4F8081918160E08F3F910511F008F01C
:1028C00061E0F70180810E946D1C0F5F1F4F08942B
:1028D000E11CF11CF2E0053C1F07E1F683E0809368
:1028E000BC020E94F50481E0809372032C980E9440
:1028F000721B5B016C010E94641B2B013C018091E7
:102900006C03823008F065C0E0902C03F0902D033A
:1029100000912E0310912F03809130039091310389
:10292000A0913203B09133038E159F05A007B10724
:1029300009F44FC088ED92E00E943801A60195018C
:102940002E193F09400B510B6C5D75408040904043
:102950006217730784079507E0F5E0923003F09261
:10296000310300933203109333030E943C0380939E
:102970003F0320913D0330913E03280F311D3093DA
:102980003E0320933D0360913C036F5F60933C03E3
:102990006930F8F0C90170E00E94C520CB01709346
:1029A0003E0360933D032091400343E0249F900148
:1029B0001124820F931F96958795969587958093FE
:1029C00040030E949E0D10923E0310923D03109210
:1029D0003C0380916B039090E903882309F463C161
:1029E00080906C03891408F0E1C188ED92E00E94A8
:1029F000380120912C0330912D0340912E035091EA
:102A00002F03A21AB30AC40AD50A68517C4F8F4F0C
:102A10009F4F6A157B058C059D0508F077C0809156
:102A2000440390914503880F991F90934503809329
:102A3000440381E080937203882081F44092340340
:102A40005092350360923603709237031092380328
:102A50001092390310923A0310923B0380916C0359
:102A60008F5F80936C0388ED92E00E943801209183
:102A70002C0330912D0340912E0350912F03260FEC
:102A8000371F481F591F20932C0330932D03409369
:102A90002E0350932F0381E0809372032D9A0E949E
:102AA000830D0E949E0D32C088ED92E00E94380195
:102AB0009B01AC0180912C0390912D03A0912E03DA
:102AC000B0912F0386017501E81AF90A0A0B1B0B56
:102AD000682D70E080E090E00E94A6206E157F05D2
:102AE0008007910798F4109245031092440381E007
:102AF00080937203109240030E949E0DA0922C03BB
:102B0000B0922D03C0922E03D0922F0380916C03BC
:102B1000882309F4F2C09091D502992389F180911C
:102B20004A03882369F5892F90E00E94E5002091EF
:102B300034033091350340913603509137038301BC
:102B40007201E21AF30A040B150B6E157F0580075C
:102B50009107B0F481E080934A030E94DF078091DF
:102B6000D1020E941801640D751D861D971D6160BC
:102B7000609338037093390380933A0390933B0337
:102B80009091D7029923F1F0809148038823D1F4E2
:102B9000892F90E00E94E5002091340330913503A5
:102BA000409136035091370383017201E21AF30A10
:102BB000040B150B6E157F058007910718F481E053
:102BC000809348039091D6029923F1F080914903B4
:102BD0008823D1F4892F90E00E94E50020913403EE
:102BE00030913503409136035091370383017201D0
:102BF000E21AF30A040B150B6E157F058007910787
:102C000018F481E0809349038091CD029091CE0227
:102C1000A091CF02B091D0020097A105B10509F4AF
:102C20006CC08091380390913903A0913A03B09120
:102C30003B030097A105B10509F45FC08301720150
:102C4000E81AF90A0A0B1B0B17FD57C06091D20254
:102C500070E080E090E028EE33E040E050E00E9439
:102C6000A6206E157F058007910708F046C0809169
:102C7000CB0290E0E4E096958795EA95E1F78170C4
:102C80000E94F81180E00E9416040E94F5040E9440
:102C9000641B6160609338037093390380933A0337
:102CA00090933B032AC088ED92E00E9438019B017B
:102CB000AC0180912C0390912D03A0912E03B09133
:102CC0002F0386017501E81AF90A0A0B1B0B692DFF
:102CD00070E080E090E00E94A6206E157F058007DE
:102CE000910758F4A0922C03B0922D03C0922E03AA
:102CF000D0922F0381E0809372038091490388234F
:102D0000B1F48091C402883219F40E94A90A0FC05C
:102D1000893239F480914A0360916C030E94860BDA
:102D200006C08A3221F480914A030E941D0B8091D3
:102D300072038823B9F0E0912B03EF5FE0932B033C
:102D4000E83131F0F0E0E852FD4F8785882311F437
:102D500010922B0380912B030E9426030E94450AA8
:102D60001092720380916D038F3F21F50E94641BC6
:102D700020916E0330916F03409170035091710365
:102D8000621B730B840B950B695E7340804090400F
:102D900088F00E94641B60936E0370936F038093AE
:102DA0007003909371030E946E0A04C0891409F0A5
:102DB000ADCE7ACE6696E0E10C943421FF920F936B
:102DC0001F93082FF62E61E00E94011C802F61E006
:102DD0000E946D1C8F2D61E00E946D1C8AE090E0C6
:102DE0000E94BC1B8F2D0E94A01C892B11F410E0A7
:102DF0000FC0802F60E00E946D1C8AE090E00E946E
:102E0000BC1B8F2D0E94A01C10E0892B09F411E03F
:102E1000802F60E00E94011C802F60E00E946D1CEA
:102E20008F2D60E00E946D1C812F1F910F91FF90EC
:102E30000895EF92FF920F931F937C0104E814E032
:102E4000C8016F2D70E04AE050E00E94D71DC80114
:102E50006EE20E94161DB701E4E076956795EA954B
:102E6000E1F76F707070C8014AE050E00E94D71D12
:102E7000C8016EE20E94161D8FE0E822FF24C801FF
:102E8000B7014AE050E00E94D71D1F910F91FF90BB
:102E9000EF900895A2E2B0E0E0E5F7E10C9416218E
:102EA0008E010F5F1F4F80E1D8011D928A95E9F7CF
:102EB00084E894E066E371E00E945A1E0E94310F9C
:102EC00020E431EE4DE958E12F8F38A349A35AA3EE
:102ED00080EC91EDA8E9BBE18B8F9C8FAD8FBE8F0D
:102EE00024EF31E040E050E02F8B388F498F5A8F2C
:102EF00080E5C82E83ECD82EE12CF12CB0E44B2ECB
:102F0000B1EE5B2EBDE96B2EB8E17B2E88249924AF
:102F1000540133241E8A1D8A198A1A8A1B8A1C8A24
:102F2000FFC084E894E00E94D91F8434B9F085344E
:102F300030F48332B9F18C3209F0CCC044C083350F
:102F400009F0C8C02F8D38A149A15AA1C901DA01E1
:102F50002C013D01882499245401E2C084E894E0C6
:102F600064E40E94161D84E894E040E451EE6DE9AB
:102F700078E12AE030E00E94FA1D84E894E06CE2F7
:102F80000E94161D84E894E040EC51ED68E97BE175
:102F90002AE030E00E94FA1D84E894E06CE20E948E
:102FA000341DBEC019821A821B821C821D821E82A1
:102FB0001F82188619861A861B861C861D861E8609
:102FC0001F86188A3AC0339434E0331609F0A8C03B
:102FD00069817A818B819C8128EE33E040E050E06A
:102FE0000E94A6206F8F78A389A39AA36D817E810A
:102FF0008F8198850E94A6206B8F7C8F8D8F9E8FEE
:1030000089859A85AB85BC858F8B988FA98FBA8F60
:103010006D857E858F8598890E94A6206B017C0135
:1030200090E2C9169EE4D90690E0E90690E0F90620
:1030300030F48CE162E30E941B03332471C0A0E3EF
:10304000CA16A5E7DA06A0E0EA06A0E0FA0618F438
:103050008CE162E2F0CFB0E4CB16BCE9DB06B0E075
:10306000EB06B0E0FB0618F48CE166E2E4CFE0E5A5
:10307000CE16E3ECDE06E0E0EE06E0E0FE0618F435
:103080008CE162E1D8CFF0E6CF16FAEEDF06F0E091
:10309000EF06F0E0FF0618F48CE165E1CCCF20E705
:1030A000C21621E1D20621E0E20620E0F20618F481
:1030B0008CE161E0C0CF30EAC31636E8D30631E0D8
:1030C000E30630E0F30618F48CE163E0B4CF8CE162
:1030D00065E0B1CFA0ED2A2E280E49E0421500F19F
:1030E000032D10E0000F111F000F111F81E090E071
:1030F0008C0F9D1F080F191FD8016D917D918D9127
:103100009C912AE030E040E050E00E94A620620D51
:10311000711D811D911DF8016083718382839383EA
:1031200084E894E00E949F1F892B09F0FACE811455
:103130009104A104B10489F4C301B2010E94AC035B
:1031400061E070E080E090E00E94981BFFEFFE8B52
:103150001D8A198A1A8A1B8A1C8A2F89388D498DE3
:103160005A8D82169306A406B506E0F40E943C032D
:1031700029893A894B895C89280F311D411D511DD0
:10318000298B3A8B4B8B5C8B3D89381708F48D8BE0
:103190004E89841708F48E8B0894811C911CA11C05
:1031A000B11C56C0C301B20128EE33E040E050E04C
:1031B0000E94D92084E894E0BA01A9012AE030E015
:1031C0000E94C81D84E894E06CE20E94161D84E809
:1031D00094E06D894AE050E00E94E81D84E894E0A4
:1031E0006CE20E94161D69897A898B899C89A501E8
:1031F00094010E94D92084E894E0BA01A9012AE050
:1032000030E00E94C81D84E894E06CE20E94161D24
:1032100084E894E06E894AE050E00E94E81D84E86A
:1032200094E06CE20E94341D4C0C5D1C6E1C7F1CF3
:103230008B8D9C8DAD8DBE8D84159505A605B7052E
:1032400020F44F8C58A069A07AA0882499245401B6
:103250002F8D38A149A15AA1285E334040405040EB
:1032600009F05ECFA296E2E10C94322180E065E99C
:1032700070E042E050E00E949F1A0895A1E0B0E0A3
:10328000E4E4F9E10C94262180E00E94B1008CE096
:1032900061E00E94011C8DE061E00E94011C0E941F
:1032A0001C0F80E060E00E94011C81E061E00E9450
:1032B000011C84E894E040E052EC61E070E00E9480
:1032C000181F0E949A110E94251084E894E063E47C
:1032D00071E00E94571E82E793E00E94191784E86C
:1032E00094E06AE571E00E94571E84E894E062E091
:1032F00070E04AE050E00E94431E0E943619789424
:103300002D9A8EE062E10E94DE16882329F02D9826
:103310002C980E944A17FBCF8AE063E00E94DE16D9
:10332000882329F40E94A911882309F000C184E8A8
:1033300094E062E671E00E94571E60E070E080E079
:1033400090E00E947C10882349F00E94A41184E838
:1033500094E06BE971E00E945A1E2C9A0E941E0EA6
:1033600022C08091C202833229F08091CB028B7FF0
:103370008093CB028091CB0281FF15C082FD13C0E8
:1033800064EF71E080E090E00E947C10882359F0A7
:103390000E94A41184E894E06BE971E00E945A1E37
:1033A0000E941E0E2C9A8091C102823239F58091C2
:1033B000C202833219F581E00E94D70D8091CB02C1
:1033C00082FF09C084E894E066EB71E00E945A1E17
:1033D0000E946C0813C064E170E080E090E00E94FD
:1033E000981B80E2BE016F5F7F4F41E021E00E94A9
:1033F000E908882319F481E080936D0384E894E060
:1034000061EC71E00E94571E8FE00E94B10080E0E5
:103410000E94160410922B0380E00E942603109253
:10342000E90390E0983158F4292F2F5FE92FF0E05D
:10343000E852FD4F8785882311F0922FF3CF9093A8
:10344000E90383E08093BC020E94310F80916D03F9
:10345000882311F00E946E0A8091C402883211F014
:103460008A3239F484E894E040E052EC61E070E0A4
:103470002BC0893271F484E894E040EA56E861E0B8
:1034800070E00E94181F8091C20080628093C20089
:1034900022C0809100038871803169F04091D90287
:1034A0005091DA026091DB027091DC024A305105E2
:1034B0006105710538F484E894E040E855E260E085
:1034C00070E002C084E894E00E94181F04C084E801
:1034D00094E00E94D91F84E894E00E949F1F892BEA
:1034E000B1F78091C302843229F08091C1008F7EB0
:1034F0008093C1008091C402853229F08091C1007F
:10350000877F8093C1001092E7031092E803109226
:103510006B030E94721B60932C0370932D038093A6
:103520002E0390932F032196E2E00C9442210E94F7
:103530001E0E8091C102823209F017CF12CF823065
:1035400000F5E82FF0E0EE0FFF1FE151FC4F718313
:103550006083882319F08130A1F408C0809169004C
:103560008C7F842B80936900E89A0895809169008C
:10357000440F551F440F551F837F842B8093690090
:10358000E99A08951F920F920FB60F9211242F936C
:103590003F934F935F936F937F938F939F93AF93DB
:1035A000BF93EF93FF938091EF039091F003892BEA
:1035B00029F0E091EF03F091F0030995FF91EF916D
:1035C000BF91AF919F918F917F916F915F914F913B
:1035D0003F912F910F900FBE0F901F9018951F9243
:1035E0000F920FB60F9211242F933F934F935F9337
:1035F0006F937F938F939F93AF93BF93EF93FF93BB
:103600008091F1039091F203892B29F0E091F1036D
:10361000F091F2030995FF91EF91BF91AF919F91C6
:103620008F917F916F915F914F913F912F910F906B
:103630000FBE0F901F9018951F920F920FB60F920A
:1036400011242F933F938F939F93AF93BF938091B8
:10365000F7039091F803A091F903B091FA03309128
:10366000FB030196A11DB11D232F2D5F2D3720F0E7
:103670002D570196A11DB11D2093FB038093F703E5
:103680009093F803A093F903B093FA038091F303A6
:103690009091F403A091F503B091F6030196A11D5A
:1036A000B11D8093F3039093F403A093F503B093BB
:1036B000F603BF91AF919F918F913F912F910F9002
:1036C0000FBE0F901F9018958FB7F8942091F703B5
:1036D0003091F8034091F9035091FA038FBFB9017B
:1036E000CA0108959FB7F8942091F3033091F40331
:1036F0004091F5035091F60386B5A89B06C08F3F15
:1037000021F02F5F3F4F4F4F5F4F9FBF542F432FED
:10371000322F2227280F311D411D511D82E0220F1B
:10372000331F441F551F8A95D1F7B901CA01089567
:10373000EF92FF920F931F93CF93DF937B018C0146
:103740000E94721BEB010EC00E94721B6C1B7D0B52
:10375000685E7340C8F30894E108F1080109110993
:10376000C851DC4FE114F1040105110569F7CDB72B
:10377000DEB7E6E00C943E21019739F0880F991FDF
:10378000880F991F02970197F1F70895789484B5EF
:10379000826084BD84B5816084BD85B5826085BD4D
:1037A00085B5816085BDEEE6F0E080818160808333
:1037B000E1E8F0E010828081826080838081816016
:1037C0008083E0E8F0E0808181608083E1EBF0E0DD
:1037D000808184608083E0EBF0E080818160808381
:1037E000EAE7F0E08081846080838081826080836A
:1037F0008081816080838081806880831092C10095
:103800000895CF93DF93482F50E0CA0186569F4F0B
:10381000FC0134914A575F4FFA018491882369F182
:1038200090E0880F991FFC01E859FF4FA591B491D2
:10383000FC01EE58FF4FC591D491662351F42FB788
:10384000F8948C91932F909589238C938881892368
:103850000BC0623061F42FB7F8948C91932F909540
:1038600089238C938881832B88832FBF06C09FB7C1
:10387000F8948C91832B8C939FBFDF91CF91089507
:10388000833071F0843028F48130A1F0823021F54A
:1038900014C08630B1F08730D1F08430E9F404C030
:1038A000809180008F7703C0809180008F7D80930E
:1038B0008000089584B58F7702C084B58F7D84BD64
:1038C00008958091B0008F778093B0000895809123
:1038D000B0008F7D8093B0000895FF920F931F93E7
:1038E000F62E482F50E0CA0182559F4FFC012491CB
:1038F000CA0186569F4FFC0114914A575F4FFA0147
:1039000004910023C9F0222319F0822F0E94401C49
:10391000E02FF0E0EE0FFF1FEE58FF4FA591B4919E
:103920009FB7F894FF2021F48C911095812302C059
:103930008C91812B8C939FBF1F910F91FF900895C5
:103940000F931F93482F50E0CA0182559F4FFC01EF
:103950002491CA0186569F4FFC0104914A575F4F3C
:10396000FA011491112319F420E030E015C022234C
:1039700019F0822F0E94401C812F90E0880F991F20
:1039800084589F4FFC01A591B4918C9120E030E0C8
:10399000802311F021E030E0C9011F910F910895BB
:1039A000982F8E3008F09E509770809187028295F4
:1039B000880F880F807C892B80937C0080917A000F
:1039C000806480937A0080917A0086FDFCCF2091FC
:1039D000780040917900942F80E030E0282B392B3B
:1039E000C9010895A0E0B0E0E8EFFCE10C942021CB
:1039F0007C016B018A01C0E0D0E00FC0D6016D915F
:103A00006D01D701ED91FC910190F081E02DC7018E
:103A10000995C80FD91F015010400115110571F704
:103A2000CE01CDB7DEB7E8E00C943C21DC01ED918E
:103A3000FC910190F081E02D09950895EF92FF929D
:103A40000F931F938C016DE00E94161D7C01C8012D
:103A50006AE00E94161D9C012E0D3F1DC9011F9199
:103A60000F91FF90EF900895EF92FF920F931F93A5
:103A70007C010E94161D8C01C7010E941E1D9C0125
:103A8000200F311FC9011F910F91FF90EF900895F2
:103A9000CF93DF93EC016115710519F420E030E05C
:103AA0000FC0DB010D900020E9F71197A61BB70BA3
:103AB000E881F9810280F381E02DAD0109959C0137
:103AC000C901DF91CF9108954F925F927F928F92BB
:103AD0009F92AF92BF92CF92DF92EF92FF920F939D
:103AE0001F93DF93CF93CDB7DEB7A1970FB6F894AE
:103AF000DEBF0FBECDBF2C01742ECB01223008F4E7
:103B00002AE019A231E2C32ED12CCC0EDD1E822E6A
:103B10009924AA24BB24672D752FA50194010E9426
:103B2000D92079018A01C801B701A50194010E9439
:103B3000A620472D461B0894C108D1084A3010F42E
:103B4000405D01C0495CF6014083E114F1040105C8
:103B5000110521F07E2C5F2DC801DDCFC201B60119
:103B60000E94481DA1960FB6F894DEBF0FBECDBFD0
:103B7000CF91DF911F910F91FF90EF90DF90CF9049
:103B8000BF90AF909F908F907F905F904F900895DF
:103B9000DC012115310541F4ED91FC910190F0819A
:103BA000E02D642F099508950E94641D0895EF92F9
:103BB000FF920F931F939A017B0100E010E0B80180
:103BC000A7010E94C81D1F910F91FF90EF900895CB
:103BD000EF92FF920F931F939A01E62EFF2400E0CD
:103BE00010E0B801A7010E94C81D1F910F91FF901E
:103BF000EF900895A0E0B0E0E0E0FEE10C94202119
:103C0000EC016A017B012115310541F4E881F9815C
:103C10000190F081E02D642F09951BC02A303105F9
:103C2000B1F477FF13C06DE20E94161D8C0144278A
:103C30005527BA014C195D096E097F09CE012AE0AA
:103C40000E94641D9C01200F311F04C02AE00E94C5
:103C5000641D9C01C901CDB7DEB7E8E00C943C219E
:103C6000EF92FF920F931F937B019A010027F7FCBD
:103C70000095102FB801A7010E94FA1D1F910F9106
:103C8000FF90EF900895EF92FF920F931F937C01A6
:103C90000E94301E8C01C7010E941E1D9C01200F36
:103CA000311FC9011F910F91FF90EF9008950E945D
:103CB000481D0895EF92FF920F931F937C010E947D
:103CC000571E8C01C7010E941E1D9C01200F311F31
:103CD000C9011F910F91FF90EF90089508951F92D1
:103CE0000F920FB60F9211242F933F934F938F9300
:103CF0009F93EF93FF938091C00082FD1DC0409180
:103D0000C60020913C0430913D042F5F3F4F2F733C
:103D1000307080913E0490913F042817390771F06C
:103D2000E0913C04F0913D04E450FC4F408330931B
:103D30003D0420933C0402C08091C600FF91EF91A6
:103D40009F918F914F913F912F910F900FBE0F90A8
:103D50001F9018951F920F920FB60F9211242F9358
:103D60003F938F939F93EF93FF9320918004309123
:103D7000810480918204909183042817390731F4DB
:103D80008091C1008F7D8093C10014C0E0918204B6
:103D9000F0918304E05CFB4F20818091820490913C
:103DA000830401968F7390709093830480938204B0
:103DB0002093C600FF91EF919F918F913F912F919A
:103DC0000F900FBE0F901F901895A0E0B0E0EBEEA3
:103DD000FEE10C941C21FC011382128288EE93E018
:103DE000A0E0B0E084839583A683B78380EB92E064
:103DF000918380837587648757874687318B208BB3
:103E0000138B028BF58AE48AD78AC68AB18EA08E7C
:103E1000938E828E8F85848F8889858F8989868FFE
:103E20008A89878F8B8980A32096ECE00C943821B7
:103E3000AF92BF92DF92EF92FF920F931F93CF93B7
:103E4000DF93EC017A018B01DD24403081EE5807CD
:103E500080E0680780E0780711F0DD24D39491E0DA
:103E6000A92EB12CEC89FD89DD2069F0C50108A0DF
:103E700002C0880F991F0A94E2F7808360E079E01E
:103E80008DE390E005C0108260E874E88EE190E078
:103E9000A80197010E94D920215030404040504055
:103EA000569547953795279580E12030380720F0C3
:103EB000DD2011F0DD24D6CFE889F9893083EA8945
:103EC000FB89208319A2EE89FF89408121E030E03F
:103ED000C9010C8C02C0880F991F0A94E2F7482B85
:103EE0004083EE89FF894081C9010D8C02C0880F93
:103EF000991F0A94E2F7482B4083EE89FF8940819D
:103F0000C9010E8C02C0880F991F0A94E2F7482B52
:103F10004083EE89FF8980810F8C02C0220F331FFE
:103F20000A94E2F7209528232083DF91CF911F91F7
:103F30000F91FF90EF90DF90BF90AF900895DC015C
:103F40001C96ED91FC911D97E05CFF4F2191319102
:103F500080819181281B390B2F733070C90108951E
:103F600084E894E00E949F1F892B11F00E946E1E2E
:103F70000895DC011C96ED91FC911D97E05CFF4FCC
:103F800020813181E054F040DF01AE5BBF4F8D9165
:103F90009C9111972817390719F42FEF3FEF07C0AD
:103FA0008D919C91E80FF91F8081282F30E0C90185
:103FB0000895DC011C96ED91FC911D97E05CFF4F8C
:103FC00020813181E054F040DF01AE5BBF4F8D9125
:103FD0009C9111972817390719F42FEF3FEF10C064
:103FE0008D919C911197E80FF91F20818D919C91E3
:103FF000119701968F73907011969C938E9330E079
:10400000C9010895DC0191968C919197882339F02C
:104010005496ED91FC915597808186FFF9CF91964A
:104020001C920895CF93DF93EC01EE85FF85E05C51
:10403000FF4F20813181E054F0402F5F3F4F2F73BD
:104040003070DF01AE5BBF4F8D919C9111972817A7
:104050003907D1F3E05CFF4F80819181E054F0405B
:10406000E80FF91F6083EE85FF85E05CFF4F318329
:104070002083EE89FF89208181E090E00F8C02C0CF
:10408000880F991F0A94E2F7282B208381E089A3E7
:10409000EC89FD8980818064808381E090E0DF91FC
:1040A000CF9108958F929F92AF92BF92CF92DF925D
:1040B000EF92FF920F931F9300D000D00F92EDB7B5
:1040C000FEB7319684E0ADB7BEB711968C9383E00E
:1040D000818387E0828385E0838381E0848384E831
:1040E00094E06CEF73E040E454E025EC30E004EC45
:1040F00010E0B0ECEB2EF12CA1ECCA2ED12CF2EC9E
:10410000AF2EB12CE6EC8E2E912C0E94E51E0F9066
:104110000F900F900F900F901F910F91FF90EF90C5
:10412000DF90CF90BF90AF909F908F900895CF93E6
:10413000DF930E94C61B0E943E19C0EBDFE10E9484
:10414000C4122097E1F30E94B01FF9CF629FD00103
:10415000739FF001829FE00DF11D649FE00DF11D42
:10416000929FF00D839FF00D749FF00D659FF00DF1
:104170009927729FB00DE11DF91F639FB00DE11DDE
:10418000F91FBD01CF0111240895AA1BBB1B51E1EA
:1041900007C0AA1FBB1FA617B70710F0A61BB70BB7
:1041A000881F991F5A95A9F780959095BC01CD015C
:1041B0000895A1E21A2EAA1BBB1BFD010DC0AA1F68
:1041C000BB1FEE1FFF1FA217B307E407F50720F080
:1041D000A21BB30BE40BF50B661F771F881F991FFB
:1041E0001A9469F760957095809590959B01AC0144
:1041F000BD01CF01089597FB092E05260ED057FD6E
:1042000004D0D7DF0AD0001C38F450954095309583
:1042100021953F4F4F4F5F4F0895F6F7909580954A
:10422000709561957F4F8F4F9F4F08952F923F92CA
:104230004F925F926F927F928F929F92AF92BF92B6
:10424000CF92DF92EF92FF920F931F93CF93DF9362
:10425000CDB7DEB7CA1BDB0B0FB6F894DEBF0FBEBF
:10426000CDBF09942A88398848885F846E847D840C
:104270008C849B84AA84B984C884DF80EE80FD800E
:104280000C811B81AA81B981CE0FD11D0FB6F89484
:10429000DEBF0FBECDBFED010895EE0FFF1F0590ED
:0A42A000F491E02D0994F894FFCF8B
:1042AA0054582074696D656F75742100576169747B
:1042BA00696E672062696E640A00476F7420706BCA
:1042CA00740A006461746120676F6F640A0052584F
:1042DA002068616E67007363616E6E6572206D6F30
:1042EA006465004F70656E4C52536E6720525820B9
:1042FA007374617274696E672000206F6E2048576C
:10430A002000454550524F4D2064617461206E6F04
:10431A00742076616C6964206F722062696E642011
:10432A006A756D70706572207365742C20666F7281
:10433A0063696E672062696E640A00536176656418
:10434A002062696E64206461746120746F2045453F
:10435A0050524F4D0A004920616D20736C61766599
:10436A0000456E746572696E67206E6F726D616C5E
:10437A00206D6F646500002001270121022B0322B2
:10438A000326042304260524062506280629062AC8
:10439A00C01200001A400AA1204EA5001B1E275277
:1043AA002C23308025000005400AA1204EA50020BC
:1043BA00244EA52C2330004B000006400AD0009D55
:1043CA0049007B289D492C233000E1000005400A62
:1043DA004501D7DC03B81E0EBF00232E48E80100B2
:1043EA008A400A6001555502AD1E20000023C8808C
:1043FA0025000005400AA1204EA50020244EA52C28
:10440A002330000200020002000200020002000241
:10441A000002000200020002000200020002000282
:10442A0000028813409C08010A030E1213000104BB
:10443A000000000008000100001000002000000039
:10444A000100000200070B0C10111500000000000B
:0C445A001220F21C9F1FD91FB91F022066
:00000001FF
