:100000000C9462000C94581A0C94851A0C948A0073
:100010000C948A000C948A000C948A000C948A0038
:100020000C948A000C948A000C948A000C948A0028
:100030000C948A000C94BC060C948A000C948A00E0
:100040000C94B21A0C948A000C94051E0C94401E59
:100050000C948A000C948A000C948A000C948A00F8
:100060000C9440050C948A00000000002400270036
:100070002A0000000000250028002B0000000000DE
:1000800023002600290004040404040404040202DA
:100090000202020203030303030301020408102007
:1000A0004080010204081020010204081020000012
:1000B0000007000201000003040600000000000029
:1000C0000000E81F11241FBECFEFD8E0DEBFCDBF78
:1000D00012E0A0E0B1E0E6EDF1E402C005900D927F
:1000E000A43DB107D9F714E0A4EDB2E001C01D9220
:1000F000AD3BB107E1F710E0C4ECD0E004C02297BB
:10010000FE010E94E520C23CD107C9F70E942D20C4
:100110000C94E9200C940000FB01DC0102C001906A
:100120000D9241505040D8F708958091D40281300B
:1001300019F482E08093D4028091D402833019F4C0
:1001400084E08093D4020895E3E0F0E089E08093B6
:100150005700849190E08670863009F491E0892FF1
:1001600008951F93182F0E94A400882379F09FB749
:1001700081E080930304F894A89588E1809360005F
:1001800010936000112309F0A8959FBF1F91089557
:10019000382F20E080910404909105048227932752
:1001A00040E061E270E19C01220F331F97FF04C021
:1001B000C9018627972701C0C9014F5F483099F7C9
:1001C000909305048093040408958436910520F4E7
:1001D000BC0180E090E025C08E3B910550F48A552B
:1001E0009040BC0180E090E02AE030E040E050E048
:1001F00016C0823D910550F4845B9040BC0180E0C4
:1002000090E024E630E040E050E009C08D5C904092
:10021000BC0180E090E028E532E040E050E00E9440
:100220003C2024E630E040E050E00E943C2008956D
:1002300090E08C599F4F0E94E5000895DC0198964C
:10024000EC91F0E0E770F070E454FD4F8081089588
:10025000FC0120A530E0C9018170907001962770E3
:10026000307035952795820F931F880F880F08955A
:100270008F929F92AF92BF92CF92DF92EF92FF92B6
:100280000F931F938C010E941E01D80197962C9109
:1002900030E043E150E0249FF001259FF00D349FB2
:1002A000F00D1124E051FE4F80809180A280B38038
:1002B00090E00F96AA2797FDA095BA2FBC01CD011B
:1002C00020E43FE14DE750E00E943C20A50194016D
:1002D0000E946F2069017A0180ED97E0A0E0B0E014
:1002E000C80ED91EEA1EFB1ED80198968C91887103
:1002F00081F060E07EEE8AEB9BE0A50194010E9414
:100300006F2028513C4F4F4F5F4FC20ED31EE41E4B
:10031000F51E87EE93E0A0E0B0E0C80ED91EEA1EFD
:10032000FB1EC701B60128EE33E040E050E00E941A
:100330006F20CA01B90128EE33E040E050E00E948E
:100340003C201F910F91FF90EF90DF90CF90BF90D6
:10035000AF909F908F9008951F93182FDB01FA01A3
:10036000482F469530E0848190E083709070982FFC
:1003700088272081820F911D11969C938E938481F2
:1003800090E08C70907076E0880F991F7A95E1F775
:100390002181820F911D13969C938E9312978481D5
:1003A00090E08073907064E0880F991F6A95E1F780
:1003B0002281820F911D15969C938E9314978481B0
:1003C00090E0807C9070880F991F880F991F23817F
:1003D000820F911D17969C938E93169735961896BB
:1003E0003F5F431708F0BFCF10FF50C08081829558
:1003F00086958695837090E02DE431E0AC01429FB4
:10040000C001439F900D529F900D11240C961196A0
:100410009C938E93808190E044E0969587954A95D1
:10042000E1F783709070AC01429FC001439F900D33
:10043000529F900D11240C9613969C938E931297B5
:10044000808190E0969587959695879583709070BA
:10045000AC01429FC001439F900D529F900D11240B
:100460000C9615969C938E931497808190E08370E0
:100470009070AC01429FC001439F900D529F900D20
:1004800011240C9617969C938E9316971F9108959E
:1004900023E08032920718F420E030E026C023E009
:1004A000883E920748F49C012F51334054E0369522
:1004B00027955A95E1F719C027E0803D920720F46F
:1004C0009C012C5D334011C028E08839920718F058
:1004D0002FEF33E00AC09C01285C374044E036959A
:1004E00027954A95E1F72D503C4FC90108958C306E
:1004F000910548F49C0174E0220F331F7A95E1F7CF
:10050000285D3C4F17C023E0843F920720F49C01F4
:1005100024523C4F0FC024E08030920718F020E9AD
:1005200038E008C09C012657334F64E0220F331F88
:100530006A95E1F7C90108959C01369527952575BF
:100540003575821B930B9C0136952795369527951B
:100550002373337383739373280F391FC901E4E046
:1005600096958795EA95E1F7820F931F8F709F709C
:1005700021E031E0AC01429FC001439F900D529FAA
:10058000900D1124892F0895882339F04298000096
:10059000419A0000429A0000089542980000419854
:1005A0000000429A00000895429A000086B14298E5
:1005B0000000817008950F931F93082F5C9A429852
:1005C0005C9810E0802F80780E94C402000F1F5FAB
:1005D0001830C1F742981F910F9108958F770E94AC
:1005E000DB0208950F931F93082F10E0802F80786F
:1005F0000E94C402000F1F5F1830C1F742981F917C
:100600000F9108950F931F93429880E000E0182FF8
:10061000110F0E94D402810F0F5F0830C1F71F91A4
:100620000F9108950E94EE020E9402035C9A0895C1
:100630001F93162F80680E94DB02812F0E94F20216
:100640005C9A1F9108951F931091F9021827E0EF0B
:10065000F2E0E80FF11D89E767850E9418038DE33A
:10066000612F0E94180382E4612F0E9418031F91DA
:10067000089586E20E94120308950F931F938BE260
:100680000E941203082F8CE20E941203282F30E0F0
:1006900016E0369527951A95E1F710E0000F111F27
:1006A000000F111F202B312BC9011F910F910895AD
:1006B0000F931F938C018CE1F80164810E94180351
:1006C0008DE1F80165810E9418038EE1F8016681D1
:1006D0000E94180380E2F80167810E94180381E2FA
:1006E000F80160850E94180382E2F80161850E948A
:1006F000180383E2F80162850E94180384E2F8017E
:1007000063850E94180385E2F80164850E9418033E
:100710008AE2F80165850E9418038EE6F801668575
:100720000E9418038FE6F80167850E94180380E78E
:10073000F80160890E94180381E7F80161890E942D
:10074000180382E7F80162890E9418031F910F9134
:100750000895EF92FF920F931F93CF93DF937B0146
:100760008C01603028E372072CE982072CE19207A4
:1007700028F520E836E948E950E00E946F20E901B9
:100780006897B90180E090E020E839E647E65FEF3E
:100790000E943C206E0D7F1D801F911F22E0660F7E
:1007A000771F881F991F2A95D1F721E732E040E093
:1007B00050E00E946F20890180E421C020E03DE2EA
:1007C00041E351E00E946F20E9016897B90180E0A0
:1007D00090E020E033ED4EEC5EEF0E943C206E0D89
:1007E0007F1D801F911F660F771F881F991F21E7AC
:1007F00032E040E050E00E946F20890180E69E01D7
:100800002F71622F680F85E70E94180386E7612F1A
:100810000E94180387E7602F0E941803CDB7DEB748
:10082000E6E00C94D4209F92AF92BF92CF92DF92D9
:100830000F93DF93CF9300D000D0CDB7DEB7982EC3
:1008400083E00E9412038093190384E00E94120344
:1008500080931A0386E060E00E94180387E061E05D
:100860000E94180389E06FE70E9418038AE065E0A0
:100870000E9418038BE062E10E9418038CE065E19E
:100880000E9418038DE06DEF0E9418038EE060E077
:100890000E941803992019F08FE492E008C080911B
:1008A000170323E1829FC001112480519E4F0E94B3
:1008B000580380E36CE80E94180382E36FE00E9413
:1008C000180383E362E40E94180384E36AE00E9451
:1008D000180385E36AE20E94180386E36DE20E9432
:1008E000180387E364ED0E94180388E360E00E9428
:1008F000180389E360E00E941803992049F055E845
:10090000A52E51ECB52E51ECC52E5EEDD52E08C0AE
:10091000A090F902B090FA02C090FB02D090FC02C5
:100920000AE38D2D9927AA27BB2789839A83AB8356
:10093000BC83802F69810E941803802F8B5F69819F
:100940000E941803DC2CCB2CBA2CAA240F5F0E3388
:1009500041F783E46FEF0E94180384E46FEF0E9475
:10096000180385E46FEF0E94180386E46FEF0E947E
:100970001803992019F08DE666E003C08DE66091BA
:10098000FD020E94180389E760E00E9418038AE7CD
:100990006091FE020E94180383E760E00E94180342
:1009A00084E760E00E941803992029F060EC72E966
:1009B0008DEE99E108C06091F5027091F602809188
:1009C000F7029091F8020E94A9030F900F900F90E8
:1009D0000F90CF91DF910F91DF90CF90BF90AF90AC
:1009E0009F90089587E061E00E9418038EE764E21B
:1009F0000E94180388E063E00E94180388E060E02A
:100A00000E94180387E065E00E94180385E062E019
:100A10000E94180383E00E9412038093190384E06C
:100A20000E94120380931A03089590E0411191E00F
:100A3000880F982B9093BA00660F6093BD00309397
:100A4000200320931F030895882311F085EC01C033
:100A500085E88093BC00089585ED8093BC0080916B
:100A6000BC0084FDFCCF089585EC8093BC00089504
:100A7000ECEBF0E0108285E480831092250308956A
:100A80001F920F920FB60F9211242F933F934F9303
:100A90005F936F937F938F939F93AF93BF93EF93E6
:100AA000FF93DF93CF930F92CDB7DEB78091B9005C
:100AB00090E0887F90708036910509F4EAC0813615
:100AC0009105CCF58832910509F47CC089329105F5
:100AD000B4F48031910509F470C0813191053CF482
:100AE000009709F40EC1089709F00DC166C088315E
:100AF000910509F467C0809709F005C177C080347B
:100B0000910509F490C08134910544F48033910536
:100B100009F46EC0C89709F0F6C06CC08035910525
:100B200009F471C08835910509F483C088349105B2
:100B300009F0E9C0A5C08839910509F4DCC08939FC
:100B40009105ECF48837910509F4A3C08937910524
:100B50004CF48836910509F49CC08037910509F062
:100B6000D2C097C08838910509F4C5C08039910575
:100B700009F492C08038910509F0C5C08DC0803B52
:100B8000910509F4A5C0813B91054CF4803A91058B
:100B900009F499C0883A910509F0B5C099C0803C24
:100BA000910509F4AAC0883C910509F4A6C0883BC8
:100BB000910509F0A8C080E08CC08091210380934A
:100BC000BB009BC0809124038150809324038F5FDE
:100BD00009F43FC0E0912203F091230381918093B7
:100BE000BB00F0932303E093220387C082E049C057
:100BF00083E047C084E080932603809125038B7FA8
:100C00008093250362C08091BB00E0912203F091A4
:100C100023038193F0932303E09322038091240321
:100C200081508093240380912403823008F065C0B2
:100C300062C08091BB00E0912203F0912303819375
:100C4000F0932303E0932203809124038150809347
:100C50002403809125038B7F8093250380912503B6
:100C600080FF4FC0809125038E7F80932503809164
:100C7000250382608093250384EA8093BC0043C0EF
:100C800085E080932603809125038B7F8093250345
:100C900038C01092240331C0E0911F03F09120036B
:100CA000309749F19091BB00809124038F5F80932E
:100CB0002403815011F060E001C062E09983CE010D
:100CC000019609951BC00E942C050E9434051BC08B
:100CD00081E0E0911F03F0912003309761F08823B9
:100CE00011F461E001C063E0CE010196099599819C
:100CF0009093BB0003C080E001C081E00E94240506
:100D000002C00E942C050F90CF91DF91FF91EF91CF
:100D1000BF91AF919F918F917F916F915F914F9113
:100D20003F912F910F900FBE0F901F90189525B1F6
:100D300090E0FC01EE0FFF1FE80FF91FE557FC4F95
:100D40008081282B25B988B19181892B88B98BB1F5
:100D50009281892B8BB9089585B19091BB0389232A
:100D600085B988B19091BC03892388B98BB19091E2
:100D7000BD0389238BB908951F920F920FB60F926E
:100D800011241F932F933F934F935F936F937F9300
:100D90008F939F93AF93BF93CF93DF93EF93FF9383
:100DA00010915E0380918602C0918402D0918502E9
:100DB000181708F05BC08091BE039091BF03909319
:100DC000870080938600E12FF0E0EE0FFF1FEE59C1
:100DD000FD4F808191810E947702880F991F909327
:100DE000BF038093BE038091BE039091BF039E0119
:100DF000281B390BC901309385022093840220916E
:100E0000EB023091EC02220F331F8217930720F47C
:100E1000309385022093840280916003882339F403
:100E20008091E30280FF59C0183008F456C08FEF5C
:100E30009FEF909389008093880080918400909127
:100E400085008097D0F30E94AC0680915F038823D1
:100E500039F480915E03882319F081500E9497062F
:100E600080915E038F5F80935E033EC08091BE03DE
:100E70009091BF039093870080938600D093BF0327
:100E8000C093BE0380916003882319F08FEF9FEF1A
:100E900006C08091BE039091BF0388559240909305
:100EA00089008093880080E49CE990938502809378
:100EB000840280918400909185008097D0F30E94F5
:100EC000AC0680915F03882329F4809186028150CB
:100ED0000E94970610925E0307C08091BE03909116
:100EE000BF0388559240A5CFFF91EF91DF91CF913D
:100EF000BF91AF919F918F917F916F915F914F9132
:100F00003F912F911F910F900FBE0F901F9018953A
:100F100090E0880F991F880F991F8C30910518F465
:100F20002CE030E007C09C0183E0253F380710F03B
:100F300024EF33E0C9010895809162039091630327
:100F40008F5F9F4FE9F08091E402482F50E0A2E6C6
:100F5000B3E020E030E02417350761F0F8948D917C
:100F60009C911197F901EE0FFF1FEE59FD4F9183F0
:100F7000808378942F5F3F4F12962031310559F7C7
:100F800008951F93CF93DF93EC0170E0CB01827043
:100F9000907060FF1AC0892B31F0809184038883A0
:100FA0001092020445C01091020480EF92E00E946A
:100FB0001E011817D8F5E12FF0E0E054FC4F8081B6
:100FC00088831F5F1093020433C0892BC1F098817E
:100FD0009093010410920204892F807E803651F490
:100FE00080918403823010F188818F718093430354
:100FF00083E01AC09E3FE1F41092840317C08091F1
:1010000001048F3FA9F420910204293278F4E22FE1
:10101000F0E0E051FD4F88818083822F8F5F8093C5
:101020000204893229F481E08093840380E001C0C6
:1010300081E0DF91CF911F910895EF92FF920F937E
:101040001F93CF93DF9380E260E040E021EC37E034
:101050000E94150510928403E2E0EE2E75E0F72E53
:1010600004E080918403813039F480E00E9413040D
:10107000E09284034398F5CF10918403133061F418
:101080002D98809143030E9423031093D4020E9461
:10109000F20400938403E5CF80918403843009F740
:1010A0008091D4028430E9F68FE70E94EE02C0E01E
:1010B000D0E007C00E940203FE01E054FC4F808391
:1010C000219680EF92E00E941E0190E0C817D90798
:1010D0008CF3F09284032D9AC4CFA0E0B0E0E3E754
:1010E000F8E00C94B420EC010E94081B5B016C0139
:1010F0007E0100E010E011C0209779F00E94081BEB
:101100006A197B098C099D09E616F7060807190775
:1011100020F40E94380581E008C08091250382FDFB
:10112000EBCF8091260310922603CDB7DEB7EAE01D
:101130000C94D020A0E0B0E0E0EAF8E00C94B620F7
:10114000182F7B01042FC22FD0E0F4E0CF2ED12C3A
:10115000CC22DD2222FF03C080E090E004C0809119
:101160008202909183020E946D08282F8823B9F58E
:101170001092260300932403F0922303E0922203AB
:10118000110F11601093210390912503C1FD02C03E
:1011900084E001C085E0892B80932503809125039D
:1011A00081FF0BC0809125038D7F80932503809163
:1011B00021038093BB0085EC01C085EE8093BC00C9
:1011C000C0FF0DC0C114D10419F080E090E004C04C
:1011D00080918202909183020E946D08282F822FB5
:1011E000CDB7DEB7E8E00C94D220A0E0B0E0EBEFA2
:1011F000F8E00C94B620182F7B01042FC22FD0E00A
:10120000A4E0CA2ED12CCC22DD2222FF03C080E034
:1012100090E004C080918202909183020E946D0848
:10122000282F8823B1F51092260300932403F0920F
:101230002303E0922203110F1093210390912503C1
:10124000C1FD02C084E001C085E0892B80932503A5
:101250008091250381FF0BC0809125038D7F8093B2
:101260002503809121038093BB0085EC01C085EEAE
:101270008093BC00C0FF0DC0C114D10419F080E000
:1012800090E004C080918202909183020E946D08D8
:10129000282F822FCDB7DEB7E8E00C94D2208091C2
:1012A000D402813011F081E008950E94081B209142
:1012B0001B0330911C0340911D0350911E03621BC0
:1012C000730B840B950B615A76488140904010F463
:1012D00080E0089582E00895FF920F931F93CF93CB
:1012E000DF93182F092FF62E8EE30E941803212F6B
:1012F000302FC901EC0110E005C08FE769910E9411
:1013000018031F5F1F15C8F385E064E00E941803EF
:1013100083E00E9412038093190384E00E94120369
:1013200080931A030E94081B60931B0370931C0395
:1013300080931D0390931E0387E069E00E941803C9
:1013400081E08093D402CDB7DEB7E5E00C94D520E0
:101350000E946C098091D4028130D9F40E94081B4C
:1013600020911B0330911C0340911D0350911E03DB
:10137000621B730B840B950B605A7648814090403A
:1013800040F4E8CF8BE994E060E071E00E94F01D4A
:1013900008958091D4028130A9F30895A1E0B0E0CE
:1013A000E4EDF9E00C94BC20809184038230B9F420
:1013B00080E2BE016F5F7F4F41E021E00E949A080A
:1013C000882379F08FEF809384030E94FA1A609348
:1013D00085037093860380938703909388038FEF30
:1013E00001C089812196E2E00C94D820A1E0B0E010
:1013F000ECEFF9E00C94BC20809184038230D9F4A6
:1014000080914303805A898380E2BE016F5F7F4FE2
:1014100041E021E00E94F508882369F08FEF809376
:1014200084030E94FA1A6093850370938603809365
:101430008703909388032196E2E00C94D820AAE2D7
:10144000B0E0E5E2FAE00C94BA208FEF8983DE0188
:101450001296E0EFF2E089E201900D928150E1F7FF
:1014600080E28E010F5F1F4FB8014AE221E00E9427
:10147000F508882351F480E2B80141E021E00E94A0
:101480009A08882311F482E001C08FEF80938403CF
:1014900080918403823051F00E94FA1A6093850390
:1014A000709386038093870390938803AA96E4E061
:1014B0000C94D620A2E0B0E0E0E6FAE00C94B8206C
:1014C0000E94081B9B01AC01809127039091280387
:1014D000A0912903B0912A0379018A01E81AF90A37
:1014E0000A0B1B0BD801C70181519742A040B040A5
:1014F00008F444C080912B038F5F80932B038150AD
:1015000080FD02C000E001C007E020932703309374
:1015100028034093290350932A038BE994E063E066
:101520000E94A81F8BE994E061E00E94A81F47E099
:10153000F42EF00E802F90E0880F991F9C012E59F9
:101540003D4F3A832983F90160817181672F7727A5
:1015500063707070880F991F682B792B8BE994E06A
:101560000E94A81FE981FA816081718170708BE906
:1015700094E00E94A81F0F5F0F15E1F62296E6E0A7
:101580000C94D4201F93182F8BE994E0612F0E94B4
:10159000A81F812F0E94C8001F910895A0E0B0E00D
:1015A000E4EDFAE00C94B620082F0E94081B9B0182
:1015B000AC018091270390912803A0912903B09159
:1015C0002A0369017A01C81AD90AEA0AFB0AD70173
:1015D000C60181519742A040B04008F443C0209317
:1015E0002703309328034093290350932A03109232
:1015F00005041092040488EA0E94C20A002311F430
:1016000081E001C081E80E94C20A80E10E94C20A12
:10161000C0E0D0E0FE01EE0FFF1FEE59FD4F8081CC
:1016200091810E9477028C0153E0000F111F5A959F
:10163000E1F7812F0E94C20A802F0E94C20A2196E0
:10164000C031D10539F7609105048BE994E00E941F
:10165000A81F609104047091050470708BE994E0F8
:101660000E94A81FCDB7DEB7E8E00C94D220A0E01E
:10167000B0E0EDE3FBE00C94B620182F062F0E949B
:10168000081B9B01AC018091270390912803A09136
:101690002903B0912A0369017A01C81AD90AEA0A12
:1016A000FB0AD701C60181519742A040B04008F41F
:1016B000D6C12093270330932803409329035093E6
:1016C0002A038091620290916302880F991F809390
:1016D0002C03977080912D03887F892B80932D0395
:1016E0002091640230916502220F331F922F990FCF
:1016F000990F990F8770892B80932D03422F429564
:101700004695477080912E03807C932F9770990F98
:10171000990F990F842B892B80932E0320916602B9
:1017200030916702220F331F922F9295990F990FD4
:10173000907C8F73892B80932E03932F9295990F12
:10174000990F907C822F86958695892B80932F0305
:10175000932F969596959170809130038E7F892B6B
:10176000809330032091680230916902220F331F69
:10177000922F990F8170892B80933003422F441F41
:101780004427441F80913103807F932F9770990FD6
:10179000842B892B8093310320916A0230916B0254
:1017A000220F331F922F9295907F8F70892B8093F9
:1017B0003103422F42954F70809132038078932FEE
:1017C00097709295907F842B892B80933203209180
:1017D0006C0230916D02220F331F8F77809332039A
:1017E000932F979599279795822F8695892B80938C
:1017F0003303932F96959370809134038C7F892BBC
:101800008093340340916E0250916F02440F551F34
:10181000942F990F990F8370892B80933403942F01
:10182000929596959695937020913503207E852FFD
:101830008770880F880F292B282B209335038091E0
:10184000700290917102880F991F382F3295330FD3
:10185000307E2F71232B20933503292F2295220FC1
:10186000207E869586958695822B8093360380917F
:10187000720290917302880F991F809337039770BB
:1018800080913803887F892B8093380320917402DC
:1018900030917502220F331F922F990F990F990FD4
:1018A0008770892B80933803422F42954695477065
:1018B00080913903807C932F9770990F990F990F1E
:1018C000842B892B80933903209176023091770203
:1018D000220F331F922F9295990F990F907C8F733F
:1018E000892B80933903932F9295990F990F907CB0
:1018F000822F86958695892B80933A03932F969510
:101900009695917080913B038E7F892B80933B034A
:101910002091780230917902220F331F922F990F74
:101920008170892B80933B03422F441F4427441F1F
:1019300080913C03807F932F9770990F842B892B84
:1019400080933C0320917A0230917B02220F331F57
:10195000922F9295907F8F70892B80933C03422F1A
:1019600042954F7080913D038078932F97709295A8
:10197000907F842B892B80933D0320917C023091B2
:101980007D02220F331F8F7780933D03932F97950E
:1019900099279795822F8695892B80933E03932FC5
:1019A0009695937080913F038C7F892B80933F03A2
:1019B00040917E0250917F02440F551F942F990F42
:1019C000990F8370892B80933F03942F929596955E
:1019D0009695937020914003207E852F8770880F05
:1019E000880F292B282B209340038091800290910F
:1019F0008102880F991F382F3295330F307E2F7157
:101A0000232B20934003292F2295220F207E869599
:101A100086958695822B80934103112311F490E0E3
:101A200001C098E0002311F480E001C084E0892B1C
:101A3000809342038BE994E06FE00E94A81FCCE200
:101A4000D3E08BE994E069910E94A81F83E0C3343E
:101A5000D807B9F78BE994E060E00E94A81FCDB7E2
:101A6000DEB7E8E00C94D2201F93182F8091DE029D
:101A70008B3221F48CE0612F0E94031C8091D602EE
:101A8000873259F4112321F08091B000806103C0A6
:101A90008091B0008F7E8093B0001F9108950F93C6
:101AA0001F9380915C0390915D039F770E949C023D
:101AB000982F8F3031F48091580386958695805405
:101AC00004C08DE0989FC0011124809359030091B8
:101AD000E402003170F4F89410E0809159030E9400
:101AE0008807000F111F0E591D4FF8019183808345
:101AF00078948091D6028132C9F490915903892F4C
:101B000081508E3F60F08091B0008F7D8093B00057
:101B100060E0911161E083E00E94031C07C0909394
:101B2000B4008091B00080628093B0001F910F914B
:101B300008951F93182F811111E082E1612F0E94F7
:101B4000031C83E1612F0E94031C10922403109256
:101B500025038091B9008C6F8093B90080E2809357
:101B6000B80085E48093BC001F910895CF93DF9364
:101B70008BE994E00E94351F892BF9F08091FF03D7
:101B8000C82FD0E09E012F5F3F4F2F7130708091A2
:101B9000FE0390E02817390781F08BE994E00E945A
:101BA0006F1FC252DC4F88838091FF0390E0019643
:101BB0008F7190708093FF03DBCFDF91CF910895F9
:101BC000EF92FF921F93CF93DF9380EF92E00E94FA
:101BD0002801809386029091E402981719F49F5F80
:101BE00090938602EBE8F3E0108211821282339622
:101BF00023E0E23BF207C1F78FEF8093BB038093B2
:101C0000BC038093BD03E6EDEE2EE2E0FE2EA5E9D7
:101C1000B2E0E7016FEF5FEF4FEF88818031F0F4C2
:101C200090E03C91FC01EE0FFF1FE80FF91FE55714
:101C3000FC4F8081832B808311962C911197818199
:101C4000822B818312969C9112978281892B8283A9
:101C5000309543232095522390956923219613961E
:101C600082E0C33ED807C9F66093BD035093BC031E
:101C70004093BB03C8E8D2E010E0F70180818232D4
:101C800038F08632B0F0863219F4888160E00FC0F7
:101C90001B3021F48091C1008F7E05C01C3029F4D7
:101CA0008091C100877F8093C100888161E00E949C
:101CB000971B1F5F0894E11CF11C21961D30E9F66B
:101CC0008091DB02803231F489E061E00E94031CE4
:101CD00082E801C082E08093800081E080935F030E
:101CE000809360038091D602813211F08732D9F45B
:101CF00083E061E00E94971B83E060E00E94031C88
:101D00008091D602813231F481E08093B1008093DA
:101D1000B00009C082E08093B00085E08093B100FC
:101D20008EE38093B3008AE1809381008FEF9FEF71
:101D3000909389008093880080ED97E090938700CE
:101D40008093860080E49CE99093850280938402CE
:101D50009093BF038093BE0310925E0380916F0047
:101D6000816080936F008091E30283FF0DC08091BA
:101D70006203909163038F5F9F4F31F00E949C0735
:101D80001092600310925F03DF91CF911F91FF903B
:101D9000EF9008958EE060E00E94971B8FE061E075
:101DA0000E94971B80E161E00E94971B82E060E047
:101DB0000E94971B84E061E00E94971B089583E0D6
:101DC0000E9412038093190384E00E9412038093FF
:101DD0001A0387E061E00E9418036AE070E080E087
:101DE00090E00E942E1B0E94F204000008950F93C1
:101DF0001F93082F17C0439A64E670E080E090E0DC
:101E00000E942E1B439864E670E080E090E00E9400
:101E10002E1B1F5F101778F36CE271E080E090E0FA
:101E20000E942E1B10E0F6CF482F392F25E00DC061
:101E3000F999FECF1FBA842F932F92BD81BD60BD4B
:101E40000FB6F894FA9AF99A0FBE215059F0F99901
:101E5000FECF842F932F92BD81BDF89A80B568176D
:101E600039F7089582E00E94F70E0895A0E0B0E0EF
:101E7000ECE3FFE00C94AE20482E562EEE24FF2417
:101E8000C0E0D0E0CC24DD248824992404C055246B
:101E90005394CC24DD24442051F485EDE82E82E0D7
:101EA000F82EC0E0D0E00BE1802E912C19C021E08B
:101EB000421651F410EFE12E12E0F12ECDE1D0E008
:101EC000B9E28B2E912C0CC032E0431649F4A2E605
:101ED000EA2EA3E0FA2EC8E4D0E0F0E28F2E912C97
:101EE0003E016C0C7D1C1092050410920404E30169
:101EF0001BC0552059F4F999FECFD2BDC1BDF89A47
:101F000080B5F701E00FF11F808307C0F701E00FF4
:101F1000F11FCE0160810E94140F0E0D1F1DF801EC
:101F200080810E94C80021969E012619022F10E090
:101F300008151905F0F2CE015520D9F4F999FECF14
:101F4000D2BDC1BDF89A20B5F999FECF2196D2BD78
:101F5000C1BD2197F89A80B590E0B22EAA248A29B3
:101F60009B2920910404309105042817390759F45E
:101F70008ECF2196609105040E94140FCE016091CE
:101F800004040E94140F80E091E0C80ED91E91E075
:101F9000C91693E0D90608F47ECF852DCDB7DEB7FC
:101FA000E0E10C94CA2082E060E00E94360F8823B2
:101FB00031F48FEF9FEF9093630380936203089552
:101FC00082E061E00E94360F0895282F81E080931F
:101FD000D50281E28093D602E7EDF2E080E08193C2
:101FE0008F5F8830E1F786E28093DF028093E00222
:101FF00084E28093E10285E28093E20282E08093B2
:10200000E3028FEF8093E4029AE09093ED02109246
:10201000EE021092EF021092E5021092E602109288
:10202000E7021092E8028EE18093E9029093EA02BF
:1020300088EB9BE09093EC028093EB02222361F00B
:1020400080E061E00E94360F8FEF9FEF9093630373
:10205000809362030E94E00F0895ADE5B0E0E3E3F2
:10206000F0E10C94AC205B016C010E94FA1A1B0198
:102070002C0181E00E94130483E08093D4020E942B
:10208000DF0E8BE994E06CE071E00E94F01D3E01F0
:102090000894611C711CE3C08BE994E06AE171E073
:1020A0000E94F01D8FE70E94EE020E940203182F8B
:1020B0008983823601F500EF12E00E940203F801E5
:1020C00081938F01F3E009311F07B9F78091F00286
:1020D000873309F0BFC08BE994E063E271E00E94AE
:1020E000F01D82E48983CE01019661E00E94A80977
:1020F0002D9A81E0CAC0803719F0893631F506C0C3
:1021000020E52A83AA24BB24650105C081E00E9442
:10211000E50F89E48A8380910304882321F080916C
:10212000E302806803C08091E3028F778093E3022B
:10213000DE011396E5EDF2E08BE101900D92815006
:10214000E1F7CE0102966CE183C08437D9F434E51F
:102150003E8F83E08F8F90E798A3EDE0E9A3EAA399
:10216000DE019396E6EDF1E08AE101900D92815057
:10217000E1F7CE014E966FE10E94A809AA24BB2484
:10218000650168C0853791F405ED12E00E940203F5
:10219000F80181938F01F2E0003F1F07B9F780E05B
:1021A00061E00E94360F25E5298350C0863631F55F
:1021B00080916203909163038F5F9F4FD1F086E41B
:1021C0008DAF92E6E92E93E0F92E8E01025C1F4F4F
:1021D000F701819191917F010E947702F80190832C
:1021E00081830E5F1F4FF2E8EF16F3E0FF0681F7E1
:1021F00001C01DAFCE01CD9661E22AC08736D9F469
:1022000002E613E00E940203982E88240E94020333
:102210009401280F311DC9010E944802F8018193E1
:1022200091938F01F3E002381F0761F727E42983B8
:102230000E94E00F0BC0873469F48FEF9FEF9093FB
:102240006303809362030E94E00F1983C30161E07E
:102250000E94A80993E09093D4020E94F204A11472
:10226000B104C104D10459F00E94FA1A6219730929
:10227000840995096A157B058C059D0528F48091D4
:10228000D402843061F708CF80E0C35ADF4FE2E127
:102290000C94C82080E060E00E94360F882319F477
:1022A00081E00E94E50F089581E061E00E94360F11
:1022B000089581E060E00E94360F882311F490E0D9
:1022C00006C090E08091F002873309F491E0892FF5
:1022D0000895EF92FF920F931F93CF93DF93EB013B
:1022E0009C01442737FD4095542F60E271EA87E056
:1022F00090E00E94912089011216130614F001E06B
:1023000010E0BE01882777FD8095982F20E231EA02
:1023100047E050E00E943C209801442737FD40955B
:10232000542F0E9491207901C0E0D0E009C0419A69
:10233000C8010E94521B4198C8010E94521B21965D
:10234000CE15DF05A4F3CDB7DEB7E6E00C94D420BC
:102350002D9A83E00E9412038093190384E00E9467
:10236000120380931A0386E060E00E94180387E05E
:1023700061E00E94180389E06FE70E9418038AE079
:1023800065E00E9418038BE062E10E9418038CE074
:1023900065E10E9418038DE06DEF0E9418038EE046
:1023A00060E00E94180380E76CE20E94180380E35B
:1023B00060E00E94180389E760E00E9418038AE742
:1023C00065E00E94180381E762E10E94180382E73A
:1023D00062E00E94180383E760E00E94180384E72C
:1023E00060E00E9418036091E5027091E60280911E
:1023F000E7029091E8020E94A9038DE667E00E943F
:1024000018036AE070E080E090E00E942E1B87E0F5
:1024100069E00E9418036AE070E080E090E00E94AA
:102420002E1B88E891E061E070E00E946911A89598
:102430008DE665E00E9418036AE070E080E090E0BD
:102440000E942E1B88EB91E061E070E00E94691110
:10245000A8958DE664E00E9418036AE070E080E0D1
:1024600090E00E942E1B8DE591E061E070E00E94FB
:102470006911A8958DE662E00E9418036AE070E099
:1024800080E090E00E942E1B8FEA90E061E070E017
:102490000E946911A8958DE660E00E9418036AE029
:1024A00070E080E090E00E942E1B85E091E062E009
:1024B00070E00E946911A89587E061E00E9418030E
:1024C0002D980895A6E1B0E0E8E6F2E10C94AE2084
:1024D000A8958CE00E941203882359F48BE994E0BC
:1024E0006EE271E00E94F01D80E00E9413040E94E1
:1024F000DF0E0E94B60D0E94081B0E94CE09B82E66
:102500008E010F5F1F4FAA24AA948091D4028430B9
:1025100029F045E0E42EBE1409F096C10E94081B84
:102520006B017C018091D4028430E9F48FE70E9432
:10253000EE0200E010E008C00E940203F801E0543F
:10254000FC4F80830F5F1F4F80EF92E00E941E01BF
:1025500090E00817190784F30E943D0390935B03F2
:1025600080935A0328C080EF92E00E941E01482FFA
:102570004F5F80E2B80121E00E949A08882369F049
:10258000A09284030E94FA1A6093850370938603D5
:102590008093870390938803B8CF80EF92E00E94E6
:1025A0001E01482F20EC33E0FE013296C901BF0125
:1025B00050E00E948C00C0924403D0924503E09208
:1025C0004603F09247031092830380915C0390913D
:1025D0005D03880F991F816090935D0380935C0376
:1025E00043982D9A80E00E94340D8091C003282FDB
:1025F00030E0C9018E739070892B09F041C0F894C6
:1026000080911803877062E672E041EC53E00E940B
:10261000AC010091E402003160F410E080915903B4
:102620000E948807000F111F0E591D4FF80191835A
:10263000808378948091C00390918A0380FF1BC0AF
:10264000992309F045C0A2E6B3E020E030E0F901AB
:10265000EE0FFF1FEE59FD4F808191818D939D9369
:102660002F5F3F4F2031310591F70E94E00F81E04D
:1026700080938A032DC0992359F110928A0328C0B0
:10268000C90188739070C89719F54091D503842FBC
:10269000822787FF1DC040584093D5038091E202F6
:1026A0008532B1F410E00AC01F5FE12FF0E0E05482
:1026B000FC4F8BE994E060810E94A81F212F30E03D
:1026C0008091C00390E0877090708217930764F741
:1026D00080918203882319F481E080938203109211
:1026E000610310925F031092600380911803887158
:1026F00009F4A1C04091D5038091C00390E0242F3C
:1027000030E08227932786FD60C0407C80E4482724
:102710004093D5039091FE038091FF03981701F138
:10272000A6EDB3E030E00FC03F5F892F90E0FC01E1
:10273000E252FC4F20812D9301968F71907080930F
:10274000FE03383031F09091FE038091FF0398171B
:1027500059F7395C8091D503382B3093D50335C0B8
:10276000809157038093D6038091DF02863251F423
:1027700082E10E94661C9595879595958795809333
:10278000D70302C01092D7038091E002863251F441
:1027900083E10E94661C9595879595958795809312
:1027A000D80302C01092D80380915B038093D903B1
:1027B00080915A038093DA0380915C0390915D03CA
:1027C0009F770E949C028093DB0385ED93E069E094
:1027D0000E946C0902C00E94B60D0E944F09882316
:1027E000D1F306ED12E058E8E52E52E0F52EF8019F
:1027F0008081E82FF0E0CF01807F9070409791F4C6
:10280000EF70F070EE0FFF1FEE59FD4F8081918148
:1028100060E08F3F910511F008F061E0F7018081E1
:102820000E94031C0F5F1F4F0894E11CF11CF2E093
:10283000033E1F07E1F683E08093D4020E94F20476
:1028400081E0809389032D980E94081B5B016C0135
:102850000E94FA1A2B013C0180918303823008F018
:1028600065C0E0904403F090450300914603109149
:1028700047038091480390914903A0914A03B09186
:102880004B038E159F05A007B10709F44FC080EFD9
:1028900092E00E943801A60195012E193F09400BD4
:1028A000510B6C5D75408040904062177307840740
:1028B0009507E0F5E0924803F092490300934A033C
:1028C00010934B030E9439038093570320915503C3
:1028D00030915603280F311D309356032093550332
:1028E000609154036F5F609354036930F8F0C9013D
:1028F00070E00E945B20CB017093560360935503F8
:102900002091580343E0249F90011124820F931FCC
:102910009695879596958795809358030E944F0DBD
:102920001092560310925503109254038091820323
:1029300090900004882309F457C180908303891480
:1029400008F0D5C180EF92E00E9438012091440345
:10295000309145034091460350914703A21AB30AB0
:10296000C40AD50A68517C4F8F4F9F4F6A157B056B
:102970008C059D0508F075C080915C0390915D0306
:10298000880F991F90935D0380935C0381E080938F
:102990008903882081F440924C0350924D03609249
:1029A0004E0370924F0310925003109251031092F5
:1029B000520310925303809183038F5F80938303AC
:1029C00080EF92E00E94380120914403309145034A
:1029D0004091460350914703260F371F481F591F48
:1029E0002093440330934503409346035093470399
:1029F00081E080938903439A0E94340D0E944F0D19
:102A000030C080EF92E00E9438019B01AC018091C0
:102A1000440390914503A0914603B091470386017A
:102A20007501E81AF90A0A0B1B0B682D70E080E0AB
:102A300090E00E943C206E157F058007910788F486
:102A400010925D0310925C0381E0809389030E94E1
:102A50004F0DA0924403B0924503C0924603D0921A
:102A6000470380918303882309F4E8C09091ED0225
:102A7000992389F180916103882369F5892F90E07A
:102A80000E94E50020914C0330914D0340914E038C
:102A900050914F0383017201E21AF30A040B150BE4
:102AA0006E157F0580079107B0F481E08093610384
:102AB0000E949C078091E9020E941801640D751D17
:102AC000861D971D6160609350037093510380933E
:102AD0005203909353039091EF029923F1F0809168
:102AE0005F038823D1F4892F90E00E94E5002091B4
:102AF0004C0330914D0340914E0350914F0383019D
:102B00007201E21AF30A040B150B6E157F0580079C
:102B1000910718F481E080935F039091EE0299236E
:102B2000F1F0809160038823D1F4892F90E00E9416
:102B3000E50020914C0330914D0340914E0350919C
:102B40004F0383017201E21AF30A040B150B6E1591
:102B50007F058007910718F481E0809360038091DE
:102B6000E5029091E602A091E702B091E802009799
:102B7000A105B10509F462C0809150039091510301
:102B8000A0915203B09153030097A105B10509F438
:102B900055C083017201E81AF90A0A0B1B0B17FDD5
:102BA0004DC06091EA0270E080E090E028EE33E0F2
:102BB00040E050E00E943C206E157F0580079107A1
:102BC000E8F50E94A81180E00E9413040E94F2041C
:102BD0000E94FA1A616060935003709351038093CE
:102BE0005203909353032AC080EF92E00E94380171
:102BF0009B01AC018091440390914503A091460351
:102C0000B091470386017501E81AF90A0A0B1B0BFC
:102C1000692D70E080E090E00E943C206E157F05F9
:102C20008007910758F4A0924403B0924503C092E4
:102C30004603D092470381E080938903809160032B
:102C40008823B1F48091E202883219F40E945A0A72
:102C50000FC0893239F480916103609183030E942F
:102C6000370B06C08A3221F4809161030E94CE0A9C
:102C7000809189038823B9F0E0914303EF5FE093EB
:102C80004303E83131F0F0E0E051FD4F87858823C0
:102C900011F410924303809143030E9423030E9486
:102CA000F60910928903809184038F3F21F50E94D9
:102CB000FA1A209185033091860340918703509141
:102CC0008803621B730B840B950B695E7340804015
:102CD000904088F00E94FA1A6093850370938603EF
:102CE00080938703909388030E941F0A04C089146D
:102CF00009F0B7CE86CE6696E0E10C94CA20FF922A
:102D00000F931F93082FF62E61E00E94971B802FD0
:102D100061E00E94031C8F2D61E00E94031C8AE089
:102D200090E00E94521B8F2D0E94361C892B11F4BB
:102D300010E00FC0802F60E00E94031C8AE090E04A
:102D40000E94521B8F2D0E94361C10E0892B09F423
:102D500011E0802F60E00E94971B802F60E00E94AE
:102D6000031C8F2D60E00E94031C812F1F910F9187
:102D7000FF900895EF92FF920F931F938C016BE9E0
:102D8000E62E64E0F62EC701612F70E04AE050E0C5
:102D90000E946D1DC7016EE20E94AC1C54E01695A6
:102DA00007955A95E1F70F701070C701B8014AE016
:102DB00050E00E946D1D1F910F91FF90EF900895BC
:102DC000A2E2B0E0E6EEF6E10C94AC208E010F5FDB
:102DD0001F4F80E1D8011D928A95E9F78BE994E0B5
:102DE00066E371E00E94F01D0E94DF0E20E431EEE8
:102DF0004DE958E12F8F38A349A35AA380EC91EDF8
:102E0000A8E9BBE18B8F9C8FAD8FBE8F24EF31E0A3
:102E100040E050E02F8B388F498F5A8FA0E5CA2EA3
:102E2000A3ECDA2EE12CF12CF0E44F2EF1EE5F2E24
:102E3000FDE96F2EF8E17F2E882499245401332474
:102E40001E8A1D8A198A1A8A1B8A1C8AFFC08BE96E
:102E500094E00E946F1F8434B9F0853430F48332DB
:102E6000B9F18C3209F0CCC044C0833509F0C8C038
:102E70002F8D38A149A15AA1C901DA012C013D01C8
:102E8000882499245401E2C08BE994E064E40E9410
:102E9000AC1C8BE994E040E451EE6DE978E12AE066
:102EA00030E00E94901D8BE994E06CE20E94AC1C23
:102EB0008BE994E040EC51ED68E97BE12AE030E0F9
:102EC0000E94901D8BE994E06CE20E94CA1CBEC077
:102ED00019821A821B821C821D821E821F82188602
:102EE00019861A861B861C861D861E861F86188AD2
:102EF0003AC0339434E0331609F0A8C069817A816E
:102F00008B819C8128EE33E040E050E00E943C2021
:102F10006F8F78A389A39AA36D817E818F81988515
:102F20000E943C206B8F7C8F8D8F9E8F89859A8528
:102F3000AB85BC858F8B988FA98FBA8F6D857E8569
:102F40008F8598890E943C206B017C0190E2C91614
:102F50009EE4D90690E0E90690E0F90630F48CE1B1
:102F600062E30E941803332471C0A0E3CA16A5E7E8
:102F7000DA06A0E0EA06A0E0FA0618F48CE162E2C4
:102F8000F0CFB0E4CB16BCE9DB06B0E0EB06B0E076
:102F9000FB0618F48CE166E2E4CFE0E5CE16E3EC44
:102FA000DE06E0E0EE06E0E0FE0618F48CE162E109
:102FB000D8CFF0E6CF16FAEEDF06F0E0EF06F0E04D
:102FC000FF0618F48CE165E1CCCF20E7C21621E1C1
:102FD000D20621E0E20620E0F20618F48CE161E07E
:102FE000C0CF30EAC31636E8D30631E0E30630E05E
:102FF000F30618F48CE163E0B4CF8CE165E0B1CF67
:10300000E0ED2E2E280E49E0421500F1032D10E0D0
:10301000000F111F000F111F81E090E08C0F9D1F0A
:10302000080F191FD8016D917D918D919C912AE017
:1030300030E040E050E00E943C20620D711D811D97
:10304000911DF80160837183828393838BE994E0FF
:103050000E94351F892B09F0FACE81149104A10436
:10306000B10489F4C301B2010E94A90361E070E0D8
:1030700080E090E00E942E1BFFEFFE8B1D8A198AD4
:103080001A8A1B8A1C8A2F89388D498D5A8D82167F
:103090009306A406B506E0F40E94390329893A890B
:1030A0004B895C89280F311D411D511D298B3A8B9D
:1030B0004B8B5C8B3D89381708F48D8B4E898417B8
:1030C00008F48E8B0894811C911CA11CB11C56C065
:1030D000C301B20128EE33E040E050E00E946F20CF
:1030E0008BE994E0BA01A9012AE030E00E945E1D5C
:1030F0008BE994E06CE20E94AC1C8BE994E06D8952
:103100004AE050E00E947E1D8BE994E06CE20E9450
:10311000AC1C69897A898B899C89A50194010E94DC
:103120006F208BE994E0BA01A9012AE030E00E9407
:103130005E1D8BE994E06CE20E94AC1C8BE994E08C
:103140006E894AE050E00E947E1D8BE994E06CE2BB
:103150000E94CA1C4C0C5D1C6E1C7F1C8B8D9C8DB0
:10316000AD8DBE8D84159505A605B70520F44F8C51
:1031700058A069A07AA08824992454012F8D38A1E1
:1031800049A15AA1285E33404040504009F05ECF2B
:10319000A296E2E10C94C82080E065E970E042E08C
:1031A00050E00E94351A0895A1E0B0E0EAEDF8E1A0
:1031B0000C94BC2080E00E94B1008DE061E00E9490
:1031C000971B81E161E00E94971B0E94CA0E80E07C
:1031D00060E00E94971B81E061E00E94971B8BE9F1
:1031E00094E040E052EC61E070E00E94AE1E0E946C
:1031F0004A110E94D30F8BE994E063E471E00E94CE
:10320000ED1D80E793E00E94BA168BE994E06AE531
:1032100071E00E94ED1D8BE994E063E070E04AE00C
:1032200050E00E94D91D0E94CC187894439A86E001
:1032300067E00E947F16882329F043982D980E940A
:10324000E016FBCF83E065E00E947F16882329F417
:103250000E945911882309F000C18BE994E062E6CD
:1032600071E00E94ED1D60E070E080E090E00E945F
:103270002D10882349F00E9454118BE994E06BE9EA
:1032800071E00E94F01D2D9A0E94E00D22C08091F5
:10329000E002833229F08091E3028B7F8093E30286
:1032A0008091E30281FF15C082FD13C064EF71E0DD
:1032B00080E090E00E942D10882359F00E94541164
:1032C0008BE994E06BE971E00E94F01D0E94E00D33
:1032D0002D9A8091DF02823239F58091E0028332AB
:1032E00019F581E00E94990D8091E30282FF09C0E7
:1032F0008BE994E066EB71E00E94F01D0E941D08CE
:1033000013C064E170E080E090E00E942E1B80E238
:10331000BE016F5F7F4F41E021E00E949A08882341
:1033200019F481E0809384038BE994E061EC71E00F
:103330000E94ED1D8FE00E94B10080E00E94130406
:103340001092430380E00E9423031092000490E057
:10335000983158F4292F2F5FE92FF0E0E051FD4F0D
:103360008785882311F0922FF3CF9093000483E098
:103370008093D4020E94DF0E80918403882311F091
:103380000E941F0A8091E202883211F08A3239F4D9
:103390008BE994E040E052EC61E070E02BC08932B0
:1033A00071F48BE994E040EA56E861E070E00E9435
:1033B000AE1E8091C20080628093C20022C08091C4
:1033C00018038871803169F04091F1025091F20246
:1033D0006091F3027091F4024A3051056105710564
:1033E00038F48BE994E040E855E260E070E002C018
:1033F0008BE994E00E94AE1E04C08BE994E00E9429
:103400006F1F8BE994E00E94351F892BB1F78091E3
:10341000E102843229F08091C1008F7E8093C10047
:103420008091E202853229F08091C100877F8093EC
:10343000C1001092FE031092FF03109282030E94BB
:10344000081B609344037093450380934603909355
:1034500047032196E2E00C94D8200E94E00D809171
:10346000DF02823209F017CF12CF823000F5E82F49
:10347000F0E0EE0FFF1FEA5FFB4F7183608388234C
:1034800019F08130A1F408C0809169008C7F842BF1
:1034900080936900E89A089580916900440F551F50
:1034A000440F551F837F842B80936900E99A089508
:1034B0001F920F920FB60F9211242F933F934F93A9
:1034C0005F936F937F938F939F93AF93BF93EF938C
:1034D000FF938091060490910704892B29F0E091D5
:1034E0000604F09107040995FF91EF91BF91AF9108
:1034F0009F918F917F916F915F914F913F912F910C
:103500000F900FBE0F901F9018951F920F920FB63D
:103510000F9211242F933F934F935F936F937F9359
:103520008F939F93AF93BF93EF93FF938091080482
:1035300090910904892B29F0E0910804F091090485
:103540000995FF91EF91BF91AF919F918F917F91DD
:103550006F915F914F913F912F910F900FBE0F9000
:103560001F9018951F920F920FB60F9211242F9350
:103570003F938F939F93AF93BF9380910E0490914D
:103580000F04A0911004B09111043091120401961F
:10359000A11DB11D232F2D5F2D3720F02D57019632
:1035A000A11DB11D2093120480930E0490930F046B
:1035B000A0931004B093110480910A0490910B041D
:1035C000A0910C04B0910D040196A11DB11D809332
:1035D0000A0490930B04A0930C04B0930D04BF91C4
:1035E000AF919F918F913F912F910F900FBE0F90B0
:1035F0001F9018958FB7F89420910E0430910F0406
:1036000040911004509111048FBFB901CA0108956F
:103610009FB7F89420910A0430910B0440910C0458
:1036200050910D0486B5A89B06C08F3F21F02F5FF7
:103630003F4F4F4F5F4F9FBF542F432F322F2227B3
:10364000280F311D411D511D82E0220F331F441FE1
:10365000551F8A95D1F7B901CA010895EF92FF92DB
:103660000F931F93CF93DF937B018C010E94081B64
:10367000EB010EC00E94081B6C1B7D0B685E734043
:10368000C8F30894E108F10801091109C851DC4F99
:10369000E114F1040105110569F7CDB7DEB7E6E0E5
:1036A0000C94D420019739F0880F991F880F991F27
:1036B00002970197F1F70895789484B5826084BDEC
:1036C00084B5816084BD85B5826085BD85B5816026
:1036D00085BDEEE6F0E0808181608083E1E8F0E086
:1036E0001082808182608083808181608083E0E8B5
:1036F000F0E0808181608083E1EBF0E08081846094
:103700008083E0EBF0E0808181608083EAE7F0E095
:1037100080818460808380818260808380818160F9
:1037200080838081806880831092C1000895CF9348
:10373000DF93482F50E0CA0186569F4FFC01349119
:103740004A575F4FFA018491882369F190E0880F0E
:10375000991FFC01E859FF4FA591B491FC01EE5867
:10376000FF4FC591D491662351F42FB7F8948C91F3
:10377000932F909589238C93888189230BC0623085
:1037800061F42FB7F8948C91932F909589238C93A3
:103790008881832B88832FBF06C09FB7F8948C91B4
:1037A000832B8C939FBFDF91CF910895833071F06D
:1037B000843028F48130A1F0823021F514C08630A5
:1037C000B1F08730D1F08430E9F404C080918000FA
:1037D0008F7703C0809180008F7D80938000089553
:1037E00084B58F7702C084B58F7D84BD08958091A4
:1037F000B0008F778093B00008958091B0008F7DE6
:103800008093B0000895FF920F931F93F62E482FD8
:1038100050E0CA0182559F4FFC012491CA0186568F
:103820009F4FFC0114914A575F4FFA010491002306
:10383000C9F0222319F0822F0E94D61BE02FF0E05E
:10384000EE0FFF1FEE58FF4FA591B4919FB7F8946C
:10385000FF2021F48C911095812302C08C91812B43
:103860008C939FBF1F910F91FF9008950F931F930B
:10387000482F50E0CA0182559F4FFC012491CA0194
:1038800086569F4FFC0104914A575F4FFA011491ED
:10389000112319F420E030E015C0222319F0822F03
:1038A0000E94D61B812F90E0880F991F84589F4F4C
:1038B000FC01A591B4918C9120E030E0802311F0BF
:1038C00021E030E0C9011F910F910895982F8E30AB
:1038D00008F09E509770809187028295880F880F1C
:1038E000807C892B80937C0080917A008064809317
:1038F0007A0080917A0086FDFCCF2091780040917B
:103900007900942F80E030E0282B392BC9010895ED
:10391000A0E0B0E0EEE8FCE10C94B6207C016B0185
:103920008A01C0E0D0E00FC0D6016D916D01D701D2
:10393000ED91FC910190F081E02DC7010995C80F30
:10394000D91F015010400115110571F7CE01CDB7F7
:10395000DEB7E8E00C94D220DC01ED91FC910190FF
:10396000F081E02D09950895EF92FF920F931F9338
:103970008C016DE00E94AC1C7C01C8016AE00E94D1
:10398000AC1C9C012E0D3F1DC9011F910F91FF9092
:10399000EF900895EF92FF920F931F937C010E9486
:1039A000AC1C8C01C7010E94B41C9C01200F311F6C
:1039B000C9011F910F91FF90EF900895CF93DF936E
:1039C000EC016115710519F420E030E00FC0DB0156
:1039D0000D900020E9F71197A61BB70BE881F9813C
:1039E0000280F381E02DAD0109959C01C901DF91B1
:1039F000CF9108954F925F927F928F929F92AF9254
:103A0000BF92CF92DF92EF92FF920F931F93DF93BB
:103A1000CF93CDB7DEB7A1970FB6F894DEBF0FBE38
:103A2000CDBF2C01742ECB01223008F42AE019A25C
:103A300031E2C32ED12CCC0EDD1E822E9924AA2475
:103A4000BB24672D752FA50194010E946F20790179
:103A50008A01C801B701A50194010E943C20472DAD
:103A6000461B0894C108D1084A3010F4405D01C0DB
:103A7000495CF6014083E114F1040105110521F0D0
:103A80007E2C5F2DC801DDCFC201B6010E94DE1C75
:103A9000A1960FB6F894DEBF0FBECDBFCF91DF91D8
:103AA0001F910F91FF90EF90DF90CF90BF90AF905C
:103AB0009F908F907F905F904F900895DC0121152B
:103AC000310541F4ED91FC910190F081E02D642FDE
:103AD000099508950E94FA1C0895EF92FF920F93A2
:103AE0001F939A017B0100E010E0B801A7010E943A
:103AF0005E1D1F910F91FF90EF900895EF92FF923E
:103B00000F931F939A01E62EFF2400E010E0B80106
:103B1000A7010E945E1D1F910F91FF90EF900895E5
:103B2000A0E0B0E0E6E9FDE10C94B620EC016A010A
:103B30007B012115310541F4E881F9810190F08183
:103B4000E02D642F09951BC02A303105B1F477FFB1
:103B500013C06DE20E94AC1C8C0144275527BA01AA
:103B60004C195D096E097F09CE012AE00E94FA1CFA
:103B70009C01200F311F04C02AE00E94FA1C9C0106
:103B8000C901CDB7DEB7E8E00C94D220EF92FF92E6
:103B90000F931F937B019A010027F7FC0095102FCC
:103BA000B801A7010E94901D1F910F91FF90EF9007
:103BB0000895EF92FF920F931F937C010E94C61D00
:103BC0008C01C7010E94B41C9C01200F311FC90148
:103BD0001F910F91FF90EF9008950E94DE1C0895B1
:103BE000EF92FF920F931F937C010E94ED1D8C01B9
:103BF000C7010E94B41C9C01200F311FC9011F91F5
:103C00000F91FF90EF90089508951F920F920FB6B5
:103C10000F9211242F933F934F938F939F93EF9382
:103C2000FF938091C00082FD1DC04091C60020918D
:103C30005304309154042F5F3F4F2F7330708091A5
:103C40005504909156042817390771F0E0915304F8
:103C5000F0915404ED5EFB4F408330935404209365
:103C6000530402C08091C600FF91EF919F918F9104
:103C70004F913F912F910F900FBE0F901F9018956D
:103C80001F920F920FB60F9211242F933F938F9391
:103C90009F93EF93FF932091970430919804809124
:103CA000990490919A042817390731F48091C10042
:103CB0008F7D8093C10014C0E0919904F0919A0423
:103CC000E95AFB4F20818091990490919A040196C2
:103CD0008F73907090939A04809399042093C600F8
:103CE000FF91EF919F918F913F912F910F900FBE78
:103CF0000F901F901895A0E0B0E0E1E8FEE10C9471
:103D0000B220FC011382128288EE93E0A0E0B0E0C2
:103D100084839583A683B78388EC92E09183808324
:103D20007587648757874687318B208B138B028B6F
:103D3000F58AE48AD78AC68AB18EA08E938E828E47
:103D40008F85848F8889858F8989868F8A89878FD7
:103D50008B8980A32096ECE00C94CE20AF92BF928A
:103D6000DF92EF92FF920F931F93CF93DF93EC01BB
:103D70007A018B01DD24403081EE580780E068072E
:103D800080E0780711F0DD24D39491E0A92EB12CC6
:103D9000EC89FD89DD2069F0C50108A002C0880F0B
:103DA000991F0A94E2F7808360E079E08DE390E068
:103DB00005C0108260E874E88EE190E0A8019701E8
:103DC0000E946F202150304040405040569547950A
:103DD0003795279580E12030380720F0DD2011F05D
:103DE000DD24D6CFE889F9893083EA89FB892083ED
:103DF00019A2EE89FF89408121E030E0C9010C8CD5
:103E000002C0880F991F0A94E2F7482B4083EE897D
:103E1000FF894081C9010D8C02C0880F991F0A9447
:103E2000E2F7482B4083EE89FF894081C9010E8C5F
:103E300002C0880F991F0A94E2F7482B4083EE894D
:103E4000FF8980810F8C02C0220F331F0A94E2F792
:103E5000209528232083DF91CF911F910F91FF9010
:103E6000EF90DF90BF90AF900895DC011C96ED912C
:103E7000FC911D97E05CFF4F2191319180819181F0
:103E8000281B390B2F733070C90108958BE994E01A
:103E90000E94351F892B11F00E94041E0895DC0139
:103EA0001C96ED91FC911D97E05CFF4F20813181C4
:103EB000E054F040DF01AE5BBF4F8D919C911197B4
:103EC0002817390719F42FEF3FEF07C08D919C9108
:103ED000E80FF91F8081282F30E0C9010895DC0127
:103EE0001C96ED91FC911D97E05CFF4F2081318184
:103EF000E054F040DF01AE5BBF4F8D919C91119774
:103F00002817390719F42FEF3FEF10C08D919C91BE
:103F10001197E80FF91F20818D919C9111970196BF
:103F20008F73907011969C938E9330E0C901089521
:103F3000DC0191968C919197882339F05496ED91FC
:103F4000FC915597808186FFF9CF91961C92089538
:103F5000CF93DF93EC01EE85FF85E05CFF4F20817E
:103F60003181E054F0402F5F3F4F2F733070DF01FD
:103F7000AE5BBF4F8D919C91119728173907D1F3F4
:103F8000E05CFF4F80819181E054F040E80FF91F21
:103F90006083EE85FF85E05CFF4F31832083EE89EF
:103FA000FF89208181E090E00F8C02C0880F991F6B
:103FB0000A94E2F7282B208381E089A3EC89FD890C
:103FC00080818064808381E090E0DF91CF910895CB
:103FD0008F929F92AF92BF92CF92DF92EF92FF9219
:103FE0000F931F9300D000D00F92EDB7FEB731961C
:103FF00084E0ADB7BEB711968C9383E0818387E0F0
:10400000828385E0838381E084838BE994E063E1AC
:1040100074E047E554E025EC30E004EC10E0B0EC4F
:10402000EB2EF12CA1ECCA2ED12CF2ECAF2EB12C40
:10403000E6EC8E2E912C0E947B1E0F900F900F901D
:104040000F900F901F910F91FF90EF90DF90CF9006
:10405000BF90AF909F908F900895CF93DF930E9471
:104060005C1B0E94D418C6E4DFE10E946212209714
:10407000E1F30E94461FF9CF629FD001739FF001C8
:10408000829FE00DF11D649FE00DF11D929FF00DE8
:10409000839FF00D749FF00D659FF00D9927729F1F
:1040A000B00DE11DF91F639FB00DE11DF91FBD01AA
:1040B000CF0111240895AA1BBB1B51E107C0AA1F01
:1040C000BB1FA617B70710F0A61BB70B881F991FB9
:1040D0005A95A9F780959095BC01CD010895A1E26C
:1040E0001A2EAA1BBB1BFD010DC0AA1FBB1FEE1F72
:1040F000FF1FA217B307E407F50720F0A21BB30BBD
:10410000E40BF50B661F771F881F991F1A9469F738
:1041100060957095809590959B01AC01BD01CF0194
:10412000089597FB092E05260ED057FD04D0D7DF42
:104130000AD0001C38F450954095309521953F4F9A
:104140004F4F5F4F0895F6F7909580957095619564
:104150007F4F8F4F9F4F08952F923F924F925F92C4
:104160006F927F928F929F92AF92BF92CF92DF9287
:10417000EF92FF920F931F93CF93DF93CDB7DEB7EC
:10418000CA1BDB0B0FB6F894DEBF0FBECDBF099480
:104190002A88398848885F846E847D848C849B84D7
:1041A000AA84B984C884DF80EE80FD800C811B81E5
:1041B000AA81B981CE0FD11D0FB6F894DEBF0FBE14
:1041C000CDBFED010895EE0FFF1F0590F491E02D96
:0641D0000994F894FFCFF2
:1041D60054582074696D656F757421005761697450
:1041E600696E672062696E640A00476F7420706B9F
:1041F600740A006461746120676F6F640A00525824
:104206002068616E67007363616E6E6572206D6F04
:104216006465004F70656E4C52536E67205258208D
:104226007374617274696E672000206F6E20485740
:104236002000454550524F4D2064617461206E6FD9
:10424600742076616C6964206F722062696E6420E6
:104256006A756D70706572207365742C20666F7256
:1042660063696E672062696E640A005361766564ED
:104276002062696E64206461746120746F20454514
:1042860050524F4D0A004920616D20736C6176656E
:1042960000456E746572696E67206E6F726D616C33
:1042A600206D6F646500002100270520082B092278
:1042B60009260A230A260B240C250C280C290C2A6D
:1042C600C01200001A400AA1204EA5001B1E27524C
:1042D6002C23308025000005400AA1204EA5002091
:1042E600244EA52C2330004B000006400AD0009D2A
:1042F60049007B289D492C233000E1000005400A37
:104306004501D7DC03B81E0EBF00232E48E8010086
:104316008A400A6001555502AD1E20000023C88060
:1043260025000005400AA1204EA50020244EA52CFC
:104336002330000200020002000200020002000216
:104346000002000200020002000200020002000257
:1043560000028813409C08010305060708090A0B9A
:104366000C121300010000080000200000400000AD
:104376008001000002000004000008000010000098
:1043860000100000200000000100000200070B0CD6
:104396001011150000000000A81F881C351F6F1F94
:0443A6004F1F981FEE
:00000001FF
