:100000000C9462000C94991C0C94C61C0C948A00ED
:100010000C948A000C948A000C948A000C948A0038
:100020000C948A000C948A000C948A000C948A0028
:100030000C948A000C9483070C948A000C948A0018
:100040000C94F31C0C948A000C9454200C948F2074
:100050000C948A000C948A000C948A000C948A00F8
:100060000C9407060C948A0000000000240027006E
:100070002A0000000000250028002B0000000000DE
:1000800023002600290004040404040404040202DA
:100090000202020203030303030301020408102007
:1000A0004080010204081020010204081020000012
:1000B0000007000201000003040600000000000029
:1000C0000000482211241FBECFEFD8E0DEBFCDBF15
:1000D00012E0A0E0B1E0E8E2F6E402C005900D9283
:1000E000A23DB107D9F714E0A2EDB2E001C01D9224
:1000F000AC3BB107E1F710E0C4ECD0E004C02297BC
:10010000FE010E940E23C23CD107C9F70E948D2236
:100110000C9412230C940000FB01DC0102C001903E
:100120000D9241505040D8F708958091D20281300D
:1001300019F482E08093D2028091D202833019F4C4
:1001400084E08093D2020895E3E0F0E089E08093B8
:100150005700849190E08670863009F491E0892FF1
:1001600008951F93182F0E94A400882379F09FB749
:1001700081E080930204F894A89588E18093600060
:1001800010936000112309F0A8959FBF1F91089557
:1001900020E030E040E050E060E071E0F999FECF0F
:1001A00072BD61BDF89A80B5542F432F322F22279C
:1001B000280F311D411D511D6F5F7F4F81E064305D
:1001C000780761F72E513E4B414C5E4D19F020E00F
:1001D00030E01AC024E031E0F999FECF32BD21BDF4
:1001E000F89A80B5F901E153FE4F80832F5F3F4FAE
:1001F00081E02D32380781F720E030E08091D30292
:10020000893011F421E030E0C90108958436910568
:1002100020F4BC0180E090E025C08E3B910550F4B5
:100220008A559040BC0180E090E02AE030E040E058
:1002300050E016C0823D910550F4845B9040BC01B3
:1002400080E090E024E630E040E050E009C08D5CC2
:100250009040BC0180E090E028E532E040E050E0D2
:100260000E949C2224E630E040E050E00E949C2264
:10027000089590E08C599F4F0E9406010895DC017B
:100280009896EC91F0E0E770F070E654FD4F8081B5
:100290000895FC0120A530E0C9018170907001969D
:1002A0002770307035952795820F931F880F880F20
:1002B00008958F929F92AF92BF92CF92DF92EF926A
:1002C000FF920F931F938C010E943F01D8019796D4
:1002D0002C9130E043E150E0249FF001259FF00D88
:1002E000349FF00D1124EE5FFD4F80809180A2803D
:1002F000B38090E00F96AA2797FDA095BA2FBC0176
:10030000CD0120E43FE14DE750E00E949C22A50191
:1003100094010E94CF2269017A0180ED97E0A0E06C
:10032000B0E0C80ED91EEA1EFB1ED80198968C912B
:10033000887181F060E07EEE8AEB9BE0A50194017C
:100340000E94CF2228513C4F4F4F5F4FC20ED31E09
:10035000E41EF51E87EE93E0A0E0B0E0C80ED91EC3
:10036000EA1EFB1EC701B60128EE33E040E050E074
:100370000E94CF22CA01B90128EE33E040E050E0EC
:100380000E949C221F910F91FF90EF90DF90CF90E1
:10039000BF90AF909F908F9008958F3F910509F087
:1003A00010F480E0089522E08030920710F481E09C
:1003B00008958050934010F083E0089582E00895FE
:1003C000CF92DF92FF920F931F93CF93DF93F82F7B
:1003D000EB016A01182F1695E0E088819981D6011A
:1003E0008C938A819B8111968C9311978C819D812E
:1003F00012968C9312978E819F8113968C931397EC
:10040000288139814A815B816C817D818E819F81C8
:100410009295990F990F907C832F8370982B852F3D
:100420008370880F880F982B872F83708295807F29
:10043000982B14969C9385E090E0C80ED91E2896C0
:10044000EF5F1E1750F6F0FF21C0888199810E944E
:10045000CD01F82E8A819B810E94CD01182F8C81BD
:100460009D810E94CD01082F8E819F810E94CD0128
:10047000F294FF0CFF0C50ECF5221295107F1F290F
:10048000182B000F000F012BD6010C93DF91CF9199
:100490001F910F91FF90DF90CF9008951F93182F19
:1004A000DB01FA01482F469530E0848190E08370AB
:1004B0009070982F88272081820F911D11969C9310
:1004C0008E93848190E08C70907066E0880F991F05
:1004D0006A95E1F72181820F911D13969C938E936B
:1004E0001297848190E08073907054E0880F991F78
:1004F0005A95E1F72281820F911D15969C938E9358
:100500001497848190E0807C9070880F991F880FE9
:10051000991F2381820F911D17969C938E93169796
:10052000359618963F5F431708F0BFCF10FF50C0B5
:100530008081829586958695837090E02DE431E0E8
:10054000AC01429FC001439F900D529F900D11241A
:100550000C9611969C938E93808190E074E0969512
:1005600087957A95E1F783709070AC01429FC00146
:10057000439F900D529F900D11240C9613969C93BF
:100580008E931297808190E09695879596958795A2
:1005900083709070AC01429FC001439F900D529FA9
:1005A000900D11240C9615969C938E931497808130
:1005B00090E083709070AC01429FC001439F900D0A
:1005C000529F900D11240C9617969C938E9316971C
:1005D0001F91089523E08032920718F420E030E064
:1005E00026C023E0883E920748F49C012F513340F7
:1005F000F4E036952795FA95E1F719C027E0803D9C
:10060000920720F49C012C5D334011C028E088390A
:10061000920718F02FEF33E00AC09C01285C3740A6
:10062000E4E036952795EA95E1F72D503C4FC90156
:1006300008958C30910548F49C01B4E0220F331FDB
:10064000BA95E1F7285D3C4F17C023E0843F92073D
:1006500020F49C0124523C4F0FC024E080309207CC
:1006600018F020E938E008C09C012657334FA4E079
:10067000220F331FAA95E1F7C90108959C01369511
:10068000279525753575821B930B9C01369527950B
:10069000369527952373337383739373280F391F0C
:1006A000C90144E0969587954A95E1F7820F931F1B
:1006B0008F709F7021E031E0AC01429FC001439FE9
:1006C000900D529F900D1124892F0895382F20E00E
:1006D00080910304909104048227932740E061E213
:1006E00070E19C01220F331F97FF04C0C9018627C8
:1006F000972701C0C9014F5F483099F790930404D0
:10070000809303040895882339F02D9800002B9AD4
:1007100000002D9A000008952D9800002B980000ED
:100720002D9A000008952D9A000083B12D980000A5
:1007300090E0F4E096958795FA95E1F78170089539
:100740000F931F93082F5C9A2D985C9810E0802FD0
:1007500080780E948303000F1F5F1830C1F72D9827
:100760001F910F9108958F770E94A00308950F9312
:100770001F93082F10E0802F80780E948303000FC2
:100780001F5F1830C1F72D981F910F9108950F9397
:100790001F932D9880E000E0182F110F0E94930303
:1007A000810F0F5F0830C1F71F910F9108950E94CC
:1007B000B3030E94C7035C9A08951F93162F8068A5
:1007C0000E94A003812F0E94B7035C9A1F91089595
:1007D0001F931091DC021827E3EDF2E0E80FF11D02
:1007E00089E767850E94DD038DE3612F0E94DD03A9
:1007F00082E4612F0E94DD031F91089586E20E942A
:10080000D70308950F931F938BE20E94D703082FFD
:100810008CE20E94D703282F30E0B6E0369527956A
:10082000BA95E1F710E0000F111F000F111F202BE8
:10083000312BC9011F910F9108950F931F938C01C4
:100840008CE1F80164810E94DD038DE1F80165818E
:100850000E94DD038EE1F80166810E94DD0380E2E3
:10086000F80167810E94DD0381E2F80160850E9442
:10087000DD0382E2F80161850E94DD0383E2F80175
:1008800062850E94DD0384E2F80163850E94DD0336
:1008900085E2F80164850E94DD038AE2F80165853E
:1008A0000E94DD038EE6F80166850E94DD038FE677
:1008B000F80167850E94DD0380E7F80160890E94E6
:1008C000DD0381E7F80161890E94DD0382E7F80119
:1008D00062890E94DD031F910F910895EF92FF92AC
:1008E0000F931F93CF93DF937B018C01603028E33C
:1008F00072072CE982072CE1920728F520E836E9F7
:1009000048E950E00E94CF22E9016897B90180E0F0
:1009100090E020E839E647E65FEF0E949C226E0DEA
:100920007F1D801F911F02E0660F771F881F991F90
:100930000A95D1F721E732E040E050E00E94CF2253
:10094000890180E421C020E03DE241E351E00E94C2
:10095000CF22E9016897B90180E090E020E033ED13
:100960004EEC5EEF0E949C226E0D7F1D801F911F3A
:10097000660F771F881F991F21E732E040E050E0A3
:100980000E94CF22890180E69E012F71622F680F9D
:1009900085E70E94DD0386E7612F0E94DD0387E77C
:1009A000602F0E94DD03DF91CF911F910F91FF9087
:1009B000EF9008959F92AF92BF92CF92DF920F93E4
:1009C000DF93CF9300D000D0CDB7DEB7982E83E071
:1009D0000E94D7038093170384E00E94D70380937B
:1009E000180386E060E00E94DD0387E061E00E947A
:1009F000DD0389E06FE70E94DD038AE065E00E9485
:100A0000DD038BE062E10E94DD038CE065E10E9482
:100A1000DD038DE06DEF0E94DD038EE060E00E945B
:100A2000DD03992019F081E692E008C08091FA0276
:100A300023E1829FC00111248E5F9D4F0E941D04FF
:100A400080E36CE80E94DD0382E36FE00E94DD0337
:100A500083E362E40E94DD0384E36AE00E94DD0335
:100A600085E36AE20E94DD0386E36DE20E94DD0316
:100A700087E364ED0E94DD0388E360E00E94DD030C
:100A800089E360E00E94DD03992049F02EE1A22E67
:100A90002EEBB22E21ECC22E2EEDD22E08C0A0904D
:100AA000DC02B090DD02C090DE02D090DF020AE3EB
:100AB0008D2D9927AA27BB2789839A83AB83BC8373
:100AC000802F69810E94DD03802F8B5F69810E94E6
:100AD000DD03DC2CCB2CBA2CAA240F5F0E3341F79C
:100AE00083E46FEF0E94DD0384E46FEF0E94DD0377
:100AF00085E46FEF0E94DD0386E46FEF0E94DD0363
:100B0000992019F08DE666E003C08DE66091E00261
:100B10000E94DD0389E760E00E94DD038AE76091BF
:100B2000E1020E94DD0383E760E00E94DD0384E7C9
:100B300060E00E94DD03992029F060EC72E98DEEFF
:100B400099E108C06091D8027091D9028091DA02CF
:100B50009091DB020E946E040F900F900F900F9007
:100B6000CF91DF910F91DF90CF90BF90AF909F908A
:100B7000089587E061E00E94DD038EE764E20E9451
:100B8000DD0388E063E00E94DD0388E060E00E940E
:100B9000DD0387E065E00E94DD0385E062E00E94FE
:100BA000DD0383E00E94D7038093170384E00E9453
:100BB000D70380931803089590E0411191E0880FC6
:100BC000982B9093BA00660F6093BD0030931E037C
:100BD00020931D030895882311F085EC01C085E85A
:100BE0008093BC00089585ED8093BC008091BC008B
:100BF00084FDFCCF089585EC8093BC000895ECEB58
:100C0000F0E0108285E480831092230308951F9200
:100C10000F920FB60F9211242F933F934F935F9330
:100C20006F937F938F939F93AF93BF93EF93FF93B4
:100C3000DF93CF930F92CDB7DEB78091B90090E0EC
:100C4000887F90708036910509F4EAC0813691055D
:100C5000CCF58832910509F47CC089329105B4F451
:100C60008031910509F470C0813191053CF4009701
:100C700009F40EC1089709F00DC166C088319105CD
:100C800009F467C0809709F005C177C080349105E9
:100C900009F490C08134910544F48033910509F43E
:100CA0006EC0C89709F0F6C06CC08035910509F494
:100CB00071C08835910509F483C08834910509F025
:100CC000E9C0A5C08839910509F4DCC089399105CE
:100CD000ECF48837910509F4A3C0893791054CF4E9
:100CE0008836910509F49CC08037910509F0D2C07F
:100CF00097C08838910509F4C5C08039910509F479
:100D000092C08038910509F0C5C08DC0803B910527
:100D100009F4A5C0813B91054CF4803A910509F492
:100D200099C0883A910509F0B5C099C0803C9105F9
:100D300009F4AAC0883C910509F4A6C0883B910536
:100D400009F0A8C080E08CC080911F038093BB0095
:100D50009BC0809122038150809322038F5F09F40E
:100D60003FC0E0912003F091210381918093BB006B
:100D7000F0932103E093200387C082E049C083E021
:100D800047C084E080932403809123038B7F80936A
:100D9000230362C08091BB00E0912003F091210306
:100DA0008193F0932103E0932003809122038150EB
:100DB0008093220380912203823008F065C062C0D4
:100DC0008091BB00E0912003F09121038193F09387
:100DD0002103E0932003809122038150809322031A
:100DE000809123038B7F809323038091230380FFD3
:100DF0004FC0809123038E7F809323038091230330
:100E000082608093230384EA8093BC0043C085E022
:100E100080932403809123038B7F8093230338C026
:100E20001092220331C0E0911D03F0911E03309710
:100E300049F19091BB00809122038F5F8093220340
:100E4000815011F060E001C062E09983CE0101960B
:100E500009951BC00E94F3050E94FB051BC081E0A1
:100E6000E0911D03F0911E03309761F0882311F487
:100E700061E001C063E0CE010196099599819093EC
:100E8000BB0003C080E001C081E00E94EB0502C00E
:100E90000E94F3050F90CF91DF91FF91EF91BF91E9
:100EA000AF919F918F917F916F915F914F913F9102
:100EB0002F910F900FBE0F901F90189525B190E0C5
:100EC000FC01EE0FFF1FE80FF91FE657FC4F808172
:100ED000282B25B988B19181892B88B98BB1928152
:100EE000892B8BB9089585B19091BA03892385B96F
:100EF00088B19091BB03892388B98BB19091BC03D1
:100F000089238BB908951F920F920FB60F92112467
:100F10001F932F933F934F935F936F937F938F9381
:100F20009F93AF93BF93CF93DF93EF93FF93109172
:100F30005C0380919802C0919602D0919702181795
:100F400008F05BC08091BD039091BE039093870031
:100F500080938600E12FF0E0EE0FFF1FEC58FD4F6D
:100F6000808191810E941903880F991F9093BE037D
:100F70008093BD038091BD039091BE039E01281B09
:100F8000390BC901309397022093960220911203E6
:100F900030911303220F331F8217930720F43093ED
:100FA00097022093960280915E03882339F4809102
:100FB0000A0380FF59C0183008F456C08FEF9FEF26
:100FC000909389008093880080918400909185009F
:100FD0008097D0F30E94730780915D03882339F4D2
:100FE00080915C03882319F081500E945E078091F4
:100FF0005C038F5F80935C033EC08091BD03909142
:10100000BE039093870080938600D093BE03C09365
:10101000BD0380915E03882319F08FEF9FEF06C018
:101020008091BD039091BE038855924090938900B2
:101030008093880080E49CE99093970280939602C5
:1010400080918400909185008097D0F30E9473076F
:1010500080915D03882329F48091980281500E9439
:101060005E0710925C0307C08091BD039091BE03A0
:1010700088559240A5CFFF91EF91DF91CF91BF911D
:10108000AF919F918F917F916F915F914F913F9120
:101090002F911F910F900FBE0F901F90189590E009
:1010A000880F991F880F991F8C30910518F42CE038
:1010B00030E007C09C0183E0253F380710F024EFA3
:1010C00033E0C9010895DF93CF93CDB7DEB76497BE
:1010D0000FB6F894DEBF0FBECDBF20E030E0AE010A
:1010E0004F5F5F4FF999FECF20583E4F32BD21BD73
:1010F00020583140F89A80B5FA01E20FF31F80833F
:101100002F5F3F4F2430310569F789818A3F51F5C0
:101110008A81813139F58B818A3521F58C818E3F29
:1011200009F520E030E0AE014F5F5F4FF999FECF47
:101130002C573E4F32BD21BD24583140F89A80B51E
:10114000FA01E20FF31F80832F5F3F4F24313105F7
:1011500069F786E060E673E00E944E0281E08093CA
:10116000800302C01092800364960FB6F894DEBF2D
:101170000FBECDBFCF91DF9108958091800388236A
:10118000E9F080910B03482F50E0A0E6B3E020E0A7
:1011900030E02417350761F0F8948D919C911197F8
:1011A000F901EE0FFF1FEC58FD4F91838083789477
:1011B0002F5F3F4F12962031310559F708951F9345
:1011C000CF93DF93EC0170E0CB018270907060FFF1
:1011D0001AC0892B31F08091830388831092010417
:1011E00045C01091010483ED92E00E943F01181761
:1011F000D8F5E12FF0E0E154FC4F808188831F5F38
:101200001093010433C0892BC1F09881909300049E
:1012100010920104892F807E803651F480918303DF
:10122000823010F188818F718093410383E01AC06E
:101230009E3FE1F41092830317C0809100048F3F1A
:10124000A9F420910104293278F4E22FF0E0ED5264
:10125000FD4F88818083822F8F5F809301048932C4
:1012600029F481E08093830380E001C081E0DF9175
:10127000CF911F910895EF92FF920F931F93CF93F9
:10128000DF9380E260E040E02FED38E00E94DC0573
:1012900010928303E2E0EE2E75E0F72E04E08091D9
:1012A0008303813039F480E00E94DA04E092830302
:1012B0005E98F5CF10918303133061F45D988091AF
:1012C00041030E94E8031093D2020E94B9050093E3
:1012D0008303E5CF80918303843009F78091D202A4
:1012E0008430E9F68FE70E94B303C0E0D0E007C086
:1012F0000E94C703FE01E154FC4F8083219683EDD9
:1013000092E00E943F0190E0C817D9078CF3F09259
:1013100083035D9AC4CFAF92BF92CF92DF92EF92D8
:10132000FF920F931F93CF93DF93EC010E94491D0F
:101330005B016C017E0100E010E011C0209779F0A4
:101340000E94491D6A197B098C099D09E616F7065A
:101350000807190720F40E94FF0581E008C080916A
:10136000230382FDEBCF8091240310922403DF91AD
:10137000CF911F910F91FF90EF90DF90CF90BF9092
:10138000AF900895CF92DF92EF92FF920F931F9349
:10139000CF93DF93182F7B01042FC22FD0E0F4E00E
:1013A000CF2ED12CCC22DD2222FF03C080E090E0A2
:1013B00004C080919402909195020E948B09282F7D
:1013C0008823B1F51092240300932203F0922103A5
:1013D000E0922003110F116010931F0390912303DB
:1013E000C1FD02C084E001C085E0892B8093230306
:1013F0008091230381FF0BC0809123038D7F809315
:10140000230380911F038093BB0085EC01C085EE10
:101410008093BC00C0FF0CC0CD2819F080E090E0A4
:1014200004C080919402909195020E948B09282F0C
:10143000822FDF91CF911F910F91FF90EF90DF905E
:10144000CF900895CF92DF92EF92FF920F931F9368
:10145000CF93DF93182F7B01042FC22FD0E0A4E09D
:10146000CA2ED12CCC22DD2222FF03C080E090E0E6
:1014700004C080919402909195020E948B09282FBC
:101480008823A9F51092240300932203F0922103EC
:10149000E0922003110F10931F0390912303C1FDCD
:1014A00002C084E001C085E0892B809323038091F2
:1014B000230381FF0BC0809123038D7F809323033F
:1014C00080911F038093BB0085EC01C085EE809363
:1014D000BC00C0FF0CC0CD2819F080E090E004C033
:1014E00080919402909195020E948B09282F822F5F
:1014F000DF91CF911F910F91FF90EF90DF90CF90F0
:1015000008958091D202813011F081E008950E9407
:10151000491D2091190330911A0340911B035091EA
:101520001C03621B730B840B950B615A7648814038
:10153000904010F480E0089582E00895FF920F93A8
:101540001F93CF93DF93182F092FF62E8EE30E945F
:10155000DD03212F302FC901EC0110E005C08FE71A
:1015600069910E94DD031F5F1F15C8F385E064E0E9
:101570000E94DD0383E00E94D7038093170384E079
:101580000E94D703809318030E94491D609319039A
:1015900070931A0380931B0390931C0387E069E008
:1015A0000E94DD0381E08093D202DF91CF911F91F1
:1015B0000F91FF9008950E949E0A8091D20281307F
:1015C000D9F40E94491D2091190330911A034091CA
:1015D0001B0350911C03621B730B840B950B605A09
:1015E00076488140904040F4E8CF8AE994E060E09A
:1015F00071E00E943F2008958091D2028130A9F3CA
:101600000895DF93CF930F92CDB7DEB78091830318
:101610008230B9F480E2BE016F5F7F4F41E021E08C
:101620000E94C209882379F08FEF809383030E9480
:101630003B1D60938403709385038093860390938E
:1016400087038FEF01C089810F90CF91DF910895BB
:10165000DF93CF930F92CDB7DEB7809183038230B3
:10166000D9F480914103805A898380E2BE016F5F83
:101670007F4F41E021E00E94220A882369F08FEF2A
:10168000809383030E943B1D6093840370938503C2
:1016900080938603909387030F90CF91DF910895F5
:1016A0000F931F93DF93CF93CDB7DEB7AA970FB6F3
:1016B000F894DEBF0FBECDBF8FEF8983DE01129697
:1016C000E3EDF2E089E201900D928150E1F780E2D2
:1016D0008E010F5F1F4FB8014AE221E00E94220AEB
:1016E000882351F480E2B80141E021E00E94C20960
:1016F000882311F482E001C08FEF809383038091EF
:101700008303823051F00E943B1D609384037093E9
:1017100085038093860390938703AA960FB6F89467
:10172000DEBF0FBECDBFCF91DF911F910F91089506
:10173000EF92FF920F931F93DF93CF9300D0CDB71B
:10174000DEB70E94491D9B01AC0180912503909159
:101750002603A0912703B091280379018A01E81A92
:10176000F90A0A0B1B0BD801C70181519742A0400F
:10177000B04008F444C0809129038F5F809329030F
:10178000815080FD02C000E001C007E020932503E6
:101790003093260340932703509328038AE994E06B
:1017A00063E00E9408228AE994E061E00E94082236
:1017B00037E0F32EF00E802F90E0880F991F9C01E8
:1017C0002C583D4F3A832983F90160817181672F3D
:1017D000772763707070880F991F682B792B8AE9BF
:1017E00094E00E940822E981FA8160817181707021
:1017F0008AE994E00E9408220F5F0F15E1F60F902E
:101800000F90CF91DF911F910F91FF90EF9008956E
:101810001F93182F8AE994E0612F0E940822812FDC
:101820000E9466031F910895CF92DF92EF92FF927C
:101830000F931F93CF93DF93082F0E94491D9B01A5
:10184000AC018091250390912603A0912703B091CC
:10185000280369017A01C81AD90AEA0AFB0AD701E2
:10186000C60181519742A040B04008F443C0209384
:1018700025033093260340932703509328031092A7
:1018800004041092030488EA0E94080C002311F457
:1018900081E001C081E80E94080C80E10E94080CF0
:1018A000C0E0D0E0FE01EE0FFF1FEC58FD4F80813D
:1018B00091810E9419038C0143E0000F111F4A958A
:1018C000E1F7812F0E94080C802F0E94080C2196BE
:1018D000C031D10539F7609104048AE994E00E948F
:1018E0000822609103047091040470708AE994E006
:1018F0000E940822DF91CF911F910F91FF90EF90EE
:10190000DF90CF900895CF92DF92EF92FF920F93E6
:101910001F93CF93DF93182F062F0E94491D9B0121
:10192000AC018091250390912603A0912703B091EB
:10193000280369017A01C81AD90AEA0AFB0AD70101
:10194000C60181519742A040B04008F4D6C120930F
:101950002503309326034093270350932803809157
:10196000740290917502880F991F80932A039770D3
:1019700080912B03887F892B80932B032091760203
:1019800030917702220F331F922F990F990F990FE1
:101990008770892B80932B03422F42954695477081
:1019A00080912C03807C932F9770990F990F990F3A
:1019B000842B892B80932C0320917802309179021B
:1019C000220F331F922F9295990F990F907C8F734E
:1019D000892B80932C03932F9295990F990F907CCC
:1019E000822F86958695892B80932D03932F96952C
:1019F0009695917080912E038E7F892B80932E0374
:101A000020917A0230917B02220F331F922F990F7F
:101A10008170892B80932E03422F441F4427441F3B
:101A200080912F03807F932F9770990F842B892BA0
:101A300080932F0320917C0230917D02220F331F6F
:101A4000922F9295907F8F70892B80932F03422F36
:101A500042954F70809130038078932F97709295C4
:101A6000907F842B892B8093300320917E023091CC
:101A70007F02220F331F8F7780933003932F979528
:101A800099279795822F8695892B80933103932FE1
:101A900096959370809132038C7F892B80933203CB
:101AA0004091800250918102440F551F942F990F4D
:101AB000990F8370892B80933203942F929596957A
:101AC0009695937020913303207E852F8770880F21
:101AD000880F292B282B2093330380918202909129
:101AE0008302880F991F382F3295330F307E2F7164
:101AF000232B20933303292F2295220F207E8695B6
:101B000086958695822B80933403809184029091F0
:101B10008502880F991F8093350397708091360353
:101B2000887F892B8093360320918602309187022B
:101B3000220F331F922F990F990F990F8770892BBE
:101B400080933603422F4295469547708091370324
:101B5000807C932F9770990F990F990F842B892B65
:101B6000809337032091880230918902220F331F1E
:101B7000922F9295990F990F907C8F73892B809358
:101B80003703932F9295990F990F907C822F86950A
:101B90008695892B80933803932F9695969591700F
:101BA000809139038E7F892B8093390320918A029B
:101BB00030918B02220F331F922F990F8170892B46
:101BC00080933903422F441F4427441F80913A03D6
:101BD000807F932F9770990F842B892B80933A03E2
:101BE00020918C0230918D02220F331F922F9295FB
:101BF000907F8F70892B80933A03422F42954F70CC
:101C000080913B038078932F97709295907F842BDF
:101C1000892B80933B0320918E0230918F02220FFB
:101C2000331F8F7780933B03932F97959927979531
:101C3000822F8695892B80933C03932F96959370E2
:101C400080913D038C7F892B80933D0340919002CE
:101C500050919102440F551F942F990F990F837043
:101C6000892B80933D03942F92959695969593702A
:101C700020913E03207E852F8770880F880F292BA7
:101C8000282B20933E038091920290919302880F1B
:101C9000991F382F3295330F307E2F71232B2093CD
:101CA0003E03292F2295220F207E869586958695C4
:101CB000822B80933F03112311F490E001C098E040
:101CC000002311F480E001C084E0892B809340035D
:101CD0008AE994E06FE00E940822CAE2D3E08AE930
:101CE00094E069910E94082283E0C134D807B9F7D3
:101CF0008AE994E060E00E940822DF91CF911F9171
:101D00000F91FF90EF90DF90CF900895CF93DF93E6
:101D10008AE994E00E949521892BF9F08091FE03D5
:101D2000C82FD0E09E012F5F3F4F2F713070809100
:101D3000FD0390E02817390781F08AE994E00E94BA
:101D4000CF21C352DC4F88838091FE0390E001963F
:101D50008F7190708093FE03DBCFDF91CF91089558
:101D60008CE060E00E94DA1D8BE061E00E94DA1DE9
:101D70008DE061E00E94DA1D82E060E00E94DA1DE1
:101D800084E061E00E94DA1D089583E00E94D70399
:101D90008093170384E00E94D7038093180387E0A1
:101DA00061E00E94DD036AE070E080E090E00E9464
:101DB0006F1D0E94B905000008950F931F93082F0F
:101DC00017C05E9A64E670E080E090E00E946F1DAC
:101DD0005E9864E670E080E090E00E946F1D1F5FF7
:101DE000101778F36CE271E080E090E00E946F1DC4
:101DF00010E0F6CF482F392F25E00DC0F999FECF1E
:101E00001FBA842F932F92BD81BD60BD0FB6F89489
:101E1000FA9AF99A0FBE215059F0F999FECF842F02
:101E2000932F92BD81BDF89A80B5681739F7089550
:101E300082E00E94DD0E0895EF92FF920F931F93B0
:101E4000DF93CF93CDB7DEB764970FB6F894DEBFBC
:101E50000FBECDBFA0E6B3E020E030E0F901EE0F09
:101E6000FF1FEC58FD4F808191818D939D932F5FD3
:101E70003F4F2031310591F781E08093800386E068
:101E800060E673E08E010F5F1F4FA8010E94E00122
:101E9000EE24FF24F801EE0DFF1DC7018C579E4F65
:101EA00060810E94FA0E0894E11CF11C84E1E8169E
:101EB000F10481F78AEF898381E18A838AE58B8344
:101EC0008EEF8C8300E010E07E010894E11CF11C91
:101ED000F701E00FF11FC80180589E4F60810E94FA
:101EE000FA0E0F5F1F4F0430110591F764960FB67D
:101EF000F894DEBF0FBECDBFCF91DF911F910F9140
:101F0000FF90EF9008951092800380E891E060E0E8
:101F10000E94FA0E0895CF92DF92EF92FF920F93F4
:101F20001F93CF93DF93C8E1D0E000E411E05EE1BE
:101F3000C52E5EEBD52E51ECE52E5EEDF52EA701FC
:101F400096010C2E04C056954795379527950A940F
:101F5000D2F7C801622F0E94FA0E28970F5F1F4F19
:101F60008FEFC83FD80759F7C4E4D1E0FE01E85429
:101F7000FE4FCE0160810E94FA0E219681E0CF359E
:101F8000D807A1F7DF91CF911F910F91FF90EF90AC
:101F9000DF90CF90089522E02093FC021092FD0282
:101FA00091E09093FE022093FF0293E09093000350
:101FB00094E09093010395E09093020394E2909350
:101FC000030395E29093040320930A039FEF9093F9
:101FD0000B032AE0209314031092150310921603AA
:101FE00010920C0310920D0310920E0310920F0327
:101FF0009EE1909310032093110328EB3BE0309374
:10200000130320931203882311F00E948B0F08956D
:1020100020E030E040E050E060E471E0F999FECF6C
:1020200072BD61BDF89A80B5542F432F322F2227FD
:10203000280F311D411D511D6F5F7F4F81E06434BA
:10204000780761F72E513E4B414C5E4D21F081E007
:102050000E94CB0F089524E431E0F999FECF32BD00
:1020600021BDF89A80B5F901E854FE4F80832F5FB7
:102070003F4F81E02F35380781F78091FC02823095
:1020800019F081E00E94CB0F8AE994E06CE071E0E6
:102090000E943F2008952F923F924F925F926F923D
:1020A0007F928F929F92AF92BF92CF92DF92EF92E8
:1020B000FF920F931F93DF93CF93CDB7DEB7C35635
:1020C000D0400FB6F894DEBF0FBECDBF5B016C01F0
:1020D0000E943B1D1B012C0181E00E94DA0483E079
:1020E0008093D2020E94C50E8AE994E06AE171E011
:1020F0000E943F203E010894611C711C2FE330E0D8
:102100002C0F3D1F2B5F3F4FA4963FAF2EAFA497E0
:10211000E7C08AE994E068E271E00E943F208FE71F
:102120000E94B3030E94C703182F8983823601F5EA
:1021300003ED12E00E94C703F80181938F01F2E0E2
:102140000C3F1F07B9F78091D302893009F0C3C053
:102150008AE994E061E371E00E943F2082E4898390
:10216000CE01019661E00E94DB0A5D9A81E0CEC05B
:10217000803719F0893631F506C020E52A83AA2474
:10218000BB24650105C081E00E94CB0F89E48A83EE
:1021900080910204882321F080910A03806803C0A3
:1021A00080910A038F7780930A03DE011396ECEF88
:1021B000F2E08BE101900D928150E1F7CE010296A1
:1021C0006CE187C0843731F584E58FAF33E0219629
:1021D0003FAF219786E522968FAF229788E023961E
:1021E0008FAF23978FE024968FAF2497A496AEAD40
:1021F000BFADA497E4EEF1E08EE101900D92815025
:10220000E1F7CE01CF9663E20E94DB0AAA24BB2449
:10221000650161C0853781F40CEF12E00E94C703AD
:10222000F80181938F01F3E007311F07B9F70E948E
:102230008B0F25E529834BC0863619F580918003E5
:102240008823D1F036E43E8FB0E6EB2EB3E0FB2ED0
:102250008E01015E1F4FF701819191917F010E94D4
:102260001903F801908381830E5F1F4FF0E8EF168A
:10227000F3E0FF0681F701C01E8FCE014E9661E2AA
:1022800028C08736F9F400E010E00E94C703982EBA
:1022900088240E94C7039401280F311DC9010E94A0
:1022A000EA02F801EE0FFF1FEC58FD4F9183808387
:1022B0000F5F1F4F0031110541F737E439830E944A
:1022C0001C0F05C0873439F40E94830F1983C301A2
:1022D00061E00E94DB0A83E08093D2020E94B9058C
:1022E000A114B104C104D10459F00E943B1D62192C
:1022F0007309840995096A157B058C059D0528F4E9
:102300008091D202843061F704CF80E0CD59DF4F55
:102310000FB6F894DEBF0FBECDBFCF91DF911F91F6
:102320000F91FF90EF90DF90CF90BF90AF909F9074
:102330008F907F906F905F904F903F902F90089577
:10234000CF92DF92EF92FF920F931F93CF93DF9381
:10235000C8E1D0E000E011E08EE1C82E8EEBD82E6F
:1023600081ECE82E8EEDF82EA70196010C2E04C00C
:1023700056954795379527950A94D2F7C801622F4D
:102380000E94FA0E28970F5F1F4F8FEFC83FD807A4
:1023900059F7C4E0D1E0FE01E153FE4FCE01608168
:1023A0000E94FA0E219681E0CD32D807A1F7DF9185
:1023B000CF911F910F91FF90EF90DF90CF900895F4
:1023C0000F931F93CF93DF93CDEFD2E00AE912E092
:1023D0008881E82FF0E0CF01807F9070409791F4E2
:1023E000EF70F070EE0FFF1FEC58FD4F8081918170
:1023F00060E08F3F910511F008F061E0F801808105
:102400000E94461E21960F5F1F4FF3E0C530DF0785
:10241000F9F6DF91CF911F910F9108951F93182F17
:10242000809102038B3221F48FE0612F0E94461EBF
:102430008091FF02873259F4112321F08091B0007E
:10244000806103C08091B0008F7E8093B0001F91A7
:102450000895EF92FF921F93CF93DF9383ED92E065
:102460000E9449018093980290910B03981719F4E8
:102470009F5F90939802EAE8F3E010821182128243
:10248000339683E0E23AF807C1F78FEF8093BA03FF
:102490008093BB038093BC033DEFE32E32E0F32E29
:1024A000A2EAB2E0E7016FEF5FEF4FEF8881803182
:1024B000F0F490E03C91FC01EE0FFF1FE80FF91FD4
:1024C000E657FC4F8081832B808311962C911197C6
:1024D0008181822B818312969C9112978281892B14
:1024E000828330954323209552239095692321962A
:1024F0001396E3E0C530DE07C9F66093BC03509342
:10250000BB034093BA03CAE9D2E010E0F70180812F
:10251000823238F08632B0F0863219F4888160E079
:102520000FC0163021F48091C1008F7E05C0173096
:1025300029F48091C100877F8093C100888161E088
:102540000E94DA1D1F5F0894E11CF11C21961830CF
:10255000E9F68091FD02803231F489E061E00E9469
:10256000461E82E801C082E08093800081E0809373
:102570005D0380935E038091FF02813211F0873208
:10258000D9F483E061E00E94DA1D83E060E00E94FC
:10259000461E8091FF02813231F481E08093B100C8
:1025A0008093B00009C082E08093B00085E0809302
:1025B000B1008EE38093B3008AE1809381008FEFB6
:1025C0009FEF909389008093880080ED97E090932F
:1025D00087008093860080E49CE990939702809323
:1025E00096029093BE038093BD0310925C0380918A
:1025F0006F00816080936F0080910A0383FF0AC09F
:1026000080918003882331F00E94BD0810925E0300
:1026100010925D03DF91CF911F91FF90EF9008958D
:102620000F931F9380915A0390915B039F770E94B1
:102630003E03982F8F3031F480915603869586950E
:10264000805404C08DE0989FC001112480935703EB
:1026500000910B03003170F4F89410E0809157035F
:102660000E944F08000F111F0C581D4FF801918355
:10267000808378948091FF028132C9F4909157034E
:10268000892F81508E3F60F08091B0008F7D8093C4
:10269000B00060E0911161E083E00E94461E07C037
:1026A0009093B4008091B00080628093B0001F913D
:1026B0000F9108951F93182F811111E082E1612F6E
:1026C0000E94461E83E1612F0E94461E1092220343
:1026D000109223038091B9008C6F8093B9008CE035
:1026E0008093B80085E48093BC001F910895EF9219
:1026F000FF920F931F93CF93DF93EB019C0144272D
:1027000037FD4095542F60E271EA87E090E00E9427
:10271000F12289011216130614F001E010E0BE0147
:10272000882777FD8095982F20E231EA47E050E036
:102730000E949C229801442737FD4095542F0E9407
:10274000F1227901C0E0D0E009C02B9AC8010E94B3
:10275000951D2B98C8010E94951D2196CE15DF0569
:10276000A4F3DF91CF911F910F91FF90EF90089507
:102770005D9A83E00E94D7038093170384E00E9450
:10278000D7038093180386E060E00E94DD0387E0B2
:1027900061E00E94DD0389E06FE70E94DD038AE0CB
:1027A00065E00E94DD038BE062E10E94DD038CE0C6
:1027B00065E10E94DD038DE06DEF0E94DD038EE098
:1027C00060E00E94DD0380E76CE20E94DD0380E3AD
:1027D00060E00E94DD0389E760E00E94DD038AE794
:1027E00065E00E94DD0381E762E10E94DD0382E78C
:1027F00062E00E94DD0383E760E00E94DD0384E77E
:1028000060E00E94DD0360910C0370910D038091E4
:102810000E0390910F030E946E048DE667E00E9404
:10282000DD036AE070E080E090E00E946F1D87E0C9
:1028300069E00E94DD036AE070E080E090E00E94C1
:102840006F1D88E891E061E070E00E947713A89521
:102850008DE665E00E94DD036AE070E080E090E0D4
:102860000E946F1D88EB91E061E070E00E94771399
:10287000A8958DE664E00E94DD036AE070E080E0E8
:1028800090E00E946F1D8DE591E061E070E00E9494
:102890007713A8958DE662E00E94DD036AE070E0A0
:1028A00080E090E00E946F1D8FEA90E061E070E0B0
:1028B0000E947713A8958DE660E00E94DD036AE030
:1028C00070E080E090E00E946F1D85E091E062E0A2
:1028D00070E00E947713A89587E061E00E94DD0315
:1028E0005D9808954F925F926F927F928F929F9220
:1028F000AF92BF92CF92DF92EF92FF920F931F930E
:10290000DF93CF93CDB7DEB766970FB6F894DEBFEF
:102910000FBECDBFA8958CE00E94D703882359F441
:102920008AE994E06CE371E00E943F2080E00E941D
:10293000DA040E94C50E0E94860E0E94491D0E9464
:10294000010BB82E8E010F5F1F4FAA24AA9480910D
:10295000D202843029F0B5E0EB2EBE1409F066C136
:102960000E94491D6B017C018091D2028430E9F400
:102970008FE70E94B30300E010E008C00E94C70385
:10298000F801E154FC4F80830F5F1F4F83ED92E00D
:102990000E943F0190E00817190784F30E94020487
:1029A000909359038093580328C083ED92E00E94CE
:1029B0003F01482F4F5F80E2B80121E00E94C20929
:1029C000882369F0A09283030E943B1D60938403D7
:1029D000709385038093860390938703B8CF83ED2C
:1029E00092E00E943F01482F2FEB33E0FE01329628
:1029F000C901BF0150E00E948C00C0924203D092F6
:102A00004303E0924403F0924503109282038091C5
:102A10005A0390915B03880F991F816090935B0329
:102A200080935A035E985D9A80E00E940E12809116
:102A3000BF03282F30E0C9018E739070892B71F588
:102A4000F8948091FB02877064E772E040EC53E0F9
:102A50000E944E0200910B03003160F410E080915F
:102A600057030E944F08000F111F0C581D4FF8010B
:102A70009183808378948091BF039091890380FF34
:102A800008C0992399F50E941C0F81E08093890367
:102A90002DC0992359F11092890328C0C901887368
:102AA0009070C89719F54091D403842F822787FF2F
:102AB0001DC040584093D403809104038532B1F483
:102AC00010E00AC01F5FE12FF0E0E154FC4F8AE9FB
:102AD00094E060810E940822212F30E08091BF03A2
:102AE00090E0877090708217930764F7809181035C
:102AF000882319F481E08093810310925F03109280
:102B00005D0310925E038091FB02887109F485C019
:102B10004091D4038091BF0390E0242F30E08227BE
:102B2000932786FD6CC0407C80E448274093D40303
:102B30009091FD038091FE03981701F1A5EDB3E09C
:102B400030E00FC03F5F892F90E0FC01E352FC4F63
:102B500020812D9301968F7190708093FD03383002
:102B600031F09091FD038091FE03981759F7395C7D
:102B70008091D403382B3093D40341C08091550306
:102B80008093D5038091FE02863211F482E105C064
:102B900080910103863251F48EE00E94A91E959522
:102BA0008795959587958093D60302C01092D6039A
:102BB00080910003863211F483E105C08091020305
:102BC000863251F48FE00E94A91E959587959595C0
:102BD00087958093D70302C01092D7038091590341
:102BE0008093D803809158038093D90380915A032E
:102BF00090915B039F770E943E038093DA0384EDFC
:102C000093E069E00E949E0A02C00E94860E0E9424
:102C1000810A8823D1F30E94E01183E08093D202DD
:102C20000E94B90581E0809388035D980E94491D48
:102C30005B016C010E943B1D2B013C0180918203D2
:102C4000823008F065C0E0904203F09043030091A9
:102C50004403109145038091460390914703A0914E
:102C60004803B09149038E159F05A007B10709F4E9
:102C70004FC083ED92E00E945901A60195012E19E3
:102C80003F09400B510B6C5D7540804090406217CE
:102C9000730784079507E0F5E0924603F092470337
:102CA00000934803109349030E94FE038093550349
:102CB0002091530330915403280F311D3093540356
:102CC00020935303609152036F5F60935203693006
:102CD000F8F0C90170E00E94BB22CB01709354034D
:102CE000609353032091560343E0249F90011124E5
:102CF000820F931F96958795969587958093560397
:102D00000E94101310925403109253031092520316
:102D1000809181039090FF03882309F457C180902C
:102D20008203891408F0D5C183ED92E00E94590115
:102D30002091420330914303409144035091450355
:102D4000A21AB30AC40AD50A68517C4F8F4F9F4F0D
:102D50006A157B058C059D0508F075C080915A03A6
:102D600090915B03880F991F90935B0380935A03A4
:102D700081E080938803882081F440924A03509236
:102D80004B0360924C0370924D0310924E031092CD
:102D90004F031092500310925103809182038F5F72
:102DA0008093820383ED92E00E94590120914203B7
:102DB000309143034091440350914503260F371F40
:102DC000481F591F20934203309343034093440309
:102DD0005093450381E0809388035E9A0E940E120F
:102DE0000E94101330C083ED92E00E9459019B01B4
:102DF000AC018091420390914303A0914403B091B0
:102E0000450386017501E81AF90A0A0B1B0B682DA8
:102E100070E080E090E00E949C226E157F058007A4
:102E2000910788F410925B0310925A0381E080931B
:102E300088030E941013A0924203B0924303C092F1
:102E40004403D092450380918203882309F4E8C0AB
:102E500090911403992389F180915F03882369F588
:102E6000892F90E00E94060120914A0330914B0384
:102E700040914C0350914D0383017201E21AF30A11
:102E8000040B150B6E157F0580079107B0F481E0E8
:102E900080935F030E94BD08809110030E94390156
:102EA000640D751D861D971D616060934E037093C0
:102EB0004F038093500390935103909116039923ED
:102EC000F1F080915D038823D1F4892F90E00E9476
:102ED000060120914A0330914B0340914C035091DD
:102EE0004D0383017201E21AF30A040B150B6E15F0
:102EF0007F058007910718F481E080935D0390912E
:102F000015039923F1F080915E038823D1F4892F72
:102F100090E00E94060120914A0330914B034091BA
:102F20004C0350914D0383017201E21AF30A040B22
:102F3000150B6E157F058007910718F481E08093CB
:102F40005E0380910C0390910D03A0910E03B0914C
:102F50000F030097A105B10509F462C080914E03EB
:102F600090914F03A0915003B09151030097A10598
:102F7000B10509F455C083017201E81AF90A0A0B78
:102F80001B0B17FD4DC06091110370E080E090E0D5
:102F900028EE33E040E050E00E949C226E157F0551
:102FA00080079107E8F50E94B81380E00E94DA04D8
:102FB0000E94B9050E943B1D616060934E037093AF
:102FC0004F0380935003909351032AC083ED92E006
:102FD0000E9459019B01AC018091420390914303EF
:102FE000A0914403B091450386017501E81AF90ADE
:102FF0000A0B1B0B692D70E080E090E00E949C2280
:103000006E157F058007910758F4A0924203B09295
:103010004303C0924403D092450381E08093880328
:1030200080915E038823B1F480910403883219F4FF
:103030000E94980B0FC0893239F480915F03609130
:1030400082030E94830C06C08A3221F480915F03C0
:103050000E94140C809188038823B9F0E091410309
:10306000EF5FE0934103E83131F0F0E0ED52FD4FC6
:103070008785882311F410924103809141030E94B7
:10308000E8030E94280B10928803809183038F3FEE
:1030900021F50E943B1D20918403309185034091CE
:1030A000860350918703621B730B840B950B695E3B
:1030B00073408040904088F00E943B1D60938403E1
:1030C0007093850380938603909387030E94500B2F
:1030D00004C0891409F0B7CE86CE66960FB6F89470
:1030E000DEBF0FBECDBFCF91DF911F910F91FF903B
:1030F000EF90DF90CF90BF90AF909F908F907F9098
:103100006F905F904F900895FF920F931F93082F39
:10311000F62E61E00E94DA1D802F61E00E94461EBB
:103120008F2D61E00E94461E8AE090E00E94951D6E
:103130008F2D0E94791E892B11F410E00FC0802F73
:1031400060E00E94461E8AE090E00E94951D8F2D4F
:103150000E94791E10E0892B09F411E0802F60E0B5
:103160000E94DA1D802F60E00E94461E8F2D60E0D5
:103170000E94461E812F1F910F91FF900895EF929C
:10318000FF920F931F937C010AE914E0C8016F2D91
:1031900070E04AE050E00E94B61FC8016EE20E9453
:1031A000F51EB70184E0769567958A95E1F76F7013
:1031B0007070C8014AE050E00E94B61FC8016EE27C
:1031C0000E94F51E8FE0E822FF24C801B7014AE003
:1031D00050E00E94B61F1F910F91FF90EF9008954D
:1031E0002F923F924F925F926F927F928F929F9217
:1031F000AF92BF92CF92DF92EF92FF920F93DF9345
:10320000CF93CDB7DEB7A8970FB6F894DEBF0FBE49
:10321000CDBF7E010894E11CF11C80E1D7011D9215
:103220008A95E9F78AE994E064E471E00E943F201E
:103230000E94C50E44245524320100E020E431EE02
:103240004DE958E129A33AA34BA35CA380EC91ED8F
:10325000A8E9BBE18D8F9E8FAF8FB8A324EF31E03B
:1032600040E050E0298F3A8F4B8F5C8F20E5822E13
:1032700023EC922EA12CB12C80E491EEADE9B8E1C3
:10328000898B9A8BAB8BBC8B222433241D8A1E8A9C
:103290001F8A188E0DC18AE994E00E94CF218434E0
:1032A000C9F0853434F48332C9F18C3209F0CEC0D0
:1032B00046C0833509F0CAC044245524320129A1EF
:1032C0003AA14BA15CA1C901DA01898B9A8BAB8B26
:1032D000BC8BEEC08AE994E064E40E94F51E8AE9A2
:1032E00094E040E451EE6DE978E12AE030E00E949C
:1032F000D91F8AE994E06CE20E94F51E8AE994E005
:1033000040EC51ED68E97BE12AE030E00E94D91FF2
:103310008AE994E06CE20E94131FCAC019821A82E3
:103320001B821C821D821E821F82188619861A86A5
:103330001B861C861D861E861F86188A3CC00F5F52
:10334000043009F0B5C069817A818B819C8128EEB7
:1033500033E040E050E00E949C2269A37AA38BA353
:103360009CA36D817E818F8198850E949C226D8FA8
:103370007E8F8F8F98A329853A854B855C85298F11
:103380003A8F4B8F5C8F6D857E858F85988928EE6F
:1033900033E040E050E00E949C224B015C0160322F
:1033A0003EE4730730E0830730E0930730F48CE1AC
:1033B00062E30E94DD0300E07BC0603345E77407F1
:1033C00040E0840740E0940718F48CE162E2F1CF1A
:1033D00060345CE9750750E0850750E0950718F404
:1033E0008CE166E2E6CF80E5881683EC980680E003
:1033F000A80680E0B80618F48CE162E1DACF90E626
:1034000089169AEE990690E0A90690E0B90618F49C
:103410008CE165E1CECFA0E78A16A1E19A06A1E092
:10342000AA06A0E0BA0618F48CE161E0C2CFB0EAC7
:103430008B16B6E89B06B1E0AB06B0E0BB0618F40D
:103440008CE163E0B6CF8CE165E0B3CF80538A3086
:1034500078F5C02EDD24CC0CDD1CCC0CDD1CE1E0AD
:10346000F0E0EC0FFD1FCE0EDF1E282F332727FDC7
:103470003095432F532F2DA33EA34FA358A7D6011A
:103480006D917D918D919C912AE030E040E050E07B
:103490000E949C222DA13EA14FA158A5260F371FA7
:1034A000481F591FD6012D933D934D935C9313975D
:1034B0008AE994E00E949521892B09F0ECCE411411
:1034C00051046104710499F469897A898B899C8912
:1034D0000E946E0461E070E080E090E00E946F1D49
:1034E00022242A9433241D8A1E8A1F8A188E298D2D
:1034F0003A8D4B8D5C8D4216530664067506D0F4EA
:103500000E94FE032D893E894F89588D280F311D59
:10351000411D511D2D8B3E8B4F8B588F381608F453
:10352000382E821508F4282E0894411C511C611C69
:10353000711C64C069897A898B899C8928EE33E083
:1035400040E050E00E94CF228AE994E0BA01A9014C
:103550002AE030E00E94A71F8AE994E06CE20E9412
:10356000F51E8AE994E0632D4AE050E00E94C71FEF
:103570008AE994E06CE20E94F51E6D897E898F894C
:10358000988DA30192010E94CF228AE994E0BA01AA
:10359000A9012AE030E00E94A71F8AE994E06CE2CA
:1035A0000E94F51E8AE994E0622D4AE050E00E94F4
:1035B000C71F8AE994E06CE20E94131F89899A89E7
:1035C000AB89BC89880D991DAA1DBB1D898B9A8B5F
:1035D000AB8BBC8B2D8D3E8D4F8D58A12817390795
:1035E0004A075B0740F489A19AA1ABA1BCA1898BD2
:1035F0009A8BAB8BBC8B44245524320129A13AA170
:103600004BA15CA1285E33404040504009F050CFB0
:10361000A8960FB6F894DEBF0FBECDBFCF91DF9155
:103620000F91FF90EF90DF90CF90BF90AF909F9061
:103630008F907F906F905F904F903F902F90089564
:1036400080E065E970E042E050E00E94761C089559
:10365000DF93CF930F92CDB7DEB780E00E94B10029
:1036600085E061E00E94DA1D86E061E00E94DA1DDB
:103670000E94B00E80E060E00E94DA1D81E061E00F
:103680000E94DA1D8AE994E040E052EC61E070E0CB
:103690000E940E210E9408100E9463088AE994E0AB
:1036A00061E571E00E943C2086E593E00E94BF182E
:1036B0008AE994E068E671E00E943C208AE994E09F
:1036C00065E070E04AE050E00E9428200E94201B44
:1036D00078945E9A83E063E10E948418882329F03D
:1036E0005E985D980E94F018FBCF89E062E10E942D
:1036F0008418882329F40E94C800892B09F0EEC0A1
:103700008AE994E060E771E00E943C2060E070E0AC
:1037100080E090E00E944B10882349F00E94A011A5
:103720008AE994E069EA71E00E943F205D9A0E9474
:10373000291222C080910003833229F080910A036C
:103740008B7F80930A0380910A0381FF15C082FD5D
:1037500013C064EF71E080E090E00E944B1088237A
:1037600059F00E94A0118AE994E069EA71E00E9490
:103770003F200E9429125D9A8091FE02823239F523
:1037800080910003833219F581E00E945A138091E1
:103790000A0382FF09C08AE994E064EC71E00E94A8
:1037A0003F200E943B0913C064E170E080E090E09C
:1037B0000E946F1D80E2BE016F5F7F4F41E021E0FC
:1037C0000E94C209882319F481E0809383038AE967
:1037D00094E06FEC71E00E943C208FE00E94B10009
:1037E00080E00E94DA041092410380E00E94E80326
:1037F0001092FF0390E0983158F4292F2F5FE92FA2
:10380000F0E0ED52FD4F8785882311F0922FF3CF22
:103810009093FF0383E08093D2020E94C50E8091B3
:103820008303882311F00E94500B80910403883297
:1038300011F08A3239F48AE994E040E052EC61E018
:1038400070E02BC0893271F48AE994E040EA56E8CE
:1038500061E070E00E940E218091C200806280933E
:10386000C20022C08091FB028871803169F04091D2
:10387000D4025091D5026091D6027091D7024A309D
:1038800051056105710538F48AE994E040E855E294
:1038900060E070E002C08AE994E00E940E2104C05A
:1038A0008AE994E00E94CF218AE994E00E94952160
:1038B000892BB1F71092FD031092FE031092810341
:1038C0000E94491D60934203709343038093440315
:1038D000909345030F90CF91DF9108950E94291294
:1038E0008091FE02823209F029CF24CF823000F588
:1038F000E82FF0E0EE0FFF1FEB5FFB4F718360835B
:10390000882319F08130A1F408C0809169008C7F70
:10391000842B80936900E89A089580916900440F90
:10392000551F440F551F837F842B80936900E99AAC
:1039300008951F920F920FB60F9211242F933F9369
:103940004F935F936F937F938F939F93AF93BF93A7
:10395000EF93FF938091050490910604892B29F041
:10396000E0910504F09106040995FF91EF91BF9154
:10397000AF919F918F917F916F915F914F913F9107
:103980002F910F900FBE0F901F9018951F920F92BE
:103990000FB60F9211242F933F934F935F936F9322
:1039A0007F938F939F93AF93BF93EF93FF938091F8
:1039B000070490910804892B29F0E0910704F09105
:1039C00008040995FF91EF91BF91AF919F918F915D
:1039D0007F916F915F914F913F912F910F900FBE0B
:1039E0000F901F9018951F920F920FB60F921124EF
:1039F0002F933F938F939F93AF93BF9380910D0429
:103A000090910E04A0910F04B09110043091110414
:103A10000196A11DB11D232F2D5F2D3720F02D57AD
:103A20000196A11DB11D2093110480930D04909364
:103A30000E04A0930F04B093100480910904909198
:103A40000A04A0910B04B0910C040196A11DB11DB4
:103A50008093090490930A04A0930B04B0930C0480
:103A6000BF91AF919F918F913F912F910F900FBE7A
:103A70000F901F9018958FB7F89420910D043091F6
:103A80000E0440910F04509110048FBFB901CA0178
:103A900008959FB7F8942091090430910A04409149
:103AA0000B0450910C0486B5A89B06C08F3F21F0F3
:103AB0002F5F3F4F4F4F5F4F9FBF542F432F322FEA
:103AC0002227280F311D411D511D82E0220F331F77
:103AD000441F551F8A95D1F7B901CA010895EF9285
:103AE000FF920F931F93CF93DF937B018C010E9472
:103AF000491DEB010EC00E94491D6C1B7D0B685EC9
:103B00007340C8F30894E108F10801091109C8518C
:103B1000DC4FE114F1040105110569F7DF91CF9144
:103B20001F910F91FF90EF900895019739F0880F42
:103B3000991F880F991F02970197F1F708957894BC
:103B400084B5826084BD84B5816084BD85B58260A2
:103B500085BD85B5816085BDEEE6F0E08081816040
:103B60008083E1E8F0E01082808182608083808140
:103B700081608083E0E8F0E0808181608083E1EB18
:103B8000F0E0808184608083E0EBF0E08081816000
:103B90008083EAE7F0E080818460808380818260B6
:103BA000808380818160808380818068808310929F
:103BB000C1000895CF93DF93482F50E0CA01865685
:103BC0009F4FFC0134914A575F4FFA01849188233B
:103BD00069F190E0880F991FFC01E859FF4FA5910A
:103BE000B491FC01EE58FF4FC591D491662351F476
:103BF0002FB7F8948C91932F909589238C9388817B
:103C000089230BC0623061F42FB7F8948C91932F05
:103C1000909589238C938881832B88832FBF06C03E
:103C20009FB7F8948C91832B8C939FBFDF91CF919A
:103C30000895833071F0843028F48130A1F082300F
:103C400021F514C08630B1F08730D1F08430E9F42A
:103C500004C0809180008F7703C0809180008F7DA9
:103C600080938000089584B58F7702C084B58F7DDE
:103C700084BD08958091B0008F778093B00008953F
:103C80008091B0008F7D8093B0000895FF920F93D4
:103C90001F93F62E482F50E0CA0182559F4FFC011A
:103CA0002491CA0186569F4FFC0114914A575F4FD9
:103CB000FA0104910023C9F0222319F0822F0E94F7
:103CC000191EE02FF0E0EE0FFF1FEE58FF4FA591F9
:103CD000B4919FB7F894FF2021F48C911095812323
:103CE00002C08C91812B8C939FBF1F910F91FF90ED
:103CF00008950F931F93482F50E0CA0182559F4F9C
:103D0000FC012491CA0186569F4FFC0104914A5739
:103D10005F4FFA011491112319F420E030E015C02F
:103D2000222319F0822F0E94191E812F90E0880F04
:103D3000991F84589F4FFC01A591B4918C9120E06C
:103D400030E0802311F021E030E0C9011F910F9194
:103D50000895982F8E3008F09E50977080919902A8
:103D60008295880F880F807C892B80937C008091BE
:103D70007A00806480937A0080917A0086FDFCCF7F
:103D80002091780040917900942F80E030E0282B3A
:103D9000392BC9010895CF92DF92EF92FF920F93D2
:103DA0001F93CF93DF937C016B018A01C0E0D0E0C9
:103DB0000FC0D6016D916D01D701ED91FC9101907D
:103DC000F081E02DC7010995C80FD91F015010409F
:103DD0000115110571F7CE01DF91CF911F910F9160
:103DE000FF90EF90DF90CF900895DC01ED91FC9172
:103DF0000190F081E02D09950895EF92FF920F93C5
:103E00001F938C016DE00E94F51E7C01C8016AE0E1
:103E10000E94F51E9C012E0D3F1DC9011F910F919F
:103E2000FF90EF900895EF92FF920F931F937C0104
:103E30000E94F51E8C01C7010E94FD1E9C01200FEF
:103E4000311FC9011F910F91FF90EF900895CF93FB
:103E5000DF93EC016115710519F420E030E00FC02B
:103E6000DB010D900020E9F71197A61BB70BE88145
:103E7000F9810280F381E02DAD0109959C01C90112
:103E8000DF91CF9108954F925F927F928F929F9290
:103E9000AF92BF92CF92DF92EF92FF920F931F9358
:103EA000DF93CF93CDB7DEB7A1970FB6F894DEBFFF
:103EB0000FBECDBF2C01742ECB01223008F42AE0B6
:103EC00019A231E2C32ED12CCC0EDD1E822E9924F4
:103ED000AA24BB24672D752FA50194010E94CF222F
:103EE00079018A01C801B701A50194010E949C22B1
:103EF000472D461B0894C108D1084A3014F4405D90
:103F000001C0495CF6014083E114F104010511058B
:103F100021F07E2C5F2DC801DDCFC201B6010E94C9
:103F2000271FA1960FB6F894DEBF0FBECDBFCF916D
:103F3000DF911F910F91FF90EF90DF90CF90BF9096
:103F4000AF909F908F907F905F904F900895DC018D
:103F50002115310541F4ED91FC910190F081E02DA6
:103F6000642F099508950E94431F0895EF92FF92D0
:103F70000F931F939A017B0100E010E0B801A701A5
:103F80000E94A71F1F910F91FF90EF900895EF924D
:103F9000FF920F931F939A01E62EFF2400E010E09A
:103FA000B801A7010E94A71F1F910F91FF90EF90EA
:103FB0000895CF92DF92EF92FF920F931F93CF93CA
:103FC000DF93EC016A017B012115310541F4E881A1
:103FD000F9810190F081E02D642F09951BC02A30F2
:103FE0003105B1F477FF13C06DE20E94F51E8C011C
:103FF00044275527BA014C195D096E097F09CE0186
:104000002AE00E94431F9C01200F311F04C02AE0B8
:104010000E94431F9C01C901DF91CF911F910F9115
:10402000FF90EF90DF90CF900895EF92FF920F9363
:104030001F937B019A010027F7FC0095102FB80110
:10404000A7010E94D91F1F910F91FF90EF90089533
:10405000EF92FF920F931F937C010E9415208C0119
:10406000C7010E94FD1E9C01200F311FC9011F9135
:104070000F91FF90EF9008950E94271F0895EF92EF
:10408000FF920F931F937C010E943C208C01C7017B
:104090000E94FD1E9C01200F311FC9011F910F912D
:1040A000FF90EF90089508951F920F920FB60F9210
:1040B00011242F933F934F938F939F93EF93FF93ED
:1040C0008091C00082FD1DC04091C6002091520425
:1040D000309153042F5F3F4F2F7330708091540401
:1040E000909155042817390771F0E0915204F0912E
:1040F0005304EE5EFB4F40833093530420935204ED
:1041000002C08091C600FF91EF919F918F914F91D6
:104110003F912F910F900FBE0F901F9018951F92F7
:104120000F920FB60F9211242F933F938F939F936B
:10413000EF93FF9320919604309197048091980417
:10414000909199042817390731F48091C1008F7D2F
:104150008093C10014C0E0919804F0919904EA5A48
:10416000FB4F2081809198049091990401968F7360
:10417000907090939904809398042093C600FF91C7
:10418000EF919F918F913F912F910F900FBE0F90C4
:104190001F9018958F929F92AF92BF92CF92DF920D
:1041A000EF92FF920F931F93DF93CF93CDB7DEB7BC
:1041B000FC011382128288EE93E0A0E0B0E08483D9
:1041C0009583A683B78386EC92E09183808375877D
:1041D000648757874687318B208B138B028BF58A38
:1041E000E48AD78AC68AB18EA08E938E828E8F85FE
:1041F000848F8889858F8989868F8A89878F8B8923
:1042000080A3CF91DF911F910F91FF90EF90DF90EE
:10421000CF90BF90AF909F908F900895AF92BF9234
:10422000DF92EF92FF920F931F93CF93DF93EC01F6
:104230007A018B01DD24403081EE580780E0680769
:1042400080E0780711F0DD24D39491E0A92EB12C01
:10425000EC89FD89DD2069F0C50108A002C0880F46
:10426000991F0A94E2F7808360E079E08DE390E0A3
:1042700005C0108260E874E88EE190E0A801970123
:104280000E94CF22215030404040504056954795E3
:104290003795279580E12030380720F0DD2011F098
:1042A000DD24D6CFE889F9893083EA89FB89208328
:1042B00019A2EE89FF89408121E030E0C9010C8C10
:1042C00002C0880F991F0A94E2F7482B4083EE89B9
:1042D000FF894081C9010D8C02C0880F991F0A9483
:1042E000E2F7482B4083EE89FF894081C9010E8C9B
:1042F00002C0880F991F0A94E2F7482B4083EE8989
:10430000FF8980810F8C02C0220F331F0A94E2F7CD
:10431000209528232083DF91CF911F910F91FF904B
:10432000EF90DF90BF90AF900895DC011C96ED9167
:10433000FC911D97E05CFF4F21913191808191812B
:10434000281B390B2F733070C90108958AE994E056
:104350000E949521892B11F00E9453200895DC01C1
:104360001C96ED91FC911D97E05CFF4F20813181FF
:10437000E054F040DF01AE5BBF4F8D919C911197EF
:104380002817390719F42FEF3FEF07C08D919C9143
:10439000E80FF91F8081282F30E0C9010895DC0162
:1043A0001C96ED91FC911D97E05CFF4F20813181BF
:1043B000E054F040DF01AE5BBF4F8D919C911197AF
:1043C0002817390719F42FEF3FEF10C08D919C91FA
:1043D0001197E80FF91F20818D919C9111970196FB
:1043E0008F73907011969C938E9330E0C90108955D
:1043F000DC0191968C919197882339F05496ED9138
:10440000FC915597808186FFF9CF91961C92089573
:10441000CF93DF93EC01EE85FF85E05CFF4F2081B9
:104420003181E054F0402F5F3F4F2F733070DF0138
:10443000AE5BBF4F8D919C91119728173907D1F32F
:10444000E05CFF4F80819181E054F040E80FF91F5C
:104450006083EE85FF85E05CFF4F31832083EE892A
:10446000FF89208181E090E00F8C02C0880F991FA6
:104470000A94E2F7282B208381E089A3EC89FD8947
:1044800080818064808381E090E0DF91CF91089506
:104490008F929F92AF92BF92CF92DF92EF92FF9254
:1044A0000F931F9300D000D00F92EDB7FEB7319657
:1044B00084E0ADB7BEB711968C9383E0818387E02B
:1044C000828385E0838381E084838AE994E062E1EA
:1044D00074E046E554E025EC30E004EC10E0B0EC8C
:1044E000EB2EF12CA1ECCA2ED12CF2ECAF2EB12C7C
:1044F000E6EC8E2E912C0E94CA200F900F900F9008
:104500000F900F901F910F91FF90EF90DF90CF9041
:10451000BF90AF909F908F900895CF93DF930E94AC
:104520009F1D0E94281BC6EAD1E20E9472142097A8
:10453000E1F30E94A621F9CF629FD001739FF001A1
:10454000829FE00DF11D649FE00DF11D929FF00D23
:10455000839FF00D749FF00D659FF00D9927729F5A
:10456000B00DE11DF91F639FB00DE11DF91FBD01E5
:10457000CF0111240895AA1BBB1B51E107C0AA1F3C
:10458000BB1FA617B70710F0A61BB70B881F991FF4
:104590005A95A9F780959095BC01CD010895A1E2A7
:1045A0001A2EAA1BBB1BFD010DC0AA1FBB1FEE1FAD
:1045B000FF1FA217B307E407F50720F0A21BB30BF8
:1045C000E40BF50B661F771F881F991F1A9469F774
:1045D00060957095809590959B01AC01BD01CF01D0
:1045E000089597FB092E05260ED057FD04D0D7DF7E
:1045F0000AD0001C38F450954095309521953F4FD6
:104600004F4F5F4F0895F6F790958095709561959F
:104610007F4F8F4F9F4F0895EE0FFF1F0590F4912E
:08462000E02D0994F894FFCF8E
:1046280054582074696D656F757421005258636F12
:104638006E66206C6F616465640057616974696EA9
:10464800672062696E640A00476F7420706B740A91
:10465800006461746120676F6F640A0052582068B3
:10466800616E67007363616E6E6572206D6F64655D
:10467800004F70656E4C52536E6720525820737409
:10468800617274696E672000206F6E2048572000A1
:10469800454550524F4D2064617461206E6F7420FF
:1046A80076616C6964206F722062696E64206A7535
:1046B8006D70706572207365742C20666F72636903
:1046C8006E672062696E640A0053617665642062D1
:1046D800696E64206461746120746F20454550528E
:1046E8004F4D0A004920616D20736C617665004565
:1046F8006E746572696E67206E6F726D616C206D85
:104708006F6465000020012201260221022703238D
:10471800032604260526052B06240725072807292E
:10472800072AC01200001A400AA1204EA5001B1E2D
:1047380027522C23308025000005400AA1204EA5D1
:104748000020244EA52C2330004B000006400AD040
:10475800009D49007B289D492C233000E10000057D
:10476800400A4501D7DC03B81E0EBF00232E48E8D7
:1047780001008A400A6001555502AD1E2000002341
:10478800C88025000005400AA1204EA50020244E1F
:10479800A52C2330000200020002000200020002E1
:1047A80000020002000200020002000200020002F1
:1047B800000200028813409C0801091203130E0F1F
:1047C80000010200000010000000080020000001A5
:1047D8000000020000000100000200070B0C10118D
:1047E8001500000000000822CB1E9521CF21AF2123
:0247F800F821A6
:00000001FF
