:100000000C9462000C94561B0C94831B0C948A0075
:100010000C948A000C948A000C948A000C948A0038
:100020000C948A000C948A000C948A000C948A0028
:100030000C948A000C94CF0B0C948A000C948A00C8
:100040000C94B01B0C948A000C942C1F0C946F1F02
:100050000C948A000C948A000C948A000C948A00F8
:100060000C9429090C948A0000000007000201008A
:100070000003040600000000000000000102040864
:100080001020408001020408102001020408102002
:10009000040404040404040402020202020203032E
:1000A00003030303000000002300260029000000D2
:1000B0000000250028002B0000000000240027007D
:1000C0002A002E2011241FBECFEFD8E0DEBFCDBF07
:1000D00012E0A0E0B1E0EEECF2E402C005900D9277
:1000E000A23DB107D9F714E0A2EDB2E001C01D9224
:1000F000A03EB107E1F710E0C2E6D0E004C02197CE
:10010000FE010E944021C136D107C9F70E94692033
:100110000C9465210C9400008091E203813019F465
:1001200082E08093E2038091E203833019F484E05B
:100130008093E2030895A8950895DC01ED91FC9168
:100140000190F081E02D09950895DC01ED91FC917D
:100150000190F081E02D099508952091E3033091FD
:10016000E403A9015827CA0128E0AC01440F551F38
:1001700097FF06C0CA0131E2832730E1932701C00F
:10018000CA01215091F79093E4038093E30308950B
:100190008436910520F4BC0180E090E017C09C01FA
:1001A0008E3B910528F42A553109AAE0B0E00CC035
:1001B000823D910528F4245B3109A4E6B0E004C037
:1001C0002D5C3109A8E5B2E00E947620A4E6B0E0FB
:1001D0009B01AC010E948520089590E08C599F4FAF
:1001E0000E94C8000895EEE0F4E082E0808311826E
:1001F00091E09283838383E0848384E0858385E038
:10020000868384E2878385E28087089560E08CE0BE
:100210000E94BF1C61E08BE00E94BF1C61E08DE08A
:100220000E94BF1C60E082E00E94BF1C61E084E08D
:100230000E94BF1C089542E050E06CE870E080E04E
:100240000E94361B0895E3E0F0E089E080935700B8
:10025000E491E67081E0E63009F080E00895CF9304
:10026000DF93C82F0E942301882381F0DFB781E04C
:100270008093E103F8940E949B0088E180936000E2
:10028000C0936000C1110E949B00DFBFDF91CF913E
:100290000895FC0190A5E92FE770F0E0E656FD4FC8
:1002A0008081292F287119F0813108F481E195FDB1
:1002B00081E208951F93CF93DF93DC01962F927014
:1002C000862F817060FF1FC0992331F080917403E5
:1002D0008C931092D20215C0ED011091D20285EEDE
:1002E00093E00E944901181710F080E03CC081E0C3
:1002F000810F8093D202E12FF0E0E85EFC4F808115
:10030000888381E030C09923C1F09C919093D302FF
:100310001092D202292F207E203651F4909174033E
:10032000923018F39C919F719093B60393E019C09B
:100330009E3F39F71092740316C09091D3029F3FED
:1003400001F7E091D202E93280F691E09E0F90939E
:10035000D2022C91F0E0EB51FC4F2083993289F6C8
:1003600091E090937403DF91CF911F910895FC0168
:1003700080A585FD02C081E1089581E20895FC0118
:1003800040A5942F9770892F90E0959587950196B9
:10039000242F217030E0820F931F880F880F08955B
:1003A000A4E0B0E0E6EDF1E00C940F217C010E94A6
:1003B000490190E0F70110A517FD03C0AFE0B0E0E0
:1003C00002C0A4E1B0E0F70137A123E1329FF001C0
:1003D0001124E25AFE4F80809180A280B380A80F42
:1003E000B91F20E43FE14DE750E00E949020A501B5
:1003F00094010E94C820812F887149F469017A0113
:1004000080EDC80E87E0D81EE11CF11C39C0C70181
:1004100029833A834B835C830E94B701E82FF0E085
:1004200029813A814B815C8117FD03C0AFE0B0E0C8
:1004300002C0A4E1B0E069017A0198EBC90E9BE02B
:10044000D91EE11CF11C26E4829FB00111248B010E
:10045000222717FD2095322FC00ED11EE21EF31E5B
:10046000AE0FBF1F20E43FE14DE750E00E94902017
:10047000A50194010E94C820C20ED31EE41EF51EE1
:10048000C701B60169517C4F8F4F9F4F28EE33E073
:1004900040E050E00E94C820A8EEB3E00E94852012
:1004A0002496ECE00C942B210F931F93CF93DF93B2
:1004B000FB018A01482F4695D801149690E02C91B3
:1004C000237030E0322F2227E8015881250F311D9B
:1004D000318320835C915C709D0123503109E901D7
:1004E000288130E0D0E45D9F200D311D112433833D
:1004F00022835C9150739D0122503109E9012881CA
:1005000030E0D0E15D9F200D311D1124358324831F
:100510005C91507C9D0121503109E901288130E036
:10052000D4E05D9F200D311D1124378326830B5F9E
:100530001F4F38969F5F1596491708F680FF41C0F8
:10054000D8014C9142954695469543702DE431E093
:10055000429FC001439F900D11240C96918380838C
:100560008C9190E044E0969587954A95E1F78370E9
:100570009927829FA001839F500D929F500D1124B7
:10058000CA010C96938382838C9190E0969587950F
:100590009695879583709927829FA001839F500D20
:1005A000929F500D1124CA010C96958384834C911F
:1005B0004370429FC001439F900D11240C96978376
:1005C0008683DF91CF911F910F910895803223E0B0
:1005D000920710F1883E23E0920748F48752934037
:1005E00061E170E00E94B420CB0101960895813D45
:1005F00027E0920718F48C5D93400895803928E035
:10060000920768F4865C974061E170E00E94B42034
:10061000CB018C509C4F089581E090E008958FEFBE
:1006200093E008958C30910550F441E1489F90018A
:10063000499F300D1124C901805E9C4F0895853F6C
:1006400023E0920718F484529C4F0895811524E00A
:10065000920750F441E1489F9001499F300D1124C9
:10066000C90188569B43089580E998E008959C014C
:100670003695279525753575821B930B9C01237341
:100680003373969587959695879583739373820FA9
:10069000931F9C0164E0369527956A95E1F7820FD8
:1006A000931F8F709F7041E051E0849F9001859F60
:1006B000300D949F300D1124832F08952D98882399
:1006C00019F000002B9A02C000002B9800002D9A10
:1006D000000008952D9A000083B12D9800008295A6
:1006E00081700895CF93DF93D82F5C9A2D985C98F2
:1006F000C8E08D2F80780E945E03DD0FC150C9F7DE
:100700002D98DF91CF9108958F770E9472030895FD
:10071000CF93DF93D82FC8E08D2F80780E945E039F
:10072000DD0FC150C9F72D98DF91CF910895CF9378
:10073000DF932D98D8E080E0C82FCC0F0E946A0389
:100740008C0FD150C9F7DF91CF9108950E94840397
:100750000E9497035C9A0895A1E0B0E0E2EBF3E019
:100760000C941921806869830E9472036981862F25
:100770000E9488035C9A2196E2E00C943521CF9385
:10078000C091EE03C827E82FF0E0EB51FC4F6785DE
:1007900089E70E94AC036C2F8DE30E94AC036C2FA1
:1007A00082E40E94AC03CF91089586E20E94A603E2
:1007B0000895CF938BE20E94A603C82F8CE20E947B
:1007C000A603282F30E086E0369527958A95E1F735
:1007D00044E0C49FC0011124822B932BCF91089534
:1007E000CF93DF93EC016C818CE10E94AC036D81AF
:1007F0008DE10E94AC036E818EE10E94AC036F819B
:1008000080E20E94AC03688581E20E94AC036985A6
:1008100082E20E94AC036A8583E20E94AC036B858E
:1008200084E20E94AC036C8585E20E94AC036D8576
:100830008AE20E94AC036E858EE60E94AC036F854F
:100840008FE60E94AC03688980E70E94AC03698947
:1008500081E70E94AC036A8982E70E94AC03DF91C2
:10086000CF910895CF92DF92EF92FF92CF93DF93D3
:100870006B017C01C11488E3D8068CE9E8068CE1A1
:10088000F80648F5C701B60120E836E948E950E026
:100890000E94C820E901689760E879E687E69FEF43
:1008A0000E949820DC01CB018C0D9D1DAE1DBF1D4B
:1008B000BC01CD0132E0660F771F881F991F3A9562
:1008C000D1F721E732E040E050E00E94C820F22E4C
:1008D000E32E80E425C0C701B60120E03DE241E3FC
:1008E00051E00E94C820E901689760E073ED8EEC4A
:1008F0009EEF0E949820DC01CB018C0D9D1DAE1D4A
:10090000BF1DBC01CD01660F771F881F991F21E70E
:1009100032E040E050E00E94C820F22EE32E80E654
:100920006C2F6F71680F85E70E94AC036E2D86E710
:100930000E94AC036F2D87E70E94AC03DF91CF913B
:10094000FF90EF90DF90CF9008958F929F92AF929B
:10095000BF92CF92DF92EF92FF92CF93DF93D82F87
:1009600083E00E94A6038093E00384E00E94A60334
:100970008093DF0360E086E00E94AC0361E087E0E3
:100980000E94AC036FE789E00E94AC0365E08AE057
:100990000E94AC0362E18BE00E94AC0365E18CE055
:1009A0000E94AC036DEF8DE00E94AC0360E08EE02E
:1009B0000E94AC03DD2319F08BE491E008C0809124
:1009C0000C0423E1829FC0011124825A9E4F0E9491
:1009D000F0036CE880E30E94AC036FE082E30E94C6
:1009E000AC0362E483E30E94AC0380910D0487FDB5
:1009F00002C06AE001C064E184E30E94AC036AE2E1
:100A000085E30E94AC036DE286E30E94AC0364EDD3
:100A100087E30E94AC0360E088E30E94AC0360E0DF
:100A200089E30E94AC03D11109C0C090EE03D090BD
:100A3000EF03E090F003F090F10307C025EAC22E27
:100A400021ECD22EED2C2EEDF22ECAE38F2C992420
:100A5000AA24BB24682D8C2F0E94AC03682D85E04E
:100A60008C0F0E94AC03FE2CED2CDC2CCC24CF5F31
:100A7000CE3361F76FEF83E40E94AC036FEF84E441
:100A80000E94AC036FEF85E40E94AC036FEF86E435
:100A90000E94AC03DD2311F066E002C06091F20316
:100AA0008DE60E94AC0360E089E70E94AC03609190
:100AB000F3038AE70E94AC0360E083E70E94AC0383
:100AC00060E084E70E94AC03D11109C06091EA03A1
:100AD0007091EB038091EC039091ED0304C060EC06
:100AE00072E98DEE99E10E943204DF91CF91FF907F
:100AF000EF90DF90CF90BF90AF909F908F90089530
:100B000061E087E00E94AC0364E28EE70E94AC03E0
:100B100063E088E00E94AC0360E088E00E94AC03E0
:100B200065E087E00E94AC0362E085E00E94AC03D0
:100B300083E00E94A6038093E00384E00E94A60362
:100B40008093DF03089583E00E94A6038093E0036F
:100B500084E00E94A6038093DF0361E087E00E94A7
:100B6000AC036AE070E080E090E00E942B1C0E94E1
:100B7000800500000895CF92DF92FF920F931F939C
:100B8000CF93DF931F92CDB7DEB7082F162F8EE3DA
:100B900099830E94AC03F02EC02E9981D92E8C2D02
:100BA0008F19811738F4F60161916F018FE70E9468
:100BB000AC03F5CF64E085E00E94AC0383E00E94C3
:100BC000A6038093E00384E00E94A6038093DF03E2
:100BD0000E94061C6093DB037093DC038093DD03AB
:100BE0009093DE0369E087E00E94AC0381E080938C
:100BF000E2030F90DF91CF911F910F91FF90DF9053
:100C0000CF9008950F931F930E94BB058091E2033C
:100C10008130A9F40E94061C0091DB031091DC03D3
:100C20002091DD033091DE03DC01CB01801B910BB1
:100C3000A20BB30B803A9648A140B10538F38091DE
:100C4000E203813031F46EEB71E086E394E00E94C0
:100C5000C81D1F910F9108950F931F938091E20378
:100C6000823021F41092E20381E022C08091E203FD
:100C70008130E9F40E94061C0091DB031091DC0333
:100C80002091DD033091DE03DC01CB01801B910B51
:100C9000A20BB30B813A9648A140B10540F061E048
:100CA00087E00E94AC031092E20382E001C080E082
:100CB0001F910F910895EF92FF920F931F93CF937F
:100CC000DF938B019C01442737FD4095542F60E250
:100CD00071EA87E090E00E94EA20E9011C161D06F7
:100CE00014F0C1E0D0E0D80120E231EA47E050E062
:100CF0000E9490209E01442737FD4095542F0E946A
:100D0000EA20790100E010E00E151F055CF42B9A33
:100D1000CE010E94511C2B98CE010E94511C0F5FE6
:100D20001F4FF2CFCDB7DEB7E6E00C943121CF9361
:100D3000DF935D9A60911E0470911F0480912004DE
:100D4000909121040E94320460E089E70E94AC0384
:100D500061E070E080E090E00E942B1C0E94D503CF
:100D6000C82F61E070E080E090E00E942B1C0E94A0
:100D7000D503D0E0C80FD11D61E070E080E090E0C5
:100D80000E942B1C0E94D503C80FD11D61E070E0AA
:100D900080E090E00E942B1C0E94D5035D989E018C
:100DA000280F311DC9019695879596958795DF91F6
:100DB000CF910895CF93C82F5D9A83E00E94A60338
:100DC0008093E00384E00E94A6038093DF0360E049
:100DD00086E00E94AC0361E087E00E94AC036FE70D
:100DE00089E00E94AC0365E08AE00E94AC0362E106
:100DF0008BE00E94AC0365E18CE00E94AC036DEFD8
:100E00008DE00E94AC0360E08EE00E94AC036CE2D7
:100E100080E70E94AC0360E080E30E94AC0360E0E6
:100E200089E70E94AC0365E08AE70E94AC0362E1B7
:100E300081E70E94AC0362E082E70E94AC0360E0BD
:100E400083E70E94AC0360E084E70E94AC036091FA
:100E50001E0470911F0480912004909121040E942F
:100E6000320467E08DE60E94AC036AE070E080E047
:100E700090E00E942B1C69E087E00E94AC036AE0CE
:100E800070E080E090E00E942B1CCC2369F0C5E16B
:100E9000C15009F459C061E070E088EB91E00E9414
:100EA0005B060E949B00F4CF61E070E088E891E06F
:100EB0000E945B060E949B0065E08DE60E94AC03E9
:100EC0006AE070E080E090E00E942B1C61E070E03E
:100ED00088EB91E00E945B060E949B0064E08DE637
:100EE0000E94AC036AE070E080E090E00E942B1C5E
:100EF00061E070E08DE591E00E945B060E949B003E
:100F000062E08DE60E94AC036AE070E080E090E071
:100F10000E942B1C61E070E08FEA90E00E945B066B
:100F20000E949B0060E08DE60E94AC036AE070E0E6
:100F300080E090E00E942B1C62E070E085E091E090
:100F40000E945B060E949B0061E087E00E94AC0368
:100F50005D98CF910895CF93DF93EC014AE050E084
:100F60006D2F70E086E394E00E948B1E6EE286E3B4
:100F700094E00E94AC1DBE0184E0769567958A9549
:100F8000E1F76F7077274AE050E086E394E00E9433
:100F90008B1EDF91CF910895D82FC0E0CD1781F03F
:100FA0005E9A64E670E080E090E00E942B1C5E9800
:100FB00064E670E080E090E00E942B1CCF5FEECFF3
:100FC0006CE271E080E090E00E942B1CE6CF0F9372
:100FD0001F93CF93DF938C01D62FC5E0C15051F002
:100FE000C8010E944F21D81741F06D2FC8010E94FF
:100FF0005721F4CF82E00E94CC07DF91CF911F915F
:101000000F910895A0E0B0E0E8E0F8E00C940B2127
:10101000482E562E00E010E0612C712CC12CD12CF2
:10102000E12CF12C442089F081E04816C1F092E0D7
:1010300049121FC078E4672E712CE0E2CE2ED12C2D
:10104000F7E7EF2EF3E0FF2E14C0612C712C5BE16B
:10105000C52ED12C6EE0E62E64E0F62E0AC02DE1FE
:10106000622E712C39E2C32ED12C45EEE42E43E0E2
:10107000F42E4301800E911E1092E4031092E303BC
:101080003401C62DC819D0E0C30101965C01CC150E
:10109000DD0590F4CE0DDF1D511005C0C3010E9487
:1010A0004F21888304C06881C3010E94E7078881BB
:1010B0000E94AD003501E5CFC301511018C0C30136
:1010C0000E944F21C82FC5010E944F212C2F30E0D4
:1010D000322F2227282B8091E3039091E40382177B
:1010E000930779F400E010E0552453949BCF350129
:1010F0006091E4030E94E7076091E303C5010E9449
:10110000E7071395013093E0190708F48BCF852D7D
:10111000CDB7DEB7E0E10C94272160E081E00E94CA
:101120000208882331F081E09091E503993309F0BA
:1011300080E0089561E081E00E940208089561E086
:1011400082E00E940208089560E082E00E940208A6
:10115000811108C0E7E7F3E01192119283E0E739CB
:10116000F807D1F70895A1E0B0E0E9EBF8E00C94BE
:10117000192189830E94F30092E090931C049FEF51
:1011800090931D049AE090932604109227041092E5
:10119000280410921E0410921F0410922004109232
:1011A00021042EE1209322049093230428EB3BE0BA
:1011B00030932504209324048981882371F061E011
:1011C00080E00E940208E7E7F3E01192119283E0C9
:1011D000E739F807D1F70E949F082196E2E00C94C6
:1011E000352160E080E00E940208811103C081E0A7
:1011F0000E94B3080895CF93C1E0811101C0C0E0FF
:101200006C2F82E10E94FB1C6C2F83E10E94FB1C6F
:101210001092D5031092D4038091B9008C6F809303
:10122000B90080E28093B80085E48093BC00CF9140
:10123000089585ED8093BC008091BC0084FDFCCFB7
:101240000895ECEBF0E0108285E480831092D403E3
:1012500008951F920F920FB60F9211242F933F9370
:101260004F935F936F937F938F939F93AF93BF93AE
:10127000EF93FF93CF93DF931F92CDB7DEB78091AB
:10128000B900887F803609F4C7C0A8F5883209F410
:1012900064C098F4803109F45DC038F4882309F4FF
:1012A000F3C0883009F456C0F1C0883109F455C044
:1012B000803209F0EBC082E0A7C0803409F477C027
:1012C00078F4803309F45FC0883309F0DFC084E02C
:1012D0008093D3038091D4038B7F8093D403D0C0B9
:1012E000803509F452C0883509F467C0883409F0A4
:1012F000CDC085E089C0883909F4C0C0A8F488371A
:1013000009F48AC038F4883609F486C0803709F4B5
:1013100083C0BCC0883809F4B1C0803909F47FC0EB
:10132000803809F0B3C07BC0803B09F493C038F427
:10133000803A09F48CC0883A09F48CC0A7C0803C7C
:1013400009F49EC0883C09F49BC0883B09F09EC00C
:1013500080E081C08091D80313C08091D5039FEFB6
:10136000980F9093D5038823D1F1E091D603F091A3
:10137000D703CF0101969093D7038093D603808142
:101380008093BB007DC083E03FC0E091D603F09125
:10139000D703CF0101969093D7038093D603809112
:1013A000BB0080838091D50381508093D5038091C9
:1013B000D503823008F064C061C0E091D603F0919B
:1013C000D703CF0101969093D7038093D6038091E2
:1013D000BB0080838091D50381508093D503809199
:1013E000D4038B7F8093D4038091D40380FF4CC0BF
:1013F0008091D4038E7F8093D4038091D403826044
:101400008093D40384EA3DC08093D3038091D403B6
:101410008B7F8093D40338C01092D50331C0E09104
:10142000D903F091DA03309749F18091BB008983A9
:101430008091D50391E0980F9093D503882311F004
:1014400060E001C062E0CE010196099515C00E94DE
:10145000190916C081E0E091D903F091DA033097C1
:1014600069F0811102C061E001C063E0CE01019624
:10147000099599819093BB00811102C085E801C054
:1014800085EC8093BC0002C00E9419090F90DF9187
:10149000CF91FF91EF91BF91AF919F918F917F91EC
:1014A0006F915F914F913F912F910F900FBE0F90D1
:1014B0001F9018958F929F92AF92BF92CF92DF921A
:1014C000EF92FF92CF93DF93EC010E94061C6B0119
:1014D0007C014E01A12CB12C8091D40382FF13C05A
:1014E0002097D1F30E94061CAB01BC014C195D0989
:1014F0006E097F0984169506A606B70668F70E944E
:10150000210981E004C08091D3031092D303DF91BD
:10151000CF91FF90EF90DF90CF90BF90AF909F90D2
:101520008F900895A2E0B0E0E8E9FAE00C9415216C
:10153000E82E8B01822F8470F82E22FD05C0809149
:101540000B0190910C0102C080E090E02A83498356
:101550000E945A0A2A814981811137C01092D3030F
:101560004093D5031093D7030093D6038E2D880F95
:101570008093D8038091D40321FD02C094E001C080
:1015800095E0892B8093D4038091D40381FF0BC015
:101590008091D4038D7F8093D4038091D80380936E
:1015A000BB0085EC01C085EE8093BC00822F81706A
:1015B00020FF0BC0F11005C080910B0190910C0130
:1015C00002C080E090E00E945A0A2296E6E00C9465
:1015D0003121A2E0B0E0EFEEFAE00C941521E82E04
:1015E0008B01822F8470F82E22FD05C080910B01A3
:1015F00090910C0102C080E090E02A8349830E9410
:101600005A0A2A814981811138C01092D30340932C
:10161000D5031093D7030093D6038E2D880F8160D6
:101620008093D8038091D40321FD02C094E001C0CF
:1016300095E0892B8093D4038091D40381FF0BC064
:101640008091D4038D7F8093D4038091D8038093BD
:10165000BB0085EC01C085EE8093BC00822F8170B9
:1016600020FF0BC0F11005C080910B0190910C017F
:1016700002C080E090E00E945A0A2296E6E00C94B4
:101680003121A0E0B0E0E7E4FBE00C9413210E94DC
:10169000061C0091CF031091D0032091D10330910B
:1016A000D2036B017C01C01AD10AE20AF30A970146
:1016B000860141E1C41647E2D406E104F10408F4CE
:1016C00044C02091CE0331E0320F3093CE0320FD91
:1016D00002C0C0E001C0C7E06093CF037093D003A5
:1016E0008093D1039093D20363E070E086E394E0AB
:1016F0000E94A50061E070E086E394E00E94A500EE
:10170000D7E0DC0F8C2F90E08C01000F111F035FDE
:101710001E4FF80160817181672F772763707727EB
:10172000880F991F880F991F682B792B86E394E007
:101730000E949D00F80160817181772786E394E023
:101740000E949D00CF5FCD13DDCFCDB7DEB7E8E0BF
:101750000C942F2125B190E0FC01EE0FFF1F8E0F9E
:101760009F1FFC01E25CFC4F8081822B85B998B100
:101770008181892B88B99BB18281892B8BB908958E
:1017800095B1EBE3F3E08081892385B998B181813C
:10179000892388B99BB1828189238BB908951F92CF
:1017A0000F920FB60F9211242F933F934F935F9395
:1017B0006F937F938F939F93AF93BF93CF93EF9349
:1017C000FF93C0919A0380910601C81708F03EC0AC
:1017D0008091390390913A0390938700809386001B
:1017E000EC2FF0E0EE0FFF1FE35FFE4F8081918151
:1017F0000E941203880F991F90933A038093390334
:101800008091390390913A032091070130910801AA
:10181000281B390B30930801209307018091240481
:1018200090912504880F991F2817390720F4909369
:1018300008018093070180919803811142C0809133
:101840001C0480FF41C0C830E0F53EC080913903E0
:1018500090913A03909387008093860080910701CE
:101860009091080190933A038093390380919803F3
:10187000882319F08FEF9FEF06C080913903909174
:101880003A0388559240909389008093880080E4C1
:101890009CE99093080180930701809184009091C6
:1018A00085008097D0F30E94C00B8091990381112D
:1018B00005C08091060181500E94AA0B10929A03E4
:1018C00027C08FEF9FEF06C08091390390913A03B4
:1018D000885592409093890080938800809184007D
:1018E000909185008097D0F30E94C00B809199035E
:1018F000811104C080919A03811106C080919A03DE
:101900008F5F80939A0304C081500E94AA0BF6CF88
:10191000FF91EF91CF91BF91AF919F918F917F9167
:101920006F915F914F913F912F910F900FBE0F904C
:101930001F90189524E0829FC00111248C309105DE
:1019400038F0853F23E0920728F084EF93E0089574
:101950008CE090E00895CF93DF93C0911D04C033D5
:1019600090F48C2F807339F0803141F480919B0387
:101970008295807F05C08091A00302C08091A10361
:10198000CF70D0E014C0CF33D0F4CF70D0E08091CE
:101990009B038295807F0E949A0CFE01EE0FFF1F31
:1019A000E35FFE4F9183808321968091A1030E9483
:1019B0009A0CCC0FDD1FC35FDE4F99838883DF91C4
:1019C000CF91089580919C0390919D039F770E94F1
:1019D000370380939B038F3029F48091A103869570
:1019E000805804C099E0899F802D11248093A00322
:1019F000F8940E94AB0C7894809111048132E1F448
:101A00008091A0039FEF980F9E3F78F08091B000E7
:101A10008F7D8093B00061E08091A003811101C0AF
:101A200060E083E00E94FB1C08958093B4008091E5
:101A3000B00080628093B00008951F93CF93DF932E
:101A4000C0E0D0E013E08C2FFE01E25FFB4FE181AC
:101A50009E2F907F9031F1F4EF70F0E0EE0FFF1FBA
:101A6000E35FFE4F20813181612F0E94A820E92F82
:101A7000F0E0EE0FFF1FEC56FD4F61E08081918199
:101A80008217930708F060E0FE01EE55FD4F80815C
:101A90000E94FB1C2196C830D105A9F6DF91CF9199
:101AA0001F9108950F931F93CF93DF9307E713E0E0
:101AB000C0E0D0E020911D04822F8F7090E0C81705
:101AC000D907E1F00196C817D90711F42033B0F413
:101AD000F801808191819F70892B71F0F894808149
:101AE00091819F700E94E602FE01EE0FFF1FE35FEF
:101AF000FE4F9183808378940E941D0D21960E5F86
:101B00001F4FC031D105B1F6DF91CF911F910F91D9
:101B100008950F931F93CF93DF9385EE93E00E9478
:101B2000BF018093060120911D04922F9F7098138E
:101B300004C081E0890F8093060120532F3070F498
:101B400020910601892F90E0422F50E04150510929
:101B50008417950719F42F5F2093060180910601E1
:101B6000813118F080E18093060180E090E0FC0173
:101B7000E25CFC4F1082118212820396883191053B
:101B8000B1F77FEF6FEFAFE0B4E080E090E05FEFA0
:101B9000ED91E031E8F4F0E0EC01C655DD4F48810D
:101BA0009F01220F331FE20FF31FE25CFC4F2081E5
:101BB000242B208339812181232B21832A81C281F7
:101BC000C22BC28340957423309563232095522302
:101BD000039688319105E1F670933B0360933C03D3
:101BE00050933D0302EA12E0C0E0D0E0FE01E25F64
:101BF000FB4F8181823230F08632B8F0863211F4A8
:101C000060E00FC0C630D10521F48091C1008F7E05
:101C100005C0C73029F48091C100877F8093C1003F
:101C200061E0F80180810E94BF1C21960F5F1F4F69
:101C3000C830D105D9F680910F04803231F461E0CB
:101C400089E00E94FB1C82E801C082E08093800052
:101C500081E08093990380939803809111048132ED
:101C600011F08732D9F461E083E00E94BF1C60E08C
:101C700083E00E94FB1C80911104813231F481E0E9
:101C80008093B0008093B10009C082E08093B000DF
:101C900085E08093B1008EE38093B3008AE1809366
:101CA00081008FEF9FEF909389008093880080EDF3
:101CB00097E0909387008093860080E49CE990935E
:101CC00008018093070190933A038093390310929F
:101CD0009A0380916F00816080936F0080911C0453
:101CE00083FF0DC080917703909178039F70892BBB
:101CF00031F00E94520D1092980310929903DF91D7
:101D0000CF911F910F910895CF93C82F8091140404
:101D10008B3221F46C2F8FE00E94FB1C8091110408
:101D2000873249F48091B000CC2311F0806101C06A
:101D30008F7E8093B000CF910895A4E2B0E0E3EAF3
:101D4000FEE00C940B216B017C010E94FA1B2B011D
:101D50003C0181E00E94A50483E08093E2030E949D
:101D6000A3056AEC71E086E394E00E94C81D5BE184
:101D7000952E8EE094E01BE1180F85EE93E009E2CA
:101D8000080FC114D104E104F10479F00E94FA1B98
:101D9000DC01CB0184199509A609B7098C159D05AD
:101DA000AE05BF0510F080E0DCC08091E203843016
:101DB00041F768ED71E086E394E00E94C81D8FE76B
:101DC0000E9484030E9497038CA3823601F545EE9E
:101DD000A42E43E0B42E0E949703D5018D935D019C
:101DE0000A13F9CF8091E503893309F0B4C061EE9D
:101DF00071E086E394E00E94C81D82E48CA361E058
:101E0000CE0184960E9402065D9A81E0AAC08037C6
:101E100041F0893619F581E00E94B30889E489838D
:101E200005C080E58983C12CD12C76019091E10316
:101E300080911C04992311F0806801C08F778093F2
:101E40001C04EEE0F4E0DE011296892D01900D9263
:101E50008A95E1F76CE1CE0101967BC08437E1F40D
:101E600084E5898383E08A8380E98B8388E08C839F
:101E70008FE08D838EE1EDE2F1E0DE0116960190B8
:101E80000D928A95E1F763E2CE0101960E94020667
:101E9000C12CD12C76015FC0853789F43EE0A32E9A
:101EA00034E0B32E0E949703F50181935F011E1366
:101EB000F9CF61E080E00E94020885E546C08636E1
:101EC000C1F486E48983E7E7F3E0AE014D5F5F4F3D
:101ED000208131813296CA010197DC013C93DA01FD
:101EE0002C934E5F5F4FB3E0E739FB0789F761E260
:101EF000B2CF8736E9F427E7A22E23E0B22E0E9464
:101F00009703882E0E949703282D30E0322F222736
:101F1000280F311DF501219331935F01F7E9AF16C9
:101F2000F3E0BF0661F787E48CA30E949F080EC010
:101F3000873489F4E7E7F3E01192119283E0E739FF
:101F4000F807D1F70E949F0887E48CA361E0CE01D7
:101F500084960E94020683E08093E2030E9480053B
:101F600010CFA496E0E10C9427211F93CF93DF9329
:101F7000C82FD62F61E00E94BF1C61E08C2F0E9409
:101F8000FB1C61E08D2F0E94FB1C8AE090E00E9408
:101F9000511C8D2F0E942B1D892B71F060E08C2F1E
:101FA0000E94FB1C8AE090E00E94511C8D2F0E9431
:101FB0002B1D11E0892B09F010E060E08C2F0E94AE
:101FC000BF1C60E08C2F0E94FB1C60E08D2F0E94E4
:101FD000FB1C812FDF91CF911F91089580E48093A6
:101FE000BA001092BD008AE591E09093DA038093E5
:101FF000D9031092740315E004E082E0F82E80917A
:102000007403813039F480E00E94A504F0927403D7
:102010005E98F5CFC0917403C33061F45D988091F0
:10202000B6030E94BF03C093E2030E9480050093A1
:102030007403E5CF80917403843009F78091E20343
:102040008430E9F68FE70E948403C8E1D3E085EE8F
:1020500093E00E94490190E09E01285133402817E7
:10206000390724F40E9497038993F1CF10937403E6
:102070005D9AC5CFAAE2B0E0E0E4F0E10C9418214B
:102080001FEF198389E2E5EEF3E0DE01129601907D
:102090000D928A95E1F721E04AE2BE016F5F7F4F22
:1020A00080E20E94920A81110EC021E041E0BE014F
:1020B0006F5F7F4F80E20E94E90A811104C082E0D5
:1020C0008093740302C01093740380917403823070
:1020D00051F00E94FA1B6093700370937103809318
:1020E000720390937303AA96E3E00C943421A1E069
:1020F000B0E0EDE7F0E10C94192180917403823097
:10210000D9F48091B603805A898321E041E0BE0171
:102110006F5F7F4F80E20E94920A882369F08FEF01
:10212000809374030E94FA1B609370037093710391
:1021300080937203909373032196E2E00C9435210F
:10214000A1E0B0E0E6EAF0E10C941921809174037B
:102150008230D1F421E041E0BE016F5F7F4F80E229
:102160000E94E90A882371F08FEF809374030E9424
:10217000FA1B6093700370937103809372039093C2
:10218000730302C0898101C08FEF2196E2E00C94B5
:102190003521A3E3B0E0EFECF0E10C940921CE018E
:1021A00001967C0180E1D7011D928A95E9F76CEEDA
:1021B00071E086E394E00E94C81D0E94A3051D8E75
:1021C0001E8E1F8E18A2212C312C10E0412C512C78
:1021D000320120E431EE4DE958E100E5B3ECB9A756
:1021E0001AA61BA6E4EFEDA3F1E0FEA31FA218A61A
:1021F00080EC8CA791ED9DA7A8E9AEA7BBE1BFA796
:10220000E0E4E9A3F1EEFAA38DE98BA398E19CA3A6
:10221000298F3A8F4B8F5C8FC02ED9A4EAA4FBA4E0
:102220009DA19D8BAEA1AE8BBFA1BF8BE8A5E88F12
:10223000FCA5F98B8DA58A8B9EA59B8BAFA5AC8B3E
:1022400089A09AA0ABA0BCA086E394E00E94921E55
:10225000892B09F4E4C086E394E00E94BE1E9C0131
:1022600033272C32310509F442C0ACF42332310556
:1022700009F0ACC019821A821B821C821D821E8248
:102280001F82188619861A861B861C861D861E8646
:102290001F86188A99C02434310529F02335310569
:1022A00009F4B5C093C064E486E394E00E94AC1DD9
:1022B0002AE030E040E451EE6DE978E186E394E015
:1022C0000E94251E6CE286E394E00E94AC1D2AE089
:1022D00030E040EC51ED68E97BE186E394E00E9458
:1022E000251E6CE286E394E00E94DA1DADCF1F5FED
:1022F000143009F0A9CF29813A814B815C81A8EE85
:10230000B3E00E9485204B015C012D813E814F810D
:1023100058850E948520698B7A8B8B8B9C8BC98416
:10232000DA84EB84FC84CD8ADE8AEF8AF88E2D85F0
:102330003E854F8558890E9485206B017C0180E293
:10234000C8168EE4D806E104F10410F462E339C043
:1023500090E3C91695E7D906E104F10410F462E2AE
:1023600030C0A0E4CA16ACE9DA06E104F10410F4C6
:1023700066E227C0B0E5CB16B3ECDB06E104F1045E
:1023800010F462E11EC0E0E6CE16EAEEDE06E104DD
:10239000F10410F465E115C0F0E7CF16F1E1DF06B6
:1023A000F1E0EF06F10410F461E00BC080EAC8161A
:1023B00086E8D80681E0E806F10410F463E001C085
:1023C00065E08CE10E94AC0310E03ECF00ED080F09
:1023D0000A3008F039CFE1E0F0E0EC0FFD1F94E0A7
:1023E000199FE00DF11D112420813181428153811B
:1023F000AAE0B0E00E948520DC01CB01800F911D96
:10240000A11DB11D80839183A283B3831DCF898ECB
:102410009A8EAB8EBC8E412C512C320115CF298D5A
:102420003A8D4B8D5C8D0C2DD9A6EAA6FBA6AD8905
:10243000ADA3BE89BEA3EF89EFA3F88DF8A7898964
:102440008CA79A899DA7AB89AEA7BC89BFA789A293
:102450009AA2ABA2BCA24114510461047104C9F454
:10246000CA01B90128AB39AB4AAB5BAB0E9432045D
:1024700061E070E080E090E00E942B1C1D8E1E8EBB
:102480001F8E18A2212C33243A945BA94AA939A99A
:1024900028A98D899E89AF89B88D481659066A0684
:1024A0007B0610F528AB39AB4AAB5BAB0E94D5037A
:1024B000CD8CDE8CEF8CF8A0C80ED11CE11CF11C79
:1024C000CD8EDE8EEF8EF8A228A939A94AA95BA984
:1024D000281608F4282E831508F4382E8FEF481A92
:1024E000580A680A780A5AC0698D7A8D8B8D9C8D3E
:1024F00028EE33E040E050E00E94C820BA01A90174
:102500002AE030E086E394E00E94741E6CE286E3E9
:1025100094E00E94AC1D4AE050E0622D86E394E016
:102520000E94831E6CE286E394E00E94AC1D6D8DD8
:102530007E8D8F8D98A1A30192010E94C820BA01BF
:10254000A9012AE030E086E394E00E94741E6CE268
:1025500086E394E00E94AC1D4AE050E0632D86E3E0
:1025600094E00E94831E6CE286E394E00E94DA1DF0
:10257000298D3A8D4B8D5C8D2C0D3D1D4E1D5F1DA3
:10258000C988DA88EB88FC88C216D306E406F5060B
:1025900010F4A5019401412C512C320188EE8816CB
:1025A00083E09806A104B10409F032CEE396E2E19B
:1025B0000C942521A1E0B0E0E0EEF2E10C941921A9
:1025C00080E00E942F0161E085E00E94BF1C61E075
:1025D00086E00E94BF1C0E94060160E080E00E942D
:1025E000BF1C61E081E00E94BF1C40E052EC61E052
:1025F00070E086E394E00E94AA1F0E94F1080E9406
:10260000A40869EF71E086E394E00E94A91D80E9C7
:1026100093E00E94AB0760E172E086E394E00E94E1
:10262000A91D4AE050E065E070E086E394E00E9476
:102630005C1E0E941B0178945E9A63E183E00E9415
:10264000B50F882329F05E985D980E94C910FBCFD2
:1026500062E189E00E94B50F811104C00E948D08DB
:10266000811119C063E572E086E394E00E94A91D20
:1026700060E070E0CB010E949D0E882349F00E942B
:102680009A0868E172E086E394E00E94C81D5D9AB2
:102690000E94890D10C00E94890D80911004823221
:1026A00009F0CAC080911204833209F0C5C080913C
:1026B0001C0481FDC7C080911004823231F58091E5
:1026C0001204833211F581E00E94FB0880911C0402
:1026D00082FF08C063E372E086E394E00E94C81DB5
:1026E0000E94EE0F64E170E080E090E00E942B1CFD
:1026F00021E041E0BE016F5F7F4F80E20E94E90A66
:10270000811103C081E0809374036EE372E086E37D
:1027100094E00E94A91D8FE00E942F0180E00E949A
:10272000A5041092B60380E00E94BF0380E08831C8
:1027300071F48093D40283E08093E2030E94A305A6
:1027400080917403882371F00E943A100BC021E03D
:10275000280FE82FF0E0EB51FC4F9785992349F3C0
:10276000822FE5CF80911604982F9D7F983229F40F
:1027700040E052EC61E070E027C0893271F440EA39
:1027800056E861E070E086E394E00E94AA1F809121
:10279000C20080628093C2001BC080910D048871CA
:1027A000803129F440E855E260E070E00DC04091CE
:1027B000E6035091E7036091E8037091E9034A3022
:1027C00051056105710570F386E394E00E94AA1F2C
:1027D00086E394E00E94921E892B29F086E394E020
:1027E0000E94BE1EF5CF80911504843229F080919D
:1027F000C1008F7E8093C10080911604853241F024
:102800008852833028F08091C100877F8093C10077
:102810001092D6021092D502109276030E94061CE6
:102820006093B2037093B3038093B4039093B503A2
:102830002196E2E00C94352180911C048B7F8093DB
:102840001C0435CF82FD37CF64EF71E080E090E06B
:102850000E949D0E882309F42ECF0E949A0868E1F9
:1028600072E086E394E00E94C81D0E94890D5D9A83
:1028700022CFCF93DF9386E394E00E94921E892BB0
:10288000F1F0C091D502D0E09E012F5F3F4F2F7134
:1028900033278091D60290E02817390781F086E32C
:1028A00094E00E94BE1EC952DD4F88838091D502FC
:1028B00090E001968F7199278093D502DCCFDF914C
:1028C000CF910895A0E0B0E0E8E6F4E10C94132184
:1028D000D82FC62F0E94061C0091CF031091D00361
:1028E0002091D1033091D2036B017C01C01AD10A2F
:1028F000E20AF30A9701860141E1C41647E2D406D1
:10290000E104F10408F4D4C16093CF037093D003C1
:102910008093D1039093D20380910D0190910E0189
:10292000880F991F8093B70397708091B803887FB1
:10293000892B8093B80320910F0130911001220F51
:10294000331F922F990F990F990F8770892B8093BE
:10295000B8032295269527708091B903807C932F28
:102960009770990F990F990F822B892B8093B90338
:102970002091110130911201220F331F922F929555
:10298000990F990F907C8F73892B8093B903832FB4
:102990008295880F880F807C922F96959695892B2B
:1029A0008093BA0332FB992790F98091BB038E7F05
:1029B000892B8093BB032091130130911401220FC6
:1029C000331F922F990F8170892B8093BB03221F95
:1029D0002227221F8091BC03807F932F9770990F2D
:1029E000822B892B8093BC03209115013091160115
:1029F000220F331F922F9295907F8F70892B809397
:102A0000BC0322952F708091BD038078932F97701F
:102A10009295907F822B892B8093BD032091170183
:102A200030911801220F331F8F778093BD03832FBE
:102A3000879588278795922F9695892B8093BE033B
:102A4000832F8695982F93708091BF038C7F892B5D
:102A50008093BF032091190130911A01220F331F77
:102A6000922F990F990F8370892B8093BF03229522
:102A70002695269523708091C003807E932F9770B2
:102A8000990F990F822B892B8093C00320911B01F2
:102A900030911C01220F331F922F9295990F907E37
:102AA0008F71892B8093C003832F8295880F807E3E
:102AB000269526952695282B2093C10380911D01EC
:102AC00090911E01880F991F8093C2039770809187
:102AD000C303887F892B8093C30320911F0130910A
:102AE0002001220F331F922F990F990F990F877092
:102AF000892B8093C303822F82958695877090914E
:102B0000C403907C232F2770220F220F220F982BB3
:102B1000922B9093C4032091210130912201220F26
:102B2000331F822F8295880F880F807C9F73982B8C
:102B30009093C403832F8295880F880F807C922FF7
:102B400096959695892B8093C50332FB992790F92A
:102B50008091C6038E7F892B8093C6032091230129
:102B600030912401220F331F922F990F8170892BEE
:102B70008093C603822F881F8827881F9091C703E0
:102B8000907F232F2770220F982B922B9093C703AF
:102B90002091250130912601220F331F822F82952B
:102BA000807F9F70982B9093C703822F82958F70A0
:102BB0009091C8039078232F27702295207F982B1F
:102BC000922B9093C8032091270130912801220F66
:102BD000331F9F779093C803832F87958827879506
:102BE000922F9695892B8093C903932F9695292F21
:102BF00023709091CA039C7F922B9093CA032091DB
:102C0000290130912A01220F331F822F880F880F4C
:102C10009370982B9093CA03822F82958695869500
:102C200083709091CB03907E232F2770220F220F69
:102C3000982B922B9093CB0320912B0130912C0158
:102C4000220F331F822F8295880F807E9F71982BD1
:102C50009093CB03832F8295880F807E26952695AF
:102C60002695282B2093CC03D11102C080E001C00F
:102C700088E0C11102C090E001C094E0892B8093EC
:102C8000CD036FE070E086E394E00E94A500C7EBFF
:102C9000D3E01C2F195E699186E394E00E94E91E3F
:102CA0001C13F9CF60E070E086E394E00E94A50079
:102CB000CDB7DEB7E8E00C942F21CF93C82F682F53
:102CC00086E394E00E94E91E8C2F0E94AD00CF9114
:102CD0000895A0E0B0E0EFE6F6E10C941321C82FD0
:102CE0000E94061C0091CF031091D0032091D103C4
:102CF0003091D2036B017C01C01AD10AE20AF30AB7
:102D00009701860141E1C41647E2D406E104F104CB
:102D100008F444C06093CF037093D0038093D10331
:102D20009093D2031092E4031092E30388EA0E9486
:102D30005D16C11102C081E001C081E80E945D16EC
:102D400080E10E945D16C0E0D0E0FE01EE0FFF1FA3
:102D5000E35FFE4F808191810E9412038C0193E01A
:102D6000000F111F9A95E1F7812F0E945D16802FA9
:102D70000E945D162196C031D10539F76091E403B8
:102D800070E086E394E00E949D006091E3037091FF
:102D9000E403772786E394E00E949D00CDB7DEB779
:102DA000E8E00C942F21A6E2B0E0E9EDF6E10C9406
:102DB0000B210E949B008CE00E94A60381110BC096
:102DC0006CE872E086E394E00E94C81D80E00E94F7
:102DD000A5040E94A3050E9439140E94061C0E94AB
:102DE000A01091E0853009F090E01FEF8091E203A0
:102DF000843009F404C2911102C27BC00E94D9033D
:102E000090939F0380939E035D9AC092B203D092E9
:102E1000B303E092B403F092B5031092750380916E
:102E20009C0390919D03880F991F816090939D034F
:102E300080939C035E9880E00E94840E809118032A
:102E4000982F9E7309F02BC2F89480910D0449E1EC
:102E500053E06DE071E087700E9454020E94AB0C59
:102E600078949091180380916E0390FF12C28111A3
:102E700023C007E713E0E12CF12CF8018081918158
:102E800094FD0CC0F701EE0FFF1FE35FFE4F808142
:102E900091810E941203D8018D939C93BFEFEB1A8E
:102EA000FB0A0E5F1F4FE0E1EE16F10431F70E94BE
:102EB0009F0881E080936E0380917603811103C0A7
:102EC00081E08093760310929703109299031092F9
:102ED000980380910D04887109F006C20E941D0DAF
:102EE00083E08093E2030E94800581E080936F037A
:102EF0005D980E94061C4B015C010E94FA1B6B014D
:102F00007C0180917503823008F066C04090B20366
:102F10005090B3036090B4037090B5038091AE03FA
:102F20009091AF03A091B003B091B10384159505C2
:102F3000A605B70509F450C085EE93E00E94D001C4
:102F4000DC01CB018C5D9540A109B109950184019B
:102F5000041915092609370980179107A207B30735
:102F6000D8F54092AE035092AF036092B0037092D6
:102F7000B1030E94D5038093A2032091A303309153
:102F8000A403A901480F511DCA015093A403409303
:102F9000A3036091A5036F5F6093A5036930E0F020
:102FA00070E00E94B4207093A4036093A303809107
:102FB000A103F3E08F9F600D711D11247695679535
:102FC000769567956093A1030E94E20C1092A4038A
:102FD0001092A3031092A503809176030091D4026E
:102FE000882361F110917503101708F03DC24090DD
:102FF000B2035090B3036090B4037090B503A50181
:10300000940124193509460957092BA33CA34DA364
:103010005EA385EE93E00E94D001DC01CB018851D4
:103020009C4FAF4FBF4F2BA13CA14DA15EA182177A
:103030009307A407B50708F4DEC116C28091B20356
:103040009091B303A091B403B091B50375016401ED
:10305000C81AD90AEA0AFB0A85EE93E00E94D00159
:103060009B01AC01A02FB0E00E9485206C157D056E
:103070008E059F0558F48092B2039092B303A092FC
:10308000B403B092B50381E080936F0380919803FD
:10309000811116C080911604883219F40E94410BE8
:1030A0000FC0893239F460917503809197030E94B3
:1030B000621406C08A3221F4809197030E94691637
:1030C00080916F03882309F472C0E091B603EF5F2B
:1030D000E093B603E83131F0F0E0EB51FC4F878527
:1030E000811102C01092B60380911E0490911F04BA
:1030F000A0912004B0912104892B8A2B8B2B09F4F9
:103100004EC08091A6039091A703A091A803B0910F
:10311000A903892B8A2B8B2B09F441C00E949706A7
:10312000E82EF12C8091090190910A0196958795DE
:103130009695879544968E159F0580F40E94FA1BFC
:10314000DC01CB0188519C4FAF4FBF4F8093A6034A
:103150009093A703A093A803B093A903EE0CFF1CC0
:10316000EE0CFF1C2091090130910A01C901880F62
:10317000991F280F391F2E0D3F1D3695279536951F
:10318000279530930A01209309016091EA03709119
:10319000EB038091EC039091ED030E943204809147
:1031A000B6030E94BF030E94771010926F038091B4
:1031B00074038F3F09F056C20E94FA1B00917003FE
:1031C000109171032091720330917303DC01CB01E4
:1031D000801B910BA20BB30B893E9340A105B10557
:1031E00008F440C20E94FA1B60937003709371034D
:1031F00080937203909373030E943A1033C20E942B
:10320000061C6B017C018091E2038430B9F48FE7E6
:103210000E94840308E113E085EE93E00E944901D7
:1032200090E0980128513340281739070CF0E6CD7B
:103230000E949703D8018D938D01EECF85EE93E028
:103240000E94490141E0480F21E0BE016F5F7F4FBE
:1032500080E20E94E90A882371F0109374030E94AF
:10326000FA1B6093700370937103809372039093C1
:10327000730390E0BBCD85EE93E00E944901482F97
:1032800050E0BE016E5F7F4F88E193E00E944621CF
:10329000BCCD882309F410CE10926E030DCE85FFAD
:1032A0000BCE9091F702892787FF06CE9058909316
:1032B000F70280911604853209F0FECD10E0212F2F
:1032C00030E0809118038F7190E0821793070CF41F
:1032D000F3CD1F5FE12FF0E0E85EFC4F608186E3F5
:1032E00094E00E94E91EEBCF8091F70290911803C1
:1032F000982796FD70C0807C90E489278093F70220
:103300000091D6021091D502011721F185EE93E0CC
:103310000E94B701815090E0981748F00093D602C0
:10332000915E8091F702982B9093F70254C0011799
:10333000A9F39F5F202F30E0E92FF0E0E950FD4F27
:10334000D901A952BD4F4C9140832F5F3F4F022FAF
:103350000F71E2CF8091A2038093F8028091100454
:10336000863211F482E105C080911304863251F453
:103370008EE00E94541D959587959595879580932D
:10338000F90202C01092F90280911204863211F4FF
:1033900083E105C080911404863251F48FE00E94CD
:1033A000541D95958795959587958093FA0202C04F
:1033B0001092FA0280919E0390919F039093FB02DA
:1033C0008093FC0280919C0390919D039F770E94C3
:1033D00037038093FD0285EE93E00E94B701682FCA
:1033E00087EF92E00E94BB050E942C06811176CDEA
:1033F0000E943914F9CF80919C0390919D03880F0E
:10340000991F90939D0380939C0381E080936F03A9
:10341000111110C0C092AA03D092AB03E092AC038A
:10342000F092AD031092A6031092A7031092A80386
:103430001092A9031F5F1093750385EE93E00E941D
:10344000D001460E571E681E791E4092B20350925C
:10345000B3036092B4037092B5035E9A81E00E9458
:10346000840E0E94E20C03C0101709F4A8C08091DA
:103470007503882309F40ACE809126048823D9F0A5
:1034800090919703911117C04091AA035091AB03FB
:103490006091AC037091AD0346015701841A950AFF
:1034A000A60AB70A90E00E94C800681579058A0547
:1034B0009B0508F4B6C0809128048823D9F0909128
:1034C0009903911117C04091AA035091AB036091E9
:1034D000AC037091AD0346015701841A950AA60A00
:1034E000B70A90E00E94C800681579058A059B0517
:1034F00008F4B0C0809127048823D9F090919803F4
:10350000911117C04091AA035091AB036091AC0395
:103510007091AD0346015701841A950AA60AB70AAD
:1035200090E00E94C800681579058A059B0508F49B
:1035300095C080911E0490911F04A0912004B09129
:103540002104892B8A2B8B2B09F4A0CD8091A60313
:103550009091A703A091A803B091A9030097A1059A
:10356000B10509F493CDC81AD90AEA0AFB0AF7FC97
:103570008DCD80911C04829581700E94DA0680E0D6
:103580000E94A5040E9480050E94FA1B6B017C0129
:103590002091230430E0A8EEB3E00E947620DC0105
:1035A000CB018C0D9D1DAE1DBF1D81608093A603B8
:1035B0009093A703A093A803B093A90367CD80912C
:1035C000B2039091B303A091B403B091B503240169
:1035D0003501481A590A6A0A7B0A85EE93E00E946F
:1035E000D0019B01AC01A12FB0E00E9485206415A1
:1035F00075058605970508F03ACF10929D03109245
:103600009C0381E080936F031092A1030E94E20C5F
:103610008092B2039092B303A092B403B092B50328
:1036200026CF81E0809397030E94520D809122045F
:103630000E94ED00DC01CB018C0D9D1DAE1DBF1D58
:1036400081608093A6039093A703A093A803B093EF
:10365000A90331CF81E0809399034CCF81E080931F
:10366000980367CFA696E0E10C9427218230E8F416
:10367000E82FF0E0EE0FFF1FE75DFB4F71836083E3
:10368000813041F0809169008C7F482B4093690024
:10369000E89A089580916900440F551F440F551F03
:1036A000837F482B40936900E99A08951F920F92F7
:1036B0000FB60F9211242F933F934F935F936F9305
:1036C0007F938F939F93AF93BF93EF93FF938091DB
:1036D000290490912A04892B29F0E0912904F09182
:1036E0002A040995FF91EF91BF91AF919F918F911E
:1036F0007F916F915F914F913F912F910F900FBEEE
:103700000F901F9018951F920F920FB60F921124D1
:103710002F933F934F935F936F937F938F939F93D9
:10372000AF93BF93EF93FF9380912B0490912C0460
:10373000892B29F0E0912B04F0912C040995FF913D
:10374000EF91BF91AF919F918F917F916F915F9119
:103750004F913F912F910F900FBE0F901F90189592
:103760001F920F920FB60F9211242F933F938F93B6
:103770009F93AF93BF9380912E0490912F04A091BB
:103780003004B091310430912D0423E0230F2D3704
:1037900020F40196A11DB11D05C026E8230F029655
:1037A000A11DB11D20932D0480932E0490932F040E
:1037B000A0933004B093310480913204909133048B
:1037C000A0913404B09135040196A11DB11D8093E0
:1037D000320490933304A0933404B0933504BF9122
:1037E000AF919F918F913F912F910F900FBE0F90AE
:1037F0001F9018952FB7F89460912E0470912F04A4
:1038000080913004909131042FBF08953FB7F89410
:103810008091320490913304A0913404B091350426
:1038200026B5A89B05C02F3F19F00196A11DB11D1B
:103830003FBFBA2FA92F982F8827820F911DA11D56
:10384000B11DBC01CD0142E0660F771F881F991F93
:103850004A95D1F70895CF92DF92EF92FF92CF93DE
:10386000DF936B017C010E94061CEB01C114D104A3
:10387000E104F10479F00E94061C6C1B7D0B683E8C
:103880007340A0F381E0C81AD108E108F108C851DB
:10389000DC4FECCFDF91CF91FF90EF90DF90CF9096
:1038A0000895019739F0880F991F880F991F029783
:1038B0000197F1F70895789484B5826084BD84B54A
:1038C000816084BD85B5826085BD85B5816085BD1B
:1038D000EEE6F0E0808181608083E1E8F0E0108234
:1038E000808182608083808181608083E0E8F0E075
:1038F000808181608083E1EBF0E08081846080835F
:10390000E0EBF0E0808181608083EAE7F0E0808195
:1039100084608083808182608083808181608083F5
:103920008081806880831092C1000895833081F087
:1039300028F4813099F08230A1F008958630A9F002
:103940008730B9F08430D1F4809180008F7D03C03E
:10395000809180008F7780938000089584B58F7761
:1039600002C084B58F7D84BD08958091B0008F77AB
:1039700003C08091B0008F7D8093B0000895CF93F5
:10398000DF9390E0FC01E458FF4F2491FC01E057E5
:10399000FF4F8491882361F190E0880F991FFC010B
:1039A000E854FF4FC591D491FC01E255FF4FA5911A
:1039B000B491611109C09FB7F89488812095822342
:1039C0008883EC912E230BC0623061F49FB7F8948A
:1039D0003881822F809583238883EC912E2B2C9322
:1039E0009FBF06C08FB7F894E8812E2B28838FBF26
:1039F000DF91CF9108951F93CF93DF93282F30E06D
:103A0000F901E859FF4F8491F901E458FF4FD4912F
:103A1000F901E057FF4FC491CC23C9F0162F811153
:103A20000E94961CEC2FF0E0EE0FFF1FE255FF4FB7
:103A3000A591B4918FB7F894111105C09C91ED2F09
:103A4000E095E92302C0EC91ED2BEC938FBFDF9161
:103A5000CF911F910895CF93DF93282F30E0F90184
:103A6000E859FF4F8491F901E458FF4FD491F901CF
:103A7000E057FF4FC491CC2391F081110E94961C16
:103A8000EC2FF0E0EE0FFF1FEC55FF4FA591B49126
:103A9000EC91ED2381E090E021F480E002C080E031
:103AA00090E0DF91CF9108958E3008F08E508770AE
:103AB0002091BD0190E4299F90011124822B8093D5
:103AC0007C0080917A00806480937A0080917A00F3
:103AD00086FDFCCF809178002091790090E0922BB8
:103AE0000895A0E0B0E0E7E7FDE10C9413216C013C
:103AF000EB017B01E40EF51E00E010E0CE15DF05C2
:103B000061F06991D601ED91FC910190F081E02D79
:103B1000C6010995080F191FF1CFC801CDB7DEB74F
:103B2000E8E00C942F216115710581F0FB010190F3
:103B30000020E9F73197AF01461B570BDC01ED91EF
:103B4000FC910280F381E02D0995089580E090E0DA
:103B500008950E94931D0895DC01ED91FC91019060
:103B6000F081E02D099508950F931F93CF93DF9374
:103B7000EC016DE00E94AC1D8C016AE0CE010E9458
:103B8000AC1D800F911FDF91CF911F910F91089570
:103B90000F931F93CF93DF93EC010E94931D8C0131
:103BA000CE010E94B41D800F911FDF91CF911F9114
:103BB0000F9108950F931F93CF93DF93EC010E9411
:103BC000AC1D8C01CE010E94B41D800F911FDF91AE
:103BD000CF911F910F910895A1E2B0E0E2EFFDE1D6
:103BE0000C940F216C01142FE52FCB01022F19A289
:103BF000223008F40AE07E0121E2E20EF11C802E60
:103C0000912CA12CB12C612F7E2FA50194010E9433
:103C1000C820029F1019112481E0E81AF1081A3017
:103C200010F4105D01C0195CF7011083122FE32F0F
:103C3000CA01232B242B252B31F7B701C6010E9483
:103C4000931DA196ECE00C942B21A0E0B0E0EBE2F8
:103C5000FEE10C9413218C016A017B0121153105D1
:103C600049F4DC01ED91FC910190F081E02D642F8D
:103C700009951DC02A303105A9F477FF12C06DE205
:103C80000E94AC1DEC0144275527BA014C195D096F
:103C90006E097F092AE0C8010E94EC1D8C0F9D1F50
:103CA00006C02AE0B701A601C8010E94EC1DCDB7ED
:103CB000DEB7E8E00C942F210F931F93CF93DF938F
:103CC000EC019A01AB01662757FD6095762F0E94A3
:103CD000251E8C01CE010E94B41D800F911FDF9123
:103CE000CF911F910F9108952115310549F4DC0101
:103CF000ED91FC910190F081E02D642F09950895DC
:103D00000E94EC1D08959A01462F50E060E070E09B
:103D10000E94741E08959A01AB0160E070E00E9459
:103D2000741E0895FC0124853585F901E05CFF4F80
:103D300080819181329620813181821B930B8F7318
:103D400099270895DC011C96ED91FC911D97DF01E8
:103D5000A05CBF4F2D913C91119712968D919C9133
:103D600011972817390739F08D919C91E80FF91FA9
:103D7000808190E008958FEF9FEF0895FC01A48566
:103D8000B585FD01E05CFF4F208131813296808155
:103D900091812817390779F080819181A80FB91F87
:103DA0008C91208131812F5F3F4F2F7333273183D7
:103DB000208390E008958FEF9FEF0895FC0181A18B
:103DC000882329F0A489B5898C9186FFFBCF11A2A5
:103DD00008950F931F93CF93DF93FC01A685B785BA
:103DE0008D01005C1F4FE8018881998101968F73D6
:103DF0009927AD014E5B5F4FEA0128813981821717
:103E00009307D1F3E80128813981A20FB31F6C9386
:103E1000A685B785A05CBF4F11969C938E93A6890B
:103E2000B7892C9181E090E0078C02C0880F991F20
:103E30000A94E2F7822B8C9381E081A30488F589B0
:103E4000E02D80818064808381E090E0DF91CF91DC
:103E50001F910F91089508951F920F920FB60F9220
:103E600011242F934F935F938F939F93EF93FF931F
:103E70008091C00082FD1CC02091C6008091DC04AE
:103E80009091DD0401968F7399274091DE04509143
:103E9000DF048417950771F0E091DC04F091DD04F4
:103EA000E456FB4F20839093DD048093DC0402C032
:103EB0008091C600FF91EF919F918F915F914F91FB
:103EC0002F910F900FBE0F901F90189586E394E0EE
:103ED0000E94921E892B11F00E942B1F08951F92A1
:103EE0000F920FB60F9211242F933F938F939F93AE
:103EF000EF93FF93209198043091990480919A0454
:103F000090919B042817390731F48091C1008F7D6F
:103F10008093C10014C0E0919A04F0919B04E85A88
:103F2000FB4F208180919A0490919B0401968F739E
:103F3000992790939B0480939A042093C600FF9145
:103F4000EF919F918F913F912F910F900FBE0F9006
:103F50001F901895A0E0B0E0E0EBFFE10C94132176
:103F6000EC016A017B01411581EE5807610571057D
:103F700011F1EC89FD8981E090E008A002C0880F72
:103F8000991F0A94E2F7808360E079E08DE390E086
:103F9000A70196010E94C82089019A0101501109C8
:103FA000210931093695279517950795980101152F
:103FB00080E11807A8F0EC89FD89108260E874E8B8
:103FC0008EE190E0A70196010E94C820DA01C901A4
:103FD0000197A109B109B695A795979587959C0179
:103FE000E889F9893083EA89FB89208319A2EE895F
:103FF000FF89408181E090E09C010C8C02C0220F7F
:10400000331F0A94E2F7242B2083EE89FF89408135
:104010009C010D8C02C0220F331F0A94E2F7242B5F
:104020002083EE89FF8940819C010E8C02C0220F03
:10403000331F0A94E2F7242B2083EE89FF89208125
:104040000F8C02C0880F991F0A94E2F78095822393
:104050008083CDB7DEB7E8E00C942F21E6E3F4E0EF
:104060001382128288EE93E0A0E0B0E0848395830F
:10407000A683B78386EC92E0918380838CE994E0F9
:104080009587848788E594E09787868785EC90E01C
:10409000918B808B84EC90E0938B828B80EC90E012
:1040A000958B848B81EC90E0978B868B82EC90E0F3
:1040B000918F808F86EC90E0938F828F84E0848F45
:1040C00083E0858F87E0868F85E0878F81E080A3FE
:1040D00008950E945B1C0E94DA12C6E6DFE10E948E
:1040E000D3162097E1F30E94661FF9CFA29FB0017B
:1040F000B39FC001A39F700D811D1124911DB29F1C
:10410000700D811D1124911D08950E947620A59F98
:10411000900DB49F900DA49F800D911D11240895C2
:10412000B7FF0C9485200E948520821B930B089575
:10413000DB018F939F930E948520BF91AF91A29F37
:10414000800D911DA39F900DB29F900D1124089595
:10415000991B79E004C0991F961708F0961B881FD9
:104160007A95C9F780950895AA1BBB1B51E107C03A
:10417000AA1FBB1FA617B70710F0A61BB70B881FF7
:10418000991F5A95A9F780959095BC01CD01089586
:10419000A1E21A2EAA1BBB1BFD010DC0AA1FBB1F4B
:1041A000EE1FFF1FA217B307E407F50720F0A21BBD
:1041B000B30BE40BF50B661F771F881F991F1A942A
:1041C00069F760957095809590959B01AC01BD0154
:1041D000CF010895052E97FB1EF400940E94012143
:1041E00057FD07D00E94C82007FC03D04EF40C9462
:1041F000012150954095309521953F4F4F4F5F4F8E
:10420000089590958095709561957F4F8F4F9F4F42
:1042100008952F923F924F925F926F927F928F926A
:104220009F92AF92BF92CF92DF92EF92FF920F9345
:104230001F93CF93DF93CDB7DEB7CA1BDB0B0FB64F
:10424000F894DEBF0FBECDBF09942A88398848880C
:104250005F846E847D848C849B84AA84B984C884A2
:10426000DF80EE80FD800C811B81AA81B981CE0F99
:10427000D11D0FB6F894DEBF0FBECDBFED0108957E
:10428000EE0FFF1F0590F491E02D0994FB01DC0176
:1042900002C001900D9241505040D8F70895F9990D
:1042A000FECF92BD81BDF89A992780B50895262F3B
:1042B000F999FECF1FBA92BD81BD20BD0FB6F8940B
:0E42C000FA9AF99A0FBE01960895F894FFCF6E
:1042CE000000E004200008409CFF0088130002005C
:1042DE0002000200020002000200020002000200C0
:1042EE000200020002000200020002000200200191
:1042FE002201260221022703230326042605260572
:10430E002B0624072507280729072A8025000005E4
:10431E00400AA1204EA50020244EA52C2330C01209
:10432E0000001A400AA1204EA5001B1E27522C2366
:10433E00308025000005400AA1204EA50020244E05
:10434E00A52C2330004B000006400AD0009D4900EA
:10435E007B289D492C233000E1000005400A4501D1
:10436E00D7DC03B81E0EBF00232E48E801008A409A
:10437E000A6001555502AD1E20000023C801545895
:10438E002074696D656F7574210057616974696E6B
:10439E00672062696E640A00476F7420706B740A3E
:1043AE00006461746120676F6F640A007363616EED
:1043BE006E6572206D6F6465004F70656E4C525362
:1043CE006E67205258207374617274696E67200094
:1043DE00206F6E2048572000536176656420626915
:1043EE006E64206461746120746F20454550524F95
:1043FE004D0A004920616D20736C61766500456E33
:10440E00746572696E67206E6F726D616C206D6F70
:10441E00646500454550524F4D2064617461206EB5
:10442E006F742076616C6964206F722062696E64AD
:10443E00206A756D70706572207365742C20666FBE
:10444E007263696E672062696E640A005258206852
:10445E00616E6700B200F4014C0300070B0C1011E3
:10446E001500091203130E0F0001020000001000C8
:10447E000000080020000001000002000000010002
:10448E00000200000000E91E711D921EBE1EA21E3B
:02449E00DE1E20
:00000001FF
