:100000000C9462000C94CA1A0C94F71A0C948A008F
:100010000C948A000C948A000C948A000C948A0038
:100020000C948A000C948A000C948A000C948A0028
:100030000C948A000C94900B0C948A000C948A0007
:100040000C94241B0C948A000C94A01E0C94E31EA8
:100050000C948A000C948A000C948A000C948A00F8
:100060000C94F1080C948A000000000700020100C3
:100070000003040600000000000000000102040864
:100080001020408001020408102001020408102002
:10009000040404040404040402020202020203032E
:1000A00003030303000000002300260029000000D2
:1000B0000000250028002B0000000000240027007D
:1000C0002A00D11F11241FBECFEFD8E0DEBFCDBF65
:1000D00012E0A0E0B1E0E6E1F2E402C005900D928A
:1000E000A23DB107D9F714E0A2EDB2E001C01D9224
:1000F000AC3BB107E1F710E0C4ECD0E004C02297BC
:10010000FE010E94E620C23CD107C9F70E940D20E3
:100110000C9409210C9400008091BE03813019F4E5
:1001200082E08093BE038091BE03833019F484E0A3
:100130008093BE030895A8950895CF93DF93FC01A3
:10014000962F9270862F817060FF20C0992331F026
:100150008091500380831092D20216C0A091D202E7
:10016000C091E903C770D0E0C656DD4F8881A8175B
:1001700010F080E03CC081E08A0F8093D202B0E0B2
:10018000A050BD4F8C91808381E031C09923C1F094
:1001900090819093D3021092D202292F207E203694
:1001A00051F490915003923020F390819F7190937D
:1001B000920393E01AC09E3F39F71092500317C084
:1001C0009091D3029F3F01F79091D202993288F625
:1001D00021E0290F2093D2023081E92FF0E0EF5384
:1001E000FC4F3083293281F691E090935003DF91E8
:1001F000CF910895DC01ED91FC910190F081E02D0B
:1002000009950895DC01ED91FC910190F081E02DBC
:10021000099508952091BF033091C003382748E025
:10022000C901880F991F37FF06C09C0151E225279D
:1002300050E1352701C09C01415091F73093C00334
:100240002093BF0308958436910520F4BC0180E01B
:1002500090E017C09C018E3B910528F42A55310986
:10026000AAE0B0E00CC0823D910528F4245B31097E
:10027000A4E6B0E004C02D5C3109A8E5B2E00E941C
:100280001A20A4E6B0E09B01AC010E942920089549
:1002900090E08C599F4F0E942301089582E0809343
:1002A000EA0380E28093EB0386E28093EC0391E221
:1002B0009093ED038093EE0384E08093EF0385E059
:1002C0008093F00384E28093F10385E28093F2034C
:1002D000089560E08CE00E94321C61E08BE00E9497
:1002E000321C61E08DE00E94321C60E082E00E94DE
:1002F000321C61E084E00E94321C089542E050E02C
:100300006CE870E080E00E94AA1A0895E3E0F0E053
:1003100089E080935700E491E67081E0E63009F0CF
:1003200080E00895CF93DF93C82F0E948601882331
:1003300081F0DFB781E08093BD03F8940E949B00B9
:1003400088E180936000C0936000C1110E949B000F
:10035000DFBFDF91CF910895FC0140A5842F877006
:1003600090E0959587950196242F217030E0820FBB
:10037000931F880F880F08958F929F92AF92BF921C
:10038000CF92DF92EF92FF92CF93FC01C0A5EC2FAA
:10039000E770F0E0E656FD4FA081B0E0C7FF03C074
:1003A00024E130E002C02FE030E0FC0197A183E1BE
:1003B000989FF0011124E25AFE4F80809180A28024
:1003C000B380A20FB31F20E43FE14DE750E00E944D
:1003D0003420A50194010E946C208C2F887149F46F
:1003E00069017A01E0EDCE0EE7E0DE1EE11CF11CB2
:1003F0001BC0C7FF05C060E47AE88CE29EE004C041
:1004000060E07EEE8AEB9BE069017A01F8EBCF0EAB
:10041000FBE0DF1EE11CF11CA50194010E946C2091
:10042000C20ED31EE41EF51EC701B60169517C4FF2
:100430008F4F9F4F28EE33E040E050E00E946C2049
:10044000A8EEB3E00E942920CF91FF90EF90DF90BB
:10045000CF90BF90AF909F908F900895DB01FA01ED
:10046000582F569590E02481237030E0322F2227B8
:100470004081240F311D11963C932E9344814C7082
:10048000218130E060E4469F200D311D1124139638
:100490003C932E93129744814073228130E060E1B7
:1004A000469F200D311D112415963C932E931497D1
:1004B0004481407C238130E064E0469F200D311D63
:1004C000112417963C932E931697359618969F5F96
:1004D000591748F680FF47C040814295469546959A
:1004E00043702DE431E0429FC001439F900D1124E1
:1004F0000C9611969C938E93808190E074E0969573
:1005000087957A95E1F783709927829FA001839F51
:10051000500D929F500D1124445F5F4F13965C93D2
:100520004E931297808190E0969587959695879542
:1005300083709927829FA001839F500D929F500D39
:100540001124445F5F4F15965C934E93149740813E
:100550004370429FC001439F900D11240C96179643
:100560009C938E9316970895803223E0920708F1AA
:10057000883E23E0920740F48F519340E4E0969543
:100580008795EA95E1F70895803D27E0920718F4F2
:100590008C5D93400895883928E0920768F4885C60
:1005A000974074E0969587957A95E1F78D509C4F2A
:1005B000089580E090E008958FEF93E008958C30E7
:1005C000910540F4A4E0880F991FAA95E1F7885D92
:1005D0009C4F0895843F23E0920718F484529C4F67
:1005E0000895811524E0920740F48657934FF4E074
:1005F000880F991FFA95E1F7089580E998E008952A
:100600009C013695279525753575821B930B9C01AA
:100610002373337396958795969587958373937314
:10062000820F931F9C0154E0369527955A95E1F768
:10063000280F391F2F703F7041E051E0249FC00107
:10064000259F900D349F900D1124892F08952D988A
:10065000882319F000002B9A02C000002B9800009C
:100660002D9A000008952D9A000083B12D98000066
:10067000829581700895CF93DF93D82F5C9A2D983F
:100680005C98C8E08D2F80780E942703DD0FC15051
:10069000C9F72D98DF91CF9108958F770E943B0382
:1006A0000895CF93DF93D82FC8E08D2F80780E94D4
:1006B0002703DD0FC150C9F72D98DF91CF91089521
:1006C000CF93DF932D98C8E080E0D82FDD0F0E94F4
:1006D00033038D0FC150C9F7DF91CF9108950E9468
:1006E0004D030E9460035C9A0895A1E0B0E0EBE73F
:1006F000F3E00C94BD20806869830E943B0369810C
:10070000862F0E9451035C9A2196E2E00C94D92036
:10071000CF93C091CA03C827E82FF0E0EF53FC4FF6
:10072000678589E70E9475036C2F8DE30E9475032E
:100730006C2F82E40E947503CF91089586E20E9497
:100740006F030895CF938BE20E946F03C82F8CE252
:100750000E946F03282F30E066E0369527956A9552
:10076000E1F744E0C49FC0011124822B932BCF9169
:100770000895CF93DF93EC016C818CE10E947503A7
:100780006D818DE10E9475036E818EE10E9475037B
:100790006F8180E20E947503688581E20E94750383
:1007A000698582E20E9475036A8583E20E9475036F
:1007B0006B8584E20E9475036C8585E20E94750357
:1007C0006D858AE20E9475036E858EE60E94750330
:1007D0006F858FE60E947503688980E70E94750324
:1007E000698981E70E9475036A8982E70E9475031F
:1007F000DF91CF910895CF92DF92EF92FF92CF9346
:10080000DF936B017C01C11488E3D8068CE9E8060C
:100810008CE1F80628F5C701B60120E836E948E979
:1008200050E00E946C20E901689760E879E687E66D
:100830009FEF0E943C206C0D7D1D8E1D9F1DF2E0E0
:10084000660F771F881F991FFA95D1F721E732E0CD
:1008500040E050E00E946C20F22EE32E80E421C0A4
:10086000C701B60120E03DE241E351E00E946C2067
:10087000E901689760E073ED8EEC9EEF0E943C20EA
:100880006C0D7D1D8E1D9F1D660F771F881F991F84
:1008900021E732E040E050E00E946C20F22EE32E8F
:1008A00080E66C2F6F71680F85E70E9475036E2DCF
:1008B00086E70E9475036F2D87E70E947503DF911D
:1008C000CF91FF90EF90DF90CF9008958F929F92FD
:1008D000AF92BF92CF92DF92EF92FF92CF93DF93CE
:1008E000D82F83E00E946F038093BC0384E00E94B2
:1008F0006F038093BB0360E086E00E94750361E0B4
:1009000087E00E9475036FE789E00E94750365E048
:100910008AE00E94750362E18BE00E94750365E145
:100920008CE00E9475036DEF8DE00E94750360E01E
:100930008EE00E947503DD2319F08BE491E008C07E
:100940002091E80333E1239FC0011124825A9E4F76
:100950000E94B9036CE880E30E9475036FE082E3B4
:100960000E94750362E483E30E9475038091E903AA
:1009700087FF02C064E101C06AE084E30E9475035E
:100980006AE285E30E9475036DE286E30E947503C7
:1009900064ED87E30E94750360E088E30E947503BD
:1009A00060E089E30E947503D11109C0C090CA03B9
:1009B000D090CB03E090CC03F090CD0307C0C5E905
:1009C000CC2EC1ECDC2EED2CCEEDFC2ECAE38F2C10
:1009D0009924AA24BB24682D8C2F0E947503682DAE
:1009E00085E08C0F0E947503FE2CED2CDC2CCC24B2
:1009F000CF5FCE3361F76FEF83E40E9475036FEF33
:100A000084E40E9475036FEF85E40E9475036FEF25
:100A100086E40E947503DD2311F066E002C0609158
:100A2000CE038DE60E94750360E089E70E9475039E
:100A30006091CF038AE70E94750360E083E70E941C
:100A4000750360E084E70E947503D11109C06091CD
:100A5000C6037091C7038091C8039091C90304C075
:100A600060EC72E98DEE99E10E94FB03DF91CF917A
:100A7000FF90EF90DF90CF90BF90AF909F908F90BE
:100A8000089561E087E00E94750364E28EE70E94AA
:100A9000750363E088E00E94750360E088E00E94CF
:100AA000750365E087E00E94750362E085E00E94BF
:100AB000750383E00E946F038093BC0384E00E946F
:100AC0006F038093BB03089583E00E946F038093BC
:100AD000BC0384E00E946F038093BB0361E087E066
:100AE0000E9475036AE070E080E090E00E949D1B28
:100AF0000E94410500000895CF92DF92FF920F936C
:100B00001F93CF93DF931F92CDB7DEB7082F162F19
:100B10008EE399830E947503F02EC02E9981D92E01
:100B20008C2D8F19811738F4F60161916F018FE7D1
:100B30000E947503F5CF64E085E00E94750383E0B1
:100B40000E946F038093BC0384E00E946F03809334
:100B5000BB030E947A1B6093B7037093B803809322
:100B6000B9039093BA0369E087E00E94750381E0BE
:100B70008093BE030F90DF91CF911F910F91FF9053
:100B8000DF90CF9008950F931F930E947C05809172
:100B9000BE03813099F40E947A1B0091B703109133
:100BA000B8032091B9033091BA03601B710B820B1B
:100BB000930B603A76488140910548F38091BE03DB
:100BC000813031F46EEB71E082E194E00E943C1DD3
:100BD0001F910F9108950F931F938091BE03823050
:100BE00021F41092BE0381E020C08091BE038130C9
:100BF000D9F40E947A1B0091B7031091B803209199
:100C0000B9033091BA03601B710B820B930B613AED
:100C100076488140910540F061E087E00E947503CD
:100C20001092BE0382E001C080E01F910F910895F1
:100C3000EF92FF920F931F93CF93DF938B019C0151
:100C4000442737FD4095542F60E271EA87E090E039
:100C50000E948E20E9011C161D0614F0C1E0D0E0B0
:100C6000D80120E231EA47E050E00E9434209E01A2
:100C7000442737FD4095542F0E948E20790100E0D3
:100C800010E00E151F055CF42B9ACE010E94C31BC9
:100C90002B98CE010E94C31B0F5F1F4FF2CFCDB721
:100CA000DEB7E6E00C94D520CF93DF935D9A609198
:100CB000FA037091FB038091FC039091FD030E9465
:100CC000FB0360E089E70E94750361E070E080E06B
:100CD00090E00E949D1B0E949E03C82F61E070E07F
:100CE00080E090E00E949D1B0E949E03D0E0C80F10
:100CF000D11D61E070E080E090E00E949D1B0E94A9
:100D00009E03C80FD11D61E070E080E090E00E947A
:100D10009D1B0E949E035D989E01280F311DC901F5
:100D20009695879596958795DF91CF910895CF9366
:100D3000C82F5D9A83E00E946F038093BC0384E018
:100D40000E946F038093BB0360E086E00E947503FE
:100D500061E087E00E9475036FE789E00E947503F8
:100D600065E08AE00E94750362E18BE00E947503F2
:100D700065E18CE00E9475036DEF8DE00E947503C4
:100D800060E08EE00E9475036CE280E70E947503CC
:100D900060E080E30E94750360E089E70E947503CC
:100DA00065E08AE70E94750362E181E70E947503AE
:100DB00062E082E70E94750360E083E70E947503AA
:100DC00060E084E70E9475036091FA037091FB0371
:100DD0008091FC039091FD030E94FB0367E08DE688
:100DE0000E9475036AE070E080E090E00E949D1B25
:100DF00069E087E00E9475036AE070E080E090E0BF
:100E00000E949D1BCC2369F0C5E1C15009F459C073
:100E100061E070E088EB91E00E9418060E949B0060
:100E2000F4CF61E070E088E891E00E9418060E942B
:100E30009B0065E08DE60E9475036AE070E080E04B
:100E400090E00E949D1B61E070E088EB91E00E94C1
:100E500018060E949B0064E08DE60E9475036AE01C
:100E600070E080E090E00E949D1B61E070E08DE505
:100E700091E00E9418060E949B0062E08DE60E94AD
:100E800075036AE070E080E090E00E949D1B61E0E5
:100E900070E08FEA90E00E9418060E949B0060E0DC
:100EA0008DE60E9475036AE070E080E090E00E94A9
:100EB0009D1B62E070E085E091E00E9418060E94B0
:100EC0009B0061E087E00E9475035D98CF910895D3
:100ED000CF93DF93EC014AE050E06D2F70E082E1A8
:100EE00094E00E94011E6EE282E194E00E94201DC7
:100EF000BE0184E0769567958A95E1F76F70772754
:100F00004AE050E082E194E00E94011E6EE282E13C
:100F100094E00E94201DBE016F7077274AE050E0E8
:100F200082E194E00E94011EDF91CF910895D82FB5
:100F3000C0E0CD1780F45E9A64E670E080E090E057
:100F40000E949D1B5E9864E670E080E090E00E9445
:100F50009D1BCF5FEECF6CE271E080E090E00E94DD
:100F60009D1BE6CF0F931F93CF93DF93EC01062FCA
:100F700015E0115051F0CE010E94F320081741F006
:100F8000602FCE010E94FB20F4CF82E00E949707E1
:100F9000DF91CF911F910F910895A0E0B0E0E3EDB4
:100FA000F7E00C94AF20482E562EC0E0D0E0612C24
:100FB000712CE12CF12C00E010E0442079F081E06C
:100FC0004816A1F092E0491219C028E4622E712C53
:100FD00030E2E32EF12C03E513E010C0612C712CFC
:100FE0006BE1E62EF12C0AEE13E008C04DE1642E11
:100FF000712C59E2E52EF12C01EC13E043018C0E2B
:101000009D1E1092C0031092BF033401A62CA81895
:10101000B12CC30101966C01AE14BF04A8F4A00E5C
:10102000B11E511006C0C3010E94F320F501808358
:1010300005C0F5016081C3010E94B207F5018081FE
:101040000E940A013601E2CFC301511018C0C3014A
:101050000E94F320B82EC6010E94F3202B2D30E011
:10106000322F2227282B8091BF039091C003821733
:10107000930779F4C0E0D0E0552453949ECF360115
:101080006091C0030E94B2076091BF03C6010E9435
:10109000B207D395C13093E0D90708F48ECF852DE0
:1010A000CDB7DEB7E0E10C94CB2060E081E00E9498
:1010B000CD07882331F081E09091C103983309F086
:1010C00080E0089561E081E00E94CD07089561E02D
:1010D00082E00E94CD07089560E082E00E94CD0783
:1010E000811108C0E3E5F3E01192119283E0E33748
:1010F000F807D1F70895A1E0B0E0E1E8F8E00C943A
:10110000BD2089830E944E0192E09093F8039FEFE7
:101110009093F9039AE090930204109203041092C2
:1011200004041092FA031092FB031092FC03109235
:10113000FD032EE12093FE039093FF0328EB3BE099
:1011400030930104209300048981882371F061E0C9
:1011500080E00E94CD07E3E5F3E01192119283E075
:10116000E337F807D1F70E9467082196E2E00C9474
:10117000D92060E080E00E94CD07811103C081E0AA
:101180000E947B080895CF93C1E0811101C0C0E0A7
:101190006C2F82E10E946B1C6C2F83E10E946B1C00
:1011A0001092B1031092B0038091B9008C6F8093BC
:1011B000B90080E28093B80085E48093BC00CF91B1
:1011C000089585ED8093BC008091BC0084FDFCCF28
:1011D0000895ECEBF0E0108285E480831092B00378
:1011E00008951F920F920FB60F9211242F933F93E1
:1011F0004F935F936F937F938F939F93AF93BF931F
:10120000EF93FF93CF93DF931F92CDB7DEB780911B
:10121000B900887F803609F4C7C0A8F5883209F480
:1012200064C098F4803109F45DC038F4882309F46F
:10123000F3C0883009F456C0F1C0883109F455C0B4
:10124000803209F0EBC082E0A7C0803409F477C097
:1012500078F4803309F45FC0883309F0DFC084E09C
:101260008093AF038091B0038B7F8093B003D0C095
:10127000803509F452C0883509F467C0883409F014
:10128000CDC085E089C0883909F4C0C0A8F488378A
:1012900009F48AC038F4883609F486C0803709F426
:1012A00083C0BCC0883809F4B1C0803909F47FC05C
:1012B000803809F0B3C07BC0803B09F493C038F498
:1012C000803A09F48CC0883A09F48CC0A7C0803CED
:1012D00009F49EC0883C09F49BC0883B09F09EC07D
:1012E00080E081C08091B40313C08091B1039FEF6F
:1012F000980F9093B1038823D1F1E091B203F0915C
:10130000B303CF0101969093B3038093B20380811E
:101310008093BB007DC083E03FC0E091B203F091B9
:10132000B303CF0101969093B3038093B2038091EE
:10133000BB0080838091B10381508093B103809181
:10134000B103823008F064C061C0E091B203F09153
:10135000B303CF0101969093B3038093B2038091BE
:10136000BB0080838091B10381508093B103809151
:10137000B0038B7F8093B0038091B00380FF4CC09B
:101380008091B0038E7F8093B0038091B003826020
:101390008093B00384EA3DC08093AF038091B00393
:1013A0008B7F8093B00338C01092B10331C0E091BD
:1013B000B503F091B603309749F18091BB00898362
:1013C0008091B10391E0980F9093B103811102C015
:1013D00062E001C060E0CE010196099515C00E944F
:1013E000E10816C081E0E091B503F091B6033097B3
:1013F00069F0882311F063E001C061E0CE0101963D
:10140000099599819093BB00811102C085E801C0C4
:1014100085EC8093BC0002C00E94E1080F90DF9130
:10142000CF91FF91EF91BF91AF919F918F917F915C
:101430006F915F914F913F912F910F900FBE0F9041
:101440001F9018958F929F92AF92BF92CF92DF928A
:10145000EF92FF92CF93DF93EC010E947A1B6B0116
:101460007C014E01A12CB12C8091B00382FF11C0F0
:101470002097D1F30E947A1B6C197D098E099F0970
:1014800086169706A806B90678F70E94E90881E053
:1014900004C08091AF031092AF03DF91CF91FF9012
:1014A000EF90DF90CF90BF90AF909F908F90089576
:1014B000A2E0B0E0EEE5FAE00C94B920182F7B0131
:1014C000022F047022FD05C080910B0190910C0148
:1014D00002C080E090E02A8349830E94220A2A8188
:1014E0004981811136C01092AF034093B103F0924D
:1014F000B303E092B203110F1093B4039091B003C1
:1015000021FF02C085E001C084E0892B8093B003F5
:101510008091B00381FF0BC08091B0038D7F8093D9
:10152000B0038091B4038093BB0085EC01C085EECD
:101530008093BC00822F817020FF0BC0011105C079
:1015400080910B0190910C0102C080E090E00E941C
:10155000220A2296E6E00C94D520A2E0B0E0E3EB6C
:10156000FAE00C94B920182F7B01022F047022FDA1
:1015700005C080910B0190910C0102C080E090E0C9
:101580002A8349830E94220A2A814981811138C015
:101590001092AF034093B103F092B303E092B20311
:1015A000812F880F81608093B4039091B00321FF55
:1015B00002C085E001C084E0892B8093B003809154
:1015C000B00381FF0BC08091B0038D7F8093B00387
:1015D0008091B4038093BB0085EC01C085EE8093BD
:1015E000BC00822F817020FF0BC0011105C08091CB
:1015F0000B0190910C0102C080E090E00E94220A51
:101600002296E6E00C94D520A0E0B0E0EAE0FBE012
:101610000C94B7200E947A1B0091AB031091AC038D
:101620002091AD033091AE036B017C01C01AD10A49
:10163000E20AF30A9701860141E1C41647E2D406A3
:10164000E104F10408F442C02091AA0331E0320F12
:101650003093AA0320FF02C017E001C010E060939E
:10166000AB037093AC038093AD039093AE0363E040
:1016700070E082E194E00E94020161E070E082E1AA
:1016800094E00E94020107E0010F812F90E0EC013D
:10169000CC0FDD1FC35FDE4F68817981672F77270D
:1016A00063707727880F991F880F991F682B792BF4
:1016B00082E194E00E94FA0068817981772782E1D3
:1016C00094E00E94FA001F5F1013DFCFCDB7DEB7A2
:1016D000E8E00C94D32025B190E0FC01EE0FFF1F51
:1016E000E80FF91FE65EFC4F8081282B25B988B1F1
:1016F0009181892B88B98BB19281892B8BB90895FF
:1017000085B190911703892385B988B19091180309
:10171000892388B98BB19091190389238BB90895D6
:101720001F920F920FB60F9211242F933F934F9356
:101730005F936F937F938F939F93AF93BF93CF9359
:10174000EF93FF93C091760380910601C81708F0CC
:101750003EC080911503909116039093870080936B
:101760008600EC2FF0E0EE0FFF1FE35FFE4F80815D
:1017700091810E94DF02880F991F90931603809336
:101780001503809115039091160320910701309164
:101790000801281B390B3093080120930701809121
:1017A000000490910104880F991F2817390720F42D
:1017B000909308018093070180917403811142C0C6
:1017C0008091F80380FF41C0C830E0F53EC08091B1
:1017D0001503909116039093870080938600809163
:1017E000070190910801909316038093150380914F
:1017F0007403882319F08FEF9FEF06C080911503C3
:1018000090911603885592409093890080938800A8
:1018100080E49CE990930801809307018091840003
:10182000909185008097D0F30E94800B8091750382
:10183000811105C08091060181500E946B0B1092AE
:10184000760327C08FEF9FEF06C08091150390911C
:101850001603885592409093890080938800809168
:101860008400909185008097D0F30E94800B809136
:101870007503811104C080917603811106C08091A7
:1018800076038F5F8093760304C081500E946B0BB8
:10189000F6CFFF91EF91CF91BF91AF919F918F9133
:1018A0007F916F915F914F913F912F910F900FBE5C
:1018B0000F901F90189524E0829FC00111248C3056
:1018C000910538F0853F23E0920728F084EF93E0FC
:1018D00008958CE090E00895CF93DF93C091F903D1
:1018E000C03390F48C2F807339F0803141F48091B3
:1018F00077038295807F05C080917C0302C0809130
:101900007D03CF70D0E015C0CF33E0F4CF70D0E0CE
:10191000809177038295807F0E945B0CDE01AA0F85
:10192000BB1FA35FBE4F11969C938E93219680910F
:101930007D030E945B0CFE01EE0FFF1FE35FFE4F75
:1019400091838083DF91CF91089580917803909166
:1019500079039F770E940003809377038F3029F4E7
:1019600080917D038695805804C099E0899F802DE1
:10197000112480937C03F8940E946C0C78948091DD
:10198000ED038132E1F480917C039FEF980F9E3F3D
:1019900078F08091B0008F7D8093B00061E08091FD
:1019A0007C03811101C060E083E00E946B1C0895FC
:1019B0008093B4008091B00080628093B00008955D
:1019C000FF920F931F93CF93DF930BEE13E0C0E0D2
:1019D000D0E0B3E0FB2E8C2FD801ED918D019E2F2E
:1019E000907F9031F1F4EF70F0E0EE0FFF1FE35FB6
:1019F000FE4F208131816F2D0E944C20E92FF0E0B5
:101A0000EE0FFF1FEC56FD4F61E080819181821740
:101A1000930708F060E0FE01EE55FD4F80810E94C3
:101A20006B1C2196C830D105B1F6CDB7DEB7E5E025
:101A30000C94D6200F931F93CF93DF9303E513E00D
:101A4000C0E0D0E02091F903822F8F7090E0C8179A
:101A5000D907E9F00196C817D90711F42033B8F473
:101A6000F801808191819F70892B79F0F894F801B9
:101A7000808191819F700E94B402FE01EE0FFF1FD2
:101A8000E35FFE4F9183808378940E94E00C21965F
:101A90000E5F1F4FC031D105A9F6DF91CF911F9185
:101AA0000F910895FF920F931F93CF93DF9381ECD3
:101AB00093E00E94AC01809306019091F903292FD5
:101AC0002F70281304C081E0820F80930601905389
:101AD0009F3060F44091060130E0842F90E0019740
:101AE0002817390719F44F5F4093060180910601CA
:101AF000813118F080E180930601ECE1F3E0DF0131
:101B000012971C92DF0111971C921082339683E08A
:101B1000E433F807A1F74FEF3FEFACEAB2E00BEE8A
:101B200013E02FEFE80189918E018031F8F490E005
:101B3000FD0132976081FC01EE0FFF1FE80FF91FD6
:101B4000E65EFC4F8081862B8083CD010197EC01FE
:101B500058818181852B81839C918281892B82830D
:101B60006095509590952923352346231396D3E00D
:101B7000033F1D07B9F640931703309318032093D2
:101B80001903C2EAD2E00BEE13E0F12CF8018191C7
:101B90008F01823230F08632B8F0863211F460E084
:101BA00010C0F6E0FF1204C08091C1008F7E06C015
:101BB00087E0F81205C08091C100877F8093C10043
:101BC00061E088810E94321CF3942196E8E0FE12C5
:101BD000DDCF8091EB03803231F461E089E00E9437
:101BE0006B1C82E801C082E08093800081E08093DA
:101BF0007503809374038091ED03813211F0873275
:101C0000D9F461E083E00E94321C60E083E00E942E
:101C10006B1C8091ED03813231F481E08093B00040
:101C20008093B10009C082E08093B00085E080938A
:101C3000B1008EE38093B3008AE1809381008FEF3F
:101C40009FEF909389008093880080ED97E09093B8
:101C500087008093860080E49CE99093080180933C
:101C600007019093160380931503109276038091D9
:101C70006F00816080936F008091F80383FF0DC037
:101C800080915303909154039F70892B31F00E94EF
:101C90001A0D1092740310927503CDB7DEB7E5E00C
:101CA0000C94D620CF93C82F8091F0038B3221F46F
:101CB0006C2F8FE00E946B1C8091ED03873249F4FA
:101CC0008091B000CC2311F0806101C08F7E8093A1
:101CD000B000CF910895A4E2B0E0E1E7FEE00C94FB
:101CE000AD206B017C010E946E1B4B015C0181E009
:101CF0000E94660483E08093BE030E9464056AEC40
:101D000071E082E194E00E943C1D7BE1272EE0E53A
:101D10003E2EF7E47F2EA6E44A2EB5E55B2EC114D5
:101D2000D104E104F10469F00E946E1B681979097D
:101D30008A099B096C157D058E059F0510F080E0D2
:101D4000D5C08091BE03843051F768ED71E082E127
:101D500094E00E943C1D8FE70E944D030E946003A7
:101D60008CA3823601F501EC13E00E946003D801D8
:101D70008D938D01B3E00A3E1B07B9F78091C10333
:101D8000883309F0ADC061EE71E082E194E00E9419
:101D90003C1D82E48CA361E0CE0184960E94C305C1
:101DA0005D9A81E0A3C0803741F0893611F581E06A
:101DB0000E947B0889E4898304C03982C12CD12C1C
:101DC00076019091BD038091F803992311F080680A
:101DD00001C08F778093F803EAEEF3E0DE011296FC
:101DE000822D01900D928A95E1F76CE1CE0101966A
:101DF00075C08437E1F4E4E5E98383E08A8386E80B
:101E00008B8388E08C838FE08D838EE1EDE2F1E0BF
:101E1000DE01169601900D928A95E1F763E2CE01FC
:101E200001960E94C305C12CD12C760159C085377B
:101E300089F40AEE13E00E946003D8018D938D01AE
:101E4000B4E005301B07B9F761E080E00E94CD07E0
:101E50005CA241C08636B9F44982E3E5F3E0AE0105
:101E60004D5F5F4F208131813296CA010197DC01BD
:101E70003C93DA012C934E5F5F4FB3E0E337FB07EF
:101E800089F761E2B3CF8736C9F403E513E00E9416
:101E90006003682E0E946003262D30E0322F222737
:101EA000280F311DF801219331938F01F3E003379F
:101EB0001F0769F77CA20E9467080DC0873481F470
:101EC000E3E5F3E01192119283E0E337F807D1F7ED
:101ED0000E9467087CA261E0CE0184960E94C3053F
:101EE00083E08093BE030E94410519CFA496E2E1EE
:101EF0000C94C9201F93CF93DF93C82FD62F61E096
:101F00000E94321C61E08C2F0E946B1C61E08D2FBF
:101F10000E946B1C8AE090E00E94C31B8D2F0E94E0
:101F20009E1C892B71F060E08C2F0E946B1C8AE054
:101F300090E00E94C31B8D2F0E949E1C11E0892BF4
:101F400009F010E060E08C2F0E94321C60E08C2FC2
:101F50000E946B1C60E08D2F0E946B1C812FDF9113
:101F6000CF911F91089580E48093BA001092BD0034
:101F70008DE990E09093B6038093B50310925003DF
:101F800015E004E0C2E0FC2E80915003813039F46A
:101F900080E00E946604F09250035E98F5CFC091F5
:101FA0005003C33061F45D98809192030E948803CE
:101FB000C093BE030E94410500935003E5CF80917A
:101FC0005003843009F78091BE038430E9F68FE72F
:101FD0000E944D03C0E0D3E0E091E903E770F0E038
:101FE000E656FD4F808190E09E0120503340281737
:101FF000390724F40E9460038993EECF10935003B5
:102000005D9AC2CFAAE2B0E0E8E0F0E10C94BC2017
:102010001FEF198389E2E1ECF3E0DE0112960190F3
:102020000D928A95E1F721E04AE2BE016F5F7F4F92
:1020300080E20E94580A81110EC021E041E0BE01F9
:102040006F5F7F4F80E20E94AD0A811104C082E081
:102050008093500302C0109350038091500382304C
:1020600051F00E946E1B60934C0370934D0380935C
:102070004E0390934F03AA96E3E00C94D820A1E07E
:10208000B0E0E5E4F0E10C94BD2080915003823093
:10209000D9F480919203805A898321E041E0BE0106
:1020A0006F5F7F4F80E20E94580A882369F08FEFAC
:1020B000809350030E946E1B60934C0370934D03FA
:1020C00080934E0390934F032196E2E00C94D92025
:1020D000A1E0B0E0EEE6F0E10C94BD208091500369
:1020E0008230D1F421E041E0BE016F5F7F4F80E29A
:1020F0000E94AD0A882371F08FEF809350030E94F5
:102100006E1B60934C0370934D0380934E0390932A
:102110004F0302C0898101C08FEF2196E2E00C9449
:10212000D920A2E2B0E0E7E9F0E10C94AD209E01F5
:102130002F5F3F4F80E1D9011D928A95E9F76CEE40
:1021400071E082E194E029A33AA30E943C1D0E9421
:1021500064051D8A1E8A1F8A188E312C212C00E0EE
:10216000812C912C540180E4482E81EE582E8DE96B
:10217000682E88E1782E90E5C92E93ECD92EE12CBB
:10218000F12C84EF91E0A0E0B0E08D8F9E8FAF8FB7
:10219000B8A380EC91EDA8E9BBE1898F9A8FAB8F52
:1021A000BC8F80E491EEADE9B8E1898B9A8BAB8B63
:1021B000BC8B82E194E00E94081E892B09F4E1C0E7
:1021C00082E194E00E94351E9C0133272C323105B8
:1021D00009F442C0ACF42332310509F0ABC01982D6
:1021E0001A821B821C821D821E821F8218861986FB
:1021F0001A861B861C861D861E861F86188A60C04E
:102200002434310529F02335310509F4B2C092C0D8
:1022100064E482E194E00E94201D2AE030E040E482
:1022200051EE6DE978E182E194E00E949C1D6CE240
:1022300082E194E00E94201D2AE030E040EC51ED64
:1022400068E97BE182E194E00E949C1D6CE282E1FE
:1022500094E00E944E1DADCF0F5F043009F0A9CF6E
:1022600029813A814B815C81A8EEB3E00E9429204C
:10227000698B7A8B8B8B9C8B2D813E814F8158850E
:102280000E942920698F7A8F8B8F9C8F29853A85B0
:102290004B855C852D8F3E8F4F8F58A32D853E85B6
:1022A0004F8558890E9429206B017C0160323EE4F1
:1022B00073078105910530F462E38CE10E94750398
:1022C00000E077CF603345E774078105910510F48E
:1022D00062E2F3CF60345CE975078105910510F483
:1022E00066E2EBCF80E5C81683ECD806E104F10482
:1022F00010F462E1E2CF90E6C9169AEED906E10445
:10230000F10410F465E1D9CFA0E7CA16A1E1DA061D
:10231000A1E0EA06F10410F461E0CFCFB0EACB16F9
:10232000B6E8DB06B1E0EB06F10410F463E0C5CFDC
:1023300065E0C3CF10ED180F1A3008F03ACFE1E096
:10234000F0E0EC0FFD1F24E0029FE00DF11D1124D1
:102350002081318142815381AAE0B0E00E9429208E
:10236000610F711D811D911D608371838283938331
:1023700020CF49885A886B887C88812C912C540105
:1023800018CF81149104A104B10489F4C301B201EE
:102390000E94FB0361E070E080E090E00E949D1BE2
:1023A0001D8A1E8A1F8A188E312C22242A948D8D14
:1023B0009E8DAF8DB8A188169906AA06BB06D0F4EB
:1023C0000E949E032D893E894F89588D280F311D0B
:1023D000411D511D2D8B3E8B4F8B588F381608F4A5
:1023E000382E821508F4282E3FEF831A930AA30A89
:1023F000B30A56C0C301B20128EE33E040E050E01A
:102400000E946C20BA01A9012AE030E082E194E048
:102410000E94EA1D6CE282E194E00E94201D4AE0E5
:1024200050E0632D82E194E00E94F91D6CE282E1AC
:1024300094E00E94201D6D897E898F89988DA50169
:1024400094010E946C20BA01A9012AE030E082E1E7
:1024500094E00E94EA1D6CE282E194E00E94201D5B
:102460004AE050E0622D82E194E00E94F91D6CE2A6
:1024700082E194E00E944E1D4C0C5D1C6E1C7F1C82
:10248000898D9A8DAB8DBC8D84159505A605B705F4
:1024900020F449885A886B887C88812C912C5401BF
:1024A00029893A894B895C89283E33404105510589
:1024B00009F07FCEA296E2E10C94C920A1E0B0E041
:1024C000E4E6F2E10C94BD2080E00E94920161E01C
:1024D00085E00E94321C61E086E00E94321C0E946E
:1024E000690160E080E00E94321C61E081E00E94AE
:1024F000321C40E052EC61E070E082E194E00E9426
:10250000501F0E94B9080E946C0869EF71E082E1D7
:1025100094E00E941D1D86E893E00E94680760E138
:1025200072E082E194E00E941D1D4AE050E065E007
:1025300070E082E194E00E94D21D0E947E017894B6
:102540005E9A63E183E00E947A0F882329F05E9807
:102550005D980E949110FBCF62E189E00E947A0FA2
:10256000811104C00E945508811119C063E572E011
:1025700082E194E00E941D1D60E070E0CB010E94AA
:102580006B0E882349F00E94620868E172E082E1E4
:1025900094E00E943C1D5D9A0E94520D10C00E9462
:1025A000520D8091EC03823209F0CAC08091EE0393
:1025B000833209F0C5C08091F80381FDC7C08091C6
:1025C000EC03823231F58091EE03833211F581E024
:1025D0000E94C3088091F80382FF08C063E372E0A1
:1025E00082E194E00E943C1D0E94B30F64E170E020
:1025F00080E090E00E949D1B21E041E0BE016F5F02
:102600007F4F80E20E94AD0A811103C081E0809378
:1026100050036EE372E082E194E00E941D1D8FE0A2
:102620000E94920180E00E9466041092920380E072
:102630000E94880380E0883170F08093D40283E0A8
:102640008093BE030E94640580915003882371F03B
:102650000E9402100BC021E0280FE82FF0E0EF539A
:10266000FC4F9785992349F3822FE5CF8091F203A0
:10267000982F9D7F983229F440E052EC61E070E0A1
:1026800027C0893271F440EA56E861E070E082E1E7
:1026900094E00E94501F8091C20080628093C2002B
:1026A0001BC08091E9038871803129F440E855E22C
:1026B00060E070E00DC04091C2035091C30360918F
:1026C000C4037091C5034A3051056105710570F36B
:1026D00082E194E00E94501F82E194E00E94081E73
:1026E000892B29F082E194E00E94351EF5CF80917C
:1026F000F103843229F08091C1008F7E8093C10064
:102700008091F203853241F08852833028F0809125
:10271000C100877F8093C1001092D6021092D5022B
:10272000109252030E947A1B60938E0370938F0362
:1027300080939003909391032196E2E00C94D9202A
:102740008091F8038B7F8093F80335CF82FD37CFDC
:1027500064EF71E080E090E00E946B0E882309F442
:102760002ECF0E94620868E172E082E194E00E944C
:102770003C1D0E94520D5D9A22CFCF93DF9382E1E0
:1027800094E00E94081E892BE9F0C091D502D0E0A8
:10279000CE0101968F7199272091D60230E08217E1
:1027A000930781F082E194E00E94351EC952DD4F0B
:1027B00088838091D50290E001968F71992780934C
:1027C000D502DDCFDF91CF910895A0E0B0E0EBEE30
:1027D000F3E10C94B720D82FC62F0E947A1B0091EA
:1027E000AB031091AC032091AD033091AE036B01AC
:1027F0007C01C01AD10AE20AF30A9701860141E17D
:10280000C41647E2D406E104F10408F4D1C1609390
:10281000AB037093AC038093AD039093AE038091B0
:102820000D0190910E01880F991F80939303892FBA
:10283000877020919403287F282B20939403809104
:102840000F0190911001880F991F382F330F330F0C
:10285000330F2770232B20939403282F229526953E
:10286000277080919503807C9770990F990F990F2D
:10287000822B892B809395032091110130911201B5
:10288000220F331F922F9295990F990F907C8F737F
:10289000892B80939503932F9295990F990F907C94
:1028A000822F86958695892B8093960332FB882705
:1028B00080F9209197032E7F282B209397038091F6
:1028C000130190911401880F991F382F330F217035
:1028D000232B20939703382F331F3327331F209147
:1028E0009803207F892F8770880F232B282B209314
:1028F00098038091150190911601880F991F382F28
:102900003295307F2F70232B20939803382F3295E8
:102910003F70209199032078892F87708295807F5E
:10292000232B282B20939903809117019091180154
:10293000880F991F2F7720939903292F27952227F6
:1029400027958695822B80939A03892F869583708D
:1029500020919B032C7F282B20939B0380911901AE
:1029600090911A01880F991F382F330F330F23705E
:10297000232B20939B03382F329536953695337051
:1029800020919C03207E892F8770880F880F232B2E
:10299000282B20939C0380911B0190911C01880F90
:1029A000991F382F3295330F307E2F71232B2093B0
:1029B0009C039295990F907E869586958695892B96
:1029C00080939D0380911D0190911E01880F991F96
:1029D00080939E03892F877020919F03287F282B47
:1029E00020939F0380911F0190912001880F991FD0
:1029F000382F330F330F330F2770232B20939F0370
:102A0000282F2295269527708091A003807C9770AF
:102A1000990F990F990F822B892B8093A0032091F6
:102A2000210130912201220F331F922F9295990F8D
:102A3000990F907C8F73892B8093A003932F92958D
:102A4000990F990F907C822F86958695892B80937C
:102A5000A10332FB882780F92091A2032E7F282B27
:102A60002093A2038091230190912401880F991F44
:102A7000382F330F2170232B2093A203382F331FBD
:102A80003327331F2091A303207F892F8770880F5E
:102A9000232B282B2093A3038091250190912601BD
:102AA000880F991F382F3295307F2F70232B20935A
:102AB000A303382F32953F702091A4032078892FEB
:102AC00087708295807F232B282B2093A4038091ED
:102AD000270190912801880F991F2F772093A40335
:102AE000292F2795222727958695822B8093A5034A
:102AF000969593708091A6038C7F892B8093A60373
:102B00002091290130912A01220F331F922F990F12
:102B1000990F8370892B8093A6032295269526957D
:102B200023708091A703807E932F9770990F990F40
:102B3000822B892B8093A70320912B0130912C01AC
:102B4000220F331F922F9295990F907E8F71892BB0
:102B50008093A703832F8295880F807E26952695E4
:102B60002695282B2093A803DD2311F088E001C0CF
:102B700080E0CC2311F094E001C090E0892B809399
:102B8000A9036FE070E082E194E00E940201C3E9D2
:102B9000D3E0699182E194E00E94621E83E0CA3A28
:102BA000D807B9F760E070E082E194E00E9402018A
:102BB000CDB7DEB7E8E00C94D320CF93C82F682FB1
:102BC00082E194E00E94621E8C2F0E940A01CF9144
:102BD0000895A0E0B0E0EFEEF5E10C94B720C82F27
:102BE0000E947A1B0091AB031091AC032091AD03BE
:102BF0003091AE036B017C01C01AD10AE20AF30ADC
:102C00009701860141E1C41647E2D406E104F104CC
:102C100008F445C06093AB037093AC038093AD039D
:102C20009093AE031092C0031092BF0388EA0E94F3
:102C3000DD15CC2311F081E801C081E00E94DD1593
:102C400080E10E94DD1500E010E0F801EE0FFF1FAB
:102C5000E35FFE4F808191810E94DF02EC01B3E0CF
:102C6000CC0FDD1FBA95E1F78D2F0E94DD158C2F5B
:102C70000E94DD150F5F1F4F0031110531F7609184
:102C8000C00370E082E194E00E94FA006091BF030B
:102C90007091C003772782E194E00E94FA00CDB7DB
:102CA000DEB7E8E00C94D320AAE1B0E0EAE5F6E173
:102CB0000C94AF200E949B008CE00E946F03811156
:102CC0000BC06CE872E082E194E00E943C1D80E061
:102CD0000E9466040E9464050E94BD130E947A1B34
:102CE0000E94681091E0853009F090E01FEF80911C
:102CF000BE03843009F4FEC19111FCC17CC00E9466
:102D0000A20390937B0380937A035D9AC0928E0313
:102D1000D0928F03E0929003F092910310925103AE
:102D20008091780390917903880F991F8160909327
:102D30007903809378035E9880E00E94520E809120
:102D40000003982F9E7309F02CC2F8948091E90338
:102D500041E053E06DE071E087700E942E020E9416
:102D60006C0C78949091000380914A0390FF13C2F9
:102D7000811124C093E5E92E93E0F92E00E010E0E4
:102D8000F7018081918194FD0CC0F801EE0FFF1FC7
:102D9000E35FFE4F808191810E94DF02D7018D9316
:102DA0009C930F5F1F4FB2E0EB0EF11C0031110539
:102DB00039F70E94670881E080934A0380915203AB
:102DC000811103C081E0809352031092730310922B
:102DD0007503109274038091E903887109F009C2A8
:102DE0000E94E00C83E08093BE030E94410581E0D5
:102DF00080934B035D980E947A1B4B015C010E94FB
:102E00006E1B6B017C0180915103823008F063C01E
:102E100040908E0350908F036090900370909103C8
:102E200080918A0390918B03A0918C03B0918D03C4
:102E300084159505A605B70509F44DC081EC93E00E
:102E40000E94BC016C5D7540810991099501840166
:102E500004191509260937096017710782079307B6
:102E6000D0F540928A0350928B0360928C0370924B
:102E70008D030E949E03282F80937E0380917F0301
:102E800090918003820F911D9093800380937F0324
:102E9000609181036F5F609381036930E0F070E0BF
:102EA0000E9458207093800360937F0380917D037C
:102EB000E3E08E9F600D711D1124769567957695E0
:102EC000679560937D030E94A50C10928003109279
:102ED0007F0310928103809152030091D4028823D2
:102EE00051F110915103101708F035C240908E0334
:102EF00050908F036090900370909103A50194010E
:102F000024193509460957092F8B388F498F5A8F55
:102F100081EC93E00E94BC0168517C4F8F4F9F4F22
:102F20002F89388D498D5A8D62177307840795074D
:102F300008F4D8C110C280918E0390918F03A091A4
:102F40009003B091910375016401C81AD90AEA0A85
:102F5000FB0A81EC93E00E94BC019B01AC01A02F15
:102F6000B0E00E9429206C157D058E059F0558F460
:102F700080928E0390928F03A0929003B09291035F
:102F800081E080934B0380917403811116C080917E
:102F9000F203883219F40E94040B0FC0893239F40D
:102FA00060915103809173030E94E51306C08A3239
:102FB00021F4809173030E94E91580914B038823CB
:102FC00009F472C0E0919203EF5FE0939203E8315D
:102FD00031F0F0E0EF53FC4F8785811102C0109271
:102FE00092038091FA039091FB03A091FC03B091AE
:102FF000FD03892B8A2B8B2B09F44EC08091820311
:1030000090918303A0918403B0918503892B8A2B2F
:103010008B2B09F441C00E945406082F10E0209128
:10302000090130910A0136952795369527952C5E32
:103030003F4F2017310770F40E946E1B68517C4F80
:103040008F4F9F4F60938203709383038093840319
:1030500090938503C801880F991F880F991F40918D
:10306000090150910A019A01220F331F240F351FC5
:10307000820F931F969587959695879590930A0151
:10308000809309016091C6037091C7038091C803C2
:103090009091C9030E94FB03809192030E948803D0
:1030A0000E943F1010924B03809150038F3F09F014
:1030B0004DC20E946E1B00914C0310914D03209154
:1030C0004E0330914F03601B710B820B930B693ED3
:1030D00073408105910508F439C20E946E1B60930C
:1030E0004C0370934D0380934E0390934F030E94C3
:1030F00002102CC20E947A1B6B017C018091BE03DE
:103100008430D1F48FE70E944D0300E013E0E0919A
:10311000E903E770F0E0E656FD4F808190E098010A
:1031200020503340281739070CF0E9CD0E94600386
:10313000D8018D938D01EBCFE091E903E770F0E0CA
:10314000E656FD4F40814F5F21E0BE016F5F7F4F2C
:1031500080E20E94AD0A882371F0109350030E9410
:103160006E1B60934C0370934D0380934E039093BA
:103170004F0390E0BCCDE091E903E770F0E0E65644
:10318000FD4F408150E0BE016E5F7F4F80E093E0D5
:103190000E94EA20BBCD882309F410CE10924A0386
:1031A0000DCE982F9873983309F008CE9091F702BE
:1031B000892787FF03CE90589093F7028091F203FE
:1031C000853209F0FBCD10E0212F30E08091000323
:1031D000877090E0821793070CF4F0CD1F5FE12F0A
:1031E000F0E0E050FD4F608182E194E00E94621EB9
:1031F000EBCF8091F70290910003982796FD66C06F
:10320000807C90E489278093F7028091D6023091E8
:10321000D5028317D1F0E8EFF2E020E02F5F90E0D5
:10322000DC01A952BD4F4C91419301968F719927B2
:10323000283011F08313F2CF8093D602295C80915D
:10324000F702282B2093F70241C080917E038093E0
:10325000F8028091EC03863211F482E105C080917E
:10326000EF03863251F48EE00E94C71C9595879536
:10327000959587958093F90202C01092F90280918A
:10328000EE03863211F483E105C08091F0038632AB
:1032900051F48FE00E94C71C959587959595879569
:1032A0008093FA0202C01092FA0280917A03909100
:1032B0007B039093FB028093FC02809178039091B2
:1032C00079039F770E9400038093FD0269E087EFF6
:1032D00092E00E947C050E94EB05811181CD0E9445
:1032E000BD13F9CF8091780390917903880F991FCE
:1032F000909379038093780381E080934B031111BD
:1033000010C0C0928603D0928703E0928803F092A7
:103310008903109282031092830310928403109207
:1033200085031F5F1093510381EC93E00E94BC0161
:10333000640D751D861D971D60938E0370938F031A
:1033400080939003909391035E9A81E00E94520EC5
:103350000E94A50C03C0101709F4A7C08091510367
:10336000882309F410CE809102048823D9F090912B
:103370007303911117C040918603509187036091A8
:1033800088037091890346015701841A950AA60A99
:10339000B70A90E00E942301681579058A059B050C
:1033A00008F4B5C0809104048823D9F09091750386
:1033B000911117C040918603509187036091880353
:1033C0007091890346015701841A950AA60AB70A23
:1033D00090E00E942301681579058A059B0508F491
:1033E000ADC0809103048823D9F0909174039111AA
:1033F00017C04091860350918703609188037091B4
:10340000890346015701841A950AA60AB70A90E073
:103410000E942301681579058A059B0508F492C06E
:103420008091FA039091FB03A091FC03B091FD03FE
:10343000892B8A2B8B2B09F4A6CD80918203909146
:103440008303A0918403B09185030097A105B10582
:1034500009F499CDC81AD90AEA0AFB0AF7FC93CDF8
:103460008091F803829581700E94970680E00E9407
:1034700066040E9441050E946E1B6B017C01209135
:10348000FF0330E0A8EEB3E00E941A20C60ED71E5C
:10349000E81EF91E6894C0F8C0928203D09283039C
:1034A000E0928403F09285036ECD80918E0390911B
:1034B0008F03A0919003B091910324013501481A24
:1034C000590A6A0A7B0A81EC93E00E94BC019B01C5
:1034D000AC01A12FB0E00E94292064157505860576
:1034E000970508F03BCF109279031092780381E0A2
:1034F00080934B0310927D030E94A50C80928E0353
:1035000090928F03A0929003B092910327CF81E015
:10351000809373030E941A0D8091FE030E9448015C
:103520006C0D7D1D8E1D9F1D6160609382037093E5
:103530008303809384039093850334CF81E0809349
:1035400075034FCF81E0809374036ACF6A96E0E100
:103550000C94CB208230E8F4E82FF0E0EE0FFF1F50
:10356000EB5FFB4F71836083813041F08091690094
:103570008C7F842B80936900E89A0895809169007C
:10358000440F551F440F551F837F842B8093690080
:10359000E99A08951F920F920FB60F9211242F935C
:1035A0003F934F935F936F937F938F939F93AF93CB
:1035B000BF93EF93FF938091050490910604892BAC
:1035C00029F0E0910504F09106040995FF91EF912F
:1035D000BF91AF919F918F917F916F915F914F912B
:1035E0003F912F910F900FBE0F901F9018951F9233
:1035F0000F920FB60F9211242F933F934F935F9327
:103600006F937F938F939F93AF93BF93EF93FF93AA
:103610008091070490910804892B29F0E091070418
:10362000F09108040995FF91EF91BF91AF919F919F
:103630008F917F916F915F914F913F912F910F905B
:103640000FBE0F901F9018951F920F920FB60F92FA
:1036500011242F933F938F939F93AF93BF938091A8
:103660000A0490910B04A0910C04B0910D043091C8
:10367000090423E0230F2D3720F40196A11DB11D6D
:1036800005C026E8230F0296A11DB11D2093090451
:1036900080930A0490930B04A0930C04B0930D0440
:1036A00080910E0490910F04A0911004B091110428
:1036B0000196A11DB11D80930E0490930F04A09359
:1036C0001004B0931104BF91AF919F918F913F91DE
:1036D0002F910F900FBE0F901F9018952FB7F89451
:1036E00060910A0470910B0480910C0490910D0478
:1036F0002FBF08953FB7F89480910E0490910F0466
:10370000A0911004B091110426B5A89B05C02F3FCD
:1037100019F00196A11DB11D3FBF6627782F892F93
:103720009A2F620F711D811D911D42E0660F771F58
:10373000881F991F4A95D1F70895CF92DF92EF9293
:10374000FF92CF93DF936B017C010E947A1BEB0108
:10375000C114D104E104F10479F00E947A1B6C1BBE
:103760007D0B683E7340A0F381E0C81AD108E108E0
:10377000F108C851DC4FECCFDF91CF91FF90EF9073
:10378000DF90CF9008950197009739F0880F991F27
:10379000880F991F02970197F1F70895789484B5DF
:1037A000826084BD84B5816084BD85B5826085BD3D
:1037B00085B5816085BDEEE6F0E080818160808323
:1037C000E1E8F0E010828081826080838081816006
:1037D0008083E0E8F0E0808181608083E1EBF0E0CD
:1037E000808184608083E0EBF0E080818160808371
:1037F000EAE7F0E08081846080838081826080835A
:103800008081816080838081806880831092C10084
:103810000895833081F028F4813099F08230A1F04E
:1038200008958630A9F08730B9F08430D1F48091C2
:1038300080008F7D03C0809180008F77809380000F
:10384000089584B58F7702C084B58F7D84BD0895B7
:103850008091B0008F7703C08091B0008F7D8093FE
:10386000B0000895CF93DF9390E0FC01E458FF4F40
:103870002491FC01E057FF4F8491882349F190E0A7
:10388000880F991FFC01E854FF4FA591B491825510
:103890009F4FFC01C591D4919FB7611108C0F89466
:1038A0008C91209582238C93888182230AC0623078
:1038B00051F4F8948C91322F309583238C93888126
:1038C000822B888304C0F8948C91822B8C939FBFA9
:1038D000DF91CF910895A1E0B0E0E1E7FCE10C9425
:1038E000BB20282F30E0F901E859FF4F8491F901FE
:1038F000E458FF4F1491F901E057FF4F0491002362
:10390000C9F0882321F069830E94091C6981E02F96
:10391000F0E0EE0FFF1FE255FF4FA591B4919FB766
:10392000F8948C91611103C01095812301C0812B03
:103930008C939FBF2196E4E00C94D720CF93DF9324
:10394000282F30E0F901E859FF4F8491F901E4583C
:10395000FF4FD491F901E057FF4FC491CC2391F070
:1039600081110E94091CEC2FF0E0EE0FFF1FEC55B7
:10397000FF4FA591B4912C912D2381E090E021F48B
:1039800080E002C080E090E0DF91CF9108958E301A
:1039900008F08E5087702091BD0190E4299F90011E
:1039A0001124822B80937C0080917A008064809324
:1039B0007A0080917A0086FDFCCF8091780020917A
:1039C000790090E0922B0895A0E0B0E0EAEEFCE1EF
:1039D0000C94B7206C017A01EB01E60EF71E00E0B3
:1039E00010E0CE15DF0561F06991D601ED91FC91F3
:1039F0000190F081E02DC6010995080F191FF1CF44
:103A0000C801CDB7DEB7E8E00C94D320611571058D
:103A100089F0DB010D900020E9F7AD01415051091B
:103A2000461B570BDC01ED91FC910280F381E02DE8
:103A30000995089580E090E008950E94061D08957C
:103A4000DC01ED91FC910190F081E02D0995089544
:103A50000F931F93CF93DF93EC016DE00E94201D25
:103A60008C016AE0CE010E94201D800F911FDF9122
:103A7000CF911F910F9108950F931F93CF93DF93D1
:103A8000EC010E94061D8C01CE010E94281D800FB2
:103A9000911FDF91CF911F910F9108950F931F9365
:103AA000CF93DF93EC010E94201D8C01CE010E9478
:103AB000281D800F911FDF91CF911F910F910895C5
:103AC000A1E2B0E0E6E6FDE10C94B3207C01C42E57
:103AD000E52FCB01D22E19A221E02D1510F02AE0FE
:103AE000D22E8E010F5D1F4F8D2C912CA12CB12C4D
:103AF0006C2D7E2FA50194010E946C208C2DD29EEE
:103B000080191124015011098A3010F4805D01C020
:103B1000895CF8018083211531054105510521F0AB
:103B2000C22EE32FCA01E4CFB801C7010E94061DCF
:103B3000A196ECE00C94CF20A0E0B0E0E2EAFDE139
:103B40000C94B720EC016A017B012115310541F489
:103B5000E881F9810190F081E02D642F09951DC065
:103B60002A303105A9F477FF12C06DE20E94201DB2
:103B70008C0144275527BA014C195D096E097F094C
:103B80002AE0CE010E94601D800F911F06C02AE02E
:103B9000B701A601CE010E94601DCDB7DEB7E8E0F7
:103BA0000C94D3200F931F93CF93DF93EC019A01D2
:103BB000AB01662757FD6095762F0E949C1D8C01F6
:103BC000CE010E94281D800F911FDF91CF911F9180
:103BD0000F9108952115310549F4DC01ED91FC9117
:103BE0000190F081E02D642F099508950E94601DD9
:103BF00008959A01462F50E060E070E00E94EA1DAF
:103C000008959A01AB0160E070E00E94EA1D0895FA
:103C1000FC0124853585F901E05CFF4F80819181AD
:103C2000F901EE5BFF4F20813181821B930B8F7373
:103C300099270895FC0184859585FC01E05CFF4F80
:103C400040815181FC01EE5BFF4F208131814217A1
:103C5000530741F00190F081E02DE80FF91F8081BA
:103C600090E008958FEF9FEF0895FC01848595857E
:103C7000FC01E05CFF4F40815181FC01EE5BFF4F96
:103C8000208131814217530779F0A081B181A80FBB
:103C9000B91F8C91208131812F5F3F4F2F733327C4
:103CA0003183208390E008958FEF9FEF0895FC010A
:103CB00081A1882329F0A489B5898C9186FFFBCF47
:103CC00011A20895CF93DF93FC0126853785D90192
:103CD000A05CBF4F8D919C91119701968F7399278E
:103CE000E901CE5BDF4F4881598184179507D9F3ED
:103CF0000D90BC91A02DA20FB31F6C93A685B78524
:103D0000A05CBF4F11969C938E93A689B7892C9186
:103D100081E090E0078C02C0880F991F0A94E2F7B7
:103D2000282B2C9381E081A30488F589E02D8081E4
:103D30008064808381E090E0DF91CF9108950895C1
:103D40001F920F920FB60F9211242F933F934F9310
:103D50008F939F93EF93FF938091C00082FD1CC0CF
:103D60004091C6008091B8049091B90401968F7378
:103D700099272091BA043091BB048217930771F000
:103D8000E091B804F091B904E858FB4F4083909358
:103D9000B9048093B80402C08091C600FF91EF91EE
:103DA0009F918F914F913F912F910F900FBE0F9048
:103DB0001F90189582E194E00E94081E892B11F053
:103DC0000E949F1E08951F920F920FB60F9211240A
:103DD0002F933F938F939F93EF93FF9320917404BE
:103DE00030917504809176049091770428173907F3
:103DF00031F48091C1008F7D8093C10014C0E091A7
:103E00007604F0917704EC5CFB4F2081809176047E
:103E10009091770401968F739927909377048093FC
:103E200076042093C600FF91EF919F918F913F916F
:103E30002F910F900FBE0F901F901895A0E0B0E04B
:103E4000E4E2FFE10C94B320FC011382128288EEBD
:103E500093E0A0E0B0E084839583A683B78386ECEB
:103E600092E0918380837587648757874687318B7B
:103E7000208B138B028BF58AE48AD78AC68AB18E8F
:103E8000A08E938E828E8F85848F8889858F898975
:103E9000868F8A89878F8B8980A3ECE00C94CF2052
:103EA000CF92DF92EF92FF92CF93DF93EC016A0102
:103EB0007B01411581EE580761057105F9F0EC8928
:103EC000FD8981E090E008A002C0880F991F0A9444
:103ED000E2F7808360E079E08DE390E0A70196014E
:103EE0000E946C202150310941095109569547958E
:103EF00037952795211580E1380798F0EC89FD89E1
:103F0000108260E874E88EE190E0A70196010E94BB
:103F10006C20215031094109510956954795379533
:103F20002795E889F9893083EA89FB89208319A2DA
:103F3000EE89FF89408181E090E09C010C8C02C0F9
:103F4000220F331F0A94E2F7422B4083EE89FF8948
:103F500040819C010D8C02C0220F331F0A94E2F7AE
:103F6000422B4083EE89FF8940819C010E8C02C068
:103F7000220F331F0A94E2F7422B4083EE89FF8918
:103F800020810F8C02C0880F991F0A94E2F7809558
:103F900082238083DF91CF91FF90EF90DF90CF90CD
:103FA00008958F929F92AF92BF92CF92DF92EF923D
:103FB000FF920F931F9381E08F9385E08F9387E0AB
:103FC0008F9383E08F9384E08F93E6EC8E2E912C79
:103FD000F2ECAF2EB12CA1ECCA2ED12CB0ECEB2E12
:103FE000F12C04EC10E025EC30E044E354E068E709
:103FF00074E082E194E00E941E1F0F900F900F90DA
:104000000F900F901F910F91FF90EF90DF90CF9046
:10401000BF90AF909F908F9008950E94CE1B0E94FA
:104020005E12CAEDDEE10E9454162097E1F30E9471
:10403000DA1EF9CFA29FB001B39FC001A39F700DFC
:10404000811D1124911DB29F700D811D1124911DA0
:1040500008950E941A20A59F900DB49F900DA49FD3
:10406000800D911D11240895B7FF0C9429200E9402
:104070002920821B930B0895DB018F939F930E944D
:104080002920BF91AF91A29F800D911DA39F900DFC
:10409000B29F900D11240895991B79E004C0991FD7
:1040A000961708F0961B881F7A95C9F78095089592
:1040B000AA1BBB1B51E107C0AA1FBB1FA617B7074E
:1040C00010F0A61BB70B881F991F5A95A9F780956A
:1040D0009095BC01CD010895A1E21A2EAA1BBB1B2D
:1040E000FD010DC0AA1FBB1FEE1FFF1FA217B307C4
:1040F000E407F50720F0A21BB30BE40BF50B661FDA
:10410000771F881F991F1A9469F76095709580959D
:1041100090959B01AC01BD01CF010895052E97FB41
:104120001EF400940E94A52057FD07D00E946C2029
:1041300007FC03D04EF40C94A52050954095309583
:1041400021953F4F4F4F5F4F089590958095709503
:1041500061957F4F8F4F9F4F08952F923F924F92BF
:104160005F926F927F928F929F92AF92BF92CF9207
:10417000DF92EF92FF920F931F93CF93DF93CDB710
:10418000DEB7CA1BDB0B0FB6F894DEBF0FBECDBF88
:1041900009942A88398848885F846E847D848C8459
:1041A0009B84AA84B984C884DF80EE80FD800C8162
:1041B0001B81AA81B981CE0FD11D0FB6F894DEBF45
:1041C0000FBECDBFED010895EE0FFF1F0590F491D6
:1041D000E02D0994FB01DC0102C001900D924150D9
:1041E0005040D8F70895F999FECF92BD81BDF89A55
:1041F000992780B50895262FF999FECF1FBA92BD51
:1042000081BD20BD0FB6F894FA9AF99A0FBE0196B7
:064210000895F894FFCFB1
:104216000000BC04200008409CFF00881300020038
:104226000200020002000200020002000200020078
:104236000200020002000200020002000200200149
:10424600220126022102270323032604260526052A
:104256002B0624072507280729072A80250000059D
:10426600400AA1204EA50020244EA52C2330C012C2
:1042760000001A400AA1204EA5001B1E27522C231F
:10428600308025000005400AA1204EA50020244EBE
:10429600A52C2330004B000006400AD0009D4900A3
:1042A6007B289D492C233000E1000005400A45018A
:1042B600D7DC03B81E0EBF00232E48E801008A4053
:1042C6000A6001555502AD1E20000023C80154584E
:1042D6002074696D656F7574210057616974696E24
:1042E600672062696E640A00476F7420706B740AF7
:1042F600006461746120676F6F640A007363616EA6
:104306006E6572206D6F6465004F70656E4C52531A
:104316006E67205258207374617274696E6720004C
:10432600206F6E20485720005361766564206269CD
:104336006E64206461746120746F20454550524F4D
:104346004D0A004920616D20736C61766500456EEB
:10435600746572696E67206E6F726D616C206D6F29
:10436600646500454550524F4D2064617461206E6E
:104376006F742076616C6964206F722062696E6466
:10438600206A756D70706572207365742C20666F77
:104396007263696E672062696E640A00525820680B
:1043A600616E6700B200F4014C0300070B0C10119C
:1043B6001500091203130E0F000102000000100081
:1043C60000000800200000010000020000000100BB
:1043D600000200000000621EE41C081E351E1A1EA4
:0243E600571E60
:00000001FF
