:100000000C9417060C9425290C9452290C943F0645
:100010000C94BF0C0C943F060C943F060C943F06C6
:100020000C943F060C943F060C943F060C943F063C
:100030000C943F060C943F060C943F060C943F062C
:100040000C947F290C943F060C94172D0C94522D80
:100050000C943F060C943F060C943F060C943F060C
:100060000C943F060C943F06581C5F1C5F1C581CE8
:100070005F1C5F1C5F1C5F1C5F1C5F1C5F1C5F1CA8
:100080005F1C5F1C5F1C5F1C5F1CCD1B5F1C5F1C2B
:100090005F1C5F1C5F1C301B5F1C5F1C5F1C5F1CB8
:1000A0005F1C5F1C5F1C5F1C5F1C5F1C5F1C5F1C78
:1000B0005F1C5F1C5F1CD91BD91BD91BD91BD91B0B
:1000C000D91BD91BD91BD91B5F1C5F1C5F1C5F1C74
:1000D0005F1C5F1C351BD81BD81BD81BD81B5F1C93
:1000E000E91BF11BF91B011C091C111C191C211C0B
:1000F0002B1C351C3F1C491C7C1B3C1B5F1C5F1CC4
:100100005F1C5F1CCD1B5F1C5F1C5F1C5F1C5F1CAA
:100110005F1C5F1C5F1CD71BD71BD71BD71B5F1C2B
:10012000E91BF11BF91B011C091C111C191C211CCA
:100130002B1C351C3F1C491C7C1B3C1B5F1C5F1C83
:100140005F1C5F1CCD1B901C901C901C901C901C75
:10015000901C901C901C901C901C901C901C901C3F
:10016000B01DB01DB01DB01DB01DB01DD71CE11CD1
:10017000EB1CF51C5B1D651D731D841D211E911E4E
:10018000621E671E6C1E711E761E7B1E801E911ED7
:100190008B1EAA25BF25CB25D425E12507260F26B2
:1001A00032261F26456E746572206D656E752E2E83
:1001B0002E00546F67676C6564206D6963726F50C1
:1001C000504D00546F67676C656420696E76657288
:1001D0007465642050504D2100546F67676C6564EE
:1001E000205458206D7574696E672100546F6767DD
:1001F0006C65642074656C656D657472792100505E
:10020000726F746F636F6C206572726F72207769A2
:1002100074682052580054696D656F757420776852
:10022000656E20636F6E6E656374696E6720746FB0
:1002300020525800507265737320616E79206B658F
:100240007920746F2063616E63656C00436F6E6E1E
:10025000656374696E6720746F2052582C20706F2C
:100260007765722075702074686520525820287751
:100270006974682062696E6420706C7567206966B5
:10028000206E6F74207573696E6720616C77617979
:10029000732062696E642900546F67676C6564201F
:1002A00027696D6D656469617465206F757470751B
:1002B000742700546F67676C65642027736C6176E0
:1002C00065206D6F64652700546F67676C656420F7
:1002D00027616C776179732062696E642700546FBF
:1002E00067676C65642050504D206368616E6E6571
:1002F0006C206C696D6974005365742052535349C6
:1003000020696E6A656374696F6E206368616E6EE2
:10031000656C2028303D3D64697361626C6529001D
:100320005365742050504D206D696E696D756D2058
:1003300073796E630053657420626561636F6E202C
:10034000696E74657276616C0053657420626561D4
:10035000636F6E2064656C6179005365742062651B
:1003600061636F6E206672657175656E6379206971
:100370006E20487A3A20303D64697361626C652C66
:100380002050783D504D52206368616E6E656C2040
:10039000782C2046783D465253206368616E6E6526
:1003A0006C2078005365742050574D2073746F7023
:1003B0002064656C61792028302064697361626C07
:1003C00065642C20312D323535203D3D20302E31D5
:1003D00073202D2035306D696E29005365742050CF
:1003E000504D2073746F702064656C6179202830E3
:1003F0002064697361626C65642C20312D3235355F
:10040000203D3D20302E3173202D2035306D696E1A
:100410002900536574206661696C736166652064A8
:10042000656C61792028302064697361626C656451
:100430002C20312D323535203D3D20302E3173209A
:100440002D2035306D696E29002A2A2A2A2A2A2A67
:100450002A2A2A2A2A2A2A2A2A2A2A2A2A2A2A2AFC
:100460002A2A2A2A2A2A0052582041636B656420CE
:100470002D2072657665727420737563636573737E
:1004800066756C21002A2A2A2A2A2A2A2A2A2A2A36
:100490002A2A2A2A2A2A2A2A2A2A2A2A2A2A2A2ABC
:1004A0002A2A002A2A2A2A2A2A2A2A2A2A2A2A2AD6
:1004B0002A2A2A2A2A2A2A2A2A2A2A2A2A2A2A2A9C
:1004C0000052582041636B6564202D207570646173
:1004D0007465207375636365737366756C21002A98
:1004E0002A2A2A2A2A2A2A2A2A2A2A2A2A2A2A2A6C
:1004F0002A2A2A2A2A2A2A2A2A2A2A2A0056616CE1
:1005000069642063686F69636573206172653A206E
:100510005B315D2D5B31365D20286368616E6E65F1
:100520006C20312D31362900536574206F7574703D
:10053000757420666F7220706F727420005B585D56
:100540002061626F7274206368616E6765732061F9
:100550006E64206578697420525820636F6E6669F6
:1005600067005B535D207361766520736574746901
:100570006E677320746F205258005B525D20726565
:10058000766572742052582073657474696E67734F
:1005900020746F2064656661756C747300557365B3
:1005A000206E756D62657273205B312D445D207421
:1005B0006F206564697420706F727473205B452DC1
:1005C000515D20666F722073657474696E67730085
:1005D000202D20726563656976657220636F6E6693
:1005E0006967757261746F722C207278207377203E
:1005F000000A0A6F70656E4C52536E672000536597
:10060000742073657269616C2062617564726174D3
:10061000653A200056616C69642063686F696365A0
:10062000733A2031202D20342B34202F2032202DDE
:100630002038202F2033202D20382B34202F203419
:10064000202D203132202F2035202D2031322B3407
:10065000202F2036202D203136005365742043682A
:10066000616E6E656C20636F6E6669673A20005339
:1006700065742044617461726174652028302D3284
:10068000293A200053657420486F70206368616EBA
:100690006E656C7320286D61782032342C20736570
:1006A0007061726174656420627920636F6D6D6141
:1006B00073292076616C69642076616C756573209E
:1006C000312D3235353A2000536574206368616EF0
:1006D0006E656C2073706163696E672028783130B5
:1006E0006B487A293A200053657420524620706F77
:1006F0007765722028302D37293A20005365742001
:100700005246206D616769632028686578292065F5
:100710002E672E20307844454144463030443A20FC
:10072000005365742062617365206672657175653A
:100730006E63792028696E20487A293A20005B5A36
:100740005D20656E74657220726563656976657299
:1007500020636F6E66696775726174696F6E20756C
:1007600074696C79005B465D20646973706C6179B3
:100770002061637475616C206672657175656E6366
:100780006965732075736564005B525D2063616CFD
:1007900063756C6174652072616E646F6D206B654A
:1007A0007920616E6420686F70206C697374005BDF
:1007B000495D207265696E697469616C697A65204A
:1007C00073657474696E677320746F20736B6574DE
:1007D00063682064656661756C7473005B585D20A6
:1007E000726576657274206368616E6765732061F7
:1007F0006E642065786974206D656E75005B535D6D
:1008000020736176652073657474696E67732074F4
:100810006F20454550524F4D20616E6420657869C8
:1008200074206D656E7500557365206E756D62651B
:100830007273205B302D395D20746F20656469749C
:1008400020706172616D657465727300202D205394
:10085000797374656D20636F6E6669677572617414
:10086000696F6E000A0A6F70656E4C52536E672096
:10087000005129204F7574707574206265666F721F
:1008800065206C696E6B20283D465329203A200074
:10089000502920536C617665206D6F646520286552
:1008A00078706572696D656E74616C293A20004FCD
:1008B000292054696D65642042494E4420617420AA
:1008C0007374617274757020203A20004E29205094
:1008D000504D206F7574707574206C696D69746506
:1008E0006420202020203A200044495341424C45B6
:1008F00044004D292050504D205253534920746FCD
:10090000206368616E6E656C202020203A20004CC8
:10091000292050504D206D696E696D756D20737979
:100920006E63202875732920203A200044495341E2
:10093000424C4544004B29204661696C73616665F1
:1009400020626561636F6E20696E74762E20283197
:100950002D32353573293A20004A29204661696CC9
:100960007361666520626561636F6E2064656C61AA
:10097000792028302D323535203D3E20313073200E
:100980002D203135306D696E293A200049292046E5
:1009900061696C7361666520626561636F6E206674
:1009A00072712E203A200048292050574D20737430
:1009B0006F702064656C6179202020202020203A0F
:1009C000200047292050504D2073746F70206465BB
:1009D0006C6179202020202020203A200046292008
:1009E0004661696C736166652064656C617920207D
:1009F00020202020203A200050574D206368616E4F
:100A00006E656C200066756E6374696F6E3A2000C7
:100A10002920706F72742000506F776572546F7761
:100A2000657200445446205548462033322D626991
:100A3000742031306368004F70656E4C52536E679E
:100A40005258206D696E6920342F36636800466CF9
:100A50007974726F6E2F4F72616E676552582055B0
:100A600048462038636800525820747970653A20EF
:100A70000044697361626C656400487A00203D3D02
:100A8000200043616C63756C617465642070616300
:100A90006B657420696E74657276616C3A200042F1
:100AA00029204D6963726F202868616C6629205087
:100AB000504D202020203A00412920496E76657251
:100AC0007465642050504D20696E20202020203A0B
:100AD000003029204D7574652062757A7A65722020
:100AE000286D6F73746C79293A0039292053657227
:100AF00069616C2062617564726174653A00736D3E
:100B0000617274506F7274004672536B7900547244
:100B1000616E73706172656E740044697361626CBA
:100B200065640038292054656C656D657472793A86
:100B300020202020202020003729204368616E6E6D
:100B4000656C20636F6E6669673A20200036292045
:100B500044617461726174652028302D32293A2015
:100B6000202000352920486F70206368616E6E6513
:100B70006C733A2020202020003429204368616EC5
:100B80006E656C2073706163696E673A2020003374
:100B90002920524620706F7765722028302D372922
:100BA0003A202020003229205246206D6167696377
:100BB0003A202020202020202020003129204261BE
:100BC0007365206672657175656E63793A202020C1
:100BD0000000000000240027002A0000000000257B
:100BE0000028002B0000000000230026002900043C
:100BF00004040404040404020202020202030303C4
:100C000003030301020408102040800102040810BD
:100C1000200102040810200000000700020100006B
:100C2000030406000000000000000000FA2E11245A
:100C30001FBECFEFD8E0DEBFCDBF13E0A0E0B1E034
:100C4000E6E3F0E602C005900D92A639B107D9F7A8
:100C500016E0A6E9B3E001C01D92A935B107E1F79E
:100C60001CE0CEE2DCE004C02297FE010E94F62FD9
:100C7000CC32D107C9F70E943F2F0C9419300C9445
:100C80000000A0E0B0E0E7E4F6E00C94C52FEC0132
:100C9000A880B980CA80DB80A114B104C104D1044A
:100CA00041F484E2A82E89EDB82E8BE5C82E87E0AA
:100CB000D82EC601B5012DE133EF41E050E00E948E
:100CC000A22F27EA31E440E050E00E944E2F7B0142
:100CD0008C01C601B5012DE133EF41E050E00E94E7
:100CE000A22FCA01B9012CEE34EF4FEF5FEF0E9443
:100CF0004E2F6E0D7F1D801F911F97FF04C0615006
:100D0000704080409048688379838A839B839B01ED
:100D1000AC015F77B901CA01CDB7DEB7EAE00C9448
:100D2000E12F0E944106089581EB92E00E94410666
:100D300008956093B1027093B2028093B3029093CE
:100D4000B4020895A0E0B0E0E8EAF6E00C94BE2F0B
:100D5000EC012B016A016115710519F0FB0191830A
:100D60008083C114D10449F0C6010297839728F00B
:100D700020E030E040E050E0DCC0A9908A2D90E017
:100D80000E940E30892BC9F7FDE2AF1621F4A9901D
:100D90003324339405C08BE2A81609F4A9903324B8
:100DA000C114D10421F0E0E1CE16D10411F5F0E335
:100DB000AF1669F48881883711F0883541F4A9802D
:100DC000229682E0382A20E1C22ED12C12C0C11412
:100DD000D10479F4E0E3AE1659F199E9E92E99E9E5
:100DE000F92E99E9092F99E1192F8AE0C82ED12C03
:100DF0003AC0FAE0CF16D10491F080E1C816D104D0
:100E000029F0E8E0CE16D104F9F415C0BFEFEB2EBF
:100E1000BFEFFB2EBFEF0B2FBFE01B2F24C0A9E9B4
:100E2000EA2EA9E9FA2EA9E90A2FA9E11A2F1BC077
:100E3000F8E0CF2ED12CEFEFEE2EEFEFFE2EEFEFFE
:100E40000E2FEFE11E2F0FC09601442737FD40956E
:100E5000542F6FEF7FEF8FEF9FEF0E94802FC9011C
:100E6000DA017C018D0120E030E040E050E060E0FC
:100E70003601882477FC8094982C70EDB72EBA0C3C
:100E8000F9E0FB1570F48A2D81548A3118F499EC3D
:100E9000B92E06C08A2D81568A3148F589EAB82EC6
:100EA000BA0C8B2D90E08C159D050CF56F3FE9F089
:100EB000E216F30604071507B8F0CA01B901A40148
:100EC00093010E944E2F9B01AC018B2D90E0A0E07E
:100ED000B0E0280F391F4A1F5B1F281739074A0740
:100EE0005B0710F061E001C06FEFA990C6CF41141D
:100EF000510451F0662311F0219703C031FE04C064
:100F00002297F201D183C08330FE07C050954095EF
:100F1000309521953F4F4F4F5F4F67FF0AC082E2E8
:100F200090E090935806809357062FEF3FEF4FEFD6
:100F30005FEFB901CA01CDB7DEB7E1E10C94DA2F5A
:100F4000FC0188279927E89421912032E9F3293080
:100F500010F02E30C8F32B3241F02D3239F4689462
:100F600004C00E94F507820F911D219120532A3061
:100F7000C0F31EF4909581959F4F089546E953E084
:100F80000E94C3070895009731F4DA018D919C9176
:100F9000009709F40EC0DC01FB013D912191222351
:100FA00019F03217C9F3FACF332331F4DA011D9265
:100FB0001C928827992708951197AF93BF93FB013F
:100FC0003D912191321771F4332321F48827992719
:100FD000119702C01E921196FA01A193B0839F91BE
:100FE0008F910895222369F7EACF7AE0979F902D99
:100FF000879F802D910D1124089580919803813051
:1010000019F482E08093980380919803833019F457
:1010100084E0809398030895E3E0F0E089E0809312
:101020005700849190E08670863009F491E0892F12
:1010300008951F93182F0E940C08882379F09FB7FA
:1010400081E080939F05F894A89588E180936000E3
:1010500010936000112309F0A8959FBF1F91089578
:10106000382F20E080913105909132058227932717
:1010700040E061E270E19C01220F331F97FF04C042
:10108000C9018627972701C0C9014F5F483099F7EA
:101090009093320580933105089587E38093CE03C2
:1010A00080E092ECA1E0B0E08093CF039093D00376
:1010B000A093D103B093D20387E08093DB0380EC4D
:1010C00092E9ADEEB9E18093D3039093D403A0935A
:1010D000D503B093D60385E08093DC038DEE9EEFBD
:1010E000ADEABEED8093D7039093D803A093D903C4
:1010F000B093DA03ADEDB3E080E090E0863010F01D
:10110000E0E004C0FC01E058FC4FE081ED93019663
:101110008831910599F782E08093F5038AE0809306
:10112000F603089580EC91EDA8E9BBE180939B0361
:1011300090939C03A0939D03B0939E0380E090E066
:10114000A0E0B0E580939F039093A003A093A10338
:10115000B093A203E3EAF3E080E081938F5F8031F4
:10116000E1F708958436910520F4BC0180E090E019
:1011700025C08E3B910550F48A559040BC0180E01B
:1011800090E02AE030E040E050E016C0823D91055A
:1011900050F4845B9040BC0180E090E024E630E0B5
:1011A00040E050E009C08D5C9040BC0180E090E0E0
:1011B00028E532E040E050E00E944E2F24E630E087
:1011C00040E050E00E944E2F089590E08C599F4FD0
:1011D0000E94B2080895DC019896EC91F0E0E77067
:1011E000F070E858FC4F808108958F929F92AF92E3
:1011F000BF92CF92DF92EF92FF920F931F938C01D9
:101200000E94EB08D80197962C9130E043E150E022
:10121000249FF001259FF00D349FF00D1124EB5415
:10122000FD4F80809180A280B38090E00F96AA2726
:1012300097FDA095BA2FBC01CD0120E43FE14DE719
:1012400050E00E944E2FA50194010E94802F690159
:101250007A0180ED97E0A0E0B0E0C80ED91EEA1E4A
:10126000FB1ED80198968C91887181F060E07EEE2B
:101270008AEB9BE0A50194010E94802F28513C4FEE
:101280004F4F5F4FC20ED31EE41EF51E87EE93E054
:10129000A0E0B0E0C80ED91EEA1EFB1EC701B601D1
:1012A00028EE33E040E050E00E94802FCA01B901EF
:1012B00028EE33E040E050E00E944E2F1F910F9146
:1012C000FF90EF90DF90CF90BF90AF909F908F9066
:1012D00008958F3F910509F010F480E0089522E011
:1012E0008030920710F481E008958050934010F010
:1012F00083E0089582E00895CF92DF92FF920F93EA
:101300001F93CF93DF93F82FEB016A01182F1695E7
:10131000E0E088819981D6018C938A819B81119626
:101320008C9311978C819D8112968C9312978E814C
:101330009F8113968C931397288139814A815B8111
:101340006C817D818E819F819295990F990F907C00
:10135000832F8370982B852F8370880F880F982B8D
:10136000872F83708295807F982B14969C9385E0BD
:1013700090E0C80ED91E2896EF5F1E1750F6F0FFBA
:1013800021C0888199810E946909F82E8A819B81F8
:101390000E946909182F8C819D810E946909082F7C
:1013A0008E819F810E946909F294FF0CFF0C70EC02
:1013B000F7221295107F1F29182B000F000F012B09
:1013C000D6010C93DF91CF911F910F91FF90DF9089
:1013D000CF90089523E08032920718F420E030E0A7
:1013E00026C023E0883E920748F49C012F513340E9
:1013F00054E0369527955A95E1F719C027E0803DCE
:10140000920720F49C012C5D334011C028E08839FC
:10141000920718F02FEF33E00AC09C01285C374098
:1014200044E0369527954A95E1F72D503C4FC90188
:1014300008958C30910548F49C0174E0220F331F0D
:101440007A95E1F7285D3C4F17C023E0843F92076F
:1014500020F49C0124523C4F0FC024E080309207BE
:1014600018F020E938E008C09C012657334F64E0AB
:10147000220F331F6A95E1F7C90108959C01369543
:10148000279525753575821B930B9C0136952795FD
:10149000369527952373337383739373280F391FFE
:1014A000C901E4E096958795EA95E1F7820F931FCD
:1014B0008F709F7021E031E0AC01429FC001439FDB
:1014C000900D529F900D1124892F0895882339F093
:1014D0005A980000419A00005A9A000008955A98BC
:1014E0000000419800005A9A000008955A9A00009E
:1014F00086B15A980000817008950F931F93082FAA
:101500005C9A5A985C9810E0802F80780E94660A56
:10151000000F1F5F1830C1F75A981F910F9108955F
:101520008F770E947D0A08950F931F93082F10E074
:10153000802F80780E94660A000F1F5F1830C1F765
:101540005A981F910F9108950F931F935A9880E016
:1015500000E0182F110F0E94760A810F0F5F0830EC
:10156000C1F71F910F9108950E94900A0E94A40A4A
:101570005C9A08951F93162F80680E947D0A812F20
:101580000E94940A5C9A1F9108951F931091D703AB
:101590001827EEECF3E0E80FF11D89E767850E945C
:1015A000BA0A8DE3612F0E94BA0A82E4612F0E9479
:1015B000BA0A1F91089586E20E94B40A08950F9313
:1015C0001F938C018CE1F80164810E94BA0A8DE1BD
:1015D000F80165810E94BA0A8EE1F80166810E94D5
:1015E000BA0A80E2F80167810E94BA0A81E2F80132
:1015F00060850E94BA0A82E2F80161850E94BA0AF7
:1016000083E2F80162850E94BA0A84E2F8016385E8
:101610000E94BA0A85E2F80164850E94BA0A8AE249
:10162000F80165850E94BA0A8EE6F80166850E9477
:10163000BA0A8FE6F80167850E94BA0A80E7F801C6
:1016400060890E94BA0A81E7F80161890E94BA0A9A
:1016500082E7F80162890E94BA0A1F910F910895EA
:10166000EF92FF920F931F93CF93DF937B018C0137
:10167000603028E372072CE982072CE1920728F5F5
:1016800020E836E948E950E00E94802FE901689798
:10169000B90180E090E020E839E647E65FEF0E947C
:1016A0004E2F6E0D7F1D801F911F22E0660F771F4A
:1016B000881F991F2A95D1F721E732E040E050E0DA
:1016C0000E94802F890180E421C020E03DE241E3B7
:1016D00051E00E94802FE9016897B90180E090E015
:1016E00020E033ED4EEC5EEF0E944E2F6E0D7F1D1D
:1016F000801F911F660F771F881F991F21E732E017
:1017000040E050E00E94802F890180E69E012F7109
:10171000622F680F85E70E94BA0A86E7612F0E9450
:10172000BA0A87E7602F0E94BA0ACDB7DEB7E6E0B3
:101730000C94E52F682F8DE60E94BA0A08959F92B7
:10174000AF92BF92CF92DF920F93DF93CF9300D0EF
:1017500000D0CDB7DEB7982E83E00E94B40A809304
:10176000F70384E00E94B40A8093F80386E060E007
:101770000E94BA0A87E061E00E94BA0A89E06FE736
:101780000E94BA0A8AE065E00E94BA0A8BE062E130
:101790000E94BA0A8CE065E10E94BA0A8DE06DEF02
:1017A0000E94BA0A8EE060E00E94BA0A992019F0FD
:1017B00084E193E008C08091F50323E1829FC0019A
:1017C00011248B549D4F0E94DF0A80E36CE80E9435
:1017D000BA0A82E36FE00E94BA0A83E362E40E94DD
:1017E000BA0A84E36AE00E94BA0A85E36AE20E94C8
:1017F000BA0A86E36DE20E94BA0A87E364ED0E94AA
:10180000BA0A88E360E00E94BA0A89E360E00E94B5
:10181000BA0A992049F055E8A52E51ECB52E51ECA5
:10182000C52E5EEDD52E08C0A090D703B090D8038A
:10183000C090D903D090DA030AE38D2D9927AA2707
:10184000BB2789839A83AB83BC83802F69810E94E5
:10185000BA0A802F8B5F69810E94BA0ADC2CCB2CDC
:10186000BA2CAA240F5F0E3341F783E46FEF0E9476
:10187000BA0A84E46FEF0E94BA0A85E46FEF0E940F
:10188000BA0A86E46FEF0E94BA0A992019F08DE631
:1018900066E003C08DE66091DB030E94BA0A89E727
:1018A00060E00E94BA0A8AE76091DC030E94BA0AEB
:1018B00083E760E00E94BA0A84E760E00E94BA0A07
:1018C000992029F060EC72E98DEE99E108C06091F1
:1018D000D3037091D4038091D5039091D6030E94D5
:1018E000300B0F900F900F900F90CF91DF910F91D1
:1018F000DF90CF90BF90AF909F90089587E061E018
:101900000E94BA0A8EE764E20E94BA0A88E063E0A5
:101910000E94BA0A88E060E00E94BA0A87E065E0A7
:101920000E94BA0A85E062E00E94BA0A83E00E943F
:10193000B40A8093F70384E00E94B40A8093F8030A
:101940000895582F40919C04842F90E0FC01EF7083
:10195000F0709F012F5F3F4F64E0959587956A95E2
:10196000E1F72817390751F0E457FB4F5083842FD4
:101970008F5F8F70407F842B80939C0408951F920B
:101980000F920FB60F921124EF92FF920F931F93B5
:101990002F933F934F935F936F937F938F939F9377
:1019A000AF93BF93EF93FF93E0909F03F090A0035A
:1019B0000091A1031091A20386B1A80197012074A0
:1019C00030704070507090E065E0969587956A950C
:1019D000E1F7A0E0B0E081709070A070B0702817BF
:1019E00039074A075B0709F46AC0209184003091E7
:1019F000850010928500109284008091BF04882396
:101A000009F05DC0E5FC02C03695279589E0253CCC
:101A10003807C8F180914703A8019701BCE15695AA
:101A2000479537952795BA95D1F721153105410589
:101A3000510521F421E030E040E050E090E0A0E0EA
:101A4000B0E0281739074A075B07D0F480914703B5
:101A50008F3FB1F020E00EC0E22FF0E0EE0FFF1F4D
:101A6000DF01A054BB4F8D919C91E95DFC4F9183A8
:101A700080832F5F80914703281770F31092BE0474
:101A8000109247031CC082E02D3B3807A8F08091DC
:101A90004703803188F410914703C9010E94EA0985
:101AA000E12FF0E0EE0FFF1FE054FB4F91838083A6
:101AB0001F5F1093470303C08FEF80934703FF918D
:101AC000EF91BF91AF919F918F917F916F915F91B6
:101AD0004F913F912F911F910F91FF90EF900F9099
:101AE0000FBE0F901F90189583E0809380008AE1CD
:101AF000809381008FEF9FEF9093890080938800FF
:101B000010926F0080E280936C00E8E6F0E0808144
:101B10008260808308956F3018F08695805808950C
:101B200089E0689F802D11240895E82FF0E0E656A3
:101B3000FC4FE185E03118F0E0E0F2E00AC0F894F3
:101B4000F0E0EE0FFF1FE95DFC4F0190F081E02D0A
:101B50007894CF010895882319F460E071E002C001
:101B600063E071E085E396E00E94022D0895A0E015
:101B7000B0E0EDEBFDE00C94C72F182F0E94D529A3
:101B80009B01AC0180912B0590912C05A0912D0516
:101B9000B0912E0569017A01C81AD90AEA0AFB0A2E
:101BA000D701C60189589341A040B04010F010926F
:101BB0002A0520932B0530932C0540932D05509337
:101BC0002E052091BF04822F81508230E8F580914C
:101BD0002A05882309F44FC1813011F482E0BCC189
:101BE000803108F035C1E82FF0E0E054FB4F10835E
:101BF0008F5F80932A05803109F0B0C1A2ECB4E078
:101C0000213039F41196EC911197E695E6958C9177
:101C100009C08D919C911197E92FE695E695E6957F
:101C200096958795E03140F4F0E090E0EE0FFF1FCD
:101C3000E95DFC4F918380831092BE04129684E08C
:101C4000A03DB807E9F68AC1233009F004C18091AC
:101C50002A05882321F41F3009F080C10CC1883186
:101C600030F4E82FF0E0E154FB4F108374C1883169
:101C700009F0EEC0112309F0EBC0C0E0D0E00BE0AA
:101C800010E0DE0163E0AA0FBB1F6A95E1F7C09F79
:101C9000B001C19F700DD09F700D1124FB01E05465
:101CA000FB4F80812181922F977095958795FD013B
:101CB000EE0FFF1FE95DFC4F91838083FB01EF5323
:101CC000FB4F30813695369536952181422F4295CE
:101CD000440F407E842F832B269526952695922FA0
:101CE000977095958795FD01EE0FFF1FE75DFC4FFF
:101CF00091838083FB01EE53FB4F80818295869513
:101D0000869583704181942F990F990F292F282B45
:101D1000429546954695437082818170880F880F61
:101D2000382F342B35952795FD01EE0FFF1FE55D0C
:101D3000FC4F31832083FB01EC53FB4F3081369500
:101D40002181422F479544274795842F832B269541
:101D5000922F977095958795FD01EE0FFF1FE35D1C
:101D6000FC4F91838083FB01EB53FB4F3081329515
:101D70003F702181422F4295407F842F832B2295F3
:101D80002F70922F977095958795FD01EE0FFF1F8D
:101D9000E15DFC4F91838083FB01EA53FB4F80811F
:101DA000881F8827881F4181942F990F292F282B5E
:101DB000441F4427441F82818370880F382F342B9F
:101DC00035952795FD01EE0FFF1FEF5CFC4F31832A
:101DD0002083FB01E853FB4F3081369536952181F6
:101DE000422F4295440F440F407C842F832B26952D
:101DF0002695922F977095958795AA0FBB1FFD0189
:101E0000ED5CFC4F9183808367537B4FFB01208106
:101E10002295269527704181342F330F330F330FCE
:101E2000832F822B942F92959695977095958795F1
:101E3000AB5CBC4F11969C938E932196C230D1051A
:101E400009F01FCF8091D60483FD02C01092BE041A
:101E500010922A0583C0243009F080C040912A05E1
:101E6000442359F4183AB1F4109232051092310516
:101E700088EA0E94300881E06FC0413019F4109365
:101E80002F0504C0423031F410933005812F0E9499
:101E900030085DC060913005262F30E0220F331FDF
:101EA000E42FF0E0C90102968E179F0734F0433209
:101EB00068F7E354FB4F1083E9CF2D5F3F4F40910C
:101EC000310550913205E217F30749F4912F80E074
:101ED00048275927509332054093310538C0812F48
:101EE00090E04817590789F580912F05813069F5F1
:101EF000613118F080E180933005D090300510EC0E
:101F0000E12E14E0F12E00E010E01BC0F701D081BB
:101F1000C0E0818190E08C2B9D2BB3E09695879556
:101F2000BA95E1F70E94EA09F801EE0FFF1FE95D9B
:101F3000FC4F918380830F5F1F4F82E090E0E80E9B
:101F4000F91E0D1518F31092BE0410922A05809107
:101F50002A05882319F08F5F80932A05CDB7DEB755
:101F6000E8E00C94E32FFF920F931F93CF93DF933E
:101F7000182F092FF62E8EE30E94BA0A212F302F38
:101F8000C901EC0110E005C08FE769910E94BA0A0F
:101F90001F5F1F15C8F385E064E00E94BA0A83E062
:101FA0000E94B40A8093F70384E00E94B40A8093ED
:101FB000F8030E94D5296093F9037093FA03809384
:101FC000FB039093FC0387E069E00E94BA0A81E07A
:101FD00080939803CDB7DEB7E5E00C94E62F0E941E
:101FE000B30F809198038130D9F40E94D5292091B4
:101FF000F9033091FA034091FB035091FC03621BFB
:10200000730B840B950B605A76488140904040F4E6
:10201000E8CF85E396E067E071E00E94022D089525
:10202000809198038130A9F3089585E396E06EE7E7
:102030000E94BA2E0895A0E0B0E0E1E2F0E10C9435
:10204000C62F6C0185E396E06EE70E94BA2E7601FA
:1020500000E010E0C0E0D0E0B0E2BB2E0AC00830E3
:10206000110521F49E012095F60120870894E11CBA
:10207000F11CF7016081862F8D57823040F485E393
:1020800096E06DE70E94BA2EF70160816B2585E32B
:1020900096E00E94BA2E0115110551F0F7018081DA
:1020A0009E01280F311DC32FDD27C20FD31FD07013
:1020B0000F5F1F4F0930110591F6CDB7DEB7E9E08C
:1020C0000C94E22FA9E0B0E0E8E6F0E10C94CD2F0B
:1020D000382FE62F8091A10490E0019664E270E031
:1020E0000E946D2F982F8093A10488E9898380E155
:1020F0008A83913071F0913028F0923099F09330CA
:10210000E1F416C085E08B8381EF8C832F5F2D83F4
:1021100017C09B8381EF8C8384E6489FC001112404
:102120009D830EC084E08B8381EF8C833D8308C048
:102130009B8381EF8C83ED8303C00E94151004C044
:10214000CE0101960E941B102996E2E00C94E92F23
:102150000F931F93CF93DF93182F092F85E396E0FA
:102160006EE70E94BA2E212F302FC901EC0110E03A
:1021700000E288818D57823040F485E396E06DE778
:102180000E94BA2E88818027888385E396E0699132
:102190000E94BA2E1F5F193061F785E396E06EE763
:1021A0000E94BA2EDF91CF911F910F910895A9E05F
:1021B000B0E0EDEDF0E10C94CD2F382F8091A1042B
:1021C000882379F48EEF89833A836B83842F90E0A0
:1021D000959587958C832D83198618861F821E827C
:1021E0002FC040919C04842F90E09C012F70307090
:1021F00054E0959587955A95E1F78217930721F159
:102200008DEF89831A821B82DE01149620E008C0BC
:10221000E457FB4F80818D93405F2F5F263069F03C
:10222000842F90E0FC0134E0F595E7953A95E1F7CD
:102230008F709070E817F90759F740939C042A8330
:10224000CE0101960E94A8108091A10490E0019611
:1022500066E070E00E946D2F8093A1042996E2E071
:102260000C94E92F9F92AF92BF92CF92DF92EF92A0
:10227000FF920F931F93B82EA62ED42EC22E902E0F
:102280000E94D5297B018C0180918B0420919D04B3
:1022900030919E0440919F045091A0048823B1F096
:1022A000D801C701821B930BA40BB50B815E9E4224
:1022B000A040B04020F12C2DDC1408F42D2D8B2DE6
:1022C0006A2D422F292D0E94621011C0D801C7012A
:1022D000821B930BA40BB50B81539547A040B040D4
:1022E00070F08B2D6A2D4D2D2C2D0E94D710E09271
:1022F0009D04F0929E0400939F041093A0041F91EC
:102300000F91FF90EF90DF90CF90BF90AF909F9094
:10231000089585E396E06091FE030E94BA2E089529
:102320001F93182F85E396E0612F0E94BA2E8091AB
:10233000FE0381278093FE031F9108951F93192F99
:102340000E949011812F0E9490111F910895DF9299
:10235000EF92FF920F931F93D82E7B011092FE03F2
:1023600005E316E0C80165EB0E94BA2EC80162E6DB
:102370000E94BA2E8D2D0E949011C7010E949E11BD
:102380001F910F91FF90EF90DF9008958EE060E035
:102390000E945A2A8FE061E00E945A2A82E061E09E
:1023A0000E945A2A83E060E00E945A2A84E061E099
:1023B0000E945A2A0895892B19F089E061E002C031
:1023C00089E060E00E94C62A0895A0E2B0E0EBEE4A
:1023D000F1E10C94C52F8CE00E94B40A882379F5B2
:1023E00085E396E063E171E00E94022D2C9A80E083
:1023F0000E949F0B0E947E0C2C9821C085E396E0E2
:102400000E94812E482F8091BF04882321F0842FC1
:102410000E94B70D14C080912805E82FF0E0319696
:102420009F012F71307031978091270590E0281718
:10243000390729F0E250FB4F40832093280585E3BC
:1024400096E00E94472E892BC9F68091980384302C
:1024500009F08EC00E94D5296093AE047093AF043A
:102460008093B0049093B1046115710581059105C5
:1024700061F481E090E0A0E0B0E08093AE0490933E
:10248000AF04A093B004B093B1048091BA049091CA
:10249000BB0481609093BB048093BA0483E0809373
:1024A00098038FE70E94900A05EF14E00E94A40AA7
:1024B000F80181938F01F4E00E3F1F07B9F74091B7
:1024C000E0048091F504282F30E0842F90E08227EB
:1024D000932786FF40C080E448274093E004C90169
:1024E00088739070C89709F510E014C01F5F809141
:1024F000F603E12FF0E084FF06C0EB50FB4F808134
:102500000E94A10C07C0EB50FB4F85E396E0608171
:102510000E94BA2E212F30E08091F50490E0877060
:1025200090708217930714F716C02F733070232B07
:1025300091F48091F6048093B2048091F704809323
:10254000B4048091F8048093B5048091FB048093D7
:10255000BC041092BD0480912905813019F482E0F9
:102560008093290580912905833011F41092290563
:102570000E94D5295B016C018091B6049091B7044B
:10258000A091B804B091B9040097A105B105C9F0B4
:1025900086017501E81AF90A0A0B1B0BD801C7015D
:1025A000885B9B40A040B04060F00E94DB0A8093B3
:1025B000B3041092B6041092B7041092B8041092AB
:1025C000B9048EEC93E00E94F5082091AA043091A2
:1025D000AB044091AC045091AD0486017501E21A40
:1025E000F30A040B150BE616F7060807190708F49B
:1025F00024C1A092AA04B092AB04C092AC04D092C1
:10260000AD04A8958091BE048830A0F080919F030E
:102610009091A003A091A103B091A203ECE1B69523
:10262000A79597958795EA95D1F70097A105B105EC
:1026300009F0A2C18091BE048F5F8093BE04E09038
:10264000AE04F090AF040091B0041091B104E11415
:10265000F1040105110511F18EEC93E00E94F508DB
:10266000AE18BF08C00AD10A6A157B058C059D0506
:1026700088F480919F0384FD04C080ED97E00E9460
:10268000DB111092AE041092AF041092B0041092BD
:10269000B10404C080E090E00E94DB119091E0045E
:1026A000907C9093E0040091280510912705011774
:1026B000B1F180912905823091F590589093E00412
:1026C0008EEC93E00E94EB08893010F048E002C0E5
:1026D000482F415030E013C03F5FA32FB0E0812F5F
:1026E00090E0FC01E250FB4F2081FD01E052FB4FE6
:1026F0002083A25EBA4F2C930196182F1F713417B6
:1027000010F4101749F710932705832F895C9091D7
:10271000E004892B8093E00430931E051AC02091B9
:1027200029052430D1F490911E05EFE1F5E0A1EEEA
:10273000B4E0292F30E02E0F3F1F02C081918D930E
:10274000E217F307D9F7995C8091E004982B9093F6
:10275000E00483E08093290536C08091A50482308F
:1027600059F491609093E0042C9A03EA13E07E01FF
:102770000894E11CF11C10C09093E0042C982223D3
:1027800019F481E08093290580912905833069F748
:1027900084E080932905E9CFF80181918F010E949F
:1027A000950DF701819391937F01F3E0033B1F07A0
:1027B00099F78091F6038770BE016F5F7F4F41EEFE
:1027C00054E00E947C092B9A2091A3042223A1F0BB
:1027D0009091DB03992381F08091A4048F5F809313
:1027E000A4048150821729F41092A404892F8150E7
:1027F00001C0892F0E949A0B8091A2040E94C50AF1
:102800008EEC93E00E94EB08682F80EE94E00E942B
:10281000B30FE091A204EF5FE093A204E83131F03E
:10282000F0E0E253FC4F8785882339F41092A2042C
:1028300004C02C9A89E08093BE048091F6038871CD
:1028400071F180919803823051F58091BA04909192
:10285000BB04880F991F9093BB048093BA0483E054
:10286000809398030E947E0C0E94D5296093B60441
:102870007093B7048093B8049093B90461157105FF
:102880008105910561F481E090E0A0E0B0E08093E3
:10289000B6049093B704A093B804B093B9048091A0
:1028A000F60384FF1EC08091BA049091BB048E7F12
:1028B0000E943E0A182F8091B2046091BC040E94CD
:1028C0008B0D082F8091B304612F0E948B0D282F50
:1028D0008091B4046091B504402F009199030E9447
:1028E00032112B988091A5048130D1F0813020F0F5
:1028F000823009F047C034C08AE00E94F92A892B4F
:1029000009F040C081E08093A5040E94C72960932C
:10291000A6047093A7048093A8049093A90432C0DE
:102920008AE00E94F92A892B21F50E94C72920916B
:10293000A6043091A7044091A8045091A904621BF9
:10294000730B840B950B695E734080409040D0F010
:1029500082E08093A50480ED97E00E94DB1112C015
:102960008AE00E94F92A892B69F080E090E00E94B9
:10297000DB111092A50406C08091BE04883009F0D6
:1029800059CF57CFA096EAE00C94E12F89E061E09F
:102990000E945A2A89E060E00E94C62A08951F9387
:1029A000182F0E94D52960939D0470939E048093F4
:1029B0009F049093A00410938B04112329F440E802
:1029C00055E260E070E004C040E051EE60E070E08D
:1029D00085E396E00E94C02D1F910895ACE1B0E020
:1029E000E4EFF4E10C94C52F0E94D5297B018C0102
:1029F00081E00E949F0BB4E7AB2E6E010894C11CCE
:102A0000D11CA3E0BA2EA982C60161E00E94EF0F9B
:102A1000B09298030E947E0C6AEF70E080E090E034
:102A20000E94FB2980919803833009F07DC085E3E3
:102A300096E00E94472E892B09F076C00E94D52986
:102A40006E197F09800B910B6058734C894C914033
:102A500008F06AC0D8CF8FE70E94900A0E94A40AAB
:102A6000843509F05CC089830E94A40A182F00E015
:102A700010938A04009389040E94A40A080F111D70
:102A800010938A04009389040E94A40A8093880406
:102A90000E94A40A80938704813108F040C0FF247B
:102AA00007C00E94A40A09591B4FF8018083F394C0
:102AB0000F2D10E08091870490E0880F991F081770
:102AC000190778F380E78983CE01019661E00E94BF
:102AD000EF0F83E0809398030E947E0C62E370E026
:102AE00080E090E00E94FB29809198038330A9F058
:102AF0008FE70E94900A0E94A40A803581F489839E
:102B000003EB13E00E94A40AF80181938F01F3E024
:102B10000E3C1F07B9F781E003C082E001C083E0EB
:102B20006C96EAE00C94E12F80919803833009F0D1
:102B300092CFF3CF83E00E94B40A8093F70384E03E
:102B40000E94B40A8093F80387E061E00E94BA0A09
:102B50006AE070E080E090E00E94FB290E947E0C19
:102B6000000008950F931F93082F17C02C9A64E656
:102B700070E080E090E00E94FB292C9864E670E011
:102B800080E090E00E94FB291F5F101778F36CE251
:102B900071E080E090E00E94FB2910E0F6CF482F22
:102BA000392F25E00DC0F999FECF1FBA842F932F3E
:102BB00092BD81BD60BD0FB6F894FA9AF99A0FBE26
:102BC000215059F0F999FECF842F932F92BD81BDEA
:102BD000F89A80B5681739F7089582E00E94B21517
:102BE0000895A0E0B0E0E7EFF5E10C94BE2F482E89
:102BF000562ECC24DD24EE24FF2488249924C0E022
:102C0000D0E046E4342E04C0CC24DD245524539473
:102C1000442069F480919903839DE00111243AE9ED
:102C2000E32E33E0F32E29E1822E912C1DC021E00A
:102C3000421671F480919903839DE00111246B96F3
:102C40009EECE92E93E0F92E89E2882E912C0CC09F
:102C500032E0431649F409E9E02E03E0F02E11E0DA
:102C6000812E912CC8E1D1E03E016C0C7D1C1092AC
:102C7000320510923105E3011BC0552059F4F99932
:102C8000FECFD2BDC1BDF89A80B5F701E00FF11FAC
:102C9000808307C0F701E00FF11FCE0160810E9421
:102CA000CF150E0D1F1DF80180810E94300821965E
:102CB0009E012619022F10E008151905F0F2CE0129
:102CC0005520D9F4F999FECFD2BDC1BDF89A20B5EF
:102CD000F999FECF2196D2BDC1BD2197F89A80B552
:102CE00090E0B22EAA248A299B29209131053091A7
:102CF00032052817390759F487CF2196609132059C
:102D00000E94CF15CE01609131050E94CF1580E25F
:102D100091E0C80ED91E91EEC91692E0D90608F4CA
:102D200077CF852DCDB7DEB7E1E10C94DA2F80E0C7
:102D300061E00E94F11581E061E00E94F1150895C3
:102D400082E061E00E94F115089582E060E00E9457
:102D5000F11580919903843020F0109299030E941C
:102D6000A01608951F93182F0E94A516809199030D
:102D7000811731F0143020F4109399030E94A016AB
:102D80001F9108951092650485E6E0E0F4E0DF010C
:102D90001D928A95E9F708951F93182F8F3711F028
:102DA0008830E1F5E0916504EE2309F455C0E15067
:102DB000E0936504F0E0E050FC4F108285E396E07C
:102DC0006DE00E94BA2E10E00AC0E12FF0E0E05062
:102DD000FC4F85E396E060810E94BA2E1F5F8091D0
:102DE0006504181790F385E396E060E20E94BA2E1E
:102DF00085E396E06DE00E94BA2E10E00AC0E12F54
:102E0000F0E0E050FC4F85E396E060810E94BA2E2E
:102E10001F5F80916504181790F31CC08B3119F463
:102E20000E94C2161FC08D30E9F08A30D9F080911F
:102E30006504843688F485E396E0612F0E94BA2EFB
:102E400080916504E82FF0E0E050FC4F10838F5F25
:102E50008093650480E007C085E396E067E00E9408
:102E60006E2BF8CF81E01F9108951F93CF93DF93CE
:102E7000CDEDD3E010E03BC085E396E062E271E087
:102E80000E94FF2C85E396E0612F4AE050E00E940B
:102E90007C2C85E396E06FE271E00E94FF2C699143
:102EA00070E080E090E02091DC0330E040E050E012
:102EB0000E944E2F20E137E240E050E00E944E2F6A
:102EC000DC01CB014091D3035091D4036091D50331
:102ED0007091D603480F591F6A1F7B1F85E396E048
:102EE0002AE030E00E94432C1F5F183119F08881DE
:102EF000882311F6DF91CF911F910895EF92FF92F1
:102F00000F931F93882339F485E396E061E77AE015
:102F10000E948C2B3BC090E00E94B20824E630E077
:102F200040E050E00E94802F122F032FF42EE52E58
:102F3000622F732F842F952F2AE030E040E050E07D
:102F40000E94802F85E396E0BA01A9012AE030E0D3
:102F50000E94342C85E396E06EE20E946E2B612F76
:102F6000702F8F2D9E2D2AE030E040E050E00E942F
:102F7000802FAB01BC0185E396E02AE030E00E949F
:102F8000342C85E396E063E70E94A02B1F910F91FC
:102F9000FF90EF900895FF920F931F93CF93DF93CD
:102FA00085E396E067E67AE00E944D2B8091B303BB
:102FB000813041F485E396E06EE47AE00E948C2B48
:102FC000FF246DC0823029F485E396E067E37AE060
:102FD000F5CF843029F485E396E063E27AE0EECF22
:102FE000853071F785E396E068E17AE0E7CFCF2D91
:102FF000D0E0C930D1051CF06F2D685C02C06F2D88
:103000006F5C85E396E00E946E2B85E396E060E1BD
:103010007AE00E944D2BBE016F5F7F4F85E396E003
:103020004AE050E00E94D82C85E396E065E07AE023
:103030000E944D2B8E010D541C4FD8011196EC911E
:10304000E032F8F485E396E068EF79E00E944D2BDA
:10305000F8018181803130F085E396E063E371E02F
:103060000E94FF2CCD54DC4F698170E06F7070704E
:103070006F5F7F4F85E396E04AE050E00E94EB2CC3
:103080000DC0F0E0EF70F070EE0FFF1FE85BFC4F3B
:103090006081718185E396E00E94022DF394809116
:1030A0008804F81608F4A3CF85E396E06DED79E087
:1030B0000E944D2B8091CB030E947E1785E396E002
:1030C00062EC79E00E944D2B8091CC030E947E1728
:1030D00085E396E067EA79E00E944D2B8091CD036D
:1030E0000E947E1785E396E06CE879E00E944D2B04
:1030F0004091C3035091C4036091C5037091C6030E
:10310000411551056105710539F185E396E02AE025
:1031100030E00E94432C85E396E069E579E00E9467
:103120004D2B8091C7030E94E508AB01BC0185E3EC
:1031300096E02AE030E00E94432C85E396E065E3C8
:1031400079E00E944D2B85E396E06091C8034AE048
:1031500050E00E948E2C06C085E396E06CE279E098
:103160000E948C2B85E396E06FE079E00E944D2B66
:103170006091C9037091CA0385E396E04AE050E08C
:103180000E94682C85E396E062EF78E00E944D2B68
:103190006091C203603450F470E06F5F7F4F85E34D
:1031A00096E04AE050E00E94EB2C06C085E396E0F2
:1031B00069EE78E00E948C2B85E396E06CEC78E079
:1031C0000E944D2B8091C10380FD03C065E371E037
:1031D00002C069E371E085E396E00E94022D85E379
:1031E00096E06FEA78E00E944D2B8091C1038270D7
:1031F0000E94AB0D85E396E060E978E00E944D2BDC
:103200008091C10384700E94AB0D85E396E061E775
:1032100078E00E944D2B8091C10388700E94AB0D15
:10322000CDB7DEB7E5E00C94E62F1F93CF93DF9385
:1032300085E396E06BEB7BE00E944D2B4091D3033E
:103240005091D4036091D5037091D60385E396E045
:103250002AE030E00E94432C85E396E065EA7BE0BB
:103260000E944D2B4091D7035091D8036091D90310
:103270007091DA0385E396E020E130E00E94432C70
:1032800085E396E06FE87BE00E944D2B85E396E0B6
:103290006091DB034AE050E00E948E2C85E396E0CB
:1032A00069E77BE00E944D2B85E396E06091DC03AB
:1032B0004AE050E00E948E2C85E396E063E67BE0D6
:1032C0000E944D2BCDEDD3E010E012C0112331F060
:1032D00085E396E06DE371E00E94FF2C85E396E0C4
:1032E00069914AE050E00E947C2C1F5F183119F070
:1032F0008881882359F785E396E00E94762B85E341
:1033000096E06DE47BE00E944D2B85E396E06091B2
:10331000F5034AE050E00E948E2C85E396E068E3D6
:103320007BE00E944D2BE091F603F0E0E770F07037
:10333000EE0FFF1FE859FC4F6081718185E396E035
:103340000E94022D85E396E063E27BE00E944D2B14
:103350008091F60390E0887190708830910589F033
:10336000893091051CF4892B39F01BC080319105FF
:1033700069F04897B1F40FC085E396E06AE17BE01D
:103380000EC085E396E06EE07BE009C085E396E041
:1033900068E07BE004C085E396E06EEF7AE00E948F
:1033A0008C2B85E396E06AEE7AE00E944D2B4091EB
:1033B000CF035091D0036091D1037091D20385E384
:1033C00096E02AE030E00E94432C85E396E061ED30
:1033D0007AE00E944D2B80919F0380710E94AB0D7B
:1033E00085E396E068EB7AE00E944D2B80919F0385
:1033F00080740E94AB0D85E396E06FE97AE00E944D
:103400004D2B80919F0380720E94AB0D85E396E067
:1034100062E87AE00E944D2B8EEC93E00E94F50862
:10342000AB01BC0185E396E02AE030E00E94342C39
:1034300085E396E06DE77AE00E944D2B8EEC93E0F9
:103440000E94F5089B01AC0160E472E48FE090E01B
:103450000E94802F85E396E0BA01A9012AE030E0BE
:103460000E94342C85E396E06AE77AE00E948C2B78
:10347000DF91CF911F910895EF92FF920F931F93C9
:103480007C0105E316E0C8016F2D70E04AE050E0D2
:103490000E94572CC8016EE20E946E2BB701E4E037
:1034A00076956795EA95E1F76F707070C8014AE00C
:1034B00050E00E94572CC8016EE20E946E2B8FE0F4
:1034C000E822FF24C801B7014AE050E00E94572CCF
:1034D0001F910F91FF90EF9008950F931F93CF933B
:1034E000DF932091FF032F3FA9F585E396E061EF7D
:1034F00075E00E944D2B83E793E00E943C1A85E320
:1035000096E060ED75E00E944D2B809189049091CA
:103510008A040E943C1A85E396E06DE975E00E94FA
:103520008C2B85E396E06AE775E00E948C2B85E39F
:1035300096E062E675E00E948C2B85E396E06DE3F1
:1035400075E00E948C2B85E396E00E94762B0E940A
:10355000CB1769C012160CF066C0332727FD3095D3
:103560008091880490E0821793070CF45CC085E397
:1035700096E068E275E00E944D2B6091FF0377278B
:1035800067FD709585E396E04AE050E00E94EB2CE1
:1035900085E396E06DEF74E00E944D2B08E210E0A9
:1035A0003AC0C12FD0E0CC0FDD1FC959DB4F2881B5
:1035B00030E08091FF03992787FD909501972817A8
:1035C000390741F585E396E06FE371E00E94FF2C37
:1035D00085E396E0602F4AE050E00E947C2C85E372
:1035E00096E063E471E00E94FF2CE981F0E0EF7067
:1035F000F070EE0FFF1FE85BFC4F6081718185E387
:1036000096E00E94FF2C85E396E067E471E00E945B
:10361000FF2C0F5F1F5F80918704181710F285E35E
:1036200096E00E94762BDF91CF911F910F91089524
:10363000ACE1B0E0EEE1FBE10C94C72F282F8091C4
:10364000FF038F3F09F042C1822F90E0FC013A97BF
:10365000EF36F10508F033C1EC5CFF4F0C94F42F0A
:1036600085E396E069E471E0AEC085E396E069E445
:1036700071E00E94022D1CC185E396E065E571E0D2
:103680000E94022D85E78983DE011296E3EBF3E0C9
:103690008BE101900D928150E1F7CE0101966CE132
:1036A0000E94EF0F0E947E0C83E08093980368ECE9
:1036B00070E080E090E00E94FB29809198038430C4
:1036C00009F0FDC08FE70E94900A0E94A40A898336
:1036D000853509F0F4C085E396E06FED74E00E9453
:1036E0008C2B85E396E061EC74E00E948C2B85E3E3
:1036F00096E063EA74E0ACC085E396E06DE671E0C5
:103700000E94022D89E68983CE01019661E00E9424
:10371000EF0F0E947E0C83E08093980368EC70E0CA
:1037200080E090E00E94FB2980919803843009F0AA
:10373000C6C08FE70E94900A0E94A40A89838E0166
:103740000E5F1F4F2DE1E22EF12CEC0EFD1E0E94AC
:10375000A40AD8018D938D01AE15BF05C1F7A3EB67
:10376000B3E0FE0132968BE101900D928150E1F7BA
:103770008981893409F0A3C085E396E065E874E0A7
:103780000E948C2B85E396E067E674E00E948C2B08
:1037900085E396E069E474E05BC085E396E067E862
:1037A00071E00E94022D8EEF8093FF0388C02052AB
:1037B0002750922F905380918804891738F485E31D
:1037C00096E066E971E00E94022D79C09093FF03B4
:1037D0006FC084E18093FF0385E396E062E174E0CB
:1037E00037C085E18093FF0385E396E06BED73E0DE
:1037F0002FC086E18093FF0385E396E064EA73E0DF
:1038000027C087E18093FF0385E396E06AE573E0D4
:103810001FC088E18093FF0385E396E069E473E0CD
:1038200017C089E18093FF0385E396E065E373E0C9
:103830000FC08AE18093FF0385E396E060E273E0C6
:1038400007C08BE18093FF0385E396E068EF72E0A9
:103850000E948C2B34C085E396E06EED72E00E94EE
:103860008C2B8091C10391E01DC085E396E068EC4C
:1038700072E00E948C2B8091C10392E013C085E31B
:1038800096E063EB72E00E948C2B8091C10394E080
:1038900009C085E396E068E972E00E948C2B809174
:1038A000C10398E089278093C1038FEF8093FF03C2
:1038B0000E946D1A04C085E396E00E94812E85E384
:1038C00096E00E94472E892BB1F762C1822F0E9499
:1038D000CC16882309F45CC180916504882321F407
:1038E0008FEF8093FF034CC180E094E060E070E0D4
:1038F00040E050E00E94A2069B01AC016091FF03F2
:10390000862F992787FD9095A92FB92FFC01319714
:10391000EB31F10508F024C1ED55FF4F0C94F42F65
:10392000E62FFF27E7FDF0958091880490E08E1741
:103930009F070CF415C1DA01C9010197A109B1096A
:103940008097A105B10548F098E2F92E00E010E05B
:103950006F010894C108D10825C0ED54FC4F822F97
:1039600081508083E5C0612F70E0660F771F695931
:103970007B4FFB01808190E08C159D0591F48F2D8C
:1039800090E0A0E0B0E082179307A407B50741F4E8
:10399000F601ED54FC4FDB0111968C91818301E01F
:1039A000F3941F5F809187041817E8F2BFC02F3F80
:1039B00031054105510511F008F0D2C02093CB0329
:1039C000B7C02F3F31054105510511F008F0C8C0BF
:1039D0002093CC03ADC02F3F31054105510511F0B7
:1039E00008F0BEC02093CD03A3C080910004806284
:1039F000803719F581E094E060E070E040E050E04D
:103A00000E94A2069B01AC01DC01CB010197A10938
:103A1000B1090897A105B10508F0B5C0CA01B901FF
:103A200024ED30E340E050E00E944E2F9B01AC01BA
:103A30002A5E3C4A4A46554E24C0863611F581E03E
:103A400094E060E070E040E050E00E94A2069B013C
:103A5000AC01DC01CB010197A109B1090797A105D0
:103A6000B10508F090C0CA01B90128EA31E640E08A
:103A700050E00E944E2F9B01AC01245E3C434E4619
:103A8000544E211531054105510561F0DA01C90196
:103A90008054914EAD49B8418158904FAA4FB240E1
:103AA00008F05EC02093C3033093C4034093C50362
:103AB0005093C6033DC02F3F31054105510511F01C
:103AC00008F04EC02093C70333C0DA01C901019743
:103AD000A109B1098F3F9105A105B10508F040C0CA
:103AE0002093C80325C0DA01C901845C9940A04035
:103AF000B0408D549D41A040B04030F43093CA0393
:103B00002093C90301E001C000E021153105410502
:103B1000510511F48FEF07C02134310541055105DE
:103B200028F4822F81508093C20302C00023C1F089
:103B3000809166048823D1F48091D7039091D803B3
:103B4000A091D903B091DA030196A11DB11D809314
:103B5000D7039093D803A093D903B093DA0306C098
:103B600085E396E068EA71E00E94022D0E94C21689
:103B70008FEF8093FF0385E396E06AE00E94A02B1D
:103B80000E946D1A05C021E030E040E050E07ECF99
:103B90006C96E8E00C94E32F85E396E06CE472E029
:103BA0000E948C2B85E396E064E372E00E948C2BEC
:103BB00085E396E00E94472E892B31F085E396E05D
:103BC0000E94812E0E94181B0E94EE14823019F070
:103BD000833069F405C085E396E066E172E004C0D5
:103BE00085E396E06FEF71E00E948C2B08958FEFD4
:103BF0008093FF03109266040E946D1A0CC085E347
:103C000096E00E94472E892B31F085E396E00E94D2
:103C1000812E0E94181B8091FF038E3F81F708952B
:103C20008091FF03992787FD9095A92FB92FFC015B
:103C30003196EB30F10508F074C0E254FF4F0C945C
:103C4000F42F85E396E064E678E00E948C2B83E70E
:103C500093E00E943C1A85E396E06CE478E00E94D1
:103C60008C2B85E396E067E278E00E948C2B85E35D
:103C700096E06DEF77E00E948C2B85E396E06CED8B
:103C800077E00E948C2B85E396E06FEA77E00E9454
:103C90008C2B85E396E069E877E00E948C2B85E326
:103CA00096E065E677E00E948C2B85E396E06EE374
:103CB00077E00E948C2B85E396E00E94762B0E9491
:103CC00015192FC085E396E061E277E028C085E30F
:103CD00096E06CEF76E023C085E396E067EE76E051
:103CE0001EC085E396E068EC76E019C085E396E0B7
:103CF00064E876E014C085E396E06FE676E00FC0F6
:103D000085E396E06AE576E00E948C2B85E396E0F9
:103D100064E176E004C085E396E06EEF75E00E9412
:103D20008C2B6AE070E080E090E00E94FB2904C0E8
:103D300085E396E00E94812E85E396E00E94472E5F
:103D4000892BB1F70895A2E2B0E0E9EAFEE10C9414
:103D5000BD2F8E010F5F1F4F80E1D8011D928A9504
:103D6000E9F785E396E066EC71E00E94022D0E947F
:103D70009A1520E431EE4DE958E12F8F38A349A37D
:103D80005AA380EC91EDA8E9BBE18B8F9C8FAD8F9E
:103D9000BE8F24EF31E040E050E02F8B388F498F09
:103DA0005A8F60E5C62E63ECD62EE12CF12C50E440
:103DB000452E51EE552E5DE9652E58E1752E88246D
:103DC0009924540133241E8A1D8A198A1A8A1B8A4F
:103DD0001C8AFFC085E396E00E94812E8434B9F0EE
:103DE000853430F48332B9F18C3209F0CCC044C050
:103DF000833509F0C8C02F8D38A149A15AA1C90146
:103E0000DA012C013D01882499245401E2C085E3A4
:103E100096E064E40E946E2B85E396E040E451EE68
:103E20006DE978E12AE030E00E94A22C85E396E07B
:103E30006CE20E946E2B85E396E040EC51ED68E960
:103E40007BE12AE030E00E94A22C85E396E06CE260
:103E50000E94A02BBEC019821A821B821C821D8266
:103E60001E821F82188619861A861B861C861D864E
:103E70001E861F86188A3AC0339434E0331609F040
:103E8000A8C069817A818B819C8128EE33E040E073
:103E900050E00E944E2F6F8F78A389A39AA36D8163
:103EA0007E818F8198850E944E2F6B8F7C8F8D8FA6
:103EB0009E8F89859A85AB85BC858F8B988FA98FBE
:103EC000BA8F6D857E858F8598890E944E2F6B01F4
:103ED0007C0190E2C9169EE4D90690E0E90690E0E4
:103EE000F90630F48CE162E30E94BA0A332471C00F
:103EF000A0E3CA16A5E7DA06A0E0EA06A0E0FA0603
:103F000018F48CE162E2F0CFB0E4CB16BCE9DB063A
:103F1000B0E0EB06B0E0FB0618F48CE166E2E4CF1B
:103F2000E0E5CE16E3ECDE06E0E0EE06E0E0FE06BD
:103F300018F48CE162E1D8CFF0E6CF16FAEEDF0696
:103F4000F0E0EF06F0E0FF0618F48CE165E1CCCF7D
:103F500020E7C21621E1D20621E0E20620E0F206C7
:103F600018F48CE161E0C0CF30EAC31636E8D3061E
:103F700031E0E30630E0F30618F48CE163E0B4CFFF
:103F80008CE165E0B1CF40ED242E280E49E04215CA
:103F900000F1032D10E0000F111F000F111F81E031
:103FA00090E08C0F9D1F080F191FD8016D917D9116
:103FB0008D919C912AE030E040E050E00E944E2F2D
:103FC000620D711D811D911DF801608371838283D3
:103FD000938385E396E00E94472E892B09F0FACE61
:103FE00081149104A104B10489F4C301B2010E94B7
:103FF000300B61E070E080E090E00E94FB29FFEF71
:10400000FE8B1D8A198A1A8A1B8A1C8A2F89388D71
:10401000498D5A8D82169306A406B506E0F40E94D7
:10402000DB0A29893A894B895C89280F311D411D9A
:10403000511D298B3A8B4B8B5C8B3D89381708F4CB
:104040008D8B4E89841708F48E8B0894811C911CEB
:10405000A11CB11C56C0C301B20128EE33E040E000
:1040600050E00E94802F85E396E0BA01A9012AE082
:1040700030E00E94342C85E396E06CE20E946E2BC7
:1040800085E396E06D894AE050E00E947C2C85E350
:1040900096E06CE20E946E2B69897A898B899C89F3
:1040A000A50194010E94802F85E396E0BA01A90141
:1040B0002AE030E00E94342C85E396E06CE20E9416
:1040C0006E2B85E396E06E894AE050E00E947C2CDE
:1040D00085E396E06CE20E94A02B4C0C5D1C6E1CEC
:1040E0007F1C8B8D9C8DAD8DBE8D84159505A60591
:1040F000B70520F44F8C58A069A07AA08824992491
:1041000054012F8D38A149A15AA1285E3340404067
:10411000504009F05ECFA296E2E10C94D92FA0E0C6
:10412000B0E0E5E9F0E20C94C82F0E94D5296115B2
:10413000710581059105C9F30E9499061092D70374
:104140001092D8031092D9031092DA03DD24E09084
:10415000D703F090D8030091D9031091DA03102F00
:104160000F2DFE2CEE240E9494062FEF30E040E04D
:1041700050E00E94A22FE60EF71E081F191FE092C2
:10418000D703F092D8030093D9031093DA03D394A2
:1041900044E0D416E1F6CDEDD3E000E010E070E1AC
:1041A000E72E77E2F72E4EC00F5F19F40E944D08FC
:1041B0004DC00E94940622E330E040E050E00E94AF
:1041C000A22F6F5FEDEDF3E090E004C081918617C0
:1041D00059F39F5F9117D0F38091DC0390E08E9D9F
:1041E00090018F9D300D9E9D300D1124862F90E003
:1041F000AC01249FC001259F900D349F900D112488
:10420000AA2797FDA095BA2F2091D3033091D4030C
:104210004091D5035091D603820F931FA41FB51F61
:1042200020919B0330919C0340919D0350919E03EC
:10423000281739074A075B0708F4B6CF69931F5F51
:10424000183121F08881882309F0AECFCDB7DEB7D1
:10425000E7E00C94E42F80E060E00E94F1158823F1
:1042600031F081E060E00E94F115882341F40E9462
:1042700092080E944D080E948F200E949716089570
:10428000AAE5B0E0E6E4F1E20C94C92F8B017A01D3
:104290008B3009F425C18C3040F5853009F484C099
:1042A000863080F4823009F459C0833020F48130A4
:1042B00009F04FC242C0833009F461C0843009F074
:1042C00048C265C0883009F49DC0893038F4863012
:1042D00009F486C0873009F03CC28CC0893009F4EB
:1042E00099C08A3009F035C2C9C0893609F481C144
:1042F0008A3680F4863609F42CC1873620F4853658
:1043000009F027C20DC1873609F43CC1883609F08F
:1043100020C240C18C3609F4C3C18D3638F48A36C8
:1043200009F472C18B3609F014C2AEC18D3609F49E
:10433000EBC1873C09F00DC2FFC181E069E270E08A
:104340000E94A7110EEC13E0F80181918F010E94E9
:104350009011F3E0073F1F07B9F703C282E06BE15A
:1043600070E00E94A71103EB13E0F80181918F0127
:104370000E949011F3E00E3C1F07B9F7F2C183E0F1
:1043800061E070E00E94A7110E94EE14E8C184E091
:1043900061E070E00E94A71181E00E9490110E94EC
:1043A00089110E94A31EDFC16091870470E0660F2F
:1043B000771F85E00E94A71100E010E008C0F80117
:1043C000E959FB4F80810E9490110F5F1F4F809130
:1043D000870490E0880F991F0817190780F3C1C15F
:1043E00086E062E070E00E94A71183E793E00E94FC
:1043F0009E11B7C187E061E070E00E94A711809133
:104400008804ADC188E061E070E00E94A71180914E
:104410009903A5C186E68983CE01019661E00E94D9
:10442000EF0F0E947E0C83E08093980368EC70E0AD
:1044300080E090E00E94FB29809198038430E1F4B1
:104440008FE70E94900A0E94A40A8983863471F43F
:1044500089E060E270E00E94A71110E00E94A40AC7
:104460000E9490111F5F1032C9F77BC189E061E0A3
:1044700070E00E94A711C6C089E06CC18AE069E1C2
:1044800070E00E94A71110929A0380919F058823E3
:1044900051F080919F039091A003A091A103B0914E
:1044A000A203806809C080919F039091A003A0910E
:1044B000A103B091A2038F7780939F039093A003F1
:1044C000A093A103B093A2030AE913E0F80181913C
:1044D0008F010E949011F3E0033B1F07B9F741C120
:1044E0008BE061E270E00E94A7118091BE048F3FD3
:1044F00039F08091BE048F5F8093BE04815002C06A
:104500008091BE040E94901110E0812F0E94950DB1
:104510000E94190A0E949E111F5F1031B1F721C13C
:1045200085E661E070E00E94A7110932110509F0EB
:1045300015C120E030E0F901E253FC4FD701A20F92
:10454000B31F8C9180832F5F3F4F2932310599F73C
:1045500059C086E661E070E00E94A7110B31110599
:1045600009F0FCC020E030E0F901ED54FC4FD70128
:10457000A20FB31F8C9180832F5F3F4F2B313105EA
:1045800099F740C087E661E070E00E94A7110E94A1
:10459000971638C088E661E070E00E94A71185E7B1
:1045A0008A83DE011396E3EBF3E08BE101900D9239
:1045B0008150E1F7CE0102966CE10E94EF0F0E945C
:1045C0007E0C83E08093980360E273E080E090E0EB
:1045D0000E94FB2980919803843009F0BFC08FE7C7
:1045E0000E94900A0E94A40A8A83853509F0B6C009
:1045F00009C089E661E070E00E94A7110E944D08A1
:104600000E94920881E0ABC08AE661E070E00E94FF
:10461000A71189E68E8FCE014E9661E00E94EF0FC2
:104620000E947E0C83E08093980360E273E080E058
:1046300090E00E94FB2980919803843009F08EC09D
:104640008FE70E94900A0E94A40A8E8F8E01015E5D
:104650001F4FFAE3EF2EF12CEC0EFD1E0E94A40A70
:10466000F80181938F01EE15FF05C1F7A3EBB3E0CD
:10467000FE017F968BE101900D928150E1F78E8DC6
:10468000893409F06BC0BECF8BE661E070E00E9418
:10469000A711F70180810E94B2160E942B21B2CF90
:1046A0008CE661E070E00E94A7110032110571F400
:1046B00087E68AAFDE01DB96F70180E201900D927A
:1046C0008150E1F7CE01CA9661E205C087E48AAF66
:1046D000CE01CA9661E00E94EF0F0E947E0C83E03B
:1046E000809398036CE474E080E090E00E94FB29E2
:1046F00080919803843091F58FE70E94900A0E9480
:10470000A40A873459F57ECF8DE661E070E00E94FF
:10471000A7110931110511F520E030E0F901E65645
:10472000FC4FD701A20FB31F8C9180832F5F3F4FA7
:104730002931310599F766CF87EC61E070E00E947E
:10474000A71181E00E9490110E9489111092FD032F
:104750000AC08AEC61E070E00E94A71180E00E942C
:1047600090110E948911C65ADF4FE6E00C94E52FA4
:10477000A0E0B0E0EEEBF3E20C94C52F54E0A52EE0
:1047800046E0B42E35E0C32E03E315E024E6D22E36
:1047900092E0E92E83E0F82EA1C085E396E00E9426
:1047A000812E982F80939E0580919D05833021F165
:1047B000843028F4813099F08230B8F409C0853013
:1047C00009F448C0853020F1863009F087C05FC009
:1047D000953B09F083C081E080939D057FC09236B0
:1047E00009F07AC0E0929D0579C090939C05909362
:1047F0009B05F0929D0572C09093990510929A05C1
:1048000080919B05892780939B05A0929D0566C09A
:10481000D92FC0E02091990530919A052C2B3D2B82
:1048200030939A052093990580919B058927809361
:104830009B05C0929D052536310508F44FC08CECD0
:1048400061E070E00E94A71181E00E9490110E9437
:10485000891142C02091970530919805F901ED5CCE
:10486000FA4F908380919B05892780939B052F5F4A
:104870003F4F30939805209397058091990590912B
:104880009A052817390750F1B0929D0527C08091ED
:104890009B05891759F4609197057091980580914F
:1048A0009C0543E355E00E9440210DC08BEC62E083
:1048B00070E00E94A71180919C050E949011809148
:1048C000FE030E949011F8018D2D11928A95E9F74F
:1048D000109298051092970510929D0585E396E039
:1048E0000E94472E892B09F058CFCDB7DEB7EAE0FA
:1048F0000C94E12F81E08093FD0308C085E396E0EE
:104900000E94472E892B11F00E94B8238091FD034D
:104910008823A1F708951F931091FF031F3F09F00B
:10492000F1C0893409F467C08A3428F5883309F462
:1049300079C0893368F4803309F486C0813308F084
:104940006FC08B3109F44DC0813209F0D5C03DC034
:10495000813409F49AC0823438F4893309F472C07E
:10496000803409F0C9C031C0823409F4A1C0863452
:1049700009F0C2C052C0823609F49AC0833690F45E
:10498000883579F1893538F4823509F43FC08335AB
:1049900009F0B2C01FC08A3509F4A9C0813609F0F8
:1049A000ABC073C0823791F1833730F48636A9F1FA
:1049B000893609F0A1C01FC0883799F08A3709F4F9
:1049C00096C0833709F098C005C085E396E069E496
:1049D00071E019C00E94971685E396E063ED71E0DF
:1049E00006C00E942B2185E396E06DEE71E00E94E7
:1049F000022D8EEF7FC00E944D080E94920885E331
:104A000096E06CE072E00E94022D76C00E948F203A
:104A100085E396E065E272E0F6CF0E9435176CC040
:104A2000805368C085E396E06CEE71E00E948C2BA9
:104A30009091F603892F885F8871977E892B8093E8
:104A4000F60320C089E056C085E396E069ED71E089
:104A50000E948C2B80919F039091A003A091A103B1
:104A6000B091A20320E130E040E050E0822793279C
:104A7000A427B52780939F039093A003A093A1033D
:104A8000B093A2031093FF0337C085E396E063EC75
:104A900071E00E948C2B80919F039091A003A091C4
:104AA000A103B091A20320E430E040E050E012C046
:104AB00085E396E062EB71E00E948C2B80919F036E
:104AC0009091A003A091A103B091A20320E230E055
:104AD00040E050E082279327A427B52780939F03C7
:104AE0009093A003A093A103B093A20302C00E94DD
:104AF000CC1D8FEF8093FF038091FF038E3F09F45D
:104B0000DDC0D4C00E94CC16882309F4D7C08091A0
:104B10006504882321F48FEF8093FF03C7C080E0F2
:104B200094E060E070E040E050E00E94A2069B014B
:104B3000AC018091FF03992787FD9095A92FB92F8C
:104B4000FC013197E930F10508F08CC0E753FF4FC5
:104B50000C94F42FDA01C9018154914EAD49B8414A
:104B60008F57904FAA4FB24008F07CC02093D303D8
:104B70003093D4034093D5035093D6039AC0209327
:104B8000D7033093D8034093D9035093DA0381E0DD
:104B9000809366048EC0283031054105510508F028
:104BA00061C02093DB0385C0DA01C9010197A10927
:104BB000B1090A97A105B10508F054C02093DC03A0
:104BC00078C080E094E06DE371E00E94BE0710E0E1
:104BD0000EC0183130F4E12FF0E0E253FC4F87872C
:104BE0001F5F80E090E06DE371E00E94BE070097D8
:104BF00059F00E94A007009761F706C0E12FF0E08E
:104C0000E253FC4F17861F5F1831C0F352C02530A6
:104C100031054105510530F52093F5034AC0DA010D
:104C2000C9010197A109B1090697A105B105D0F401
:104C30008091F603887F822B8093F6033AC0DA01D5
:104C4000C9010197A109B1098050924CA140B0401F
:104C500048F42093CF033093D0034093D103509373
:104C6000D20327C085E396E068EA71E00E94022D36
:104C700013C08091D7039091D803A091D903B0912C
:104C8000DA030196A11DB11D8093D7039093D80339
:104C9000A093D903B093DA030E94C2168FEF8093DA
:104CA000FF0385E396E06AE00E94A02B0E94101E9D
:104CB00005C0809166048823E1F2EECF1F9108952C
:104CC0008FEF8093FF03109266040E94101E0CC0A9
:104CD00085E396E00E94472E892B31F085E396E02C
:104CE0000E94812E0E948B248091FF038E3F81F7CA
:104CF0006AE070E080E090E00E94FB2904C085E358
:104D000096E00E94812E85E396E00E94472E892B33
:104D1000B1F70895AAE2B0E0E0E9F6E20C94C22F00
:104D20000E94C7297B018C0181E00E949F0B04C077
:104D300085E396E00E94812E85E396E00E94472E4F
:104D4000892BB1F72C98DD24D394E2E67E2E72E015
:104D5000872E912C8C0E9D1E5E010894A11CB11C07
:104D600063E0C62E0E94C72920E030E06E197F095B
:104D7000800B910B693C71058105910510F021E0D4
:104D800030E08D2D90E028233923232B99F10E94C8
:104D9000C7297B018C012B9A80ED97E00E94DB11E3
:104DA0007982D401EEECF3E089E201900D9281501A
:104DB000E1F7C5016AE20E94EF0F2B9880E090E0D6
:104DC0000E94DB11C09298030E947E0C62E370E0A7
:104DD00080E090E00E94FB2980919803843051F498
:104DE000C09298038FE70E94900A0E94A40A82341E
:104DF00009F4DD248AE00E94F92A892B49F5DD2493
:104E0000D39426C02C9A2B9A85E396E00E94812E9B
:104E10008D30910569F08E3091051CF40A97B1F43C
:104E200007C08332910569F08234910579F40CC092
:104E300085E396E064EA71E00E948C2B0E94602674
:104E400005C00E94A31E02C00E947A242C982B98B1
:104E500085E396E00E94472E892B09F483CFD2CFB9
:104E60008F929F92AF92BF92CF92DF92EF92FF927A
:104E70000F931F938AE00E94F92A892B09F083C0BF
:104E800068EC70E080E090E00E94FB2980E090E018
:104E90000E94DB110E94C7295B016C01F0ECEF2E30
:104EA000F2E1FF2E012D112DE60EF71E081F191F2E
:104EB00006C08AE00E94F92A892B09F062C00E948C
:104EC000C7296E157F058007910798F38AE00E9435
:104ED000F92A892B09F055C080ED97E00E94DB117B
:104EE0000E94C7297B018C0199249394882488E42B
:104EF00096E2A0E0B0E0A80EB91ECA1EDB1E29C0D3
:104F0000AE14BF04C006D10638F480ED97E00E94CD
:104F1000DB11882483941DC00E94C7296E197F0964
:104F2000800B910B693C71058105910590F00E9401
:104F3000C7297B018C0180E0992009F481E0982E3B
:104F4000882319F480E090E002C080ED97E00E9491
:104F5000DB118AE00E94F92A892B91F280E090E02F
:104F60000E94DB11882049F0809199038F5F837044
:104F70000E94B2160E942B2106C00E948F200E9420
:104F800097160E948A261F910F91FF90EF90DF9055
:104F9000CF90BF90AF909F908F90089581E06DEF7C
:104FA00077E042E050E00E9402290895EF92FF92DC
:104FB0000F931F9380E00E9419080E94C6118CE095
:104FC00061E00E945A2A8BE061E00E945A2A8AE03E
:104FD00060E00E945A2A83E160E00E945A2A83E13D
:104FE00061E00E94C62A82E161E00E945A2A82E1C1
:104FF00060E00E94C62A0E94C61485E396E040E065
:1050000052EC61E070E00E94C02D0E94A5160E9443
:105010002B210E94740D8FEF8093BE040E94CE2737
:1050200078940E94C7297B018C018091BE048F3F38
:1050300009F0DEC00E94C7296E197F09800B910B11
:10504000605D77408040904008F0D2C0EECF85E3AD
:1050500096E00E94812E85E396E00E94472E892BE0
:10506000B1F785E396E062E472E00E94FF2C83E7EB
:1050700093E00E943C1A85E396E069E572E00E94A5
:10508000FF2C85E396E060E070E04AE050E00E948B
:10509000EB2C62E370E080E090E00E94FB2985E366
:1050A00096E00E94472E04970CF185E396E00E945B
:1050B000812E82349105D1F485E396E00E94812E01
:1050C0008E34910599F485E396E00E94812E843414
:1050D000910561F485E396E00E94812E819731F479
:1050E00080E090E00E94DB110E948A264091CF036D
:1050F0005091D0036091D1037091D203DB01CA01BA
:105100000197A109B1090497A105B10568F440937D
:10511000BF04433029F040E052EC61E070E004C08D
:1051200040EA56E861E070E085E396E00E94C02D19
:105130000E9430272C9880E090E00E94DB110E94B2
:10514000740D1092A30480919F0383FF11C080917E
:10515000E303882351F08091EA03882331F08091A2
:10516000F103882311F087E001C085E08093A30458
:1051700080E00E949F0B8091A2040E94C50A0E94B9
:105180007E0C10922705109228051092290510E038
:1051900015C062E370E080E090E00E94FB2980EDA2
:1051A00097E00E94DB1162E370E080E090E00E94F3
:1051B000FB2980E090E00E94DB111F5F8091990342
:1051C000811738F78091F60390E084FF09C020E052
:1051D00088719070489709F421E0822F0E94CF14C3
:1051E0008FE00E9419081F910F91FF90EF90089592
:1051F00080ED97E00E94DB118AE061E00E94C62A00
:105200002C9A29CF823000F5E82FF0E0EE0FFF1F37
:10521000E056FA4F71836083882319F08130A1F43E
:1052200008C0809169008C7F842B80936900E89A84
:10523000089580916900440F551F440F551F837FC7
:10524000842B80936900E99A08951F920F920FB6FC
:105250000F9211242F933F934F935F936F937F93FC
:105260008F939F93AF93BF93EF93FF938091A0058C
:105270009091A105892B29F0E091A005F091A1055D
:105280000995FF91EF91BF91AF919F918F917F9180
:105290006F915F914F913F912F910F900FBE0F90A3
:1052A0001F9018951F920F920FB60F9211242F93F3
:1052B0003F934F935F936F937F938F939F93AF939E
:1052C000BF93EF93FF938091A2059091A305892B43
:1052D00029F0E091A205F091A3050995FF91EF91C6
:1052E000BF91AF919F918F917F916F915F914F91FE
:1052F0003F912F910F900FBE0F901F9018951F9206
:105300000F920FB60F9211242F933F938F939F9379
:10531000AF93BF938091A8059091A905A091AA058C
:10532000B091AB053091AC050196A11DB11D232FA5
:105330002D5F2D3720F02D570196A11DB11D209313
:10534000AC058093A8059093A905A093AA05B093F6
:10535000AB058091A4059091A505A091A605B091FB
:10536000A7050196A11DB11D8093A4059093A505E5
:10537000A093A605B093A705BF91AF919F918F9180
:105380003F912F910F900FBE0F901F9018958FB7E0
:10539000F8942091A8053091A9054091AA05509153
:1053A000AB058FBFB901CA0108959FB7F89420914A
:1053B000A4053091A5054091A6055091A70586B595
:1053C000A89B06C08F3F21F02F5F3F4F4F4F5F4F8D
:1053D0009FBF542F432F322F2227280F311D411DED
:1053E000511D82E0220F331F441F551F8A95D1F7AC
:1053F000B901CA010895EF92FF920F931F93CF93C3
:10540000DF937B018C010E94D529EB010EC00E9425
:10541000D5296C1B7D0B685E7340C8F30894E108C6
:10542000F10801091109C851DC4FE114F10401052B
:10543000110569F7CDB7DEB7E6E00C94E52F789457
:1054400084B5826084BD84B5816084BD85B5826089
:1054500085BD85B5816085BDEEE6F0E08081816027
:105460008083E1E8F0E01082808182608083808127
:1054700081608083E0E8F0E0808181608083E1EBFF
:10548000F0E0808184608083E0EBF0E080818160E7
:105490008083EAE7F0E0808184608083808182609D
:1054A0008083808181608083808180688083109286
:1054B000C1000895CF93DF93482F50E0CA018D5F5C
:1054C000934FFC0134914151544FFA018491882348
:1054D00069F190E0880F991FFC01EF52F44FA591FC
:1054E000B491FC01E552F44FC591D491662351F477
:1054F0002FB7F8948C91932F909589238C93888162
:1055000089230BC0623061F42FB7F8948C91932FEC
:10551000909589238C938881832B88832FBF06C025
:105520009FB7F8948C91832B8C939FBFDF91CF9181
:105530000895833071F0843028F48130A1F08230F6
:1055400021F514C08630B1F08730D1F08430E9F411
:1055500004C0809180008F7703C0809180008F7D90
:1055600080938000089584B58F7702C084B58F7DC5
:1055700084BD08958091B0008F778093B000089526
:105580008091B0008F7D8093B0000895FF920F93BB
:105590001F93F62E482F50E0CA01895E934FFC01FD
:1055A0002491CA018D5F934FFC0114914151544FD6
:1055B000FA0104910023C9F0222319F0822F0E94DE
:1055C000992AE02FF0E0EE0FFF1FE552F44FA5916E
:1055D000B4919FB7F894FF2021F48C91109581230A
:1055E00002C08C91812B8C939FBF1F910F91FF90D4
:1055F00008950F931F93482F50E0CA01895E934F7F
:10560000FC012491CA018D5F934FFC01049141512B
:10561000544FFA011491112319F420E030E015C021
:10562000222319F0822F0E94992A812F90E0880F5F
:10563000991F8B51944FFC01A591B4918C9120E05E
:1056400030E0802311F021E030E0C9011F910F917B
:105650000895A0E0B0E0EFE2FBE20C94C72F7C01DC
:105660006B018A01C0E0D0E00FC0D6016D916D01E1
:10567000D701ED91FC910190F081E02DC7010995D2
:10568000C80FD91F015010400115110571F7CE0147
:10569000CDB7DEB7E8E00C94E32FEF92FF920F93C3
:1056A0001F93CF93DF937C018B01C0E0D0E0F80122
:1056B0000F5F1F4F6491662359F0D701ED91FC9164
:1056C0000190F081E02DC7010995C80FD91FEFCFD8
:1056D000CE01CDB7DEB7E6E00C94E52FDC01ED910D
:1056E000FC910190F081E02D09950895EF92FF92D1
:1056F0000F931F938C016DE00E946E2B7C01C801FB
:105700006AE00E946E2B9C012E0D3F1DC9011F9166
:105710000F91FF90EF900895EF92FF920F931F93D8
:105720007C010E944D2B8C01C7010E94762B9C01AD
:10573000200F311FC9011F910F91FF90EF90089525
:10574000EF92FF920F931F937C010E946E2B8C01AE
:10575000C7010E94762B9C01200F311FC9011F91A8
:105760000F91FF90EF900895CF93DF93EC016115B7
:10577000710519F420E030E00FC0DB010D9000202E
:10578000E9F71197A61BB70BE881F9810280F38135
:10579000E02DAD0109959C01C901DF91CF910895DC
:1057A0004F925F927F928F929F92AF92BF92CF92D1
:1057B000DF92EF92FF920F931F93DF93CF93CDB7BA
:1057C000DEB7A1970FB6F894DEBF0FBECDBF2C0198
:1057D000742ECB01223008F42AE019A231E2C32E44
:1057E000D12CCC0EDD1E822E9924AA24BB24672D39
:1057F000752FA50194010E94802F79018A01C801AB
:10580000B701A50194010E944E2F472D461B089415
:10581000C108D1084A3010F4405D01C0495CF6016E
:105820004083E114F1040105110521F07E2C5F2D68
:10583000C801DDCFC201B6010E94B42BA1960FB6FC
:10584000F894DEBF0FBECDBFCF91DF911F910F91B6
:10585000FF90EF90DF90CF90BF90AF909F908F9090
:105860007F905F904F900895DC012115310541F440
:10587000ED91FC910190F081E02D642F0995089540
:105880000E94D02B0895EF92FF920F931F937C01FB
:105890000E94342C8C01C7010E94762B9C01200FA2
:1058A000311FC9011F910F91FF90EF900895EF9262
:1058B000FF920F931F939A017B0100E010E0B80163
:1058C000A7010E94342C1F910F91FF90EF90089533
:1058D000EF92FF920F931F937C010E94572C8C0133
:1058E000C7010E94762B9C01200F311FC9011F9117
:1058F0000F91FF90EF900895EF92FF920F931F93F7
:105900009A01E62EFF2400E010E0B801A7010E94F2
:10591000342C1F910F91FF90EF900895EF92FF921A
:105920000F931F937C010E947C2C8C01C7010E9465
:10593000762B9C01200F311FC9011F910F91FF9001
:10594000EF900895A0E0B0E0E8EAFCE20C94C72FE5
:10595000EC016A017B012115310541F4E881F981EF
:105960000190F081E02D642F09951BC02A3031058C
:10597000B1F477FF13C06DE20E946E2B8C014427B7
:105980005527BA014C195D096E097F09CE012AE03D
:105990000E94D02B9C01200F311F04C02AE00E94DE
:1059A000D02B9C01C901CDB7DEB7E8E00C94E32F02
:1059B000EF92FF920F931F937B019A010027F7FC50
:1059C0000095102FB801A7010E94A22C1F910F91E2
:1059D000FF90EF900895EF92FF920F931F937C0139
:1059E0000E94D82C8C01C7010E94762B9C01200FAD
:1059F000311FC9011F910F91FF90EF9008950E94F0
:105A0000B42B0895EF92FF920F931F937C010E9495
:105A1000FF2C8C01C7010E94762B9C01200F311FA7
:105A2000C9011F910F91FF90EF90089508951F9263
:105A30000F920FB60F9211242F933F934F938F9392
:105A40009F93EF93FF938091C00082FD1DC0409112
:105A5000C6002091ED053091EE052F5F3F4F2F736B
:105A600030708091EF059091F0052817390771F09B
:105A7000E091ED05F091EE05E355FA4F4083309348
:105A8000EE052093ED0502C08091C600FF91EF91D5
:105A90009F918F914F913F912F910F900FBE0F903B
:105AA0001F9018951F920F920FB60F9211242F93EB
:105AB0003F938F939F93EF93FF9320913106309103
:105AC000320680913306909134062817390731F455
:105AD0008091C1008F7D8093C10014C0E091330696
