:100000000C941E060C9411280C943E280C94460661
:100010000C94E8120C9446060C9446060C94460682
:100020000C9446060C9446060C9446060C94460620
:100030000C9446060C9446060C9446060C94460610
:100040000C946B280C9446060C943C2C0C947F2C3E
:100050000C9446060C9446060C9446060C944606F0
:100060000C9446060C9446069418F618D518D81821
:10007000DB18DE18E118E418E718F618F018281A4B
:100080002A1A2A1A281A2A1A2A1A2A1A2A1A2A1A52
:100090002A1A2A1A2A1A2A1A2A1A2A1A2A1A2A1A40
:1000A000AE192A1A2A1A2A1A2A1A2A1A1F192A1AB9
:1000B0002A1A2A1A2A1A2A1A2A1A2A1A2A1A2A1A20
:1000C0002A1A2A1A2A1A2A1A2A1A2A1ABA19BA19F2
:1000D000BA19BA19BA19BA19BA19BA19BA192A1A17
:1000E0002A1A2A1A2A1A2A1A2A1A1F19B919B919E0
:1000F000B919B9192A1AC719CD19D319D919DF197C
:10010000E519EB19F119FB19051A0F1A191A6019DB
:1001100022192A1A2A1A2A1A2A1AAE192A1A2A1A45
:100120002A1A2A1A2A1A2A1A2A1A2A1AB819B81995
:10013000B819B8192A1AC719CD19D319D919DF193D
:10014000E519EB19F119FB19051A0F1A191A60199B
:1001500022192A1A2A1A2A1A2A1AAE195D1A5D1A9F
:100160005D1A5D1A5D1A5D1A5D1A5D1A5D1A5D1AD7
:100170005D1A5D1A5D1A741B741B741B741B741B4F
:10018000741BA21AAC1AB61AC01A1E1B281B371BE6
:10019000481BD01CE51CF11CFA1C091D2E1D371D27
:1001A000801D491D94209A20A020A720B520D7208B
:1001B000F520456E746572206D656E752E2E2E00CD
:1001C000546F67676C6564206D6963726F50504D42
:1001D00000546F67676C656420696E76657274653C
:1001E000642050504D2100546F67676C6564205443
:1001F00058206D7574696E672100546F67676C6570
:10020000642074656C656D65747279210050726F3D
:10021000746F636F6C206572726F72207769746897
:100220002052580054696D656F7574207768656E4B
:1002300020636F6E6E656374696E6720746F205201
:100240005800507265737320616E79206B65792058
:10025000746F2063616E63656C00436F6E6E6563DF
:1002600074696E6720746F2052582C20706F776508
:100270007220757020746865205258202877697440
:10028000682062696E6420706C7567206966206EF4
:100290006F74207573696E6720616C776179732064
:1002A00062696E642900546F67676C656420276912
:1002B0006D6D656469617465206F75747075742700
:1002C00000546F67676C65642027736C61766520E6
:1002D0006D6F64652700546F67676C6564202761E4
:1002E0006C776179732062696E642700546F676769
:1002F0006C65642050504D206368616E6E656C20A3
:100300006C696D69740053657420525353492069B8
:100310006E6A656374696F6E206368616E6E656C8A
:100320002028303D3D64697361626C652900536526
:10033000742050504D206D696E696D756D20737914
:100340006E630053657420626561636F6E20696E31
:1003500074657276616C0053657420626561636FC9
:100360006E2064656C617900536574206265616319
:100370006F6E206672657175656E637920696E2097
:10038000487A3A20303D64697361626C652C205074
:10039000783D504D52206368616E6E656C20782CFC
:1003A0002046783D465253206368616E6E656C202E
:1003B00078005365742050574D2073746F7020641B
:1003C000656C61792028302064697361626C6564B2
:1003D0002C20312D323535203D3D20302E317320FB
:1003E0002D2035306D696E29005365742050504DB5
:1003F0002073746F702064656C61792028302064EC
:10040000697361626C65642C20312D323535203D75
:100410003D20302E3173202D2035306D696E29003E
:10042000536574206661696C736166652064656CF0
:1004300061792028302064697361626C65642C20C6
:10044000312D323535203D3D20302E3173202D2089
:1004500035306D696E29002A2A2A2A2A2A2A2A2A50
:100460002A2A2A2A2A2A2A2A2A2A2A2A2A2A2A2AEC
:100470002A2A2A2A0052582041636B6564202D20C5
:1004800072657665727420737563636573736675E0
:100490006C21002A2A2A2A2A2A2A2A2A2A2A2A2AAD
:1004A0002A2A2A2A2A2A2A2A2A2A2A2A2A2A2A2AAC
:1004B000002A2A2A2A2A2A2A2A2A2A2A2A2A2A2AC6
:1004C0002A2A2A2A2A2A2A2A2A2A2A2A2A2A00528E
:1004D000582041636B6564202D20757064617465DC
:1004E000207375636365737366756C21002A2A2A0D
:1004F0002A2A2A2A2A2A2A2A2A2A2A2A2A2A2A2A5C
:100500002A2A2A2A2A2A2A2A2A2A0056616C696457
:100510002063686F69636573206172653A205B319F
:100520005D2D5B31365D20286368616E6E656C20E1
:10053000312D31362900536574206F7574707574D0
:1005400020666F7220706F727420005B585D2061AE
:10055000626F7274206368616E67657320616E6498
:10056000206578697420525820636F6E6669670051
:100570005B535D20736176652073657474696E6783
:100580007320746F205258005B525D20726576654F
:1005900072742052582073657474696E6773207486
:1005A0006F2064656661756C747300557365206EA9
:1005B000756D62657273205B312D445D20746F2010
:1005C0006564697420706F727473205B452D515D92
:1005D00020666F722073657474696E677300202DD6
:1005E00020726563656976657220636F6E66696700
:1005F000757261746F722C20727820737720000AF4
:100600000A6F70656E4C52536E67200053657420FC
:1006100073657269616C2062617564726174653AB8
:10062000200056616C69642063686F696365733A82
:100630002031202D20342B34202F2032202D203823
:10064000202F2033202D20382B34202F2034202D14
:10065000203132202F2035202D2031322B34202FF5
:100660002036202D20313600536574204368616E9A
:100670006E656C20636F6E6669673A20005365741F
:100680002044617461726174652028302D32293AEA
:10069000200053657420486F70206368616E6E653A
:1006A0006C7320286D61782032342C207365706162
:1006B000726174656420627920636F6D6D61732966
:1006C0002076616C69642076616C75657320312DCC
:1006D0003235353A2000536574206368616E6E656B
:1006E0006C2073706163696E6720287831306B48C5
:1006F0007A293A200053657420524620706F77653E
:10070000722028302D37293A200053657420524634
:10071000206D6167696320286865782920652E67E8
:100720002E20307844454144463030443A2000532E
:1007300065742062617365206672657175656E63AC
:10074000792028696E20487A293A20005B5A5D207A
:10075000656E746572207265636569766572206383
:100760006F6E66696775726174696F6E2075746902
:100770006C79005B465D20646973706C61792061FF
:10078000637475616C206672657175656E63696509
:10079000732075736564005B525D2063616C6375E3
:1007A0006C6174652072616E646F6D206B65792079
:1007B000616E6420686F70206C697374005B495DC2
:1007C000207265696E697469616C697A6520736508
:1007D0007474696E677320746F20736B65746368DB
:1007E0002064656661756C7473005B585D2072658A
:1007F00076657274206368616E67657320616E64EC
:100800002065786974206D656E75005B535D20739B
:100810006176652073657474696E677320746F20E8
:10082000454550524F4D20616E64206578697420B3
:100830006D656E7500557365206E756D62657273BA
:10084000205B302D395D20746F20656469742070E1
:100850006172616D657465727300202D2053797328
:1008600074656D20636F6E66696775726174696F18
:100870006E000A0A6F70656E4C52536E672000510D
:1008800029204F7574707574206265666F726520DB
:100890006C696E6B20283D465329203A2000502970
:1008A00020536C617665206D6F64652028657870D3
:1008B0006572696D656E74616C293A20004F29205C
:1008C00054696D65642042494E44206174207374FC
:1008D000617274757020203A20004E292050504DCE
:1008E000206F7574707574206C696D69746564200F
:1008F000202020203A200044495341424C454400E6
:100900004D292050504D205253534920746F20637D
:1009100068616E6E656C202020203A20004C2920F2
:1009200050504D206D696E696D756D2073796E63E1
:10093000202875732920203A200044495341424C15
:100940004544004B29204661696C736166652062ED
:100950006561636F6E20696E74762E2028312D32AA
:10096000353573293A20004A29204661696C736144
:10097000666520626561636F6E2064656C617920D5
:1009800028302D323535203D3E20313073202D204A
:100990003135306D696E293A200049292046616958
:1009A0006C7361666520626561636F6E206672714B
:1009B0002E203A200048292050574D2073746F7024
:1009C0002064656C6179202020202020203A2000BE
:1009D00047292050504D2073746F702064656C61FE
:1009E00079202020202020203A200046292046611E
:1009F000696C736166652064656C617920202020D4
:100A00002020203A200050574D206368616E6E65AB
:100A10006C200066756E6374696F6E3A2000292041
:100A2000706F72742000506F776572546F776572C3
:100A300000445446205548462033322D62697420C4
:100A400031306368004F70656E4C52536E67525878
:100A5000206D696E6920342F36636800466C7974A6
:100A6000726F6E2F4F72616E6765525820554846FF
:100A70002038636800525820747970653A20004429
:100A8000697361626C656400487A00203D3D200016
:100A900043616C63756C61746564207061636B6540
:100AA0007420696E74657276616C3A200042292068
:100AB0004D6963726F202868616C66292050504D23
:100AC000202020203A00412920496E766572746505
:100AD000642050504D20696E20202020203A0030A4
:100AE00029204D7574652062757A7A657220286DAB
:100AF0006F73746C79293A003929205365726961E2
:100B00006C2062617564726174653A00736D617224
:100B100074506F7274004672536B79005472616E38
:100B200073706172656E740044697361626C6564B0
:100B30000038292054656C656D657472793A2020FF
:100B40002020202020003729204368616E6E656CCC
:100B500020636F6E6669673A202000362920446161
:100B60007461726174652028302D32293A2020206A
:100B700000352920486F70206368616E6E656C7364
:100B80003A2020202020003429204368616E6E65C1
:100B90006C2073706163696E673A202000332920EE
:100BA000524620706F7765722028302D37293A2001
:100BB0002020003229205246206D616769633A2067
:100BC0002020202020202020003129204261736530
:100BD000206672657175656E63793A202020000089
:100BE00000000700020100000304060000000000EE
:100BF00000000001020408102040800102040810D7
:100C00002001020408102004040404040404040263
:100C10000202020202030303030303000000002395
:100C2000002600290000000000250028002B0000FD
:100C3000000000240027002A00006D2D11241FBE93
:100C4000CFEFD8E0DEBFCDBF13E0A0E0B1E0E8EE2B
:100C5000F0E602C005900D92A83CB107D9F716E066
:100C6000A8ECB3E001C01D92A039B107E1F71CE088
:100C7000CCE3DCE004C02297FE010E94762ECA334A
:100C8000D107C9F70E94A92D0C9472300C94000072
:100C900080917505813019F482E08093750580910B
:100CA0007505833019F484E0809375050895A8953F
:100CB0000895DC01ED91FC910190F081E02D099502
:100CC00008952091760530917705382748E0C901CD
:100CD000880F991F37FF06C09C0151E2252750E17C
:100CE000352701C09C01415091F73093770520933F
:100CF0007605089588E38093780580E092ECA1E082
:100D0000B0E08093790590937A05A0937B05B0932A
:100D10007C0587E08093850580EC92E9ADEEB9E132
:100D200080937D0590937E05A0937F05B093800509
:100D300085E0809386058DEE9EEFADEABEED809353
:100D4000810590938205A0938305B0938405E7E81D
:100D5000F5E080E090E0863028F4DC01AF54BC4F31
:100D60002C9101C020E0219301968831910599F7DB
:100D700082E080939F058AE08093A005089580EC2F
:100D800091EDA8E9BBE18093BD059093BE05A093CA
:100D9000BF05B093C00580E090E0A0E0B0E580938F
:100DA000C1059093C205A093C305B093C405E5ECBB
:100DB000F5E080E081938F5F8031E1F70895A0E056
:100DC000B0E0E5EEF6E00C943F2ED82F0E94C1284B
:100DD0006115710581059105C9F30E94E22E1092FB
:100DE0008105109282051092830510928405C4E05B
:100DF000812C912C54018A94C0908105D090820559
:100E0000E0908305F0908405FE2CED2CDC2CCC24A6
:100E10000E94DD2EA50194010E941E2E6C0D7D1DE9
:100E20008E1D9F1D609381057093820580938305BD
:100E300090938405C15001F7DD2309F450C007E801
:100E400015E0E801A12CB12C62E3C62ED12CE12CD7
:100E5000F12C8881882309F442C0B39419F40E94CC
:100E60007A063DC00E94DD2EA70196010E941E2E2B
:100E7000E1E0E60FA7E8B5E08A2F801B8A1520F491
:100E80008D918E13F9CFE9CF2091860530E0A0E156
:100E9000B7E20E94B62D9B01AC01AE2FB0E00E94DC
:100EA000C52D40907D0550907E0560907F05709027
:100EB0008005640D751D861D971D4090BD055090E1
:100EC000BE056090BF057090C005461657066806BF
:100ED000790618F2E993A39488E1A812BACFCDB7A6
:100EE000DEB7E0E10C945B2E8436910520F4BC0162
:100EF00080E090E017C09C018E3B910528F42A55B4
:100F00003109AAE0B0E00CC0823D910528F4245BD1
:100F10003109A4E6B0E004C02D5C3109A8E5B2E0D7
:100F20000E94B62DA4E6B0E09B01AC010E94C52D45
:100F3000089590E08C599F4F0E947407089561E0D6
:100F400089E00E946E2960E089E00E94A729089547
:100F5000892B11F061E001C060E089E00E94A729BF
:100F6000089560E08EE00E946E2961E08FE00E94AB
:100F70006E2961E082E00E946E2960E083E00E94B9
:100F80006E2961E084E00E946E29089542E050E0FD
:100F900068E476E081E00E94F1270895E3E0F0E064
:100FA00089E080935700E491E67081E0E63009F033
:100FB00080E00895CF93DF93C82F0E94CE07882347
:100FC00081F0DFB781E080937405F8940E945706A2
:100FD00088E180936000C0936000C1110E945706B1
:100FE000DFBFDF91CF9108958F929F92AF92BF9212
:100FF000CF92DF92EF92FF92CF93FC01C0A5EC2F2E
:10100000E770F0E0E758FC4FA081B0E0C7FF03C0F5
:1010100024E130E002C02FE030E0FC0197A183E141
:10102000989FF0011124E25CFE4F80809180A280A5
:10103000B380A20FB31F20E43FE14DE750E00E94D0
:10104000D02DA50194010E94FC2D8C2F887149F4AC
:1010500069017A01E0EDCE0EE7E0DE1EE11CF11C35
:101060001BC0C7FF05C060E47AE88CE29EE004C0C4
:1010700060E07EEE8AEB9BE069017A01F8EBCF0E2F
:10108000FBE0DF1EE11CF11CA50194010E94FC2D78
:10109000C20ED31EE41EF51EC701B60169517C4F76
:1010A0008F4F9F4F28EE33E040E050E00E94FC2D30
:1010B000A8EEB3E00E94C52DCF91FF90EF90DF9096
:1010C000CF90BF90AF909F908F9008958F3F9105E4
:1010D00051F048F0811522E0920738F081159340D5
:1010E00030F482E0089580E0089581E0089583E07F
:1010F0000895A0E0B0E0EFE7F8E00C94482EEB0193
:101100008A01B82FB695A0E028813981F8012083A3
:101110002A813B8121832C813D8122832E813F8145
:101120002383688179814A815B812C813D81EE81B5
:10113000FF819F2F9295990F990F907C272F2370F5
:10114000922B252F2370220F220F922B232F2370F7
:101150002295207F922BF80194830B5F1F4F2896D6
:10116000AF5FBA1788F680FF24C0888199810E94FA
:101170006608D82E8A819B810E946608E82E8C81A1
:101180009D810E946608F82E8E819F810E946608CC
:10119000F0E4DF9EA001112490E1E99E900111246A
:1011A000242B282BE4E0FE9EB0011124262BF8010D
:1011B0002083CDB7DEB7E7E00C94642E803223E0C5
:1011C000920708F1883E23E0920740F48F51934044
:1011D000E4E096958795EA95E1F70895803D27E04C
:1011E000920718F48C5D93400895883928E092079F
:1011F00068F4885C974074E0969587957A95E1F756
:101200008D509C4F089580E090E008958FEF93E01B
:1012100008958C30910540F4A4E0880F991FAA9599
:10122000E1F7885D9C4F0895843F23E0920718F40E
:1012300084529C4F0895811524E0920740F486570C
:10124000934FF4E0880F991FFA95E1F7089580E92C
:1012500098E008959C013695279525753575821B74
:10126000930B9C0123733373969587959695879579
:1012700083739373820F931F9C0154E036952795D7
:101280005A95E1F7280F391F2F703F7041E051E068
:10129000249FC001259F900D349F900D1124892F0C
:1012A00008955A98882319F00000419A02C000005E
:1012B000419800005A9A000008955A9A000086B199
:1012C0005A98000081700895CF93DF93D82F5C9ACD
:1012D0005A985C98C8E08D2F80780E945109DD0FE4
:1012E000C150C9F75A98DF91CF9108958F770E9426
:1012F00064090895CF93DF93D82FC8E08D2F8078AD
:101300000E945109DD0FC150C9F75A98DF91CF9162
:101310000895CF93DF935A98C8E080E0D82FDD0F6F
:101320000E945D098D0FC150C9F7DF91CF910895DB
:101330000E9476090E9489095C9A0895A1E0B0E0B4
:10134000E4EAF9E00C944D2E806869830E946409F8
:101350006981862F0E947A095C9A2196E2E00C94BA
:10136000692ECF93C0918105C827E82FF0E0E85897
:10137000FA4F678589E70E949E096C2F8DE30E94D2
:101380009E096C2F82E40E949E09CF91089586E207
:101390000E9498090895CF93DF93EC016C818CE152
:1013A0000E949E096D818DE10E949E096E818EE1F1
:1013B0000E949E096F8180E20E949E09688581E2F9
:1013C0000E949E09698582E20E949E096A8583E2E5
:1013D0000E949E096B8584E20E949E096C8585E2CD
:1013E0000E949E096D858AE20E949E096E858EE6A6
:1013F0000E949E096F858FE60E949E09688980E79A
:101400000E949E09698981E70E949E096A8982E794
:101410000E949E09DF91CF910895CF92DF92EF92C3
:10142000FF92CF93DF936B017C01C11488E3D80650
:101430008CE9E8068CE1F80628F5C701B60120E83A
:1014400036E948E950E00E94FC2DE901689760E820
:1014500079E687E69FEF0E94D82D6C0D7D1D8E1DCD
:101460009F1DF2E0660F771F881F991FFA95D1F72D
:1014700021E732E040E050E00E94FC2DF22EE32E06
:1014800080E421C0C701B60120E03DE241E351E024
:101490000E94FC2DE901689760E073ED8EEC9EEFF1
:1014A0000E94D82D6C0D7D1D8E1D9F1D660F771F10
:1014B000881F991F21E732E040E050E00E94FC2D98
:1014C000F22EE32E80E66C2F6F71680F85E70E9485
:1014D0009E096E2D86E70E949E096F2D87E70E9468
:1014E0009E09DF91CF91FF90EF90DF90CF9008950C
:1014F000682F8DE60E949E0908958F929F92AF9269
:10150000BF92CF92DF92EF92FF92CF93DF93D82FCB
:1015100083E00E9498098093730584E00E949809F3
:101520008093720560E086E00E949E0961E087E09A
:101530000E949E096FE789E00E949E0965E08AE0AB
:101540000E949E0962E18BE00E949E0965E18CE0A9
:101550000E949E096DEF8DE00E949E0960E08EE082
:101560000E949E09DD2319F08BE291E008C02091D2
:101570009F0533E1239FC0011124825C9E4F0E948E
:10158000CB096CE880E30E949E096FE082E30E9431
:101590009E0962E483E30E949E098091A00587FF73
:1015A00002C064E101C06AE084E30E949E096AE22D
:1015B00085E30E949E096DE286E30E949E0964ED28
:1015C00087E30E949E0960E088E30E949E0960E034
:1015D00089E30E949E09D11109C0C0908105D09075
:1015E0008205E0908305F090840507C0C5E9CC2E04
:1015F000C1ECDC2EED2CCEEDFC2ECAE38F2C992411
:10160000AA24BB24682D8C2F0E949E09682D85E09A
:101610008C0F0E949E09FE2CED2CDC2CCC24CF5F7D
:10162000CE3361F76FEF83E40E949E096FEF84E48D
:101630000E949E096FEF85E40E949E096FEF86E489
:101640000E949E09DD2311F066E002C060918505CD
:101650008DE60E949E0960E089E70E949E096091E4
:1016600086058AE70E949E0960E083E70E949E0942
:1016700060E084E70E949E09D11109C060917D0558
:1016800070917E0580917F059091800504C060EC8B
:1016900072E98DEE99E10E940D0ADF91CF91FF90E2
:1016A000EF90DF90CF90BF90AF909F908F90089574
:1016B00061E087E00E949E0964E28EE70E949E0935
:1016C00063E088E00E949E0960E088E00E949E0935
:1016D00065E087E00E949E0962E085E00E949E0925
:1016E00083E00E9498098093730584E00E94980922
:1016F00080937205089583E00E9498098093730592
:1017000084E00E9498098093720561E087E00E945E
:101710009E096AE070E080E090E00E94E4280E9468
:10172000580B00000895CF92DF92FF920F931F9302
:10173000CF93DF931F92CDB7DEB7082F162F8EE31E
:1017400099830E949E09F02EC02E9981D92E8C2D4E
:101750008F19811738F4F60161916F018FE70E94AC
:101760009E09F5CF64E085E00E949E0983E00E9417
:1017700098098093730584E00E949809809372050C
:101780000E94C12860936E0570936F058093700569
:101790009093710569E087E00E949E0981E0809343
:1017A00075050F90DF91CF911F910F91FF90DF9002
:1017B000CF9008950F931F930E94930B809175050E
:1017C000813099F40E94C12800916E0510916F0537
:1017D0002091700530917105601B710B820B930B8A
:1017E000603A76488140910548F3809175058130D3
:1017F00031F46DE971E084EE95E00E94902A1F912A
:101800000F9108950F931F9380917505823021F4F5
:101810001092750581E020C0809175058130D9F462
:101820000E94C12800916E0510916F0520917005EE
:1018300030917105601B710B820B930B613A7648F6
:101840008140910540F061E087E00E949E0910927E
:10185000750582E001C080E01F910F910895CF933C
:10186000DF93EC014AE050E06D2F70E084EE95E0EC
:101870000E945E2B6EE284EE95E00E94622ABE0119
:1018800084E0769567958A95E1F76F7077274AE04F
:1018900050E084EE95E00E945E2B6EE284EE95E0CF
:1018A0000E94622ABE016F7077274AE050E084EE02
:1018B00095E00E945E2BDF91CF910895D82FC0E074
:1018C000CD1780F42C9A64E670E080E090E00E94EE
:1018D000E4282C9864E670E080E090E00E94E42820
:1018E000CF5FEECF6CE271E080E090E00E94E428F0
:1018F000E6CF0F931F93CF93DF93EC01062F15E0F4
:10190000115051F0CE010E945930081741F0602F5C
:10191000CE010E946130F4CF82E00E945E0CDF9124
:10192000CF911F910F910895A0E0B0E0EAE9FCE0AB
:101930000C943F2E482E562EC0E0D0E0612C712C26
:10194000E12CF12C00E010E041100CC06090D605B5
:1019500086E4689E3001112459E1E52EF12C0CEB50
:1019600015E01EC091E049120FC06090D605E6E474
:101970006E9E30011124FBE16F0E711C49E2E42ED2
:10198000F12C08E715E00CC082E0481209C028E1FC
:10199000622E77247394EE24E394F12C05ED15E088
:1019A00043018C0E9D1E109277051092760534012E
:1019B000A62CA818B12CC30101966C01AE14BF046B
:1019C000A8F4A00EB11E511006C0C3010E945930E8
:1019D000F501808305C0F5016081C3010E94790C87
:1019E000F50180810E9461063601E2CFC3015110EA
:1019F00018C0C3010E945930B82EC6010E94593048
:101A00002B2D30E0322F2227282B809176059091C4
:101A100077058217930779F4C0E0D0E055245394FA
:101A200093CF3601609177050E94790C609176051D
:101A3000C6010E94790CC05EDE4FC13E92E0D9071C
:101A400008F482CF852DCDB7DEB7E0E10C945B2E94
:101A500061E082E00E94940C089560E082E00E94C0
:101A6000940C8091D505853020F01092D5050E9408
:101A7000280D8091D5058093D605089561E080E01A
:101A80000E94940C61E081E00E94940C089560E053
:101A900080E00E94940C882351F060E081E00E9475
:101AA000940C882321F080917805883349F00E94B6
:101AB000BF060E947A0681E00E94DF060E943E0D6A
:101AC0000895882319F069EA71E002C06DEA71E0B7
:101AD00084EE95E00E94902A0895FF920F931F9341
:101AE000CF93DF9369EC7BE084EE95E00E943C2A83
:101AF00040917D0550917E0560917F057091800534
:101B00002AE030E084EE95E00E94652B63EB7BE0F9
:101B100084EE95E00E943C2A409181055091820517
:101B2000609183057091840520E130E084EE95E0BA
:101B30000E94652B6DE97BE084EE95E00E943C2AD3
:101B40004AE050E06091850584EE95E00E948D2B7F
:101B500067E87BE084EE95E00E943C2A4AE050E092
:101B60006091860584EE95E00E948D2B61E77BE015
:101B700084EE95E00E943C2AC7E8D5E0F12C8E0166
:101B800088818823A9F0FF2031F060EB71E084EEBA
:101B900095E00E945F2A21964AE050E0F8016081BA
:101BA00084EE95E00E94562BF394F8E1FF12E7CF04
:101BB00084EE95E00E946A2A6BE57BE084EE95E076
:101BC0000E943C2A4AE050E060919F0584EE95E037
:101BD0000E948D2B66E47BE084EE95E00E943C2A17
:101BE000E091A005E770F0E0EE0FFF1FEF57FC4F0C
:101BF0006081718184EE95E00E94902A61E37BE030
:101C000084EE95E00E943C2A8091A005887188307E
:101C100069F028F4811113C068E27BE00CC08031C8
:101C200041F0883161F46CE07BE005C06CE17BE061
:101C300002C066E17BE084EE95E00E947E2A68EFB8
:101C40007AE084EE95E00E943C2A4091790550911B
:101C50007A0560917B0570917C052AE030E084EE86
:101C600095E00E94652B6FED7AE084EE95E00E948E
:101C70003C2A8091C10580710E94610D66EC7AE07A
:101C800084EE95E00E943C2A8091C10580740E94F8
:101C9000610D6DEA7AE084EE95E00E943C2A809125
:101CA000C10580720E94610D60E97AE084EE95E0E2
:101CB0000E943C2A88E795E00E94F407AB01BC0132
:101CC0002AE030E084EE95E00E94472B6BE87AE052
:101CD00084EE95E00E943C2A88E795E00E94F40794
:101CE0009B01AC0160E472E48FE090E00E94FC2D67
:101CF000BA01A9012AE030E084EE95E00E94472B6A
:101D000068E87AE084EE95E00E947E2ACDB7DEB7DF
:101D1000E5E00C94662E8F929F92AF92BF92CF9285
:101D2000DF92EF92FF92811107C06FE77AE084EEB5
:101D300095E00E947E2A2FC090E00E94740724E65E
:101D400030E040E050E00E94FC2DCA01B9012AE0D9
:101D500030E040E050E00E94FC2D49015A016B0147
:101D60007C012AE030E0B501A40184EE95E00E94F8
:101D7000472B6EE284EE95E00E94622A2AE030E072
:101D8000B701A60184EE95E00E94472B63E784EE3D
:101D900095E00E94A22AFF90EF90DF90CF90BF9035
:101DA000AF909F908F9008951F93CF93DF9365E737
:101DB0007AE084EE95E00E943C2A8091A105813072
:101DC00041F46CE57AE084EE95E00E947E2A10E012
:101DD00050C0823019F465E47AE0F5CF843019F40C
:101DE00061E37AE0F0CF853091F766E27AE0EBCFFD
:101DF000C12FD0E0C930D1050CF441C068E3610FB8
:101E000084EE95E00E94622A6EE17AE084EE95E02D
:101E10000E943C2ABE016F5F7F4F4AE050E084EE93
:101E200095E00E94262B63E17AE084EE95E00E9423
:101E30003C2ACF55DA4FE981E03218F566E07AE0C6
:101E400084EE95E00E943C2A8981803130F06CE676
:101E500073E084EE95E00E945F2A69816F7070E004
:101E60006F5F7F4F4AE050E084EE95E00E942F2B99
:101E70001F5F80914A05181708F4BACF0FC061E3BD
:101E8000BECFEF70F0E0EE0FFF1FEF56FC4F60810A
:101E9000718184EE95E00E94902AEACF6BEE79E0A2
:101EA00084EE95E00E943C2A8091B9050E948B0E39
:101EB00060ED79E084EE95E00E943C2A8091BA05BD
:101EC0000E948B0E65EB79E084EE95E00E943C2A3F
:101ED0008091BB050E948B0E6AE979E084EE95E063
:101EE0000E943C2A4091B1055091B2056091B30522
:101EF0007091B405411551056105710539F12AE06C
:101F000030E084EE95E00E94652B67E679E084EE90
:101F100095E00E943C2A8091B5050E949907AB018B
:101F2000BC012AE030E084EE95E00E94652B63E47A
:101F300079E084EE95E00E943C2A4AE050E060910E
:101F4000B60584EE95E00E948D2B06C06AE379E029
:101F500084EE95E00E947E2A6DE179E084EE95E0C2
:101F60000E943C2A6091B7057091B8054AE050E0A4
:101F700084EE95E00E94772B60E079E084EE95E0B6
:101F80000E943C2A6091B005603450F470E06F5FAD
:101F90007F4F4AE050E084EE95E00E942F2B06C070
:101FA00067EF78E084EE95E00E947E2A6AED78E0A3
:101FB00084EE95E00E943C2A8091AF0580FF03C02B
:101FC00062EB71E002C066EB71E084EE95E00E9486
:101FD000902A6DEB78E084EE95E00E943C2A809197
:101FE000AF0582700E94610D6EE978E084EE95E0A5
:101FF0000E943C2A8091AF0584700E94610D6FE7BA
:1020000078E084EE95E00E943C2A8091AF058870CC
:102010000E94610DDF91CF911F9108950F931F933F
:10202000CF93DF93209147052F3FA9F56FEF75E020
:1020300084EE95E00E943C2A86E893E00E942F0CF3
:102040006EED75E084EE95E00E943C2A8091480593
:10205000909149050E942F0C6BEA75E084EE95E0A3
:102060000E947E2A68E875E084EE95E00E947E2A50
:1020700060E775E084EE95E00E947E2A6BE475E0EF
:1020800084EE95E00E947E2A84EE95E00E946A2A02
:102090000E94D40E68C012160CF065C0332727FDCD
:1020A000309580914A0590E0821793070CF45BC04D
:1020B00066E375E084EE95E00E943C2A6091470556
:1020C000772767FD70954AE050E084EE95E00E9426
:1020D0002F2B6BE075E084EE95E00E943C2A10E027
:1020E00008E280914B051817D0F5C12FD0E0CC0F36
:1020F000DD1FC45BDA4F288130E0809147059927C6
:1021000087FD909501972817390739F56AEB71E03B
:1021100084EE95E00E945F2A4AE050E0602F84EE52
:1021200095E00E94562B6EEB71E084EE95E00E94E4
:102130005F2AE981EF70F0E0EE0FFF1FEF56FC4FD2
:102140006081718184EE95E00E945F2A62EC71E00B
:1021500084EE95E00E945F2A0F5F1F5FC2CF84EE7E
:1021600095E00E946A2ADF91CF911F910F91089507
:10217000FF920F931F93CF93DF93C7E8D5E0F12C25
:102180008E0188818823D1F164EC71E084EE95E0C2
:102190000E945F2A4AE050E06F2D84EE95E00E9495
:1021A000562B61ED71E084EE95E00E945F2A219646
:1021B000F801208130E0A0E1B7E20E94B62D9B013A
:1021C000AC01A0918605B0E00E94C52DAB01BC0119
:1021D00080917D0590917E05A0917F05B09180054D
:1021E000480F591F6A1F7B1F2AE030E084EE95E0FC
:1021F0000E94652BF394F8E1FF12C2CFCDB7DEB792
:10220000E5E00C94662E1092E10485E6E2EEF4E03F
:10221000DF011D928A95E9F70895CF93C82F8F3774
:1022200019F0883009F045C0E091E104EE23D9F1BE
:10223000E150E093E104F0E0EE51FB4F10826DE0DD
:1022400070E084EE95E00E945906C0E08091E104C0
:10225000C81760F4EC2FF0E0EE51FB4F608170E0A6
:1022600084EE95E00E945906CF5FF0CF60E270E007
:1022700084EE95E00E9459066DE070E084EE95E0F2
:102280000E945906C0E08091E104C81778F5EC2F50
:10229000F0E0EE51FB4F608170E084EE95E00E942B
:1022A0005906CF5FF0CF67E084EE95E00E94622A86
:1022B0001DC08B3119F40E9403111AC08D30C1F07A
:1022C0008A30B1F08091E104843668F76C2F70E0B9
:1022D00084EE95E00E945906E091E10481E08E0FC2
:1022E0008093E104F0E0EE51FB4FC08380E001C039
:1022F00081E0CF910895CF93C82F0E94C1286093A9
:10230000CA047093CB048093CC049093CD04C09303
:10231000DF04CC2329F040E051EE60E070E004C01F
:1023200040E855E260E070E084EE95E00E94EC2C1D
:10233000CF9108959091CE04492F4F7050E0BA018B
:102340006F5F7F4F292F30E0E4E035952795EA95C0
:10235000E1F76217730759F0FA01E153FB4F8083ED
:1023600081E0890F8F70907F892B8093CE04089530
:102370006EE770E084EE95E00E9459060895A3E1AF
:10238000B1E0E5ECF1E10C94402EE7E8F5E0712CCA
:102390008191882321F0739428E17212F9CF65EDC1
:1023A00071E084EE95E00E94902A4AE050E0672DAB
:1023B00084EE95E00E948D2B80E00E947D0A0E94B1
:1023C000580B8E010E5F1F4FC12CD12C7601C39488
:1023D00066246A945C2C0E94B5284B015C01209114
:1023E000860530E0A0E1B7E20E94B62D9B01AC016A
:1023F000C701B6010E94D82D20917D0530917E0540
:1024000040917F0550918005620F731F841F951FB7
:102410002091BD053091BE054091BF055091C0058A
:10242000261737074807590718F4F801608225C0B6
:102430008C2D0E94B10961E070E080E090E00E9484
:10244000E428F80110820E94B528681979098A09E0
:102450009B09643F71408105910540F40E94C709C2
:10246000F8019081981778F78083EDCF50FE03C074
:102470002B982C9A02C02B9A2C982FEFC21AD20AB2
:10248000E20AF20A0F5F1F4F8FEFC816D104E10472
:10249000F10409F09FCFCE019395FC01D82E7FEF78
:1024A00068EC2E2F281B271510F051E056C0DE01D6
:1024B000129651E02FEF41E03D91321710F0322F8C
:1024C00001C0452F5F5F5F3F11F0232FF5CF419390
:1024D000242F30E0A1E0B0E0AC0FBD1FA20FB31F6E
:1024E0005C93413079F0DE01A20FB31F5C93423060
:1024F00049F0AFEFBFEFAC0FBD1FA20FB31F6C933E
:102500004E3F78F6A2E0B0E0AC0FBD1FA20FB31FA4
:102510007C934D3F30F6A3E0B0E0AC0FBD1FA20F9F
:10252000B31F6C93BECF452F242F30E0FC01E20F88
:10253000F31F6081AFEFB0E0AC0FBD1FA20FB31F60
:102540002C91621748F44150DC01A40FB11D2C916D
:1025500020836C934111E8CF5F5F571520F3372D2F
:10256000369520E0231770F4DC01A20FB11D4C91C9
:10257000522F530FFC01E50FF11D50815C934083F6
:102580002E5FF0CFF7E8EF2EF5E0FF2E8C01802FC5
:102590008D19871598F4F801C1908F014AE050E039
:1025A0006C2D84EE95E00E94562B6CE284EE95E053
:1025B0000E94622AF701C1927F01E9CF84EE95E083
:1025C0000E946A2A81E0CD5EDE4FEFE00C945C2E23
:1025D0001F920F920FB60F9211240F931F932F93F8
:1025E0003F934F935F936F937F938F939F93AF939B
:1025F000BF93EF93FF934091C1055091C205609145
:10260000C3057091C40586B18A019B01007411272E
:102610002227332785FB882780F990E0A0E0B0E0EF
:10262000081719072A073B0709F468C0809184003E
:102630009091850010928500109284002091A7044B
:1026400021115CC045FD02C096958795853C29E027
:102650009207C0F180910A0190E0A0E0B0E00CE1A7
:1026600076956795579547950A95D1F74115510588
:102670006105710521F441E050E060E070E0481729
:1026800059076A077B07D8F480910A018F3FB9F098
:1026900040E080910A01481780F4842F90E0880F71
:1026A000991FFC01E957FB4F20813181FC01E55F57
:1026B000FE4F318320834F5FECCF1092A80410921D
:1026C0000A011CC08D3B22E09207A8F020910A016C
:1026D000203188F410910A0121E0210F20930A0192
:1026E0000E94DE08E12FF0E0EE0FFF1FE957FB4FDD
:1026F0009183808303C08FEF80930A01FF91EF9154
:10270000BF91AF919F918F917F916F915F914F9109
:102710003F912F911F910F910F900FBE0F901F901F
:10272000189583E0809380008AE1809381008FEF89
:102730009FEF909389008093880010926F0080E251
:1027400080936C00E8E6F0E08081826080830895E9
:102750000E942D0D8091D605843011F41092D6057B
:1027600008956F3018F086958058089589E0689F25
:10277000802D11240895A0E0B0E0E1ECF3E10C9489
:10278000472EC82F0E94C1280091380410913904A7
:1027900020913A0430913B046B017C01C01AD10AAC
:1027A000E20AF30A9701860149E8C41643E1D40618
:1027B000E104F10410F010923C046093380470932B
:1027C000390480933A0490933B042091A7048FEF3F
:1027D000820F8230E8F5E0913C04EE2309F46EC1EB
:1027E000E13011F482E0D8C1E03178F581E08E0F5C
:1027F00080933C04F0E0E957FB4FC083803109F03F
:10280000D4C1E9E8F4E0213029F4A181A695A69588
:10281000808108C080819181A92FA695A695A69553
:1028200096958795A03148F4B0E090E0AA0FBB1FC1
:10283000A55FBE4F11969C938E931092A80432967A
:1028400084E0E739F807F9F6B0C110923C04ADC155
:10285000233009F023C1E0913C04E11118C0CF30CE
:1028600009F011C10E94B5280091B5041091B60479
:102870002091B7043091B804601B710B820B930B4D
:10288000623071058105910508F089C1FCC0E7310E
:1028900048F481E08E0F80933C04F0E0EA57FB4F50
:1028A000C083F1C0E73109F0ECC0C111EAC040E0DB
:1028B00050E0ABE0CA01B3E0880F991FBA95E1F789
:1028C000A49F9001A59F300D1124F901E957FB4FFA
:1028D0006081E1817E2F777075956795FC01EE0F21
:1028E000FF1FE55FFE4F71836083F901E857FB4FDF
:1028F000B081B695B695B695E181FE2FF295FF0FA2
:10290000F07E6F2F6B2BE695E695E6957E2F777020
:1029100075956795FC01EE0FFF1FE35FFE4F718316
:102920006083F901E757FB4FB081B295B695B69534
:10293000B370C181DC2FDD0FDD0F6D2F6B2BC295C6
:10294000C695C695C370E281E170EE0FEE0F7E2F43
:102950007C2B75956795FC01EE0FFF1FE15FFE4F25
:1029600071836083F901E557FB4FB081B695E18132
:10297000FE2FF795FF27F7956F2F6B2BE6957E2F90
:10298000777075956795FC01EE0FFF1FEF5EFE4FA8
:1029900071836083F901E457FB4FB081B295BF703A
:1029A000E181FE2FF295F07F6F2F6B2BE295EF7098
:1029B0007E2F777075956795FC01EE0FFF1FED5E1A
:1029C000FE4F71836083F901E357FB4FB081BB1F5A
:1029D000BB27BB1FC181DC2FDD0F6D2F6B2BCC1FE5
:1029E000CC27CC1FE281E370EE0F7E2F7C2B7595F8
:1029F0006795FC01EE0FFF1FEB5EFE4F7183608356
:102A0000F901E157FB4FB081B695B695E181FE2FF4
:102A1000F295FF0FFF0FF07C6F2F6B2BE695E6957D
:102A20007E2F777075956795FC01EE0FFF1FE95EAD
:102A3000FE4F71836083F901E057FB4F208122959F
:102A4000269527703181E32FEE0FEE0FEE0F6E2FDC
:102A5000622B732F72957695777075956795FC014B
:102A6000EE0FFF1FE75EFE4F718360834F5F5F4F86
:102A70004230510509F01ECF80919D0483FF1092D2
:102A8000A80410923C040E94B5286093B50470938A
:102A9000B6048093B7049093B80487C0243009F03B
:102AA00084C060913C0461110BC0C83AB1F410922B
:102AB00077051092760588EA0E94610681E06CC075
:102AC000613019F4C093370404C0623031F4C0930C
:102AD00036048C2F0E9461065AC0E09136042E2FD6
:102AE00030E0220F331F462F50E0C90102968417B1
:102AF00095073CF0633268F7FA01EC57FB4FC0834F
:102B0000E8CF2D5F3F4F8C2F90E06091760570915C
:102B100077054217530749F4982F88278627972768
:102B2000909377058093760532C06817790769F529
:102B300080913704813049F5E13118F080E18093CC
:102B40003604F0903604C8E8D4E000E010E00F1539
:102B5000D0F4FE013197808190E0982F882728815A
:102B6000822B43E0969587954A95E1F70E94DE080F
:102B7000F801EE0FFF1FE55FFE4F918380830F5F2B
:102B80001F4F2296E4CF1092A80410923C0480912B
:102B90003C04882351F08F5F80933C0406C08091F1
:102BA0003C048F5F80933C046ECFCDB7DEB7E8E086
:102BB0000C94632EE82FF0E0E454FA4FE185E03105
:102BC00050F4F894F0E0EE0FFF1FE55FFE4F8081B8
:102BD0009181789408958EE08E0F8B3058F4F0E058
:102BE000E25FF10924E62E9FC0012F9F900D112472
:102BF0000C960895E13F59F018F4E03F89F004C0C5
:102C0000ED3F41F0EE3F49F080E092E0089586E02C
:102C100090E008958AEF93E008958FEF93E0089590
:102C200080E090E00895A2E2B0E0E9E1F6E10C94E2
:102C30003D2E9E012F5F3F4F80E1D9011D928A9565
:102C4000E9F763E072E084EE95E029A33AA30E94DD
:102C5000902A0E947B0B1D8A1E8A1F8A188E312C97
:102C6000212C00E0812C912C540170E4472E71EE50
:102C7000572E7DE9672E78E1772EE0E5CE2EE3EC46
:102C8000DE2EE12CF12C84EF91E0A0E0B0E08D8FFE
:102C90009E8FAF8FB8A380EC91EDA8E9BBE1898F3F
:102CA0009A8FAB8FBC8F80E491EEADE9B8E1898B50
:102CB0009A8BAB8BBC8B84EE95E00E94A42B892B66
:102CC00009F4E1C084EE95E00E94D12B9C013327EA
:102CD0002C32310509F442C0ACF42332310509F03D
:102CE000ABC019821A821B821C821D821E821F8227
:102CF000188619861A861B861C861D861E861F86C8
:102D0000188A60C02434310529F02335310509F4CF
:102D1000B2C092C064E484EE95E00E94622A2AE088
:102D200030E040E451EE6DE978E184EE95E00E94F8
:102D3000F02A6CE284EE95E00E94622A2AE030E0FC
:102D400040EC51ED68E97BE184EE95E00E94F02AC9
:102D50006CE284EE95E00E94A22AADCF0F5F0430B2
:102D600009F0A9CF29813A814B815C81A8EEB3E0BB
:102D70000E94C52D698B7A8B8B8B9C8B2D813E811C
:102D80004F8158850E94C52D698F7A8F8B8F9C8FBC
:102D900029853A854B855C852D8F3E8F4F8F58A3B3
:102DA0002D853E854F8558890E94C52D6B017C017C
:102DB00060323EE473078105910530F462E38CE1F3
:102DC0000E949E0900E077CF603345E774078105D4
:102DD000910510F462E2F3CF60345CE97507810578
:102DE000910510F466E2EBCF80E5C81683ECD806B7
:102DF000E104F10410F462E1E2CF90E6C9169AEE24
:102E0000D906E104F10410F465E1D9CFA0E7CA16B0
:102E1000A1E1DA06A1E0EA06F10410F461E0CFCF07
:102E2000B0EACB16B6E8DB06B1E0EB06F10410F42D
:102E300063E0C5CF65E0C3CF10ED180F1A3008F07E
:102E40003ACFE1E0F0E0EC0FFD1F24E0029FE00D3F
:102E5000F11D11242081318142815381AAE0B0E02B
:102E60000E94C52D610F711D811D911D60837183AD
:102E70008283938320CF49885A886B887C88812CF1
:102E8000912C540118CF81149104A104B10489F448
:102E9000C301B2010E940D0A61E070E080E090E0A1
:102EA0000E94E4281D8A1E8A1F8A188E312C222433
:102EB0002A948D8D9E8DAF8DB8A188169906AA068D
:102EC000BB06D0F40E94C7092D893E894F89588DD1
:102ED000280F311D411D511D2D8B3E8B4F8B588F5F
:102EE000381608F4382E821508F4282E3FEF831A7E
:102EF000930AA30AB30A56C0C301B20128EE33E015
:102F000040E050E00E94FC2DBA01A9012AE030E027
:102F100084EE95E00E94472B6CE284EE95E00E94DF
:102F2000622A4AE050E0632D84EE95E00E94562B21
:102F30006CE284EE95E00E94622A6D897E898F8919
:102F4000988DA50194010E94FC2DBA01A9012AE0E7
:102F500030E084EE95E00E94472B6CE284EE95E031
:102F60000E94622A4AE050E0622D84EE95E00E94C1
:102F7000562B6CE284EE95E00E94A22A4C0C5D1C5C
:102F80006E1C7F1C898D9A8DAB8DBC8D841595052B
:102F9000A605B70520F449885A886B887C88812C5F
:102FA000912C540129893A894B895C89283E334008
:102FB0004105510509F07FCEA296E2E10C94592E0D
:102FC000ACE1B0E0E6EEF7E10C94472E0E94C12898
:102FD0006B017C0181E00E947D0A14E703E0198304
:102FE00061E0CE0101960E94DA0B009375050E9404
:102FF000580B6AEF70E080E090E00E94E428809136
:103000007505833089F484EE95E00E94A42B892B0A
:1030100059F40E94C1286C197D098E099F096038F6
:10302000734C894C9140D8F280917505833009F436
:103030004FC08FE70E9476090E94890989838435F1
:1030400011F083E05CC00E948909109248058093CA
:1030500049050E9489092091480530914905280FAA
:10306000311D30934905209348050E9489098093BA
:103070004A050E94890980934B05813110F7F12C94
:103080000F2D10E080914B0590E0880F991F0817D5
:10309000190740F40E948909F801E45BFA4F808324
:1030A000F394EECF80E7898361E0CE0101960E9420
:1030B000DA0B83E0809375050E94580B62E370E0A1
:1030C00080E090E00E94E42880917505833011F43F
:1030D00082E015C08FE70E9476090E9489098983E2
:1030E000803509F0AECF01EA15E00E948909F801A8
:1030F00081938F01F5E00C3B1F07B9F781E06C96D7
:10310000E8E00C94632E80914705992787FD909500
:10311000A92FB92FFC013196EB30F10508F066C0FC
:10312000EC5CFF4F0C94742E62E778E084EE95E03F
:103130000E947E2A86E893E00E942F0C6AE578E0E0
:1031400084EE95E00E947E2A65E378E084EE95E0C7
:103150000E947E2A6BE078E084EE95E00E947E2A51
:103160006AEE77E084EE95E00E947E2A6DEB77E0D0
:1031700084EE95E00E947E2A67E977E084EE95E090
:103180000E947E2A63E777E084EE95E00E947E2A23
:103190006CE477E084EE95E00E947E2A84EE95E070
:1031A0000E946A2A0E946D0D21C06FE277E01AC06A
:1031B0006AE077E017C065EF76E014C066ED76E070
:1031C00011C062E976E00EC06DE776E00BC068E6FC
:1031D00076E084EE95E00E947E2A62E276E002C00C
:1031E0006CE076E084EE95E00E947E2A6AE070E072
:1031F00080E090E00E94E42884EE95E00E94A42BF9
:10320000892B29F084EE95E00E94D12BF5CF08950B
:10321000ACE1B0E0EEE0F9E10C94472E9091470567
:103220009F3F09F023C1482F50E0FA013A97EF364B
:10323000F10508F00FC1E15CFF4F0C94742E60E1C2
:1032400072E0A0C06CE172E084EE95E00E94902AEA
:1032500085E789838BE1E1EAF5E0DE0112960190D2
:103260000D928A95E1F76CE1CE0101960E94DA0B8E
:103270000E94580B83E08093750568EC70E080E055
:1032800090E00E94E42880917505843009F0E2C046
:103290008FE70E9476090E9489098983853509F0A4
:1032A000D9C06DEE74E084EE95E00E947E2A6FEC4A
:1032B00074E084EE95E00E947E2A61EB74E096C093
:1032C00064E372E084EE95E00E94902A89E68983A7
:1032D00061E0CE0101960E94DA0B0E94580B83E058
:1032E0008093750568EC70E080E090E00E94E4282F
:1032F00080917505843009F0ADC08FE70E94760992
:103300000E94890989838E010E5F1F4F7E014DE166
:10331000E40EF11C0E948909F80181938F01EE15DA
:10332000FF05C1F78BE1FE013296A1EAB5E00190FD
:103330000D928A95E1F78981893409F08BC063E9A0
:1033400074E084EE95E00E947E2A65E774E084EEE6
:1033500095E00E947E2A67E574E048C06EE472E062
:1033600084EE95E00E94902A8EEF8093470572C00C
:1033700080528750805390914A05981708F066C094
:103380006DE572E084EE95E00E94902A63C084E1CE
:103390008093470560E274E029C085E1809347058A
:1033A00069EE73E023C086E18093470562EB73E02A
:1033B0001DC087E18093470568E673E017C088E188
:1033C0008093470567E573E011C089E18093470565
:1033D00063E473E00BC08AE1809347056EE273E01B
:1033E00005C08BE18093470566E073E084EE95E0CD
:1033F0000E947E2A2FC06CEE72E084EE95E00E945F
:103400007E2A8091AF0591E01DC066ED72E084EEEA
:1034100095E00E947E2A8091AF0592E013C061EC96
:1034200072E084EE95E00E947E2A8091AF0594E0E0
:1034300009C066EA72E084EE95E00E947E2A8091DF
:10344000AF0598E089278093AF058FEF80934705FC
:103450000E940E1084EE95E00E94A42B892B09F4A3
:103460005BC184EE95E00E94D12BF4CF0E940D1138
:10347000882309F451C18091E104811104C08FEFC8
:103480008093470541C140E050E060E070E082EE8B
:1034900094E00E94EB2E40914705042F112707FD71
:1034A0001095212F312FF8013197EB31F10508F0FC
:1034B0001BC1E255FF4F0C94742E552747FD5095C4
:1034C00020914A0530E0241735070CF40DC18B011B
:1034D0009C01015011092109310900321105210512
:1034E000310558F0C0904B05EDE4F5E0F12CD12CFE
:1034F000A8E2EA2E415051090FC0FA01EF55FA4FE8
:1035000061506083D9C0DF0111972C9130E02417FE
:10351000350729F0F3943296FC10F5CFCBC00E2D71
:1035200010E020E030E0061717072807390741F4BC
:103530002081DA01AF55BA4F11962C93DD24D39434
:10354000E394E8CF6F3F71058105910511F008F014
:10355000CBC06093B905B0C06F3F7105810591057F
:1035600011F008F0C1C06093BA05A6C06F3F7105A5
:103570008105910511F008F0B7C06093BB059CC0B0
:103580002091E20420622037E9F440E050E060E05E
:1035900070E083EE94E00E94EB2E9B01AC01DC0115
:1035A000CB010197A109B1090897A105B10508F060
:1035B000AEC0A4EDB0E30E94C52D6A5E7C4A8A4687
:1035C000954E24C02636E9F440E050E060E070E01B
:1035D00083EE94E00E94EB2E9B01AC01DC01CB0159
:1035E0000197A109B1090797A105B10508F08FC09E
:1035F000A8EAB1E60E94C52D645E7C438E46944ED7
:1036000005C0611571058105910579F08B019C015B
:103610000054114E2D4938410138F0EF1F07FAEFE1
:103620002F07F2E03F0708F05FC06093B105709389
:10363000B2058093B3059093B4053EC06F3F71050A
:103640008105910511F008F04FC06093B50534C0B5
:103650008B019C0101501109210931090F3F11050E
:103660002105310508F040C06093B60525C08B01E7
:103670009C01045C1940210931090D344DE1140706
:103680002105310528F47093B8056093B70514C07F
:10369000611571058105910521F48FEF8093B005C7
:1036A0000BC06134710581059105F0F461506093A0
:1036B000B00502C0DD20C1F08091E00481111AC084
:1036C0008091810590918205A0918305B091840538
:1036D0000196A11DB11D8093810590938205A09351
:1036E0008305B093840506C06FE672E084EE95E032
:1036F0000E94902A0E9403118FEF809347056AE091
:1037000084EE95E00E94A22A0E940E1005C061E09E
:1037100070E080E090E07ACF6C96E8E00C94632E45
:103720006AE572E084EE95E00E947E2A62E472E02F
:1037300084EE95E00E947E2A84EE95E00E94A42B00
:10374000892B31F084EE95E00E94D12B0E9408195C
:103750000E94E017823029F0833051F46DE072E06E
:1037600002C064E272E084EE95E00E947E2A089531
:103770008FEF809347051092E0040E940E10809115
:1037800047058E3F69F084EE95E00E94A42B892BBB
:10379000B1F384EE95E00E94D12B0E940819EFCF7F
:1037A00008950F931F93109147051F3F09F0D2C052
:1037B000893409F457C000F5883309F469C058F416
:1037C000803309F477C008F061C08B3109F440C040
:1037D0008132B1F1B9C0813409F487C030F4893342
:1037E00009F466C0803461F1AFC0823409F48EC040
:1037F000863409F448C0A8C0823609F487C078F43A
:10380000883531F128F48235C1F18335E1F09CC06F
:103810008A3509F494C0813609F467C095C08237AF
:1038200061F128F4863679F18936E1F08DC0883768
:1038300079F08A3709F483C0833709F085C003C063
:1038400060E172E015C00E943E0D6DE872E004C0B8
:103850000E94470D67EA72E084EE95E00E94902A8C
:103860008EEF70C00E947A060E94BF0666EC72E07E
:1038700084EE95E00E94902A67C081E00E94DF06F6
:103880006FED72E0F5CF0E94B8105EC080535AC051
:103890006AEF71E084EE95E00E947E2A9091A00587
:1038A00088E0890F8871977E892B8093A0051AC0C4
:1038B00089E048C067EE71E084EE95E00E947E2AC0
:1038C0008091C1059091C205A091C305B091C40536
:1038D00020E182278093C1059093C205A093C30580
:1038E000B093C405109347052FC061ED71E084EEDD
:1038F00095E00E947E2A8091C1059091C205A09119
:10390000C305B091C40540E4842710C060EC71E0A9
:1039100084EE95E00E947E2A8091C1059091C205B7
:10392000A091C305B091C40520E282278093C10510
:103930009093C205A093C305B093C40502C00E9432
:10394000901B8FEF80934705809147058E3F09F0CC
:10395000D4C0DDC00E940D11882309F4D8C0809125
:10396000E104811104C08FEF80934705C6C040E099
:1039700050E060E070E082EE94E00E94EB2E009157
:103980004705112707FD1095212F312FF801319799
:10399000E930F10508F0B4C0E753FF4F0C94742EE2
:1039A0008B019C010154114E2D4938410F37104FA6
:1039B0002A4F324008F0A4C060937D0570937E05C5
:1039C00080937F059093800577C060938105709305
:1039D0008205809383059093840581E08093E004C1
:1039E0006BC0683071058105910508F089C060934E
:1039F000850562C08B019C01015011092109310923
:103A00000A3011052105310508F07AC0609386055A
:103A100053C060EB71E082EE94E00E94253010E02C
:103A2000009799F00E94FF2F009779F0183130F439
:103A3000E12FF0E0E858FA4F87871F5F60EB71E0F5
:103A400080E090E00E942530EBCF1831A8F5E12FFF
:103A5000F0E0E858FA4F17861F5FF7CF6530710521
:103A60008105910508F04CC060939F0525C08B012E
:103A70009C01015011092109310906301105210568
:103A80003105F0F52091A005287F262B2093A00575
:103A900013C08B019C010150110921093109011545
:103AA000124C2140310560F56093790570937A05D9
:103AB00080937B0590937C058091E004811113C075
:103AC0008091810590918205A0918305B091840534
:103AD0000196A11DB11D8093810590938205A0934D
:103AE0008305B09384050E9403118FEF80934705EF
:103AF0006AE084EE95E00E94A22A0E94831807C023
:103B00006FE672E084EE95E00E94902AECCF1F9160
:103B10000F9108958FEF809347051092E0040E9463
:103B20008318809147058E3F69F084EE95E00E94EE
:103B3000A42B892BB1F384EE95E00E94D12B0E9437
:103B4000D11BEFCF6AE070E080E090E00E94E428B3
:103B500084EE95E00E94A42B892B29F084EE95E059
:103B60000E94D12BF5CF0895CF93C82F682F84EEF4
:103B700095E00E94FE2B90916C059C2790936C051C
:103B8000CF910895A1E0B0E0E8ECFDE10C944D2E5A
:103B900099830E94B41D9981892F0E94B41D21969A
:103BA000E2E00C94692E1F93CF93DF93182FEB0163
:103BB00010926C0565EB70E084EE95E00E9459066A
:103BC00062E670E084EE95E00E945906812F0E9423
:103BD000B41DCE010E94C21DDF91CF911F910895A7
:103BE00060916C0584EE95E00E94FE2B0895A1E2A1
:103BF000B0E0EDEFFDE10C94492E7B018A018C30A1
:103C000009F452C108F040C0863009F4BCC018F570
:103C1000833009F491C070F4813009F472C08230AD
:103C200009F049C26BE170E082E00E94D31D01EA15
:103C300015E078C0843009F487C0853009F03BC2B4
:103C400060914B0570E0660F771F85E00E94D31DE1
:103C50000CE415E086C0893009F4A7C070F4873001
:103C600009F49BC0883009F026C261E070E088E06A
:103C70000E94D31D8091D60524C28A3009F4CAC09F
:103C80008B3009F4F1C017C28A3609F474C1D8F434
:103C9000873609F439C138F4853609F40DC1863602
:103CA00009F41EC108C2883609F436C1893609F004
:103CB00002C261E070E089E60E94D31D0E947A068C
:103CC0000E94BF06F6C18D3609F4D3C138F48B3695
:103CD00009F490C18C3609F499C1EDC18E3609F40E
:103CE000DDC1873C09F0E7C161E070E087EC0E942C
:103CF000D31D81E00E94B41D0E94F01D10926D053D
:103D0000E4C169E270E081E00E94D31D08E715E09C
:103D1000F80181918F010E94B41DF5E0013A1F075F
:103D2000B9F7D1C1F80181918F010E94B41DF5E06E
:103D30000C3B1F07B9F7C7C161E070E083E00E9448
:103D4000D31D0E94E017BDC161E070E084E00E94D5
:103D5000D31D81E00E94B41D0E94F01D0E94131625
:103D6000B4C180914B0590E0880F991F98012C54A5
:103D700035402817390708F0A6C1F80181918F0155
:103D80000E94B41DEECF62E070E086E00E94D31D79
:103D900086E893E00E94C21D96C161E070E087E072
:103DA0000E94D31D80914A058CC186E6898361E01B
:103DB000CE0101960E94DA0B0E94580B83E080939B
:103DC000750568EC70E080E090E00E94E428809146
:103DD00075058430D9F48FE70E9476090E9489091D
:103DE0008983863469F460E270E089E00E94D31D23
:103DF00010E20E9489090E94B41D1150D1F763C1DD
:103E000061E070E089E00E94D31D53C161E070E081
:103E100089E054C169E170E08AE00E94D31D1092EC
:103E2000BC05209174058091C1059091C205A091B7
:103E3000C305B091C405222311F0806801C08F77BB
:103E40008093C1059093C205A093C305B093C405A8
:103E50000CEB15E0F80181918F010E94B41DF5E093
:103E6000053D1F07B9F72FC161E270E08BE00E94AA
:103E7000D31D8091A8048F3F39F08091A80491E070
:103E8000980F9093A80402C08091A8040E94B41DCA
:103E900010E0812F0E94DA150E9409090E94C21DBC
:103EA0001F5F1031B1F70FC161E070E08CE00E943C
:103EB000D31D8091D50505C161E070E085E60E94C3
:103EC000D31D89E2E816F10409F0FAC0D801E8E749
:103ED000F5E08D91819385E0E13AF807D1F7E9C0EB
:103EE00061E070E086E60E94D31DEBE1EE16F1047E
:103EF00009F0E6C0D801E1EAF5E08D91819385E013
:103F0000EC3BF807D1F7D5C061E070E087E60E948E
:103F1000D31D0E943E0DCDC061E070E088E60E9496
:103F2000D31D85E789838BE1E1EAF5E0DE01129696
:103F300001900D928A95E1F76CE1CE0101960E9405
:103F4000DA0B0E94580B83E08093750560E273E002
:103F500080E090E00E94E42880917505843009F0AB
:103F6000AFC08FE70E9476090E9489098983853551
:103F700009F0A6C09EC061E070E08AE60E94D31DF1
:103F800089E6898361E0CE0101960E94DA0B0E94E6
:103F9000580B83E08093750560E273E080E090E069
:103FA0000E94E42880917505843009F089C08FE76C
:103FB0000E9476090E94890989838E010E5F1F4F36
:103FC0007E01EDE1EE0EF11C0E948909F80181935A
:103FD0008F01EE15FF05C1F78BE1FE013296A1EAD4
:103FE000B5E001900D928A95E1F78981893409F055
:103FF00067C05FC061E070E08BE60E94D31DF801EE
:1040000080818093D6050E94470D53C061E070E027
:104010008CE60E94D31DF0E2EF16F10461F487E60E
:10402000898380E2F801DE01129601900D928A9553
:10403000E1F761E203C087E4898361E0CE01019684
:104040000E94DA0B0E94580B83E0809375056CE4A4
:1040500074E080E090E00E94E4288091750584304F
:1040600079F58FE70E9476090E948909873441F526
:1040700020C061E070E08DE60E94D31D89E1E81662
:10408000F104F1F4D801ECEBF5E08D91819385E03A
:10409000E53DF807D1F70E9491130BC061E070E095
:1040A0008EE60E94D31DF80180818093D5050E9481
:1040B000280D81E006C061E070E08AEC0E94D31D0B
:1040C00080E00E94B41D0E94F01DA196E6E00C94D1
:1040D000652EA0E0B0E0EFE6F0E20C94472ECAECCB
:1040E000D3E014E606E035E0F32E44E0E42E53E09E
:1040F000D52E62E0C62E84EE95E00E94A42B892B7B
:1041000009F49BC084EE95E00E94D12B282F809368
:1041100035044091340450E04730510560F7FA010E
:10412000EE52FF4F0C94742E853B29F781E080936B
:104130003404E1CF823609F07DC0C0923404DBCF75
:104140008093330480933204D0923404D4CF9C0102
:104150003327309331042093300490913204982710
:1041600090933204E0923404C6CF382F2227409136
:10417000300450913104242B352B3093310420939B
:10418000300490913204982790933204F0923404D2
:104190002536310508F4AFCF61E070E08CEC0E9469
:1041A000D31D81E00E94B41D0E94F01D43C02091E8
:1041B0002E0430912F04F901E653FC4F8083909137
:1041C0003204982790933204C901019690932F04EA
:1041D00080932E042091300430913104821793078C
:1041E00008F489CF0093340486CF8091320482137F
:1041F0000BC060912E0470912F044AEC53E0809123
:1042000033040E94F71D0DC062E070E08BEC0E9449
:10421000D31D809133040E94B41D80916C050E94CF
:10422000B41DFE01812F11928A95E9F710922F0497
:1042300010922E04109234045ECFCDB7DEB7E8E0C2
:104240000C94632E81E080936D0580916D05882329
:1042500049F084EE95E00E94A42B892BB1F30E94D3
:104260006920F3CF0895AAE2B0E0E9E3F1E20C940B
:10427000452E0E94B5286B017C0181E00E947D0AD9
:1042800084EE95E00E94A42B892B29F084EE95E022
:104290000E94D12BF5CF2C9811E072E6B72EE9E2FF
:1042A000AE2E03E00E94B5286C197D098E099F0986
:1042B000693C710581059105D0F11123C1F10E947E
:1042C000B5286B017C012B9A80ED97E00E94A8072E
:1042D000B982E8E7F5E0DE0112968A2D01900D9291
:1042E0008A95E1F76AE2CE0101960E94DA0B2B98DB
:1042F00080E090E00E94A807009375050E94580B8B
:1043000062E370E080E090E00E94E428809175050F
:10431000843061F4009375058FE70E9476090E944E
:10432000890911E0823419F410E001C011E08AE03B
:104330000E94DA29892B81F411E00EC02C9A2B9A65
:1043400084EE95E00E94D12B8D309105A9F05CF4AC
:104350000A9791F02C982B9884EE95E00E94A42B5C
:10436000892B61F79FCF8332910579F082349105D3
:1043700089F70E942221EECF62EB71E084EE95E096
:104380000E947E2A0E948A1DE5CF0E941316E2CF6A
:104390008F929F92AF92BF92CF92DF92EF92FF9255
:1043A0001F93CF93DF938AE00E94DA29892B09F0CB
:1043B00089C068EC70E080E090E00E94E42880E032
:1043C00090E00E94A8070E94B5284B015C016B0198
:1043D0007C0180ECC80E82E1D81EE11CF11C0E9419
:1043E000B5286C157D058E059F0530F48AE00E9486
:1043F000DA29892BA1F364C08AE00E94DA29892B8B
:1044000009F05EC080ED97E00E94A8070E94B528E1
:104410006B017C01D0E0C1E088E4880E86E2981E42
:10442000A11CB11C11E08AE00E94DA29892B21F538
:104430008C149D04AE04BF0430F480ED97E00E941C
:10444000A807D1E0F0CF0E94B5286C197D098E092C
:104450009F09693C71058105910528F30E94B528E3
:104460006B017C01C12719F080ED97E002C080E06C
:1044700090E00E94A807D7CF80E090E00E94A807B4
:10448000DD23B9F08091D50590E0019665E070E0FC
:104490000E94E82D8093D5050E94280D0E94A81344
:1044A0000E94470D64EF71E080E090E00E94E428F4
:1044B00009C080E00E94DF060E94BF110E943E0DED
:1044C0000E943321DF91CF911F91FF90EF90DF90F9
:1044D000CF90BF90AF909F908F900895CF92DF9232
:1044E000EF92FF9280E00E94DA070E94B10761E03C
:1044F0008CE00E946E2961E08BE00E946E2960E0F2
:104500008AE00E946E2960E083E10E946E2961E0EA
:1045100083E10E94A72961E082E10E946E2960E0A8
:1045200082E10E94A7290E949F0740E052EC61E0CF
:1045300070E084EE95E00E94EC2C0E94A8130E948B
:10454000470D0E9491138FEF8093A8040E94C60725
:1045500078940E94B5286B017C018091A8048F3F5C
:1045600059F40E94B5286C197D098E099F09603D98
:1045700077408105910588F380ED97E00E94A807B8
:1045800061E08AE00E94A7292C9A84EE95E00E94BF
:10459000A42B892B29F084EE95E00E94D12BF5CF36
:1045A0006CEF72E084EE95E00E945F2A86E893E06B
:1045B0000E942F0C63E173E084EE95E00E945F2A75
:1045C0004AE050E060E070E084EE95E00E942F2B1E
:1045D00062E370E080E090E00E94E42884EE95E0E1
:1045E0000E94A42B04970CF184EE95E00E94D12B3D
:1045F00082349105D1F484EE95E00E94D12B8E3463
:10460000910599F484EE95E00E94D12B84349105B4
:1046100061F484EE95E00E94D12B819731F480E023
:1046200090E00E94A8070E943321409179055091A3
:104630007A0560917B0570917C05DB01CA010197C9
:10464000A109B1090497A105B10568F44093A70435
:10465000433029F440EA56E861E070E004C040E0ED
:1046600052EC61E070E084EE95E00E94EC2C0E9438
:10467000C8212C9880E090E00E94A8070E94911326
:104680001092C7048091C10583FF11C080918D05F0
:10469000882351F080919405882331F080919B0507
:1046A000882311F087E001C085E08093C70480E093
:1046B0000E947D0A8091C8040E94B1090E94580B93
:1046C00010923F0410923E0410923D04F12C809110
:1046D000D6058F15B0F062E370E080E090E00E94B4
:1046E000E42880ED97E00E94A80762E370E080E094
:1046F00090E00E94E42880E090E00E94A807F394F4
:10470000E6CF8091A00584FF08C0982F987181E0C2
:10471000983109F080E00E947B118FE00E94DA0757
:10472000FF90EF90DF90CF900895EF92FF920F935C
:104730001F93CF93DF938C016EE770E084EE95E0DA
:104740000E945906E801F12CF0E2EF2E8E018881DB
:104750008D57823048F46DE770E084EE95E00E945A
:10476000590688818E2588832196F801608184EE20
:1047700095E00E94FE2BF394F9E0FF12E7CF6EE77D
:1047800070E084EE95E00E945906CDB7DEB7E6E012
:104790000C94652EA9E0B0E0E0EDF3E20C944D2E10
:1047A0009091C90491110EC09EEF99838A836B8307
:1047B00050E0559547954C832D83198618861F82A6
:1047C0001E822EC04091CE04842F90E0B4E09595D7
:1047D0008795BA95E1F7242F2F7030E08217930761
:1047E00019F18DEF89831B82FE01349650E0842FEE
:1047F00090E0A4E095958795AA95E1F7242F2F7076
:1048000030E08217930749F0DC01A153BB4F8C9134
:104810008193405F5F5F563051F74093CE045A83D7
:10482000CE0101960E9495238091C90490E00196E3
:1048300066E070E00E94E82D8093C9042996E2E0CA
:104840000C94692EA0E0B0E0E8E2F4E20C94462E6D
:104850006C016EE770E084EE95E00E9459068601D7
:10486000E12CF12CC0E0D0E030E2B32EF801608101
:1048700083E8860F823078F46DE770E084EE95E08F
:104880000E945906F80160816B2570E084EE95E086
:104890000E94590604C084EE95E00E94FE2BE114AC
:1048A000F10459F0F80180819E01280F311DC901E2
:1048B000C92FDD27C80FD91FDD273FEFE31AF30A01
:1048C00089E0E816F10459F028E0E216F10421F439
:1048D0008C2F8095F60180870F5F1F4FC7CFCDB714
:1048E000DEB7E9E00C94622EA9E0B0E0EAE7F4E27A
:1048F0000C944D2EE82F362F8091C90490E001963C
:1049000064E270E00E94E82D8093C90458E959835D
:1049100050E15A83813089F048F08230B9F0833019
:10492000D9F48B8381EF8C833D8319C085E08B8321
:1049300081EF8C832F5F2D8312C08B8381EF8C835B
:1049400084E6489FA00111245D8309C084E08B8325
:1049500081EF8C83ED8303C00E94B81104C0CE01A7
:1049600001960E9422242996E2E00C94692EA2E08E
:10497000B0E0EDEBF4E20C94422E182F762E2A8351
:1049800049830E94C1286B017C018091DF048090E3
:10499000CA049090CB04A090CC04B090CD042A819E
:1049A00049818823C1F0D701C60188199909AA094C
:1049B000BB094C015D0191EE89169EE29906A104A6
:1049C000B10420F1241708F4422F202F672D812FE6
:1049D0000E94742413C0D701C60188199909AA0935
:1049E000BB094C015D0191E3891695E79906A10485
:1049F000B10460F0672D812F0E94CA23C092CA04BF
:104A0000D092CB04E092CC04F092CD042296EDE05B
:104A10000C945E2EA2E2B0E0E0E1F5E20C94432EAD
:104A20008CE00E94980981110DC06BE173E084EE67
:104A300095E00E94902A2C9A80E00E947D0A0E94B4
:104A4000580B2C9884EE95E00E94A42B892B01F141
:104A500084EE95E00E94D12B9091A704992319F040
:104A60000E94BB13EFCF40913E0450E09A012F5FAC
:104A70003F4F2F71332760913F0470E026173707AF
:104A800009F3FA01E75BFB4F808320933E04DACF02
:104A900080917505843009F086C00E94C128611597
:104AA00071058105910549F06093B9047093BA04CA
:104AB0008093BB049093BC040CC081E090E0A0E024
:104AC000B0E08093B9049093BA04A093BB04B09370
:104AD000BC048091AB049091AC0481609093AC04D1
:104AE0008093AB0483E0809375058FE70E9476097D
:104AF00009E614E00E948909F80181938F01F4E02E
:104B000002371F07B9F72091720480916904982F2A
:104B1000922796FF3BC090E4922790937204982FBF
:104B200098739833F1F410E0212F30E080916904FC
:104B3000877090E0821793074CF11F5F2091A005CA
:104B4000812F90E0FC01E759FB4F24FF04C08081D6
:104B50000E949A11E9CF608184EE95E00E94FE2BBD
:104B6000E3CF8F7399F480916A048093B4048091A9
:104B70006B048093B20480916C048093B1048091A3
:104B80006F0490E09093AA048093A90480913D045F
:104B9000813019F482E080933D0480913D0483309C
:104BA00011F410923D040E94C1286B017C01809198
:104BB000AD049091AE04A091AF04B091B004009701
:104BC000A105B105C9F0A7019601281B390B4A0BB5
:104BD0005B0BDA01C901883B9B40A105B10560F080
:104BE0000E94C7098093B3041092AD041092AE04E2
:104BF0001092AF041092B0048091BD049091BE0455
:104C0000A091BF04B091C00446015701881A990AC7
:104C1000AA0ABB0A88E795E00E94F4078616970661
:104C2000A806B90608F4A8C0C092BD04D092BE047C
:104C3000E092BF04F092C0040E9457068091A8043D
:104C40008830A0F08091C1059091C205A091C30564
:104C5000B091C4055CE1B695A795979587955A954F
:104C6000D1F7892B8A2B8B2B09F0AAC18091A8043C
:104C70008F5F8093A8048091B9049091BA04A091A9
:104C8000BB04B091BC040097A105B105F1F0C81AAE
:104C9000D90AEA0AFB0A88E795E00E94F4076C1536
:104CA0007D058E059F0508F012C18091C10584FD28
:104CB00004C080ED97E00E94A8071092B9041092FA
:104CC000BA041092BB041092BC0490917204907CC0
:104CD0009093720450913E0480913F0420913D04D2
:104CE000581709F411C1223009F00EC19058909361
:104CF0007204E091A005E770F0E0E758FC4F608196
:104D0000693008F0E9C0615040E04613E7C0809385
:104D10003F0487E3840F90917204892B809372047F
:104D20004093400483E080933D042B9A8091850555
:104D30009091C704911135C10E94780A8091C804EE
:104D40000E94B109E091A005E770F0E0E758FC4F40
:104D5000608182E794E00E94930BE091C804EF5FCA
:104D6000E093C804E83109F428C1F0E0E858FA4FAC
:104D70008785882309F421C10E94020C813069F5DE
:104D80008091A005887149F18091AB049091AC04A9
:104D9000880F991F9093AC048093AB0483E08093B9
:104DA00075050E94580B0E94C1286093AD04709352
:104DB000AE048093AF049093B004672B682B692BEB
:104DC00061F481E090E0A0E0B0E08093AD049093C6
:104DD000AE04A093AF04B093B0048091A00584FF0B
:104DE0002BC08091B9049091BA04A091BB04B091FA
:104DF000BC04892B8A2B8B2BF9F08091AB0490910A
:104E0000AC048E7F0E942A09182F6091A90480911A
:104E1000B4040E94B113482F612F8091B30449A3B9
:104E20000E94B1130091D605282F49A16091B104C9
:104E30008091B2040E94B7242B988091C5048130E0
:104E4000C1F018F08230B1F1C8C08AE00E94DA29BE
:104E5000892B09F0C2C081E08093C5040E94B52867
:104E60006093C1047093C2048093C3049093C404FC
:104E7000B4C08AE00E94DA29892B31F50E94B52856
:104E8000C090C104D090C204E090C304F090C40468
:104E90006C197D098E099F09693E73408105910552
:104EA00008F49BC082E08093C50480ED97E00E94E7
:104EB000A80793C08AE00E94DA29892B09F48DC0E3
:104EC00080E090E00E94A8071092C50486C080E0B0
:104ED00090E00E94A807F9CE68E016CF851709F484
:104EE00016CF4F5F242F30E090E0F901EE58FB4FD2
:104EF000DC01A75BBB4F7C917083F901E05CFB4F49
:104F0000708301968F7101CF2430B1F42091400459
:104F100081E494E0A3E7B4E0FC013E2F381B321794
:104F200018F431913D93F9CF87E3820F9091720489
:104F3000892B80937204F6CE8091C504823051F49F
:104F40009160909372042C9A8E010F5F1F4FF12C89
:104F5000B80110C02C9880913D04811103C081E0FC
:104F600080933D0480913D04833071F784E0809309
:104F70003D04EACF8F2D69A37AA30E94DA15F801C8
:104F8000819391938F01F39469A17AA1F0E1FF12CB
:104F9000F1CF8091A00543E754E087700E94790823
:104FA000C4CE882309F4C8CE2091C60431E0320F64
:104FB0003093C6042913C0CE0CC01092C804DCCEB6
:104FC0008091A804883009F42C9A89E08093A80481
:104FD000D3CE1092C6048150AFCEA296ECE00C94D2
:104FE0005F2E8230E8F4E82FF0E0EE0FFF1FE95269
:104FF000FA4F71836083813041F0809169008C7F2A
:10500000842B80936900E89A089580916900440F89
:10501000551F440F551F837F842B80936900E99AA5
:1050200008951F920F920FB60F9211242F933F9362
:105030004F935F936F937F938F939F93AF93BF93A0
:10504000EF93FF938091D7059091D805892B29F094
:10505000E091D705F091D8050995FF91EF91BF91A7
:10506000AF919F918F917F916F915F914F913F9100
:105070002F910F900FBE0F901F9018951F920F92B7
:105080000FB60F9211242F933F934F935F936F931B
:105090007F938F939F93AF93BF93EF93FF938091F1
:1050A000D9059091DA05892B29F0E091D905F09185
:1050B000DA050995FF91EF91BF91AF919F918F9183
:1050C0007F916F915F914F913F912F910F900FBE04
:1050D0000F901F9018951F920F920FB60F921124E8
:1050E0002F933F938F939F93AF93BF938091DC0552
:1050F0009091DD05A091DE05B091DF053091DB05D3
:1051000023E0230F2D3720F40196A11DB11D05C00A
:1051100026E8230F0296A11DB11D2093DB05809385
:10512000DC059093DD05A093DE05B093DF0580914B
:10513000E0059091E105A091E205B091E3050196AB
:10514000A11DB11D8093E0059093E105A093E205B8
:10515000B093E305BF91AF919F918F913F912F91B4
:105160000F900FBE0F901F9018952FB7F894609175
:10517000DC057091DD058091DE059091DF052FBF84
:1051800008953FB7F8948091E0059091E105A091D2
:10519000E205B091E30526B5A89B05C02F3F19F0A5
:1051A0000196A11DB11D3FBF6627782F892F9A2F29
:1051B000620F711D811D911D42E0660F771F881FD0
:1051C000991F4A95D1F70895CF92DF92EF92FF92FF
:1051D000CF93DF936B017C010E94C128EB01C114C6
:1051E000D104E104F10479F00E94C1286C1B7D0B0D
:1051F000683E7340A0F381E0C81AD108E108F108C5
:10520000C851DC4FECCFDF91CF91FF90EF90DF9052
:10521000CF900895789484B5826084BD84B5816010
:1052200084BD85B5826085BD85B5816085BDEEE6AE
:10523000F0E0808181608083E1E8F0E0108280818D
:1052400082608083808181608083E0E8F0E08081FB
:1052500081608083E1EBF0E0808184608083E0EB1B
:10526000F0E0808181608083EAE7F0E08081846003
:10527000808380818260808380818160808380815F
:10528000806880831092C1000895833081F028F4F3
:10529000813099F08230A1F008958630A9F08730EE
:1052A000B9F08430D1F4809180008F7D03C080916B
:1052B00080008F7780938000089584B58F7702C037
:1052C00084B58F7D84BD08958091B0008F7703C031
:1052D0008091B0008F7D8093B0000895CF93DF93CD
:1052E00090E0FC01ED50F44F2491FC01E95FF34F95
:1052F0008491882349F190E0880F991FFC01E15DBA
:10530000F34FA591B4918B5D934FFC01C591D4915E
:105310009FB7611108C0F8948C91209582238C93DB
:10532000888182230AC0623051F4F8948C91322F24
:10533000309583238C938881822B888304C0F894D2
:105340008C91822B8C939FBFDF91CF910895A1E028
:10535000B0E0EDEAF9E20C944B2E282F30E0F90191
:10536000E152F44F8491F901ED50F44F1491F90199
:10537000E95FF34F04910023C9F0882321F069838A
:105380000E9445296981E02FF0E0EE0FFF1FEB5DE1
:10539000F34FA591B4919FB7F8948C91611103C01C
:1053A0001095812301C0812B8C939FBF2196E4E04F
:1053B0000C94672ECF93DF93282F30E0F901E15250
:1053C000F44F8491F901ED50F44FD491F901E95F64
:1053D000F34FC491CC2391F081110E944529EC2F09
:1053E000F0E0EE0FFF1FE55EF34FA591B4912C9115
:1053F0002D2381E090E021F480E002C080E090E085
:10540000DF91CF910895A0E0B0E0E9E0FAE20C94DA
:10541000472E6C017A01EB01E60EF71E00E010E06A
:10542000CE15DF0561F06991D601ED91FC910190F7
:10543000F081E02DC6010995080F191FF1CFC801B1
:10544000CDB7DEB7E8E00C94632E6115710589F0E5
:10545000DB010D900020E9F7AD0141505109461BD9
:10546000570BDC01ED91FC910280F381E02D099551
:10547000089580E090E00895EF92FF920F931F93BC
:10548000CF93DF938C01FB01C0E0D0E064917F01FA
:105490008FEFE81AF80A662361F0D801ED91FC91CC
:1054A0000190F081E02DC8010995C80FD91FF701BF
:1054B000EDCFCE01CDB7DEB7E6E00C94652E0E94AD
:1054C000252A0895DC01ED91FC910190F081E02DF9
:1054D000099508950F931F93CF93DF93EC016DE02F
:1054E0000E94622A8C016AE0CE010E94622A800F2B
:1054F000911FDF91CF911F910F9108950F931F93EB
:10550000CF93DF93EC010E943C2A8C01CE010E94D4
:105510006A2A800F911FDF91CF911F910F910895FB
:105520000F931F93CF93DF93EC010E94252A8C01E8
:10553000CE010E946A2A800F911FDF91CF911F91A7
:105540000F9108950F931F93CF93DF93EC010E9467
:10555000622A8C01CE010E946A2A800F911FDF917E
:10556000CF911F910F910895A1E2B0E0EAEBFAE22A
:105570000C94432E7C01C42EE52FCB01D22E19A210
:1055800021E02D1510F02AE0D22E8E010F5D1F4F65
:105590008D2C912CA12CB12C6C2D7E2FA50194016A
:1055A0000E94FC2D8C2DD29E8019112401501109CE
:1055B0008A3010F4805D01C0895CF8018083211578
:1055C00031054105510521F0C22EE32FCA01E4CF78
:1055D000B801C7010E94252AA196ECE00C945F2E29
:1055E000A0E0B0E0E6EFFAE20C94472EEC016A018D
:1055F0007B012115310541F4E881F9810190F081A9
:10560000E02D642F09951DC02A303105A9F477FFDC
:1056100012C06DE20E94622A8C0144275527BA010C
:105620004C195D096E097F092AE0CE010E94B42A57
:10563000800F911F06C02AE0B701A601CE010E948B
:10564000B42ACDB7DEB7E8E00C94632E9A01AB0123
:10565000662757FD6095762F0E94F02A08950F93D4
:105660001F93CF93DF93EC019A01AB01662757FD9F
:105670006095762F0E94F02A8C01CE010E946A2A42
:10568000800F911FDF91CF911F910F9108952115E8
:10569000310549F4DC01ED91FC910190F081E02DA0
:1056A000642F099508950E94B42A08959A01462FFF
:1056B00050E060E070E00E94472B08959A01AB0132
:1056C00060E070E00E94472B08950F931F93CF93E3
:1056D000DF93EC010E94472B8C01CE010E946A2AC5
:1056E000800F911FDF91CF911F910F9108950F931C
:1056F0001F93CF93DF93EC019A01AB0160E070E060
:105700000E94472B8C01CE010E946A2A800F911FB4
:10571000DF91CF911F910F9108950F931F93CF9316
:10572000DF93EC019A01462F50E060E070E00E94A8
:10573000472B8C01CE010E946A2A800F911FDF91B6
:10574000CF911F910F910895FC0124853585F901B2
:10575000E05CFF4F80819181F901EE5BFF4F20817A
:105760003181821B930B8F7399270895FC018485E7
:105770009585FC01E05CFF4F40815181FC01EE5BAF
:10578000FF4F208131814217530741F00190F08192
:10579000E02DE80FF91F808190E008958FEF9FEFD3
:1057A0000895FC0184859585FC01E05CFF4F4081F4
:1057B0005181FC01EE5BFF4F20813181421753077D
:1057C00079F0A081B181A80FB91F8C91208131811E
:1057D0002F5F3F4F2F7333273183208390E008954D
:1057E0008FEF9FEF0895FC0181A1882329F0A48900
:1057F000B5898C9186FFFBCF11A20895CF93DF93DB
:10580000FC0126853785D901A05CBF4F8D919C9105
:10581000119701968F739927E901CE5BDF4F48817D
:10582000598184179507D9F30D90BC91A02DA20F33
:10583000B31F6C93A685B785A05CBF4F11969C9350
:105840008E93A689B7892C9181E090E0078C02C0E5
:10585000880F991F0A94E2F7282B2C9381E081A3EB
:105860000488F589E02D80818064808381E090E068
:10587000DF91CF91089508951F920F920FB60F9266
:1058800011242F933F934F938F939F93EF93FF9305
:105890008091C00082FD1CC04091C60080918A06A4
:1058A00090918B0601968F73992720918C063091E9
:1058B0008D068217930771F0E0918A06F0918B06AE
:1058C000E65BF94F408390938B0680938A0602C073
:1058D0008091C600FF91EF919F918F914F913F91E1
:1058E0002F910F900FBE0F901F90189584EE95E0AA
:1058F0000E94A42B892B11F00E943B2C08951F922B
:105900000F920FB60F9211242F933F938F939F9373
:10591000EF93FF9320914606309147068091480609
:10592000909149062817390731F48091C1008F7D85
:105930008093C10014C0E0914806F0914906EA5FE7
:10594000F94F2081809148069091490601968F7306
:10595000992790934906809348062093C600FF91AB
:10596000EF919F918F913F912F910F900FBE0F90CC
:105970001F901895A0E0B0E0E0ECFCE20C94432E00
:10598000FC011382128288EE93E0A0E0B0E08483F1
:105990009583A683B7838BEB93E091838083758790
:1059A000648757874687318B208B138B028BF58A50
:1059B000E48AD78AC68AB18EA08E938E828E8F8516
:1059C000848F8889858F8989868F8A89878F8B893B
:1059D00080A3ECE00C945F2ECF92DF92EF92FF92C7
:1059E000CF93DF93EC016A017B01411581EE5807EB
:1059F00061057105F9F0EC89FD8981E090E008A06E
:105A000002C0880F991F0A94E2F7808360E079E072
:105A10008DE390E0A70196010E94FC2D21503109F1
:105A2000410951095695479537952795211580E1EC
:105A3000380798F0EC89FD89108260E874E88EE1FF
:105A400090E0A70196010E94FC2D215031094109E7
:105A500051095695479537952795E889F9893083F7
:105A6000EA89FB89208319A2EE89FF89408181E0C0
:105A700090E09C010C8C02C0220F331F0A94E2F7C5
:105A8000422B4083EE89FF8940819C010D8C02C02E
:105A9000220F331F0A94E2F7422B4083EE89FF89DD
:105AA00040819C010E8C02C0220F331F0A94E2F742
:105AB000422B4083EE89FF8920810F8C02C0880F22
:105AC000991F0A94E2F7809582238083DF91CF911A
:105AD000FF90EF90DF90CF9008958F929F92AF92BA
