:100000000C941E060C94C8270C94F5270C944606F5
:100010000C9446060C94E9120C9446060C94460681
:100020000C9446060C9446060C9446060C94460620
:100030000C9446060C9446060C9446060C94460610
:100040000C9422280C9446060C94102C0C94532CDF
:100050000C9446060C9446060C9446060C944606F0
:100060000C9446060C9446065318B5189418971825
:100070009A189D18A018A318A618B518AF18E71954
:10008000E919E919E719E919E919E919E919E91962
:10009000E919E919E919E919E919E919E919E91950
:1000A0006D19E919E919E919E919E919DE18E919C8
:1000B000E919E919E919E919E919E919E919E91930
:1000C000E919E919E919E919E919E9197919791900
:1000D0007919791979197919791979197919E91920
:1000E000E919E919E919E919E919DE1878197819EE
:1000F00078197819E91986198C19921998199E1985
:10010000A419AA19B019BA19C419CE19D8191F19E6
:10011000E118E919E919E919E9196D19E919E91954
:10012000E919E919E919E919E919E91977197719A3
:1001300077197719E91986198C19921998199E1946
:10014000A419AA19B019BA19C419CE19D8191F19A6
:10015000E118E919E919E919E9196D191C1A1C1AAC
:100160001C1A1C1A1C1A1C1A1C1A1C1A1C1A1C1ADF
:100170001C1A1C1A1C1A331B331B331B331B331B57
:10018000331B611A6B1A751A7F1ADD1AE71AF61AF1
:10019000071B8F1CA41CB01CB91CC81CED1CF61C32
:1001A0003F1D081D512057205D206420722094209F
:1001B000B220456E746572206D656E752E2E2E0010
:1001C000546F67676C6564206D6963726F50504D42
:1001D00000546F67676C656420696E76657274653C
:1001E000642050504D2100546F67676C6564205443
:1001F00058206D7574696E672100546F67676C6570
:10020000642074656C656D65747279210050726F3D
:10021000746F636F6C206572726F72207769746897
:100220002052580054696D656F7574207768656E4B
:1002300020636F6E6E656374696E6720746F205201
:100240005800507265737320616E79206B65792058
:10025000746F2063616E63656C00436F6E6E6563DF
:1002600074696E6720746F2052582C20706F776508
:100270007220757020746865205258202877697440
:10028000682062696E6420706C7567206966206EF4
:100290006F74207573696E6720616C776179732064
:1002A00062696E642900546F67676C656420276912
:1002B0006D6D656469617465206F75747075742700
:1002C00000546F67676C65642027736C61766520E6
:1002D0006D6F64652700546F67676C6564202761E4
:1002E0006C776179732062696E642700546F676769
:1002F0006C65642050504D206368616E6E656C20A3
:100300006C696D69740053657420525353492069B8
:100310006E6A656374696F6E206368616E6E656C8A
:100320002028303D3D64697361626C652900536526
:10033000742050504D206D696E696D756D20737914
:100340006E630053657420626561636F6E20696E31
:1003500074657276616C0053657420626561636FC9
:100360006E2064656C617900536574206265616319
:100370006F6E206672657175656E637920696E2097
:10038000487A3A20303D64697361626C652C205074
:10039000783D504D52206368616E6E656C20782CFC
:1003A0002046783D465253206368616E6E656C202E
:1003B00078005365742050574D2073746F7020641B
:1003C000656C61792028302064697361626C6564B2
:1003D0002C20312D323535203D3D20302E317320FB
:1003E0002D2035306D696E29005365742050504DB5
:1003F0002073746F702064656C61792028302064EC
:10040000697361626C65642C20312D323535203D75
:100410003D20302E3173202D2035306D696E29003E
:10042000536574206661696C736166652064656CF0
:1004300061792028302064697361626C65642C20C6
:10044000312D323535203D3D20302E3173202D2089
:1004500035306D696E29002A2A2A2A2A2A2A2A2A50
:100460002A2A2A2A2A2A2A2A2A2A2A2A2A2A2A2AEC
:100470002A2A2A2A0052582041636B6564202D20C5
:1004800072657665727420737563636573736675E0
:100490006C21002A2A2A2A2A2A2A2A2A2A2A2A2AAD
:1004A0002A2A2A2A2A2A2A2A2A2A2A2A2A2A2A2AAC
:1004B000002A2A2A2A2A2A2A2A2A2A2A2A2A2A2AC6
:1004C0002A2A2A2A2A2A2A2A2A2A2A2A2A2A00528E
:1004D000582041636B6564202D20757064617465DC
:1004E000207375636365737366756C21002A2A2A0D
:1004F0002A2A2A2A2A2A2A2A2A2A2A2A2A2A2A2A5C
:100500002A2A2A2A2A2A2A2A2A2A0056616C696457
:100510002063686F69636573206172653A205B319F
:100520005D2D5B31365D20286368616E6E656C20E1
:10053000312D31362900536574206F7574707574D0
:1005400020666F7220706F727420005B585D2061AE
:10055000626F7274206368616E67657320616E6498
:10056000206578697420525820636F6E6669670051
:100570005B535D20736176652073657474696E6783
:100580007320746F205258005B525D20726576654F
:1005900072742052582073657474696E6773207486
:1005A0006F2064656661756C747300557365206EA9
:1005B000756D62657273205B312D445D20746F2010
:1005C0006564697420706F727473205B452D515D92
:1005D00020666F722073657474696E677300202DD6
:1005E00020726563656976657220636F6E66696700
:1005F000757261746F722C20727820737720000AF4
:100600000A6F70656E4C52536E67200053657420FC
:1006100073657269616C2062617564726174653AB8
:10062000200056616C69642063686F696365733A82
:100630002031202D20342B34202F2032202D203823
:10064000202F2033202D20382B34202F2034202D14
:10065000203132202F2035202D2031322B34202FF5
:100660002036202D20313600536574204368616E9A
:100670006E656C20636F6E6669673A20005365741F
:100680002044617461726174652028302D32293AEA
:10069000200053657420486F70206368616E6E653A
:1006A0006C7320286D61782032342C207365706162
:1006B000726174656420627920636F6D6D61732966
:1006C0002076616C69642076616C75657320312DCC
:1006D0003235353A2000536574206368616E6E656B
:1006E0006C2073706163696E6720287831306B48C5
:1006F0007A293A200053657420524620706F77653E
:10070000722028302D37293A200053657420524634
:10071000206D6167696320286865782920652E67E8
:100720002E20307844454144463030443A2000532E
:1007300065742062617365206672657175656E63AC
:10074000792028696E20487A293A20005B5A5D207A
:10075000656E746572207265636569766572206383
:100760006F6E66696775726174696F6E2075746902
:100770006C79005B465D20646973706C61792061FF
:10078000637475616C206672657175656E63696509
:10079000732075736564005B525D2063616C6375E3
:1007A0006C6174652072616E646F6D206B65792079
:1007B000616E6420686F70206C697374005B495DC2
:1007C000207265696E697469616C697A6520736508
:1007D0007474696E677320746F20736B65746368DB
:1007E0002064656661756C7473005B585D2072658A
:1007F00076657274206368616E67657320616E64EC
:100800002065786974206D656E75005B535D20739B
:100810006176652073657474696E677320746F20E8
:10082000454550524F4D20616E64206578697420B3
:100830006D656E7500557365206E756D62657273BA
:10084000205B302D395D20746F20656469742070E1
:100850006172616D657465727300202D2053797328
:1008600074656D20636F6E66696775726174696F18
:100870006E000A0A6F70656E4C52536E672000510D
:1008800029204F7574707574206265666F726520DB
:100890006C696E6B20283D465329203A2000502970
:1008A00020536C617665206D6F64652028657870D3
:1008B0006572696D656E74616C293A20004F29205C
:1008C00054696D65642042494E44206174207374FC
:1008D000617274757020203A20004E292050504DCE
:1008E000206F7574707574206C696D69746564200F
:1008F000202020203A200044495341424C454400E6
:100900004D292050504D205253534920746F20637D
:1009100068616E6E656C202020203A20004C2920F2
:1009200050504D206D696E696D756D2073796E63E1
:10093000202875732920203A200044495341424C15
:100940004544004B29204661696C736166652062ED
:100950006561636F6E20696E74762E2028312D32AA
:10096000353573293A20004A29204661696C736144
:10097000666520626561636F6E2064656C617920D5
:1009800028302D323535203D3E20313073202D204A
:100990003135306D696E293A200049292046616958
:1009A0006C7361666520626561636F6E206672714B
:1009B0002E203A200048292050574D2073746F7024
:1009C0002064656C6179202020202020203A2000BE
:1009D00047292050504D2073746F702064656C61FE
:1009E00079202020202020203A200046292046611E
:1009F000696C736166652064656C617920202020D4
:100A00002020203A200050574D206368616E6E65AB
:100A10006C200066756E6374696F6E3A2000292041
:100A2000706F72742000506F776572546F776572C3
:100A300000445446205548462033322D62697420C4
:100A400031306368004F70656E4C52536E67525878
:100A5000206D696E6920342F36636800466C7974A6
:100A6000726F6E2F4F72616E6765525820554846FF
:100A70002038636800525820747970653A20004429
:100A8000697361626C656400487A00203D3D200016
:100A900043616C63756C61746564207061636B6540
:100AA0007420696E74657276616C3A200042292068
:100AB0004D6963726F202868616C66292050504D23
:100AC000202020203A00412920496E766572746505
:100AD000642050504D20696E20202020203A0030A4
:100AE00029204D7574652062757A7A657220286DAB
:100AF0006F73746C79293A003929205365726961E2
:100B00006C2062617564726174653A00736D617224
:100B100074506F7274004672536B79005472616E38
:100B200073706172656E740044697361626C6564B0
:100B30000038292054656C656D657472793A2020FF
:100B40002020202020003729204368616E6E656CCC
:100B500020636F6E6669673A202000362920446161
:100B60007461726174652028302D32293A2020206A
:100B700000352920486F70206368616E6E656C7364
:100B80003A2020202020003429204368616E6E65C1
:100B90006C2073706163696E673A202000332920EE
:100BA000524620706F7765722028302D37293A2001
:100BB0002020003229205246206D616769633A2067
:100BC0002020202020202020003129204261736530
:100BD000206672657175656E63793A202020000089
:100BE00000000700020100000304060000000000EE
:100BF00000000001020408102040800102040810D7
:100C00002001020408102004040404040404040263
:100C10000202020202030303030303000000002395
:100C2000002600290000000000250028002B0000FD
:100C3000000000240027002A0000412D11241FBEBF
:100C4000CFEFD8E0DEBFCDBF13E0A0E0B1E0E0E938
:100C5000F0E602C005900D92A83CB107D9F716E066
:100C6000A8ECB3E001C01D92AC38B107E1F71CE07D
:100C7000CCE3DCE004C02297FE010E944A2ECA3376
:100C8000D107C9F70E947D2D0C9446300C940000CA
:100C900080917105813019F482E080937105809113
:100CA0007105833019F484E0809371050895A89547
:100CB0000895DC01ED91FC910190F081E02D099502
:100CC00008952091720530917305382748E0C901D5
:100CD000880F991F37FF06C09C0151E2252750E17C
:100CE000352701C09C01415091F730937305209343
:100CF0007205089588E38093740580E092ECA1E08A
:100D0000B0E08093750590937605A0937705B09336
:100D1000780587E08093810580EC92E9ADEEB9E13A
:100D20008093790590937A05A0937B05B0937C0519
:100D300085E0809382058DEE9EEFADEABEED809357
:100D40007D0590937E05A0937F05B0938005E3E831
:100D5000F5E080E090E0863028F4DC01AE54BC4F32
:100D60002C9101C020E0219301968831910599F7DB
:100D700082E080939B058AE080939C05089580EC37
:100D800091EDA8E9BBE18093B9059093BA05A093D2
:100D9000BB05B093BC0580E090E0A0E0B0E5809397
:100DA000BD059093BE05A093BF05B093C005E1ECCF
:100DB000F5E080E081938F5F8031E1F70895A0E056
:100DC000B0E0E5EEF6E00C94132ED82F0E947828C0
:100DD0006115710581059105C9F30E94B62E109227
:100DE0007D0510927E0510927F0510928005C4E06B
:100DF000812C912C54018A94C0907D05D0907E0561
:100E0000E0907F05F0908005FE2CED2CDC2CCC24AE
:100E10000E94B12EA50194010E94F22D6C0D7D1D42
:100E20008E1D9F1D60937D0570937E0580937F05C9
:100E300090938005C15001F7DD2309F450C003E809
:100E400015E0E801A12CB12C62E3C62ED12CE12CD7
:100E5000F12C8881882309F442C0B39419F40E94CC
:100E60007A063DC00E94B12EA70196010E94F22D84
:100E7000E1E0E60FA3E8B5E08A2F801B8A1520F495
:100E80008D918E13F9CFE9CF2091820530E0A0E15A
:100E9000B7E20E948A2D9B01AC01AE2FB0E00E9408
:100EA000992D4090790550907A0560907B0570905F
:100EB0007C05640D751D861D971D4090B9055090E9
:100EC000BA056090BB057090BC05461657066806CB
:100ED000790618F2E993A39488E1A812BACFCDB7A6
:100EE000DEB7E0E10C942F2E8436910520F4BC018E
:100EF00080E090E017C09C018E3B910528F42A55B4
:100F00003109AAE0B0E00CC0823D910528F4245BD1
:100F10003109A4E6B0E004C02D5C3109A8E5B2E0D7
:100F20000E948A2DA4E6B0E09B01AC010E94992D9D
:100F3000089590E08C599F4F0E947407089561E0D6
:100F40008AE00E94252960E08AE00E945E290895D7
:100F5000892B11F061E001C060E08AE00E945E2907
:100F6000089560E089E00E94252961E088E00E9400
:100F7000252961E087E00E94252960E082E00E9447
:100F8000252961E084E00E942529089542E050E08F
:100F900068E476E080E00E94A8270895E3E0F0E0AE
:100FA00089E080935700E491E67081E0E63009F033
:100FB00080E00895CF93DF93C82F0E94CE07882347
:100FC00081F0DFB781E080937005F8940E945706A6
:100FD00088E180936000C0936000C1110E945706B1
:100FE000DFBFDF91CF9108958F929F92AF92BF9212
:100FF000CF92DF92EF92FF92CF93FC01C0A5EC2F2E
:10100000E770F0E0E658FC4FA081B0E0C7FF03C0F6
:1010100024E130E002C02FE030E0FC0197A183E141
:10102000989FF0011124E25CFE4F80809180A280A5
:10103000B380A20FB31F20E43FE14DE750E00E94D0
:10104000A42DA50194010E94D02D8C2F887149F404
:1010500069017A01E0EDCE0EE7E0DE1EE11CF11C35
:101060001BC0C7FF05C060E47AE88CE29EE004C0C4
:1010700060E07EEE8AEB9BE069017A01F8EBCF0E2F
:10108000FBE0DF1EE11CF11CA50194010E94D02DA4
:10109000C20ED31EE41EF51EC701B60169517C4F76
:1010A0008F4F9F4F28EE33E040E050E00E94D02D5C
:1010B000A8EEB3E00E94992DCF91FF90EF90DF90C2
:1010C000CF90BF90AF909F908F9008958F3F9105E4
:1010D00051F048F0811522E0920738F081159340D5
:1010E00030F482E0089580E0089581E0089583E07F
:1010F0000895A0E0B0E0EFE7F8E00C941C2EEB01BF
:101100008A01B82FB695A0E028813981F8012083A3
:101110002A813B8121832C813D8122832E813F8145
:101120002383688179814A815B812C813D81EE81B5
:10113000FF819F2F9295990F990F907C272F2370F5
:10114000922B252F2370220F220F922B232F2370F7
:101150002295207F922BF80194830B5F1F4F2896D6
:10116000AF5FBA1788F680FF24C0888199810E94FA
:101170006608D82E8A819B810E946608E82E8C81A1
:101180009D810E946608F82E8E819F810E946608CC
:10119000F0E4DF9EA001112490E1E99E900111246A
:1011A000242B282BE4E0FE9EB0011124262BF8010D
:1011B0002083CDB7DEB7E7E00C94382E803223E0F1
:1011C000920708F1883E23E0920740F48F51934044
:1011D000E4E096958795EA95E1F70895803D27E04C
:1011E000920718F48C5D93400895883928E092079F
:1011F00068F4885C974074E0969587957A95E1F756
:101200008D509C4F089580E090E008958FEF93E01B
:1012100008958C30910540F4A4E0880F991FAA9599
:10122000E1F7885D9C4F0895843F23E0920718F40E
:1012300084529C4F0895811524E0920740F486570C
:10124000934FF4E0880F991FFA95E1F7089580E92C
:1012500098E008959C013695279525753575821B74
:10126000930B9C0123733373969587959695879579
:1012700083739373820F931F9C0154E036952795D7
:101280005A95E1F7280F391F2F703F7041E051E068
:10129000249FC001259F900D349F900D1124892F0C
:1012A00008955F98882319F00000289A02C0000072
:1012B000289800005F9A000008955F9A000083B1AB
:1012C0005F980000869581700895CF93DF93D82FA3
:1012D0005C9A5F985C98C8E08D2F80780E945109D5
:1012E000DD0FC150C9F75F98DF91CF9108958F77D7
:1012F0000E9465090895CF93DF93D82FC8E08D2F02
:1013000080780E945109DD0FC150C9F75F98DF91C5
:10131000CF910895CF93DF935F98C8E080E0D82FF6
:10132000DD0F0E945D098D0FC150C9F7DF91CF918C
:1013300008950E9477090E948A095C9A0895A1E0A5
:10134000B0E0E5EAF9E00C94212E806869830E9400
:1013500065096981862F0E947B095C9A2196E2E0EB
:101360000C943D2ECF93C0917D05C827E82FF0E067
:10137000EC58FA4F678589E70E949F096C2F8DE32F
:101380000E949F096C2F82E40E949F09CF910895CB
:1013900086E20E9499090895CF93DF93EC016C8156
:1013A0008CE10E949F096D818DE10E949F096E81F1
:1013B0008EE10E949F096F8180E20E949F096885EB
:1013C00081E20E949F09698582E20E949F096A85E5
:1013D00083E20E949F096B8584E20E949F096C85CD
:1013E00085E20E949F096D858AE20E949F096E85B1
:1013F0008EE60E949F096F858FE60E949F0968898B
:1014000080E70E949F09698981E70E949F096A8994
:1014100082E70E949F09DF91CF910895CF92DF92DA
:10142000EF92FF92CF93DF936B017C01C11488E3AD
:10143000D8068CE9E8068CE1F80628F5C701B60164
:1014400020E836E948E950E00E94D02DE90168978C
:1014500060E879E687E69FEF0E94AC2D6C0D7D1D5C
:101460008E1D9F1DF2E0660F771F881F991FFA954A
:10147000D1F721E732E040E050E00E94D02DF22E7B
:10148000E32E80E421C0C701B60120E03DE241E344
:1014900051E00E94D02DE901689760E073ED8EEC79
:1014A0009EEF0E94AC2D6C0D7D1D8E1D9F1D660F45
:1014B000771F881F991F21E732E040E050E00E942B
:1014C000D02DF22EE32E80E66C2F6F71680F85E72A
:1014D0000E949F096E2D86E70E949F096F2D87E766
:1014E0000E949F09DF91CF91FF90EF90DF90CF9006
:1014F0000895682F8DE60E949F0908958F929F920C
:10150000AF92BF92CF92DF92EF92FF92CF93DF9391
:10151000D82F83E00E94990980936F0584E00E9490
:10152000990980936E0560E086E00E949F0961E062
:1015300087E00E949F096FE789E00E949F0965E0AC
:101540008AE00E949F0962E18BE00E949F0965E1A9
:101550008CE00E949F096DEF8DE00E949F0960E082
:101560008EE00E949F09DD2319F08BE291E008C014
:1015700020919B0533E1239FC0011124825C9E4F83
:101580000E94CC096CE880E30E949F096FE082E32F
:101590000E949F0962E483E30E949F0980919C0559
:1015A00087FF02C064E101C06AE084E30E949F09F2
:1015B0006AE285E30E949F096DE286E30E949F092B
:1015C00064ED87E30E949F0960E088E30E949F0921
:1015D00060E089E30E949F09D11109C0C0907D0598
:1015E000D0907E05E0907F05F090800507C0C5E9AA
:1015F000CC2EC1ECDC2EED2CCEEDFC2ECAE38F2CD4
:101600009924AA24BB24682D8C2F0E949F09682D41
:1016100085E08C0F0E949F09FE2CED2CDC2CCC2445
:10162000CF5FCE3361F76FEF83E40E949F096FEFC6
:1016300084E40E949F096FEF85E40E949F096FEF89
:1016400086E40E949F09DD2311F066E002C06091EC
:1016500081058DE60E949F0960E089E70E949F094D
:10166000609182058AE70E949F0960E083E70E94FB
:101670009F0960E084E70E949F09D11109C0609131
:10168000790570917A0580917B0590917C0504C065
:1016900060EC72E98DEE99E10E940E0ADF91CF9124
:1016A000FF90EF90DF90CF90BF90AF909F908F9082
:1016B000089561E087E00E949F0964E28EE70E943E
:1016C0009F0963E088E00E949F0960E088E00E9433
:1016D0009F0965E087E00E949F0962E085E00E9423
:1016E0009F0983E00E94990980936F0584E00E941E
:1016F000990980936E05089583E00E94990980936B
:101700006F0584E00E94990980936E0561E087E08F
:101710000E949F096AE070E080E090E00E949B28B0
:101720000E94590B00000895CF92DF92FF920F9311
:101730001F93CF93DF931F92CDB7DEB7082F162FDD
:101740008EE399830E949F09F02EC02E9981D92E95
:101750008C2D8F19811738F4F60161916F018FE795
:101760000E949F09F5CF64E085E00E949F0983E015
:101770000E94990980936F0584E00E9499098093E3
:101780006E050E94782860936A0570936B058093BC
:101790006C0590936D0569E087E00E949F0981E0E8
:1017A000809371050F90DF91CF911F910F91FF9062
:1017B000DF90CF9008950F931F930E94940B809118
:1017C0007105813099F40E94782800916A05109182
:1017D0006B0520916C0530916D05601B710B820BC0
:1017E000930B603A76488140910548F380917105EA
:1017F000813031F46EE971E080EE95E00E94642A58
:101800001F910F9108950F931F938091710582305E
:1018100021F41092710581E020C080917105813022
:10182000D9F40E94782800916A0510916B052091E7
:101830006C0530916D05601B710B820B930B613A47
:1018400076488140910540F061E087E00E949F0961
:101850001092710582E001C080E01F910F91089500
:10186000CF93DF93EC014AE050E06D2F70E080EE03
:1018700095E00E94322B6EE280EE95E00E94362ABF
:10188000BE0184E0769567958A95E1F76F707727BA
:101890004AE050E080EE95E00E94322B6EE280EE4E
:1018A00095E00E94362ABE016F7077274AE050E02B
:1018B00080EE95E00E94322BDF91CF910895D82FD2
:1018C000C0E0CD1780F42D9A64E670E080E090E0EF
:1018D0000E949B282D9864E670E080E090E00E94D2
:1018E0009B28CF5FEECF6CE271E080E090E00E9439
:1018F0009B28E6CF0F931F93CF93DF93EC01062F26
:1019000015E0115051F0CE010E942D30081741F022
:10191000602FCE010E943530F4CF82E00E945F0C30
:10192000DF91CF911F910F910895A0E0B0E0EBE916
:10193000FCE00C94132E482E562EC0E0D0E0612C13
:10194000712CE12CF12C00E010E041100CC06090F3
:10195000D20586E4689E3001112459E1E52EF12C70
:1019600008EB15E01EC091E049120FC06090D2054F
:10197000E6E46E9E30011124FBE16F0E711C49E21A
:10198000E42EF12C04E715E00CC082E0481209C0F7
:1019900028E1622E77247394EE24E394F12C01ED78
:1019A00015E043018C0E9D1E109273051092720576
:1019B0003401A62CA818B12CC30101966C01AE14F9
:1019C000BF04A8F4A00EB11E511006C0C3010E94AE
:1019D0002D30F501808305C0F5016081C3010E94AF
:1019E0007A0CF50180810E9461063601E2CFC301C5
:1019F000511018C0C3010E942D30B82EC6010E949C
:101A00002D302B2D30E0322F2227282B809172058C
:101A1000909173058217930779F4C0E0D0E05524C4
:101A2000539493CF3601609173050E947A0C6091B4
:101A30007205C6010E947A0CC05EDE4FC13E92E084
:101A4000D90708F482CF852DCDB7DEB7E0E10C943D
:101A50002F2E61E082E00E94950C089560E082E004
:101A60000E94950C8091D105853020F01092D1050F
:101A70000E94290D8091D1058093D205089561E0DF
:101A800080E00E94950C61E081E00E94950C089531
:101A900060E080E00E94950C882351F060E081E0D6
:101AA0000E94950C882321F080917405883349F0B9
:101AB0000E94BF060E947A0681E00E94DF060E9413
:101AC0003F0D0895882319F06AEA71E002C06EEABA
:101AD00071E080EE95E00E94642A0895FF920F93D2
:101AE0001F93CF93DF9369EC7BE080EE95E00E943B
:101AF000102A4091790550917A0560917B0570918B
:101B00007C052AE030E080EE95E00E94392B63EB03
:101B10007BE080EE95E00E94102A40917D05509177
:101B20007E0560917F057091800520E130E080EEB8
:101B300095E00E94392B6DE97BE080EE95E00E94F4
:101B4000102A4AE050E06091810580EE95E00E9405
:101B5000612B67E87BE080EE95E00E94102A4AE066
:101B600050E06091820580EE95E00E94612B61E774
:101B70007BE080EE95E00E94102AC3E8D5E0F12CCE
:101B80008E0188818823A9F0FF2031F061EB71E09C
:101B900080EE95E00E94332A21964AE050E0F80159
:101BA000608180EE95E00E942A2BF394F8E1FF1209
:101BB000E7CF80EE95E00E943E2A6BE57BE080EE69
:101BC00095E00E94102A4AE050E060919B0580EE6B
:101BD00095E00E94612B66E47BE080EE95E00E9438
:101BE000102AE0919C05E770F0E0EE0FFF1FEE5722
:101BF000FC4F6081718180EE95E00E94642A61E370
:101C00007BE080EE95E00E94102A80919C0588710F
:101C1000883069F028F4811113C068E27BE00CC0C1
:101C2000803141F0883161F46CE07BE005C06CE10B
:101C30007BE002C066E17BE080EE95E00E94522AE4
:101C400068EF7AE080EE95E00E94102A40917505D9
:101C50005091760560917705709178052AE030E023
:101C600080EE95E00E94392B6FED7AE080EE95E0F2
:101C70000E94102A8091BD0580710E94620D66EC61
:101C80007AE080EE95E00E94102A8091BD05807474
:101C90000E94620D6DEA7AE080EE95E00E94102AC3
:101CA0008091BD0580720E94620D60E97AE080EE4D
:101CB00095E00E94102A84E795E00E94F407AB01AA
:101CC000BC012AE030E080EE95E00E941B2B6BE81F
:101CD0007AE080EE95E00E94102A84E795E00E9469
:101CE000F4079B01AC0160E472E48FE090E00E9495
:101CF000D02DBA01A9012AE030E080EE95E00E94E3
:101D00001B2B68E87AE080EE95E00E94522ACDB75E
:101D1000DEB7E5E00C943A2E8F929F92AF92BF927D
:101D2000CF92DF92EF92FF92811107C06FE77AE0C6
:101D300080EE95E00E94522A2FC090E00E94740726
:101D400024E630E040E050E00E94D02DCA01B90105
:101D50002AE030E040E050E00E94D02D49015A01D5
:101D60006B017C012AE030E0B501A40180EE95E032
:101D70000E941B2B6EE280EE95E00E94362A2AE03C
:101D800030E0B701A60180EE95E00E941B2B63E7CF
:101D900080EE95E00E94762AFF90EF90DF90CF9042
:101DA000BF90AF909F908F9008951F93CF93DF9334
:101DB00065E77AE080EE95E00E94102A80919D050B
:101DC000813041F46CE57AE080EE95E00E94522A81
:101DD00010E050C0823019F465E47AE0F5CF843029
:101DE00019F461E37AE0F0CF853091F766E27AE0AA
:101DF000EBCFC12FD0E0C930D1050CF441C068E36E
:101E0000610F80EE95E00E94362A6EE17AE080EE66
:101E100095E00E94102ABE016F5F7F4F4AE050E0BC
:101E200080EE95E00E94FA2A63E17AE080EE95E088
:101E30000E94102AC356DA4FE981E03218F566E0B5
:101E40007AE080EE95E00E94102A8981803130F09E
:101E50006DE673E080EE95E00E94332A69816F7031
:101E600070E06F5F7F4F4AE050E080EE95E00E94A7
:101E7000032B1F5F80914605181708F4BACF0FC0D7
:101E800061E3BECFEF70F0E0EE0FFF1FEE56FC4FA8
:101E90006081718180EE95E00E94642AEACF6BEE4A
:101EA00079E080EE95E00E94102A8091B5050E94AD
:101EB0008C0E60ED79E080EE95E00E94102A809112
:101EC000B6050E948C0E65EB79E080EE95E00E94ED
:101ED000102A8091B7050E948C0E6AE979E080EEA5
:101EE00095E00E94102A4091AD055091AE05609199
:101EF000AF057091B005411551056105710539F1C6
:101F00002AE030E080EE95E00E94392B67E679E028
:101F100080EE95E00E94102A8091B1050E949907F9
:101F2000AB01BC012AE030E080EE95E00E94392B45
:101F300063E479E080EE95E00E94102A4AE050E0E8
:101F40006091B20580EE95E00E94612B06C06AE3C5
:101F500079E080EE95E00E94522A6DE179E080EE12
:101F600095E00E94102A6091B3057091B4054AE093
:101F700050E080EE95E00E944B2B60E079E080EE2F
:101F800095E00E94102A6091AC05603450F470E036
:101F90006F5F7F4F4AE050E080EE95E00E94032B98
:101FA00006C067EF78E080EE95E00E94522A6AED65
:101FB00078E080EE95E00E94102A8091AB0580FFCA
:101FC00003C063EB71E002C067EB71E080EE95E067
:101FD0000E94642A6DEB78E080EE95E00E94102A62
:101FE0008091AB0582700E94620D6EE978E080EE10
:101FF00095E00E94102A8091AB0584700E94620DCA
:102000006FE778E080EE95E00E94102A8091AB05A2
:1020100088700E94620DDF91CF911F9108950F93F8
:102020001F93CF93DF93209143052F3FA9F56FEFC7
:1020300075E080EE95E00E94102A81E893E00E940E
:10204000300C6EED75E080EE95E00E94102A8091D4
:102050004405909145050E94300C6BEA75E080EED6
:1020600095E00E94522A68E875E080EE95E00E94B3
:10207000522A60E775E080EE95E00E94522A6BE4F8
:1020800075E080EE95E00E94522A80EE95E00E9475
:102090003E2A0E94D50E68C012160CF065C0332788
:1020A00027FD30958091460590E0821793070CF448
:1020B0005BC066E375E080EE95E00E94102A6091B7
:1020C0004305772767FD70954AE050E080EE95E084
:1020D0000E94032B6BE075E080EE95E00E94102AD1
:1020E00010E008E2809147051817D0F5C12FD0E025
:1020F000CC0FDD1FC85BDA4F288130E080914305AB
:10210000992787FD909501972817390739F56BEBCB
:1021100071E080EE95E00E94332A4AE050E0602FA3
:1021200080EE95E00E942A2B6FEB71E080EE95E047
:102130000E94332AE981EF70F0E0EE0FFF1FEE56A8
:10214000FC4F6081718180EE95E00E94332A63EC40
:1021500071E080EE95E00E94332A0F5F1F5FC2CFCF
:1021600080EE95E00E943E2ADF91CF911F910F9162
:102170000895FF920F931F93CF93DF93C3E8D5E0A9
:10218000F12C8E0188818823D1F165EC71E080EE1D
:1021900095E00E94332A4AE050E06F2D80EE95E0F2
:1021A0000E942A2B62ED71E080EE95E00E94332AB6
:1021B0002196F801208130E0A0E1B7E20E948A2D4B
:1021C0009B01AC01A0918205B0E00E94992DAB016A
:1021D000BC018091790590917A05A0917B05B09121
:1021E0007C05480F591F6A1F7B1F2AE030E080EEF4
:1021F00095E00E94392BF394F8E1FF12C2CFCDB7DE
:10220000DEB7E5E00C943A2E1092DD0485E6EEEDA3
:10221000F4E0DF011D928A95E9F70895CF93C82F66
:102220008F3719F0883009F045C0E091DD04EE23C6
:10223000D9F1E150E093DD04F0E0E252FB4F10826F
:102240006DE070E080EE95E00E945906C0E080915C
:10225000DD04C81760F4EC2FF0E0E252FB4F608120
:1022600070E080EE95E00E945906CF5FF0CF60E20B
:1022700070E080EE95E00E9459066DE070E080EE1F
:1022800095E00E945906C0E08091DD04C81778F5FA
:10229000EC2FF0E0E252FB4F608170E080EE95E0C1
:1022A0000E945906CF5FF0CF67E080EE95E00E9474
:1022B000362A1DC08B3119F40E9404111AC08D30CA
:1022C000C1F08A30B1F08091DD04843668F76C2F5C
:1022D00070E080EE95E00E945906E091DD0481E017
:1022E0008E0F8093DD04F0E0E252FB4FC08380E06C
:1022F00001C081E0CF910895CF93C82F0E94782824
:102300006093C6047093C7048093C8049093C90473
:10231000C093DB04CC2329F040E051EE60E070E094
:1023200004C040E855E260E070E080EE95E00E9475
:10233000C02CCF9108959091CA04492F4F7050E05E
:10234000BA016F5F7F4F292F30E0E4E03595279584
:10235000EA95E1F76217730759F0FA01E553FB4F6D
:10236000808381E0890F8F70907F892B8093CA04CE
:1023700008956EE770E080EE95E00E94590608959A
:10238000A3E1B1E0E6ECF1E10C94142EE3E8F5E012
:10239000712C8191882321F0739428E17212F9CF76
:1023A00066ED71E080EE95E00E94642A4AE050E01C
:1023B000672D80EE95E00E94612B80E00E947E0AEE
:1023C0000E94590B8E010E5F1F4FC12CD12C76013C
:1023D000C39466246A945C2C0E946C284B015C01B7
:1023E0002091820530E0A0E1B7E20E948A2D9B0196
:1023F000AC01C701B6010E94AC2D20917905309146
:102400007A0540917B0550917C05620F731F841FF4
:10241000951F2091B9053091BA054091BB055091A7
:10242000BC05261737074807590718F4F8016082DA
:1024300025C08C2D0E94B20961E070E080E090E040
:102440000E949B28F80110820E946C286819790963
:102450008A099B09643F71408105910540F40E94FF
:10246000C809F8019081981778F78083EDCF50FE66
:1024700003C02C982D9A02C02C9A2D982FEFC21AC7
:10248000D20AE20AF20A0F5F1F4F8FEFC816D1047B
:10249000E104F10409F09FCFCE019395FC01D82E01
:1024A0007FEF68EC2E2F281B271510F051E056C047
:1024B000DE01129651E02FEF41E03D91321710F00E
:1024C000322F01C0452F5F5F5F3F11F0232FF5CF03
:1024D0004193242F30E0A1E0B0E0AC0FBD1FA20F6C
:1024E000B31F5C93413079F0DE01A20FB31F5C9300
:1024F000423049F0AFEFBFEFAC0FBD1FA20FB31FCB
:102500006C934E3F78F6A2E0B0E0AC0FBD1FA20F77
:10251000B31F7C934D3F30F6A3E0B0E0AC0FBD1F7E
:10252000A20FB31F6C93BECF452F242F30E0FC01C8
:10253000E20FF31F6081AFEFB0E0AC0FBD1FA20F41
:10254000B31F2C91621748F44150DC01A40FB11D58
:102550002C9120836C934111E8CF5F5F571520F3D6
:10256000372D369520E0231770F4DC01A20FB11D42
:102570004C91522F530FFC01E50FF11D50815C93DC
:1025800040832E5FF0CFF3E8EF2EF5E0FF2E8C01B5
:10259000802F8D19871598F4F801C1908F014AE0BA
:1025A00050E06C2D80EE95E00E942A2B6CE280EECC
:1025B00095E00E94362AF701C1927F01E9CF80EEB3
:1025C00095E00E943E2A81E0CD5EDE4FEFE00C9464
:1025D000302E1F920F920FB60F9211240F931F935C
:1025E0002F933F934F935F936F937F938F939F931B
:1025F000AF93BF93EF93FF934091BD055091BE05FC
:102600006091BF057091C00589B18A019B0100747A
:1026100011272227332783FB882780F990E0A0E049
:10262000B0E0081719072A073B0709F468C0809132
:102630008400909185001092850010928400209172
:10264000A70421115CC045FD02C096958795853C85
:1026500029E09207C0F180910A0190E0A0E0B0E08B
:102660000CE176956795579547950A95D1F74115F1
:1026700051056105710521F441E050E060E070E032
:10268000481759076A077B07D8F480910A018F3FE2
:10269000B9F040E080910A01481780F4842F90E05F
:1026A000880F991FFC01E957FB4F20813181FC0104
:1026B000E55FFE4F318320834F5FECCF1092A8047B
:1026C00010920A011CC08D3B22E09207A8F02091D5
:1026D0000A01203188F410910A0121E0210F209392
:1026E0000A010E94DE08E12FF0E0EE0FFF1FE9571C
:1026F000FB4F9183808303C08FEF80930A01FF918A
:10270000EF91BF91AF919F918F917F916F915F9169
:102710004F913F912F911F910F910F900FBE0F90EE
:102720001F90189583E0809380008AE18093810058
:102730008FEF9FEF909389008093880010926F0035
:1027400088E080936D00E8E6F0E08081846080831B
:1027500008950E942E0D8091D205843011F41092BC
:10276000D20508956F3018F086958058089589E055
:10277000689F802D11240895A0E0B0E0E2ECF3E121
:102780000C941B2EC82F0E947828009138041091B9
:10279000390420913A0430913B046B017C01C01A4A
:1027A000D10AE20AF30A9701860149E8C41643E117
:1027B000D406E104F10410F010923C046093380454
:1027C0007093390480933A0490933B042091A704BA
:1027D0008FEF820F8230D8F5E0913C04EE2309F4AC
:1027E0004EC1E13011F482E0B8C1E03108F034C1EB
:1027F00081E08E0F80933C04F0E0E957FB4FC083EB
:10280000803109F0ACC1E9E8F4E0213029F4A1817C
:10281000A695A695808108C080819181A92FA69553
:10282000A695A69596958795A03148F4B0E090E0DE
:10283000AA0FBB1FA55FBE4F11969C938E9310925B
:10284000A804329684E0E739F807F9F688C1233006
:1028500009F005C1E0913C04E11104C0CF3009F05A
:102860007EC10DC1E83148F481E08E0F80933C04B5
:10287000F0E0EA57FB4FC08372C1E83109F0ECC0C9
:10288000C111EAC040E050E0ABE0CA01B3E0880FFC
:10289000991FBA95E1F7A49F9001A59F300D1124CF
:1028A000F901E957FB4F6081E1817E2F77707595C3
:1028B0006795FC01EE0FFF1FE55FFE4F718360839C
:1028C000F901E857FB4FB081B695B695B695E18111
:1028D000FE2FF295FF0FF07E6F2F6B2BE695E6959E
:1028E000E6957E2F777075956795FC01EE0FFF1FBB
:1028F000E35FFE4F71836083F901E757FB4FB081BF
:10290000B295B695B695B370C181DC2FDD0FDD0FA2
:102910006D2F6B2BC295C695C695C370E281E17091
:10292000EE0FEE0F7E2F7C2B75956795FC01EE0F59
:10293000FF1FE15FFE4F71836083F901E557FB4F95
:10294000B081B695E181FE2FF795FF27F7956F2FA0
:102950006B2BE6957E2F777075956795FC01EE0FD2
:10296000FF1FEF5EFE4F71836083F901E457FB4F59
:10297000B081B295BF70E181FE2FF295F07F6F2F8D
:102980006B2BE295EF707E2F777075956795FC0144
:10299000EE0FFF1FED5EFE4F71836083F901E35779
:1029A000FB4FB081BB1FBB27BB1FC181DC2FDD0FDD
:1029B0006D2F6B2BCC1FCC27CC1FE281E370EE0F69
:1029C0007E2F7C2B75956795FC01EE0FFF1FEB5E4C
:1029D000FE4F71836083F901E157FB4FB081B695DB
:1029E000B695E181FE2FF295FF0FFF0FF07C6F2F60
:1029F0006B2BE695E6957E2F777075956795FC01B4
:102A0000EE0FFF1FE95EFE4F71836083F901E0570F
:102A1000FB4F20812295269527703181E32FEE0F01
:102A2000EE0FEE0F6E2F622B732F729576957770E7
:102A300075956795FC01EE0FFF1FE75EFE4F7183F2
:102A400060834F5F5F4F4230510509F01ECF809188
:102A50009D0483FF1092A80410923C0480C024308F
:102A600009F07DC060913C0461110BC0C83AB1F41B
:102A7000109273051092720588EA0E94610681E047
:102A80006CC0613019F4C093370404C0623031F473
:102A9000C09336048C2F0E9461065AC0E091360420
:102AA0002E2F30E0220F331F462F50E0C90102962F
:102AB000841795073CF0633268F7FA01EC57FB4F37
:102AC000C083E8CF2D5F3F4F8C2F90E0609172055F
:102AD000709173054217530749F4982F882786276A
:102AE0009727909373058093720532C06817790712
:102AF00069F580913704813049F5E13118F080E1C2
:102B000080933604F0903604C8E8D4E000E010E08A
:102B10000F15D0F4FE013197808190E0982F88271F
:102B20002881822B43E0969587954A95E1F70E948C
:102B3000DE08F801EE0FFF1FE55FFE4F91838083F3
:102B40000F5F1F4F2296E4CF1092A80410923C040E
:102B500080913C04882319F08F5F80933C04CDB7AB
:102B6000DEB7E8E00C94372EE82FF0E0E854FA4F97
:102B7000E185E03150F4F894F0E0EE0FFF1FE55FDF
:102B8000FE4F8081918178940895E03121F0E13108
:102B900031F483E101C082E10E94BA29089580E006
:102BA00092E00895A2E2B0E0E8EDF5E10C94112E78
:102BB0009E012F5F3F4F80E1D9011D928A95E9F771
:102BC00064E072E080EE95E029A33AA30E94642AB3
:102BD0000E947C0B1D8A1E8A1F8A188E312C212C84
:102BE00000E0812C912C540170E4472E71EE572E99
:102BF0007DE9672E78E1772EE0E5CE2EE3ECDE2E40
:102C0000E12CF12C84EF91E0A0E0B0E08D8F9E8F5D
:102C1000AF8FB8A380EC91EDA8E9BBE1898F9A8FC3
:102C2000AB8FBC8F80E491EEADE9B8E1898B9A8BD4
:102C3000AB8BBC8B80EE95E00E94782B892B09F43E
:102C4000E1C080EE95E00E94A52B9C0133272C3239
:102C5000310509F442C0ACF42332310509F0ABC0B0
:102C600019821A821B821C821D821E821F82188674
:102C700019861A861B861C861D861E861F86188A44
:102C800060C02434310529F02335310509F4B2C080
:102C900092C064E480EE95E00E94362A2AE030E09B
:102CA00040E451EE6DE978E180EE95E00E94C42A9F
:102CB0006CE280EE95E00E94362A2AE030E040EC9B
:102CC00051ED68E97BE180EE95E00E94C42A6CE258
:102CD00080EE95E00E94762AADCF0F5F043009F0B8
:102CE000A9CF29813A814B815C81A8EEB3E00E9493
:102CF000992D698B7A8B8B8B9C8B2D813E814F819B
:102D000058850E94992D698F7A8F8B8F9C8F29858A
:102D10003A854B855C852D8F3E8F4F8F58A32D852F
:102D20003E854F8558890E94992D6B017C01603248
:102D30003EE473078105910530F462E38CE10E9463
:102D40009F0900E077CF603345E77407810591055F
:102D500010F462E2F3CF60345CE9750781059105F8
:102D600010F466E2EBCF80E5C81683ECD806E104E8
:102D7000F10410F462E1E2CF90E6C9169AEED906AA
:102D8000E104F10410F465E1D9CFA0E7CA16A1E18E
:102D9000DA06A1E0EA06F10410F461E0CFCFB0EA70
:102DA000CB16B6E8DB06B1E0EB06F10410F463E005
:102DB000C5CF65E0C3CF10ED180F1A3008F03ACF39
:102DC000E1E0F0E0EC0FFD1F24E0029FE00DF11DBB
:102DD00011242081318142815381AAE0B0E00E9418
:102DE000992D610F711D811D911D608371838283F7
:102DF000938320CF49885A886B887C88812C912CBA
:102E0000540118CF81149104A104B10489F4C301C1
:102E1000B2010E940E0A61E070E080E090E00E9442
:102E20009B281D8A1E8A1F8A188E312C22242A94E0
:102E30008D8D9E8DAF8DB8A188169906AA06BB060A
:102E4000D0F40E94C8092D893E894F89588D280FDA
:102E5000311D411D511D2D8B3E8B4F8B588F3816C8
:102E600008F4382E821508F4282E3FEF831A930AAF
:102E7000A30AB30A56C0C301B20128EE33E040E012
:102E800050E00E94D02DBA01A9012AE030E080EE86
:102E900095E00E941B2B6CE280EE95E00E94362AA2
:102EA0004AE050E0632D80EE95E00E942A2B6CE210
:102EB00080EE95E00E94362A6D897E898F89988DF3
:102EC000A50194010E94D02DBA01A9012AE030E0A9
:102ED00080EE95E00E941B2B6CE280EE95E00E9454
:102EE000362A4AE050E0622D80EE95E00E942A2BBF
:102EF0006CE280EE95E00E94762A4C0C5D1C6E1C04
:102F00007F1C898D9A8DAB8DBC8D84159505A6058A
:102F1000B70520F449885A886B887C88812C912CCD
:102F2000540129893A894B895C89283E33404105FF
:102F3000510509F07FCEA296E2E10C942D2EACE172
:102F4000B0E0E5EAF7E10C941B2E0E9478286B01B3
:102F50007C0181E00E947E0A14E703E0198361E0AE
:102F6000CE0101960E94DB0B009371050E94590B64
:102F70006AEF70E080E090E00E949B2880917105EC
:102F8000833089F480EE95E00E94782B892B59F4E8
:102F90000E9478286C197D098E099F096038734C4E
:102FA000894C9140D8F280917105833009F44FC06B
:102FB0008FE70E9477090E948A098983843511F07E
:102FC00083E05CC00E948A09109244058093450505
:102FD0000E948A092091440530914505280F311D32
:102FE00030934505209344050E948A098093460545
:102FF0000E948A0980934705813110F7F12C0F2D2B
:1030000010E08091470590E0880F991F0817190775
:1030100040F40E948A09F801E85BFA4F8083F39438
:10302000EECF80E7898361E0CE0101960E94DB0B41
:1030300083E0809371050E94590B62E370E080E0A9
:1030400090E00E949B2880917105833011F482E00A
:1030500015C08FE70E9477090E948A09898380350D
:1030600009F0AECF0DE915E00E948A09F8018193BD
:103070008F01F5E0083B1F07B9F781E06C96E8E0A7
:103080000C94372E80914305992787FD9095A92FA1
:10309000B92FFC013196EB30F10508F066C0EC5C0D
:1030A000FF4F0C94482E62E778E080EE95E00E9496
:1030B000522A81E893E00E94300C6AE578E080EEC5
:1030C00095E00E94522A65E378E080EE95E00E9448
:1030D000522A6BE078E080EE95E00E94522A6AEE78
:1030E00077E080EE95E00E94522A6DEB77E080EE6B
:1030F00095E00E94522A67E977E080EE95E00E9411
:10310000522A63E777E080EE95E00E94522A6CE451
:1031100077E080EE95E00E94522A80EE95E00E94D2
:103120003E2A0E946E0D21C06FE277E01AC06AE06D
:1031300077E017C065EF76E014C066ED76E011C069
:1031400062E976E00EC06DE776E00BC068E676E0F7
:1031500080EE95E00E94522A62E276E002C06CE0C6
:1031600076E080EE95E00E94522A6AE070E080E00E
:1031700090E00E949B2880EE95E00E94782B892B9E
:1031800029F080EE95E00E94A52BF5CF0895ACE1E3
:10319000B0E0EDECF8E10C941B2E909143059F3FBD
:1031A00009F023C1482F50E0FA013A97EF36F105B4
:1031B00008F00FC1E15CFF4F0C94482E61E172E012
:1031C000A0C06DE172E080EE95E00E94642A85E780
:1031D00089838BE1EDE9F5E0DE01129601900D9215
:1031E0008A95E1F76CE1CE0101960E94DB0B0E940B
:1031F000590B83E08093710568EC70E080E090E00B
:103200000E949B2880917105843009F0E2C08FE70D
:103210000E9477090E948A098983853509F0D9C0FF
:103220006DEE74E080EE95E00E94522A6FEC74E03F
:1032300080EE95E00E94522A61EB74E096C065E34F
:1032400072E080EE95E00E94642A89E6898361E05D
:10325000CE0101960E94DB0B0E94590B83E0809304
:10326000710568EC70E080E090E00E949B288091FE
:103270007105843009F0ADC08FE70E9477090E9484
:103280008A0989838E010E5F1F4F7E014DE1E40E96
:10329000F11C0E948A09F80181938F01EE15FF0548
:1032A000C1F78BE1FE013296ADE9B5E001900D92D8
:1032B0008A95E1F78981893409F08BC063E974E06C
:1032C00080EE95E00E94522A65E774E080EE95E07A
:1032D0000E94522A67E574E048C06FE472E080EE15
:1032E00095E00E94642A8EEF8093430572C080525D
:1032F0008750805390914605981708F066C06EE598
:1033000072E080EE95E00E94642A63C084E18093BD
:10331000430560E274E029C085E18093430569EECE
:1033200073E023C086E18093430562EB73E01DC028
:1033300087E18093430568E673E017C088E18093D6
:10334000430567E573E011C089E18093430563E4B9
:1033500073E00BC08AE1809343056EE273E005C021
:103360008BE18093430566E073E080EE95E00E9478
:10337000522A2FC06CEE72E080EE95E00E94522A35
:103380008091AB0591E01DC066ED72E080EE95E0A6
:103390000E94522A8091AB0592E013C061EC72E06A
:1033A00080EE95E00E94522A8091AB0594E009C01E
:1033B00066EA72E080EE95E00E94522A8091AB05A9
:1033C00098E089278093AB058FEF809343050E9497
:1033D0000F1080EE95E00E94782B892B09F45BC1D9
:1033E00080EE95E00E94A52BF4CF0E940E11882359
:1033F00009F451C18091DD04811104C08FEF8093E5
:10340000430541C140E050E060E070E08EED94E0A3
:103410000E94BF2E40914305042F112707FD1095F0
:10342000212F312FF8013197EB31F10508F01BC145
:10343000E255FF4F0C94482E552747FD509520919B
:10344000460530E0241735070CF40DC18B019C01B3
:1034500001501109210931090032110521053105F9
:1034600058F0C0904705E9E4F5E0F12CD12CA8E232
:10347000EA2E415051090FC0FA01E356FA4F61504C
:103480006083D9C0DF0111972C9130E024173507F4
:1034900029F0F3943296FC10F5CFCBC00E2D10E03E
:1034A00020E030E0061717072807390741F420818C
:1034B000DA01A356BA4F11962C93DD24D394E394EA
:1034C000E8CF6F3F71058105910511F008F0CBC081
:1034D0006093B505B0C06F3F71058105910511F08E
:1034E00008F0C1C06093B605A6C06F3F71058105A5
:1034F000910511F008F0B7C06093B7059CC020910A
:10350000DE0420622037E9F440E050E060E070E043
:103510008FED94E00E94BF2E9B01AC01DC01CB013A
:103520000197A109B1090897A105B10508F0AEC03E
:10353000A4EDB0E30E94992D6A5E7C4A8A46954EBE
:1035400024C02636E9F440E050E060E070E08FED02
:1035500094E00E94BF2E9B01AC01DC01CB010197DE
:10356000A109B1090797A105B10508F08FC0A8EA24
:10357000B1E60E94992D645E7C438E46944E05C050
:10358000611571058105910579F08B019C0100544D
:10359000114E2D4938410138F0EF1F07FAEF2F0780
:1035A000F2E03F0708F05FC06093AD057093AE0591
:1035B0008093AF059093B0053EC06F3F71058105C4
:1035C000910511F008F04FC06093B10534C08B0134
:1035D0009C0101501109210931090F3F11052105F5
:1035E000310508F040C06093B20525C08B019C01F5
:1035F000045C1940210931090D344DE114072105FE
:10360000310528F47093B4056093B30514C06115B7
:1036100071058105910521F48FEF8093AC050BC0F6
:103620006134710581059105F0F461506093AC053A
:1036300002C0DD20C1F08091DC0481111AC08091AC
:103640007D0590917E05A0917F05B0918005019642
:10365000A11DB11D80937D0590937E05A0937F05EC
:10366000B093800506C060E772E080EE95E00E94AE
:10367000642A0E9404118FEF809343056AE080EE74
:1036800095E00E94762A0E940F1005C061E070E06C
:1036900080E090E07ACF6C96E8E00C94372E6AE5F3
:1036A00072E080EE95E00E94522A62E472E080EEC1
:1036B00095E00E94522A80EE95E00E94782B892B9B
:1036C00031F080EE95E00E94A52B0E94C7180E9461
:1036D0009F17823029F0833051F46DE072E002C010
:1036E00064E272E080EE95E00E94522A08958FEF26
:1036F000809343051092DC040E940F1080914305D3
:103700008E3F69F080EE95E00E94782B892BB1F313
:1037100080EE95E00E94A52B0E94C718EFCF089578
:103720000F931F93109143051F3F09F0D2C08934B6
:1037300009F457C000F5883309F469C058F48033A0
:1037400009F477C008F061C08B3109F440C08132C0
:10375000B1F1B9C0813409F487C030F4893309F478
:1037600066C0803461F1AFC0823409F48EC0863403
:1037700009F448C0A8C0823609F487C078F48835B7
:1037800031F128F48235C1F18335E1F09CC08A35EE
:1037900009F494C0813609F467C095C0823761F19D
:1037A00028F4863679F18936E1F08DC0883779F0D2
:1037B0008A3709F483C0833709F085C003C061E10B
:1037C00072E015C00E943F0D6EE872E004C00E94D6
:1037D000480D68EA72E080EE95E00E94642A8EEF60
:1037E00070C00E947A060E94BF0667EC72E080EE0D
:1037F00095E00E94642A67C081E00E94DF0660EEC7
:1038000072E0F5CF0E94B9105EC080535AC06AEFD3
:1038100071E080EE95E00E94522A90919C0588E02C
:10382000890F8871977E892B80939C051AC089E047
:1038300048C067EE71E080EE95E00E94522A8091C8
:10384000BD059091BE05A091BF05B091C00520E1D6
:1038500082278093BD059093BE05A093BF05B093CA
:10386000C005109343052FC061ED71E080EE95E037
:103870000E94522A8091BD059091BE05A091BF057E
:10388000B091C00540E4842710C060EC71E080EE88
:1038900095E00E94522A8091BD059091BE05A091AD
:1038A000BF05B091C00520E282278093BD059093AB
:1038B000BE05A093BF05B093C00502C00E944F1B78
:1038C0008FEF80934305809143058E3F09F0D4C06C
:1038D000DDC00E940E11882309F4D8C08091DD0458
:1038E000811104C08FEF80934305C6C040E050E0D3
:1038F00060E070E08EED94E00E94BF2E00914305E1
:10390000112707FD1095212F312FF8013197E9304C
:10391000F10508F0B4C0E753FF4F0C94482E8B011B
:103920009C010154114E2D4938410F37104F2A4F39
:10393000324008F0A4C06093790570937A058093B3
:103940007B0590937C0577C060937D0570937E0521
:1039500080937F059093800581E08093DC046BC0A9
:10396000683071058105910508F089C06093810573
:1039700062C08B019C0101501109210931090A30F3
:1039800011052105310508F07AC06093820553C006
:1039900061EB71E08EED94E00E94F92F10E000974A
:1039A00099F00E94D32F009779F0183130F4E12F6D
:1039B000F0E0EC58FA4F87871F5F61EB71E080E021
:1039C00090E00E94F92FEBCF1831A8F5E12FF0E03D
:1039D000EC58FA4F17861F5FF7CF653071058105E8
:1039E000910508F04CC060939B0525C08B019C019C
:1039F0000150110921093109063011052105310550
:103A0000F0F520919C05287F262B20939C0513C060
:103A10008B019C0101501109210931090115124C3A
:103A20002140310560F560937505709376058093AC
:103A30007705909378058091DC04811113C0809103
:103A40007D0590917E05A0917F05B091800501963E
:103A5000A11DB11D80937D0590937E05A0937F05E8
:103A6000B09380050E9404118FEF809343056AE0B4
:103A700080EE95E00E94762A0E94421807C060E717
:103A800072E080EE95E00E94642AECCF1F910F91C6
:103A900008958FEF809343051092DC040E94421832
:103AA000809143058E3F69F080EE95E00E94782B6F
:103AB000892BB1F380EE95E00E94A52B0E94901B0C
:103AC000EFCF6AE070E080E090E00E949B2880EEFB
:103AD00095E00E94782B892B29F080EE95E00E94DA
:103AE000A52BF5CF0895CF93C82F682F80EE95E0D2
:103AF0000E94D22B909168059C2790936805CF91E6
:103B00000895A1E0B0E0E7E8FDE10C94212E99834F
:103B10000E94731D9981892F0E94731D2196E2E0F6
:103B20000C943D2E1F93CF93DF93182FEB0110922F
:103B3000680565EB70E080EE95E00E94590662E64C
:103B400070E080EE95E00E945906812F0E94731D5F
:103B5000CE010E94811DDF91CF911F910895609148
:103B6000680580EE95E00E94D22B0895A1E2B0E0B6
:103B7000ECEBFDE10C941D2E7B018A018C3009F4E5
:103B800052C108F040C0863009F4BCC018F583303B
:103B900009F491C070F4813009F472C0823009F0E8
:103BA00047C26BE170E082E00E94921D0DE915E0D2
:103BB00078C0843009F487C0853009F039C260913B
:103BC000470570E0660F771F85E00E94921D08E4AC
:103BD00015E086C0893009F4A7C070F4873009F475
:103BE0009BC0883009F024C261E070E088E00E9448
:103BF000921D8091D20522C28A3009F4CAC08B304E
:103C000009F4F1C015C28A3609F474C1D8F48736B4
:103C100009F439C138F4853609F40DC1863609F442
:103C20001EC106C2883609F436C1893609F000C2C1
:103C300061E070E089E60E94921D0E947A060E946F
:103C4000BF06F4C18D3609F4D3C138F48B3609F4BC
:103C500090C18C3609F499C1EBC18E3609F4DBC1F1
:103C6000873C09F0E5C161E070E087EC0E94921D9D
:103C700081E00E94731D0E94AF1D10926905E2C190
:103C800069E270E081E00E94921D04E715E0F8010E
:103C900081918F010E94731DF5E00D391F07B9F75F
:103CA000CFC1F80181918F010E94731DF5E0083B9F
:103CB0001F07B9F7C5C161E070E083E00E94921D63
:103CC0000E949F17BBC161E070E084E00E94921DDA
:103CD00081E00E94731D0E94AF1D0E94D215B2C1E7
:103CE0008091470590E0880F991F9801285435402E
:103CF0002817390708F0A4C1F80181918F010E94AB
:103D0000731DEECF62E070E086E00E94921D81E8B4
:103D100093E00E94811D94C161E070E087E00E9401
:103D2000921D809146058AC186E6898361E0CE01B5
:103D300001960E94DB0B0E94590B83E08093710572
:103D400068EC70E080E090E00E949B288091710513
:103D50008430D9F48FE70E9477090E948A09898309
:103D6000863469F460E270E089E00E94921D10E2FE
:103D70000E948A090E94731D1150D1F761C161E050
:103D800070E089E00E94921D51C161E070E089E01D
:103D900052C169E170E08AE00E94921D1092B8055C
:103DA000209170058091BD059091BE05A091BF0541
:103DB000B091C005222311F0806801C08F778093F5
:103DC000BD059093BE05A093BF05B093C00508EB59
:103DD00015E0F80181918F010E94731DF5E0013D0E
:103DE0001F07B9F72DC161E270E08BE00E94921DC0
:103DF0008091A8048F3F39F08091A80491E0980F3A
:103E00009093A80402C08091A8040E94731D10E042
:103E1000812F0E94B4150E9409090E94811D1F5F15
:103E20001031B1F70DC161E070E08CE00E94921D8D
:103E30008091D10503C161E070E085E60E94921D8A
:103E400089E2E816F10409F0F8C0D801E4E7F5E0EA
:103E50008D91819385E0ED39F807D1F7E7C061E0F6
:103E600070E086E60E94921DEBE1EE16F10409F087
:103E7000E4C0D801EDE9F5E08D91819385E0E83B60
:103E8000F807D1F7D3C061E070E087E60E94921D89
:103E90000E943F0DCBC061E070E088E60E94921D59
:103EA00085E789838BE1EDE9F5E0DE01129601906B
:103EB0000D928A95E1F76CE1CE0101960E94DB0B31
:103EC0000E94590B83E08093710560E273E080E00B
:103ED00090E00E949B2880917105843009F0ADC06C
:103EE0008FE70E9477090E948A098983853509F046
:103EF000A4C09CC061E070E08AE60E94921D89E641
:103F0000898361E0CE0101960E94DB0B0E94590B70
:103F100083E08093710560E273E080E090E00E94AE
:103F20009B2880917105843009F087C08FE70E943B
:103F300077090E948A0989838E010E5F1F4F7E01D7
:103F4000EDE1EE0EF11C0E948A09F80181938F01C8
:103F5000EE15FF05C1F78BE1FE013296ADE9B5E044
:103F600001900D928A95E1F78981893409F065C045
:103F70005DC061E070E08BE60E94921DF8018081D7
:103F80008093D2050E94480D51C061E070E08CE63C
:103F90000E94921DF0E2EF16F10461F487E6898336
:103FA00080E2F801DE01129601900D928A95E1F708
:103FB00061E203C087E4898361E0CE0101960E943B
:103FC000DB0B0E94590B83E0809371056CE474E075
:103FD00080E090E00E949B2880917105843069F513
:103FE0008FE70E9477090E948A09873431F51EC045
:103FF00061E070E08DE60E94921D89E1E816F1040F
:10400000E1F4D801E8EBF5E08D91819385E0E13DA5
:10401000F807D1F70BC061E070E08EE60E94921DB8
:10402000F80180818093D1050E94290D81E006C0AE
:1040300061E070E08AEC0E94921D80E00E94731D96
:104040000E94AF1DA196E6E00C94392EA0E0B0E0EE
:10405000ECE2F0E20C941B2ECAECD3E014E606E08E
:1040600035E0F32E44E0E42E53E0D52E62E0C62E78
:1040700080EE95E00E94782B892B09F49BC080EE9E
:1040800095E00E94A52B282F80933504409134049D
:1040900050E04730510560F7FA01EE52FF4F0C94A3
:1040A000482E853B29F781E080933404E1CF8236A6
:1040B00009F07DC0C0923404DBCF80933304809339
:1040C0003204D0923404D4CF9C013327309331048E
:1040D0002093300490913204982790933204E09218
:1040E0003404C6CF382F2227409130045091310438
:1040F000242B352B309331042093300490913204DB
:10410000982790933204F09234042536310508F450
:10411000AFCF61E070E08CEC0E94921D81E00E94C4
:10412000731D0E94AF1D43C020912E0430912F04B7
:10413000F901E653FC4F80839091320498279093C5
:104140003204C901019690932F0480932E0420918C
:104150003004309131048217930708F489CF00931B
:10416000340486CF8091320482130BC060912E04F8
:1041700070912F044AEC53E0809133040E94B61DE5
:104180000DC062E070E08BEC0E94921D80913304C0
:104190000E94731D809168050E94731DFE01812F8E
:1041A00011928A95E9F710922F0410922E04109222
:1041B00034045ECFCDB7DEB7E8E00C94372E81E053
:1041C0008093690580916905882349F080EE95E028
:1041D0000E94782B892BB1F30E942620F3CF0895FB
:1041E000AAE2B0E0E6EFF0E20C94192E0E946C28EF
:1041F0006B017C0181E00E947E0A80EE95E00E94C6
:10420000782B892B29F080EE95E00E94A52BF5CF25
:104210002D9811E072E6B72EE9E2AE2E03E00E947F
:104220006C286C197D098E099F09693C710581050F
:104230009105D0F11123C1F10E946C286B017C0122
:104240002C9A80ED97E00E94A807B982E4E7F5E098
:10425000DE0112968A2D01900D928A95E1F76AE2AD
:10426000CE0101960E94DB0B2C9880E090E00E942A
:10427000A807009371050E94590B62E370E080E08B
:1042800090E00E949B2880917105843061F4009336
:1042900071058FE70E9477090E948A0911E0823434
:1042A00019F410E001C011E08BE00E949129892BE4
:1042B00081F411E00EC02D9A2C9A80EE95E00E94B8
:1042C000A52B8D309105A9F05CF40A9791F02D98FB
:1042D0002C9880EE95E00E94782B892B61F79FCF78
:1042E0008332910579F08234910589F70E94DF20AD
:1042F000EECF62EB71E080EE95E00E94522A0E94C0
:10430000491DE5CF0E94D215E2CF8F929F92AF92C6
:10431000BF92CF92DF92EF92FF921F93CF93DF93E2
:104320008BE00E949129892B09F089C068EC70E02C
:1043300080E090E00E949B2880E090E00E94A80727
:104340000E946C284B015C016B017C0180ECC80E63
:1043500082E1D81EE11CF11C0E946C286C157D05C1
:104360008E059F0530F48BE00E949129892BA1F3E3
:1043700064C08BE00E949129892B09F05EC080ED1A
:1043800097E00E94A8070E946C286B017C01D0E096
:10439000C1E088E4880E86E2981EA11CB11C11E0E1
:1043A0008BE00E949129892B21F58C149D04AE0489
:1043B000BF0430F480ED97E00E94A807D1E0F0CF71
:1043C0000E946C286C197D098E099F09693C710552
:1043D0008105910528F30E946C286B017C01C1279F
:1043E00019F080ED97E002C080E090E00E94A807FD
:1043F000D7CF80E090E00E94A807DD23B9F080913C
:10440000D10590E0019665E070E00E94BC2D80939C
:10441000D1050E94290D0E94A9130E94480D64EF46
:1044200071E080E090E00E949B2809C080E00E943B
:10443000DF060E94C0110E943F0D0E94F020DF9114
:10444000CF911F91FF90EF90DF90CF90BF90AF90F2
:104450009F908F900895CF92DF92EF92FF9280E02D
:104460000E94DA070E94B10761E08DE00E942529D1
:1044700061E08CE00E94252960E08BE00E94252904
:1044800060E083E00E94252961E083E00E945E29CC
:1044900061E08EE00E94252960E08EE00E945E29A6
:1044A0000E949F0740E052EC61E070E080EE95E0F2
:1044B0000E94C02C0E94A9130E94480D0E949213D2
:1044C0008FEF8093A8040E94C60778940E946C28FE
:1044D0006B017C018091A8048F3F59F40E946C28E5
:1044E0006C197D098E099F09603D77408105910512
:1044F00088F380ED97E00E94A80761E08BE00E94BE
:104500005E292D9A80EE95E00E94782B892B29F068
:1045100080EE95E00E94A52BF5CF6DEF72E080EE66
:1045200095E00E94332A81E893E00E94300C64E118
:1045300073E080EE95E00E94332A4AE050E062E0AA
:1045400070E080EE95E00E94032B62E370E080E073
:1045500090E00E949B2880EE95E00E94782B0497C3
:104560000CF180EE95E00E94A52B82349105D1F4E8
:1045700080EE95E00E94A52B8E34910599F480EE93
:1045800095E00E94A52B8434910561F480EE95E0BE
:104590000E94A52B819731F480E090E00E94A8074B
:1045A0000E94F02040917505509176056091770545
:1045B00070917805DB01CA010197A109B10904973F
:1045C000A105B10568F44093A704433029F440EAFB
:1045D00056E861E070E004C040E052EC61E070E059
:1045E00080EE95E00E94C02C0E9485212D9880E0ED
:1045F00090E00E94A8070E9492131092C304809139
:10460000BD0583FF11C080918905882351F08091F9
:104610009005882331F080919705882311F087E079
:1046200001C085E08093C30480E00E947E0A8091EF
:10463000C4040E94B2090E94590B10923F041092C8
:104640003E0410923D04F12C8091D2058F15B0F0FC
:1046500062E370E080E090E00E949B2880ED97E0AC
:104660000E94A80762E370E080E090E00E949B282F
:1046700080E090E00E94A807F394E6CF80919C052B
:1046800084FF08C0982F987181E0983109F080E08C
:104690000E947C118FE00E94DA07FF90EF90DF907C
:1046A000CF900895EF92FF920F931F93CF93DF93D4
:1046B0008C016EE770E080EE95E00E945906E801FB
:1046C000F12CF0E2EF2E8E0188818D57823048F474
:1046D0006DE770E080EE95E00E94590688818E2596
:1046E00088832196F801608180EE95E00E94D22BAC
:1046F000F394F9E0FF12E7CF6EE770E080EE95E00B
:104700000E945906CDB7DEB7E6E00C94392EA9E039
:10471000B0E0EDE8F3E20C94212E9091C5049111E4
:104720000EC09EEF99838A836B8350E05595479521
:104730004C832D83198618861F821E822EC04091BD
:10474000CA04842F90E0B4E095958795BA95E1F777
:10475000242F2F7030E08217930719F18DEF898392
:104760001B82FE01349650E0842F90E0A4E09595E2
:104770008795AA95E1F7242F2F7030E082179307D1
:1047800049F0DC01A553BB4F8C918193405F5F5F83
:10479000563051F74093CA045A83CE0101960E94C5
:1047A00052238091C50490E0019666E070E00E947B
:1047B000BC2D8093C5042996E2E00C943D2EA0E028
:1047C000B0E0E5EEF3E20C941A2E6C016EE770E0B7
:1047D00080EE95E00E9459068601E12CF12CC0E0A4
:1047E000D0E030E2B32EF801608183E8860F82309A
:1047F00078F46DE770E080EE95E00E945906F801CC
:1048000060816B2570E080EE95E00E94590604C03F
:1048100080EE95E00E94D22BE114F10459F0F801EA
:1048200080819E01280F311DC901C92FDD27C80FC6
:10483000D91FDD273FEFE31AF30A89E0E816F104F8
:1048400059F028E0E216F10421F48C2F8095F6014E
:1048500080870F5F1F4FC7CFCDB7DEB7E9E00C945D
:10486000362EA9E0B0E0E7E3F4E20C94212EE82F25
:10487000362F8091C50490E0019664E270E00E94BA
:10488000BC2D8093C50458E9598350E15A83813087
:1048900089F048F08230B9F08330D9F48B8381EF0E
:1048A0008C833D8319C085E08B8381EF8C832F5FE0
:1048B0002D8312C08B8381EF8C8384E6489FA001F7
:1048C00011245D8309C084E08B8381EF8C83ED83A9
:1048D00003C00E94B91104C0CE0101960E94DF23DB
:1048E0002996E2E00C943D2EA2E0B0E0EAE7F4E283
:1048F0000C94162E182F762E2A8349830E9478282E
:104900006B017C018091DB048090C6049090C70409
:10491000A090C804B090C9042A8149818823C1F0BD
:10492000D701C60188199909AA09BB094C015D0183
:1049300091EE89169EE29906A104B10420F1241794
:1049400008F4422F202F672D812F0E94312413C09D
:10495000D701C60188199909AA09BB094C015D0153
:1049600091E3891695E79906A104B10460F0672DDB
:10497000812F0E948723C092C604D092C704E09280
:10498000C804F092C9042296EDE00C94322EA2E203
:10499000B0E0EDECF4E20C94172E8CE00E94990943
:1049A00081110DC06CE173E080EE95E00E94642AF5
:1049B0002D9A80E00E947E0A0E94590B2D9880EE6D
:1049C00095E00E94782B892B01F180EE95E00E9402
:1049D000A52B9091A704992319F00E94BC13EFCF47
:1049E00040913E0450E09A012F5F3F4F2F713327D3
:1049F00060913F0470E02617370709F3FA01E75B7F
:104A0000FB4F808320933E04DACF80917105843080
:104A100009F086C00E94782861157105810591050D
:104A200049F06093B5047093B6048093B7049093F3
:104A3000B8040CC081E090E0A0E0B0E08093B50441
:104A40009093B604A093B704B093B8048091AB04DC
:104A50009091AC0481609093AC048093AB0483E0AC
:104A6000809371058FE70E94770909E614E00E94A0
:104A70008A09F80181938F01F4E002371F07B9F723
:104A80002091720480916904982F922796FF3BC071
:104A900090E4922790937204982F98739833F1F4CE
:104AA00010E0212F30E080916904877090E0821738
:104AB00093074CF11F5F20919C05812F90E0FC0132
:104AC000E759FB4F24FF04C080810E949B11E9CF6E
:104AD000608180EE95E00E94D22BE3CF8F7399F432
:104AE00080916A048093B40480916B048093B20433
:104AF00080916C048093B10480916F0490E0909356
:104B0000AA048093A90480913D04813019F482E0C5
:104B100080933D0480913D04833011F410923D0454
:104B20000E9478286B017C018091AD049091AE04C5
:104B3000A091AF04B091B0040097A105B105C9F0F0
:104B4000A7019601281B390B4A0B5B0BDA01C9013F
:104B5000883B9B40A105B10560F00E94C809809385
:104B6000B3041092AD041092AE041092AF041092F0
:104B7000B0048091B9049091BA04A091BB04B091A3
:104B8000BC0446015701881A990AAA0ABB0A84E79D
:104B900095E00E94F40786169706A806B90608F461
:104BA000A8C0C092B904D092BA04E092BB04F092BB
:104BB000BC040E9457068091A8048830A0F0809120
:104BC000BD059091BE05A091BF05B091C0056CE1F7
:104BD000B695A795979587956A95D1F7892B8A2BD6
:104BE0008B2B09F0A4C18091A8048F5F8093A80447
:104BF0008091B5049091B604A091B704B091B80427
:104C00000097A105B105F1F0C81AD90AEA0AFB0A12
:104C100084E795E00E94F4076C157D058E059F05DD
:104C200008F006C18091BD0584FD04C080ED97E0C9
:104C30000E94A8071092B5041092B6041092B7040F
:104C40001092B80490917204907C909372045091E9
:104C50003E0480913F0420913D04581709F405C19A
:104C6000223009F002C1905890937204E0919C05A3
:104C7000E770F0E0E658FC4F6081693008F0DDC075
:104C8000615040E04613DBC080933F0487E3840F0C
:104C900090917204892B809372044093400483E0C6
:104CA00080933D042C9A809181059091C3049111C9
:104CB0002FC10E94790A8091C4040E94B209E09138
:104CC0009C05E770F0E0E658FC4F608182E794E0D5
:104CD0000E94940BE091C404EF5FE093C404E831B8
:104CE00009F422C1F0E0EC58FA4F8785882309F4D3
:104CF0001BC10E94030C813069F580919C0588716D
:104D000049F18091AB049091AC04880F991F909366
:104D1000AC048093AB0483E0809371050E94590B2F
:104D20000E9478286093AD047093AE048093AF0422
:104D30009093B004672B682B692B61F481E090E0BD
:104D4000A0E0B0E08093AD049093AE04A093AF04D4
:104D5000B093B00480919C0584FF1FC08091AB0488
:104D60009091AC048E7F0E942A09182F6091A904AB
:104D70008091B4040E94B213482F612F8091B30434
:104D800049A30E94B2130091D205282F49A1609136
:104D9000B1048091B2040E9474242C988091C104C3
:104DA0008130C1F018F08230B1F1CEC08BE00E94AA
:104DB0009129892B09F0C8C081E08093C1040E9429
:104DC0006C286093BD047093BE048093BF049093DD
:104DD000C004BAC08BE00E949129892B31F50E9452
:104DE0006C28C090BD04D090BE04E090BF04F09049
:104DF000C0046C197D098E099F09693E73408105C5
:104E0000910508F4A1C082E08093C10480ED97E091
:104E10000E94A80799C08BE00E949129892B09F470
:104E200093C080E090E00E94A8071092C1048CC05B
:104E300080E090E00E94A80705CF68E022CF8517A8
:104E400009F422CF4F5F242F30E090E0F901EE58B3
:104E5000FB4FDC01A75BBB4F7C917083F901E05CE9
:104E6000FB4F708301968F710DCF2430B1F42091E8
:104E7000400481E494E0A3E7B4E0FC013E2F381B3A
:104E8000321718F431913D93F9CF87E3820F909157
:104E90007204892B8093720402CF8091C104823006
:104EA00069F49160909372042D9A51ECE52E55E0CF
:104EB000F52E8E010F5F1F4FB80110C02D98809105
:104EC0003D04811103C081E080933D0480913D0445
:104ED000833059F784E080933D04E7CFF701819157
:104EE0007F0169A37AA30E94B415F801819391937D
:104EF0008F0169A17AA1F1EDEF16F5E0FF0671F7D8
:104F000080919C0543E754E087700E947908CACEDF
:104F1000882309F4CECE2091C20431E0320F3093C1
:104F2000C2042913C6CE0CC01092C404E2CE8091F4
:104F3000A804883009F42D9A89E08093A804D9CE7A
:104F40001092C2048150B5CEA296ECE00C94332EA0
:104F50008230E8F4E82FF0E0EE0FFF1FED52FA4F39
:104F600071836083813041F0809169008C7F842B54
:104F700080936900E89A089580916900440F551F55
:104F8000440F551F837F842B80936900E99A08950D
:104F90001F920F920FB60F9211242F933F934F93AE
:104FA0005F936F937F938F939F93AF93BF93EF9391
:104FB000FF938091D3059091D405892B29F0E0913E
:104FC000D305F091D4050995FF91EF91BF91AF9171
:104FD0009F918F917F916F915F914F913F912F9111
:104FE0000F900FBE0F901F9018951F920F920FB643
:104FF0000F9211242F933F934F935F936F937F935F
:105000008F939F93AF93BF93EF93FF938091D505B9
:105010009091D605892B29F0E091D505F091D60520
:105020000995FF91EF91BF91AF919F918F917F91E2
:105030006F915F914F913F912F910F900FBE0F9005
:105040001F9018951F920F920FB60F9211242F9355
:105050003F938F939F93AF93BF938091D805909187
:10506000D905A091DA05B091DB053091D70523E091
:10507000230F2D3720F40196A11DB11D05C026E890
:10508000230F0296A11DB11D2093D7058093D8054B
:105090009093D905A093DA05B093DB058091DC05E8
:1050A0009091DD05A091DE05B091DF050196A11D6F
:1050B000B11D8093DC059093DD05A093DE05B093D0
:1050C000DF05BF91AF919F918F913F912F910F90ED
:1050D0000FBE0F901F9018952FB7F8946091D805C8
:1050E0007091D9058091DA059091DB052FBF089565
:1050F0003FB7F8948091DC059091DD05A091DE0525
:10510000B091DF0526B5A89B05C02F3F19F0019689
:10511000A11DB11D3FBF6627782F892F9A2F620FDF
:10512000711D811D911D42E0660F771F881F991F19
:105130004A95D1F70895CF92DF92EF92FF92CF93E5
:10514000DF936B017C010E947828EB01C114D1042C
:10515000E104F10479F00E9478286C1B7D0B683E15
:105160007340A0F381E0C81AD108E108F108C851E2
:10517000DC4FECCFDF91CF91FF90EF90DF90CF909D
:105180000895789484B5826084BD84B5816084BDBF
:1051900085B5826085BD85B5816085BDEEE6F0E0B0
:1051A000808181608083E1E8F0E01082808182600C
:1051B0008083808181608083E0E8F0E0808181608D
:1051C0008083E1EBF0E0808184608083E0EBF0E0BD
:1051D000808181608083EAE7F0E080818460808361
:1051E000808182608083808181608083808180680B
:1051F00080831092C1000895833081F028F48130BB
:1052000099F08230A1F008958630A9F08730B9F086
:105210008430D1F4809180008F7D03C08091800024
:105220008F7780938000089584B58F7702C084B50E
:105230008F7D84BD08958091B0008F7703C08091E9
:10524000B0008F7D8093B0000895CF93DF9390E0FE
:10525000FC01ED50F44F2491FC01E95FF34F849180
:10526000882349F190E0880F991FFC01E15DF34F1D
:10527000A591B4918B5D934FFC01C591D4919FB7DB
:10528000611108C0F8948C91209582238C938881B9
:1052900082230AC0623051F4F8948C91322F3095F9
:1052A00083238C938881822B888304C0F8948C910B
:1052B000822B8C939FBFDF91CF910895A1E0B0E046
:1052C000E4E6F9E20C941F2E282F30E0F901E152B8
:1052D000F44F8491F901ED50F44F1491F901E95F15
:1052E000F34F04910023C9F0882321F069830E94C1
:1052F000FC286981E02FF0E0EE0FFF1FEB5DF34F1C
:10530000A591B4919FB7F8948C91611103C0109549
:10531000812301C0812B8C939FBF2196E4E00C94E4
:105320003B2ECF93DF93282F30E0F901E152F44F69
:105330008491F901ED50F44FD491F901E95FF34FF5
:10534000C491CC2391F081110E94FC28EC2FF0E055
:10535000EE0FFF1FE55EF34FA591B4912C912D2325
:1053600081E090E021F480E002C080E090E0DF91F5
:10537000CF9108958E3008F08E50877020919D0156
:1053800090E4299F90011124822B80937C008091CE
:105390007A00806480937A0080917A0086FDFCCF49
:1053A000809178002091790090E0922B0895A0E000
:1053B000B0E0EDEDF9E20C941B2E6C017A01EB01EB
:1053C000E60EF71E00E010E0CE15DF0561F06991F2
:1053D000D601ED91FC910190F081E02DC601099577
:1053E000080F191FF1CFC801CDB7DEB7E8E00C9464
:1053F000372E6115710589F0DB010D900020E9F76A
:10540000AD0141505109461B570BDC01ED91FC9158
:105410000280F381E02D0995089580E090E00895E1
:10542000EF92FF920F931F93CF93DF938C01FB01B9
:10543000C0E0D0E064917F018FEFE81AF80A66239C
:1054400061F0D801ED91FC910190F081E02DC8014F
:105450000995C80FD91FF701EDCFCE01CDB7DEB743
:10546000E6E00C94392E0E94F9290895DC01ED91B3
:10547000FC910190F081E02D099508950F931F9301
:10548000CF93DF93EC016DE00E94362A8C016AE035
:10549000CE010E94362A800F911FDF91CF911F917C
:1054A0000F9108950F931F93CF93DF93EC010E9408
:1054B000102A8C01CE010E943E2A800F911FDF919D
:1054C000CF911F910F9108950F931F93CF93DF9367
:1054D000EC010E94F9298C01CE010E943E2A800F26
:1054E000911FDF91CF911F910F9108950F931F93FB
:1054F000CF93DF93EC010E94362A8C01CE010E94EB
:105500003E2A800F911FDF91CF911F910F91089537
:10551000A1E2B0E0EEE8FAE20C94172E7C01C42E72
:10552000E52FCB01D22E19A221E02D1510F02AE093
:10553000D22E8E010F5D1F4F8D2C912CA12CB12CE2
:105540006C2D7E2FA50194010E94D02D8C2DD29E12
:1055500080191124015011098A3010F4805D01C0B6
:10556000895CF8018083211531054105510521F041
:10557000C22EE32FCA01E4CFB801C7010E94F92966
:10558000A196ECE00C94332EA0E0B0E0EAECFAE255
:105590000C941B2EEC016A017B012115310541F4AD
:1055A000E881F9810190F081E02D642F09951DC0FB
:1055B0002A303105A9F477FF12C06DE20E94362A25
:1055C0008C0144275527BA014C195D096E097F09E2
:1055D0002AE0CE010E94882A800F911F06C02AE08F
:1055E000B701A601CE010E94882ACDB7DEB7E8E058
:1055F0000C94372E9A01AB01662757FD6095762FE4
:105600000E94C42A08950F931F93CF93DF93EC0158
:105610009A01AB01662757FD6095762F0E94C42A38
:105620008C01CE010E943E2A800F911FDF91CF9105
:105630001F910F9108952115310549F4DC01ED9179
:10564000FC910190F081E02D642F099508950E944E
:10565000882A08959A01462F50E060E070E00E9489
:105660001B2B08959A01AB0160E070E00E941B2B98
:1056700008950F931F93CF93DF93EC010E941B2B90
:105680008C01CE010E943E2A800F911FDF91CF91A5
:105690001F910F9108950F931F93CF93DF93EC0108
:1056A0009A01AB0160E070E00E941B2B8C01CE01DF
:1056B0000E943E2A800F911FDF91CF911F910F9181
:1056C00008950F931F93CF93DF93EC019A01462F18
:1056D00050E060E070E00E941B2B8C01CE010E9424
:1056E0003E2A800F911FDF91CF911F910F91089556
:1056F000FC0124853585F901E05CFF4F80819181B3
:10570000F901EE5BFF4F20813181821B930B8F7378
:1057100099270895FC0184859585FC01E05CFF4F85
:1057200040815181FC01EE5BFF4F208131814217A6
:10573000530741F00190F081E02DE80FF91F8081BF
:1057400090E008958FEF9FEF0895FC018485958583
:10575000FC01E05CFF4F40815181FC01EE5BFF4F9B
:10576000208131814217530779F0A081B181A80FC0
:10577000B91F8C91208131812F5F3F4F2F733327C9
:105780003183208390E008958FEF9FEF0895FC010F
:1057900081A1882329F0A489B5898C9186FFFBCF4C
:1057A00011A20895CF93DF93FC0126853785D90197
:1057B000A05CBF4F8D919C91119701968F73992793
:1057C000E901CE5BDF4F4881598184179507D9F3F2
:1057D0000D90BC91A02DA20FB31F6C93A685B78529
:1057E000A05CBF4F11969C938E93A689B7892C918C
:1057F00081E090E0078C02C0880F991F0A94E2F7BD
:10580000282B2C9381E081A30488F589E02D8081E9
:105810008064808381E090E0DF91CF9108950895C6
:105820001F920F920FB60F9211242F933F934F9315
:105830008F939F93EF93FF938091C00082FD1CC0D4
:105840004091C600809186069091870601968F73DD
:10585000992720918806309189068217930771F065
:10586000E0918606F0918706EA5BF94F40839093BA
:1058700087068093860602C08091C600FF91EF9153
:105880009F918F914F913F912F910F900FBE0F904D
:105890001F90189580EE95E00E94782B892B11F0CF
:1058A0000E940F2C08951F920F920FB60F92112491
:1058B0002F933F938F939F93EF93FF9320914206F3
:1058C0003091430680914406909145062817390788
:1058D00031F48091C1008F7D8093C10014C0E091AC
:1058E0004406F0914506EE5FF94F20818091440611
:1058F0009091450601968F73992790934506809362
:1059000044062093C600FF91EF919F918F913F91A4
:105910002F910F900FBE0F901F901895A0E0B0E050
:10592000E4E9FCE20C94172EFC011382128288EE4B
:1059300093E0A0E0B0E084839583A683B7838CEBEB
:1059400093E0918380837587648757874687318B7F
:10595000208B138B028BF58AE48AD78AC68AB18E94
:10596000A08E938E828E8F85848F8889858F89897A
:10597000868F8A89878F8B8980A3ECE00C94332EE5
:10598000CF92DF92EF92FF92CF93DF93EC016A0107
:105990007B01411581EE580761057105F9F0EC892D
:1059A000FD8981E090E008A002C0880F991F0A9449
:1059B000E2F7808360E079E08DE390E0A701960153
:1059C0000E94D02D21503109410951095695479522
:1059D00037952795211580E1380798F0EC89FD89E6
:1059E000108260E874E88EE190E0A70196010E94C1
:1059F000D02D2150310941095109569547953795C8
:105A00002795E889F9893083EA89FB89208319A2DF
:105A1000EE89FF89408181E090E09C010C8C02C0FE
:105A2000220F331F0A94E2F7422B4083EE89FF894D
:105A300040819C010D8C02C0220F331F0A94E2F7B3
:105A4000422B4083EE89FF8940819C010E8C02C06D
:105A5000220F331F0A94E2F7422B4083EE89FF891D
:105A600020810F8C02C0880F991F0A94E2F780955D
:105A700082238083DF91CF91FF90EF90DF90CF90D2
:105A800008958F929F92AF92BF92CF92DF92EF9242
:105A9000FF920F931F9381E08F9385E08F9387E0B0
:105AA0008F9383E08F9384E08F93E6EC8E2E912C7E
:105AB000F2ECAF2EB12CA1ECCA2ED12CB0ECEB2E17
:105AC000F12C04EC10E025EC30E042E056E066E416
:105AD00076E080EE95E00E948E2C0F900F900F9054
