:100000000C94E2050C9496290C94C3290C940A06CE
:100010000C940A060C940A060C940A060C940A0620
:100020000C940A060C940A060C94570C0C940A06BD
:100030000C940A060C940A060C940A060C940A0600
:100040000C94F0290C940A060C94982D0C94D32D42
:100050000C940A060C940A060C940A060C940A06E0
:100060000C940A060C940A063E1C451C451C3E1CBA
:10007000451C451C451C451C451C451C451C451C78
:10008000451C451C451C451C451CAD1B451C451C01
:10009000451C451C451C101B451C451C451C451C8E
:1000A000451C451C451C451C451C451C451C451C48
:1000B000451C451C451CB91BB91BB91BB91BB91BF9
:1000C000B91BB91BB91BB91B451C451C451C451C5C
:1000D000451C451C151BB81BB81BB81BB81B451C81
:1000E000CF1BD71BDF1BE71BEF1BF71BFF1B071CDF
:1000F000111C1B1C251C2F1C5C1B1C1B451C451CA0
:10010000451C451CAD1B451C451C451C451C451C80
:10011000451C451C451CB71BB71BB71BB71B451C13
:10012000CF1BD71BDF1BE71BEF1BF71BFF1B071C9E
:10013000111C1B1C251C2F1C5C1B1C1B451C451C5F
:10014000451C451CAD1B456E746572206D656E7552
:100150002E2E2E00546F67676C6564206D69637284
:100160006F50504D00546F67676C656420696E7600
:1001700065727465642050504D2100546F67676C40
:100180006564205458206D7574696E672100546F42
:1001900067676C65642074656C656D657472792140
:1001A0000050726F746F636F6C206572726F722093
:1001B000776974682052580054696D656F757420B2
:1001C0007768656E20636F6E6E656374696E672015
:1001D000746F20525800507265737320616E7920DD
:1001E0006B657920746F2063616E63656C00436F8B
:1001F0006E6E656374696E6720746F2052582C2090
:10020000706F776572207570207468652052582071
:1002100028776974682062696E6420706C75672045
:100220006966206E6F74207573696E6720616C77E4
:100230006179732062696E642900546F67676C6529
:10024000642027696D6D656469617465206F7574DC
:100250007075742700546F67676C65642027736C32
:10026000617665206D6F64652700546F67676C6504
:10027000642027616C776179732062696E6427005E
:10028000546F67676C65642050504D206368616EE1
:100290006E656C206C696D697400536574205253EF
:1002A000534920696E6A656374696F6E2063686183
:1002B0006E6E656C2028303D3D64697361626C65CB
:1002C00029005365742050504D206D696E696D751D
:1002D0006D2073796E630053657420626561636F8E
:1002E0006E20696E74657276616C0053657420626D
:1002F0006561636F6E2064656C617900536574207D
:10030000626561636F6E206672657175656E637993
:1003100020696E20487A3A20303D64697361626CCE
:10032000652C2050783D504D52206368616E6E659B
:100330006C20782C2046783D465253206368616ECD
:100340006E656C2078005365742050574D2073748F
:100350006F702064656C6179202830206469736156
:10036000626C65642C20312D323535203D3D2030C6
:100370002E3173202D2035306D696E290053657440
:100380002050504D2073746F702064656C6179202B
:1003900028302064697361626C65642C20312D32D1
:1003A0003535203D3D20302E3173202D2035306DE8
:1003B000696E2900536574206661696C73616665B6
:1003C0002064656C61792028302064697361626CF7
:1003D00065642C20312D323535203D3D20302E31C5
:1003E00073202D2035306D696E29002A2A2A2A2A89
:1003F0002A2A2A2A2A2A2A2A2A2A2A2A2A2A2A2A5D
:100400002A2A2A2A2A2A2A2A0052582041636B655E
:1004100064202D2072657665727420737563636540
:10042000737366756C21002A2A2A2A2A2A2A2A2A04
:100430002A2A2A2A2A2A2A2A2A2A2A2A2A2A2A2A1C
:100440002A2A2A2A002A2A2A2A2A2A2A2A2A2A2A36
:100450002A2A2A2A2A2A2A2A2A2A2A2A2A2A2A2AFC
:100460002A2A0052582041636B6564202D20757044
:1004700064617465207375636365737366756C215D
:10048000002A2A2A2A2A2A2A2A2A2A2A2A2A2A2AF6
:100490002A2A2A2A2A2A2A2A2A2A2A2A2A2A0056BA
:1004A000616C69642063686F69636573206172655C
:1004B0003A205B315D2D5B31365D20286368616ECB
:1004C0006E656C20312D31362900536574206F75AF
:1004D0007470757420666F7220706F727420005B88
:1004E000585D2061626F7274206368616E67657326
:1004F00020616E64206578697420525820636F6EA5
:10050000666967005B535D2073617665207365746F
:1005100074696E677320746F205258005B525D20BF
:100520007265766572742052582073657474696EB2
:10053000677320746F2064656661756C7473005511
:100540007365206E756D62657273205B312D445D3D
:1005500020746F206564697420706F727473205BFF
:10056000452D515D20666F722073657474696E67E6
:100570007300202D20726563656976657220636F54
:100580006E666967757261746F722C207278207361
:100590007720000A0A6F70656E4C52536E67200018
:1005A0005365742073657269616C20626175647251
:1005B0006174653A200056616C69642063686F69F4
:1005C0006365733A2031202D20342B34202F2032C4
:1005D000202D2038202F2033202D20382B34202F81
:1005E0002034202D203132202F2035202D20313273
:1005F0002B34202F2036202D2031360053657420D7
:100600004368616E6E656C20636F6E6669673A2041
:1006100000536574204461746172617465202830F0
:100620002D32293A200053657420486F702063688A
:10063000616E6E656C7320286D61782032342C20D9
:1006400073657061726174656420627920636F6D97
:100650006D6173292076616C69642076616C7565C3
:100660007320312D3235353A20005365742063688C
:10067000616E6E656C2073706163696E67202878A7
:1006800031306B487A293A20005365742052462055
:10069000706F7765722028302D37293A2000536516
:1006A00074205246206D6167696320286865782947
:1006B00020652E672E203078444541444630304432
:1006C0003A2000536574206261736520667265711B
:1006D00075656E63792028696E20487A293A200072
:1006E0005B5A5D20656E746572207265636569761C
:1006F000657220636F6E66696775726174696F6E8B
:10070000207574696C79005B465D20646973706C58
:1007100061792061637475616C20667265717565BD
:100720006E636965732075736564005B525D206359
:10073000616C63756C6174652072616E646F6D20AD
:100740006B657920616E6420686F70206C697374CA
:10075000005B495D207265696E697469616C697AD4
:10076000652073657474696E677320746F20736B92
:10077000657463682064656661756C7473005B58AA
:100780005D20726576657274206368616E6765735B
:1007900020616E642065786974206D656E75005BFC
:1007A000535D20736176652073657474696E677339
:1007B00020746F20454550524F4D20616E64206576
:1007C000786974206D656E7500557365206E756D62
:1007D00062657273205B302D395D20746F20656413
:1007E000697420706172616D657465727300202D8B
:1007F0002053797374656D20636F6E6669677572D7
:100800006174696F6E000A0A6F70656E4C52536EA8
:100810006720005129204F757470757420626566D9
:100820006F7265206C696E6B20283D465329203A13
:100830002000502920536C617665206D6F6465201F
:10084000286578706572696D656E74616C293A20EF
:10085000004F292054696D65642042494E4420614F
:1008600074207374617274757020203A20004E29D0
:100870002050504D206F7574707574206C696D69CF
:1008800074656420202020203A20004449534142CE
:100890004C4544004D292050504D2052535349207F
:1008A000746F206368616E6E656C202020203A2092
:1008B000004C292050504D206D696E696D756D207A
:1008C00073796E63202875732920203A20004449EB
:1008D0005341424C4544004B29204661696C736189
:1008E000666520626561636F6E20696E74762E2086
:1008F00028312D32353573293A20004A29204661A6
:10090000696C7361666520626561636F6E20646502
:100910006C61792028302D323535203D3E20313034
:1009200073202D203135306D696E293A2000492918
:10093000204661696C7361666520626561636F6EF4
:10094000206672712E203A200048292050574D20F1
:1009500073746F702064656C6179202020202020E2
:10096000203A200047292050504D2073746F70208A
:1009700064656C6179202020202020203A200046E8
:1009800029204661696C736166652064656C6179D4
:10099000202020202020203A200050574D2063683E
:1009A000616E6E656C200066756E6374696F6E3A79
:1009B00020002920706F727420004454462055484E
:1009C000462033322D6269742031306368004F70E5
:1009D000656E4C52536E675258206D696E692034B3
:1009E0002F36636800466C7974726F6E2F4F726198
:1009F0006E67655258205548462038636800525843
:100A000020747970653A200044697361626C656492
:100A100000487A00203D3D200043616C63756C61A5
:100A2000746564207061636B657420696E746572AF
:100A300076616C3A20004229204D6963726F20284C
:100A400068616C66292050504D202020203A0041DA
:100A50002920496E7665727465642050504D206976
:100A60006E20202020203A003029204D757465200A
:100A700062757A7A657220286D6F73746C79293A81
:100A80000039292053657269616C20626175647256
:100A90006174653A00736D617274506F72740046D0
:100AA00072536B79005472616E73706172656E740B
:100AB0000044697361626C65640038292054656C78
:100AC000656D657472793A2020202020202000373F
:100AD00029204368616E6E656C20636F6E6669677E
:100AE0003A202000362920446174617261746520C7
:100AF00028302D32293A20202000352920486F70D7
:100B0000206368616E6E656C733A2020202020009F
:100B10003429204368616E6E656C2073706163696F
:100B20006E673A202000332920524620706F776587
:100B3000722028302D37293A2020200032292052D7
:100B400046206D616769633A202020202020202004
:100B500020003129204261736520667265717565D8
:100B60006E63793A20202000000000002400270056
:100B70002A0000000000250028002B0000000000D3
:100B800023002600290004040404040404040202CF
:100B900002020202030303030303010204081020FC
:100BA0004080010204081020010204081020000007
:100BB000000700020100000304060000000000001E
:100BC00000008C2F11241FBECFEFD8E0DEBFCDBFB9
:100BD00013E0A0E0B1E0EAE5F1E602C005900D9275
:100BE000AA3FB107D9F716E0AAEFB3E001C01D9202
:100BF000AD3AB107E1F71BE0C4ECDBE004C022979B
:100C0000FE010E946530C23CD107C9F70E94D12F76
:100C10000C94AB300C940000A0E0B0E0E2E1F6E010
:100C20000C947C30EC01A880B980CA80DB80A114D0
:100C3000B104C104D10441F484E2A82E89EDB82E98
:100C40008BE5C82E87E0D82EC601B5012DE133EF24
:100C500041E050E00E94343027EA31E440E050E0C7
:100C60000E94E02F7B018C01C601B5012DE133EF1D
:100C700041E050E00E943430CA01B9012CEE34EF5B
:100C80004FEF5FEF0E94E02F6E0D7F1D801F911FC1
:100C900097FF04C06150704080409048688379831A
:100CA0008A839B839B01AC015F77B901CA01CDB7F1
:100CB000DEB7EAE00C9498300E940C06089584E1B7
:100CC00093E00E940C06089560931403709315033B
:100CD00080931603909317030895A0E0B0E0E3E734
:100CE000F6E00C947530EC012B016A016115710579
:100CF00019F0FB0191838083C114D10449F0C6012E
:100D00000297839728F020E030E040E050E0DCC01C
:100D1000A9908A2D90E00E946930892BC9F7FDE2E5
:100D2000AF1621F4A9903324339405C08BE2A816A2
:100D300009F4A9903324C114D10421F0E0E1CE16C6
:100D4000D10411F5F0E3AF1669F48881883711F00A
:100D5000883541F4A980229682E0382A20E1C22E0B
:100D6000D12C12C0C114D10479F4E0E3AE1659F1CC
:100D700099E9E92E99E9F92E99E9092F99E1192FB5
:100D80008AE0C82ED12C3AC0FAE0CF16D10491F0F7
:100D900080E1C816D10429F0E8E0CE16D104F9F4B8
:100DA00015C0BFEFEB2EBFEFFB2EBFEF0B2FBFE049
:100DB0001B2F24C0A9E9EA2EA9E9FA2EA9E90A2FD6
:100DC000A9E11A2F1BC0F8E0CF2ED12CEFEFEE2EA9
:100DD000EFEFFE2EEFEF0E2FEFE11E2F0FC096016B
:100DE000442737FD4095542F6FEF7FEF8FEF9FEF34
:100DF0000E941230C901DA017C018D0120E030E04F
:100E000040E050E060E03601882477FC8094982C24
:100E100070EDB72EBA0CF9E0FB1570F48A2D8154F1
:100E20008A3118F499ECB92E06C08A2D81568A3180
:100E300048F589EAB82EBA0C8B2D90E08C159D05EB
:100E40000CF56F3FE9F0E216F30604071507B8F05A
:100E5000CA01B901A40193010E94E02F9B01AC01DA
:100E60008B2D90E0A0E0B0E0280F391F4A1F5B1FD8
:100E7000281739074A075B0710F061E001C06FEFE0
:100E8000A990C6CF4114510451F0662311F0219767
:100E900003C031FE04C02297F201D183C08330FE2B
:100EA00007C050954095309521953F4F4F4F5F4F6C
:100EB00067FF0AC082E290E09093AC068093AB0695
:100EC0002FEF3FEF4FEF5FEFB901CA01CDB7DEB7AC
:100ED000E1E10C949130FC0188279927E894219155
:100EE0002032E9F3293010F02E30C8F32B3241F0D4
:100EF0002D3239F4689404C00E94C007820F911DFE
:100F0000219120532A30C0F31EF4909581959F4F74
:100F100008954AEF53E00E948E070895009731F438
:100F2000DA018D919C91009709F40EC0DC01FB0160
:100F30003D912191222319F03217C9F3FACF3323BF
:100F400031F4DA011D921C92882799270895119790
:100F5000AF93BF93FB013D912191321771F433237D
:100F600021F488279927119702C01E921196FA0141
:100F7000A193B0839F918F910895222369F7EACFBF
:100F80007AE0979F902D879F802D910D11240895D1
:100F90008091FC03813019F482E08093FC038091FE
:100FA000FC03833019F484E08093FC030895E3E0AC
:100FB000F0E089E080935700849190E0867086305D
:100FC00009F491E0892F08951F93182F0E94D707E5
:100FD000882379F09FB781E08093F305F894A89572
:100FE00088E18093600010936000112309F0A895B8
:100FF0009FBF1F910895382F20E080918505909123
:1010000086058227932740E061E270E19C01220F70
:10101000331F97FF04C0C9018627972701C0C90164
:101020004F5F483099F79093860580938505089522
:1010300080EC91EDA8E9BBE18093FF03909300045D
:10104000A0930104B09302041092030410920404CC
:101050001092050410920604089586E380932204FA
:1010600080E092ECA1E0B0E080932304909324040C
:10107000A0932504B093260487E080932F0480EC8E
:1010800092E9ADEEB9E18093270490932804A093F0
:101090002904B0932A0485E0809330048DEE9EEFFE
:1010A000ADEABEED80932B0490932C04A0932D0405
:1010B000B0932E04A1E3B4E080E090E0863010F01D
:1010C000E0E004C0FC01ED51FC4FE081ED9301969E
:1010D0008831910599F782E0809349048AE08093F2
:1010E0004A0408958436910520F4BC0180E090E024
:1010F00025C08E3B910550F48A559040BC0180E09C
:1011000090E02AE030E040E050E016C0823D9105DA
:1011100050F4845B9040BC0180E090E024E630E035
:1011200040E050E009C08D5C9040BC0180E090E060
:1011300028E532E040E050E00E94E02F24E630E075
:1011400040E050E00E94E02F089590E08C599F4FBE
:101150000E9472080895DC019896EC91F0E0E77027
:10116000F070E552FC4F808108958F929F92AF926C
:10117000BF92CF92DF92EF92FF920F931F938C0159
:101180000E94AB08D80197962C9130E043E150E0E3
:10119000249FF001259FF00D349FF00D1124E85E8F
:1011A000FC4F80809180A280B38090E00F96AA27A8
:1011B00097FDA095BA2FBC01CD0120E43FE14DE79A
:1011C00050E00E94E02FA50194010E9412306901B5
:1011D0007A0180ED97E0A0E0B0E0C80ED91EEA1ECB
:1011E000FB1ED80198968C91887181F060E07EEEAC
:1011F0008AEB9BE0A50194010E94123028513C4FDC
:101200004F4F5F4FC20ED31EE41EF51E87EE93E0D4
:10121000A0E0B0E0C80ED91EEA1EFB1EC701B60151
:1012200028EE33E040E050E00E941230CA01B901DC
:1012300028EE33E040E050E00E94E02F1F910F9134
:10124000FF90EF90DF90CF90BF90AF909F908F90E6
:1012500008958F3F910509F010F480E0089522E091
:101260008030920710F481E008958050934010F090
:1012700083E0089582E00895CF92DF92FF920F936A
:101280001F93CF93DF93F82FEB016A01182F169568
:10129000E0E088819981D6018C938A819B811196A7
:1012A0008C9311978C819D8112968C9312978E81CD
:1012B0009F8113968C931397288139814A815B8192
:1012C0006C817D818E819F819295990F990F907C81
:1012D000832F8370982B852F8370880F880F982B0E
:1012E000872F83708295807F982B14969C9385E03E
:1012F00090E0C80ED91E2896EF5F1E1750F6F0FF3B
:1013000021C0888199810E942909F82E8A819B81B8
:101310000E942909182F8C819D810E942909082F7C
:101320008E819F810E942909F294FF0CFF0C70ECC2
:10133000F7221295107F1F29182B000F000F012B89
:10134000D6010C93DF91CF911F910F91FF90DF9009
:10135000CF90089523E08032920718F420E030E027
:1013600026C023E0883E920748F49C012F51334069
:1013700054E0369527955A95E1F719C027E0803D4E
:10138000920720F49C012C5D334011C028E088397D
:10139000920718F02FEF33E00AC09C01285C374019
:1013A00044E0369527954A95E1F72D503C4FC90109
:1013B00008959C013695279525753575821B930BED
:1013C0009C01369527953695279523733373837340
:1013D0009373280F391FC901E4E096958795EA9524
:1013E000E1F7820F931F8F709F7021E031E0AC0115
:1013F000429FC001439F900D529F900D1124892F51
:101400000895882339F042980000419A0000429ADA
:10141000000008954298000041980000429A0000A0
:101420000895429A000086B14298000081700895A4
:101430000F931F93082F5C9A42985C9810E0802FBE
:1014400080780E94010A000F1F5F1830C1F7429890
:101450001F910F9108958F770E94180A08950F9396
:101460001F93082F10E0802F80780E94010A000F40
:101470001F5F1830C1F742981F910F9108950F9385
:101480001F93429880E000E0182F110F0E94110A6C
:10149000810F0F5F0830C1F71F910F9108950E94CF
:1014A0002B0A0E943F0A5C9A08951F93162F8068AA
:1014B0000E94180A812F0E942F0A5C9A1F9108959A
:1014C0001F9310912B041827E2E2F4E0E80FF11DBE
:1014D00089E767850E94550A8DE3612F0E94550AAE
:1014E00082E4612F0E94550A1F91089586E20E94AE
:1014F0004F0A08950F931F938C018CE1F8016481CA
:101500000E94550A8DE1F80165810E94550A8EE11D
:10151000F80166810E94550A80E2F80167810E9405
:10152000550A81E2F80160850E94550A82E2F801BD
:1015300061850E94550A83E2F80162850E94550A7E
:1015400084E2F80163850E94550A85E2F80164850A
:101550000E94550A8AE2F80165850E94550A8EE6C6
:10156000F80166850E94550A8FE6F80167850E949A
:10157000550A80E7F80160890E94550A81E7F80161
:1015800061890E94550A82E7F80162890E94550A22
:101590001F910F910895EF92FF920F931F93CF9396
:1015A000DF937B018C01603028E372072CE982070E
:1015B0002CE1920728F520E836E948E950E00E943E
:1015C0001230E9016897B90180E090E020E839E63F
:1015D00047E65FEF0E94E02F6E0D7F1D801F911F79
:1015E00022E0660F771F881F991F2A95D1F721E700
:1015F00032E040E050E00E941230890180E421C0D6
:1016000020E03DE241E351E00E941230E901689799
:10161000B90180E090E020E033ED4EEC5EEF0E94F7
:10162000E02F6E0D7F1D801F911F660F771F881F93
:10163000991F21E732E040E050E00E94123089011A
:1016400080E69E012F71622F680F85E70E94550A80
:1016500086E7612F0E94550A87E7602F0E94550A8E
:10166000DF91CF911F910F91FF90EF9008959F927E
:10167000AF92BF92CF92DF920F93DF93CF9300D0C0
:1016800000D0CDB7DEB7982E83E00E944F0A80933A
:101690004B0484E00E944F0A80934C0486E060E093
:1016A0000E94550A87E061E00E94550A89E06FE7D1
:1016B0000E94550A8AE065E00E94550A8BE062E1CB
:1016C0000E94550A8CE065E10E94550A8DE06DEF9D
:1016D0000E94550A8EE060E00E94550A992019F098
:1016E00087E793E008C08091490423E1829FC0010D
:1016F0001124885E9C4F0E947A0A80E36CE80E9465
:10170000550A82E36FE00E94550A83E362E40E9477
:10171000550A84E36AE00E94550A85E36AE20E9462
:10172000550A86E36DE20E94550A87E364ED0E9444
:10173000550A88E360E00E94550A89E360E00E9450
:10174000550A992049F055E7A52E51ECB52E51ECDC
:10175000C52E5EEDD52E08C0A0902B04B0902C04B1
:10176000C0902D04D0902E040AE38D2D9927AA272E
:10177000BB2789839A83AB83BC83802F69810E94B6
:10178000550A802F8B5F69810E94550ADC2CCB2C77
:10179000BA2CAA240F5F0E3341F783E46FEF0E9447
:1017A000550A84E46FEF0E94550A85E46FEF0E94AA
:1017B000550A86E46FEF0E94550A992019F08DE6CC
:1017C00066E003C08DE660912F040E94550A89E708
:1017D00060E00E94550A8AE7609130040E94550A31
:1017E00083E760E00E94550A84E760E00E94550AA2
:1017F000992029F060EC72E98DEE99E108C06091C2
:101800002704709128048091290490912A040E9451
:10181000CB0A0F900F900F900F90CF91DF910F9107
:10182000DF90CF90BF90AF909F90089587E061E0E8
:101830000E94550A8EE764E20E94550A88E063E040
:101840000E94550A88E060E00E94550A87E065E042
:101850000E94550A85E062E00E94550A83E00E94DA
:101860004F0A80934B0484E00E944F0A80934C04FB
:101870000895582F4091F004842F90E0FC01EF7000
:10188000F0709F012F5F3F4F64E0959587956A95B3
:10189000E1F72817390751F0E052FB4F5083842FAE
:1018A0008F5F8F70407F842B8093F00408951F9288
:1018B0000F920FB60F9211241F932F933F934F93C4
:1018C0005F936F937F938F939F93AF93BF93CF93C8
:1018D000DF93EF93FF93C0918600D0918700209112
:1018E00032053091330580911105882309F047C0F6
:1018F000CE01821B930B9C018091030487FD02C0E3
:101900003695279599E0253C390708F18091AA037F
:101910008630D0F08091AA038F3FB1F020E00EC056
:10192000E22FF0E0EE0FFF1FDF01AE5EBA4F8D91A8
:101930009C91E657FC4F918380832F5F8091AA038F
:10194000281770F3109210051092AA0318C082E0B5
:101950002D3B380760F18091AA03803140F510914A
:10196000AA03C9010E94AA09E12FF0E0EE0FFF1FB0
:10197000EE5EFA4F918380831F5F1093AA03D0938A
:101980003305C0933205FF91EF91DF91CF91BF9165
:10199000AF919F918F917F916F915F914F913F9107
:1019A0002F911F910F900FBE0F901F9018958FEFE2
:1019B0008093AA03E4CF83E0809380008AE9809338
:1019C00081008091030486FD05C0809181008064C0
:1019D000809381008FEF9FEF909389008093880020
:1019E00080916F00806280936F0008956F3020F0C7
:1019F00086958695805408958DE0689F802D1124EA
:101A00000895882319F460E071E002C063E071E09A
:101A100089E896E00E94832D0895CF92DF92EF929D
:101A2000FF920F931F93CF93DF93182F0E94462AA4
:101A30009B01AC0180917F0590918005A09181056B
:101A4000B091820569017A01C81AD90AEA0AFB0A2B
:101A5000D701C60189589341A040B04010F01092C0
:101A60007E0520937F053093800540938105509338
:101A7000820520911105822F81508230E8F58091F6
:101A80007E05882309F44FC1813011F482E0BCC186
:101A9000803108F035C1E82FF0E0EE5EFA4F108398
:101AA0008F5F80937E05803109F0B0C1A4E1B5E07D
:101AB000213039F41196EC911197E695E6958C91C9
:101AC00009C08D919C911197E92FE695E695E695D1
:101AD00096958795E03140F4F0E090E0EE0FFF1F1F
:101AE000E657FC4F9183808310921005129685E093
:101AF000A232B807E9F68AC1233009F004C1809107
:101B00007E05882321F41F3009F080C10CC1883183
:101B100030F4E82FF0E0EF5EFA4F108374C18831A3
:101B200009F0EEC0112309F0EBC0C0E0D0E00BE0FB
:101B300010E0DE0163E0AA0FBB1F6A95E1F7C09FCA
:101B4000B001C19F700DD09F700D1124FB01EE5E9E
:101B5000FA4F80812181922F977095958795FD018D
:101B6000EE0FFF1FE657FC4F91838083FB01ED5E74
:101B7000FA4F30813695369536952181422F429520
:101B8000440F407E842F832B269526952695922FF1
:101B9000977095958795FD01EE0FFF1FE457FC4F59
:101BA00091838083FB01EC5EFA4F8081829586955C
:101BB000869583704181942F990F990F292F282B97
:101BC000429546954695437082818170880F880FB3
:101BD000382F342B35952795FD01EE0FFF1FE25767
:101BE000FC4F31832083FB01EA5EFA4F308136954A
:101BF0002181422F479544274795842F832B269593
:101C0000922F977095958795FD01EE0FFF1FE05776
:101C1000FC4F91838083FB01E95EFA4F308132955E
:101C20003F702181422F4295407F842F832B229544
:101C30002F70922F977095958795FD01EE0FFF1FDE
:101C4000EE56FC4F91838083FB01E85EFA4F808162
:101C5000881F8827881F4181942F990F292F282BAF
:101C6000441F4427441F82818370880F382F342BF0
:101C700035952795FD01EE0FFF1FEC56FC4F318384
:101C80002083FB01E65EFA4F30813695369521813F
:101C9000422F4295440F440F407C842F832B26957E
:101CA0002695922F977095958795AA0FBB1FFD01DA
:101CB000EA56FC4F91838083655E7A4FFB01208159
:101CC0002295269527704181342F330F330F330F20
:101CD000832F822B942F9295969597709595879543
:101CE000A856BC4F11969C938E932196C230D10575
:101CF00009F01FCF8091280583FD02C010921005C6
:101D000010927E0583C0243009F080C040917E058A
:101D1000442359F4183AB1F41092860510928505BF
:101D200088EA0E94FB0781E06FC0413019F41093EC
:101D3000830504C0423031F410938405812F0E9442
:101D4000FB075DC060918405262F30E0220F331F12
:101D5000E42FF0E0C90102968E179F0734F043325A
:101D600068F7E15FFA4F1083E9CF2D5F3F4F409155
:101D7000850550918605E217F30749F4912F80E01D
:101D800048275927509386054093850538C0812FF1
:101D900090E04817590789F580918305813069F5EE
:101DA000613118F080E180938405D090840542E190
:101DB000E42E45E0F42E00E010E01BC0F701D081D6
:101DC000C0E0818190E08C2B9D2B33E09695879528
:101DD0003A95E1F70E94AA09F801EE0FFF1FE657B6
:101DE000FC4F918380830F5F1F4F82E090E0E80EED
:101DF000F91E0D1518F31092100510927E058091B2
:101E00007E05882319F08F5F80937E05DF91CF9147
:101E10001F910F91FF90EF90DF90CF900895FF9268
:101E20000F931F93CF93DF93182F092FF62E8EE376
:101E30000E94550A212F302FC901EC0110E005C086
:101E40008FE769910E94550A1F5F1F15C8F385E04F
:101E500064E00E94550A83E00E944F0A80934B047D
:101E600084E00E944F0A80934C040E94462A6093AB
:101E70004D0470934E0480934F049093500487E078
:101E800069E00E94550A81E08093FC03DF91CF91C5
:101E90001F910F91FF9008950E940F0F8091FC03F6
:101EA0008130D9F40E94462A20914D0430914E048D
:101EB00040914F0450915004621B730B840B950B9F
:101EC000605A76488140904040F4E8CF89E896E037
:101ED00067E071E00E94832D08958091FC038130BA
:101EE000A9F3089589E896E06EE70E944C2F0895C3
:101EF000BF92CF92DF92EF92FF920F931F93CF93F7
:101F0000DF936C0189E896E06EE70E944C2F760122
:101F100000E010E0C0E0D0E0B0E2BB2E0AC0083024
:101F2000110521F49E012095F60120870894E11CFB
:101F3000F11CF7016081862F8D57823040F489E8CB
:101F400096E06DE70E944C2FF70160816B2589E8D0
:101F500096E00E944C2F0115110551F0F701808188
:101F60009E01280F311DC32FDD27C20FD31FD07054
:101F70000F5F1F4F0930110591F6DF91CF911F912F
:101F80000F91FF90EF90DF90CF90BF900895DF9377
:101F9000CF93CDB7DEB729970FB6F894DEBF0FBE4B
:101FA000CDBF382FE62F8091F50490E0019664E2D2
:101FB00070E00E94FF2F982F8093F50488E98983B1
:101FC00080E18A83913071F0913028F0923099F05D
:101FD0009330E1F416C085E08B8381EF8C832F5F13
:101FE0002D8317C09B8381EF8C8384E6489FC001BB
:101FF00011249D830EC084E08B8381EF8C833D830D
:1020000008C09B8381EF8C83ED8303C00E94720F15
:1020100004C0CE0101960E94780F29960FB6F8945D
:10202000DEBF0FBECDBFCF91DF9108950F931F93F9
:10203000CF93DF93182F092F89E896E06EE70E946F
:102040004C2F212F302FC901EC0110E000E28881D4
:102050008D57823040F489E896E06DE70E944C2F5E
:1020600088818027888389E896E069910E944C2FB7
:102070001F5F193061F789E896E06EE70E944C2FE8
:10208000DF91CF911F910F910895DF93CF93CDB73B
:10209000DEB729970FB6F894DEBF0FBECDBF382F3D
:1020A0008091F504882379F48EEF89833A836B83DA
:1020B000842F90E0959587958C832D8319861886BB
:1020C0001F821E822FC04091F004842F90E09C015B
:1020D0002F70307054E0959587955A95E1F78217E7
:1020E000930721F18DEF89831A821B82DE011496FA
:1020F00020E008C0E052FB4F80818D93405F2F5F4E
:10210000263069F0842F90E0FC0134E0F595E795E6
:102110003A95E1F78F709070E817F90759F74093F7
:10212000F0042A83CE0101960E9416108091F504D6
:1021300090E0019666E070E00E94FF2F8093F50426
:1021400029960FB6F894DEBF0FBECDBFCF91DF91B9
:1021500008959F92AF92BF92CF92DF92EF92FF923B
:102160000F931F93B82EA62ED42EC22E902E0E940F
:10217000462A7B018C018091DF042091F10430918B
:10218000F2044091F3045091F4048823B1F0D80193
:10219000C701821B930BA40BB50B815E9E42A0402E
:1021A000B04020F12C2DDC1408F42D2D8B2D6A2D40
:1021B000422F292D0E94C70F11C0D801C701821BD1
:1021C000930BA40BB50B81539547A040B04070F022
:1021D0008B2D6A2D4D2D2C2D0E944510E092F1047F
:1021E000F092F2040093F3041093F4041F910F9102
:1021F000FF90EF90DF90CF90BF90AF909F900895A9
:1022000089E896E0609152040E944C2F08951F9334
:10221000182F89E896E0612F0E944C2F809152047C
:102220008127809352041F9108951F93192F0E94B4
:102230000711812F0E9407111F910895DF92EF92DD
:10224000FF920F931F93D82E7B011092520409E83E
:1022500016E0C80165EB0E944C2FC80162E60E949F
:102260004C2F8D2D0E940711C7010E9415111F913F
:102270000F91FF90EF90DF9008958EE060E00E9454
:10228000CD2A8FE061E00E94CD2A80E161E00E94CA
:10229000CD2A82E060E00E94CD2A84E061E00E94C5
:1022A000CD2A0895CF93DF93EC01009741F186E0AA
:1022B00061E00E94392B9E0140E050E068E478EE36
:1022C00081E090E00E943430C901DA018F3F91052E
:1022D000A105B10531F028F08FEF90E0A0E0B0E06B
:1022E00008C00097A105B10521F481E090E0A0E0CD
:1022F000B0E08093B3008091B000806107C086E0B9
:1023000060E00E94392B8091B0008F7E8093B000F6
:10231000DF91CF910895AF92BF92CF92DF92EF926B
:10232000FF920F931F93CF93DF938CE00E944F0A8D
:102330008823C9F589E896E063E171E00E94832D66
:10234000439A299A80E00E94370B0E94160C43980A
:10235000299829C080911105882339F089E896E0F1
:102360000E94132F0E940D0D1EC080917C05C82F66
:10237000D0E09E012F5F3F4F2F71307080917B0521
:1023800090E02817390779F089E896E00E94132F2A
:10239000CE5ADA4F888380917C0590E001968F7148
:1023A000907080937C0589E896E00E94D92E892B55
:1023B00089F68091FC03843009F08CC00E94462A83
:1023C00060930005709301058093020590930305C7
:1023D000611571058105910561F481E090E0A0E04F
:1023E000B0E08093000590930105A0930205B0939F
:1023F000030580910C0590910D05816090930D056A
:1024000080930C0583E08093FC038FE70E942B0AE6
:10241000C9E4D5E00E943F0A899305E0C235D007A0
:10242000C9F74091340580914905282F30E0842F69
:1024300090E08227932786FF40C080E4482740939E
:102440003405C90188739070C89709F510E014C06D
:102450001F5F80914A04E12FF0E084FF06C0E75B34
:10246000FA4F80810E94390C07C0E75BFA4F89E878
:1024700096E060810E944C2F212F30E08091490529
:1024800090E0877090708217930714F716C02F732F
:102490003070232B91F480914A058093040580913C
:1024A0004B058093060580914C058093070580912C
:1024B0004F0580930E0510920F0580917D058130A8
:1024C00019F482E080937D0580917D05833011F4BD
:1024D00010927D050E94462A5B016C0180910805DF
:1024E00090910905A0910A05B0910B050097A105EF
:1024F000B105C9F0A6019501281B390B4A0B5B0BEE
:10250000DA01C901885B9B40A040B04060F00E94A6
:10251000760A80930505109208051092090510921D
:102520000A0510920B0582E294E00E94B508209102
:10253000FC043091FD044091FE045091FF0486019B
:102540007501E21AF30A040B150BE616F7060807E5
:10255000190708F4EFC0A092FC04B092FD04C092E9
:10256000FE04D092FF04A89580911005883008F0F1
:10257000D8C0809110058F5F80931005E090000512
:10258000F09001050091020510910305E114F1049A
:102590000105110511F182E294E00E94B508AE1820
:1025A000BF08C00AD10A6A157B058C059D0588F411
:1025B0008091030485FD04C080ED97E00E945211D4
:1025C0001092000510920105109202051092030569
:1025D00004C080E090E00E94521190913405907CFC
:1025E0009093340500917C0510917B050117B1F1A2
:1025F00080917D05823091F590589093340582E268
:1026000094E00E94AB08893010F048E002C0482FE7
:10261000415030E013C03F5FA32FB0E0812F90E026
:10262000FC01EE5AFA4F2081FD01EC5CFA4F208349
:10263000AE58BA4F2C930196182F1F71341710F40F
:10264000101749F710937B05832F895C909134050F
:10265000892B80933405309372051AC020917D0533
:102660002430D1F490917205E3E7F5E0A5E3B5E0FD
:10267000292F30E02E0F3F1F02C081918D93E2176A
:10268000F307D9F7995C80913405982B9093340522
:1026900083E080937D0525C08091F704823031F47A
:1026A000916090933405439A299A10C09093340511
:1026B00043982998222319F481E080937D05809125
:1026C0007D05833019F484E080937D05F894809132
:1026D0004A0487706AE873E045E355E00E943C09CC
:1026E000789485B1846285B98091F6040E94600A6D
:1026F00082E294E00E94AB08682F84E395E00E9498
:102700000F0FE091F604EF5FE093F604E83131F04B
:10271000F0E0EE5DFB4F8785882361F41092F604AC
:1027200009C080911005883011F4439A299A89E0F4
:102730008093100580914A04887171F18091FC03A7
:10274000823051F580910C0590910D05880F991FED
:1027500090930D0580930C0583E08093FC030E9409
:10276000160C0E94462A6093080570930905809311
:102770000A0590930B05611571058105910561F4BA
:1027800081E090E0A0E0B0E0809308059093090517
:10279000A0930A05B0930B0580914A0484FF1EC0E4
:1027A00080910C0590910D058E7F0E94D909182FFC
:1027B0008091040560910E050E94F60C082F80910F
:1027C0000505612F0E94F60C282F80910605609167
:1027D0000705402F0091FD030E94A91085B18B7D54
:1027E00085B98091F7048130C9F0813020F08230C2
:1027F00009F03FC033C087E00E946C2B892BC9F5DC
:1028000081E08093F7040E94382A6093F804709363
:10281000F9048093FA049093FB042BC087E00E9494
:102820006C2B892B21F50E94382A2091F8043091D5
:10283000F9044091FA045091FB04621B730B840B62
:10284000950B695E73408040904098F082E08093E1
:10285000F70480ED97E00E9452110BC087E00E94C0
:102860006C2B892B31F080E090E00E945211109285
:10287000F704DF91CF911F910F91FF90EF90DF90C0
:10288000CF90BF90AF90089586E061E00E94CD2A7E
:1028900086E060E00E94392B82E08093B00085E002
:1028A0008093B10083E061E00E94CD2A83E060E084
:1028B0000E94392B08951F93182F0E94462A609377
:1028C000F1047093F2048093F3049093F404109352
:1028D000DF04112329F440E855E260E070E004C011
:1028E00040E051EE60E070E089E896E00E94522EF0
:1028F0001F910895AF92BF92CF92DF92EF92FF9215
:102900000F931F93DF93CF93CDB7DEB76C970FB6BE
:10291000F894DEBF0FBECDBF0E94462A7B018C011A
:1029200081E00E94370BA4E7AA2E6E010894C11C17
:10293000D11CF3E0BF2EA982C60161E00E944C0FBA
:10294000B092FC030E94160C6AEF70E080E090E009
:102950000E946C2A8091FC03833009F08AC089E8C8
:1029600096E00E94D92E892B09F083C00E94462A46
:102970006E197F09800B910B6058734C894C914004
:1029800008F077C0D8CF8FE70E942B0A0E943F0A39
:10299000843509F05CC089830E943F0A182F00E04B
:1029A0001093DE040093DD040E943F0A080F111DFE
:1029B0001093DE040093DD040E943F0A8093DC0440
:1029C0000E943F0A8093DB04813108F040C0FF245D
:1029D00007C00E943F0A05541B4FF8018083F394FF
:1029E0000F2D10E08091DB0490E0880F991F0817ED
:1029F000190778F380E78983CE01019661E00E9490
:102A00004C0F83E08093FC030E94160C62E370E09D
:102A100080E090E00E946C2A8091FC038330A9F052
:102A20008FE70E942B0A0E943F0A803581F4898338
:102A300007E014E00E943F0AF80181938F01F4E05F
:102A400002321F07B9F781E003C082E001C083E0D2
:102A50006C960FB6F894DEBF0FBECDBFCF91DF915D
:102A60001F910F91FF90EF90DF90CF90BF90AF90AC
:102A700008958091FC03833009F085CFE6CF83E091
:102A80000E944F0A80934B0484E00E944F0A809377
:102A90004C0487E061E00E94550A6AE070E080E043
:102AA00090E00E946C2A0E94160C000008950F937B
:102AB0001F93082F19C0439A299A64E670E080E0BA
:102AC00090E00E946C2A4398299864E670E080E0C8
:102AD00090E00E946C2A1F5F101768F36CE271E0AF
:102AE00080E090E00E946C2A10E0F6CF482F392F4A
:102AF00025E00DC0F999FECF1FBA842F932F92BD08
:102B000081BD60BD0FB6F894FA9AF99A0FBE2150B4
:102B100059F0F999FECF842F932F92BD81BDF89A79
:102B200080B5681739F7089582E00E945715089517
:102B30003F924F925F926F927F928F929F92AF924D
:102B4000BF92CF92DF92EF92FF920F931F93CF939A
:102B5000DF93482E562EEE24FF24C0E0D0E0CC2494
:102B6000DD24AA24BB2436E3332E04C0CC24DD2488
:102B700055245394442069F48091FD03839DE00122
:102B800011242EEFE22E23E0F22E99E0A92EB12C93
:102B90001DC021E0421671F48091FD03839DE00188
:102BA00011242B9682E2E82E84E0F82E09E2A02E72
:102BB000B12C0CC032E0431649F41DEFE12E13E0B6
:102BC000F12EC8EDD0E0B1E0AB2EB12C3E016C0C83
:102BD0007D1C1092860510928505E3011BC05520CF
:102BE00059F4F999FECFD2BDC1BDF89A80B5F7016D
:102BF000E00FF11F808307C0F701E00FF11FCE0146
:102C000060810E9476150E0D1F1DF80180810E94C3
:102C1000FB0721969E012619022F10E00A151B05BD
:102C2000F0F2CE015520D9F4F999FECFD2BDC1BD45
:102C3000F89A20B5F999FECF2196D2BDC1BD219752
:102C4000F89A80B590E0922E8824882999292091BD
:102C50008505309186052817390759F487CF2196C5
:102C6000609186050E947615CE01609185050E94CF
:102C7000761580E091E0C80ED91E91E0C91693E068
:102C8000D90608F477CF852DDF91CF911F910F9151
:102C9000FF90EF90DF90CF90BF90AF909F908F907C
:102CA0007F906F905F904F903F90089581E061E03A
:102CB0000E949815089581E060E00E94981588238D
:102CC00011F490E006C090E080912204863309F46C
:102CD00091E0892F089580E060E00E9498150895A2
:102CE00080E061E00E949815089582E061E00E9412
:102CF0009815089582E060E00E9498158091FD0388
:102D0000843020F01092FD030E94751608951F93E1
:102D1000182F0E947A168091FD03811731F014302C
:102D200020F41093FD030E9475161F9108951092D0
:102D3000B90485E6E4E5F4E0DF011D928A95E9F740
:102D400008951F93182F8F3719F0883009F042C06B
:102D5000E091B904EE2309F45EC0E150E093B904B8
:102D6000F0E0EC5AFB4F108289E896E06DE00E949B
:102D70004C2F10E00DC0E12FF0E0EC5AFB4F6081CA
:102D8000772767FD709589E896E00E944C2F1F5FBA
:102D90008091B904181778F389E896E060E20E9400
:102DA0004C2F89E896E06DE00E944C2F10E00DC09A
:102DB000E12FF0E0EC5AFB4F6081772767FD7095BB
:102DC00089E896E00E944C2F1F5F8091B904181784
:102DD00078F31FC08B3119F40E94971622C08D30F2
:102DE00001F18A30F1F08091B9048436A0F4612FAA
:102DF000772767FD709589E896E00E944C2F8091B7
:102E0000B904E82FF0E0EC5AFB4F10838F5F8093FA
:102E1000B90480E007C089E896E067E00E94E92BEA
:102E2000F8CF81E01F9108951F93CF93DF93C1E303
:102E3000D4E010E03BC089E896E062E271E00E94D5
:102E4000802D89E896E0612F4AE050E00E94F72C3F
:102E500089E896E06FE271E00E94802D699170E050
:102E600080E090E02091300430E040E050E00E94AB
:102E7000E02F20E137E240E050E00E94E02FDC014B
:102E8000CB0140912704509128046091290470914E
:102E90002A04480F591F6A1F7B1F89E896E02AE021
:102EA00030E00E94BE2C1F5F183119F08881882302
:102EB00011F6DF91CF911F910895EF92FF920F933A
:102EC0001F93882339F489E896E068E07AE00E944D
:102ED000072C3BC090E00E94720824E630E040E0FE
:102EE00050E00E941230122F032FF42EE52E622F95
:102EF000732F842F952F2AE030E040E050E00E94AD
:102F0000123089E896E0BA01A9012AE030E00E9477
:102F1000AF2C89E896E06EE20E94E92B612F702FBA
:102F20008F2D9E2D2AE030E040E050E00E941230CC
:102F3000AB01BC0189E896E02AE030E00E94AF2CAA
:102F400089E896E063E70E941B2C1F910F91FF9088
:102F5000EF900895FF920F931F93CF93DF9389E82B
:102F600096E06EEF79E00E94C62B809107048130D5
:102F700041F489E896E065EE79E00E94072CFF2491
:102F800066C0823029F489E896E06EEC79E0F5CFEE
:102F90008430A9F789E896E06AEB79E0EECFCF2D8F
:102FA000D0E0C930D1051CF06F2D685C02C06F2DD8
:102FB0006F5C89E896E00E94E92B89E896E062EB75
:102FC00079E00E94C62BBE016F5F7F4F89E896E0D3
:102FD0004AE050E00E94592D89E896E067EA79E0DE
:102FE0000E94C62B8E01095F1B4FD8011196EC91F0
:102FF000E032F8F489E896E06AE979E00E94C62BAD
:10300000F8018181803130F089E896E063E371E076
:103010000E94802DC95FDB4F698170E06F70707016
:103020006F5F7F4F89E896E04AE050E00E946C2D88
:103030000DC0F0E0EF70F070EE0FFF1FE555FC4F94
:103040006081718189E896E00E94832DF3948091DC
:10305000DC04F81608F4A3CF89E896E06FE779E07E
:103060000E94C62B80911F040E945D1789E896E09C
:1030700064E679E00E94C62B809120040E945D17CF
:1030800089E896E069E479E00E94C62B80912104EA
:103090000E945D1789E896E06EE279E00E94C62BF7
:1030A00040911704509118046091190470911A040A
:1030B000411551056105710539F189E896E02AE06D
:1030C00030E00E94BE2C89E896E06BEF78E00E9429
:1030D000C62B80911B040E94A508AB01BC0189E8A6
:1030E00096E02AE030E00E94BE2C89E896E067ED89
:1030F00078E00E94C62B89E896E060911C044AE0C3
:1031000050E00E94092D06C089E896E06EEC78E058
:103110000E94072C89E896E061EB78E00E94C62BBC
:1031200060911D0470911E0489E896E04AE050E029
:103130000E94E32C89E896E064E978E00E94C62BBF
:1031400060911604603150F470E06F5F7F4F89E842
:1031500096E04AE050E00E946C2D06C089E896E0B7
:103160006BE878E00E94072C89E896E06EE678E04C
:103170000E94C62B8091150480FD03C065E371E0B9
:1031800002C069E371E089E896E00E94832D89E836
:1031900096E061E578E00E94C62B8091150482706C
:1031A0000E94010D89E896E062E378E00E94C62B58
:1031B0008091150484700E94010D89E896E063E116
:1031C00078E00E94C62B8091150488700E94010D42
:1031D000DF91CF911F910F91FF9008951F93CF938F
:1031E000DF9389E896E062E57BE00E94C62B409180
:1031F0002704509128046091290470912A0489E8D9
:1032000096E02AE030E00E94BE2C89E896E06CE36C
:103210007BE00E94C62B40912B0450912C046091BE
:103220002D0470912E0489E896E020E130E00E94A0
:10323000BE2C89E896E066E27BE00E94C62B89E816
:1032400096E060912F044AE050E00E94092D89E841
:1032500096E060E17BE00E94C62B89E896E06091F1
:1032600030044AE050E00E94092D89E896E06AEFB8
:103270007AE00E94C62BC1E3D4E010E012C0112313
:1032800031F089E896E06DE371E00E94802D89E8D5
:1032900096E069914AE050E00E94F72C1F5F1831D8
:1032A00019F08881882359F789E896E00E94F12B6C
:1032B00089E896E064EE7AE00E94C62B89E896E001
:1032C000609149044AE050E00E94092D89E896E0A7
:1032D0006FEC7AE00E94C62BE0914A04F0E0E770C0
:1032E000F070EE0FFF1FE553FC4F6081718189E89C
:1032F00096E00E94832D89E896E06AEB7AE00E94CE
:10330000C62B80914A0490E08871907088309105B6
:1033100089F0893091051CF4892B39F01BC080316C
:10332000910569F04897B1F40FC089E896E061EB28
:103330007AE00EC089E896E065EA7AE009C089E89B
:1033400096E06FE97AE004C089E896E065E97AE002
:103350000E94072C89E896E061E87AE00E94C62B7B
:103360004091230450912404609125047091260417
:1033700089E896E02AE030E00E94BE2C89E896E0D9
:1033800068E67AE00E94C62B80914A0480720E940F
:10339000010D89E896E06FE47AE00E94C62B8091E7
:1033A0004A0480740E94010D89E896E066E37AE0A1
:1033B0000E94C62B80914A0480780E94010D89E802
:1033C00096E069E17AE00E94C62B82E294E00E94D6
:1033D000B508AB01BC0189E896E02AE030E00E9424
:1033E000AF2C89E896E064E17AE00E94C62B82E285
:1033F00094E00E94B5089B01AC0160E472E48FE0A8
:1034000090E00E94123089E896E0BA01A9012AE012
:1034100030E00E94AF2C89E896E061E17AE00E94FA
:10342000072CDF91CF911F910895EF92FF920F9398
:103430001F938C0179E8E72E76E0F72EC701612F04
:1034400070E04AE050E00E94D22CC7016EE20E9478
:10345000E92B64E0169507956A95E1F70F701070F7
:10346000C701B8014AE050E00E94D22C1F910F9191
:10347000FF90EF9008950F931F93CF93DF932091C8
:1034800053042F3FA9F589E896E063E975E00E94AF
:10349000C62B80E693E00E94151A89E896E062E761
:1034A00075E00E94C62B8091DD049091DE040E949D
:1034B000151A89E896E06FE375E00E94072C89E809
:1034C00096E06CE175E00E94072C89E896E064E0E4
:1034D00075E00E94072C89E896E06FED74E00E9489
:1034E000072C89E896E00E94F12B0E94AA1769C078
:1034F00012160CF066C0332727FD30958091DC044E
:1035000090E0821793070CF45CC089E896E06AECBF
:1035100074E00E94C62B60915304772767FD709575
:1035200089E896E04AE050E00E946C2D89E896E038
:103530006FE974E00E94C62B08E210E03AC0C12F88
:10354000D0E0CC0FDD1FC554DB4F288130E08091E7
:103550005304992787FD909501972817390741F55E
:1035600089E896E06FE371E00E94802D89E896E09B
:10357000602F4AE050E00E94F72C89E896E063E46F
:1035800071E00E94802DE981F0E0EF70F070EE0FA5
:10359000FF1FE555FC4F6081718189E896E00E942C
:1035A000802D89E896E067E471E00E94802D0F5F2E
:1035B0001F5F8091DB04181710F289E896E00E94E3
:1035C000F12BDF91CF911F910F910895CF92DF9250
:1035D000EF92FF920F931F93DF93CF93CDB7DEB798
:1035E0006C970FB6F894DEBF0FBECDBF282F809129
:1035F00053048F3F09F050C1822F992787FD909582
:10360000A92FB92FFC013A97EF36F10508F03DC11B
:10361000EC5CFF4FEE0FFF1F0590F491E02D099435
:1036200089E896E069E471E0B4C089E896E069E46D
:1036300071E00E94832D22C189E896E065E571E082
:103640000E94832D85E78983DE011296E7E0F4E08E
:103650008BE101900D928150E1F7CE0101966CE172
:103660000E944C0F0E94160C83E08093FC0368ECD0
:1036700070E080E090E00E946C2A8091FC0384302E
:1036800009F003C18FE70E942B0A0E943F0A898339
:10369000853509F0FAC089E896E061E874E00E9497
:1036A000072C89E896E063E674E00E94072C89E81D
:1036B00096E065E474E0B2C089E896E06DE671E0FA
:1036C0000E94832D89E68983CE01019661E00E94E4
:1036D0004C0F0E94160C83E08093FC0368EC70E0B2
:1036E00080E090E00E946C2A8091FC03843009F015
:1036F000CCC08FE70E942B0A0E943F0A89838E016B
:103700000E5F1F4F2DE1E22EF12CEC0EFD1E0E94EC
:103710003F0AD8018D938D01AE15BF05C1F7A7E013
:10372000B4E0FE0132968BE101900D928150E1F7F9
:103730008981893409F0A9C089E896E067E274E0DC
:103740000E94072C89E896E069E074E00E94072C4B
:1037500089E896E06BEE73E061C089E896E067E87F
:1037600071E00E94832D8EEF809353048EC020520F
:103770002750422F4053242F332727FD3095809127
:10378000DC0490E0821793073CF489E896E066E950
:1037900071E00E94832D79C0409353046FC084E18F
:1037A0008093530489E896E064EB73E037C085E1C9
:1037B0008093530489E896E06DE773E02FC086E1BB
:1037C0008093530489E896E066E473E027C087E1BC
:1037D0008093530489E896E06CEF72E01FC088E1A3
:1037E0008093530489E896E06BEE72E017C089E19C
:1037F0008093530489E896E067ED72E00FC08AE198
:103800008093530489E896E062EC72E007C08BE194
:103810008093530489E896E06AE972E00E94072CDD
:1038200034C089E896E060E872E00E94072C80913D
:10383000150491E01DC089E896E06AE672E00E94F6
:10384000072C8091150492E013C089E896E065E5A5
:1038500072E00E94072C8091150494E009C089E869
:1038600096E06AE372E00E94072C8091150498E0CC
:103870008927809315048FEF809353040E943B1A8D
:1038800004C089E896E00E94132F89E896E00E9420
:10389000D92E892BB1F776C1822F0E94A1168823D9
:1038A00009F470C18091B904882321F48FEF8093CB
:1038B000530460C184E594E060E070E040E050E0D3
:1038C0000E946D069B01AC0190915304963109F45E
:1038D0007CC0973164F4943109F463C095310CF0E5
:1038E0006AC0892F81508D3008F034C113C09931DE
:1038F00009F4E5C09A313CF4973109F470C098316D
:1039000009F028C1D2C09A3109F4E7C09B3109F00F
:1039100021C1F4C0E92FFF27E7FDF0958091DC0479
:1039200090E08E179F070CF415C1DA01C9010197C9
:10393000A109B1098097A105B10548F098E2F92ED7
:1039400000E010E06F010894C108D10825C0E95FCC
:10395000FB4F822F81508083E5C0612F70E0660F9E
:10396000771F65547B4FFB01808190E08C159D058E
:1039700091F48F2D90E0A0E0B0E082179307A407A8
:10398000B50741F4F601E95FFB4FDB0111968C911D
:10399000818301E0F3941F5F8091DB041817E8F244
:1039A000BFC02F3F31054105510511F008F0D2C0CD
:1039B00020931F04B7C02F3F31054105510511F079
:1039C00008F0C8C020932004ADC02F3F3105410549
:1039D000510511F008F0BEC020932104A3C08091CE
:1039E00054048062803719F585E594E060E070E06A
:1039F00040E050E00E946D069B01AC01DC01CB0170
:103A00000197A109B1090897A105B10508F0B5C052
:103A1000CA01B90124ED30E340E050E00E94E02FFC
:103A20009B01AC012A5E3C4A4A46554E24C086366C
:103A300011F585E594E060E070E040E050E00E9420
:103A40006D069B01AC01DC01CB010197A109B10915
:103A50000797A105B10508F090C0CA01B90128EA8D
:103A600031E640E050E00E94E02F9B01AC01245E73
:103A70003C434E46544E211531054105510561F038
:103A8000DA01C9018054914EAD49B8418158904F37
:103A9000AA4FB24008F05EC0209317043093180478
:103AA0004093190450931A043DC02F3F310541053E
:103AB000510511F008F04EC020931B0433C0DA0109
:103AC000C9010197A109B1098F3F9105A105B10570
:103AD00008F040C020931C0425C0DA01C901845CB1
:103AE0009940A040B0408D549D41A040B04030F47A
:103AF00030931E0420931D0401E001C000E0211555
:103B000031054105510511F48FEF07C02131310511
:103B10004105510528F4822F81508093160402C07C
:103B20000023C1F08091BA048823D1F480912B0442
:103B300090912C04A0912D04B0912E040196A11D0A
:103B4000B11D80932B0490932C04A0932D04B0936B
:103B50002E0406C089E896E068EA71E00E94832D91
:103B60000E9497168FEF8093530489E896E06AE0ED
:103B70000E941B2C0E943B1A05C021E030E040E06F
:103B800050E07ECF6C960FB6F894DEBF0FBECDBF6F
:103B9000CF91DF911F910F91FF90EF90DF90CF9029
:103BA000089589E896E06EEE71E00E94072C89E89E
:103BB00096E066ED71E00E94072C89E896E00E948D
:103BC000D92E892B31F089E896E00E94132F0E94AC
:103BD000E61A0E947A14823019F0833069F405C025
:103BE00089E896E068EB71E004C089E896E061EA54
:103BF00071E00E94072C08958FEF80935304109278
:103C0000BA040E943B1A0CC089E896E00E94D92EA3
:103C1000892B31F089E896E00E94132F0E94E61A62
:103C2000809153048E3F81F708958091530484302E
:103C300009F46FC0853084F4813009F45BC08230B0
:103C400024F48F3F09F085C014C0823009F457C0B6
:103C5000833009F07EC058C0863009F464C08630D5
:103C60000CF45CC0873009F463C0893009F071C07E
:103C70006AC089E896E066E078E00E94072C80E65A
:103C800093E00E94151A89E896E06EEE77E00E94B4
:103C9000072C89E896E069EC77E00E94072C89E818
:103CA00096E06FE977E00E94072C89E896E06EE7DE
:103CB00077E00E94072C89E896E061E577E00E94B2
:103CC000072C89E896E06BE277E00E94072C89E8F0
:103CD00096E067E077E00E94072C89E896E060EEC6
:103CE00076E00E94072C89E896E00E94F12B0E9462
:103CF000EE182FC089E896E063EC76E028C089E8EA
:103D000096E06EE976E023C089E896E069E876E01F
:103D10001EC089E896E06AE676E019C089E896E078
:103D200066E276E014C089E896E061E176E00FC0D3
:103D300089E896E06CEF75E00E94072C89E896E030
:103D400066EB75E004C089E896E060EA75E00E94E1
:103D5000072C6AE070E080E090E00E946C2A04C0CA
:103D600089E896E00E94132F89E896E00E94D92EF8
:103D7000892BB1F708952F923F924F925F926F92E5
:103D80007F928F929F92AF92BF92CF92DF92EF92EB
:103D9000FF920F93DF93CF93CDB7DEB7A8970FB6FF
:103DA000F894DEBF0FBECDBF7E010894E11CF11C6C
:103DB00080E1D7011D928A95E9F789E896E066ECE3
:103DC00071E00E94832D0E943F1520E431EE4DE901
:103DD00058E129A33AA34BA35CA380EC91EDA8E999
:103DE000BBE18D8F9E8FAF8FB8A324EF31E040E011
:103DF00050E0298F3A8F4B8F5C8F40E5842E43EC47
:103E0000942EA12CB12C80E491EEADE9B8E18D8B1C
:103E10009E8BAF8BB88F44245524320100E02224BE
:103E20003324198A1A8A1B8A1C8A0DC189E896E0F4
:103E30000E94132F8434C9F0853434F48332C9F1DD
:103E40008C3209F0CEC046C0833509F0CAC029A122
:103E50003AA14BA15CA1C901DA018D8B9E8BAF8B7E
:103E6000B88F442455243201EEC089E896E064E41A
:103E70000E94E92B89E896E040E451EE6DE978E193
:103E80002AE030E00E941D2D89E896E06CE20E9455
:103E9000E92B89E896E040EC51ED68E97BE12AE006
:103EA00030E00E941D2D89E896E06CE20E941B2CF8
:103EB000CAC019821A821B821C821D821E821F8226
:103EC000188619861A861B861C861D861E861F86E6
:103ED000188A3CC00F5F043009F0B5C069817A814F
:103EE0008B819C8128EE33E040E050E00E94E02F7F
:103EF00069A37AA38BA39CA36D817E818F81988512
:103F00000E94E02F6D8F7E8F8F8F98A329853A8531
:103F10004B855C85298F3A8F4B8F5C8F6D857E85B5
:103F20008F85988928EE33E040E050E00E94E02F32
:103F30004B015C0160323EE4730730E0830730E000
:103F4000930730F48CE162E30E94550A00E07BC0E5
:103F5000603345E7740740E0840740E0940718F4B5
:103F60008CE162E2F1CF60345CE9750750E08507CF
:103F700050E0950718F48CE166E2E6CF80E58816FC
:103F800083EC980680E0A80680E0B80618F48CE17F
:103F900062E1DACF90E689169AEE990690E0A906DA
:103FA00090E0B90618F48CE165E1CECFA0E78A165F
:103FB000A1E19A06A1E0AA06A0E0BA0618F48CE1F5
:103FC00061E0C2CFB0EA8B16B6E89B06B1E0AB0663
:103FD000B0E0BB0618F48CE163E0B6CF8CE165E09D
:103FE000B3CF80538A3078F5C02EDD24CC0CDD1C95
:103FF000CC0CDD1CE1E0F0E0EC0FFD1FCE0EDF1E6F
:10400000282F332727FD3095432F532F2DA33EA371
:104010004FA358A7D6016D917D918D919C912AE077
:1040200030E040E050E00E94E02F2DA13EA14FA1E2
:1040300058A5260F371F481F591FD6012D933D93B2
:104040004D935C93139789E896E00E94D92E892BB3
:1040500009F0ECCE411451046104710499F46D89A6
:104060007E898F89988D0E94CB0A61E070E080E0A4
:1040700090E00E946C2A22242A943324198A1A8AF6
:104080001B8A1C8A298D3A8D4B8D5C8D42165306F6
:1040900064067506D0F40E94760A29893A894B890C
:1040A0005C89280F311D411D511D298B3A8B4B8B8B
:1040B0005C8B381608F4382E821508F4282E0894E4
:1040C000411C511C611C711C64C06D897E898F89E3
:1040D000988D28EE33E040E050E00E94123089E8ED
:1040E00096E0BA01A9012AE030E00E94AF2C89E8ED
:1040F00096E06CE20E94E92B89E896E0632D4AE0A5
:1041000050E00E94F72C89E896E06CE20E94E92BCF
:1041100069897A898B899C89A30192010E94123056
:1041200089E896E0BA01A9012AE030E00E94AF2CAC
:1041300089E896E06CE20E94E92B89E896E0622D1E
:104140004AE050E00E94F72C89E896E06CE20E9479
:104150001B2C8D899E89AF89B88D880D991DAA1D4C
:10416000BB1D8D8B9E8BAF8BB88F2D8D3E8D4F8D54
:1041700058A1281739074A075B0740F489A19AA17B
:10418000ABA1BCA18D8B9E8BAF8BB88F44245524E3
:10419000320129A13AA14BA15CA1285E33404040E5
:1041A000504009F050CFA8960FB6F894DEBF0FBE6E
:1041B000CDBFCF91DF910F91FF90EF90DF90CF9027
:1041C000BF90AF909F908F907F906F905F904F9037
:1041D0003F902F900895EF92FF920F931F93DF93DC
:1041E000CF93CDB7DEB7CA55D0400FB6F894DEBF37
:1041F0000FBECDBF8B017A018A3009F4EDC08B3040
:1042000010F5853009F47EC0863080F4823009F4E0
:1042100053C0833020F4813009F019C23CC0833090
:1042200009F45BC0843009F012C25FC0873009F422
:104230008FC0873008F482C0883009F491C089307B
:1042400009F005C295C0893609F442C18A3680F466
:10425000863609F4EDC0873620F4853609F0F7C1BB
:10426000CEC0873609F4FDC0883609F0F0C101C11F
:104270008C3609F493C18D3638F48A3609F433C18B
:104280008B3609F0E4C16FC18D3609F4BBC1873CA0
:1042900009F0DDC1CFC181E069E270E00E941E112A
:1042A00002E214E0F80181918F010E940711F4E00D
:1042B0000B341F07B9F7D3C182E06BE170E00E94B5
:1042C0001E1107E014E0F80181918F010E9407118F
:1042D000F4E002321F07B9F7C2C183E061E070E089
:1042E0000E941E110E947A14B8C184E061E070E05F
:1042F0000E941E1181E00E9407110E9400110E947D
:10430000BB1EAFC16091DB0470E0660F771F85E0D4
:104310000E941E1100E010E008C0F801E554FB4FB8
:1043200080810E9407110F5F1F4F8091DB0490E096
:10433000880F991F0817190780F391C186E062E082
:1043400070E00E941E1180E693E00E94151187C163
:1043500087E061E070E00E941E118091DC047DC165
:1043600088E061E070E00E941E118091FD0375C13C
:1043700086E68983CE01019661E00E944C0F0E947F
:10438000160C83E08093FC0368EC70E080E090E022
:104390000E946C2A8091FC038430E1F48FE70E9434
:1043A0002B0A0E943F0A8983863471F489E060E217
:1043B00070E00E941E1110E00E943F0A0E94071147
:1043C0001F5F1032C9F74BC189E061E070E00E94C5
:1043D0001E1187C089E03CC18AE069E070E00E945C
:1043E0001E111092FE030EEF13E0F80181918F0170
:1043F0000E940711F4E007301F07B9F730C185E6C6
:1044000061E070E00E941E110932110509F024C11B
:1044100020E030E0F901EE5DFB4FD701A20FB31FA2
:104420008C9180832F5F3F4F2932310599F759C016
:1044300086E661E070E00E941E110B31110509F063
:104440000BC120E030E0F901E95FFB4FD701A20F7B
:10445000B31F8C9180832F5F3F4F2B31310599F72C
:1044600040C087E661E070E00E941E110E9456166F
:1044700092C088E661E070E00E941E1185E78A83A1
:10448000DE011396E7E0F4E08BE101900D9281509C
:10449000E1F7CE0102966CE10E944C0F0E94160CCF
:1044A00083E08093FC0360E273E080E090E00E9490
:1044B0006C2A8091FC03843009F0CEC08FE70E9403
:1044C0002B0A0E943F0A8A83853509F0C5C009C0BE
:1044D00089E661E070E00E941E110E942D080E9492
:1044E000180881E0BAC08AE661E070E00E941E11FF
:1044F00089E68E8FCE014E9661E00E944C0F0E949D
:10450000160C83E08093FC0360E273E080E090E0AF
:104510000E946C2A8091FC03843009F09DC08FE7D3
:104520000E942B0A0E943F0A8E8F8E01015E1F4F50
:104530005AE3E52EF12CEC0EFD1E0E943F0AF80115
:1045400081938F01EE15FF05C1F7A7E0B4E0FE01EE
:104550007F968BE101900D928150E1F78E8D893429
:1045600009F07AC0BECF8BE661E070E00E941E11B8
:10457000F70180810E9487160E945B16882329F02C
:104580000E946B16882309F0ACCF0E942D080E9470
:1045900056160E9418080E947016A3CF8CE661E0A0
:1045A00070E00E941E110032110571F487E68AAF97
:1045B000DE01DB96F70180E201900D928150E1F778
:1045C000CE01CA9661E205C087E48AAFCE01CA96E1
:1045D00061E00E944C0F0E94160C83E08093FC0364
:1045E0006CE474E080E090E00E946C2A8091FC030F
:1045F000843091F58FE70E942B0A0E943F0A87348E
:1046000059F56FCF8DE661E070E00E941E11093010
:10461000110511F520E030E0F901E250FC4FD7011F
:10462000A20FB31F8C9180832F5F3F4F293031053C
:1046300099F757CF87EC61E070E00E941E1181E08E
:104640000E9407110E940011109251040AC08AECC6
:1046500061E070E00E941E1180E00E9407110E943C
:104660000011C65ADF4F0FB6F894DEBF0FBECDBFA4
:10467000CF91DF911F910F91FF90EF900895AF922E
:10468000BF92CF92DF92EF92FF920F931F93CF933F
:10469000DF9384E0A82E06E0B02E15E0C12E07E8D7
:1046A00015E0B4E6DB2EA2E0EA2EF3E0FF2EA1C077
:1046B00089E896E00E94132F982F8093F20580914D
:1046C000F105833021F1843028F4813099F0823073
:1046D000B8F409C0853009F448C0853020F186302F
:1046E00009F087C05FC0953B09F083C081E08093EB
:1046F000F1057FC0923609F07AC0E092F10579C0E9
:104700009093F0059093EF05F092F10572C09093AD
:10471000ED051092EE058091EF0589278093EF0556
:10472000A092F10566C0D92FC0E02091ED0530912F
:10473000EE052C2B3D2B3093EE052093ED0580915B
:10474000EF0589278093EF05C092F10525363105E5
:1047500008F44FC08CEC61E070E00E941E1181E013
:104760000E9407110E94001142C02091EB05309178
:10477000EC05F901E957FA4F90838091EF058927FD
:104780008093EF052F5F3F4F3093EC052093EB05AF
:104790008091ED059091EE052817390750F1B09200
:1047A000F10527C08091EF05891759F46091EB0559
:1047B0007091EC058091F00547E855E00E94EB20F0
:1047C0000DC08BEC62E070E00E941E118091F0053C
:1047D0000E940711809152040E940711F8018D2D4B
:1047E00011928A95E9F71092EC051092EB05109260
:1047F000F10589E896E00E94D92E892B09F058CF5F
:10480000DF91CF911F910F91FF90EF90DF90CF90AC
:10481000BF90AF90089581E08093510408C089E86B
:1048200096E00E94D92E892B11F00E943F2380919F
:1048300051048823A1F70895DF92EF92FF920F931E
:104840001F93CF93DF930E94462A6115710581055E
:104850009105C9F30E94640610922B0410922C0457
:1048600010922D0410922E04DD24E0902B04F09081
:104870002C0400912D0410912E04102F0F2DFE2CCE
:10488000EE240E945F062FEF30E040E050E00E94EF
:104890003430E60EF71E081F191FE0922B04F09229
:1048A0002C0400932D0410932E04D39444E0D416CA
:1048B000E1F6C1E3D4E000E010E090E1E92E97E2F8
:1048C000F92E4EC00F5F19F40E942D084DC00E94B2
:1048D0005F0622E330E040E050E00E9434306F5F3A
:1048E000E1E3F4E090E004C08191861759F39F5F03
:1048F0009117D0F38091300490E08E9D90018F9DB0
:10490000300D9E9D300D1124862F90E0AC01249F28
:10491000C001259F900D349F900D1124AA2797FD6B
:10492000A095BA2F209127043091280440912904A2
:1049300050912A04820F931FA41FB51F2091FF03DB
:104940003091000440910104509102042817390766
:104950004A075B0708F4B6CF69931F5F183121F04F
:104960008881882309F0AECFDF91CF911F910F91FD
:10497000FF90EF90DF9008951F93109153041F3F15
:1049800009F0BFC0893409F466C08A342CF5883335
:1049900009F476C089336CF4803309F481C0813323
:1049A0000CF06CC08B3109F44CC0813209F0A3C00B
:1049B0003CC0813409F483C082343CF4893309F467
:1049C0006DC0803409F097C030C0823409F482C0D1
:1049D000863409F090C04FC0823609F47BC083361C
:1049E0008CF4883571F1893534F48235E9F18335F9
:1049F00009F081C01FC08A3509F478C0813609F0FA
:104A00007AC05DC0823781F1833734F4863699F1FC
:104A1000893609F070C01FC0883799F08A3709F4C9
:104A200065C0833709F067C005C089E896E069E48E
:104A300071E017C00E94561689E896E063ED71E0B8
:104A400006C00E945B1689E896E06DEE71E00E9458
:104A5000832D8EEF4EC00E942D0889E896E06CE011
:104A600072E00E94832D47C00E941C2489E896E0D2
:104A700065E272E0F6CF0E9414173DC0805339C042
:104A800089E896E06EE871E00E94072C90914A0454
:104A9000892F885F8871977E892B0CC089E029C097
:104AA00089E896E06BE771E00E94072C80914A0448
:104AB00090E2892780934A04109353041CC089E82C
:104AC00096E065E671E00E94072C80914A0490E42C
:104AD000892709C089E896E064E571E00E94072C07
:104AE00080914A04805880934A0402C00E94D11DDC
:104AF0008FEF80935304809153048E3F09F4E8C0F4
:104B0000DFC00E94A116882309F4E2C08091B90495
:104B1000882321F48FEF80935304D2C084E594E07E
:104B200060E070E040E050E00E946D069B01AC0147
:104B300080915304843009F441C0853044F48230BC
:104B400041F1833094F5813009F096C00DC0863074
:104B500009F467C086300CF43EC0873009F469C0A0
:104B6000893009F089C075C0DA01C9018154914EBC
:104B7000AD49B8418F57904FAA4FB24008F07CC062
:104B800020932704309328044093290450932A0447
:104B90009AC020932B0430932C0440932D045093FF
:104BA0002E0481E08093BA048EC02830310541057F
:104BB000510508F061C020932F0485C0DA01C901B6
:104BC0000197A109B1090A97A105B10508F054C0E0
:104BD0002093300478C084E594E06DE371E00E9496
:104BE000890710E00EC0183130F4E12FF0E0EE5DDF
:104BF000FB4F87871F5F80E090E06DE371E00E94CC
:104C00008907009759F00E946B07009761F706C06B
:104C1000E12FF0E0EE5DFB4F17861F5F1831C0F308
:104C200052C0253031054105510530F52093490426
:104C30004AC0DA01C9010197A109B1090697A10586
:104C4000B105D0F480914A04887F822B80934A0476
:104C50003AC0DA01C9010197A109B1098050924C0B
:104C6000A140B04048F4209323043093240440939F
:104C700025045093260427C089E896E068EA71E08D
:104C80000E94832D13C080912B0490912C04A0913D
:104C90002D04B0912E040196A11DB11D80932B040B
:104CA00090932C04A0932D04B0932E040E94971689
:104CB0008FEF8093530489E896E06AE00E941B2CF2
:104CC0000E94151E05C08091BA048823E1F2EECF40
:104CD0001F9108958FEF809353041092BA040E949D
:104CE000151E0CC089E896E00E94D92E892B31F060
:104CF00089E896E00E94132F0E94BC2480915304FF
:104D00008E3F81F76AE070E080E090E00E946C2ABC
:104D100004C089E896E00E94132F89E896E00E947B
:104D2000D92E892BB1F708957F928F929F92AF92DF
:104D3000BF92CF92DF92EF92FF920F931F93DF9378
:104D4000CF93CDB7DEB7AA970FB6F894DEBF0FBEEC
:104D5000CDBF0E94382A7B018C0181E00E94370B75
:104D600004C089E896E00E94132F89E896E00E942B
:104D7000D92E892BB1F743982998DD24D39452E694
:104D8000752E42E0842E912C8C0E9D1E5E0108949F
:104D9000A11CB11C33E0C32E0E94382A20E030E071
:104DA0006E197F09800B910B693C71058105910596
:104DB00010F021E030E08D2D90E028233923232BC3
:104DC000B9F10E94382A7B018C0185B1846285B9D2
:104DD00080ED97E00E9452117982D401E2E2F4E082
:104DE00089E201900D928150E1F7C5016AE20E94CB
:104DF0004C0F85B18B7D85B980E090E00E94521107
:104E0000C092FC030E94160C62E370E080E090E028
:104E10000E946C2A8091FC03843051F4C092FC0300
:104E20008FE70E942B0A0E943F0A823409F4DD2496
:104E300087E00E946C2B892B79F5DD24D3942CC05C
:104E4000439A299A85B1846285B989E896E00E94DF
:104E5000132F8D30910569F08E3091051CF40A975F
:104E6000B1F407C08332910569F08234910579F479
:104E70000CC089E896E066E471E00E94072C0E946D
:104E80006A2605C00E94BB1E02C00E940B244398E4
:104E9000299885B18B7D85B989E896E00E94D92E45
:104EA000892B09F479CFCCCF8F929F92AF92BF928A
:104EB000CF92DF92EF92FF920F931F9387E00E94B1
:104EC0006C2B892B09F0B4C068EC70E080E090E0B6
:104ED0000E946C2A80E090E00E9452110E94382AC1
:104EE0005B016C0160ECE62E62E1F62E012D112DC6
:104EF000EA0CFB1C0C1D1D1D06C087E00E946C2BDC
:104F0000892B09F07EC00E94382A6E157F05800724
:104F1000910798F387E00E946C2B892B09F071C0F0
:104F200080ED97E00E9452110E94382A7B018C018B
:104F300099249394882488E496E2A0E0B0E0A80E37
:104F4000B91ECA1EDB1E29C0AE14BF04C006D1069E
:104F500038F480ED97E00E945211882483941DC09C
:104F60000E94382A6E197F09800B910B693C7105EC
:104F70008105910590F00E94382A7B018C0180E028
:104F8000992009F481E0982E882319F480E090E0BC
:104F900002C080ED97E00E94521187E00E946C2BC6
:104FA000892B91F280E090E00E945211882019F143
:104FB0008091FD038F5F83700E94871689E896E0D9
:104FC00062E472E00E94802D89E896E06091FD0322
:104FD0004AE050E00E94092D0E945B168823D1F020
:104FE0000E946B168823B1F089E896E06FE472E0C6
:104FF0000E94832D1DC00E941C240E9456160E94F0
:10500000EE1889E896E06CE672E00E94832D0E941B
:1050100094260EC089E896E063E872E00E94802D35
:105020000E942D080E9456160E9418080E947016B1
:105030001F910F91FF90EF90DF90CF90BF90AF90B6
:105040009F908F90089580E068EC77E042E050E018
:105050000E9473290895EF92FF920F931F9380E0AF
:105060000E94E4070E943D1181E161E00E94CD2A87
:105070008DE061E00E94CD2A89E061E00E94CD2AA6
:105080008AE061E00E94CD2A87E060E00E94CD2A9C
:1050900088E060E00E94CD2A88E061E00E94392B20
:1050A0000E94441489E896E040E052EC61E070E030
:1050B0000E94522E0E947A160E945B16882309F4E1
:1050C000F8C00E946B16882309F4F3C089E896E0C3
:1050D0006FE472E00E94832D0E94DB0C8FEF8093BF
:1050E00010050E94232878940E94382A7B018C01A5
:1050F000809110058F3F09F0EBC00E94382A6E198D
:105100007F09800B910B605D77408040904008F0F4
:10511000DFC0EECF89E896E00E94132F89E896E081
:105120000E94D92E892BB1F789E896E065EA72E0F2
:105130000E94802D80E693E00E94151A89E896E08F
:105140006CEB72E00E94802D89E896E063E070E0ED
:105150004AE050E00E946C2D68EC70E080E090E046
:105160000E946C2A89E896E00E94D92E04970CF1DF
:1051700089E896E00E94132F82349105D1F489E8E2
:1051800096E00E94132F8E34910599F489E896E0F9
:105190000E94132F8434910561F489E896E00E94FF
:1051A000132F819731F480E090E00E9452110E9409
:1051B0009426409123045091240460912504709119
:1051C0002604DB01CA010197A109B1090497A105D1
:1051D000B10568F440931105433029F040E052ECEA
:1051E00061E070E004C040EA56E861E070E089E800
:1051F00096E00E94522E0E9454274398299880E0FE
:1052000090E00E9452110E94DB0C80E00E94370B5C
:105210008091F6040E94600A0E94160C10927B0591
:1052200010927C0510927D056CE271E080E090E0C8
:105230000E946C2A80ED97E00E94521164E670E0B3
:1052400080E090E00E946C2A80E090E00E94521181
:1052500010E015C064E670E080E090E00E946C2AE7
:1052600080ED97E00E94521164E670E080E090E0EB
:105270000E946C2A80E090E00E9452111F5F809192
:10528000FD03181738F380914A0490E084FF09C0A9
:1052900020E088719070489709F421E0822F0E94E5
:1052A0005B148FE00E94E4071F910F91FF90EF9035
:1052B000089589E896E063E872E00E94802D0E94DC
:1052C0002D080E9456160E9418080E94701604CFDE
:1052D00080ED97E00E94521187E061E00E94392B37
:1052E000439A299A1BCF823000F5E82FF0E0EE0FA9
:1052F000FF1FEC50FA4F71836083882319F08130CF
:10530000A1F408C0809169008C7F842B8093690090
:10531000E89A089580916900440F551F440F551F66
:10532000837F842B80936900E99A08951F920F92DE
:105330000FB60F9211242F933F934F935F936F9368
:105340007F938F939F93AF93BF93EF93FF9380913E
:10535000F4059091F505892B29F0E091F405F09181
:10536000F5050995FF91EF91BF91AF919F918F91B5
:105370007F916F915F914F913F912F910F900FBE51
:105380000F901F9018951F920F920FB60F92112435
:105390002F933F934F935F936F937F938F939F933D
:1053A000AF93BF93EF93FF938091F6059091F7052C
:1053B000892B29F0E091F605F091F7050995FF9109
:1053C000EF91BF91AF919F918F917F916F915F917D
:1053D0004F913F912F910F900FBE0F901F901895F6
:1053E0001F920F920FB60F9211242F933F938F931A
:1053F0009F93AF93BF938091FC059091FD05A09181
:10540000FE05B091FF05309100060196A11DB11D6A
:10541000232F2D5F2D3720F02D570196A11DB11D93
:10542000209300068093FC059093FD05A093FE0554
:10543000B093FF058091F8059091F905A091FA05C8
:10544000B091FB050196A11DB11D8093F8059093C5
:10545000F905A093FA05B093FB05BF91AF919F9119
:105460008F913F912F910F900FBE0F901F90189525
:105470008FB7F8942091FC053091FD054091FE0511
:105480005091FF058FBFB901CA0108959FB7F894E5
:105490002091F8053091F9054091FA055091FB05EE
:1054A00086B5A89B06C08F3F21F02F5F3F4F4F4F1F
:1054B0005F4F9FBF542F432F322F2227280F311DBC
:1054C000411D511D82E0220F331F441F551F8A9535
:1054D000D1F7B901CA010895EF92FF920F931F937C
:1054E000CF93DF937B018C010E94462AEB010EC013
:1054F0000E94462A6C1B7D0B685E7340C8F30894BB
:10550000E108F10801091109C851DC4FE114F10467
:105510000105110569F7DF91CF911F910F91FF9060
:10552000EF900895789484B5826084BD84B58160DD
:1055300084BD85B5826085BD85B5816085BDEEE69B
:10554000F0E0808181608083E1E8F0E0108280817A
:1055500082608083808181608083E0E8F0E08081E8
:1055600081608083E1EBF0E0808184608083E0EB08
:10557000F0E0808181608083EAE7F0E080818460F0
:10558000808380818260808380818160808380814C
:10559000806880831092C1000895CF93DF93482FD5
:1055A00050E0CA018656944FFC0134914A57544F3B
:1055B000FA018491882369F190E0880F991FFC011A
:1055C000E859F44FA591B491FC01EE58F44FC59100
:1055D000D491662351F42FB7F8948C91932F909522
:1055E00089238C93888189230BC0623061F42FB7A3
:1055F000F8948C91932F909589238C938881832B99
:1056000088832FBF06C09FB7F8948C91832B8C930F
:105610009FBFDF91CF910895833071F0843028F4DB
:105620008130A1F0823021F514C08630B1F087308E
:10563000D1F08430E9F404C0809180008F7703C0FA
:10564000809180008F7D80938000089584B58F774E
:1056500002C084B58F7D84BD08958091B0008F779E
:105660008093B00008958091B0008F7D8093B0004A
:105670000895FF920F931F93F62E482F50E0CA0112
:105680008255944FFC012491CA018656944FFC0127
:1056900014914A57544FFA0104910023C9F0222370
:1056A00019F0822F0E940C2BE02FF0E0EE0FFF1F6D
:1056B000EE58F44FA591B4919FB7F894FF2021F4D0
:1056C0008C911095812302C08C91812B8C939FBF6C
:1056D0001F910F91FF9008950F931F93482F50E053
:1056E000CA018255944FFC012491CA018656944FF9
:1056F000FC0104914A57544FFA011491112319F4F3
:1057000020E030E015C0222319F0822F0E940C2BDC
:10571000812F90E0880F991F8458944FFC01A59128
:10572000B4918C9120E030E0802311F021E030E052
:10573000C9011F910F910895CF92DF92EF92FF92CE
:105740000F931F93CF93DF937C016B018A01C0E01D
:10575000D0E00FC0D6016D916D01D701ED91FC91A4
:105760000190F081E02DC7010995C80FD91F0150A4
:1057700010400115110571F7CE01DF91CF911F91F6
:105780000F91FF90EF90DF90CF900895EF92FF92EE
:105790000F931F93CF93DF937C018B01C0E0D0E088
:1057A000F8010F5F1F4F6491662359F0D701ED9107
:1057B000FC910190F081E02DC7010995C80FD91F18
:1057C000EFCFCE01DF91CF911F910F91FF90EF901E
:1057D0000895DC01ED91FC910190F081E02D099597
:1057E0000895EF92FF920F931F938C016DE00E943A
:1057F000E92B7C01C8016AE00E94E92B9C012E0D77
:105800003F1DC9011F910F91FF90EF900895EF92F6
:10581000FF920F931F937C010E94C62B8C01C7013E
:105820000E94F12B9C01200F311FC9011F910F9184
:10583000FF90EF900895EF92FF920F931F937C01DA
:105840000E94E92B8C01C7010E94F12B9C01200FC3
:10585000311FC9011F910F91FF90EF900895CF93D1
:10586000DF93EC016115710519F420E030E00FC001
:10587000DB010D900020E9F71197A61BB70BE8811B
:10588000F9810280F381E02DAD0109959C01C901E8
:10589000DF91CF9108954F925F927F928F929F9266
:1058A000AF92BF92CF92DF92EF92FF920F931F932E
:1058B000DF93CF93CDB7DEB7A1970FB6F894DEBFD5
:1058C0000FBECDBF2C01742ECB01223008F42AE08C
:1058D00019A231E2C32ED12CCC0EDD1E822E9924CA
:1058E000AA24BB24672D752FA50194010E941230B4
:1058F00079018A01C801B701A50194010E94E02F36
:10590000472D461B0894C108D1084A3014F4405D65
:1059100001C0495CF6014083E114F1040105110561
:1059200021F07E2C5F2DC801DDCFC201B6010E949F
:105930002F2CA1960FB6F894DEBF0FBECDBFCF912E
:10594000DF911F910F91FF90EF90DF90CF90BF906C
:10595000AF909F908F907F905F904F900895DC0163
:105960002115310541F4ED91FC910190F081E02D7C
:10597000642F099508950E944B2C0895EF92FF9291
:105980000F931F937C010E94AF2C8C01C7010E94D2
:10599000F12B9C01200F311FC9011F910F91FF9026
:1059A000EF900895EF92FF920F931F939A017B015E
:1059B00000E010E0B801A7010E94AF2C1F910F91E9
:1059C000FF90EF900895EF92FF920F931F937C0149
:1059D0000E94D22C8C01C7010E94F12B9C01200F48
:1059E000311FC9011F910F91FF90EF900895EF9221
:1059F000FF920F931F939A01E62EFF2400E010E020
:105A0000B801A7010E94AF2C1F910F91FF90EF905A
:105A10000895EF92FF920F931F937C010E94F72C41
:105A20008C01C7010E94F12B9C01200F311FC9017D
:105A30001F910F91FF90EF900895CF92DF92EF9218
:105A4000FF920F931F93CF93DF93EC016A017B01C9
:105A50002115310541F4E881F9810190F081E02DB3
:105A6000642F09951BC02A303105B1F477FF13C0AC
:105A70006DE20E94E92B8C0144275527BA014C198D
:105A80005D096E097F09CE012AE00E944B2C9C0122
:105A9000200F311F04C02AE00E944B2C9C01C90139
:105AA000DF91CF911F910F91FF90EF90DF90CF90FA
:105AB0000895EF92FF920F931F937B019A010027A5
:105AC000F7FC0095102FB801A7010E941D2D1F9112
:105AD0000F91FF90EF900895EF92FF920F931F9315
