:100000000C94E3050C9477280C94A4280C940B060C
:100010000C940B060C940B060C940B060C940B061C
:100020000C940B060C940B060C94840C0C940B068D
:100030000C940B060C940B060C940B060C940B06FC
:100040000C94D1280C940B060C94792C0C94B42CA1
:100050000C940B060C940B060C940B060C940B06DC
:100060000C940B060C940B06ED1BF41BF41BED1B00
:10007000F41BF41BF41BF41BF41BF41BF41BF41B08
:10008000F41BF41BF41BF41BF41B5C1BF41BF41B90
:10009000F41BF41BF41BBF1AF41BF41BF41BF41B1E
:1000A000F41BF41BF41BF41BF41BF41BF41BF41BD8
:1000B000F41BF41BF41B681B681B681B681B681B84
:1000C000681B681B681B681BF41BF41BF41BF41BE8
:1000D000F41BF41BC41A671B671B671B671BF41B0D
:1000E0007E1B861B8E1B961B9E1BA61BAE1BB61B68
:1000F000C01BCA1BD41BDE1B0B1BCB1AF41BF41B2F
:10010000F41BF41B5C1BF41BF41BF41BF41BF41B0F
:10011000F41BF41BF41B661B661B661B661BF41B9F
:100120007E1B861B8E1B961B9E1BA61BAE1BB61B27
:10013000C01BCA1BD41BDE1B0B1BCB1AF41BF41BEE
:10014000F41BF41B5C1B456E746572206D656E7547
:100150002E2E2E00546F67676C6564206D69637284
:100160006F50504D00546F67676C656420696E7600
:1001700065727465642050504D2100546F67676C40
:100180006564205458206D7574696E672100546F42
:1001900067676C65642074656C656D657472792140
:1001A0000050726F746F636F6C206572726F722093
:1001B000776974682052580054696D656F757420B2
:1001C0007768656E20636F6E6E656374696E672015
:1001D000746F20525800507265737320616E7920DD
:1001E0006B657920746F2063616E63656C00436F8B
:1001F0006E6E656374696E6720746F2052582C2090
:10020000706F776572207570207468652052582071
:1002100028776974682062696E6420706C75672045
:100220006966206E6F74207573696E6720616C77E4
:100230006179732062696E642900546F67676C6529
:10024000642027696D6D656469617465206F7574DC
:100250007075742700546F67676C65642027736C32
:10026000617665206D6F64652700546F67676C6504
:10027000642027616C776179732062696E6427005E
:10028000546F67676C65642050504D206368616EE1
:100290006E656C206C696D697400536574205253EF
:1002A000534920696E6A656374696F6E2063686183
:1002B0006E6E656C2028303D3D64697361626C65CB
:1002C00029005365742050504D206D696E696D751D
:1002D0006D2073796E630053657420626561636F8E
:1002E0006E20696E74657276616C0053657420626D
:1002F0006561636F6E2064656C617900536574207D
:10030000626561636F6E206672657175656E637993
:1003100020696E20487A3A20303D64697361626CCE
:10032000652C2050783D504D52206368616E6E659B
:100330006C20782C2046783D465253206368616ECD
:100340006E656C2078005365742050574D2073748F
:100350006F702064656C6179202830206469736156
:10036000626C65642C20312D323535203D3D2030C6
:100370002E3173202D2035306D696E290053657440
:100380002050504D2073746F702064656C6179202B
:1003900028302064697361626C65642C20312D32D1
:1003A0003535203D3D20302E3173202D2035306DE8
:1003B000696E2900536574206661696C73616665B6
:1003C0002064656C61792028302064697361626CF7
:1003D00065642C20312D323535203D3D20302E31C5
:1003E00073202D2035306D696E29002A2A2A2A2A89
:1003F0002A2A2A2A2A2A2A2A2A2A2A2A2A2A2A2A5D
:100400002A2A2A2A2A2A2A2A0052582041636B655E
:1004100064202D2072657665727420737563636540
:10042000737366756C21002A2A2A2A2A2A2A2A2A04
:100430002A2A2A2A2A2A2A2A2A2A2A2A2A2A2A2A1C
:100440002A2A2A2A002A2A2A2A2A2A2A2A2A2A2A36
:100450002A2A2A2A2A2A2A2A2A2A2A2A2A2A2A2AFC
:100460002A2A0052582041636B6564202D20757044
:1004700064617465207375636365737366756C215D
:10048000002A2A2A2A2A2A2A2A2A2A2A2A2A2A2AF6
:100490002A2A2A2A2A2A2A2A2A2A2A2A2A2A0056BA
:1004A000616C69642063686F69636573206172655C
:1004B0003A205B315D2D5B31365D20286368616ECB
:1004C0006E656C20312D31362900536574206F75AF
:1004D0007470757420666F7220706F727420005B88
:1004E000585D2061626F7274206368616E67657326
:1004F00020616E64206578697420525820636F6EA5
:10050000666967005B535D2073617665207365746F
:1005100074696E677320746F205258005B525D20BF
:100520007265766572742052582073657474696EB2
:10053000677320746F2064656661756C7473005511
:100540007365206E756D62657273205B312D445D3D
:1005500020746F206564697420706F727473205BFF
:10056000452D515D20666F722073657474696E67E6
:100570007300202D20726563656976657220636F54
:100580006E666967757261746F722C207278207361
:100590007720000A0A6F70656E4C52536E67200018
:1005A0005365742073657269616C20626175647251
:1005B0006174653A200056616C69642063686F69F4
:1005C0006365733A2031202D20342B34202F2032C4
:1005D000202D2038202F2033202D20382B34202F81
:1005E0002034202D203132202F2035202D20313273
:1005F0002B34202F2036202D2031360053657420D7
:100600004368616E6E656C20636F6E6669673A2041
:1006100000536574204461746172617465202830F0
:100620002D32293A200053657420486F702063688A
:10063000616E6E656C7320286D61782032342C20D9
:1006400073657061726174656420627920636F6D97
:100650006D6173292076616C69642076616C7565C3
:100660007320312D3235353A20005365742063688C
:10067000616E6E656C2073706163696E67202878A7
:1006800031306B487A293A20005365742052462055
:10069000706F7765722028302D37293A2000536516
:1006A00074205246206D6167696320286865782947
:1006B00020652E672E203078444541444630304432
:1006C0003A2000536574206261736520667265711B
:1006D00075656E63792028696E20487A293A200072
:1006E0005B5A5D20656E746572207265636569761C
:1006F000657220636F6E66696775726174696F6E8B
:10070000207574696C79005B465D20646973706C58
:1007100061792061637475616C20667265717565BD
:100720006E636965732075736564005B525D206359
:10073000616C63756C6174652072616E646F6D20AD
:100740006B657920616E6420686F70206C697374CA
:10075000005B495D207265696E697469616C697AD4
:10076000652073657474696E677320746F20736B92
:10077000657463682064656661756C7473005B58AA
:100780005D20726576657274206368616E6765735B
:1007900020616E642065786974206D656E75005BFC
:1007A000535D20736176652073657474696E677339
:1007B00020746F20454550524F4D20616E64206576
:1007C000786974206D656E7500557365206E756D62
:1007D00062657273205B302D395D20746F20656413
:1007E000697420706172616D657465727300202D8B
:1007F0002053797374656D20636F6E6669677572D7
:100800006174696F6E000A0A6F70656E4C52536EA8
:100810006720005129204F757470757420626566D9
:100820006F7265206C696E6B20283D465329203A13
:100830002000502920536C617665206D6F6465201F
:10084000286578706572696D656E74616C293A20EF
:10085000004F292054696D65642042494E4420614F
:1008600074207374617274757020203A20004E29D0
:100870002050504D206F7574707574206C696D69CF
:1008800074656420202020203A20004449534142CE
:100890004C4544004D292050504D2052535349207F
:1008A000746F206368616E6E656C202020203A2092
:1008B000004C292050504D206D696E696D756D207A
:1008C00073796E63202875732920203A20004449EB
:1008D0005341424C4544004B29204661696C736189
:1008E000666520626561636F6E20696E74762E2086
:1008F00028312D32353573293A20004A29204661A6
:10090000696C7361666520626561636F6E20646502
:100910006C61792028302D323535203D3E20313034
:1009200073202D203135306D696E293A2000492918
:10093000204661696C7361666520626561636F6EF4
:10094000206672712E203A200048292050574D20F1
:1009500073746F702064656C6179202020202020E2
:10096000203A200047292050504D2073746F70208A
:1009700064656C6179202020202020203A200046E8
:1009800029204661696C736166652064656C6179D4
:10099000202020202020203A200050574D2063683E
:1009A000616E6E656C200066756E6374696F6E3A79
:1009B00020002920706F727420004454462055484E
:1009C000462033322D6269742031306368004F70E5
:1009D000656E4C52536E675258206D696E692034B3
:1009E0002F36636800466C7974726F6E2F4F726198
:1009F0006E67655258205548462038636800525843
:100A000020747970653A200044697361626C656492
:100A100000487A00203D3D200043616C63756C61A5
:100A2000746564207061636B657420696E746572AF
:100A300076616C3A20004229204D6963726F20284C
:100A400068616C66292050504D202020203A0041DA
:100A50002920496E7665727465642050504D206976
:100A60006E20202020203A003029204D757465200A
:100A700062757A7A657220286D6F73746C79293A81
:100A80000039292053657269616C20626175647256
:100A90006174653A00736D617274506F72740046D0
:100AA00072536B79005472616E73706172656E740B
:100AB0000044697361626C65640038292054656C78
:100AC000656D657472793A2020202020202000373F
:100AD00029204368616E6E656C20636F6E6669677E
:100AE0003A202000362920446174617261746520C7
:100AF00028302D32293A20202000352920486F70D7
:100B0000206368616E6E656C733A2020202020009F
:100B10003429204368616E6E656C2073706163696F
:100B20006E673A202000332920524620706F776587
:100B3000722028302D37293A2020200032292052D7
:100B400046206D616769633A202020202020202004
:100B500020003129204261736520667265717565D8
:100B60006E63793A20202000000000002400270056
:100B70002A0000000000250028002B0000000000D3
:100B800023002600290004040404040404040202CF
:100B900002020202030303030303010204081020FC
:100BA0004080010204081020010204081020000007
:100BB000000700020100000304060000000000001E
:100BC00000002D0F6D2E11241FBECFEFD8E0DEBF29
:100BD000CDBF13E0A0E0B1E0ECE1FFE502C005907D
:100BE0000D92A23FB107D9F716E0A2EFB3E001C022
:100BF0001D92AB39B107E1F71BE0C6ECDBE004C0A6
:100C00002297FE010E94462FC23CD107C9F70E94DD
:100C1000B22E0C948C2F0C940000A0E0B0E0E3E125
:100C2000F6E00C945D2FEC01A880B980CA80DB80CF
:100C3000A114B104C104D10441F484E2A82E89EDC9
:100C4000B82E8BE5C82E87E0D82EC601B5012DE160
:100C500033EF41E050E00E94152F27EA31E440E0F5
:100C600050E00E94C12E7B018C01C601B5012DE12F
:100C700033EF41E050E00E94152FCA01B9012CEE7C
:100C800034EF4FEF5FEF0E94C12E6E0D7F1D801F6E
:100C9000911F97FF04C06150704080409048688366
:100CA00079838A839B839B01AC015F77B901CA0179
:100CB000CDB7DEB7EAE00C94792F0E940D060895B7
:100CC0008DE093E00E940D06089560930D037093EC
:100CD0000E0380930F03909310030895A0E0B0E0FB
:100CE000E4E7F6E00C94562FEC012B016A01611544
:100CF000710519F0FB0191838083C114D10449F07F
:100D0000C6010297839728F020E030E040E050E0F1
:100D1000DCC0A9908A2D90E00E944A2F892BC9F748
:100D2000FDE2AF1621F4A9903324339405C08BE281
:100D3000A81609F4A9903324C114D10421F0E0E1EC
:100D4000CE16D10411F5F0E3AF1669F48881883727
:100D500011F0883541F4A980229682E0382A20E1FA
:100D6000C22ED12C12C0C114D10479F4E0E3AE1626
:100D700059F199E9E92E99E9F92E99E9092F99E1B3
:100D8000192F8AE0C82ED12C3AC0FAE0CF16D10430
:100D900091F080E1C816D10429F0E8E0CE16D10424
:100DA000F9F415C0BFEFEB2EBFEFFB2EBFEF0B2FFB
:100DB000BFE01B2F24C0A9E9EA2EA9E9FA2EA9E970
:100DC0000A2FA9E11A2F1BC0F8E0CF2ED12CEFEF8C
:100DD000EE2EEFEFFE2EEFEF0E2FEFE11E2F0FC0E6
:100DE0009601442737FD4095542F6FEF7FEF8FEF2B
:100DF0009FEF0E94F32EC901DA017C018D0120E0F2
:100E000030E040E050E060E03601882477FC8094D8
:100E1000982C70EDB72EBA0CF9E0FB1570F48A2D02
:100E200081548A3118F499ECB92E06C08A2D815666
:100E30008A3148F589EAB82EBA0C8B2D90E08C15D2
:100E40009D050CF56F3FE9F0E216F3060407150760
:100E5000B8F0CA01B901A40193010E94C12E9B01FF
:100E6000AC018B2D90E0A0E0B0E0280F391F4A1FA5
:100E70005B1F281739074A075B0710F061E001C0C4
:100E80006FEFA990C6CF4114510451F0662311F0C1
:100E9000219703C031FE04C02297F201D183C083A1
:100EA00030FE07C050954095309521953F4F4F4FEC
:100EB0005F4F67FF0AC082E290E090939A068093AA
:100EC00099062FEF3FEF4FEF5FEFB901CA01CDB7A2
:100ED000DEB7E1E10C94722FFC0188279927E89492
:100EE00021912032E9F3293010F02E30C8F32B3253
:100EF00041F02D3239F4689404C00E94C107820F7A
:100F0000911D219120532A30C0F31EF490958195B4
:100F10009F4F089542EF53E00E948F070895009776
:100F200031F4DA018D919C91009709F40EC0DC0137
:100F3000FB013D912191222319F03217C9F3FACF19
:100F4000332331F4DA011D921C92882799270895E2
:100F50001197AF93BF93FB013D912191321771F42B
:100F6000332321F488279927119702C01E921196E6
:100F7000FA01A193B0839F918F910895222369F77D
:100F8000EACF7AE0979F902D879F802D910D1124B5
:100F900008958091F403813019F482E08093F40382
:100FA0008091F403833019F484E08093F40308956E
:100FB000009721F19C0140E050E068E478EE81E088
:100FC00090E00E94152FC901DA018F3F9105A1051C
:100FD000B10531F028F08FEF90E0A0E0B0E008C05C
:100FE0000097A105B10521F481E090E0A0E0B0E018
:100FF0008093B3008091B000806103C08091B00005
:101000008F7E8093B000089580911E04E82FF0E059
:101010003496DF0126E0AA0FBB1F2A95E1F720E0F6
:1010200030E040E050E060E070E0F999FECFCB01A5
:101030008A0F9B1F92BD81BDF89A80B5542F432F14
:10104000322F2227280F311D411D511D6F5F7F4F09
:101050006430710551F72E513E4B414C5E4D19F0F5
:1010600020E030E01FC09F0186E0220F331F8A95E9
:10107000E1F72C5F3F4FE5EFF3E0F999FECF32BD8A
:1010800021BDF89A80B581932F5F3F4F84E0EE3108
:10109000F80799F720E030E08091F503893011F4EA
:1010A00021E030E0C901089589E08093F50380E0F4
:1010B00092ECA1E0B0E08093F6039093F703A09345
:1010C000F803B093F90387E08093020480EC92E97F
:1010D000ADEEB9E18093FA039093FB03A093FC0378
:1010E000B093FD0385E0809303048DEE9EEFADEA9F
:1010F000BEED8093FE039093FF03A0930004B09392
:101100000104A4E0B4E080E090E0863010F0E0E07C
:1011100004C0FC01E452FC4FE081ED93019688315C
:10112000910599F782E080931C048AE080931D0466
:1011300008958436910520F4BC0180E090E025C03C
:101140008E3B910550F48A559040BC0180E090E0C0
:101150002AE030E040E050E016C0823D910550F4B6
:10116000845B9040BC0180E090E024E630E040E009
:1011700050E009C08D5C9040BC0180E090E028E523
:1011800032E040E050E00E94C12E24E630E040E032
:1011900050E00E94C12E089590E08C599F4F0E940C
:1011A00099080895DC019896EC91F0E0E770F070F2
:1011B000EC52FC4F808108958F929F92AF92BF9224
:1011C000CF92DF92EF92FF920F931F938C010E94B8
:1011D000D208D80197962C9130E043E150E0249F4B
:1011E000F001259FF00D349FF00D1124EF5EFC4FB0
:1011F00080809180A280B38090E00F96AA2797FD0F
:10120000A095BA2FBC01CD0120E43FE14DE750E0AD
:101210000E94C12EA50194010E94F32E69017A015A
:1012200080ED97E0A0E0B0E0C80ED91EEA1EFB1EDC
:10123000D80198968C91887181F060E07EEE8AEBFF
:101240009BE0A50194010E94F32E28513C4F4F4F83
:101250005F4FC20ED31EE41EF51E87EE93E0A0E0A2
:10126000B0E0C80ED91EEA1EFB1EC701B60128EE6B
:1012700033E040E050E00E94F32ECA01B90128EEAD
:1012800033E040E050E00E94C12E1F910F91FF908B
:10129000EF90DF90CF90BF90AF909F908F90089588
:1012A0008F3F910509F010F480E0089522E080302E
:1012B000920710F481E008958050934010F083E08D
:1012C000089582E00895CF92DF92FF920F931F93CB
:1012D000CF93DF93F82FEB016A01182F1695E0E00A
:1012E00088819981D6018C938A819B8111968C93F8
:1012F00011978C819D8112968C9312978E819F817C
:1013000013968C931397288139814A815B816C8174
:101310007D818E819F819295990F990F907C832F6B
:101320008370982B852F8370880F880F982B872FB9
:1013300083708295807F982B14969C9385E090E033
:10134000C80ED91E2896EF5F1E1750F6F0FF21C079
:10135000888199810E945009F82E8A819B810E9480
:101360005009182F8C819D810E945009082F8E8171
:101370009F810E945009F294FF0CFF0C50ECF52263
:101380001295107F1F29182B000F000F012BD6017B
:101390000C93DF91CF911F910F91FF90DF90CF9031
:1013A000089523E08032920718F420E030E026C050
:1013B00023E0883E920748F49C012F513340F4E02B
:1013C00036952795FA95E1F719C027E0803D9207F9
:1013D00020F49C012C5D334011C028E0883992072D
:1013E00018F02FEF33E00AC09C01285C3740E4E09E
:1013F00036952795EA95E1F72D503C4FC9010895A0
:101400009C013695279525753575821B930B9C019C
:101410003695279536952795237333738373937386
:10142000280F391FC90144E0969587954A95E1F741
:10143000820F931F8F709F7021E031E0AC01429FBB
:10144000C001439F900D529F900D1124892F089544
:10145000882339F02D9800002B9A00002D9A000067
:1014600008952D9800002B9800002D9A00000895F3
:101470002D9A000083B12D98000090E074E09695BD
:1014800087957A95E1F7817008950F931F93082F40
:101490005C9A2D985C9810E0802F80780E94280A32
:1014A000000F1F5F1830C1F72D981F910F910895FD
:1014B0008F770E94450A08950F931F93082F10E01D
:1014C000802F80780E94280A000F1F5F1830C1F714
:1014D0002D981F910F9108950F931F932D9880E0E1
:1014E00000E0182F110F0E94380A810F0F5F08309B
:1014F000C1F71F910F9108950E94580A0E946C0A2B
:101500005C9A08951F93162F80680E94450A812FC8
:101510000E945C0A5C9A1F9108951F931091FE032C
:101520001827E5EFF3E0E80FF11D89E767850E94D2
:10153000820A8DE3612F0E94820A82E4612F0E9459
:10154000820A1F91089586E20E947C0A08950F93F3
:101550001F938C018CE1F80164810E94820A8DE165
:10156000F80165810E94820A8EE1F80166810E947D
:10157000820A80E2F80167810E94820A81E2F80112
:1015800060850E94820A82E2F80161850E94820AD7
:1015900083E2F80162850E94820A84E2F801638591
:1015A0000E94820A85E2F80164850E94820A8AE22A
:1015B000F80165850E94820A8EE6F80166850E9420
:1015C000820A8FE6F80167850E94820A80E7F801A7
:1015D00060890E94820A81E7F80161890E94820A7B
:1015E00082E7F80162890E94820A1F910F91089593
:1015F000EF92FF920F931F93CF93DF937B018C01A8
:10160000603028E372072CE982072CE1920728F565
:1016100020E836E948E950E00E94F32EE901689796
:10162000B90180E090E020E839E647E65FEF0E94EC
:10163000C12E6E0D7F1D801F911FB2E0660F771FB8
:10164000881F991FBA95D1F721E732E040E050E0BA
:101650000E94F32E890180E421C020E03DE241E3B5
:1016600051E00E94F32EE9016897B90180E090E013
:1016700020E033ED4EEC5EEF0E94C12E6E0D7F1D1B
:10168000801F911F660F771F881F991F21E732E087
:1016900040E050E00E94F32E890180E69E012F7108
:1016A000622F680F85E70E94820A86E7612F0E94F9
:1016B000820A87E7602F0E94820ADF91CF911F91F3
:1016C0000F91FF90EF9008959F92AF92BF92CF92AB
:1016D000DF920F93DF93CF9300D000D0CDB7DEB76A
:1016E000982E83E00E947C0A80933A0484E00E9452
:1016F0007C0A80933B0486E060E00E94820A87E0D7
:1017000061E00E94820A89E06FE70E94820A8AE013
:1017100065E00E94820A8BE065E10E94820A8CE00B
:1017200062E10E94820A8DE06DEF0E94820A8EE0E3
:1017300060E00E94820A992019F080E793E008C0D7
:1017400080911C0423E1829FC00111248F5E9C4F75
:101750000E94A70A80E36CE80E94820A82E36FE09D
:101760000E94820A83E362E40E94820A84E36AE0C0
:101770000E94820A85E36AE20E94820A86E36DE2A1
:101780000E94820A87E364ED0E94820A88E360E097
:101790000E94820A89E360E00E94820A992049F04F
:1017A0002EE1A22E2EEBB22E21ECC22E2EEDD22E49
:1017B00008C0A090FE03B090FF03C0900004D0903A
:1017C00001040AE38D2D9927AA27BB2789839A83D1
:1017D000AB83BC83802F69810E94820A802F8B5F3C
:1017E00069810E94820ADC2CCB2CBA2CAA240F5FC0
:1017F0000E3341F783E46FEF0E94820A84E46FEFB7
:101800000E94820A85E46FEF0E94820A86E46FEFED
:101810000E94820A992019F08DE666E003C08DE6E9
:10182000609102040E94820A89E760E00E94820AB5
:101830008AE7609103040E94820A83E760E00E94C5
:10184000820A84E760E00E94820A992029F060EC15
:1018500072E98DEE99E108C06091FA037091FB0383
:101860008091FC039091FD030E94F80A0F900F9065
:101870000F900F90CF91DF910F91DF90CF90BF909D
:10188000AF909F90089587E061E00E94820A8EE702
:1018900064E20E94820A88E063E00E94820A88E093
:1018A00060E00E94820A87E065E00E94820A85E08B
:1018B00062E00E94820A83E00E947C0A80933A04DC
:1018C00084E00E947C0A80933B040895582F409145
:1018D0004B05842F90E0FC01EF70F0709F012F5FAB
:1018E0003F4F64E0959587956A95E1F7281739078A
:1018F00051F0E55CFA4F5083842F8F5F8F70407FEB
:10190000842B80934B0508951F920F920FB60F9270
:1019100011241F932F933F934F935F936F937F9364
:101920008F939F93AF93BF93CF93DF93EF93FF93E7
:10193000C0918600D091870020918D0530918E0551
:1019400080916C05882309F047C0CE01821B930B60
:101950009C0180911D0487FD02C03695279599E072
:10196000253C390708F18091A3038630D0F080919F
:10197000A3038F3FB1F020E00EC0E22FF0E0EE0FA6
:10198000FF1FDF01A359BA4F8D919C91ED57FC4F7A
:10199000918380832F5F8091A303281770F31092A7
:1019A0006B051092A30318C082E02D3B380760F14D
:1019B0008091A303803140F51091A303C9010E94D7
:1019C000D109E12FF0E0EE0FFF1FE359FA4F9183A9
:1019D00080831F5F1093A303D0938E05C0938D0562
:1019E000FF91EF91DF91CF91BF91AF919F918F9137
:1019F0007F916F915F914F913F912F911F910F9028
:101A00000FBE0F901F9018958FEF8093A303E4CF24
:101A100083E0809380008AE98093810080911D0497
:101A200086FD05C0809181008064809381008FEFE6
:101A30009FEF909389008093880080916F0080626F
:101A400080936F0008956F3020F0869586958054BE
:101A500008958DE0689F802D11240895982F80911E
:101A6000D905882329F4933009F043C081E005C0EB
:101A7000813049F4913021F482E08093D9050895B2
:101A80001092D9050895803190F5E82FF0E0E359E0
:101A9000FA4F90838F5F8093D905803151F5209163
:101AA0006C05AFE6B5E0213039F41196EC91119751
:101AB000E695E6958C9109C08D919C911197E92F3F
:101AC000E695E695E69596958795E03140F4F0E049
:101AD00090E0EE0FFF1FED57FC4F91838083109233
:101AE0006B05129685E0AD37B807E9F608951092B8
:101AF000D90508950F931F93CF93DF939091D90544
:101B0000992339F48F3009F002C181E08093D9051F
:101B1000FEC0983148F4E92FF0E0E459FA4F808391
:101B20009F5F9093D905F3C0983109F0EEC08823E8
:101B300009F0EBC0C0E0D0E00BE010E0DE0163E0B4
:101B4000AA0FBB1F6A95E1F7C09FB001C19F700D3E
:101B5000D09F700D1124FB01E359FA4F8081218140
:101B6000922F977095958795FD01EE0FFF1FED570A
:101B7000FC4F91838083FB01E259FA4F3081369507
:101B8000369536952181422F4295440F407E842F11
:101B9000832B269526952695922F97709595879558
:101BA000FD01EE0FFF1FEB57FC4F91838083FB017C
:101BB000E159FA4F8081829586958695837041819F
:101BC000942F990F990F292F282B429546954695CA
:101BD000437082818170880F880F382F342B3595A0
:101BE0002795FD01EE0FFF1FE957FC4F318320833E
:101BF000FB01EF58FA4F308136952181422F4795EE
:101C000044274795842F832B2695922F977095957F
:101C10008795FD01EE0FFF1FE757FC4F91838083EF
:101C2000FB01EE58FA4F308132953F702181422FEF
:101C30004295407F842F832B22952F70922F97708F
:101C400095958795FD01EE0FFF1FE557FC4F91839A
:101C50008083FB01ED58FA4F8081881F8827881FF9
:101C60004181942F990F292F282B441F4427441F6B
:101C700082818370880F382F342B35952795FD018D
:101C8000EE0FFF1FE357FC4F31832083FB01EB581E
:101C9000FA4F3081369536952181422F4295440F77
:101CA000440F407C842F832B26952695922F977086
:101CB00095958795AA0FBB1FFD01E157FC4F9183B6
:101CC00080836A587A4FFB012081229526952770E0
:101CD0004181342F330F330F330F832F822B942FF7
:101CE00092959695977095958795AF56BC4F11969E
:101CF0009C938E932196C230D10509F01FCF80911D
:101D0000830583FD02C010926B051092D905DF9107
:101D1000CF911F910F910895382F20E08091DE051B
:101D20009091DF058227932740E061E270E19C01FA
:101D3000220F331F97FF04C0C9018627972701C0D0
:101D4000C9014F5F483099F79093DF058093DE0516
:101D50000895FF920F931F93CF93DF93682F4091C5
:101D6000D905442369F4883AC1F41092DF05109232
:101D7000DE0588EA0E948C0E81E08093D90560C060
:101D8000413019F48093E00504C0423031F480936F
:101D9000E105862F0E948C0E53C07091E105272F1C
:101DA00030E0220F331FE42FF0E0C90102968E17B6
:101DB0009F0734F0433268F7E659FA4F6083E9CF62
:101DC0002D5F3F4F4091DE055091DF05E217F3078D
:101DD00049F4962F80E0482759275093DF05409318
:101DE000DE052EC0862F90E04817590739F58091FF
:101DF000E005813019F5713118F080E18093E1053B
:101E0000F090E1050DE615E0C0E0D0E013C0F80168
:101E1000819191918F01B3E096958795BA95E1F7FD
:101E20000E94D109FE01EE0FFF1FED57FC4F918379
:101E300080832196CF1558F310926B051092D90527
:101E40008091D905823018F08F5F8093D905DF919A
:101E5000CF911F910F91FF9008951092420410921C
:101E600047041092460410924904109248040895C1
:101E7000882319F460E071E002C063E071E087E755
:101E800096E00E94642C0895CF92DF92EF92FF9229
:101E90001F93182F0E9427299B01AC018091DA051E
:101EA0009091DB05A091DC05B091DD0569017A0117
:101EB000C81AD90AEA0AFB0AD701C6018958934110
:101EC000A040B04010F01092D9052093DA0530936D
:101ED000DB054093DC055093DD0590916C05892F5F
:101EE0008150823020F4812F0E942E0D0BC0933040
:101EF00021F4812F0E947A0D05C0943019F4812FAE
:101F00000E94A90E1F91FF90EF90DF90CF9008954F
:101F1000FF920F931F93CF93DF93182F092FF62E65
:101F20008EE30E94820A212F302FC901EC0110E0BC
:101F300005C08FE769910E94820A1F5F1F15C8F3D1
:101F400085E064E00E94820A83E00E947C0A80931C
:101F50003A0484E00E947C0A80933B040E94272973
:101F600060933C0470933D0480933E0490933F043F
:101F700087E069E00E94820A81E08093F403DF91A8
:101F8000CF911F910F91FF9008950E94880F80912B
:101F9000F4038130D9F40E94272920913C04309128
:101FA0003D0440913E0450913F04621B730B840B2F
:101FB000950B605A76488140904040F4E8CF87E71F
:101FC00096E067E071E00E94642C08958091F4032C
:101FD0008130A9F3089587E796E06EE70E942D2EE1
:101FE0000895BF92CF92DF92EF92FF920F931F93CB
:101FF000CF93DF936C0187E796E06EE70E942D2E6A
:102000007601C0E0D0E000E010E030E2B32E0AC07C
:102010000830110521F49E012095F60120870894CF
:10202000E11CF11CF7016081862F8D57823040F44E
:1020300087E796E06DE70E942D2EF70160816B2502
:1020400087E796E00E942D2E0115110559F0F70142
:1020500080819E01280F311DC901C92FDD27C80FBE
:10206000D91FD0700F5F1F4F0930110589F6DF911E
:10207000CF911F910F91FF90EF90DF90CF90BF9085
:102080000895DF93CF93CDB7DEB729970FB6F894B5
:10209000DEBF0FBECDBF382FE62F8091500590E0F8
:1020A000019664E270E00E94E02E982F8093500524
:1020B00088E9898380E18A83913071F0913028F03A
:1020C000923099F09330E1F416C085E08B8381EF74
:1020D0008C832F5F2D8317C09B8381EF8C8384E6D5
:1020E000489FC00111249D830EC084E08B8381EF43
:1020F0008C833D8308C09B8381EF8C83ED8303C079
:102100000E94EB0F04C0CE0101960E94F10F2996A8
:102110000FB6F894DEBF0FBECDBFCF91DF9108950B
:102120000F931F93CF93DF93182F092F87E796E024
:102130006EE70E942D2E212F302FC901EC0110E0F7
:1021400000E288818D57823040F487E796E06DE7A2
:102150000E942D2E88818027888387E796E06991E9
:102160000E942D2E1F5F193061F787E796E06EE71A
:102170000E942D2EDF91CF911F910F910895DF9333
:10218000CF93CDB7DEB729970FB6F894DEBF0FBE59
:10219000CDBF382F80915005882379F48EEF898345
:1021A0003A836B83842F90E0959587958C832D835C
:1021B000198618861F821E822FC040914B05842FDE
:1021C00090E09C012F70307064E0959587956A953A
:1021D000E1F78217930721F18DEF89831A821B8221
:1021E000DE01149620E008C0E55CFA4F80818D93F3
:1021F000405F2F5F263069F0842F90E0FC0154E0AF
:10220000F595E7955A95E1F78F709070E817F90703
:1022100059F740934B052A83CE0101960E949010F6
:102220008091500590E0019666E070E00E94E02EFB
:102230008093500529960FB6F894DEBF0FBECDBF30
:10224000CF91DF9108959F92AF92BF92CF92DF928C
:10225000EF92FF920F931F93B82EA62ED42EC22E6C
:10226000902E0E9427297B018C0180913A052091B4
:102270004C0530914D0540914E0550914F058823F6
:10228000B1F0D801C701821B930BA40BB50B815E83
:102290009E42A040B04020F12C2DDC1408F42D2DDE
:1022A0008B2D6A2D422F292D0E94411011C0D8017B
:1022B000C701821B930BA40BB50B81539547A0401C
:1022C000B04070F08B2D6A2D4D2D2C2D0E94BF102B
:1022D000E0924C05F0924D0500934E0510934F058A
:1022E0001F910F91FF90EF90DF90CF90BF90AF9034
:1022F0009F900895FF920F931F938C01F62E87E70E
:1023000096E00E942D2EF80184818F2584831F91F1
:102310000F91FF900895FF920F931F938C01F72E5A
:102320000E947A11C8016F2D0E947A111F910F919E
:10233000FF900895BF92CF92DF92EF92FF920F939A
:102340001F937C01B62E6A0107E716E0C80165EB12
:102350000E942D2EC80162E60E942D2EF7011482E4
:10236000C7016B2D0E947A11C701B6010E948B1123
:102370001F910F91FF90EF90DF90CF90BF90089545
:102380008CE060E00E94AE298BE061E00E94AE2903
:102390008DE061E00E94AE2982E060E00E94AE29FB
:1023A00084E061E00E94AE29089582E08093B0004D
:1023B00085E08093B10083E061E00E94AE2983E074
:1023C00060E00E941A2A08951F93182F0E9427295F
:1023D00060934C0570934D0580934E0590934F0587
:1023E00010933A05112329F440E855E260E070E0CB
:1023F00004C040E051EE60E070E087E796E00E94A4
:10240000332D1F910895AF92BF92CF92DF92EF923A
:10241000FF920F931F93DF93CF93CDB7DEB76C97E7
:102420000FB6F894DEBF0FBECDBF0E9427297B01F7
:102430008C0181E00E94640BA4E7AA2E6E0108942F
:10244000C11CD11CF3E0BF2EA982C60161E00E942D
:10245000C50FB092F4030E94430C6AEF70E080E075
:1024600090E00E944D298091F403833009F08AC0E6
:1024700087E796E00E94BA2D892B09F083C00E945D
:1024800027296E197F09800B910B6058734C894C7A
:10249000914008F077C0D8CF8FE70E94580A0E9479
:1024A0006C0A843509F05CC089830E946C0A182F7D
:1024B00000E010933905009338050E946C0A080F5C
:1024C000111D10933905009338050E946C0A809302
:1024D00037050E946C0A80933605813108F040C0B0
:1024E000FF2407C00E946C0A0A5E1A4FF80180831D
:1024F000F3940F2D10E08091360590E0880F991F1E
:102500000817190778F380E78983CE01019661E007
:102510000E94C50F83E08093F4030E94430C62E3A2
:1025200070E080E090E00E944D298091F4038330B8
:10253000A9F08FE70E94580A0E946C0A803581F446
:1025400089830FE114E00E946C0AF80181938F01E6
:10255000F4E00A331F07B9F781E003C082E001C04D
:1025600083E06C960FB6F894DEBF0FBECDBFCF915F
:10257000DF911F910F91FF90EF90DF90CF90BF9070
:10258000AF9008958091F403833009F085CFE6CFB2
:1025900083E00E947C0A80933A0484E00E947C0AD3
:1025A00080933B0487E061E00E94820A6AE070E069
:1025B00080E090E00E944D290E94430C00000895A5
:1025C0000F931F93082F17C05E9A64E670E080E0B7
:1025D00090E00E944D295E9864E670E080E090E013
:1025E0000E944D291F5F101778F36CE271E080E0C4
:1025F00090E00E944D2910E0F6CF482F392F25E0BA
:102600000DC0F999FECF1FBA842F932F92BD81BDC3
:1026100060BD0FB6F894FA9AF99A0FBE215059F09E
:10262000F999FECF842F932F92BD81BDF89A80B582
:10263000681739F7089582E00E94E0120895CF925A
:10264000DF92EF92FF920F931F93CF93DF93C0E03F
:10265000D0E008E110E03EE1C32E3EEBD32E31EC9A
:10266000E32E3EEDF32E80911E0490E0049626E0CA
:10267000880F991F2A95E1F7A7019601002E04C043
:1026800056954795379527950A94D2F78C0F9D1F3D
:10269000622F0E94FD12219608501040C430D105CF
:1026A00011F7C0E0D0E080911E0490E0B6E0880F02
:1026B000991FBA95E1F78C5F9E4FFE01EB50FC4FDE
:1026C0008C0F9D1F60810E94FD122196C932D10599
:1026D00051F7DF91CF911F910F91FF90EF90DF9015
:1026E000CF90089580E490E060911E040E94FD1256
:1026F0000895F999FECF80E490E092BD81BDF89AEB
:1027000080B580931E04843020F010921E040E9435
:10271000721308951F93182F0E94791380911E043D
:10272000811731F0143020F410931E040E947213AC
:102730001F910895809152058130D1F0813020F0B1
:10274000823009F043C037C08EE00E944D2A892BA9
:1027500009F03CC081E0809352050E9419296093E2
:10276000530570935405809355059093560508952D
:102770008EE00E944D2A892BD9F40E9419292091BC
:102780005305309154054091550550915605621BF3
:10279000730B840B950B695E734080409040B0F0E2
:1027A00082E08093520580ED97E00E94D80708955B
:1027B0001092520508958EE00E944D2A892B31F027
:1027C00080E090E00E94D807109252050895AF92E1
:1027D000BF92CF92DF92EF92FF920F931F93CF930E
:1027E000DF938CE00E947C0A8823B9F587E796E0A6
:1027F00063E171E00E94642C5E9A80E00E94640BA9
:102800000E94430C5E9829C080916C05882339F0A2
:1028100087E796E00E94F42D0E94440F1EC080912D
:10282000D705C82FD0E09E012F5F3F4F2F7130702A
:102830008091D60590E02817390779F087E796E070
:102840000E94F42DC355DA4F88838091D70590E01C
:1028500001968F7190708093D70587E796E00E946C
:10286000BA2D892B89F68091F403843009F08CC04D
:102870000E94272960935B0570935C0580935D053A
:1028800090935E05611571058105910561F481E004
:1028900090E0A0E0B0E080935B0590935C05A0938E
:1028A0005D05B0935E058091670590916805816034
:1028B000909368058093670583E08093F4038FE726
:1028C0000E94580AC4EAD5E00E946C0A899305E088
:1028D000CD3AD007C9F740918F058091A405282FE4
:1028E00030E0842F90E08227932786FF40C080E469
:1028F000482740938F05C90188739070C89709F5E0
:1029000010E014C01F5F80911D04E12FF0E084FFF0
:1029100006C0EC55FA4F80810E94660C07C0EC554A
:10292000FA4F87E796E060810E942D2E212F30E03C
:102930008091A40590E0877090708217930714F738
:1029400016C02F733070232B91F48091A5058093CE
:102950005F058091A605809361058091A70580930E
:1029600062058091AA058093690510926A0580919D
:10297000D805813019F482E08093D8058091D8057C
:10298000833011F41092D8050E9427295B016C0155
:102990008091630590916405A0916505B0916605ED
:1029A0000097A105B105C9F0A6019501281B390BB7
:1029B0004A0B5B0BDA01C901885B9B40A040B04029
:1029C00060F00E94A30A8093600510926305109244
:1029D0006405109265051092660585EF93E00E94EC
:1029E000DC082091570530915805409159055091C8
:1029F0005A0586017501E21AF30A040B150BE61657
:102A0000F7060807190708F4E9C0A0925705B09225
:102A10005805C0925905D0925A0580916B058830AF
:102A200008F0D4C080916B058F5F80936B05E090B8
:102A30005B05F0905C0500915D0510915E05E11469
:102A4000F1040105110511F185EF93E00E94DC0806
:102A5000AE18BF08C00AD10A6A157B058C059D0512
:102A600088F480911D0485FD04C080ED97E00E94EC
:102A7000D80710925B0510925C0510925D051092CC
:102A80005E0504C080E090E00E94D80790918F0519
:102A9000907C90938F050091D7051091D605011772
:102AA000B1F18091D805823091F5905890938F05BF
:102AB00085EF93E00E94D208893010F048E002C010
:102AC000482F415030E013C03F5FA32FB0E0812F6B
:102AD00090E0FC01E355FA4F2081FD01E157FA4FE8
:102AE0002083A353BA4F2C930196182F1F713417CC
:102AF00010F4101749F71093D605832F895C909135
:102B00008F05892B80938F053093CD051AC02091B6
:102B1000D8052430D1F49091CD05EEECF5E0A0E994
:102B2000B5E0292F30E02E0F3F1F02C081918D9319
:102B3000E217F307D9F7995C80918F05982B909352
:102B40008F0583E08093D80523C0809152058230A1
:102B500029F4916090938F055E9A0FC090938F0532
:102B60005E98222319F481E08093D8058091D805DE
:102B7000833019F484E08093D805F89480911D0483
:102B8000877063E873E040E955E00E946309789438
:102B90005D9A809151050E948D0A85EF93E00E9415
:102BA000D208682F8FE895E00E94880FE0915105C8
:102BB000EF5FE0935105E83131F0F0E0EB50FC4F6E
:102BC0008785882359F41092510508C080916B05C0
:102BD000883009F45E9A89E080936B0580911D042A
:102BE000887171F18091F403823051F5809167050D
:102BF00090916805880F991F9093680580936705E9
:102C000083E08093F4030E94430C0E942729609381
:102C1000630570936405809365059093660561155F
:102C200071058105910561F481E090E0A0E0B0E0DC
:102C30008093630590936405A0936505B093660542
:102C400080911D0484FF1EC08091670590916805E6
:102C50008E7F0E94000A182F80915F0560916905A0
:102C60000E94230D082F80916005612F0E94230D83
:102C7000282F8091610560916205402F00911E040C
:102C80000E9423115D980E949A13DF91CF911F91AA
:102C90000F91FF90EF90DF90CF90BF90AF9008958D
:102CA0001092140585E6EFEAF4E0DF011D928A95A3
:102CB000E9F708951F93182F8F3719F0883009F01E
:102CC00042C0E0911405EE2309F45EC0E150E093A8
:102CD0001405F0E0E155FB4F108287E796E06DE0C8
:102CE0000E942D2E10E00DC0E12FF0E0E155FB4FCA
:102CF0006081772767FD709587E796E00E942D2E0B
:102D00001F5F80911405181778F387E796E060E25B
:102D10000E942D2E87E796E06DE00E942D2E10E098
:102D20000DC0E12FF0E0E155FB4F6081772767FD93
:102D3000709587E796E00E942D2E1F5F8091140505
:102D4000181778F31FC08B3119F40E94501622C057
:102D50008D3001F18A30F1F0809114058436A0F4B1
:102D6000612F772767FD709587E796E00E942D2EEB
:102D700080911405E82FF0E0E155FB4F10838F5F41
:102D80008093140580E007C087E796E067E00E9423
:102D9000CA2AF8CF81E01F9108951F93CF93DF9344
:102DA000C4E0D4E010E03BC087E796E062E271E067
:102DB0000E94612C87E796E0612F4AE050E00E9474
:102DC000D82B87E796E06FE271E00E94612C699151
:102DD00070E080E090E02091030430E040E050E0BB
:102DE0000E94C12E20E137E240E050E00E94C12E57
:102DF000DC01CB014091FA035091FB036091FC038D
:102E00007091FD03480F591F6A1F7B1F87E796E0EB
:102E10002AE030E00E949F2B1F5F183119F0888153
:102E2000882311F6DF91CF911F910895EF92FF92C1
:102E30000F931F93882339F487E796E068E07AE0E0
:102E40000E94E82A3BC090E00E94990824E630E006
:102E500040E050E00E94F32E122F032FF42EE52EB7
:102E6000622F732F842F952F2AE030E040E050E04E
:102E70000E94F32E87E796E0BA01A9012AE030E02C
:102E80000E94902B87E796E06EE20E94CA2A612F8B
:102E9000702F8F2D9E2D2AE030E040E050E00E9400
:102EA000F32EAB01BC0187E796E02AE030E00E94F8
:102EB000902B87E796E063E70E94FC2A1F910F9111
:102EC000FF90EF9008951F93CF93DF9387E796E0ED
:102ED0006EEF79E00E94A72A80911F04813041F4AF
:102EE00087E796E065EE79E00E94E82A10E055C099
:102EF000823029F487E796E06EEC79E0F5CF8430F4
:102F0000A9F787E796E06AEB79E0EECFC12FD0E032
:102F1000C930D1051CF0612F685C02C0612F6F5C65
:102F200087E796E00E94CA2A87E796E062EB79E09D
:102F30000E94A72ABE016F5F7F4F87E796E04AE0B5
:102F400050E00E943A2C87E796E067EA79E00E9419
:102F5000A72AC15EDB4FE981E03188F487E796E07C
:102F60006AE979E00E94A72A698170E06F5F7F4F6C
:102F700087E796E04AE050E00E944D2C0DC0F0E05B
:102F8000EF70F070EE0FFF1FEC55FC4F6081718108
:102F900087E796E00E94642C1F5F80913705181721
:102FA00008F4B4CF87E796E06FE779E00E94A72A9C
:102FB000809137040E94161787E796E064E679E06F
:102FC0000E94A72A809138040E94161787E796E08E
:102FD00069E479E00E94A72A809139040E941617BB
:102FE00087E796E06EE279E00E94A72A40912F04DD
:102FF00050913004609131047091320441155105B3
:103000006105710539F187E796E02AE030E00E941A
:103010009F2B87E796E06BEF78E00E94A72A8091CC
:1030200033040E94CC08AB01BC0187E796E02AE09C
:1030300030E00E949F2B87E796E067ED78E00E94E2
:10304000A72A87E796E0609134044AE050E00E94A6
:10305000EA2B06C087E796E06EEC78E00E94E82A4B
:1030600087E796E061EB78E00E94A72A609135043B
:103070007091360487E796E04AE050E00E94C42B46
:1030800087E796E064E978E00E94A72A60912E0421
:10309000603150F470E06F5F7F4F87E796E04AE061
:1030A00050E00E944D2C06C087E796E06BE878E080
:1030B0000E94E82A87E796E06EE678E00E94A72A59
:1030C00080912D0480FD03C063E371E002C067E3DB
:1030D00071E087E796E00E94642C87E796E061E55F
:1030E00078E00E94A72A80912D0482700E94380FF8
:1030F00087E796E062E378E00E94A72A80912D049A
:1031000084700E94380F87E796E063E178E00E94C0
:10311000A72A80912D0488700E94380FDF91CF91EB
:103120001F9108951F93CF93DF9387E796E062E5A1
:103130007BE00E94A72A4091FA035091FB03609123
:10314000FC037091FD0387E796E02AE030E00E94DF
:103150009F2B87E796E06CE37BE00E94A72A4091D3
:10316000FE035091FF03609100047091010487E712
:1031700096E020E130E00E949F2B87E796E066E230
:103180007BE00E94A72A87E796E0609102044AE06C
:1031900050E00E94EA2B87E796E060E17BE00E9426
:1031A000A72A87E796E0609103044AE050E00E9476
:1031B000EA2B87E796E06AEF7AE00E94A72AC4E04C
:1031C000D4E010E012C0112331F087E796E06BE302
:1031D00071E00E94612C87E796E069914AE050E037
:1031E0000E94D82B1F5F183119F08881882359F766
:1031F00087E796E00E94D22A87E796E064EE7AE0BD
:103200000E94A72A87E796E060911C044AE050E0FC
:103210000E94EA2B87E796E06FEC7AE00E94A72AEB
:10322000E0911D04F0E0E770F070EE0FFF1FEC532B
:10323000FC4F6081718187E796E00E94642C87E7EC
:1032400096E06AEB7AE00E94A72A80911D0490E044
:10325000887190708830910589F0893091051CF44F
:10326000892B39F01BC08031910569F04897B1F482
:103270000FC087E796E061EB7AE00EC087E796E043
:1032800065EA7AE009C087E796E06FE97AE004C072
:1032900087E796E065E97AE00E94E82A87E796E00A
:1032A00061E87AE00E94A72A4091F6035091F70363
:1032B0006091F8037091F90387E796E02AE030E027
:1032C0000E949F2B87E796E068E67AE00E94A72A93
:1032D00080911D0480720E94380F87E796E06FE4AA
:1032E0007AE00E94A72A80911D0480740E94380F02
:1032F00087E796E066E37AE00E94A72A80911D04A2
:1033000080780E94380F87E796E069E17AE00E94B2
:10331000A72A85EF93E00E94DC08AB01BC0187E798
:1033200096E02AE030E00E94902B87E796E064E187
:103330007AE00E94A72A85EF93E00E94DC089B01B7
:10334000AC0160E472E48FE090E00E94F32E87E726
:1033500096E0BA01A9012AE030E00E94902B87E7AD
:1033600096E061E17AE00E94E82ADF91CF911F9117
:103370000895EF92FF920F931F937C0107E716E0E9
:10338000C8016F2D70E04AE050E00E94B32BC801E5
:103390006EE20E94CA2AB701E4E076956795EA9545
:1033A000E1F76F707070C8014AE050E00E94B32BE3
:1033B000C8016EE20E94CA2A8FE0E822FF24C801F9
:1033C000B7014AE050E00E94B32B1F910F91FF908C
:1033D000EF9008950F931F93CF93DF932091AE0446
:1033E0002F3FA9F587E796E063E975E00E94A72AD9
:1033F00084E593E00E94B91987E796E062E775E0FB
:103400000E94A72A80913805909139050E94B91928
:1034100087E796E06FE375E00E94E82A87E796E089
:103420006CE175E00E94E82A87E796E064E075E0C9
:103430000E94E82A87E796E06FED74E00E94E82A90
:1034400087E796E00E94D22A0E94631769C012168D
:103450000CF066C0332727FD30958091370590E04A
:10346000821793070CF45CC087E796E06AEC74E07F
:103470000E94A72A6091AE04772767FD709587E7C1
:1034800096E04AE050E00E944D2C87E796E06FE915
:1034900074E00E94A72A04E110E03AC0C12FD0E0F6
:1034A000CC0FDD1FCA5EDA4F288130E08091AE0478
:1034B000992787FD909501972817390741F587E7E8
:1034C00096E06DE371E00E94612C87E796E0602F43
:1034D0004AE050E00E94D82B87E796E061E471E073
:1034E0000E94612CE981F0E0EF70F070EE0FFF1F99
:1034F000EC55FC4F6081718187E796E00E94612C5A
:1035000087E796E065E471E00E94612C0F5F1F5F22
:1035100080913605181710F287E796E00E94D22AAC
:10352000DF91CF911F910F910895CF92DF92EF928B
:10353000FF920F931F93DF93CF93CDB7DEB76C97B6
:103540000FB6F894DEBF0FBECDBF282F8091AE041A
:103550008F3F09F050C1822F992787FD9095A92FA1
:10356000B92FFC013A97EF36F10508F03DC1EC5C4C
:10357000FF4FEE0FFF1F0590F491E02D099487E7B0
:1035800096E067E471E0B4C087E796E067E471E035
:103590000E94642C22C187E796E063E571E00E94F7
:1035A000642C85E78983DE011296EFE1F4E08BE17C
:1035B00001900D928150E1F7CE0101966CE10E94DD
:1035C000C50F0E94430C83E08093F40368EC70E025
:1035D00080E090E00E944D298091F403843009F04E
:1035E00003C18FE70E94580A0E946C0A89838535BF
:1035F00009F0FAC087E796E061E874E00E94E82AE3
:1036000087E796E063E674E00E94E82A87E796E0A1
:1036100065E474E0B2C087E796E06BE671E00E9473
:10362000642C89E68983CE01019661E00E94C50F72
:103630000E94430C83E08093F40368EC70E080E028
:1036400090E00E944D298091F403843009F0CCC0B1
:103650008FE70E94580A0E946C0A89838E010E5FD0
:103660001F4F9DE1E92EF12CEC0EFD1E0E946C0A0D
:10367000D8018D938D01AE15BF05C1F7AFE1B4E060
:10368000FE0132968BE101900D928150E1F7898124
:10369000893409F0A9C087E796E067E274E00E94E8
:1036A000E82A87E796E069E074E00E94E82A87E765
:1036B00096E06BEE73E061C087E796E065E871E045
:1036C0000E94642C8EEF8093AE048EC0205227504F
:1036D000422F4053242F332727FD30958091370503
:1036E00090E0821793073CF487E796E064E971E085
:1036F0000E94642C79C04093AE046FC084E1809333
:10370000AE0487E796E064EB73E037C085E1809311
:10371000AE0487E796E06DE773E02FC086E1809303
:10372000AE0487E796E066E473E027C087E1809304
:10373000AE0487E796E06CEF72E01FC088E18093EB
:10374000AE0487E796E06BEE72E017C089E18093E4
:10375000AE0487E796E067ED72E00FC08AE18093E0
:10376000AE0487E796E062EC72E007C08BE18093DD
:10377000AE0487E796E06AE972E00E94E82A34C066
:1037800087E796E060E872E00E94E82A80912D04C5
:1037900091E01DC087E796E06AE672E00E94E82AA1
:1037A00080912D0492E013C087E796E065E572E012
:1037B0000E94E82A80912D0494E009C087E796E0F2
:1037C0006AE372E00E94E82A80912D0498E089273C
:1037D00080932D048FEF8093AE040E94EA1904C0F9
:1037E00087E796E00E94F42D87E796E00E94BA2DC5
:1037F000892BB1F777C1822F0E945A16882309F4CA
:1038000071C180911405882321F48FEF8093AE0459
:1038100061C18FEA94E060E070E040E050E00E9417
:103820006E069B01AC019091AE04963109F47CC008
:10383000973164F4943109F463C095310CF06AC097
:10384000892F81508D3008F035C113C0993109F4AA
:10385000E5C09A313CF4973109F470C0983109F011
:1038600029C1D2C09A3109F4E7C09B3109F022C1C5
:10387000F5C0E92FFF27E7FDF0958091370590E02F
:103880008E179F070CF416C1DA01C9010197A1092F
:10389000B1094097A105B10540F0FF2410E004E113
:1038A0006F010894C108D10826C0E15EFB4F822F4A
:1038B00081508083E7C0612F70E0660F771F6A5EDA
:1038C0007A4FFB01808190E08C159D0599F4802F43
:1038D00090E0A0E0B0E082179307A407B50749F491
:1038E000F601E15EFB4FDB0111968C918183FF2491
:1038F000F3940F5F1F5F809136051817E0F2C0C088
:103900002F3F31054105510511F008F0D3C0209338
:103910003704B8C02F3F31054105510511F008F0BB
:10392000C9C020933804AEC02F3F31054105510571
:1039300011F008F0BFC020933904A4C08091AF04F7
:103940008062803719F580EB94E060E070E040E041
:1039500050E00E946E069B01AC01DC01CB01019797
:10396000A109B1090897A105B10508F0B6C0CA01BF
:10397000B90124ED30E340E050E00E94C12E9B01EC
:10398000AC012A5E3C4A4A46554E24C0863611F5A3
:1039900080EB94E060E070E040E050E00E946E0652
:1039A0009B01AC01DC01CB010197A109B10907978B
:1039B000A105B10508F091C0CA01B90128EA31E6B4
:1039C00040E050E00E94C12E9B01AC01245E3C43CC
:1039D0004E46544E211531054105510561F0DA017D
:1039E000C9018054914EAD49B8418158904FAA4FBA
:1039F000B24008F05FC020932F043093300440930E
:103A00003104509332043EC02F3F3105410551052A
:103A100011F008F04FC02093330434C0DA01C9011B
:103A20000197A109B1098F3F9105A105B10508F0E2
:103A300041C02093340426C0DA01C901845C994056
:103A4000A040B0408D549D41A040B04038F4309328
:103A5000360420933504FF24F39401C0FF2421157C
:103A600031054105510511F48FEF07C021313105B2
:103A70004105510528F4822F815080932E0402C005
:103A8000FF20C1F0809115058823D1F48091FE03B9
:103A90009091FF03A0910004B09101040196A11D33
:103AA000B11D8093FE039093FF03A0930004B09395
:103AB000010406C087E796E066EA71E00E94642C84
:103AC0000E9450168FEF8093AE0487E796E06AE07D
:103AD0000E94FC2A0E94EA1905C021E030E040E083
:103AE00050E07DCF6C960FB6F894DEBF0FBECDBF11
:103AF000CF91DF911F910F91FF90EF90DF90CF90CA
:103B0000089587E796E06EEE71E00E94E82A87E765
:103B100096E066ED71E00E94E82A87E796E00E9451
:103B2000BA2D892B31F087E796E00E94F42D0E9490
:103B3000951A0E940312823019F0833069F405C08F
:103B400087E796E068EB71E004C087E796E061EAFA
:103B500071E00E94E82A08958FEF8093AE041092DE
:103B600015050E94EA190CC087E796E00E94BA2D5D
:103B7000892B31F087E796E00E94F42D0E94951A78
:103B80008091AE048E3F81F708958091AE04843019
:103B900009F46FC0853084F4813009F45BC0823051
:103BA00024F48F3F09F085C014C0823009F457C057
:103BB000833009F07EC058C0863009F464C0863076
:103BC0000CF45CC0873009F463C0893009F071C01F
:103BD0006AC087E796E066E078E00E94E82A84E51C
:103BE00093E00E94B91987E796E06EEE77E00E94B5
:103BF000E82A87E796E069EC77E00E94E82A87E701
:103C000096E06FE977E00E94E82A87E796E06EE7A2
:103C100077E00E94E82A87E796E061E577E00E9476
:103C2000E82A87E796E06BE277E00E94E82A87E7D8
:103C300096E067E077E00E94E82A87E796E060EE8A
:103C400076E00E94E82A87E796E00E94D22A0E9446
:103C500092182FC087E796E063EC76E028C087E7EC
:103C600096E06EE976E023C087E796E069E876E0C3
:103C70001EC087E796E06AE676E019C087E796E01F
:103C800066E276E014C087E796E061E176E00FC077
:103C900087E796E06CEF75E00E94E82A87E796E0F8
:103CA00066EB75E004C087E796E060EA75E00E9485
:103CB000E82A6AE070E080E090E00E944D2904C0AC
:103CC00087E796E00E94F42D87E796E00E94BA2DE0
:103CD000892BB1F708952F923F924F925F926F9286
:103CE0007F928F929F92AF92BF92CF92DF92EF928C
:103CF000FF920F93DF93CF93CDB7DEB7A8970FB6A0
:103D0000F894DEBF0FBECDBF7E010894E11CF11C0C
:103D100080E1D7011D928A95E9F75E985D9887E763
:103D200096E064EC71E00E94642C0E94C81220E4CA
:103D300031EE4DE958E129A33AA34BA35CA380ECF3
:103D400091EDA8E9BBE18D8F9E8FAF8FB8A324EFD3
:103D500031E040E050E0298F3A8F4B8F5C8F30E5A7
:103D6000832E33EC932EA12CB12C80E491EEADE99F
:103D7000B8E18D8B9E8BAF8BB88F442455243201D4
:103D800000E022243324198A1A8A1B8A1C8A0DC156
:103D900087E796E00E94F42D8434C9F0853434F42A
:103DA0008332C9F18C3209F0CEC046C0833509F0A8
:103DB000CAC029A13AA14BA15CA1C901DA018D8B2E
:103DC0009E8BAF8BB88F442455243201EEC087E719
:103DD00096E064E40E94CA2A87E796E040E451EE48
:103DE0006DE978E12AE030E00E94FE2B87E796E05B
:103DF0006CE20E94CA2A87E796E040EC51ED68E940
:103E00007BE12AE030E00E94FE2B87E796E06CE23F
:103E10000E94FC2ACAC019821A821B821C821D823F
:103E20001E821F82188619861A861B861C861D868E
:103E30001E861F86188A3CC00F5F043009F0B5C08B
:103E400069817A818B819C8128EE33E040E050E0EB
:103E50000E94C12E69A37AA38BA39CA36D817E814E
:103E60008F8198850E94C12E6D8F7E8F8F8F98A332
:103E700029853A854B855C85298F3A8F4B8F5C8FDE
:103E80006D857E858F85988928EE33E040E050E08F
:103E90000E94C12E4B015C0160323EE4730730E0AA
:103EA000830730E0930730F48CE162E30E94820ADA
:103EB00000E07BC0603345E7740740E0840740E0E2
:103EC000940718F48CE162E2F1CF60345CE9750785
:103ED00050E0850750E0950718F48CE166E2E6CFE4
:103EE00080E5881683EC980680E0A80680E0B80696
:103EF00018F48CE162E1DACF90E689169AEE990621
:103F000090E0A90690E0B90618F48CE165E1CECF07
:103F1000A0E78A16A1E19A06A1E0AA06A0E0BA06E7
:103F200018F48CE161E0C2CFB0EA8B16B6E89B06CC
:103F3000B1E0AB06B0E0BB0618F48CE163E0B6CFAD
:103F40008CE165E0B3CF80538A3078F5C02EDD2454
:103F5000CC0CDD1CCC0CDD1CE1E0F0E0EC0FFD1F17
:103F6000CE0EDF1E282F332727FD3095432F532FEA
:103F70002DA33EA34FA358A7D6016D917D918D919E
:103F80009C912AE030E040E050E00E94C12E2DA13B
:103F90003EA14FA158A5260F371F481F591FD60114
:103FA0002D933D934D935C93139787E796E00E9482
:103FB000BA2D892B09F0ECCE41145104610471042F
:103FC00099F46D897E898F89988D0E94F80A61E045
:103FD00070E080E090E00E944D2922242A9433244E
:103FE000198A1A8A1B8A1C8A298D3A8D4B8D5C8D01
:103FF0004216530664067506D0F40E94A30A298966
:104000003A894B895C89280F311D411D511D298B2F
:104010003A8B4B8B5C8B381608F4382E821508F4DB
:10402000282E0894411C511C611C711C64C06D89B0
:104030007E898F89988D28EE33E040E050E00E9421
:10404000F32E87E796E0BA01A9012AE030E00E944A
:10405000902B87E796E06CE20E94CA2A87E796E0F9
:10406000632D4AE050E00E94D82B87E796E06CE28F
:104070000E94CA2A69897A898B899C89A301920145
:104080000E94F32E87E796E0BA01A9012AE030E00A
:104090000E94902B87E796E06CE20E94CA2A87E78D
:1040A00096E0622D4AE050E00E94D82B87E796E028
:1040B0006CE20E94FC2A8D899E89AF89B88D880D9B
:1040C000991DAA1DBB1D8D8B9E8BAF8BB88F2D8D1F
:1040D0003E8D4F8D58A1281739074A075B0740F4DA
:1040E00089A19AA1ABA1BCA18D8B9E8BAF8BB88F00
:1040F00044245524320129A13AA14BA15CA1285E98
:1041000033404040504009F050CFA8960FB6F89485
:10411000DEBF0FBECDBFCF91DF910F91FF90EF902B
:10412000DF90CF90BF90AF909F908F907F906F90D7
:104130005F904F903F902F900895CF92DF92EF9233
:10414000FF920F931F93DF93CF93CDB7DEB7E8971E
:104150000FB6F894DEBF0FBECDBF7C01FC0182819B
:10416000883009F4ABC08930A8F4843009F45FC00A
:10417000853048F48230E9F1833008F04DC0813059
:1041800009F080C123C0863009F482C0873008F06E
:104190008BC060C0883609F4D4C0893650F48636A6
:1041A00009F4AFC0873608F0C5C0853609F06AC18A
:1041B0008FC08A3609F4FEC08A3608F4F2C08B3606
:1041C00009F438C1873C09F05DC149C1C70161E00C
:1041D00049E250E00E949A1105EF13E0C701F8018F
:1041E00061918F010E947A11F4E00E311F07B1F73F
:1041F00053C1C70162E04BE150E00E949A110FE108
:1042000014E0C701F80161918F010E947A11F4E076
:104210000A331F07B1F740C1C70163E041E050E036
:104220000E949A110E940312682FC70133C1C7016F
:1042300064E041E050E00E949A11C70161E00E94F1
:104240007A1187E796E0F70164810E942D2E0E9483
:104250006B1E28C14091360550E0440F551FC70121
:1042600065E00E949A1100E010E009C0F801EA5EE2
:10427000FA4FC70160810E947A110F5F1F4F809132
:10428000360590E0880F991F0817190778F304C1C5
:10429000C70166E042E050E00E949A11C70164E560
:1042A00073E00E948B11F8C0C70167E041E050E065
:1042B0000E949A11C70160913705ECC0C70168E000
:1042C00041E050E00E949A11C70160911E04E2C0D3
:1042D000C70165E641E050E00E949A11F70187812D
:1042E0009085899709F0D4C0D701E5EFF3E01996DE
:1042F0008C9119978193119684E0EE31F807B9F704
:10430000ABC0C70166E641E050E00E949A11F70198
:10431000878190854B9709F0BBC0D701EFE1F4E0AE
:1043200019968C9119978193119684E0EA33F807D6
:10433000B9F792C0C70167E641E050E00E949A11C8
:1043400089C0C70168E641E050E00E949A1185E704
:104350008983DE011296EFE1F4E08BE101900D928A
:104360008150E1F7CE0101966CE10E94C50F0E94D9
:10437000430C83E08093F40368EC70E080E090E00D
:104380000E944D298091F403843009F081C08FE7A9
:104390000E94580A0E946C0A8983853509F078C00A
:1043A0005BC0C70169E641E050E00E949A110E949B
:1043B000540852C0C7016AE641E050E00E949A11D9
:1043C00089E68D8FCE014D9661E00E94C50F0E9457
:1043D000430C83E08093F40368EC70E080E090E0AD
:1043E0000E944D298091F403843009F051C08FE779
:1043F0000E94580A0E946C0A8D8F8E01025E1F4F28
:1044000049E3C42ED12CCC0EDD1E0E946C0AF801AB
:1044100081938F01EC15FD05C1F7AFE1B4E0FE011A
:104420007E968BE101900D928150E1F78D8D89345C
:1044300079F512C0C7016BE641E050E00E949A1185
:10444000F70181850E948A130E940408892B21F4B8
:104450000E9454080E941F13C70161E01BC0C701DE
:1044600067EC41E050E00E949A11C70161E00E94B0
:104470007A1187E796E0F70164810E942D2E109251
:10448000400410C0C7016AEC41E050E00E949A115C
:10449000C70160E00E947A1187E796E0F701648126
:1044A0000E942D2EE8960FB6F894DEBF0FBECDBF4A
:1044B000CF91DF911F910F91FF90EF90DF90CF9000
:1044C00008956F927F928F929F92AF92BF92CF92F8
:1044D000DF92EF92FF920F931F93CF93DF9381E0D0
:1044E0008093400486E4E82E84E0F82E04E0C02E99
:1044F000D12CCE0CDF1C14E6612EB4E07B2EA6E09E
:104500009A2EF5E08F2EE2E0AE2E73E0B72EB8C003
:1045100087E796E00E94BA2D892B09F4B1C0A9C0A3
:1045200087E796E00E94F42D982F809341048091B4
:104530004204833021F1843028F4813099F08230B4
:10454000B8F409C0853009F450C0853020F18630B8
:1045500009F08FC067C0953B09F08BC081E0809364
:10456000420487C0923609F082C0A092420481C002
:104570009093430490934404B09242047AC0909381
:104580004604F701118280914404892780934404F2
:10459000709242046EC0D92FC0E020914604309141
:1045A00047042C2B3D2B30934704209346048091E5
:1045B00044048927809344048092420425363105BF
:1045C00008F457C081E494E06CEC41E050E00E94B4
:1045D0009A1181E494E061E00E947A1187E796E005
:1045E000609145040E942D2E42C0209148043091D4
:1045F0004904F901EF5BFB4F9187809144048927BF
:10460000809344042F5F3F4F309349042093480424
:1046100080914604909147042817390750F19092F1
:10462000420427C000914404091729F481E494E06E
:104630000E949D2013C01091430481E494E06BEC30
:1046400042E050E00E949A1181E494E0612F0E94C0
:104650007A1181E494E0602F0E947A11F601862D90
:1046600011928A95E9F71092490410924804109229
:10467000420487E796E00E94BA2D892B09F050CFBB
:1046800080914004813009F443CFDF91CF911F9195
:104690000F91FF90EF90DF90CF90BF90AF909F90E1
:1046A0008F907F906F900895DF92EF92FF920F931B
:1046B0001F93CF93DF930E94272961157105810510
:1046C0009105C9F30E9465061092FE031092FF0344
:1046D0001092000410920104DD24E090FE03F0909B
:1046E000FF030091000410910104102F0F2DFE2CE8
:1046F000EE240E9460062FEF30E040E050E00E9480
:10470000152FE60EF71E081F191FE092FE03F09208
:10471000FF030093000410930104D39484E0D8169F
:10472000E1F6C4E0D4E010E017C00E94600622E386
:1047300030E040E050E00E94152F6F5FE4E0F4E0CD
:1047400090E004C08191861781F39F5F9117D0F3A9
:1047500069931F5F183119F08881882331F7DF9141
:10476000CF911F910F91FF90EF90DF9008951F93CD
:104770001091AE041F3F09F0BFC0893409F466C030
:104780008A342CF5883309F476C089336CF480338D
:1047900009F481C081330CF06CC08B3109F44CC03A
:1047A000813209F0A3C03CC0813409F483C0823453
:1047B0003CF4893309F46DC0803409F097C030C0EF
:1047C000823409F482C0863409F090C04FC082362A
:1047D00009F47BC083368CF4883571F1893534F463
:1047E0008235E9F1833509F081C01FC08A3509F4AB
:1047F00078C0813609F07AC05DC0823781F1833795
:1048000034F4863699F1893609F070C01FC08837B4
:1048100099F08A3709F465C0833709F067C005C08D
:1048200087E796E067E471E017C00E941F1387E7EF
:1048300096E061ED71E006C00E94040887E796E00B
:104840006BEE71E00E94642C8EEF4EC00E94540803
:1048500087E796E06AE072E00E94642C47C00E94FD
:10486000542387E796E063E272E0F6CF0E94CD160C
:104870003DC0805339C087E796E06EE871E00E9442
:10488000E82A90911D04892F885F8871977E892B73
:104890000CC089E029C087E796E06BE771E00E94D1
:1048A000E82A80911D0490E2892780931D041093CB
:1048B000AE041CC087E796E065E671E00E94E82A36
:1048C00080911D0490E4892709C087E796E064E59C
:1048D00071E00E94E82A80911D04805880931D0495
:1048E00002C00E94811D8FEF8093AE048091AE04C0
:1048F0008E3F09F4E8C0DFC00E945A16882309F4ED
:10490000E2C080911405882321F48FEF8093AE04D8
:10491000D2C08FEA94E060E070E040E050E00E9496
:104920006E069B01AC018091AE04843009F441C055
:10493000853044F4823041F1833094F5813009F0C0
:1049400096C00DC0863009F467C086300CF43EC0B6
:10495000873009F469C0893009F089C075C0DA016F
:10496000C9018154914EAD49B8418F57904FAA4F1C
:10497000B24008F07CC02093FA033093FB034093CD
:10498000FC035093FD039AC02093FE033093FF0372
:10499000409300045093010481E0809315058EC07C
:1049A000283031054105510508F061C0209302040B
:1049B00085C0DA01C9010197A109B1090A97A105CA
:1049C000B10508F054C02093030478C08FEA94E046
:1049D0006BE371E00E948A0710E00EC0183130F4DA
:1049E000E12FF0E0EB50FC4F87871F5F80E090E005
:1049F0006BE371E00E948A07009759F00E946C07F0
:104A0000009761F706C0E12FF0E0EB50FC4F1786EE
:104A10001F5F1831C0F352C02530310541055105E3
:104A200030F520931C044AC0DA01C9010197A1099D
:104A3000B1090697A105B105D0F480911D04887FC6
:104A4000822B80931D043AC0DA01C9010197A109A4
:104A5000B1098050924CA140B04048F42093F60335
:104A60003093F7034093F8035093F90327C087E787
:104A700096E066EA71E00E94642C13C08091FE0308
:104A80009091FF03A0910004B09101040196A11D33
:104A9000B11D8093FE039093FF03A0930004B09395
:104AA00001040E9450168FEF8093AE0487E796E0D2
:104AB0006AE00E94FC2A0E94C51D05C08091150570
:104AC0008823E1F2EECF1F9108958FEF8093AE041B
:104AD000109215050E94C51D0CC087E796E00E9444
:104AE000BA2D892B31F087E796E00E94F42D0E94C1
:104AF000B7238091AE048E3F81F76AE070E080E0DA
:104B000090E00E944D2904C087E796E00E94F42DB2
:104B100087E796E00E94BA2D892BB1F708957F921E
:104B20008F929F92AF92BF92CF92DF92EF92FF92BD
:104B30000F931F93DF93CF93CDB7DEB7AA970FB62E
:104B4000F894DEBF0FBECDBF0E9419296B017C0116
:104B500081E00E94640B04C087E796E00E94F42D78
:104B600087E796E00E94BA2D892BB1F75E9811E095
:104B700032E6732E22E0822E912C8C0E9D1E5E0159
:104B80000894A11CB11C03E00E94192920E030E028
:104B90006C197D098E099F09693C71058105910594
:104BA00010F021E030E0812F90E028233923232BDF
:104BB000A9F10E9419296B017C015D9A80ED97E0B3
:104BC0000E94D8077982D401E5EFF3E089E20190F1
:104BD0000D928150E1F7C5016AE20E94C50F5D9810
:104BE00080E090E00E94D8070093F4030E94430CF9
:104BF00062E370E080E090E00E944D298091F40330
:104C0000843059F40093F4038FE70E94580A0E94FD
:104C10006C0A823411F410E001C011E08EE00E94B1
:104C20004D2A892B41F511E026C05E9A5D9A87E7EF
:104C300096E00E94F42D8D30910569F08E3091053B
:104C40001CF40A97B1F407C08332910569F08234ED
:104C5000910579F40CC087E796E066E471E00E9464
:104C6000E82A0E94652505C00E946B1E02C00E94B2
:104C700061225E985D9887E796E00E94BA2D892BA5
:104C800009F482CFD2CF87E796E00E94BA2D04972D
:104C90000CF187E796E00E94F42D82349105D1F45F
:104CA00087E796E00E94F42D8E34910599F487E70A
:104CB00096E00E94F42D8434910561F487E796E034
:104CC0000E94F42D819731F480E090E00E94D80793
:104CD0000E948F2508958F929F92AF92BF92CF929C
:104CE000DF92EF92FF920F931F938EE00E944D2A66
:104CF000892B09F0ACC068EC70E080E090E00E9485
:104D00004D2980E090E00E94D8070E9419295B019C
:104D10006C0140ECE42E42E1F42E012D112DE60E43
:104D2000F71E081F191F06C08EE00E944D2A892B0E
:104D300009F085C00E9419296E157F05800791072B
:104D400098F38EE00E944D2A892B09F078C080EDFF
:104D500097E00E94D8070E9419297B018C019924B1
:104D60009394882488E496E2A0E0B0E0A80EB91EEF
:104D7000CA1EDB1E29C0AE14BF04C006D10638F41B
:104D800080ED97E00E94D807882483941DC00E947C
:104D900019296E197F09800B910B693C71058105FA
:104DA000910590F00E9419297B018C0180E09920E7
:104DB00009F481E0982E882319F480E090E002C085
:104DC00080ED97E00E94D8078EE00E944D2A892B43
:104DD00091F280E090E00E94D807882051F1809104
:104DE0001E048F5F83700E948A1387E796E060E459
:104DF00072E00E94612C87E796E060911E044AE011
:104E000050E00E94EA2B0E940408892B39F087E7C2
:104E100096E06DE472E00E94642C19C087E796E08A
:104E20006AE672E00E94612C0E9454080E941F13DF
:104E30000EC00E9454230E941F130E94921887E7FD
:104E400096E06CE872E00E94642C0E948F251F910E
:104E50000F91FF90EF90DF90CF90BF90AF909F9019
:104E60008F90089580E069EC77E042E050E00E9486
:104E700054280895EF92FF920F931F930E94C01140
:104E800089E061E00E94AE2989E060E00E941A2A70
:104E900086E061E00E94AE2985E061E00E94AE29D3
:104EA0008EE060E00E94AE2988E060E00E94AE29BA
:104EB00088E061E00E941A2A81E161E00E94AE2947
:104EC00081E160E00E941A2A0E94D51187E796E0EE
:104ED00040E052EC61E070E00E94332D0E947913B3
:104EE0000E940408892B39F087E796E06DE472E0B0
:104EF0000E94642C0AC087E796E06AE672E00E948E
:104F0000612C0E9454080E941F130E94080D8FEF0D
:104F100080936B050E94322778940E9419297B01A7
:104F20008C0180916B058F3F09F0AFC00E94192959
:104F30006E197F09800B910B605D77408040904037
:104F400008F0A3C0EECF87E796E00E94F42D87E734
:104F500096E00E94BA2D892BB1F787E796E063EAC5
:104F600072E00E94612C84E593E00E94B91987E702
:104F700096E06AEB72E00E94612C87E796E064E0BD
:104F800070E04AE050E00E944D2C68EC70E080E058
:104F900090E00E944D290E9443264091F6035091D3
:104FA000F7036091F8037091F903DB01CA010197DF
:104FB000A109B1090497A105B10568F440936C05F6
:104FC000433029F040E052EC61E070E004C040EA78
:104FD00056E861E070E087E796E00E94332D0E947A
:104FE0006B265E9880E090E00E94D8070E94080D32
:104FF00080E00E94640B809151050E948D0A0E94FE
:10500000430C1092D6051092D7051092D8056CE289
:1050100071E080E090E00E944D2980ED97E00E94D1
:10502000D80764E670E080E090E00E944D2980E0BF
:1050300090E00E94D80710E015C064E670E080E0C0
:1050400090E00E944D2980ED97E00E94D80764E629
:1050500070E080E090E00E944D2980E090E00E94A6
:10506000D8071F5F80911E04181738F380911D0424
:1050700090E084FF14C020E088719070489709F494
:1050800021E0822F0E94E4110AC080ED97E00E9487
:10509000D8078EE061E00E941A2A5E9A58CF1F91CD
:1050A0000F91FF90EF900895823000F5E82FF0E027
:1050B000EE0FFF1FEE51FA4F71836083882319F0C2
:1050C0008130A1F408C0809169008C7F842B80938B
:1050D0006900E89A089580916900440F551F440FB4
:1050E000551F837F842B80936900E99A08951F924E
:1050F0000F920FB60F9211242F933F934F935F930C
:105100006F937F938F939F93AF93BF93EF93FF938F
:105110008091E2059091E305892B29F0E091E20569
:10512000F091E3050995FF91EF91BF91AF919F91A8
:105130008F917F916F915F914F913F912F910F9040
:105140000FBE0F901F9018951F920F920FB60F92DF
:1051500011242F933F934F935F936F937F938F937C
:105160009F93AF93BF93EF93FF938091E40590914A
:10517000E505892B29F0E091E405F091E505099515
:10518000FF91EF91BF91AF919F918F917F916F911F
:105190005F914F913F912F910F900FBE0F901F90F5
:1051A00018951F920F920FB60F9211242F933F93D1
:1051B0008F939F93AF93BF938091EA059091EB05F6
:1051C000A091EC05B091ED053091EE050196A11D81
:1051D000B11D232F2D5F2D3720F02D570196A11DD6
:1051E000B11D2093EE058093EA059093EB05A09303
:1051F000EC05B093ED058091E6059091E705A0914F
:10520000E805B091E9050196A11DB11D8093E60561
:105210009093E705A093E805B093E905BF91AF919E
:105220009F918F913F912F910F900FBE0F901F90E4
:1052300018958FB7F8942091EA053091EB054091CD
:10524000EC055091ED058FBFB901CA0108959FB7D4
:10525000F8942091E6053091E7054091E8055091DA
:10526000E90586B5A89B06C08F3F21F02F5F3F4F11
:105270004F4F5F4F9FBF542F432F322F2227280FAE
:10528000311D411D511D82E0220F331F441F551F48
:105290008A95D1F7B901CA010895EF92FF920F9351
:1052A0001F93CF93DF937B018C010E942729EB0191
:1052B0000EC00E9427296C1B7D0B685E7340C8F3EB
:1052C0000894E108F10801091109C851DC4FE11403
:1052D000F1040105110569F7DF91CF911F910F913D
:1052E000FF90EF900895789484B5826084BD84B572
:1052F000816084BD85B5826085BD85B5816085BDD1
:10530000EEE6F0E0808181608083E1E8F0E01082E9
:10531000808182608083808181608083E0E8F0E02A
:10532000808181608083E1EBF0E080818460808314
:10533000E0EBF0E0808181608083EAE7F0E080814B
:1053400084608083808182608083808181608083AB
:105350008081806880831092C1000895CF93DF938D
:10536000482F50E0CA018656944FFC0134914A57A9
:10537000544FFA018491882369F190E0880F991FB6
:10538000FC01E859F44FA591B491FC01EE58F44F9B
:10539000C591D491662351F42FB7F8948C91932F33
:1053A000909589238C93888189230BC0623061F4A6
:1053B0002FB7F8948C91932F909589238C938881A3
:1053C000832B88832FBF06C09FB7F8948C91832BC3
:1053D0008C939FBFDF91CF910895833071F084301B
:1053E00028F48130A1F0823021F514C08630B1F06C
:1053F0008730D1F08430E9F404C0809180008F7749
:1054000003C0809180008F7D80938000089584B5D3
:105410008F7702C084B58F7D84BD08958091B000E0
:105420008F778093B00008958091B0008F7D809336
:10543000B0000895FF920F931F93F62E482F50E06F
:10544000CA018255944FFC012491CA018656944F9B
:10545000FC0114914A57544FFA0104910023C9F0FA
:10546000222319F0822F0E94ED29E02FF0E0EE0FA9
:10547000FF1FEE58F44FA591B4919FB7F894FF2009
:1054800021F48C911095812302C08C91812B8C93F7
:105490009FBF1F910F91FF9008950F931F93482F67
:1054A00050E0CA018255944FFC012491CA018656EE
:1054B000944FFC0104914A57544FFA01149111235F
:1054C00019F420E030E015C0222319F0822F0E9449
:1054D000ED29812F90E0880F991F8458944FFC018B
:1054E000A591B4918C9120E030E0802311F021E06F
:1054F00030E0C9011F910F910895CF92DF92EF9292
:10550000FF920F931F93CF93DF937C016B018A016E
:10551000C0E0D0E00FC0D6016D916D01D701ED91D3
:10552000FC910190F081E02DC7010995C80FD91FAA
:10553000015010400115110571F7CE01DF91CF9197
:105540001F910F91FF90EF90DF90CF900895EF9211
:10555000FF920F931F93CF93DF937C018B01C0E0E9
:10556000D0E0F8010F5F1F4F6491662359F0D70117
:10557000ED91FC910190F081E02DC7010995C80FD4
:10558000D91FEFCFCE01DF91CF911F910F91FF90E7
:10559000EF900895DC01ED91FC910190F081E02DF8
:1055A00009950895EF92FF920F931F938C016DE080
:1055B0000E94CA2A7C01C8016AE00E94CA2A9C0192
:1055C0002E0D3F1DC9011F910F91FF90EF9008957F
:1055D000EF92FF920F931F937C010E94A72A8C01E8
:1055E000C7010E94D22A9C01200F311FC9011F91BF
:1055F0000F91FF90EF900895EF92FF920F931F93FA
:105600007C010E94CA2A8C01C7010E94D22A9C01F7
:10561000200F311FC9011F910F91FF90EF90089546
:10562000CF93DF93EC016115710519F420E030E0B0
:105630000FC0DB010D900020E9F71197A61BB70BF7
:10564000E881F9810280F381E02DAD0109959C018B
:10565000C901DF91CF9108954F925F927F928F920F
:105660009F92AF92BF92CF92DF92EF92FF920F93F1
:105670001F93DF93CF93CDB7DEB7A1970FB6F89402
:10568000DEBF0FBECDBF2C01742ECB01223008F43B
:105690002AE019A231E2C32ED12CCC0EDD1E822EBF
:1056A0009924AA24BB24672D752FA50194010E947B
:1056B000F32E79018A01C801B701A50194010E9466
:1056C000C12E472D461B0894C108D1084A3014F456
:1056D000405D01C0495CF6014083E114F10401051D
:1056E000110521F07E2C5F2DC801DDCFC201B6016E
:1056F0000E94102BA1960FB6F894DEBF0FBECDBF4F
:10570000CF91DF911F910F91FF90EF90DF90CF909D
:10571000BF90AF909F908F907F905F904F90089533
:10572000DC012115310541F4ED91FC910190F081EE
:10573000E02D642F099508950E942C2B0895EF9277
:10574000FF920F931F937C010E94902B8C01C70145
:105750000E94D22A9C01200F311FC9011F910F9175
:10576000FF90EF900895EF92FF920F931F939A018D
:105770007B0100E010E0B801A7010E94902B1F916F
:105780000F91FF90EF900895EF92FF920F931F9368
:105790007C010E94B32B8C01C7010E94D22A9C017C
:1057A000200F311FC9011F910F91FF90EF900895B5
:1057B000EF92FF920F931F939A01E62EFF2400E0D1
:1057C00010E0B801A7010E94902B1F910F91FF904C
:1057D000EF900895EF92FF920F931F937C010E9428
:1057E000D82B8C01C7010E94D22A9C01200F311FA7
:1057F000C9011F910F91FF90EF900895CF92DF9212
:10580000EF92FF920F931F93CF93DF93EC016A0106
:105810007B012115310541F4E881F9810190F08186
:10582000E02D642F09951BC02A303105B1F477FFB4
:1058300013C06DE20E94CA2A8C0144275527BA0181
:105840004C195D096E097F09CE012AE00E942C2BBC
:105850009C01200F311F04C02AE00E942C2B9C01C8
:10586000C901DF91CF911F910F91FF90EF90DF90D1
:10587000CF900895EF92FF920F931F937B019A01AF
:105880000027F7FC0095102FB801A7010E94FE2BFE
:105890001F910F91FF90EF900895EF92FF920F9359
:1058A0001F937C010E943A2C8C01C7010E94D22ACE
:1058B0009C01200F311FC9011F910F91FF90EF90A4
:1058C00008950E94102B0895EF92FF920F931F935B
:1058D0007C010E94612C8C01C7010E94D22A9C018C
:1058E000200F311FC9011F910F91FF90EF90089574
:1058F00008951F920F920FB60F9211242F933F938A
:105900004F938F939F93EF93FF938091C00082FDFD
:105910001DC04091C60020912F06309130062F5FA8
:105920003F4F2F73307080913106909132062817C7
:10593000390771F0E0912F06F0913006E151FA4FEE
:1059400040833093300620932F0602C08091C6001A
:10595000FF91EF919F918F914F913F912F910F90D8
:105960000FBE0F901F9018951F920F920FB60F92B7
:1059700011242F933F938F939F93EF93FF93209145
:1059800073063091740680917506909176062817FB
:10599000390731F48091C1008F7D8093C10014C01C
:1059A000E0917506F0917606ED5CF94F20818091CB
:1059B00075069091760601968F7390709093760697
:1059C000809375062093C600FF91EF919F918F9170
:1059D0003F912F910F900FBE0F901F9018958F92AF
:1059E0009F92AF92BF92CF92DF92EF92FF920F936E
:1059F0001F93DF93CF93CDB7DEB7FC0113821282E2
:105A000088EE93E0A0E0B0E084839583A683B7831B
:105A100086EE93E0918380837587648757874687F6
:105A2000318B208B138B028BF58AE48AD78AC68A46
:105A3000B18EA08E938E828E8F85848F8889858F7C
:105A40008989868F8A89878F8B8980A3CF91DF91FF
:105A50001F910F91FF90EF90DF90CF90BF90AF908C
:105A60009F908F900895AF92BF92DF92EF92FF9236
:105A70000F931F93CF93DF93EC017A018B01DD2409
:105A8000403081EE580780E0680780E0780711F029
:105A9000DD24D39491E0A92EB12CEC89FD89DD2081
:105AA00069F0C50108A002C0880F991F0A94E2F7A7
:105AB000808360E079E08DE390E005C0108260E8CB
:105AC00074E88EE190E0A80197010E94F32E215026
:105AD000304040405040569547953795279580E196
