:100000000C941E060C94EC280C9419290C944606AA
:100010000C9446060C9446060C9446060C94460630
:100020000C9446060C9446060C9453130C94460606
:100030000C9446060C9446060C9446060C94460610
:100040000C9446290C9446060C94342D0C94772D70
:100050000C9446060C9446060C9446060C944606F0
:100060000C9446060C944606351997197619791999
:100070007C197F1982198519881997199119C91A3C
:10008000CB1ACB1AC91ACB1ACB1ACB1ACB1ACB1A4A
:10009000CB1ACB1ACB1ACB1ACB1ACB1ACB1ACB1A38
:1000A0004F1ACB1ACB1ACB1ACB1ACB1AC019CB1AB0
:1000B000CB1ACB1ACB1ACB1ACB1ACB1ACB1ACB1A18
:1000C000CB1ACB1ACB1ACB1ACB1ACB1A5B1A5B1AE8
:1000D0005B1A5B1A5B1A5B1A5B1A5B1A5B1ACB1A08
:1000E000CB1ACB1ACB1ACB1ACB1AC0195A1A5A1AD6
:1000F0005A1A5A1ACB1A681A6E1A741A7A1A801A6D
:10010000861A8C1A921A9C1AA61AB01ABA1A011ACE
:10011000C319CB1ACB1ACB1ACB1A4F1ACB1ACB1A3C
:10012000CB1ACB1ACB1ACB1ACB1ACB1A591A591A8B
:10013000591A591ACB1A681A6E1A741A7A1A801A2E
:10014000861A8C1A921A9C1AA61AB01ABA1A011A8E
:10015000C319CB1ACB1ACB1ACB1A4F1AFE1AFE1A96
:10016000FE1AFE1AFE1AFE1AFE1AFE1AFE1AFE1ACF
:10017000FE1AFE1AFE1A151C151C151C151C151C42
:10018000151C431B4D1B571B611BBF1BC91BD81BD9
:10019000E91B711D861D921D9B1DAA1DCF1DD81D1B
:1001A000211EEA1D4A21502156215D216B218D21FE
:1001B000AB21456E746572206D656E752E2E2E0016
:1001C000546F67676C6564206D6963726F50504D42
:1001D00000546F67676C656420696E76657274653C
:1001E000642050504D2100546F67676C6564205443
:1001F00058206D7574696E672100546F67676C6570
:10020000642074656C656D65747279210050726F3D
:10021000746F636F6C206572726F72207769746897
:100220002052580054696D656F7574207768656E4B
:1002300020636F6E6E656374696E6720746F205201
:100240005800507265737320616E79206B65792058
:10025000746F2063616E63656C00436F6E6E6563DF
:1002600074696E6720746F2052582C20706F776508
:100270007220757020746865205258202877697440
:10028000682062696E6420706C7567206966206EF4
:100290006F74207573696E6720616C776179732064
:1002A00062696E642900546F67676C656420276912
:1002B0006D6D656469617465206F75747075742700
:1002C00000546F67676C65642027736C61766520E6
:1002D0006D6F64652700546F67676C6564202761E4
:1002E0006C776179732062696E642700546F676769
:1002F0006C65642050504D206368616E6E656C20A3
:100300006C696D69740053657420525353492069B8
:100310006E6A656374696F6E206368616E6E656C8A
:100320002028303D3D64697361626C652900536526
:10033000742050504D206D696E696D756D20737914
:100340006E630053657420626561636F6E20696E31
:1003500074657276616C0053657420626561636FC9
:100360006E2064656C617900536574206265616319
:100370006F6E206672657175656E637920696E2097
:10038000487A3A20303D64697361626C652C205074
:10039000783D504D52206368616E6E656C20782CFC
:1003A0002046783D465253206368616E6E656C202E
:1003B00078005365742050574D2073746F7020641B
:1003C000656C61792028302064697361626C6564B2
:1003D0002C20312D323535203D3D20302E317320FB
:1003E0002D2035306D696E29005365742050504DB5
:1003F0002073746F702064656C61792028302064EC
:10040000697361626C65642C20312D323535203D75
:100410003D20302E3173202D2035306D696E29003E
:10042000536574206661696C736166652064656CF0
:1004300061792028302064697361626C65642C20C6
:10044000312D323535203D3D20302E3173202D2089
:1004500035306D696E29002A2A2A2A2A2A2A2A2A50
:100460002A2A2A2A2A2A2A2A2A2A2A2A2A2A2A2AEC
:100470002A2A2A2A0052582041636B6564202D20C5
:1004800072657665727420737563636573736675E0
:100490006C21002A2A2A2A2A2A2A2A2A2A2A2A2AAD
:1004A0002A2A2A2A2A2A2A2A2A2A2A2A2A2A2A2AAC
:1004B000002A2A2A2A2A2A2A2A2A2A2A2A2A2A2AC6
:1004C0002A2A2A2A2A2A2A2A2A2A2A2A2A2A00528E
:1004D000582041636B6564202D20757064617465DC
:1004E000207375636365737366756C21002A2A2A0D
:1004F0002A2A2A2A2A2A2A2A2A2A2A2A2A2A2A2A5C
:100500002A2A2A2A2A2A2A2A2A2A0056616C696457
:100510002063686F69636573206172653A205B319F
:100520005D2D5B31365D20286368616E6E656C20E1
:10053000312D31362900536574206F7574707574D0
:1005400020666F7220706F727420005B585D2061AE
:10055000626F7274206368616E67657320616E6498
:10056000206578697420525820636F6E6669670051
:100570005B535D20736176652073657474696E6783
:100580007320746F205258005B525D20726576654F
:1005900072742052582073657474696E6773207486
:1005A0006F2064656661756C747300557365206EA9
:1005B000756D62657273205B312D445D20746F2010
:1005C0006564697420706F727473205B452D515D92
:1005D00020666F722073657474696E677300202DD6
:1005E00020726563656976657220636F6E66696700
:1005F000757261746F722C20727820737720000AF4
:100600000A6F70656E4C52536E67200053657420FC
:1006100073657269616C2062617564726174653AB8
:10062000200056616C69642063686F696365733A82
:100630002031202D20342B34202F2032202D203823
:10064000202F2033202D20382B34202F2034202D14
:10065000203132202F2035202D2031322B34202FF5
:100660002036202D20313600536574204368616E9A
:100670006E656C20636F6E6669673A20005365741F
:100680002044617461726174652028302D32293AEA
:10069000200053657420486F70206368616E6E653A
:1006A0006C7320286D61782032342C207365706162
:1006B000726174656420627920636F6D6D61732966
:1006C0002076616C69642076616C75657320312DCC
:1006D0003235353A2000536574206368616E6E656B
:1006E0006C2073706163696E6720287831306B48C5
:1006F0007A293A200053657420524620706F77653E
:10070000722028302D37293A200053657420524634
:10071000206D6167696320286865782920652E67E8
:100720002E20307844454144463030443A2000532E
:1007300065742062617365206672657175656E63AC
:10074000792028696E20487A293A20005B5A5D207A
:10075000656E746572207265636569766572206383
:100760006F6E66696775726174696F6E2075746902
:100770006C79005B465D20646973706C61792061FF
:10078000637475616C206672657175656E63696509
:10079000732075736564005B525D2063616C6375E3
:1007A0006C6174652072616E646F6D206B65792079
:1007B000616E6420686F70206C697374005B495DC2
:1007C000207265696E697469616C697A6520736508
:1007D0007474696E677320746F20736B65746368DB
:1007E0002064656661756C7473005B585D2072658A
:1007F00076657274206368616E67657320616E64EC
:100800002065786974206D656E75005B535D20739B
:100810006176652073657474696E677320746F20E8
:10082000454550524F4D20616E64206578697420B3
:100830006D656E7500557365206E756D62657273BA
:10084000205B302D395D20746F20656469742070E1
:100850006172616D657465727300202D2053797328
:1008600074656D20636F6E66696775726174696F18
:100870006E000A0A6F70656E4C52536E672000510D
:1008800029204F7574707574206265666F726520DB
:100890006C696E6B20283D465329203A2000502970
:1008A00020536C617665206D6F64652028657870D3
:1008B0006572696D656E74616C293A20004F29205C
:1008C00054696D65642042494E44206174207374FC
:1008D000617274757020203A20004E292050504DCE
:1008E000206F7574707574206C696D69746564200F
:1008F000202020203A200044495341424C454400E6
:100900004D292050504D205253534920746F20637D
:1009100068616E6E656C202020203A20004C2920F2
:1009200050504D206D696E696D756D2073796E63E1
:10093000202875732920203A200044495341424C15
:100940004544004B29204661696C736166652062ED
:100950006561636F6E20696E74762E2028312D32AA
:10096000353573293A20004A29204661696C736144
:10097000666520626561636F6E2064656C617920D5
:1009800028302D323535203D3E20313073202D204A
:100990003135306D696E293A200049292046616958
:1009A0006C7361666520626561636F6E206672714B
:1009B0002E203A200048292050574D2073746F7024
:1009C0002064656C6179202020202020203A2000BE
:1009D00047292050504D2073746F702064656C61FE
:1009E00079202020202020203A200046292046611E
:1009F000696C736166652064656C617920202020D4
:100A00002020203A200050574D206368616E6E65AB
:100A10006C200066756E6374696F6E3A2000292041
:100A2000706F72742000506F776572546F776572C3
:100A300000445446205548462033322D62697420C4
:100A400031306368004F70656E4C52536E67525878
:100A5000206D696E6920342F36636800466C7974A6
:100A6000726F6E2F4F72616E6765525820554846FF
:100A70002038636800525820747970653A20004429
:100A8000697361626C656400487A00203D3D200016
:100A900043616C63756C61746564207061636B6540
:100AA0007420696E74657276616C3A200042292068
:100AB0004D6963726F202868616C66292050504D23
:100AC000202020203A00412920496E766572746505
:100AD000642050504D20696E20202020203A0030A4
:100AE00029204D7574652062757A7A657220286DAB
:100AF0006F73746C79293A003929205365726961E2
:100B00006C2062617564726174653A00736D617224
:100B100074506F7274004672536B79005472616E38
:100B200073706172656E740044697361626C6564B0
:100B30000038292054656C656D657472793A2020FF
:100B40002020202020003729204368616E6E656CCC
:100B500020636F6E6669673A202000362920446161
:100B60007461726174652028302D32293A2020206A
:100B700000352920486F70206368616E6E656C7364
:100B80003A2020202020003429204368616E6E65C1
:100B90006C2073706163696E673A202000332920EE
:100BA000524620706F7765722028302D37293A2001
:100BB0002020003229205246206D616769633A2067
:100BC0002020202020202020003129204261736530
:100BD000206672657175656E63793A202020000089
:100BE00000000700020100000304060000000000EE
:100BF00000000001020408102040800102040810D7
:100C00002001020408102004040404040404040263
:100C10000202020202030303030303000000002395
:100C2000002600290000000000250028002B0000FD
:100C3000000000240027002A0000652E11241FBE9A
:100C4000CFEFD8E0DEBFCDBF13E0A0E0B1E0E8ED2C
:100C5000F2E602C005900D92A83CB107D9F716E064
:100C6000A8ECB3E001C01D92AA3CB107E1F71CE07B
:100C7000CCE3DCE004C02297FE010E94822FCA333D
:100C8000D107C9F70E94A12E0C946A310C94000080
:100C90008091AF05813019F482E08093AF05809197
:100CA000AF05833019F484E08093AF050895A895CB
:100CB0000895DC01ED91FC910190F081E02D099502
:100CC00008952091B0053091B105382748E0C90159
:100CD000880F991F37FF06C09C0151E2252750E17C
:100CE000352701C09C01415091F73093B105209305
:100CF000B005089589E38093B20580E092ECA1E00D
:100D0000B0E08093B3059093B405A093B505B0937C
:100D1000B60587E08093BF0580EC92E9ADEEB9E1BE
:100D20008093B7059093B805A093B905B093BA0521
:100D300085E08093C0058DEE9EEFADEABEED809319
:100D4000BB059093BC05A093BD05B093BE05E1EC37
:100D5000F5E080E090E0863028F4DC01AE54BC4F32
:100D60002C9101C020E0219301968831910599F7DB
:100D700082E08093D9058AE08093DA05089580ECBB
:100D800091EDA8E9BBE18093F7059093F805A09356
:100D9000F905B093FA0580E090E0A0E0B0E580931B
:100DA000FB059093FC05A093FD05B093FE05EFEFC6
:100DB000F5E080E081938F5F8031E1F70895A0E056
:100DC000B0E0E5EEF6E00C944B2FD82F0E949C2962
:100DD0006115710581059105C9F30E94DA2F109202
:100DE000BB051092BC051092BD051092BE05C4E073
:100DF000812C912C54018A94C090BB05D090BC05E5
:100E0000E090BD05F090BE05FE2CED2CDC2CCC2432
:100E10000E94D52FA50194010E942A2F6C0D7D1DE3
:100E20008E1D9F1D6093BB057093BC058093BD050F
:100E30009093BE05C15001F7DD2309F450C001ECC9
:100E400015E0E801A12CB12C62E3C62ED12CE12CD7
:100E5000F12C8881882309F442C0B39419F40E94CC
:100E60007A063DC00E94D52FA70196010E942A2F25
:100E7000E1E0E60FA1ECB5E08A2F801B8A1520F493
:100E80008D918E13F9CFE9CF2091C00530E0A0E11C
:100E9000B7E20E94AE2E9B01AC01AE2FB0E00E94E3
:100EA000BD2E4090B7055090B8056090B905709080
:100EB000BA05640D751D861D971D4090F70550906D
:100EC000F8056090F9057090FA0546165706680611
:100ED000790618F2E993A39488E1A812BACFCDB7A6
:100EE000DEB7E0E10C94672F8436910520F4BC0155
:100EF00080E090E017C09C018E3B910528F42A55B4
:100F00003109AAE0B0E00CC0823D910528F4245BD1
:100F10003109A4E6B0E004C02D5C3109A8E5B2E0D7
:100F20000E94AE2EA4E6B0E09B01AC010E94BD2E53
:100F3000089590E08C599F4F0E947407089582E0B5
:100F40008093B00085E08093B10061E083E00E946F
:100F5000492A60E083E00E94822A08950097C9F040
:100F60009C0140E050E068E478EE81E090E00E946F
:100F70002A2F2F3F31054105510529F020F02FEF91
:100F800030E040E050E02093B3008091B0008061F9
:100F900003C08091B0008F7E8093B000089560E020
:100FA0008CE00E94492A61E08BE00E94492A61E0BE
:100FB0008DE00E94492A60E082E00E94492A61E0B7
:100FC00084E00E94492A089542E050E068E476E017
:100FD00080E00E94CC280895E3E0F0E089E080936F
:100FE0005700E491E67081E0E63009F080E0089572
:100FF000CF93DF93C82F0E94EC07882381F0DFB7DF
:1010000081E08093AE05F8940E94570688E18093B2
:101010006000C0936000C1110E945706DFBFDF91DE
:10102000CF910895FC0190A5E92FE770F0E0E65814
:10103000FC4F8081292F287119F0813108F481E15A
:1010400095FD81E20895FC0180A585FF02C081E243
:10105000089581E108958F929F92AF92BF92CF92AF
:10106000DF92EF92FF921F93CF93DF9300D000D0D7
:10107000CDB7DEB77C010E941208A82FB0E0F701BF
:1010800010A517FF03C024E130E002C02FE030E0DC
:10109000F70197A183E1989FF0011124E25CFE4FD4
:1010A00080809180A280B380A20FB31F20E43FE133
:1010B0004DE750E00E94C82EA50194010E94082F20
:1010C000812F887149F469017A0190EDC90E97E08A
:1010D000D91EE11CF11C38C0C70129833A834B8318
:1010E0005C830E942308A82FB0E029813A814B81BC
:1010F0005C8117FF03C0E4E1F0E002C0EFE0F0E044
:1011000069017A0198EBC90E9BE0D91EE11CF11C24
:1011100096E4899FA0011124662757FD6095762FDC
:10112000C40ED51EE61EF71EAE0FBF1F20E43FE122
:101130004DE750E00E94C82EA50194010E94082F9F
:10114000C20ED31EE41EF51EC701B60169517C4FC5
:101150008F4F9F4F28EE33E040E050E00E94082F71
:10116000A8EEB3E00E94BD2E0F900F900F900F904D
:10117000DF91CF911F91FF90EF90DF90CF90BF90C4
:10118000AF909F908F9008958F3F910551F048F058
:10119000811522E0920738F08115934030F482E007
:1011A000089580E0089581E0089583E00895A0E027
:1011B000B0E0EDEDF8E00C94542FEB018A01B82F6C
:1011C000B695A0E028813981F80120832A813B81EE
:1011D00021832C813D8122832E813F81238368815D
:1011E00079814A815B812C813D81EE81FF819F2F36
:1011F0009295990F990F907C272F2370922B252F72
:101200002370220F220F922B232F23702295207FF1
:10121000922BF80194830B5F1F4F2896AF5FBA178C
:1012200088F680FF24C0888199810E94C408D82E46
:101230008A819B810E94C408E82E8C819D810E9436
:10124000C408F82E8E819F810E94C408F0E4DF9EBE
:10125000A001112490E1E99E90011124242B282B58
:10126000E4E0FE9EB0011124262BF8012083CDB7C7
:10127000DEB7E7E00C94702F803223E0920710F184
:10128000883E23E0920748F48752934061E170E082
:101290000E94E02E6F5F7F4F1AC0813D27E09207CA
:1012A00020F4BC016C5D734012C0803928E09207C5
:1012B00060F4865C974061E170E00E94E02E6C5023
:1012C0007C4F05C061E070E002C06FEF73E0CB01BE
:1012D00008958C30910550F441E1489F9001499F59
:1012E000300D1124C901805E9C4F0895853F23E095
:1012F000920718F484529C4F0895811524E09207B8
:1013000050F441E1489F9001499F300D1124C901DB
:1013100088569B43089580E998E008959C0136958E
:10132000279525753575821B930B9C0123733373A9
:10133000969587959695879583739373820F931FE0
:101340009C01F4E036952795FA95E1F7280F391FAF
:101350002F703F7041E051E0249FC001259F900D08
:10136000349F900D1124892F08952D98882319F00A
:1013700000002B9A02C000002B9800002D9A00005C
:1013800008952D9A000083B12D98000082958170F8
:101390000895CF93DF93D82F5C9A2D985C98C8E07E
:1013A0008D2F80780E94B509DD0FC150C9F72D98A7
:1013B000DF91CF9108958F770E94C9090895CF9347
:1013C000DF93D82FC8E08D2F80780E94B509DD0FFC
:1013D000C150C9F72D98DF91CF910895CF93DF9336
:1013E0002D98C8E080E0D82FDD0F0E94C1098D0F35
:1013F000C150C9F7DF91CF9108950E94DB090E9487
:10140000EE095C9A0895A1E0B0E0E9E0FAE00C94FE
:10141000592F806869830E94C9096981862F0E94BB
:10142000DF095C9A2196E2E00C94752FCF93C0916E
:10143000BB05C827E82FF0E0EE54FA4F678589E72F
:101440000E94030A6C2F8DE30E94030A6C2F82E432
:101450000E94030ACF91089586E20E94FD09089533
:10146000CF93DF93EC016C818CE10E94030A6D81C4
:101470008DE10E94030A6E818EE10E94030A6F8152
:1014800080E20E94030A688581E20E94030A69855E
:1014900082E20E94030A6A8583E20E94030A6B8546
:1014A00084E20E94030A6C8585E20E94030A6D852E
:1014B0008AE20E94030A6E858EE60E94030A6F8507
:1014C0008FE60E94030A688980E70E94030A6989FF
:1014D00081E70E94030A6A8982E70E94030ADF917A
:1014E000CF910895CF92DF92EF92FF92CF93DF9347
:1014F0006B017C01C11488E3D8068CE9E8068CE115
:10150000F80628F5C701B60120E836E948E950E0B9
:101510000E94082FE901689760E879E687E69FEF67
:101520000E94D02E6C0D7D1D8E1D9F1DD2E0660F7A
:10153000771F881F991FDA95D1F721E732E040E045
:1015400050E00E94082FF22EE32E80E421C0C70154
:10155000B60120E03DE241E351E00E94082FE9019D
:10156000689760E073ED8EEC9EEF0E94D02E6C0DBC
:101570007D1D8E1D9F1D660F771F881F991F21E7F8
:1015800032E040E050E00E94082FF22EE32E80E689
:101590006C2F6F71680F85E70E94030A6E2D86E736
:1015A0000E94030A6F2D87E70E94030ADF91CF9103
:1015B000FF90EF90DF90CF900895682F8DE60E9406
:1015C000030A08958F929F92AF92BF92CF92DF92BB
:1015D000EF92FF92CF93DF93D82F61E089E00E94D2
:1015E000822A62E370E080E090E00E94BF2960E020
:1015F00089E00E94822A62E370E080E090E00E942D
:10160000BF2983E00E94FD098093AD0584E00E941C
:10161000FD098093AC0560E086E00E94030A61E06A
:1016200087E00E94030A6FE789E00E94030A65E0F1
:101630008AE00E94030A65E18BE00E94030A62E1EE
:101640008CE00E94030A6DEF8DE00E94030A60E0C7
:101650008EE00E94030ADD2319F08BE291E008C0BE
:101660002091D90533E1239FC0011124825C9E4F54
:101670000E94300A6CE880E30E94030A6FE082E374
:101680000E94030A62E483E30E94030A8091DA0560
:1016900087FF02C064E101C06AE084E30E94030A9C
:1016A0006AE285E30E94030A6DE286E30E94030A70
:1016B00064ED87E30E94030A60E088E30E94030A66
:1016C00060E089E30E94030AD11109C0C090BB0504
:1016D000D090BC05E090BD05F090BE0507C025EA9E
:1016E000C22E21ECD22EED2C2EEDF22ECAE38F2C41
:1016F0009924AA24BB24682D8C2F0E94030A682DEC
:1017000085E08C0F0E94030AFE2CED2CDC2CCC24EF
:10171000CF5FCE3361F76FEF83E40E94030A6FEF70
:1017200084E40E94030A6FEF85E40E94030A6FEFCE
:1017300086E40E94030ADD2311F066E002C0609196
:10174000BF058DE60E94030A60E089E70E94030A54
:101750006091C0058AE70E94030A60E083E70E9467
:10176000030A60E084E70E94030AD11109C0609176
:10177000B7057091B8058091B9059091BA0504C07C
:1017800060EC72E98DEE99E10E94720ADF91CF91CF
:10179000FF90EF90DF90CF90BF90AF909F908F9091
:1017A000089561E087E00E94030A64E28EE70E94E8
:1017B000030A63E088E00E94030A60E088E00E9478
:1017C000030A65E087E00E94030A62E085E00E9468
:1017D000030A83E00E94FD098093AD0584E00E9426
:1017E000FD098093AC05089583E00E94FD09809374
:1017F000AD0584E00E94FD098093AC0561E087E0BF
:101800000E94030A6AE070E080E090E00E94BF2935
:101810000E94D10B00000895CF92DF92FF920F93A8
:101820001F93CF93DF931F92CDB7DEB7082F162FEC
:101830008EE399830E94030AF02EC02E9981D92E3F
:101840008C2D8F19811738F4F60161916F018FE7A4
:101850000E94030AF5CF64E085E00E94030A83E05A
:101860000E94FD098093AD0584E00E94FD098093EC
:10187000AC050E949C296093A8057093A9058093EC
:10188000AA059093AB0569E087E00E94030A81E016
:101890008093AF050F90DF91CF911F910F91FF9033
:1018A000DF90CF9008950F931F930E940C0C8091AE
:1018B000AF05813099F40E949C290091A8051091F0
:1018C000A9052091AA053091AB05601B710B820B15
:1018D000930B603A76488140910548F38091AF05BB
:1018E000813031F46EE971E08EE196E00E94882B40
:1018F0001F910F9108950F931F938091AF05823030
:1019000021F41092AF0581E020C08091AF058130B5
:10191000D9F40E949C290091A8051091A905209155
:10192000AA053091AB05601B710B820B930B613ADA
:1019300076488140910540F061E087E00E94030A0B
:101940001092AF0582E001C080E01F910F910895D1
:10195000CF93DF93EC014AE050E06D2F70E08EE111
:1019600096E00E94562C6EE28EE196E00E945A2B81
:10197000BE0144E0769567954A95E1F76F70772749
:101980004AE050E08EE196E00E94562CDF91CF9124
:101990000895D82FC0E0CD1780F45E9A64E670E019
:1019A00080E090E00E94BF295E9864E670E080E0ED
:1019B00090E00E94BF29CF5FEECF6CE271E080E043
:1019C00090E00E94BF29E6CF0F931F93CF93DF9340
:1019D000EC01062F15E0115051F0CE010E9451315B
:1019E000081741F0602FCE010E945931F4CF82E0F8
:1019F0000E94C90CDF91CF911F910F910895A0E033
:101A0000B0E0E5E0FDE00C944B2F482E562EC0E0F0
:101A1000D0E0612C712CE12CF12C00E010E04110A1
:101A20000CC06090100686E4689E30011124F9E134
:101A3000EF2EF12C06EF15E01EC091E049120FC009
:101A400060901006E6E46E9E30011124FBE16F0EFB
:101A5000711CE9E2EE2EF12C02EB15E00CC082E0E5
:101A6000481209C068E1662E77247394EE24E3944B
:101A7000F12C0FE016E043018C0E9D1E1092B10573
:101A80001092B0053401A62CA818B12CC301019600
:101A90006C01AE14BF04A8F4A00EB11E511006C014
:101AA000C3010E945131F501808305C0F5016081B9
:101AB000C3010E94E40CF50180810E946106360199
:101AC000E2CFC301511018C0C3010E945131B82E9A
:101AD000C6010E9451312B2D30E0322F2227282BB6
:101AE0008091B0059091B1058217930779F4C0E019
:101AF000D0E05524539493CF36016091B1050E94F4
:101B0000E40C6091B005C6010E94E40CC05EDE4F9B
:101B1000C13E92E0D90708F482CF852DCDB7DEB75C
:101B2000E0E10C94672F61E082E00E94FF0C0895D1
:101B300060E082E00E94FF0C80910F06853020F06B
:101B400010920F060E94930D80910F06809310064D
:101B5000089561E080E00E94FF0C61E081E00E9456
:101B6000FF0C089560E080E00E94FF0C882351F094
:101B700060E081E00E94FF0C882321F08091B20593
:101B8000893349F00E94BF060E947A0681E00E94D4
:101B9000DF060E94A90D0895882319F06AEA71E012
:101BA00002C06EEA71E08EE196E00E94882B0895F3
:101BB000FF920F931F93CF93DF9369EC7BE08EE14D
:101BC00096E00E94342B4091B7055091B805609182
:101BD000B9057091BA052AE030E08EE196E00E94E6
:101BE0005D2C63EB7BE08EE196E00E94342B40910C
:101BF000BB055091BC056091BD057091BE0520E10B
:101C000030E08EE196E00E945D2C6DE97BE08EE194
:101C100096E00E94342B4AE050E06091BF058EE1CF
:101C200096E00E94852C67E87BE08EE196E00E94BA
:101C3000342B4AE050E06091C0058EE196E00E94AE
:101C4000852C61E77BE08EE196E00E94342BC1ECAD
:101C5000D5E0F12C8E0188818823A9F0FF2031F096
:101C600061EB71E08EE196E00E94572B21964AE0ED
:101C700050E0F80160818EE196E00E944E2CF394D2
:101C8000F8E1FF12E7CF8EE196E00E94622B6BE550
:101C90007BE08EE196E00E94342B4AE050E06091B8
:101CA000D9058EE196E00E94852C66E47BE08EE10A
:101CB00096E00E94342BE091DA05E770F0E0EE0F39
:101CC000FF1FEE57FC4F608171818EE196E00E940C
:101CD000882B61E37BE08EE196E00E94342B8091BB
:101CE000DA058871883069F028F4811113C068E240
:101CF0007BE00CC0803141F0883161F46CE07BE026
:101D000005C06CE17BE002C066E17BE08EE196E01D
:101D10000E94762B68EF7AE08EE196E00E94342BE9
:101D20004091B3055091B4056091B5057091B60529
:101D30002AE030E08EE196E00E945D2C6FED7AE0C3
:101D40008EE196E00E94342B8091FB0580710E9409
:101D5000CC0D66EC7AE08EE196E00E94342B809107
:101D6000FB0580740E94CC0D6DEA7AE08EE196E06E
:101D70000E94342B8091FB0580720E94CC0D60E99B
:101D80007AE08EE196E00E94342B82EB95E00E948F
:101D90002B08AB01BC012AE030E08EE196E00E9406
:101DA0003F2C6BE87AE08EE196E00E94342B82EBC8
:101DB00095E00E942B089B01AC0160E472E48FE087
:101DC00090E00E94082FBA01A9012AE030E08EE1DC
:101DD00096E00E943F2C68E87AE08EE196E00E944F
:101DE000762BCDB7DEB7E5E00C94722F8F929F92E1
:101DF000AF92BF92CF92DF92EF92FF92811107C014
:101E00006FE77AE08EE196E00E94762B2FC090E09B
:101E10000E94740724E630E040E050E00E94082F62
:101E2000CA01B9012AE030E040E050E00E94082FEA
:101E300049015A016B017C012AE030E0B501A4019F
:101E40008EE196E00E943F2C6EE28EE196E00E94C9
:101E50005A2B2AE030E0B701A6018EE196E00E94FD
:101E60003F2C63E78EE196E00E949A2BFF90EF9063
:101E7000DF90CF90BF90AF909F908F9008951F9369
:101E8000CF93DF9365E77AE08EE196E00E94342BF2
:101E90008091DB05813041F46CE57AE08EE196E0DB
:101EA0000E94762B10E050C0823019F465E47AE08D
:101EB000F5CF843019F461E37AE0F0CF853091F703
:101EC00066E27AE0EBCFC12FD0E0C930D1050CF447
:101ED00041C068E3610F8EE196E00E945A2B6EE1EB
:101EE0007AE08EE196E00E94342BBE016F5F7F4F57
:101EF0004AE050E08EE196E00E941E2C63E17AE019
:101F00008EE196E00E94342BC552DA4FE981E0322F
:101F100018F566E07AE08EE196E00E94342B898124
:101F2000803130F06DE673E08EE196E00E94572B31
:101F300069816F7070E06F5F7F4F4AE050E08EE123
:101F400096E00E94272C1F5F80918405181708F4E3
:101F5000BACF0FC061E3BECFEF70F0E0EE0FFF1F0E
:101F6000EE56FC4F608171818EE196E00E94882BD5
:101F7000EACF6BEE79E08EE196E00E94342B8091FF
:101F8000F3050E94F60E60ED79E08EE196E00E9486
:101F9000342B8091F4050E94F60E65EB79E08EE11A
:101FA00096E00E94342B8091F5050E94F60E6AE9B6
:101FB00079E08EE196E00E94342B4091EB05509140
:101FC000EC056091ED057091EE0541155105610537
:101FD000710539F12AE030E08EE196E00E945D2C37
:101FE00067E679E08EE196E00E94342B8091EF0560
:101FF0000E949907AB01BC012AE030E08EE196E037
:102000000E945D2C63E479E08EE196E00E94342B1F
:102010004AE050E06091F0058EE196E00E94852C48
:1020200006C06AE379E08EE196E00E94762B6DE1CE
:1020300079E08EE196E00E94342B6091F105709179
:10204000F2054AE050E08EE196E00E946F2C60E0DD
:1020500079E08EE196E00E94342B6091EA056034CD
:1020600050F470E06F5F7F4F4AE050E08EE196E001
:102070000E94272C06C067EF78E08EE196E00E9470
:10208000762B6AED78E08EE196E00E94342B809109
:10209000E90580FF03C063EB71E002C067EB71E00C
:1020A0008EE196E00E94882B6DEB78E08EE196E061
:1020B0000E94342B8091E90582700E94CC0D6EE95C
:1020C00078E08EE196E00E94342B8091E9058470DF
:1020D0000E94CC0D6FE778E08EE196E00E94342BF1
:1020E0008091E90588700E94CC0DDF91CF911F91FE
:1020F00008950F931F93CF93DF93209181052F3F76
:10210000A9F56FEF75E08EE196E00E94342B80E92F
:1021100093E00E94A80C6EED75E08EE196E00E94BF
:10212000342B80918205909183050E94A80C6BEA64
:1021300075E08EE196E00E94762B68E875E08EE10E
:1021400096E00E94762B60E775E08EE196E00E94B3
:10215000762B6BE475E08EE196E00E94762B8EE1A3
:1021600096E00E94622B0E943F0F68C012160CF08E
:1021700065C0332727FD30958091840590E0821754
:1021800093070CF45BC066E375E08EE196E00E9475
:10219000342B60918105772767FD70954AE050E008
:1021A0008EE196E00E94272C6BE075E08EE196E0D0
:1021B0000E94342B10E008E2809185051817D0F5B5
:1021C000C12FD0E0CC0FDD1FCA57DA4F288130E095
:1021D00080918105992787FD9095019728173907E8
:1021E00039F56BEB71E08EE196E00E94572B4AE0E7
:1021F00050E0602F8EE196E00E944E2C6FEB71E074
:102200008EE196E00E94572BE981EF70F0E0EE0F2F
:10221000FF1FEE56FC4F608171818EE196E00E94B7
:10222000572B63EC71E08EE196E00E94572B0F5F15
:102230001F5FC2CF8EE196E00E94622BDF91CF91AB
:102240001F910F910895FF920F931F93CF93DF93E8
:10225000C1ECD5E0F12C8E0188818823D1F165ECA9
:1022600071E08EE196E00E94572B4AE050E06F2D1E
:102270008EE196E00E944E2C62ED71E08EE196E0D8
:102280000E94572B2196F801208130E0A0E1B7E2AF
:102290000E94AE2E9B01AC01A091C005B0E00E944F
:1022A000BD2EAB01BC018091B7059091B805A091FE
:1022B000B905B091BA05480F591F6A1F7B1F2AE064
:1022C00030E08EE196E00E945D2CF394F8E1FF127D
:1022D000C2CFCDB7DEB7E5E00C94722F10921B058C
:1022E00085E6ECE1F5E0DF011D928A95E9F70895B6
:1022F000CF93C82F8F3719F0883009F045C0E0918F
:102300001B05EE23D9F1E150E0931B05F0E0E45EFC
:10231000FA4F10826DE070E08EE196E00E9459065F
:10232000C0E080911B05C81760F4EC2FF0E0E45E7C
:10233000FA4F608170E08EE196E00E945906CF5F0F
:10234000F0CF60E270E08EE196E00E9459066DE009
:1023500070E08EE196E00E945906C0E080911B0576
:10236000C81778F5EC2FF0E0E45EFA4F608170E07A
:102370008EE196E00E945906CF5FF0CF67E08EE1D4
:1023800096E00E945A2B1DC08B3119F40E946E11E9
:102390001AC08D30C1F08A30B1F080911B058436AF
:1023A00068F76C2F70E08EE196E00E945906E0918C
:1023B0001B0581E08E0F80931B05F0E0E45EFA4F71
:1023C000C08380E001C081E0CF910895CF93C82FF2
:1023D0000E949C296093040570930505809306056F
:1023E00090930705C0931905CC2329F040E051EEE6
:1023F00060E070E004C040E855E260E070E08EE12B
:1024000096E00E94E42DCF91089590910805492F00
:102410004F7050E0BA016F5F7F4F292F30E0E4E04A
:1024200035952795EA95E1F76217730759F0FA0198
:10243000E75FFA4F808381E0890F8F70907F892B4F
:102440008093080508956EE770E08EE196E00E94A3
:1024500059060895A3E1B1E0E0E3F2E10C944C2FBA
:10246000E1ECF5E0712C8191882321F0739428E14F
:102470007212F9CF66ED71E08EE196E00E94882B32
:102480004AE050E0672D8EE196E00E94852C80E0C6
:102490000E94E20A0E94D10B8E010E5F1F4FC12CD9
:1024A000D12C7601C39466246A945C2C0E949029F6
:1024B0004B015C012091C00530E0A0E1B7E20E9431
:1024C000AE2E9B01AC01C701B6010E94D02E209117
:1024D000B7053091B8054091B9055091BA05620F22
:1024E000731F841F951F2091F7053091F8054091C7
:1024F000F9055091FA05261737074807590718F4C8
:10250000F801608225C08C2D0E94160A61E070E0FF
:1025100080E090E00E94BF29F80110820E9490297B
:10252000681979098A099B09643F71408105910501
:1025300040F40E942C0AF8019081981778F7808364
:10254000EDCF50FE03C05D985E9A02C05D9A5E9822
:102550002FEFC21AD20AE20AF20A0F5F1F4F8FEF63
:10256000C816D104E104F10409F09FCFCE01939580
:10257000FC01D82E7FEF68EC2E2F281B271510F0BA
:1025800051E056C0DE01129651E02FEF41E03D913F
:10259000321710F0322F01C0452F5F5F5F3F11F0FF
:1025A000232FF5CF4193242F30E0A1E0B0E0AC0F12
:1025B000BD1FA20FB31F5C93413079F0DE01A20F63
:1025C000B31F5C93423049F0AFEFBFEFAC0FBD1FBC
:1025D000A20FB31F6C934E3F78F6A2E0B0E0AC0FB1
:1025E000BD1FA20FB31F7C934D3F30F6A3E0B0E0B8
:1025F000AC0FBD1FA20FB31F6C93BECF452F242F6E
:1026000030E0FC01E20FF31F6081AFEFB0E0AC0FF0
:10261000BD1FA20FB31F2C91621748F44150DC017B
:10262000A40FB11D2C9120836C934111E8CF5F5F03
:10263000571520F3372D369520E0231770F4DC0171
:10264000A20FB11D4C91522F530FFC01E50FF11D4C
:1026500050815C9340832E5FF0CFF1ECEF2EF5E0DC
:10266000FF2E8C01802F8D19871598F4F801C190E9
:102670008F014AE050E06C2D8EE196E00E944E2CD6
:102680006CE28EE196E00E945A2BF701C1927F0125
:10269000E9CF8EE196E00E94622B81E0CD5EDE4FB5
:1026A000EFE00C94682F1F920F920FB60F92112437
:1026B0001F932F933F934F935F936F937F938F93CA
:1026C0009F93AF93BF93CF93DF93EF93FF93C0910B
:1026D0008600D09187008091C3049091C40420911A
:1026E000E504211155C09E01281B390B8091FB0583
:1026F0009091FC05A091FD05B091FE0585FD02C0FD
:1027000036952795253C49E03407B8F140910A01F8
:1027100050E060E070E02CE1B695A795979587951D
:102720002A95D1F70097A105B10521F481E090E049
:10273000A0E0B0E084179507A607B707D8F480910A
:102740000A018F3FB9F040E080910A01481780F4F8
:10275000842F90E0880F991FFC01EB53FB4F2081E1
:102760003181FC01E55FFE4F318320834F5FECCF69
:102770001092E60410920A010BC02D3B82E038074C
:1027800020F080910A018031D8F08FEF80930A0108
:10279000D093C404C093C304FF91EF91DF91CF9114
:1027A000BF91AF919F918F917F916F915F914F9169
:1027B0003F912F911F910F900FBE0F901F90189572
:1027C00010910A0181E0810F80930A01C9010E94E2
:1027D0003C09E12FF0E0EE0FFF1FEB53FB4F91831D
:1027E0008083D6CF83E0809380008AE98093810044
:1027F0008091FB0586FD05C08091810080648093F7
:1028000081008FEF9FEF90938900809388008091E3
:102810006F00806280936F000895CF93DF930E94D2
:10282000980D80911006843039F58FE00E94B52A0A
:10283000C1E0D0E0892B11F4C0E0D0E080E10E943B
:10284000B52A892B19F082E090E002C080E090E088
:102850008C2B9D2B8230910539F08330910539F016
:10286000019739F481E006C01092100605C082E09D
:1028700001C083E080931006DF91CF9108956F30FF
:1028800018F086958058089589E0689F802D11245E
:102890000895A0E0B0E0EFE4F4E10C94532FC82FCA
:1028A0000E949C29009138041091390420913A0427
:1028B00030913B046B017C01C01AD10AE20AF30A91
:1028C0009701860149E8C41643E1D406E104F10406
:1028D00010F010923C046093380470933904809394
:1028E0003A0490933B042091E5048FEF820F8230ED
:1028F000D8F5E0913C04EE2309F44EC1E13011F427
:1029000082E0B8C1E03108F034C181E08E0F8093DD
:102910003C04F0E0EB53FB4FC083803109F0ACC1C5
:10292000E7ECF4E0213029F4A181A695A6958081F9
:1029300008C080819181A92FA695A695A695969508
:102940008795A03148F4B0E090E0AA0FBB1FA55FC7
:10295000BE4F11969C938E931092E604329684E0BB
:10296000E53DF807F9F688C1233009F005C1E0918B
:102970003C04E11104C0CF3009F07EC10DC1E83143
:1029800048F481E08E0F80933C04F0E0EC53FB4F61
:10299000C08372C1E83109F0ECC0C111EAC040E067
:1029A00050E0ABE0CA01B3E0880F991FBA95E1F798
:1029B000A49F9001A59F300D1124F901EB53FB4F0B
:1029C0006081E1817E2F777075956795FC01EE0F30
:1029D000FF1FE55FFE4F71836083F901EA53FB4FF0
:1029E000B081B695B695B695E181FE2FF295FF0FB1
:1029F000F07E6F2F6B2BE695E695E6957E2F777030
:102A000075956795FC01EE0FFF1FE35FFE4F718325
:102A10006083F901E953FB4FB081B295B695B69545
:102A2000B370C181DC2FDD0FDD0F6D2F6B2BC295D5
:102A3000C695C695C370E281E170EE0FEE0F7E2F52
:102A40007C2B75956795FC01EE0FFF1FE15FFE4F34
:102A500071836083F901E753FB4FB081B695E18143
:102A6000FE2FF795FF27F7956F2F6B2BE6957E2F9F
:102A7000777075956795FC01EE0FFF1FEF5EFE4FB7
:102A800071836083F901E653FB4FB081B295BF704B
:102A9000E181FE2FF295F07F6F2F6B2BE295EF70A7
:102AA0007E2F777075956795FC01EE0FFF1FED5E29
:102AB000FE4F71836083F901E553FB4FB081BB1F6B
:102AC000BB27BB1FC181DC2FDD0F6D2F6B2BCC1FF4
:102AD000CC27CC1FE281E370EE0F7E2F7C2B759507
:102AE0006795FC01EE0FFF1FEB5EFE4F7183608365
:102AF000F901E353FB4FB081B695B695E181FE2F06
:102B0000F295FF0FFF0FF07C6F2F6B2BE695E6958C
:102B10007E2F777075956795FC01EE0FFF1FE95EBC
:102B2000FE4F71836083F901E253FB4F20812295B0
:102B3000269527703181E32FEE0FEE0FEE0F6E2FEB
:102B4000622B732F72957695777075956795FC015A
:102B5000EE0FFF1FE75EFE4F718360834F5F5F4F95
:102B60004230510509F01ECF8091DB0483FF1092A3
:102B7000E60410923C0480C0243009F07DC06091CE
:102B80003C0461110BC0C83AB1F41092B105109227
:102B9000B00588EA0E94610681E06CC0613019F4DA
:102BA000C093370404C0623031F4C09336048C2FD4
:102BB0000E9461065AC0E09136042E2F30E0220FA9
:102BC000331F462F50E0C9010296841795073CF049
:102BD000633268F7FA01EE53FB4FC083E8CF2D5FF5
:102BE0003F4F8C2F90E06091B0057091B105421776
:102BF000530749F4982F8827862797279093B10584
:102C00008093B00532C06817790769F58091370461
:102C1000813049F5E13118F080E180933604F0907D
:102C20003604C6ECD4E000E010E00F15D0F4FE014D
:102C30003197808190E0982F88272881822B63E04C
:102C4000969587956A95E1F70E943C09F801EE0F89
:102C5000FF1FE55FFE4F918380830F5F1F4F22961A
:102C6000E4CF1092E60410923C0480913C04882347
:102C700019F08F5F80933C04CDB7DEB7E8E00C9489
:102C80006F2FCF93DF93E82FF0E0EA50FA4FE18502
:102C9000E03150F4F894F0E0EE0FFF1FE55FFE4FD7
:102CA0008081918178945DC08EE08E0F8B3058F4D6
:102CB000F0E0E25FF10924E62E9FC0012F9F900D06
:102CC00011240C964EC0E03F09F446C038F4E131BF
:102CD00081F0E23191F0E03139F409C0ED3FB1F11A
:102CE000EE3FB9F1E13F79F180E092E03AC082E154
:102CF00001C083E10E94DE2A34C08FE00E94B52A21
:102D0000C1E0D0E0892B11F4C0E0D0E080E10E9466
:102D1000B52A892B19F082E090E002C080E090E0B3
:102D20008C2B9D2B8230910541F08330910541F031
:102D30000197A9F086EA92E014C08CE090E011C0FF
:102D400089E591E00EC086E090E00BC08AEF93E049
:102D500008C08FEF93E005C080E090E002C084EFF0
:102D600093E0DF91CF910895A2E2B0E0EAEBF6E1C3
:102D70000C94492F9E012F5F3F4F80E1D9011D9296
:102D80008A95E9F764E072E08EE196E029A33AA320
:102D90000E94882B0E94F40B1D8A1E8A1F8A188E9F
:102DA000312C212C00E0812C912C540170E4472E11
:102DB00071EE572E7DE9672E78E1772EE0E5CE2E75
:102DC000E3ECDE2EE12CF12C84EF91E0A0E0B0E00A
:102DD0008D8F9E8FAF8FB8A380EC91EDA8E9BBE1FA
:102DE000898F9A8FAB8FBC8F80E491EEADE9B8E10B
:102DF000898B9A8BAB8BBC8B8EE196E00E949C2CCE
:102E0000892B09F4E1C08EE196E00E94C92C9C0157
:102E100033272C32310509F442C0ACF4233231059A
:102E200009F0ABC019821A821B821C821D821E828D
:102E30001F82188619861A861B861C861D861E868A
:102E40001F86188A60C02434310529F023353105E6
:102E500009F4B2C092C064E48EE196E00E945A2B5D
:102E60002AE030E040E451EE6DE978E18EE196E051
:102E70000E94E82B6CE28EE196E00E945A2B2AE039
:102E800030E040EC51ED68E97BE18EE196E00E9494
:102E9000E82B6CE28EE196E00E949A2BADCF0F5F9B
:102EA000043009F0A9CF29813A814B815C81A8EED9
:102EB000B3E00E94BD2E698B7A8B8B8B9C8B2D810E
:102EC0003E814F8158850E94BD2E698F7A8F8B8FEE
:102ED0009C8F29853A854B855C852D8F3E8F4F8F42
:102EE00058A32D853E854F8558890E94BD2E6B01C4
:102EF0007C0160323EE473078105910530F462E3A2
:102F00008CE10E94030A00E077CF603345E7740745
:102F10008105910510F462E2F3CF60345CE9750736
:102F20008105910510F466E2EBCF80E5C81683ECCD
:102F3000D806E104F10410F462E1E2CF90E6C9168C
:102F40009AEED906E104F10410F465E1D9CFA0E7C7
:102F5000CA16A1E1DA06A1E0EA06F10410F461E084
:102F6000CFCFB0EACB16B6E8DB06B1E0EB06F10452
:102F700010F463E0C5CF65E0C3CF10ED180F1A3031
:102F800008F03ACFE1E0F0E0EC0FFD1F24E0029FF3
:102F9000E00DF11D11242081318142815381AAE08D
:102FA000B0E00E94BD2E610F711D811D911D6083D7
:102FB00071838283938320CF49885A886B887C8869
:102FC000812C912C540118CF81149104A104B104D7
:102FD00089F4C301B2010E94720A61E070E080E0EE
:102FE00090E00E94BF291D8A1E8A1F8A188E312CEC
:102FF00022242A948D8D9E8DAF8DB8A188169906B6
:10300000AA06BB06D0F40E942C0A2D893E894F895E
:10301000588D280F311D411D511D2D8B3E8B4F8B1F
:10302000588F381608F4382E821508F4282E3FEFF2
:10303000831A930AA30AB30A56C0C301B20128EE49
:1030400033E040E050E00E94082FBA01A9012AE0D5
:1030500030E08EE196E00E943F2C6CE28EE196E03B
:103060000E945A2B4AE050E0632D8EE196E00E94C8
:103070004E2C6CE28EE196E00E945A2B6D897E897F
:103080008F89988DA50194010E94082FBA01A9018A
:103090002AE030E08EE196E00E943F2C6CE28EE167
:1030A00096E00E945A2B4AE050E0622D8EE196E0B5
:1030B0000E944E2C6CE28EE196E00E949A2B4C0C02
:1030C0005D1C6E1C7F1C898D9A8DAB8DBC8D84150B
:1030D0009505A605B70520F449885A886B887C8831
:1030E000812C912C540129893A894B895C89283E8D
:1030F00033404105510509F07FCEA296E2E10C94E0
:10310000652FACE1B0E0E7E8F8E10C94532F0E94A2
:103110009C296B017C0181E00E94E20A14E703E034
:10312000198361E0CE0101960E94530C0093AF0514
:103130000E94D10B6AEF70E080E090E00E94BF290E
:103140008091AF05833089F48EE196E00E949C2C3B
:10315000892B59F40E949C296C197D098E099F09BD
:103160006038734C894C9140D8F28091AF05833020
:1031700009F44FC08FE70E94DB090E94EE098983A2
:10318000843511F083E05CC00E94EE091092820544
:10319000809383050E94EE0920918205309183057A
:1031A000280F311D30938305209382050E94EE097C
:1031B000809384050E94EE0980938505813110F784
:1031C000F12C0F2D10E08091850590E0880F991F5C
:1031D0000817190740F40E94EE09F801EA57FA4F60
:1031E0008083F394EECF80E7898361E0CE0101967E
:1031F0000E94530C83E08093AF050E94D10B62E3E1
:1032000070E080E090E00E94BF298091AF0583309C
:1032100011F482E015C08FE70E94DB090E94EE09DD
:103220008983803509F0AECF0BED15E00E94EE09E1
:10323000F80181938F01F5E0063F1F07B9F781E0A0
:103240006C96E8E00C946F2F80918105992787FD9B
:103250009095A92FB92FFC013196EB30F10508F0BC
:1032600066C0EC5CFF4F0C94802F62E778E08EE143
:1032700096E00E94762B80E993E00E94A80C6AE514
:1032800078E08EE196E00E94762B65E378E08EE1AF
:1032900096E00E94762B6BE078E08EE196E00E944B
:1032A000762B6AEE77E08EE196E00E94762B6DEB4E
:1032B00077E08EE196E00E94762B67E977E08EE179
:1032C00096E00E94762B63E777E08EE196E00E941D
:1032D000762B6CE477E08EE196E00E94762B8EE10F
:1032E00096E00E94622B0E94D80D21C06FE277E029
:1032F0001AC06AE077E017C065EF76E014C066EDAB
:1033000076E011C062E976E00EC06DE776E00BC0B2
:1033100068E676E08EE196E00E94762B62E276E047
:1033200002C06CE076E08EE196E00E94762B6AE0C7
:1033300070E080E090E00E94BF298EE196E00E945C
:103340009C2C892B29F08EE196E00E94C92CF5CFA8
:103350000895ACE1B0E0EFEAF9E10C94532F9091BD
:1033600081059F3F09F023C1482F50E0FA013A97A9
:10337000EF36F10508F00FC1E15CFF4F0C94802F90
:1033800061E172E0A0C06DE172E08EE196E00E9422
:10339000882B85E789838BE1EBEDF5E0DE01129662
:1033A00001900D928A95E1F76CE1CE0101960E94A1
:1033B000530C0E94D10B83E08093AF0568EC70E062
:1033C00080E090E00E94BF298091AF05843009F031
:1033D000E2C08FE70E94DB090E94EE0989838535F0
:1033E00009F0D9C06DEE74E08EE196E00E94762B74
:1033F0006FEC74E08EE196E00E94762B61EB74E056
:1034000096C065E372E08EE196E00E94882B89E623
:10341000898361E0CE0101960E94530C0E94D10B7A
:1034200083E08093AF0568EC70E080E090E00E945C
:10343000BF298091AF05843009F0ADC08FE70E94AD
:10344000DB090E94EE0989838E010E5F1F4F7E010A
:103450004DE1E40EF11C0E94EE09F80181938F0109
:10346000EE15FF05C1F78BE1FE013296ABEDB5E03D
:1034700001900D928A95E1F78981893409F08BC01A
:1034800063E974E08EE196E00E94762B65E774E0D4
:103490008EE196E00E94762B67E574E048C06FE409
:1034A00072E08EE196E00E94882B8EEF809381057A
:1034B00072C080528750805390918405981708F00D
:1034C00066C06EE572E08EE196E00E94882B63C0D4
:1034D00084E18093810560E274E029C085E18093F6
:1034E000810569EE73E023C086E18093810562EB7C
:1034F00073E01DC087E18093810568E673E017C023
:1035000088E18093810567E573E011C089E18093CC
:10351000810563E473E00BC08AE1809381056EE26C
:1035200073E005C08BE18093810566E073E08EE176
:1035300096E00E94762B2FC06CEE72E08EE196E052
:103540000E94762B8091E90591E01DC066ED72E046
:103550008EE196E00E94762B8091E90592E013C0FF
:1035600061EC72E08EE196E00E94762B8091E90595
:1035700094E009C066EA72E08EE196E00E94762B44
:103580008091E90598E089278093E9058FEF809382
:1035900081050E9479108EE196E00E949C2C892B77
:1035A00009F45BC18EE196E00E94C92CF4CF0E9421
:1035B0007811882309F451C180911B05811104C041
:1035C0008FEF8093810541C140E050E060E070E002
:1035D0008CE195E00E94E32F40918105042F112793
:1035E00007FD1095212F312FF8013197EB31F105AF
:1035F00008F01BC1E255FF4F0C94802F552747FD63
:1036000050952091840530E0241735070CF40DC146
:103610008B019C010150110921093109003211056A
:103620002105310558F0C0908505E7E8F5E0F12C5B
:10363000D12CA8E2EA2E415051090FC0FA01E552FF
:10364000FA4F61506083D9C0DF0111972C9130E0AF
:103650002417350729F0F3943296FC10F5CFCBC030
:103660000E2D10E020E030E0061717072807390775
:1036700041F42081DA01A552BA4F11962C93DD2432
:10368000D394E394E8CF6F3F71058105910511F064
:1036900008F0CBC06093F305B0C06F3F71058105A2
:1036A000910511F008F0C1C06093F405A6C06F3F0A
:1036B00071058105910511F008F0B7C06093F5051B
:1036C0009CC020911C0520622037E9F440E050E0C6
:1036D00060E070E08DE195E00E94E32F9B01AC017A
:1036E000DC01CB010197A109B1090897A105B1053A
:1036F00008F0AEC0A4EDB0E30E94BD2E6A5E7C4A25
:103700008A46954E24C02636E9F440E050E060E059
:1037100070E08DE195E00E94E32F9B01AC01DC019C
:10372000CB010197A109B1090797A105B10508F0DF
:103730008FC0A8EAB1E60E94BD2E645E7C438E462F
:10374000944E05C0611571058105910579F08B01D5
:103750009C010054114E2D4938410138F0EF1F07EC
:10376000FAEF2F07F2E03F0708F05FC06093EB0528
:103770007093EC058093ED059093EE053EC06F3F8E
:1037800071058105910511F008F04FC06093EF05B8
:1037900034C08B019C0101501109210931090F3FEF
:1037A00011052105310508F040C06093F00525C0E2
:1037B0008B019C01045C1940210931090D344DE154
:1037C00014072105310528F47093F2056093F10583
:1037D00014C0611571058105910521F48FEF809367
:1037E000EA050BC06134710581059105F0F4615063
:1037F0006093EA0502C0DD20C1F080911A058111B5
:103800001AC08091BB059091BC05A091BD05B091F7
:10381000BE050196A11DB11D8093BB059093BC050B
:10382000A093BD05B093BE0506C060E772E08EE1CF
:1038300096E00E94882B0E946E118FEF8093810585
:103840006AE08EE196E00E949A2B0E94791005C0F2
:1038500061E070E080E090E07ACF6C96E8E00C9454
:103860006F2F6AE572E08EE196E00E94762B62E4AB
:1038700072E08EE196E00E94762B8EE196E00E9447
:103880009C2C892B31F08EE196E00E94C92C0E947D
:10389000A9190E948118823029F0833051F46DE01B
:1038A00072E002C064E272E08EE196E00E94762B44
:1038B00008958FEF8093810510921A050E94791068
:1038C000809181058E3F69F08EE196E00E949C2CEC
:1038D000892BB1F38EE196E00E94C92C0E94A919B0
:1038E000EFCF08950F931F93109181051F3F09F0AB
:1038F000D2C0893409F457C000F5883309F469C08F
:1039000058F4803309F477C008F061C08B3109F4B2
:1039100040C08132B1F1B9C0813409F487C030F4BC
:10392000893309F466C0803461F1AFC0823409F490
:103930008EC0863409F448C0A8C0823609F487C016
:1039400078F4883531F128F48235C1F18335E1F01E
:103950009CC08A3509F494C0813609F467C095C0CB
:10396000823761F128F4863679F18936E1F08DC02D
:10397000883779F08A3709F483C0833709F085C026
:1039800003C061E172E015C00E94A90D6EE872E00B
:1039900004C00E94B20D68EA72E08EE196E00E94D7
:1039A000882B8EEF70C00E947A060E94BF0667ECDB
:1039B00072E08EE196E00E94882B67C081E00E9451
:1039C000DF0660EE72E0F5CF0E9423115EC08053E7
:1039D0005AC06AEF71E08EE196E00E94762B9091DA
:1039E000DA0588E0890F8871977E892B8093DA0544
:1039F0001AC089E048C067EE71E08EE196E00E944F
:103A0000762B8091FB059091FC05A091FD05B0916E
:103A1000FE0520E182278093FB059093FC05A0938F
:103A2000FD05B093FE05109381052FC061ED71E097
:103A30008EE196E00E94762B8091FB059091FC052B
:103A4000A091FD05B091FE0540E4842710C060EC14
:103A500071E08EE196E00E94762B8091FB059091BB
:103A6000FC05A091FD05B091FE0520E28227809320
:103A7000FB059093FC05A093FD05B093FE0502C0E5
:103A80000E94311C8FEF80938105809181058E3FCC
:103A900009F0D4C0DDC00E947811882309F4D8C091
:103AA00080911B05811104C08FEF80938105C6C0F2
:103AB00040E050E060E070E08CE195E00E94E32F90
:103AC00000918105112707FD1095212F312FF80155
:103AD0003197E930F10508F0B4C0E753FF4F0C947B
:103AE000802F8B019C010154114E2D4938410F3715
:103AF000104F2A4F324008F0A4C06093B70570936E
:103B0000B8058093B9059093BA0577C06093BB055B
:103B10007093BC058093BD059093BE0581E08093B2
:103B20001A056BC0683071058105910508F089C0E0
:103B30006093BF0562C08B019C01015011092109EE
:103B400031090A3011052105310508F07AC060936A
:103B5000C00553C061EB71E08CE195E00E941D311E
:103B600010E0009799F00E94F730009779F0183133
:103B700030F4E12FF0E0EE54FA4F87871F5F61EBDE
:103B800071E080E090E00E941D31EBCF1831A8F584
:103B9000E12FF0E0EE54FA4F17861F5FF7CF653044
:103BA00071058105910508F04CC06093D90525C0C9
:103BB0008B019C01015011092109310906301105C1
:103BC00021053105F0F52091DA05287F262B209379
:103BD000DA0513C08B019C0101501109210931093B
:103BE0000115124C2140310560F56093B3057093C7
:103BF000B4058093B5059093B60580911A0581119F
:103C000013C08091BB059091BC05A091BD05B091FA
:103C1000BE050196A11DB11D8093BB059093BC0507
:103C2000A093BD05B093BE050E946E118FEF8093E7
:103C300081056AE08EE196E00E949A2B0E94241989
:103C400007C060E772E08EE196E00E94882BECCF1F
:103C50001F910F9108958FEF8093810510921A059F
:103C60000E942419809181058E3F69F08EE196E0D3
:103C70000E949C2C892BB1F38EE196E00E94C92C06
:103C80000E94721CEFCF6AE070E080E090E00E943A
:103C9000BF298EE196E00E949C2C892B29F08EE1B1
:103CA00096E00E94C92CF5CF0895CF93C82F682FB6
:103CB0008EE196E00E94F62C9091A6059C279093A9
:103CC000A605CF910895A1E0B0E0E9E6FEE10C94ED
:103CD000592F99830E94551E9981892F0E94551E44
:103CE0002196E2E00C94752F1F93CF93DF93182F4A
:103CF000EB011092A60565EB70E08EE196E00E9464
:103D0000590662E670E08EE196E00E945906812F26
:103D10000E94551ECE010E94631EDF91CF911F911C
:103D200008956091A6058EE196E00E94F62C089514
:103D3000A1E2B0E0EEE9FEE10C94552F7B018A018F
:103D40008C3009F458C108F040C0863009F4BCC07A
:103D500018F5833009F491C070F4813009F472C011
:103D6000823009F05EC26BE170E082E00E94741E56
:103D70000BED15E078C0843009F487C0853009F078
:103D800050C26091850570E0660F771F85E00E9444
:103D9000741E06E815E086C0893009F4A7C070F4E7
:103DA000873009F49BC0883009F03BC261E070E0C5
:103DB00088E00E94741E8091100639C28A3009F48E
:103DC000D0C08B3009F4F7C02CC28A3609F47AC10E
:103DD000D8F4873609F43FC138F4853609F413C1A5
:103DE000863609F424C11DC2883609F43CC18936DF
:103DF00009F017C261E070E089E60E94741E0E941B
:103E00007A060E94BF060BC28D3609F4EAC138F467
:103E10008B3609F496C18C3609F49FC102C28E36E6
:103E200009F4F2C1873C09F0FCC161E070E087EC65
:103E30000E94741E81E00E94551E0E94911E1092E5
:103E4000A705F9C169E270E081E00E94741E02EBEF
:103E500015E0D8018D918D010E94551EB5E00B3DF6
:103E60001B07B9F7E6C1F80181918F010E94551E29
:103E7000F5E0063F1F07B9F7DCC161E070E083E0C1
:103E80000E94741E0E948118D2C161E070E084E03B
:103E90000E94741E81E00E94551E0E94911E0E9485
:103EA000B416C9C18091850590E0880F991F9801CB
:103EB000265835402817390708F0BBC1D8018D9125
:103EC0008D010E94551EEECF62E070E086E00E94F8
:103ED000741E80E993E00E94631EABC161E070E054
:103EE00087E00E94741E80918405A1C186E68983C3
:103EF00061E0CE0101960E94530C0E94D10B83E039
:103F00008093AF0568EC70E080E090E00E94BF29EC
:103F10008091AF05843009F58FE70E94DB090E948C
:103F2000EE098983863499F460E270E089E00E94AA
:103F3000741E10E10E94EE09082F0E94EE090E94F3
:103F4000551E802F0E94551E1150A1F772C161E0CD
:103F500070E089E00E94741E62C161E070E089E057
:103F600063C169E170E08AE00E94741E1092F60558
:103F70002091AE058091FB059091FC05A091FD0577
:103F8000B091FE05222311F0806801C08F778093E5
:103F9000FB059093FC05A093FD05B093FE0506EF8D
:103FA00015E0F80181918F010E94551EF6E00F3057
:103FB0001F07B9F73EC161E270E08BE00E94741EFA
:103FC0008091E6048F3F39F08091E60491E0980FEC
:103FD0009093E60402C08091E6040E94551E10E012
:103FE000812F0E9441160E9469090E94631E1F5F73
:103FF0001031B1F71EC161E070E08CE00E94741EC8
:1040000080910F0614C161E070E085E60E94741E85
:1040100089E2E816F10409F009C1D801E2EBF5E004
:104020008D91819385E0EB3DF807D1F7F8C061E011
:1040300070E086E60E94741EABE1EA16F10409F016
:10404000F5C0D801EBEDF5E08D91819385E0E63F79
:10405000F807D1F7E4C061E070E087E60E94741EC3
:104060000E94A90DDCC061E070E088E60E94741E29
:1040700085E789838BE1EBEDF5E0DE011296019097
:104080000D928A95E1F76CE1CE0101960E94530CE6
:104090000E94D10B83E08093AF0560E273E080E083
:1040A00090E00E94BF298091AF05843009F0BEC026
:1040B0008FE70E94DB090E94EE098983853509F0AC
:1040C000B5C0ADC061E070E08AE60E94741E89E66A
:1040D000898361E0CE0101960E94530C0E94D10BAE
:1040E00083E08093AF0560E273E080E090E00E949F
:1040F000BF298091AF05843009F098C08FE70E94F6
:10410000DB090E94EE0989838E010E5F1F4F7E013D
:10411000ADE1EA0EF11C0E94EE09F80181938F01D6
:10412000EE15FF05C1F78BE1FE013296ABEDB5E070
:1041300001900D928A95E1F78981893409F076C062
:104140006EC061E070E08BE60E94741ED8018C9115
:10415000809310060E94B20D62C061E070E08CE6B0
:104160000E94741EB0E2EB16F104E9F487E689833D
:104170000F5F1F4FFE013396CE0183969F012150A2
:104180003109D8014C91D9014C9398012150310942
:10419000D9012C9120830E5F1F4F3296E817F90743
:1041A00069F761E203C087E4898361E0CE0101968B
:1041B0000E94530C0E94D10B83E08093AF056CE406
:1041C00074E080E090E00E94BF298091AF058430C8
:1041D00069F58FE70E94DB090E94EE09873431F50B
:1041E0001EC061E070E08DE60E94741EB9E1EB161E
:1041F000F104E1F4D801E6EFF5E08D91819386E0DA
:10420000EF30F807D1F70BC061E070E08EE60E9456
:10421000741ED8018C9180930F060E94930D81E04B
:1042200006C061E070E08AEC0E94741E80E00E948B
:10423000551E0E94911EA196E6E00C94712FA0E0FD
:10424000B0E0E5E2F1E20C94532FCAECD3E014E6BF
:1042500006E035E0F32E44E0E42E53E0D52E62E094
:10426000C62E8EE196E00E949C2C892B09F49BC0FF
:104270008EE196E00E94C92C282F8093350440914E
:10428000340450E04730510560F7FA01EE52FF4F19
:104290000C94802F853B29F781E080933404E1CF93
:1042A000823609F07DC0C0923404DBCF80933304A2
:1042B00080933204D0923404D4CF9C0133273093BE
:1042C0003104209330049091320498279093320463
:1042D000E0923404C6CF382F222740913004509109
:1042E0003104242B352B30933104209330049091EA
:1042F0003204982790933204F09234042536310525
:1043000008F4AFCF61E070E08CEC0E94741E81E095
:104310000E94551E0E94911E43C020912E04309190
:104320002F04F901E653FC4F8083909132049827C3
:1043300090933204C901019690932F0480932E0428
:1043400020913004309131048217930708F489CF0B
:104350000093340486CF8091320482130BC06091A5
:104360002E0470912F044AEC53E0809133040E9494
:10437000981E0DC062E070E08BEC0E94741E80916C
:1043800033040E94551E8091A6050E94551EFE0111
:10439000812F11928A95E9F710922F0410922E0422
:1043A000109234045ECFCDB7DEB7E8E00C946F2FE7
:1043B00081E08093A7058091A705882349F08EE1CD
:1043C00096E00E949C2C892BB1F30E941F21F3CF11
:1043D0000895AAE2B0E0EFEEF1E20C94512F0E94B2
:1043E00090296B017C0181E00E94E20A8EE196E057
:1043F0000E949C2C892B29F08EE196E00E94C92C0A
:10440000F5CF5E9811E072E6B72EE9E2AE2E03E03A
:104410000E9490296C197D098E099F09693C7105DC
:1044200081059105D0F11123C1F10E9490296B0102
:104430007C015D9A80ED97E00E94AE07B982E2EBC5
:10444000F5E0DE0112968A2D01900D928A95E1F732
:104450006AE2CE0101960E94530C5D9880E090E0E4
:104460000E94AE070093AF050E94D10B62E370E09B
:1044700080E090E00E94BF298091AF05843061F414
:104480000093AF058FE70E94DB090E94EE0911E05F
:10449000823419F410E001C011E08EE00E94B52AC8
:1044A000892B81F411E00EC05E9A5D9A8EE196E050
:1044B0000E94C92C8D309105A9F05CF40A9791F007
:1044C0005E985D988EE196E00E949C2C892B61F7A6
:1044D0009FCF8332910579F08234910589F70E944C
:1044E000D821EECF62EB71E08EE196E00E94762B50
:1044F0000E942B1EE5CF0E94B416E2CF8F929F92AE
:10450000AF92BF92CF92DF92EF92FF921F93CF9321
:10451000DF938EE00E94B52A892B09F089C068ECF0
:1045200070E080E090E00E94BF2980E090E00E946F
:10453000AE070E9490294B015C016B017C0180EC6D
:10454000C80E82E1D81EE11CF11C0E9490296C1556
:104550007D058E059F0530F48EE00E94B52A892BDB
:10456000A1F364C08EE00E94B52A892B09F05EC0D9
:1045700080ED97E00E94AE070E9490296B017C01BC
:10458000D0E0C1E088E4880E86E2981EA11CB11C30
:1045900011E08EE00E94B52A892B21F58C149D0430
:1045A000AE04BF0430F480ED97E00E94AE07D1E086
:1045B000F0CF0E9490296C197D098E099F09693CF2
:1045C00071058105910528F30E9490296B017C01FA
:1045D000C12719F080ED97E002C080E090E00E94D2
:1045E000AE07D7CF80E090E00E94AE07DD23B9F0A0
:1045F00080910F0690E0019665E070E00E94F42E35
:1046000080930F060E94930D0E940D140E94B20D1C
:1046100064EF71E080E090E00E94BF2909C080E073
:104620000E94DF060E942A120E94A90D0E94E92121
:10463000DF91CF911F91FF90EF90DF90CF90BF90CF
:10464000AF909F908F900895CF92DF92EF92FF925C
:1046500080E00E94F8070E94CF0761E089E00E9495
:10466000492A60E089E00E94822A61E086E00E9497
:10467000492A61E085E00E94492A60E08EE00E94BC
:10468000492A60E08FE00E94492A61E08FE00E94A1
:10469000822A60E080E10E94492A61E080E10E9474
:1046A000822A60E088E00E94492A61E088E00E9456
:1046B000822A61E081E10E94492A60E081E10E9452
:1046C000822A0E949F0740E052EC61E070E08EE198
:1046D00096E00E94E42D0E940D140E94B20D0E94EB
:1046E000F2138FEF8093E6040E94E40778940E940F
:1046F00090296B017C018091E6048F3F59F40E9460
:1047000090296C197D098E099F09603D77408105CC
:10471000910588F380ED97E00E94AE0761E08EE09E
:104720000E94822A5E9A8EE196E00E949C2C892B40
:1047300029F08EE196E00E94C92CF5CF6DEF72E072
:104740008EE196E00E94572B80E993E00E94A80C2E
:1047500064E173E08EE196E00E94572B4AE050E05E
:1047600064E070E08EE196E00E94272C62E370E046
:1047700080E090E00E94BF298EE196E00E949C2C90
:1047800004970CF18EE196E00E94C92C82349105C9
:10479000D1F48EE196E00E94C92C8E34910599F4F3
:1047A0008EE196E00E94C92C8434910561F48EE17B
:1047B00096E00E94C92C819731F480E090E00E943D
:1047C000AE070E94E9214091B3055091B405609174
:1047D000B5057091B605DB01CA010197A109B109C0
:1047E0000497A105B10568F44093E504433029F42A
:1047F00040EA56E861E070E004C040E052EC61E05D
:1048000070E08EE196E00E94E42D0E947E225E9888
:1048100080E090E00E94AE070E94F2131092010522
:104820008091FB0583FF11C08091C705882351F05B
:104830008091CE05882331F08091D505882311F031
:1048400087E001C085E08093010580E00E94E20AD4
:10485000809102050E94160A0E94D10B10923F041B
:1048600010923E0410923D04F12C809110068F1599
:10487000B0F062E370E080E090E00E94BF2980ED3C
:1048800097E00E94AE0762E370E080E090E00E9453
:10489000BF2980E090E00E94AE07F394E6CF8091BC
:1048A000DA0584FF08C0982F987181E0983109F0EB
:1048B00080E00E94E6118FE00E94F807FF90EF90E1
:1048C000DF90CF900895EF92FF920F931F93CF93B5
:1048D000DF938C016EE770E08EE196E00E9459064E
:1048E000E801F12CF0E2EF2E8E0188818D578230A5
:1048F00048F46DE770E08EE196E00E9459068881E9
:104900008E2588832196F80160818EE196E00E94D1
:10491000F62CF394F9E0FF12E7CF6EE770E08EE13A
:1049200096E00E945906CDB7DEB7E6E00C94712FF1
:10493000A9E0B0E0EEE9F4E20C94592F9091030560
:1049400091110EC09EEF99838A836B8350E0559539
:1049500047954C832D83198618861F821E822EC090
:1049600040910805842F90E0B4E095958795BA951D
:10497000E1F7242F2F7030E08217930719F18DEFA4
:1049800089831B82FE01349650E0842F90E0A4E0DE
:1049900095958795AA95E1F7242F2F7030E082171F
:1049A000930749F0DC01A75FBA4F8C918193405F78
:1049B0005F5F563051F7409308055A83CE01019648
:1049C0000E9463248091030590E0019666E070E008
:1049D0000E94F42E809303052996E2E00C94752F33
:1049E000A0E0B0E0E6EFF4E20C94522F6C016EE729
:1049F00070E08EE196E00E9459068601E12CF12CD0
:104A0000C0E0D0E030E2B32EF801608183E8860F89
:104A1000823078F46DE770E08EE196E00E945906EE
:104A2000F80160816B2570E08EE196E00E945906E6
:104A300004C08EE196E00E94F62CE114F10459F0D6
:104A4000F80180819E01280F311DC901C92FDD2782
:104A5000C80FD91FDD273FEFE31AF30A89E0E816F4
:104A6000F10459F028E0E216F10421F48C2F80952E
:104A7000F60180870F5F1F4FC7CFCDB7DEB7E9E0E4
:104A80000C946E2FA9E0B0E0E8E4F5E20C94592F05
:104A9000E82F362F8091030590E0019664E270E0E4
:104AA0000E94F42E8093030558E9598350E15A83FC
:104AB000813089F048F08230B9F08330D9F48B83AB
:104AC00081EF8C833D8319C085E08B8381EF8C83DC
:104AD0002F5F2D8312C08B8381EF8C8384E6489FE8
:104AE000A00111245D8309C084E08B8381EF8C8356
:104AF000ED8303C00E94231204C0CE0101960E94E0
:104B0000F0242996E2E00C94752FA2E0B0E0EBE8E7
:104B1000F5E20C944E2F182F762E2A8349830E949B
:104B20009C296B017C01809119058090040590906F
:104B30000505A0900605B09007052A8149818823C4
:104B4000C1F0D701C60188199909AA09BB094C010E
:104B50005D0191EE89169EE29906A104B10420F14F
:104B6000241708F4422F202F672D812F0E94422501
:104B700013C0D701C60188199909AA09BB094C01BC
:104B80005D0191E3891695E79906A104B10460F0EF
:104B9000672D812F0E949824C0920405D0920505AC
:104BA000E0920605F09207052296EDE00C946A2F3C
:104BB000A2E2B0E0EEEDF5E20C944F2F8CE00E9403
:104BC000FD0981110DC06CE173E08EE196E00E9459
:104BD000882B5E9A80E00E94E20A0E94D10B5E98C8
:104BE0008EE196E00E949C2C892B01F18EE196E0EB
:104BF0000E94C92C9091E504992319F00E94491450
:104C0000EFCF40913E0450E09A012F5F3F4F2F714C
:104C1000332760913F0470E02617370709F3FA0144
:104C2000EF59FB4F808320933E04DACF8091AF058C
:104C3000843009F08CC00E949C29611571058105A2
:104C4000910549F06093F3047093F4048093F504A4
:104C50009093F6040CC081E090E0A0E0B0E0809377
:104C6000F3049093F404A093F504B093F6048091B8
:104C7000E9049091EA0481609093EA048093E90446
:104C800083E08093AF058FE70E94DB0901E814E021
:104C900082EB95E00E94230890E09801215834406F
:104CA0002817390734F40E94EE09F80181938F0127
:104CB000EFCF2091A20480918104982F922796FF34
:104CC00039C090E492279093A20485FF1EC010E0A3
:104CD000212F30E0809181048F7190E0821793073B
:104CE0004CF11F5F2091DA05812F90E0FC01EF5716
:104CF000FB4F24FF04C080810E940512E9CF608130
:104D00008EE196E00E94F62CE3CF8F7399F48091A8
:104D100082048093F204809183048093F004809154
:104D200084048093EF048091870490E09093E804DA
:104D30008093E70480913D04813019F482E08093F0
:104D40003D0480913D04833011F410923D040E9493
:104D50009C296B017C018091EB049091EC04A09163
:104D6000ED04B091EE040097A105B105C9F0A701CB
:104D70009601281B390B4A0B5B0BDA01C901883BF2
:104D80009B40A105B10560F00E942C0A8093F104BC
:104D90001092EB041092EC041092ED041092EE04C9
:104DA0008091F7049091F804A091F904B091FA046D
:104DB00046015701881A990AAA0ABB0A82EB95E0B4
:104DC0000E942B0886169706A806B90608F4ABC001
:104DD000C092F704D092F804E092F904F092FA0439
:104DE0000E9457068091E6048830A0F08091FB0570
:104DF0009091FC05A091FD05B091FE055CE1B69592
:104E0000A795979587955A95D1F7892B8A2B8B2B48
:104E100009F0B1C18091E6048F5F8093E604809130
:104E2000F3049091F404A091F504B091F604009776
:104E3000A105B105F1F0C81AD90AEA0AFB0A82EB0A
:104E400095E00E942B086C157D058E059F0508F0E6
:104E500009C18091FB0584FD04C080ED97E00E94AC
:104E6000AE071092F3041092F4041092F50410921D
:104E7000F6048091A204807C8093A20410913E04E9
:104E800000913F0490913D04101709F407C192303E
:104E900009F004C180588093A20482EB95E00E943F
:104EA00012088150202F90E0981708F4E0C020935A
:104EB0003F048FE1890F2091A204822B8093A204EA
:104EC0009093400483E080933D045D9A1091BF0568
:104ED0008091010581112FC18091FB0582FD37C1B1
:104EE000812F0E94DD0A809102050E94160A82EB42
:104EF00095E00E941208682F82EA94E00E940C0C50
:104F00008091FB0582FD2CC1E0910205EF5FE093EB
:104F10000205E83109F42CC1F0E0EE54FA4F878520
:104F2000882309F425C10E947B0C813069F58091AA
:104F3000DA05887149F18091E9049091EA04880FBB
:104F4000991F9093EA048093E90483E08093AF056E
:104F50000E94D10B0E949C296093EB047093EC0497
:104F60008093ED049093EE04672B682B692B61F41A
:104F700081E090E0A0E0B0E08093EB049093EC043B
:104F8000A093ED04B093EE048091DA0584FF1FC076
:104F90008091E9049091EA048E7F0E948E09182F77
:104FA0006091E7048091F2040E943F14482F612F22
:104FB0008091F10449A30E943F1400911006282F0C
:104FC00049A16091EF048091F0040E9485255D98CD
:104FD0008091FF048130C1F018F08230B1F1D8C067
:104FE0008EE00E94B52A892B09F0D2C081E080931F
:104FF000FF040E9490296093FB047093FC0480934B
:10500000FD049093FE04C4C08EE00E94B52A892B53
:1050100031F50E949029C090FB04D090FC04E090F0
:10502000FD04F090FE046C197D098E099F09693E0C
:1050300073408105910508F4ABC082E08093FF04C2
:1050400080ED97E00E94AE07A3C08EE00E94B52AD3
:10505000892B09F49DC080E090E00E94AE07109279
:10506000FF0496C080E090E00E94AE0702CF2117B7
:1050700009F41DCF9F5F492F50E030E0FA01EE5553
:10508000FB4FD901AF59BB4F6C916083FA01E05CD3
:10509000FB4F60832F5F3F4F2F7106CF9430B1F4E9
:1050A0002091400481E494E0A3EAB4E0FC013E2FA7
:1050B000381B321718F431913D93F9CF8FE1820FED
:1050C0009091A204892B8093A204FCCE9091FF04BE
:1050D000923051F481608093A2045E9A8E010F5F3A
:1050E0001F4FF12CB80110C05E9880913D048111D2
:1050F00003C081E080933D0480913D04833071F7CB
:1051000084E080933D04EACF8F2D69A37AA30E94A7
:105110004116F801819391938F01F39469A17AA1CB
:10512000F0E1FF12F1CF8091DA0543EA54E0877095
:105130000E94D708CACE112309F4CECE9091000563
:1051400021E0290F209300059813C6CE1DC08FE0E3
:105150000E94B52A892B09F0C3CE5E9A17E0C0CE13
:105160008FE00E94B52A892B09F0CECE5E98CCCE76
:1051700010920205D8CE8091E604883009F45E9A38
:1051800089E08093E604CFCE109200051150A4CEA2
:10519000A296ECE00C946B2F8230E8F4E82FF0E05C
:1051A000EE0FFF1FEF5EF94F71836083813041F096
:1051B000809169008C7F842B80936900E89A089520
:1051C00080916900440F551F440F551F837F842B26
:1051D00080936900E99A08951F920F920FB60F927B
:1051E00011242F933F934F935F936F937F938F93EC
:1051F0009F93AF93BF93EF93FF938091110690918C
:105200001206892B29F0E0911106F09112060995FA
:10521000FF91EF91BF91AF919F918F917F916F918E
:105220005F914F913F912F910F900FBE0F901F9064
:1052300018951F920F920FB60F9211242F933F9340
:105240004F935F936F937F938F939F93AF93BF938E
:10525000EF93FF938091130690911406892B29F008
:10526000E0911306F09114060995FF91EF91BF911B
:10527000AF919F918F917F916F915F914F913F91EE
:105280002F910F900FBE0F901F9018951F920F92A5
:105290000FB60F9211242F933F938F939F93AF9349
:1052A000BF938091160690911706A0911806B091B1
:1052B00019063091150623E0230F2D3720F40196AF
:1052C000A11DB11D05C026E8230F0296A11DB11D29
:1052D000209315068093160690931706A093180640
:1052E000B093190680911A0690911B06A0911C0696
:1052F000B0911D060196A11DB11D80931A069093D1
:105300001B06A0931C06B0931D06BF91AF919F9101
:105310008F913F912F910F900FBE0F901F90189576
:105320002FB7F894609116067091170680911806B1
:10533000909119062FBF08953FB7F89480911A06EF
:1053400090911B06A0911C06B0911D0626B5A89B46
:1053500005C02F3F19F00196A11DB11D3FBF662763
:10536000782F892F9A2F620F711D811D911D42E0A8
:10537000660F771F881F991F4A95D1F70895CF921E
:10538000DF92EF92FF92CF93DF936B017C010E943B
:105390009C29EB01C114D104E104F10479F00E94CD
:1053A0009C296C1B7D0B683E7340A0F381E0C81AFA
:1053B000D108E108F108C851DC4FECCFDF91CF9163
:1053C000FF90EF90DF90CF900895789484B582603D
:1053D00084BD84B5816084BD85B5826085BD85B599
:1053E000816085BDEEE6F0E0808181608083E1E848
:1053F000F0E0108280818260808380818160808380
:10540000E0E8F0E0808181608083E1EBF0E0808182
:1054100084608083E0EBF0E0808181608083EAE754
:10542000F0E08081846080838081826080838081DD
:10543000816080838081806880831092C10008959C
:10544000833081F028F4813099F08230A1F0089502
:105450008630A9F08730B9F08430D1F48091800093
:105460008F7D03C0809180008F77809380000895A6
:1054700084B58F7702C084B58F7D84BD08958091F7
:10548000B0008F7703C08091B0008F7D8093B00013
:105490000895CF93DF9390E0FC01ED50F44F2491F9
:1054A000FC01E95FF34F8491882349F190E0880F74
:1054B000991FFC01E15DF34FA591B4918B5D934F72
:1054C000FC01C591D4919FB7611108C0F8948C91EB
:1054D000209582238C93888182230AC0623051F404
:1054E000F8948C91322F309583238C938881822B72
:1054F000888304C0F8948C91822B8C939FBFDF919A
:10550000CF910895A1E0B0E0E8E8FAE20C94572FBB
:10551000282F30E0F901E152F44F8491F901ED5068
:10552000F44F1491F901E95FF34F04910023C9F09E
:10553000882321F069830E94202A6981E02FF0E00E
:10554000EE0FFF1FEB5DF34FA591B4919FB7F89459
:105550008C91611103C01095812301C0812B8C9324
:105560009FBF2196E4E00C94732FCF93DF93282FF5
:1055700030E0F901E152F44F8491F901ED50F44F1C
:10558000D491F901E95FF34FC491CC2391F08111DB
:105590000E94202AEC2FF0E0EE0FFF1FE55EF34F94
:1055A000A591B4912C912D2381E090E021F480E02D
:1055B00002C080E090E0DF91CF9108958E3008F036
:1055C0008E50877020919D0190E4299F90011124B5
:1055D000822B80937C0080917A00806480937A0093
:1055E00080917A0086FDFCCF80917800209179002F
:1055F00090E0922B0895A0E0B0E0E1E0FBE20C9493
:10560000532F6C017A01EB01E60EF71E00E010E06B
:10561000CE15DF0561F06991D601ED91FC91019005
:10562000F081E02DC6010995080F191FF1CFC801BF
:10563000CDB7DEB7E8E00C946F2F6115710589F0E6
:10564000DB010D900020E9F7AD0141505109461BE7
:10565000570BDC01ED91FC910280F381E02D09955F
:10566000089580E090E00895EF92FF920F931F93CA
:10567000CF93DF938C01FB01C0E0D0E064917F0108
:105680008FEFE81AF80A662361F0D801ED91FC91DA
:105690000190F081E02DC8010995C80FD91FF701CD
:1056A000EDCFCE01CDB7DEB7E6E00C94712F0E94AE
:1056B0001D2B0895DC01ED91FC910190F081E02D0E
:1056C000099508950F931F93CF93DF93EC016DE03D
:1056D0000E945A2B8C016AE0CE010E945A2B800F47
:1056E000911FDF91CF911F910F9108950F931F93F9
:1056F000CF93DF93EC010E94342B8C01CE010E94EA
:10570000622B800F911FDF91CF911F910F91089510
:105710000F931F93CF93DF93EC010E941D2B8C01FD
:10572000CE010E94622B800F911FDF91CF911F91BC
:105730000F9108950F931F93CF93DF93EC010E9475
:105740005A2B8C01CE010E94622B800F911FDF919A
:10575000CF911F910F910895A1E2B0E0E2EBFBE23F
:105760000C944F2F7C01C42EE52FCB01D22E19A211
:1057700021E02D1510F02AE0D22E8E010F5D1F4F73
:105780008D2C912CA12CB12C6C2D7E2FA501940178
:105790000E94082F8C2DD29E8019112401501109CE
:1057A0008A3010F4805D01C0895CF8018083211586
:1057B00031054105510521F0C22EE32FCA01E4CF86
:1057C000B801C7010E941D2BA196ECE00C946B2F31
:1057D000A0E0B0E0EEEEFBE20C94532FEC016A0186
:1057E0007B012115310541F4E881F9810190F081B7
:1057F000E02D642F09951DC02A303105A9F477FFEB
:1058000012C06DE20E945A2B8C0144275527BA0121
:105810004C195D096E097F092AE0CE010E94AC2B6C
:10582000800F911F06C02AE0B701A601CE010E9499
:10583000AC2BCDB7DEB7E8E00C946F2F9A01AB012B
:10584000662757FD6095762F0E94E82B08950F93E9
:105850001F93CF93DF93EC019A01AB01662757FDAD
:105860006095762F0E94E82B8C01CE010E94622B5E
:10587000800F911FDF91CF911F910F9108952115F6
:10588000310549F4DC01ED91FC910190F081E02DAE
:10589000642F099508950E94AC2B08959A01462F14
:1058A00050E060E070E00E943F2C08959A01AB0147
:1058B00060E070E00E943F2C08950F931F93CF93F8
:1058C000DF93EC010E943F2C8C01CE010E94622BE1
:1058D000800F911FDF91CF911F910F9108950F932A
:1058E0001F93CF93DF93EC019A01AB0160E070E06E
:1058F0000E943F2C8C01CE010E94622B800F911FD1
:10590000DF91CF911F910F9108950F931F93CF9324
:10591000DF93EC019A01462F50E060E070E00E94B6
:105920003F2C8C01CE010E94622B800F911FDF91D2
:10593000CF911F910F910895FC0124853585F901C0
:10594000E05CFF4F80819181F901EE5BFF4F208188
:105950003181821B930B8F7399270895FC018485F5
:105960009585FC01E05CFF4F40815181FC01EE5BBD
:10597000FF4F208131814217530741F00190F081A0
:10598000E02DE80FF91F808190E008958FEF9FEFE1
:105990000895FC0184859585FC01E05CFF4F408102
:1059A0005181FC01EE5BFF4F20813181421753078B
:1059B00079F0A081B181A80FB91F8C91208131812C
:1059C0002F5F3F4F2F7333273183208390E008955B
:1059D0008FEF9FEF0895FC0181A1882329F0A4890E
:1059E000B5898C9186FFFBCF11A20895CF93DF93E9
:1059F000FC0126853785D901A05CBF4F8D919C9114
:105A0000119701968F739927E901CE5BDF4F48818B
:105A1000598184179507D9F30D90BC91A02DA20F41
:105A2000B31F6C93A685B785A05CBF4F11969C935E
:105A30008E93A689B7892C9181E090E0078C02C0F3
:105A4000880F991F0A94E2F7282B2C9381E081A3F9
:105A50000488F589E02D80818064808381E090E076
:105A6000DF91CF91089508951F920F920FB60F9274
:105A700011242F933F934F938F939F93EF93FF9313
:105A80008091C00082FD1CC04091C6008091C40678
:105A90009091C50601968F7399272091C606309183
:105AA000C7068217930771F0E091C406F091C5060E
:105AB000EC57F94F40839093C5068093C40602C00B
:105AC0008091C600FF91EF919F918F914F913F91EF
:105AD0002F910F900FBE0F901F9018958EE196E0BA
