:100000000C9417060C9447290C9474290C943F0601
:100010000C943F060C943F060C943F060C943F064C
:100020000C943F060C943F060C94C00C0C943F06B5
:100030000C943F060C943F060C943F060C943F062C
:100040000C94A1290C943F060C945B2D0C94962DD6
:100050000C943F060C943F060C943F060C943F060C
:100060000C943F060C943F069B1CA21CA21C9B1CDC
:10007000A21CA21CA21CA21CA21CA21CA21CA21C90
:10008000A21CA21CA21CA21CA21C101CA21CA21C12
:10009000A21CA21CA21C731BA21CA21CA21CA21CA0
:1000A000A21CA21CA21CA21CA21CA21CA21CA21C60
:1000B000A21CA21CA21C1C1C1C1C1C1C1C1C1C1CEE
:1000C0001C1C1C1C1C1C1C1CA21CA21CA21CA21C58
:1000D000A21CA21C781B1B1C1B1C1B1C1B1CA21C77
:1000E0002C1C341C3C1C441C4C1C541C5C1C641CF0
:1000F0006E1C781C821C8C1CBF1B7F1BA21CA21CAC
:10010000A21CA21C101CA21CA21CA21CA21CA21C91
:10011000A21CA21CA21C1A1C1A1C1A1C1A1CA21C0F
:100120002C1C341C3C1C441C4C1C541C5C1C641CAF
:100130006E1C781C821C8C1CBF1B7F1BA21CA21C6B
:10014000A21CA21C101CD31CD31CD31CD31CD31C5C
:10015000D31CD31CD31CD31CD31CD31CD31CD31C27
:10016000F31DF31DF31DF31DF31DF31D1A1D241DB7
:100170002E1D381D9E1DA81DB61DC71D641ED41E34
:10018000A51EAA1EAF1EB41EB91EBE1EC31ED41EBF
:10019000CE1EDA25EF25FB250426112637263F261D
:1001A00062264F26456E746572206D656E752E2E23
:1001B0002E00546F67676C6564206D6963726F50C1
:1001C000504D00546F67676C656420696E76657288
:1001D0007465642050504D2100546F67676C6564EE
:1001E000205458206D7574696E672100546F6767DD
:1001F0006C65642074656C656D657472792100505E
:10020000726F746F636F6C206572726F72207769A2
:1002100074682052580054696D656F757420776852
:10022000656E20636F6E6E656374696E6720746FB0
:1002300020525800507265737320616E79206B658F
:100240007920746F2063616E63656C00436F6E6E1E
:10025000656374696E6720746F2052582C20706F2C
:100260007765722075702074686520525820287751
:100270006974682062696E6420706C7567206966B5
:10028000206E6F74207573696E6720616C77617979
:10029000732062696E642900546F67676C6564201F
:1002A00027696D6D656469617465206F757470751B
:1002B000742700546F67676C65642027736C6176E0
:1002C00065206D6F64652700546F67676C656420F7
:1002D00027616C776179732062696E642700546FBF
:1002E00067676C65642050504D206368616E6E6571
:1002F0006C206C696D6974005365742052535349C6
:1003000020696E6A656374696F6E206368616E6EE2
:10031000656C2028303D3D64697361626C6529001D
:100320005365742050504D206D696E696D756D2058
:1003300073796E630053657420626561636F6E202C
:10034000696E74657276616C0053657420626561D4
:10035000636F6E2064656C6179005365742062651B
:1003600061636F6E206672657175656E6379206971
:100370006E20487A3A20303D64697361626C652C66
:100380002050783D504D52206368616E6E656C2040
:10039000782C2046783D465253206368616E6E6526
:1003A0006C2078005365742050574D2073746F7023
:1003B0002064656C61792028302064697361626C07
:1003C00065642C20312D323535203D3D20302E31D5
:1003D00073202D2035306D696E29005365742050CF
:1003E000504D2073746F702064656C6179202830E3
:1003F0002064697361626C65642C20312D3235355F
:10040000203D3D20302E3173202D2035306D696E1A
:100410002900536574206661696C736166652064A8
:10042000656C61792028302064697361626C656451
:100430002C20312D323535203D3D20302E3173209A
:100440002D2035306D696E29002A2A2A2A2A2A2A67
:100450002A2A2A2A2A2A2A2A2A2A2A2A2A2A2A2AFC
:100460002A2A2A2A2A2A0052582041636B656420CE
:100470002D2072657665727420737563636573737E
:1004800066756C21002A2A2A2A2A2A2A2A2A2A2A36
:100490002A2A2A2A2A2A2A2A2A2A2A2A2A2A2A2ABC
:1004A0002A2A002A2A2A2A2A2A2A2A2A2A2A2A2AD6
:1004B0002A2A2A2A2A2A2A2A2A2A2A2A2A2A2A2A9C
:1004C0000052582041636B6564202D207570646173
:1004D0007465207375636365737366756C21002A98
:1004E0002A2A2A2A2A2A2A2A2A2A2A2A2A2A2A2A6C
:1004F0002A2A2A2A2A2A2A2A2A2A2A2A0056616CE1
:1005000069642063686F69636573206172653A206E
:100510005B315D2D5B31365D20286368616E6E65F1
:100520006C20312D31362900536574206F7574703D
:10053000757420666F7220706F727420005B585D56
:100540002061626F7274206368616E6765732061F9
:100550006E64206578697420525820636F6E6669F6
:1005600067005B535D207361766520736574746901
:100570006E677320746F205258005B525D20726565
:10058000766572742052582073657474696E67734F
:1005900020746F2064656661756C747300557365B3
:1005A000206E756D62657273205B312D445D207421
:1005B0006F206564697420706F727473205B452DC1
:1005C000515D20666F722073657474696E67730085
:1005D000202D20726563656976657220636F6E6693
:1005E0006967757261746F722C207278207377203E
:1005F000000A0A6F70656E4C52536E672000536597
:10060000742073657269616C2062617564726174D3
:10061000653A200056616C69642063686F696365A0
:10062000733A2031202D20342B34202F2032202DDE
:100630002038202F2033202D20382B34202F203419
:10064000202D203132202F2035202D2031322B3407
:10065000202F2036202D203136005365742043682A
:10066000616E6E656C20636F6E6669673A20005339
:1006700065742044617461726174652028302D3284
:10068000293A200053657420486F70206368616EBA
:100690006E656C7320286D61782032342C20736570
:1006A0007061726174656420627920636F6D6D6141
:1006B00073292076616C69642076616C756573209E
:1006C000312D3235353A2000536574206368616EF0
:1006D0006E656C2073706163696E672028783130B5
:1006E0006B487A293A200053657420524620706F77
:1006F0007765722028302D37293A20005365742001
:100700005246206D616769632028686578292065F5
:100710002E672E20307844454144463030443A20FC
:10072000005365742062617365206672657175653A
:100730006E63792028696E20487A293A20005B5A36
:100740005D20656E74657220726563656976657299
:1007500020636F6E66696775726174696F6E20756C
:1007600074696C79005B465D20646973706C6179B3
:100770002061637475616C206672657175656E6366
:100780006965732075736564005B525D2063616CFD
:1007900063756C6174652072616E646F6D206B654A
:1007A0007920616E6420686F70206C697374005BDF
:1007B000495D207265696E697469616C697A65204A
:1007C00073657474696E677320746F20736B6574DE
:1007D00063682064656661756C7473005B585D20A6
:1007E000726576657274206368616E6765732061F7
:1007F0006E642065786974206D656E75005B535D6D
:1008000020736176652073657474696E67732074F4
:100810006F20454550524F4D20616E6420657869C8
:1008200074206D656E7500557365206E756D62651B
:100830007273205B302D395D20746F20656469749C
:1008400020706172616D657465727300202D205394
:10085000797374656D20636F6E6669677572617414
:10086000696F6E000A0A6F70656E4C52536E672096
:10087000005129204F7574707574206265666F721F
:1008800065206C696E6B20283D465329203A200074
:10089000502920536C617665206D6F646520286552
:1008A00078706572696D656E74616C293A20004FCD
:1008B000292054696D65642042494E4420617420AA
:1008C0007374617274757020203A20004E29205094
:1008D000504D206F7574707574206C696D69746506
:1008E0006420202020203A200044495341424C45B6
:1008F00044004D292050504D205253534920746FCD
:10090000206368616E6E656C202020203A20004CC8
:10091000292050504D206D696E696D756D20737979
:100920006E63202875732920203A200044495341E2
:10093000424C4544004B29204661696C73616665F1
:1009400020626561636F6E20696E74762E20283197
:100950002D32353573293A20004A29204661696CC9
:100960007361666520626561636F6E2064656C61AA
:10097000792028302D323535203D3E20313073200E
:100980002D203135306D696E293A200049292046E5
:1009900061696C7361666520626561636F6E206674
:1009A00072712E203A200048292050574D20737430
:1009B0006F702064656C6179202020202020203A0F
:1009C000200047292050504D2073746F70206465BB
:1009D0006C6179202020202020203A200046292008
:1009E0004661696C736166652064656C617920207D
:1009F00020202020203A200050574D206368616E4F
:100A00006E656C200066756E6374696F6E3A2000C7
:100A10002920706F72742000506F776572546F7761
:100A2000657200445446205548462033322D626991
:100A3000742031306368004F70656E4C52536E679E
:100A40005258206D696E6920342F36636800466CF9
:100A50007974726F6E2F4F72616E676552582055B0
:100A600048462038636800525820747970653A20EF
:100A70000044697361626C656400487A00203D3D02
:100A8000200043616C63756C617465642070616300
:100A90006B657420696E74657276616C3A200042F1
:100AA00029204D6963726F202868616C6629205087
:100AB000504D202020203A00412920496E76657251
:100AC0007465642050504D20696E20202020203A0B
:100AD000003029204D7574652062757A7A65722020
:100AE000286D6F73746C79293A0039292053657227
:100AF00069616C2062617564726174653A00736D3E
:100B0000617274506F7274004672536B7900547244
:100B1000616E73706172656E740044697361626CBA
:100B200065640038292054656C656D657472793A86
:100B300020202020202020003729204368616E6E6D
:100B4000656C20636F6E6669673A20200036292045
:100B500044617461726174652028302D32293A2015
:100B6000202000352920486F70206368616E6E6513
:100B70006C733A2020202020003429204368616EC5
:100B80006E656C2073706163696E673A2020003374
:100B90002920524620706F7765722028302D372922
:100BA0003A202020003229205246206D6167696377
:100BB0003A202020202020202020003129204261BE
:100BC0007365206672657175656E63793A202020C1
:100BD0000000000000240027002A0000000000257B
:100BE0000028002B0000000000230026002900043C
:100BF00004040404040404020202020202030303C4
:100C000003030301020408102040800102040810BD
:100C1000200102040810200000000700020100006B
:100C20000304060000000000000000003E2F112415
:100C30001FBECFEFD8E0DEBFCDBF13E0A0E0B1E034
:100C4000EEEBF0E602C005900D92A839B107D9F796
:100C500016E0A8E9B3E001C01D92AB35B107E1F79A
:100C60001CE0CEE2DCE004C02297FE010E943A3094
:100C7000CC32D107C9F70E94832F0C945D300C94BD
:100C80000000A0E0B0E0E7E4F6E00C940930EC01ED
:100C9000A880B980CA80DB80A114B104C104D1044A
:100CA00041F484E2A82E89EDB82E8BE5C82E87E0AA
:100CB000D82EC601B5012DE133EF41E050E00E948E
:100CC000E62F27EA31E440E050E00E94922F7B01BA
:100CD0008C01C601B5012DE133EF41E050E00E94E7
:100CE000E62FCA01B9012CEE34EF4FEF5FEF0E94FF
:100CF000922F6E0D7F1D801F911F97FF04C06150C2
:100D0000704080409048688379838A839B839B01ED
:100D1000AC015F77B901CA01CDB7DEB7EAE00C9448
:100D200025300E944106089581EB92E00E94410621
:100D300008956093B1027093B2028093B3029093CE
:100D4000B4020895A0E0B0E0E8EAF6E00C940230C6
:100D5000EC012B016A016115710519F0FB0191830A
:100D60008083C114D10449F0C6010297839728F00B
:100D700020E030E040E050E0DCC0A9908A2D90E017
:100D80000E945230892BC9F7FDE2AF1621F4A990D9
:100D90003324339405C08BE2A81609F4A9903324B8
:100DA000C114D10421F0E0E1CE16D10411F5F0E335
:100DB000AF1669F48881883711F0883541F4A9802D
:100DC000229682E0382A20E1C22ED12C12C0C11412
:100DD000D10479F4E0E3AE1659F199E9E92E99E9E5
:100DE000F92E99E9092F99E1192F8AE0C82ED12C03
:100DF0003AC0FAE0CF16D10491F080E1C816D104D0
:100E000029F0E8E0CE16D104F9F415C0BFEFEB2EBF
:100E1000BFEFFB2EBFEF0B2FBFE01B2F24C0A9E9B4
:100E2000EA2EA9E9FA2EA9E90A2FA9E11A2F1BC077
:100E3000F8E0CF2ED12CEFEFEE2EEFEFFE2EEFEFFE
:100E40000E2FEFE11E2F0FC09601442737FD40956E
:100E5000542F6FEF7FEF8FEF9FEF0E94C42FC901D8
:100E6000DA017C018D0120E030E040E050E060E0FC
:100E70003601882477FC8094982C70EDB72EBA0C3C
:100E8000F9E0FB1570F48A2D81548A3118F499EC3D
:100E9000B92E06C08A2D81568A3148F589EAB82EC6
:100EA000BA0C8B2D90E08C159D050CF56F3FE9F089
:100EB000E216F30604071507B8F0CA01B901A40148
:100EC00093010E94922F9B01AC018B2D90E0A0E03A
:100ED000B0E0280F391F4A1F5B1F281739074A0740
:100EE0005B0710F061E001C06FEFA990C6CF41141D
:100EF000510451F0662311F0219703C031FE04C064
:100F00002297F201D183C08330FE07C050954095EF
:100F1000309521953F4F4F4F5F4F67FF0AC082E2E8
:100F200090E090935A06809359062FEF3FEF4FEFD2
:100F30005FEFB901CA01CDB7DEB7E1E10C941E3015
:100F4000FC0188279927E89421912032E9F3293080
:100F500010F02E30C8F32B3241F02D3239F4689462
:100F600004C00E94F507820F911D219120532A3061
:100F7000C0F31EF4909581959F4F089548E953E082
:100F80000E94C3070895009731F4DA018D919C9176
:100F9000009709F40EC0DC01FB013D912191222351
:100FA00019F03217C9F3FACF332331F4DA011D9265
:100FB0001C928827992708951197AF93BF93FB013F
:100FC0003D912191321771F4332321F48827992719
:100FD000119702C01E921196FA01A193B0839F91BE
:100FE0008F910895222369F7EACF7AE0979F902D99
:100FF000879F802D910D1124089580919A0381304F
:1010000019F482E080939A0380919A03833019F453
:1010100084E080939A030895E3E0F0E089E0809310
:101020005700849190E08670863009F491E0892F12
:1010300008951F93182F0E940C08882379F09FB7FA
:1010400081E08093A105F894A89588E180936000E1
:1010500010936000112309F0A8959FBF1F91089578
:10106000382F20E080913305909134058227932713
:1010700040E061E270E19C01220F331F97FF04C042
:10108000C9018627972701C0C9014F5F483099F7EA
:101090009093340580933305089587E38093D003BC
:1010A00080E092ECA1E0B0E08093D1039093D20372
:1010B000A093D303B093D40387E08093DD0380EC47
:1010C00092E9ADEEB9E18093D5039093D603A09356
:1010D000D703B093D80385E08093DE038DEE9EEFB7
:1010E000ADEABEED8093D9039093DA03A093DB03BE
:1010F000B093DC03AFEDB3E080E090E0863010F019
:10110000E0E004C0FC01EF57FC4FE081ED93019655
:101110008831910599F782E08093F7038AE0809304
:10112000F803089580EC91EDA8E9BBE180939D035D
:1011300090939E03A0939F03B093A00380E090E060
:10114000A0E0B0E58093A1039093A203A093A30332
:10115000B093A403E5EAF3E080E081938F5F8031F0
:10116000E1F708958436910520F4BC0180E090E019
:1011700025C08E3B910550F48A559040BC0180E01B
:1011800090E02AE030E040E050E016C0823D91055A
:1011900050F4845B9040BC0180E090E024E630E0B5
:1011A00040E050E009C08D5C9040BC0180E090E0E0
:1011B00028E532E040E050E00E94922F24E630E043
:1011C00040E050E00E94922F089590E08C599F4F8C
:1011D0000E94B2080895DC019896EC91F0E0E77067
:1011E000F070E758FC4F808108958F929F92AF92E4
:1011F000BF92CF92DF92EF92FF920F931F938C01D9
:101200000E94EB08D80197962C9130E043E150E022
:10121000249FF001259FF00D349FF00D1124EB5415
:10122000FD4F80809180A280B38090E00F96AA2726
:1012300097FDA095BA2FBC01CD0120E43FE14DE719
:1012400050E00E94922FA50194010E94C42F6901D1
:101250007A0180ED97E0A0E0B0E0C80ED91EEA1E4A
:10126000FB1ED80198968C91887181F060E07EEE2B
:101270008AEB9BE0A50194010E94C42F28513C4FAA
:101280004F4F5F4FC20ED31EE41EF51E87EE93E054
:10129000A0E0B0E0C80ED91EEA1EFB1EC701B601D1
:1012A00028EE33E040E050E00E94C42FCA01B901AB
:1012B00028EE33E040E050E00E94922F1F910F9102
:1012C000FF90EF90DF90CF90BF90AF909F908F9066
:1012D00008958F3F910509F010F480E0089522E011
:1012E0008030920710F481E008958050934010F010
:1012F00083E0089582E00895CF92DF92FF920F93EA
:101300001F93CF93DF93F82FEB016A01182F1695E7
:10131000E0E088819981D6018C938A819B81119626
:101320008C9311978C819D8112968C9312978E814C
:101330009F8113968C931397288139814A815B8111
:101340006C817D818E819F819295990F990F907C00
:10135000832F8370982B852F8370880F880F982B8D
:10136000872F83708295807F982B14969C9385E0BD
:1013700090E0C80ED91E2896EF5F1E1750F6F0FFBA
:1013800021C0888199810E946909F82E8A819B81F8
:101390000E946909182F8C819D810E946909082F7C
:1013A0008E819F810E946909F294FF0CFF0C70EC02
:1013B000F7221295107F1F29182B000F000F012B09
:1013C000D6010C93DF91CF911F910F91FF90DF9089
:1013D000CF90089523E08032920718F420E030E0A7
:1013E00026C023E0883E920748F49C012F513340E9
:1013F00054E0369527955A95E1F719C027E0803DCE
:10140000920720F49C012C5D334011C028E08839FC
:10141000920718F02FEF33E00AC09C01285C374098
:1014200044E0369527954A95E1F72D503C4FC90188
:1014300008958C30910548F49C0174E0220F331F0D
:101440007A95E1F7285D3C4F17C023E0843F92076F
:1014500020F49C0124523C4F0FC024E080309207BE
:1014600018F020E938E008C09C012657334F64E0AB
:10147000220F331F6A95E1F7C90108959C01369543
:10148000279525753575821B930B9C0136952795FD
:10149000369527952373337383739373280F391FFE
:1014A000C901E4E096958795EA95E1F7820F931FCD
:1014B0008F709F7021E031E0AC01429FC001439FDB
:1014C000900D529F900D1124892F0895882339F093
:1014D0002D9800002B9A00002D9A000008952D9859
:1014E00000002B9800002D9A000008952D9A00000E
:1014F00083B12D98000090E0B4E096958795BA9559
:10150000E1F7817008950F931F93082F5C9A2D982F
:101510005C9810E0802F80780E94660A000F1F5FA1
:101520001830C1F72D981F910F9108958F770E9461
:10153000830A08950F931F93082F10E0802F80785F
:101540000E94660A000F1F5F1830C1F72D981F9187
:101550000F9108950F931F932D9880E000E0182FAE
:10156000110F0E94760A810F0F5F0830C1F71F919B
:101570000F9108950E94960A0E94AA0A5C9A089503
:101580001F93162F80680E94830A812F0E949A0A57
:101590005C9A1F9108951F931091D9031827E0EDCD
:1015A000F3E0E80FF11D89E767850E94C00A8DE32B
:1015B000612F0E94C00A82E4612F0E94C00A1F911D
:1015C000089586E20E94BA0A08950F931F938C0132
:1015D0008CE1F80164810E94C00A8DE1F801658107
:1015E0000E94C00A8EE1F80166810E94C00A80E272
:1015F000F80167810E94C00A81E2F80160850E94BB
:10160000C00A82E2F80161850E94C00A83E2F80103
:1016100062850E94C00A84E2F80163850E94C00AC4
:1016200085E2F80164850E94C00A8AE2F8016585B6
:101630000E94C00A8EE6F80166850E94C00A8FE605
:10164000F80167850E94C00A80E7F80160890E945E
:10165000C00A81E7F80161890E94C00A82E7F801A7
:1016600062890E94C00A1F910F910895EF92FF9224
:101670000F931F93CF93DF937B018C01603028E39E
:1016800072072CE982072CE1920728F520E836E959
:1016900048E950E00E94C42FE9016897B90180E051
:1016A00090E020E839E647E65FEF0E94922F6E0D4A
:1016B0007F1D801F911F32E0660F771F881F991FC3
:1016C0003A95D1F721E732E040E050E00E94C42F84
:1016D000890180E421C020E03DE241E351E00E9425
:1016E000C42FE9016897B90180E090E020E033ED74
:1016F0004EEC5EEF0E94922F6E0D7F1D801F911F9A
:10170000660F771F881F991F21E732E040E050E005
:101710000E94C42F890180E69E012F71622F680FFD
:1017200085E70E94C00A86E7612F0E94C00A87E70A
:10173000602F0E94C00ACDB7DEB7E6E00C942930D6
:101740009F92AF92BF92CF92DF920F93DF93CF938E
:1017500000D000D0CDB7DEB7982E83E00E94BA0A41
:101760008093F90384E00E94BA0A8093FA0386E02A
:1017700060E00E94C00A87E061E00E94C00A89E040
:101780006FE70E94C00A8AE065E00E94C00A8BE011
:1017900062E10E94C00A8CE065E10E94C00A8DE00F
:1017A0006DEF0E94C00A8EE060E00E94C00A99209E
:1017B00019F084E193E008C08091F70323E1829F50
:1017C000C00111248B549D4F0E94E50A80E36CE810
:1017D0000E94C00A82E36FE00E94C00A83E362E4D1
:1017E0000E94C00A84E36AE00E94C00A85E36AE2BC
:1017F0000E94C00A86E36DE20E94C00A87E364ED9E
:101800000E94C00A88E360E00E94C00A89E360E0A9
:101810000E94C00A992049F065E8A62E61ECB62E18
:1018200061ECC62E6EEDD62E08C0A090D903B09004
:10183000DA03C090DB03D090DC030AE38D2D9927F7
:10184000AA27BB2789839A83AB83BC83802F6981B6
:101850000E94C00A802F8B5F69810E94C00ADC2C25
:10186000CB2CBA2CAA240F5F0E3341F783E46FEF21
:101870000E94C00A84E46FEF0E94C00A85E46FEF03
:101880000E94C00A86E46FEF0E94C00A992019F0F6
:101890008DE666E003C08DE66091DD030E94C00A1C
:1018A00089E760E00E94C00A8AE76091DE030E9437
:1018B000C00A83E760E00E94C00A84E760E00E94FB
:1018C000C00A992029F060EC72E98DEE99E108C018
:1018D0006091D5037091D6038091D7039091D8037E
:1018E0000E94360B0F900F900F900F90CF91DF91C9
:1018F0000F91DF90CF90BF90AF909F90089587E0B9
:1019000061E00E94C00A8EE764E20E94C00A88E09B
:1019100063E00E94C00A88E060E00E94C00A87E09D
:1019200065E00E94C00A85E062E00E94C00A83E090
:101930000E94BA0A8093F90384E00E94BA0A809355
:10194000FA030895582F40919E04842F90E0FC01E3
:10195000EF70F0709F012F5F3F4F74E09595879572
:101960007A95E1F72817390751F0E257FB4F50837A
:10197000842F8F5F8F70407F842B80939E04089507
:101980001F920F920FB60F9211241F932F933F9324
:101990004F935F936F937F938F939F93AF93BF9377
:1019A000CF93DF93EF93FF93C0918600D091870090
:1019B0002091E0043091E1048091BF04882309F074
:1019C00062C0BE01621B730B2091A1033091A20380
:1019D0004091A3035091A40325FD02C0769567951D
:1019E00089E0653C7807B8F1809147031CE1569582
:1019F0004795379527951A95D1F72115310541055A
:101A0000510521F421E030E040E050E090E0A0E01A
:101A1000B0E0281739074A075B07D0F480914703E5
:101A20008F3FB1F020E00EC0E22FF0E0EE0FFF1F7D
:101A3000DF01A054BB4F8D919C91E95DFC4F9183D8
:101A400080832F5F80914703281770F31092BE04A4
:101A50001092470318C082E06D3B780760F18091D7
:101A60004703803140F510914703CB010E94EA09FA
:101A7000E12FF0E0EE0FFF1FE054FB4F91838083D6
:101A80001F5F10934703D093E104C093E004FF91DC
:101A9000EF91DF91CF91BF91AF919F918F917F9106
:101AA0006F915F914F913F912F911F910F900FBEBA
:101AB0000F901F9018958FEF80934703E4CF83E03A
:101AC000809380008AE9809381008091A10386FD44
:101AD00005C0809181008064809381008FEF9FEF2B
:101AE000909389008093880080916F00806280933A
:101AF0006F0008956F3018F086958058089589E03A
:101B0000689F802D11240895882319F460E071E006
:101B100002C063E071E087E396E00E94462D0895DD
:101B2000A0E0B0E0E6E9FDE00C940B30182F0E9435
:101B3000F7299B01AC0180912D0590912E05A09174
:101B40002F05B091300569017A01C81AD90AEA0A4D
:101B5000FB0AD701C60189589341A040B04010F05C
:101B600010922C0520932D0530932E0540932F05C0
:101B7000509330052091BF04822F81508230E8F5C8
:101B800080912C05882309F44FC1813011F482E043
:101B9000BCC1803108F035C1E82FF0E0E054FB4FC4
:101BA00010838F5F80932C05803109F0B0C1A2ECC7
:101BB000B4E0213039F41196EC911197E695E69551
:101BC0008C9109C08D919C911197E92FE695E6952E
:101BD000E69596958795E03140F4F0E090E0EE0FC1
:101BE000FF1FE95DFC4F918380831092BE04129623
:101BF00084E0A03DB807E9F68AC1233009F004C1AA
:101C000080912C05882321F41F3009F080C10CC17C
:101C1000883130F4E82FF0E0E154FB4F108374C1B9
:101C2000883109F0EEC0112309F0EBC0C0E0D0E02C
:101C30000BE010E0DE0163E0AA0FBB1F6A95E1F73D
:101C4000C09FB001C19F700DD09F700D1124FB018A
:101C5000E054FB4F80812181922F97709595879555
:101C6000FD01EE0FFF1FE95DFC4F91838083FB01B7
:101C7000EF53FB4F30813695369536952181422FB3
:101C80004295440F407E842F832B269526952695DA
:101C9000922F977095958795FD01EE0FFF1FE75DD9
:101CA000FC4F91838083FB01EE53FB4F8081829533
:101CB0008695869583704181942F990F990F292FCE
:101CC000282B429546954695437082818170880FF6
:101CD000880F382F342B35952795FD01EE0FFF1F08
:101CE000E55DFC4F31832083FB01EC53FB4F3081DA
:101CF00036952181422F479544274795842F832B82
:101D00002695922F977095958795FD01EE0FFF1FF1
:101D1000E35DFC4F91838083FB01EB53FB4F3081EC
:101D200032953F702181422F4295407F842F832B33
:101D300022952F70922F977095958795FD01EE0F44
:101D4000FF1FE15DFC4F91838083FB01EA53FB4F52
:101D50008081881F8827881F4181942F990F292F00
:101D6000282B441F4427441F82818370880F382FFB
:101D7000342B35952795FD01EE0FFF1FEF5CFC4FCF
:101D800031832083FB01E853FB4F30813695369534
:101D90002181422F4295440F440F407C842F832B96
:101DA00026952695922F977095958795AA0FBB1F1C
:101DB000FD01ED5CFC4F9183808367537B4FFB01FA
:101DC00020812295269527704181342F330F330FC0
:101DD000330F832F822B942F92959695977095951C
:101DE0008795AB5CBC4F11969C938E932196C23025
:101DF000D10509F01FCF8091D60483FD02C0109257
:101E0000BE0410922C0583C0243009F080C040919C
:101E10002C05442359F4183AB1F410923405109269
:101E2000330588EA0E94300881E06FC0413019F420
:101E30001093310504C0423031F410933205812FE4
:101E40000E9430085DC060913205262F30E0220FDD
:101E5000331FE42FF0E0C90102968E179F0734F07C
:101E6000433268F7E354FB4F1083E9CF2D5F3F4FB8
:101E70004091330550913405E217F30749F4912F4F
:101E800080E048275927509334054093330538C0E4
:101E9000812F90E04817590789F5809131058130ED
:101EA00069F5613118F080E180933205D0903205F8
:101EB00040ECE42E44E0F42E00E010E01BC0F701FB
:101EC000D081C0E0818190E08C2B9D2B33E09695F2
:101ED00087953A95E1F70E94EA09F801EE0FFF1F96
:101EE000E95DFC4F918380830F5F1F4F82E090E09C
:101EF000E80EF91E0D1518F31092BE0410922C0571
:101F000080912C05882319F08F5F80932C05CDB725
:101F1000DEB7E8E00C942730FF920F931F93CF9326
:101F2000DF93182F092FF62E8EE30E94C00A212F6F
:101F3000302FC901EC0110E005C08FE769910E94C4
:101F4000C00A1F5F1F15C8F385E064E00E94C00A45
:101F500083E00E94BA0A8093F90384E00E94BA0ADF
:101F60008093FA030E94F7296093FB037093FC03AC
:101F70008093FD039093FE0387E069E00E94C00A0E
:101F800081E080939A03CDB7DEB7E5E00C942A3068
:101F90000E948C0F80919A038130D9F40E94F72916
:101FA0002091FB033091FC034091FD035091FE030F
:101FB000621B730B840B950B605A764881409040EE
:101FC00040F4E8CF87E396E067E071E00E94462D99
:101FD000089580919A038130A9F3089587E396E0EC
:101FE0006EE70E94FE2E0895A0E0B0E0EAEFFFE069
:101FF0000C940A306C0187E396E06EE70E94FE2E97
:10200000760100E010E0C0E0D0E0B0E2BB2E0AC0F4
:102010000830110521F49E012095F60120870894CF
:10202000E11CF11CF7016081862F8D57823040F44E
:1020300087E396E06DE70E94FE2EF70160816B2535
:1020400087E396E00E94FE2E0115110551F0F7017D
:1020500080819E01280F311DC32FDD27C20FD31FA2
:10206000D0700F5F1F4F0930110591F6CDB7DEB765
:10207000E9E00C942630A9E0B0E0E1E4F0E10C9452
:102080001130382FE62F8091A30490E0019664E28E
:1020900070E00E94B12F982F8093A30488E9898370
:1020A00080E18A83913071F0913028F0923099F07C
:1020B0009330E1F416C085E08B8381EF8C832F5F32
:1020C0002D8317C09B8381EF8C8384E6489FC001DA
:1020D00011249D830EC084E08B8381EF8C833D832C
:1020E00008C09B8381EF8C83ED8303C00E94EE0FB9
:1020F00004C0CE0101960E94F40F2996E2E00C94F0
:102100002D300F931F93CF93DF93182F092F87E361
:1021100096E06EE70E94FE2E212F302FC901EC01C0
:1021200010E000E288818D57823040F487E396E02A
:102130006DE70E94FE2E88818027888387E396E0E2
:1021400069910E94FE2E1F5F193061F787E396E0C8
:102150006EE70E94FE2EDF91CF911F910F9108959F
:10216000A9E0B0E0E6EBF0E10C941130382F80915B
:10217000A304882379F48EEF89833A836B83842FB9
:1021800090E0959587958C832D83198618861F82FC
:102190001E822FC040919E04842F90E09C012F70DE
:1021A000307054E0959587955A95E1F7821793071B
:1021B00021F18DEF89831A821B82DE01149620E0C3
:1021C00008C0E257FB4F80818D93405F2F5F263020
:1021D00069F0842F90E0FC0134E0F595E7953A959D
:1021E000E1F78F709070E817F90759F740939E0454
:1021F0002A83CE0101960E9481108091A30490E071
:10220000019666E070E00E94B12F8093A3042996A6
:10221000E2E00C942D309F92AF92BF92CF92DF926A
:10222000EF92FF920F931F93B82EA62ED42EC22E9C
:10223000902E0E94F7297B018C0180918D042091C2
:102240009F043091A0044091A1045091A2048823DE
:10225000B1F0D801C701821B930BA40BB50B815EB3
:102260009E42A040B04020F12C2DDC1408F42D2D0E
:102270008B2D6A2D422F292D0E943B1011C0D801B1
:10228000C701821B930BA40BB50B81539547A0404C
:10229000B04070F08B2D6A2D4D2D2C2D0E94B0106A
:1022A000E0929F04F092A0040093A1041093A20472
:1022B0001F910F91FF90EF90DF90CF90BF90AF9064
:1022C0009F90089587E396E0609100040E94FE2E9F
:1022D00008951F93182F87E396E0612F0E94FE2E2A
:1022E000809100048127809300041F9108951F931B
:1022F000192F0E946911812F0E9469111F91089561
:10230000DF92EF92FF920F931F93D82E7B011092D2
:10231000000407E316E0C80165EB0E94FE2EC80129
:1023200062E60E94FE2E8D2D0E946911C7010E9457
:1023300077111F910F91FF90EF90DF900895E82F94
:10234000F0E0E456FC4FE185E03148F4F0E0EE0FB8
:10235000FF1FE95DFC4F0190F081E02D0DC0E031E1
:1023600029F0E13129F0E0E0F2E006C082E101C0AD
:1023700083E10E944B2BFC01CF0108958CE060E0CB
:102380000E947C2A8BE061E00E947C2A8DE061E063
:102390000E947C2A82E060E00E947C2A84E061E066
:1023A0000E947C2A0895EF92FF920F931F9300974B
:1023B00071F19C0140E050E068E478EE81E090E04B
:1023C0000E94E62FC901DA017C018D0183E161E001
:1023D0000E94E82A8FEFE816F1040105110539F093
:1023E00030F0FFEFEF2EF12C012D112D0AC0E1147A
:1023F000F1040105110529F4E1E0EE2EF12C012D87
:10240000112DE092B3008091B000806107C083E19C
:1024100060E00E94E82A8091B0008F7E8093B00037
:102420001F910F91FF90EF900895A0E2B0E0EBE1D3
:10243000F2E10C9409308CE00E94BA0A882389F5F5
:1024400087E396E063E171E00E94462D5E9A409A30
:1024500080E00E94A00B0E947F0C5E98409821C0F3
:1024600087E396E00E94C52E482F8091BF04882301
:1024700021F0842F0E94900D14C080912A05E82F2E
:10248000F0E031969F012F713070319780912905CE
:1024900090E02817390729F0E050FB4F4083209344
:1024A0002A0587E396E00E948B2E892BC9F680913E
:1024B0009A03843009F08EC00E94F7296093AE041D
:1024C0007093AF048093B0049093B10461157105CB
:1024D0008105910561F481E090E0A0E0B0E0809397
:1024E000AE049093AF04A093B004B093B104809174
:1024F000BA049091BB0481609093BB048093BA04AA
:1025000083E080939A038FE70E94960A07EF14E016
:102510000E94AA0AF80181938F01F5E000301F079D
:10252000B9F74091E2048091F704282F30E0842F1E
:1025300090E08227932786FF40C080E4482740939D
:10254000E204C90188739070C89709F510E014C0BF
:102550001F5F8091F803E12FF0E084FF06C0E9508F
:10256000FB4F80810E94A20C07C0E950FB4F87E31C
:1025700096E060810E94FE2E212F30E08091F704CA
:1025800090E0877090708217930714F716C02F732E
:102590003070232B91F48091F8048093B2048091E1
:1025A000F9048093B4048091FA048093B504809177
:1025B000FD048093BC041092BD0480912B058130F2
:1025C00019F482E080932B0580912B05833011F460
:1025D00010922B050E94F7295B016C018091B604D3
:1025E0009091B704A091B804B091B9040097A105E7
:1025F000B105C9F086017501E81AF90A0A0B1B0B2F
:10260000D801C701885B9B40A040B04060F00E94A9
:10261000E10A8093B3041092B6041092B7041092AA
:10262000B8041092B90480ED93E00E94F50820915F
:10263000AA043091AB044091AC045091AD048601E2
:102640007501E21AF30A040B150BE616F7060807E4
:10265000190708F411C1A092AA04B092AB04C09269
:10266000AC04D092AD04A8958091BE048830A0F04F
:102670008091A1039091A203A091A303B091A40320
:102680002CE1B695A795979587952A95D1F7009750
:10269000A105B10509F090C18091BE048F5F8093C0
:1026A000BE04E090AE04F090AF040091B00410912D
:1026B000B104E114F1040105110511F180ED93E07D
:1026C0000E94F508AE18BF08C00AD10A6A157B053A
:1026D0008C059D0588F48091A10384FD04C080EDE4
:1026E00097E00E94D3111092AE041092AF041092A2
:1026F000B0041092B10404C080E090E00E94D311B5
:102700009091E204907C9093E20400912A0510914C
:1027100029050117B1F180912B05823091F5905870
:102720009093E20480ED93E00E94EB08893010F072
:1027300048E002C0482F415030E013C03F5FA32F54
:10274000B0E0812F90E0FC01E050FB4F2081FD01C3
:10275000EE51FB4F2083A05EBA4F2C930196182FA9
:102760001F71341710F4101749F710932905832FA0
:10277000895C9091E204892B8093E20430932005D8
:102780001AC020912B052430D1F490912005E1E26C
:10279000F5E0A3EEB4E0292F30E02E0F3F1F02C07A
:1027A00081918D93E217F307D9F7995C8091E20448
:1027B000982B9093E20483E080932B0539C080919D
:1027C000A504823031F491609093E2045E9A409ABD
:1027D00010C09093E2045E984098222319F481E09F
:1027E00080932B0580912B05833019F484E080932E
:1027F0002B05F89405EA13E07E010894E11CF11C16
:10280000F80181918F010E949F11F70181939193AB
:102810007F01F3E0053B1F0799F78091F80387706C
:10282000BE016F5F7F4F43EE54E00E947C097894B5
:102830005D9A419A8091A4040E94CB0A80ED93E0B6
:102840000E94EB08682F82EE94E00E948C0FE091CA
:10285000A404EF5FE093A404E83131F0F0E0E0532A
:10286000FC4F8785882341F41092A40405C05E9A2A
:10287000409A89E08093BE048091F803887171F1D9
:1028800080919A03823051F58091BA049091BB04F3
:10289000880F991F9093BB048093BA0483E08093C0
:1028A0009A030E947F0C0E94F7296093B6047093EC
:1028B000B7048093B8049093B9046115710581053C
:1028C000910561F481E090E0A0E0B0E08093B6046F
:1028D0009093B704A093B804B093B9048091F8031F
:1028E00084FF1EC08091BA049091BB048E7F0E9429
:1028F0003E0A182F8091B2046091BC040E947A0DA8
:10290000082F8091B304612F0E947A0D282F8091A7
:10291000B4046091B504402F00919B030E940B11F9
:102920005D9841988091A5048130D1F0813020F0EC
:10293000823009F047C034C082E10E941B2B892BF2
:1029400009F040C081E08093A5040E94E9296093CA
:10295000A6047093A7048093A8049093A90432C09E
:1029600082E10E941B2B892B21F50E94E9292091ED
:10297000A6043091A7044091A8045091A904621BB9
:10298000730B840B950B695E734080409040D0F0D0
:1029900082E08093A50480ED97E00E94D31112C0DD
:1029A00082E10E941B2B892B69F080E090E00E945D
:1029B000D3111092A50406C08091BE04883009F09E
:1029C00058CF55CFA096EAE00C94253083E161E022
:1029D0000E947C2A83E160E00E94E82A82E08093E2
:1029E000B00085E08093B10083E061E00E947C2A22
:1029F00083E060E00E94E82A08951F93182F0E9448
:102A0000F72960939F047093A0048093A10490938E
:102A1000A20410938D04112329F440E855E260E0EC
:102A200070E004C040E051EE60E070E087E396E0C3
:102A30000E94042E1F910895ACE1B0E0E2E2F5E1BE
:102A40000C9409300E94F7297B018C0181E00E94DF
:102A5000A00B54E7A52E6E010894C11CD11C43E0C5
:102A6000B42EA982C60161E00E94C80FB0929A03F9
:102A70000E947F0C6AEF70E080E090E00E941D2AC7
:102A800080919A03833009F07DC087E396E00E942D
:102A90008B2E892B09F076C00E94F7296E197F09C9
:102AA000800B910B6058734C894C914008F06AC0C0
:102AB000D8CF8FE70E94960A0E94AA0A843509F0AF
:102AC0005CC089830E94AA0A182F00E010938C042E
:102AD00000938B040E94AA0A080F111D10938C0406
:102AE00000938B040E94AA0A80938A040E94AA0A77
:102AF00080938904813108F040C0FF2407C00E9400
:102B0000AA0A07591B4FF8018083F3940F2D10E098
:102B10008091890490E0880F991F0817190778F3AE
:102B200080E78983CE01019661E00E94C80F83E0AF
:102B300080939A030E947F0C62E370E080E090E053
:102B40000E941D2A80919A038330A9F08FE70E948A
:102B5000960A0E94AA0A803581F4898305EB13E066
:102B60000E94AA0AF80181938F01F3E0003D1F073C
:102B7000B9F781E003C082E001C083E06C96EAE02F
:102B80000C94253080919A03833009F092CFF3CFD3
:102B900083E00E94BA0A8093F90384E00E94BA0A93
:102BA0008093FA0387E061E00E94C00A6AE070E067
:102BB00080E090E00E941D2A0E947F0C0000089592
:102BC0000F931F93082F19C05E9A409A64E670E035
:102BD00080E090E00E941D2A5E98409864E670E0D4
:102BE00080E090E00E941D2A1F5F101768F36CE2DE
:102BF00071E080E090E00E941D2A10E0F6CF482F9F
:102C0000392F25E00DC0F999FECF1FBA842F932FDD
:102C100092BD81BD60BD0FB6F894FA9AF99A0FBEC5
:102C2000215059F0F999FECF842F932F92BD81BD89
:102C3000F89A80B5681739F7089582E00E94E01588
:102C40000895A0E0B0E0E7E2F6E10C940230482EEF
:102C5000562EEE24FF2488249924C0E0D0E0CC2412
:102C6000DD2416E4312E04C055245394CC24DD24F5
:102C7000442069F480919B03839DE0011124BCE909
:102C8000EB2EB3E0FB2EA9E18A2E912C1DC021E092
:102C9000421671F480919B03839DE00111246B9691
:102CA000F0EDEF2EF3E0FF2EE9E28E2E912C0CC01A
:102CB00032E0431649F47BE9E72E73E0F72E61E03A
:102CC000862E912CC8E1D1E03E016C0C7D1C109247
:102CD000340510923305E3011BC0552059F4F999CE
:102CE000FECFD2BDC1BDF89A80B5F701E00FF11F4C
:102CF000808307C0F701E00FF11FCE0160810E94C1
:102D0000FF150E0D1F1DF80180810E9430082196CD
:102D10009E012619022F10E008151905F0F2CE01C8
:102D20005520D9F4F999FECFD2BDC1BDF89A20B58E
:102D3000F999FECF2196D2BDC1BD2197F89A80B5F1
:102D400090E0B22EAA248A299B2920913305309144
:102D500034052817390759F487CF21966091340537
:102D60000E94FF15CE01609133050E94FF1580E29D
:102D700091E0C80ED91E91EEC91692E0D90608F46A
:102D800077CF852DCDB7DEB7E1E10C941E3080E022
:102D900061E00E94211681E061E00E942116089501
:102DA00080E060E00E942116882331F081E060E03D
:102DB0000E942116882331F40E9492080E944D0837
:102DC0000E94C716089582E061E00E9421160895CE
:102DD00082E060E00E94211680919B03843020F005
:102DE00010929B030E94E31608951F93182F0E94D0
:102DF000E81680919B03811731F0143020F4109372
:102E00009B030E94E3161F9108951092670485E6C4
:102E1000E2E0F4E0DF011D928A95E9F708951F933F
:102E2000182F8F3711F08830E1F5E0916704EE2319
:102E300009F455C0E150E0936704F0E0EE5FFB4F0A
:102E4000108287E396E06DE00E94FE2E10E00AC03B
:102E5000E12FF0E0EE5FFB4F87E396E060810E9498
:102E6000FE2E1F5F80916704181790F387E396E0AA
:102E700060E20E94FE2E87E396E06DE00E94FE2E47
:102E800010E00AC0E12FF0E0EE5FFB4F87E396E031
:102E900060810E94FE2E1F5F80916704181790F3D7
:102EA0001CC08B3119F40E9405171FC08D30E9F04A
:102EB0008A30D9F080916704843688F487E396E0FD
:102EC000612F0E94FE2E80916704E82FF0E0EE5FF4
:102ED000FB4F10838F5F8093670480E007C087E318
:102EE00096E067E00E94B22BF8CF81E01F91089531
:102EF0001F93CF93DF93CFEDD3E010E03BC087E388
:102F000096E062E271E00E94432D87E396E0612F34
:102F10004AE050E00E94C02C87E396E06FE271E047
:102F20000E94432D699170E080E090E02091DE03E3
:102F300030E040E050E00E94922F20E137E240E094
:102F400050E00E94922FDC01CB014091D5035091BB
:102F5000D6036091D7037091D803480F591F6A1F99
:102F60007B1F87E396E02AE030E00E94872C1F5FFA
:102F7000183119F08881882311F6DF91CF911F91C4
:102F80000895EF92FF920F931F93882339F487E3FC
:102F900096E061E77AE00E94D02B3BC090E00E946F
:102FA000B20824E630E040E050E00E94C42F122F27
:102FB000032FF42EE52E622F732F842F952F2AE0F6
:102FC00030E040E050E00E94C42F87E396E0BA0171
:102FD000A9012AE030E00E94782C87E396E06EE2B7
:102FE0000E94B22B612F702F8F2D9E2D2AE030E092
:102FF00040E050E00E94C42FAB01BC0187E396E0A3
:103000002AE030E00E94782C87E396E063E70E9494
:10301000E42B1F910F91FF90EF900895FF920F9373
:103020001F93CF93DF9387E396E067E67AE00E94F1
:10303000912B8091B503813041F487E396E06EE4F3
:103040007AE00E94D02BFF246DC0823029F487E300
:1030500096E067E37AE0F5CF843029F487E396E0E1
:1030600063E27AE0EECF853071F787E396E068E1BE
:103070007AE0E7CFCF2DD0E0C930D1051CF06F2D1D
:10308000685C02C06F2D6F5C87E396E00E94B22BF4
:1030900087E396E060E17AE00E94912BBE016F5FCA
:1030A0007F4F87E396E04AE050E00E941C2D87E3C3
:1030B00096E065E07AE00E94912B8E010B541C4F44
:1030C000D8011196EC91E032F8F487E396E068EFCE
:1030D00079E00E94912BF8018181803130F087E303
:1030E00096E063E371E00E94432DCB54DC4F69818D
:1030F00070E06F7070706F5F7F4F87E396E04AE01B
:1031000050E00E942F2D0DC0F0E0EF70F070EE0F38
:10311000FF1FE75BFC4F6081718187E396E00E94AF
:10312000462DF39480918A04F81608F4A3CF87E320
:1031300096E06DED79E00E94912B8091CD030E9485
:10314000C11787E396E062EC79E00E94912B8091B1
:10315000CE030E94C11787E396E067EA79E00E94F8
:10316000912B8091CF030E94C11787E396E06CE812
:1031700079E00E94912B4091C5035091C603609164
:10318000C7037091C803411551056105710539F1F7
:1031900087E396E02AE030E00E94872C87E396E000
:1031A00069E579E00E94912B8091C9030E94E508AE
:1031B000AB01BC0187E396E02AE030E00E94872C57
:1031C00087E396E065E379E00E94912B87E396E040
:1031D0006091CA034AE050E00E94D22C06C087E307
:1031E00096E06CE279E00E94D02B87E396E06FE0F6
:1031F00079E00E94912B6091CB037091CC0387E31F
:1032000096E04AE050E00E94AC2C87E396E062EF43
:1032100078E00E94912B6091C403603450F470E018
:103220006F5F7F4F87E396E04AE050E00E942F2DCA
:1032300006C087E396E069EE78E00E94D02B87E332
:1032400096E06CEC78E00E94912B8091C30380FDA6
:1032500003C065E371E002C069E371E087E396E0D3
:103260000E94462D87E396E06FEA78E00E94912B5A
:103270008091C30382700E94840D87E396E060E929
:1032800078E00E94912B8091C30384700E94840D8A
:1032900087E396E061E778E00E94912B8091C30379
:1032A00088700E94840DCDB7DEB7E5E00C942A301B
:1032B0001F93CF93DF9387E396E06BEB7BE00E9455
:1032C000912B4091D5035091D6036091D703709113
:1032D000D80387E396E02AE030E00E94872C87E35A
:1032E00096E065EA7BE00E94912B4091D9035091D2
:1032F000DA036091DB037091DC0387E396E020E161
:1033000030E00E94872C87E396E06FE87BE00E9424
:10331000912B87E396E06091DD034AE050E00E9444
:10332000D22C87E396E069E77BE00E94912B87E34C
:1033300096E06091DE034AE050E00E94D22C87E3E1
:1033400096E063E67BE00E94912BCFEDD3E010E0A6
:1033500012C0112331F087E396E06DE371E00E9423
:10336000432D87E396E069914AE050E00E94C02C2B
:103370001F5F183119F08881882359F787E396E099
:103380000E94BA2B87E396E06DE47BE00E94912BCC
:1033900087E396E06091F7034AE050E00E94D22C68
:1033A00087E396E068E37BE00E94912BE091F803CD
:1033B000F0E0E770F070EE0FFF1FE759FC4F6081FF
:1033C000718187E396E00E94462D87E396E063E2F1
:1033D0007BE00E94912B8091F80390E088719070BF
:1033E0008830910589F0893091051CF4892B39F0DA
:1033F0001BC08031910569F04897B1F40FC087E395
:1034000096E06AE17BE00EC087E396E06EE07BE049
:1034100009C087E396E068E07BE004C087E396E0BC
:103420006EEF7AE00E94D02B87E396E06AEE7AE0B6
:103430000E94912B4091D1035091D2036091D3030C
:103440007091D40387E396E02AE030E00E94872C55
:1034500087E396E061ED7AE00E94912B8091A103D1
:1034600080710E94840D87E396E068EB7AE00E9409
:10347000912B8091A10380740E94840D87E396E0D4
:103480006FE97AE00E94912B8091A10380720E94E3
:10349000840D87E396E062E87AE00E94912B80ED4C
:1034A00093E00E94F508AB01BC0187E396E02AE0B7
:1034B00030E00E94782C87E396E06DE77AE00E9486
:1034C000912B80ED93E00E94F5089B01AC0160E434
:1034D00072E48FE090E00E94C42F87E396E0BA0187
:1034E000A9012AE030E00E94782C87E396E06AE7A1
:1034F0007AE00E94D02BDF91CF911F910895EF9237
:10350000FF920F931F937C0107E316E0C8016F2D14
:1035100070E04AE050E00E949B2CC8016EE20E94DD
:10352000B22BB70124E0769567952A95E1F76F7085
:103530007070C8014AE050E00E949B2CC8016EE206
:103540000E94B22B8FE0E822FF24C801B7014AE0B5
:1035500050E00E949B2C1F910F91FF90EF900895D7
:103560000F931F93CF93DF93209101042F3FA9F571
:1035700087E396E061EF75E00E94912B81E793E08D
:103580000E947F1A87E396E060ED75E00E94912B20
:1035900080918B0490918C040E947F1A87E396E0BF
:1035A0006DE975E00E94D02B87E396E06AE775E04D
:1035B0000E94D02B87E396E062E675E00E94D02B54
:1035C00087E396E06DE375E00E94D02B87E396E0F9
:1035D0000E94BA2B0E940E1869C012160CF066C029
:1035E000332727FD309580918A0490E08217930756
:1035F0000CF45CC087E396E068E275E00E94912BD2
:1036000060910104772767FD709587E396E04AE0B3
:1036100050E00E942F2D87E396E06DEF74E00E944A
:10362000912B10E008E23AC0C12FD0E0CC0FDD1F93
:10363000C759DB4F288130E080910104992787FD2D
:10364000909501972817390741F587E396E06FE3D6
:1036500071E00E94432D87E396E0602F4AE050E03E
:103660000E94C02C87E396E063E471E00E94432D42
:10367000E981F0E0EF70F070EE0FFF1FE75BFC4FA9
:103680006081718187E396E00E94432D87E396E095
:1036900067E471E00E94432D0F5F1F5F80918904F2
:1036A000181710F287E396E00E94BA2BDF91CF91B2
:1036B0001F910F910895ACE1B0E0E1E6FBE10C94BD
:1036C0000B30282F809101048F3F09F042C1822FD7
:1036D00090E0FC013A97EF36F10508F033C1EC5C5D
:1036E000FF4F0C94383087E396E069E471E0AEC098
:1036F00087E396E069E471E00E94462D1CC187E3F0
:1037000096E065E571E00E94462D85E78983DE013C
:103710001296E5EBF3E08BE101900D928150E1F719
:10372000CE0101966CE10E94C80F0E947F0C83E0DD
:1037300080939A0368EC70E080E090E00E941D2A7C
:1037400080919A03843009F0FDC08FE70E94960AA9
:103750000E94AA0A8983853509F0F4C087E396E0C0
:103760006FED74E00E94D02B87E396E061EC74E08B
:103770000E94D02B87E396E063EA74E0ACC087E355
:1037800096E06DE671E00E94462D89E68983CE01C0
:10379000019661E00E94C80F0E947F0C83E0809335
:1037A0009A0368EC70E080E090E00E941D2A80910E
:1037B0009A03843009F0C6C08FE70E94960A0E94DF
:1037C000AA0A89838E010E5F1F4FBDE1EB2EF12CFB
:1037D000EC0EFD1E0E94AA0AD8018D938D01AE1534
:1037E000BF05C1F7A5EBB3E0FE0132968BE1019076
:1037F0000D928150E1F78981893409F0A3C087E3F4
:1038000096E065E874E00E94D02B87E396E067E6D7
:1038100074E00E94D02B87E396E069E474E05BC01B
:1038200087E396E067E871E00E94462D8EEF809373
:10383000010488C020522750922F905380918A040F
:10384000891738F487E396E066E971E00E94462D17
:1038500079C0909301046FC084E18093010487E3F1
:1038600096E062E174E037C085E18093010487E36C
:1038700096E06BED73E02FC086E18093010487E34F
:1038800096E064EA73E027C087E18093010487E350
:1038900096E06AE573E01FC088E18093010487E346
:1038A00096E069E473E017C089E18093010487E33F
:1038B00096E065E373E00FC08AE18093010487E33B
:1038C00096E060E273E007C08BE18093010487E338
:1038D00096E068EF72E00E94D02B34C087E396E058
:1038E0006EED72E00E94D02B8091C30391E01DC069
:1038F00087E396E068EC72E00E94D02B8091C303CE
:1039000092E013C087E396E063EB72E00E94D02B55
:103910008091C30394E009C087E396E068E972E010
:103920000E94D02B8091C30398E089278093C30322
:103930008FEF809301040E94B01A04C087E396E0E1
:103940000E94C52E87E396E00E948B2E892BB1F74B
:1039500062C1822F0E940F17882309F45CC18091F5
:103960006704882321F48FEF809301044CC182E027
:1039700094E060E070E040E050E00E94A2069B010D
:10398000AC0160910104862F992787FD9095A92F9E
:10399000B92FFC013197EB31F10508F024C1ED5549
:1039A000FF4F0C943830E62FFF27E7FDF09580910C
:1039B0008A0490E08E179F070CF415C1DA01C90143
:1039C0000197A109B1098097A105B10548F0A8E2C6
:1039D000FA2E00E010E06F010894C108D10825C05C
:1039E000EB54FC4F822F81508083E5C0612F70E043
:1039F000660F771F67597B4FFB01808190E08C1524
:103A00009D0591F48F2D90E0A0E0B0E08217930720
:103A1000A407B50741F4F601EB54FC4FDB01119606
:103A20008C91818301E0F3941F5F809189041817C2
:103A3000E8F2BFC02F3F31054105510511F008F0F4
:103A4000D2C02093CD03B7C02F3F310541055105AA
:103A500011F008F0C8C02093CE03ADC02F3F310550
:103A60004105510511F008F0BEC02093CF03A3C05B
:103A7000809102048062803719F583E094E060E071
:103A800070E040E050E00E94A2069B01AC01DC0126
:103A9000CB010197A109B1090897A105B10508F06B
:103AA000B5C0CA01B90124ED30E340E050E00E9406
:103AB000922F9B01AC012A5E3C4A4A46554E24C0D7
:103AC000863611F583E094E060E070E040E050E07D
:103AD0000E94A2069B01AC01DC01CB010197A10968
:103AE000B1090797A105B10508F090C0CA01B90155
:103AF00028EA31E640E050E00E94922F9B01AC01A1
:103B0000245E3C434E46544E211531054105510576
:103B100061F0DA01C9018054914EAD49B841815834
:103B2000904FAA4FB24008F05EC02093C503309377
:103B3000C6034093C7035093C8033DC02F3F3105D0
:103B40004105510511F008F04EC02093C90333C060
:103B5000DA01C9010197A109B1098F3F9105A105BA
:103B6000B10508F040C02093CA0325C0DA01C9019D
:103B7000845C9940A040B0408D549D41A040B0402D
:103B800030F43093CC032093CB0301E001C000E07C
:103B9000211531054105510511F48FEF07C021347E
:103BA00031054105510528F4822F81508093C403CB
:103BB00002C00023C1F0809168048823D1F4809171
:103BC000D9039091DA03A091DB03B091DC03019655
:103BD000A11DB11D8093D9039093DA03A093DB0359
:103BE000B093DC0306C087E396E068EA71E00E94C8
:103BF000462D0E9405178FEF8093010487E396E01E
:103C00006AE00E94E42B0E94B01A05C021E030E077
:103C100040E050E07ECF6C96E8E00C94273087E3DC
:103C200096E06CE472E00E94D02B87E396E064E3B8
:103C300072E00E94D02B87E396E00E948B2E892BA6
:103C400031F087E396E00E94C52E0E945B1B0E9424
:103C50001C15823019F0833069F405C087E396E0C3
:103C600066E172E004C087E396E06FEF71E00E94C6
:103C7000D02B08958FEF80930104109268040E9466
:103C8000B01A0CC087E396E00E948B2E892B31F08E
:103C900087E396E00E94C52E0E945B1B8091010481
:103CA0008E3F81F7089580910104992787FD9095B3
:103CB000A92FB92FFC013196EB30F10508F074C043
:103CC000E254FF4F0C94383087E396E064E678E0E6
:103CD0000E94D02B81E793E00E947F1A87E396E051
:103CE0006CE478E00E94D02B87E396E067E278E00E
:103CF0000E94D02B87E396E06DEF77E00E94D02BF7
:103D000087E396E06CED77E00E94D02B87E396E0A6
:103D10006FEA77E00E94D02B87E396E069E877E0CE
:103D20000E94D02B87E396E065E677E00E94D02BD7
:103D300087E396E06EE377E00E94D02B87E396E07E
:103D40000E94BA2B0E9458192FC087E396E061E2C7
:103D500077E028C087E396E06CEF76E023C087E346
:103D600096E067EE76E01EC087E396E068EC76E0CA
:103D700019C087E396E064E876E014C087E396E034
:103D80006FE676E00FC087E396E06AE576E00E9492
:103D9000D02B87E396E064E176E004C087E396E009
:103DA0006EEF75E00E94D02B6AE070E080E090E05A
:103DB0000E941D2A04C087E396E00E94C52E87E377
:103DC00096E00E948B2E892BB1F70895A2E2B0E015
:103DD000ECEEFEE10C9401308E010F5F1F4F80E18D
:103DE000D8011D928A95E9F787E396E066EC71E0C9
:103DF0000E94462D0E94C81520E431EE4DE958E19D
:103E00002F8F38A349A35AA380EC91EDA8E9BBE119
:103E10008B8F9C8FAD8FBE8F24EF31E040E050E060
:103E20002F8B388F498F5A8F30E5C32E33ECD32E2A
:103E3000E12CF12C20E4422E21EE522E2DE9622EAF
:103E400028E1722E88249924540133241E8A1D8A65
:103E5000198A1A8A1B8A1C8AFFC087E396E00E948F
:103E6000C52E8434B9F0853430F48332B9F18C3204
:103E700009F0CCC044C0833509F0C8C02F8D38A1EB
:103E800049A15AA1C901DA012C013D0188249924D4
:103E90005401E2C087E396E064E40E94B22B87E31A
:103EA00096E040E451EE6DE978E12AE030E00E94CE
:103EB000E62C87E396E06CE20E94B22B87E396E063
:103EC00040EC51ED68E97BE12AE030E00E94E62C0D
:103ED00087E396E06CE20E94E42BBEC019821A824E
:103EE0001B821C821D821E821F82188619861A86DA
:103EF0001B861C861D861E861F86188A3AC0339430
:103F000034E0331609F0A8C069817A818B819C81E5
:103F100028EE33E040E050E00E94922F6F8F78A3AC
:103F200089A39AA36D817E818F8198850E94922FAB
:103F30006B8F7C8F8D8F9E8F89859A85AB85BC8595
:103F40008F8B988FA98FBA8F6D857E858F85988985
:103F50000E94922F6B017C0190E2C9169EE4D90663
:103F600090E0E90690E0F90630F48CE162E30E940B
:103F7000C00A332471C0A0E3CA16A5E7DA06A0E0A0
:103F8000EA06A0E0FA0618F48CE162E2F0CFB0E4B1
:103F9000CB16BCE9DB06B0E0EB06B0E0FB0618F49C
:103FA0008CE166E2E4CFE0E5CE16E3ECDE06E0E08D
:103FB000EE06E0E0FE0618F48CE162E1D8CFF0E610
:103FC000CF16FAEEDF06F0E0EF06F0E0FF0618F499
:103FD0008CE165E1CCCF20E7C21621E1D20621E0D9
:103FE000E20620E0F20618F48CE161E0C0CF30EA8E
:103FF000C31636E8D30631E0E30630E0F30618F4E2
:104000008CE163E0B4CF8CE165E0B1CF90ED292E77
:10401000280E49E0421500F1032D10E0000F111F9A
:10402000000F111F81E090E08C0F9D1F080F191FDA
:10403000D8016D917D918D919C912AE030E040E016
:1040400050E00E94922F620D711D811D911DF8019B
:10405000608371838283938387E396E00E948B2E33
:10406000892B09F0FACE81149104A104B10489F4DA
:10407000C301B2010E94360B61E070E080E090E085
:104080000E941D2AFFEFFE8B1D8A198A1A8A1B8A3D
:104090001C8A2F89388D498D5A8D82169306A40665
:1040A000B506E0F40E94E10A29893A894B895C89C6
:1040B000280F311D411D511D298B3A8B4B8B5C8B79
:1040C0003D89381708F48D8B4E89841708F48E8B40
:1040D0000894811C911CA11CB11C56C0C301B201E3
:1040E00028EE33E040E050E00E94C42F87E396E0E2
:1040F000BA01A9012AE030E00E94782C87E396E01B
:104100006CE20E94B22B87E396E06D894AE050E0B2
:104110000E94C02C87E396E06CE20E94B22B698972
:104120007A898B899C89A50194010E94C42F87E319
:1041300096E0BA01A9012AE030E00E94782C87E3DA
:1041400096E06CE20E94B22B87E396E06E894AE02B
:1041500050E00E94C02C87E396E06CE20E94E42BC2
:104160004C0C5D1C6E1C7F1C8B8D9C8DAD8DBE8D93
:1041700084159505A605B70520F44F8C58A069A0B5
:104180007AA08824992454012F8D38A149A15AA1DD
:10419000285E33404040504009F05ECFA296E2E1F5
:1041A0000C941D30AAE5B0E0E8EDF0E20C940D307F
:1041B0008B017A018B3009F425C18C3040F58530B4
:1041C00009F484C0863080F4823009F459C0833009
:1041D00020F4813009F051C242C0833009F461C03B
:1041E000843009F04AC265C0883009F49DC0893026
:1041F00038F4863009F486C0873009F03EC28CC09E
:10420000893009F499C08A3009F037C2C9C08936AB
:1042100009F483C18A3680F4863609F42EC18736C4
:1042200020F4853609F029C20FC1873609F43EC152
:10423000883609F022C242C18C3609F4C5C18D36D8
:1042400038F48A3609F474C18B3609F016C2B0C14D
:104250008D3609F4EDC1873C09F00FC201C281E03F
:1042600069E270E00E94801100ED13E0F801819195
:104270008F010E946911F3E0093F1F07B9F705C2DA
:1042800082E06BE170E00E94801105EB13E0F80121
:1042900081918F010E946911F3E0003D1F07B9F77A
:1042A000F4C183E061E070E00E9480110E941C155F
:1042B000EAC184E061E070E00E94801181E00E9428
:1042C00069110E9462110E94E61EE1C16091890499
:1042D00070E0660F771F85E00E94801100E010E01B
:1042E00008C0F801E759FB4F80810E9469110F5FF8
:1042F0001F4F8091890490E0880F991F08171907B4
:1043000080F3C3C186E062E070E00E94801181E723
:1043100093E00E947711B9C187E061E070E00E94EC
:10432000801180918A04AFC188E061E070E00E9452
:10433000801180919B03A7C186E68983CE010196F7
:1043400061E00E94C80F0E947F0C83E080939A0373
:1043500068EC70E080E090E00E941D2A80919A0352
:104360008430E1F48FE70E94960A0E94AA0A8983AA
:10437000863471F489E060E270E00E94801110E000
:104380000E94AA0A0E9469111F5F1032C9F77DC1FD
:1043900089E061E070E00E948011C8C089E06EC1D0
:1043A0008AE069E170E00E94801110929C03809184
:1043B000A105882351F08091A1039091A203A091BF
:1043C000A303B091A403806809C08091A1039091D8
:1043D000A203A091A303B091A4038F778093A103BC
:1043E0009093A203A093A303B093A4030CE913E05A
:1043F000F80181918F010E946911F3E0053B1F07CD
:10440000B9F743C18BE061E270E00E9480118091B6
:10441000BE048F3F39F08091BE048F5F8093BE044D
:10442000815002C08091BE040E94691110E0F8948E
:10443000812F0E949F110E94190A0E94771178947F
:104440001F5F1031A1F721C185E661E070E00E9495
:1044500080110932110509F015C120E030E0F901A1
:10446000E053FC4FD701A20FB31F8C9180832F5FC5
:104470003F4F2932310599F759C086E661E070E077
:104480000E9480110B31110509F0FCC020E030E0E2
:10449000F901EB54FC4FD701A20FB31F8C9180831D
:1044A0002F5F3F4F2B31310599F740C087E661E020
:1044B00070E00E9480110E94C71638C088E661E053
:1044C00070E00E94801185E78A83DE011396E5EB98
:1044D000F3E08BE101900D928150E1F7CE0102965D
:1044E0006CE10E94C80F0E947F0C83E080939A03C6
:1044F00060E273E080E090E00E941D2A80919A03C0
:10450000843009F0BFC08FE70E94960A0E94AA0A71
:104510008A83853509F0B6C009C089E661E070E09C
:104520000E9480110E944D080E94920881E0ABC059
:104530008AE661E070E00E94801189E68E8FCE01EC
:104540004E9661E00E94C80F0E947F0C83E080932A
:104550009A0360E273E080E090E00E941D2A80915F
:104560009A03843009F08EC08FE70E94960A0E9459
:10457000AA0A8E8F8E01015E1F4F4AE3E42EF12CB2
:10458000EC0EFD1E0E94AA0AF80181938F01EE1520
:10459000FF05C1F7A5EBB3E0FE017F968BE101902B
:1045A0000D928150E1F78E8D893409F06BC0BECF3A
:1045B0008BE661E070E00E948011F70180810E942B
:1045C000F5160E94D016B2CF8CE661E070E00E9432
:1045D00080110032110571F487E68AAFDE01DB96A7
:1045E000F70180E201900D928150E1F7CE01CA9669
:1045F00061E205C087E48AAFCE01CA9661E00E94FD
:10460000C80F0E947F0C83E080939A036CE474E0EF
:1046100080E090E00E941D2A80919A03843091F5F9
:104620008FE70E94960A0E94AA0A873459F57ECF26
:104630008DE661E070E00E9480110931110511F5ED
:1046400020E030E0F901E456FC4FD701A20FB31F80
:104650008C9180832F5F3F4F2931310599F766CFC9
:1046600087EC61E070E00E94801181E00E94691196
:104670000E9462111092FF030AC08AEC61E070E0B0
:104680000E94801180E00E9469110E946211C65A46
:10469000DF4FE6E00C942930A0E0B0E0E2E5F3E281
:1046A0000C94093084E0A82E06E0B02E15E0C12E4F
:1046B00005E315E0B4E6DB2EA2E0EA2EF3E0FF2EE0
:1046C000A1C087E396E00E94C52E982F8093A00595
:1046D00080919F05833021F1843028F4813099F056
:1046E0008230B8F409C0853009F448C0853020F123
:1046F000863009F087C05FC0953B09F083C081E038
:1047000080939F057FC0923609F07AC0E0929F05A2
:1047100079C090939E0590939D05F0929F0572C07D
:1047200090939B0510929C0580919D05892780930D
:104730009D05A0929F0566C0D92FC0E020919B05E2
:1047400030919C052C2B3D2B30939C0520939B0591
:1047500080919D05892780939D05C0929F052536F0
:10476000310508F44FC08CEC61E070E00E948011CC
:1047700081E00E9469110E94621142C02091990556
:1047800030919A05F901EB5CFA4F908380919D0579
:10479000892780939D052F5F3F4F30939A05209383
:1047A000990580919B0590919C052817390750F138
:1047B000B0929F0527C080919D05891759F460919B
:1047C000990570919A0580919E0545E355E00E94F8
:1047D000D2200DC08BEC62E070E00E9480118091CD
:1047E0009E050E946911809100040E946911F801E0
:1047F0008D2D11928A95E9F710929A0510929905DC
:1048000010929F0587E396E00E948B2E892B09F07A
:1048100058CFCDB7DEB7EAE00C94253081E0809325
:10482000FF0308C087E396E00E948B2E892B11F0CE
:104830000E944C238091FF038823A1F70895A0E0F4
:10484000B0E0E5E2F4E20C940C300E94F729611527
:10485000710581059105C9F30E9499061092D9034B
:104860001092DA031092DB031092DC03DD24E09057
:10487000D903F090DA030091DB031091DC03102FD1
:104880000F2DFE2CEE240E9494062FEF30E040E026
:1048900050E00E94E62FE60EF71E081F191FE09257
:1048A000D903F092DA030093DB031093DC03D39473
:1048B00044E0D416E1F6CFEDD3E000E010E090E163
:1048C000E92E97E2F92E4EC00F5F19F40E944D08B1
:1048D0004DC00E94940622E330E040E050E00E9488
:1048E000E62F6F5FEFEDF3E090E004C08191861753
:1048F00059F39F5F9117D0F38091DE0390E08E9D76
:1049000090018F9D300D9E9D300D1124862F90E0DB
:10491000AC01249FC001259F900D349F900D112460
:10492000AA2797FDA095BA2F2091D5033091D603E1
:104930004091D7035091D803820F931FA41FB51F36
:1049400020919D0330919E0340919F035091A003BD
:10495000281739074A075B0708F4B6CF69931F5F2A
:10496000183121F08881882309F0AECFCDB7DEB7AA
:10497000E7E00C9428301F93109101041F3F09F0C9
:10498000F1C0893409F467C08A3428F5883309F402
:1049900079C0893368F4803309F486C0813308F024
:1049A0006FC08B3109F44DC0813209F0D5C03DC0D4
:1049B000813409F49AC0823438F4893309F472C01E
:1049C000803409F0C9C031C0823409F4A1C08634F2
:1049D00009F0C2C052C0823609F49AC0833690F4FE
:1049E000883579F1893538F4823509F43FC083354B
:1049F00009F0B2C01FC08A3509F4A9C0813609F098
:104A0000ABC073C0823791F1833730F48636A9F199
:104A1000893609F0A1C01FC0883799F08A3709F498
:104A200096C0833709F098C005C087E396E069E433
:104A300071E019C00E94C71687E396E063ED71E04C
:104A400006C00E94D01687E396E06DEE71E00E94EA
:104A5000462D8EEF7FC00E944D080E94920887E38A
:104A600096E06CE072E00E94462D76C00E941F2402
:104A700087E396E065E272E0F6CF0E9478176CC09B
:104A8000805368C087E396E06CEE71E00E94D02B03
:104A90009091F803892F885F8871977E892B809386
:104AA000F80320C089E056C087E396E069ED71E025
:104AB0000E94D02B8091A1039091A203A091A30307
:104AC000B091A40320E130E040E050E0822793273A
:104AD000A427B5278093A1039093A203A093A303D7
:104AE000B093A4031093010437C087E396E063EC0E
:104AF00071E00E94D02B8091A1039091A203A0911C
:104B0000A303B091A40320E430E040E050E012C0E1
:104B100087E396E062EB71E00E94D02B8091A103C5
:104B20009091A203A091A303B091A40320E230E0EE
:104B300040E050E082279327A427B5278093A10364
:104B40009093A203A093A303B093A40302C00E9476
:104B50000F1E8FEF80930104809101048E3F09F4B2
:104B6000DDC0D4C00E940F17882309F4D7C08091FC
:104B70006704882321F48FEF80930104C7C082E08B
:104B800094E060E070E040E050E00E94A2069B01EB
:104B9000AC0180910104992787FD9095A92FB92F29
:104BA000FC013197E930F10508F08CC0E753FF4F65
:104BB0000C943830DA01C9018154914EAD49B841A5
:104BC0008F57904FAA4FB24008F07CC02093D50376
:104BD0003093D6034093D7035093D8039AC02093C1
:104BE000D9033093DA034093DB035093DC0381E075
:104BF000809368048EC0283031054105510508F0C6
:104C000061C02093DD0385C0DA01C9010197A109C4
:104C1000B1090A97A105B10508F054C02093DE033D
:104C200078C082E094E06DE371E00E94BE0710E07E
:104C30000EC0183130F4E12FF0E0E053FC4F8787CD
:104C40001F5F80E090E06DE371E00E94BE07009777
:104C500059F00E94A007009761F706C0E12FF0E02D
:104C6000E053FC4F17861F5F1831C0F352C0253048
:104C700031054105510530F52093F7034AC0DA01AB
:104C8000C9010197A109B1090697A105B105D0F4A1
:104C90008091F803887F822B8093F8033AC0DA0171
:104CA000C9010197A109B1098050924CA140B040BF
:104CB00048F42093D1033093D2034093D30350930D
:104CC000D40327C087E396E068EA71E00E94462D8E
:104CD00013C08091D9039091DA03A091DB03B091C6
:104CE000DC030196A11DB11D8093D9039093DA03D3
:104CF000A093DB03B093DC030E9405178FEF809332
:104D0000010487E396E06AE00E94E42B0E94531EB0
:104D100005C0809168048823E1F2EECF1F910895C9
:104D20008FEF80930104109268040E94531E0CC000
:104D300087E396E00E948B2E892B31F087E396E083
:104D40000E94C52E0E94BB24809101048E3F81F7F2
:104D50006AE070E080E090E00E941D2A04C087E3D2
:104D600096E00E94C52E87E396E00E948B2E892B49
:104D7000B1F70895AAE2B0E0E0ECF6E20C94063058
:104D80000E94E9297B018C0181E00E94A00B04C0F4
:104D900087E396E00E94C52E87E396E00E948B2E63
:104DA000892BB1F75E984098DD24D39452E6752E96
:104DB00042E0842E912C8C0E9D1E5E010894A11C55
:104DC000B11C33E0C32E0E94E92920E030E06E19C7
:104DD0007F09800B910B693C71058105910510F0ED
:104DE00021E030E08D2D90E028233923232BA9F1F9
:104DF0000E94E9297B018C015D9A419A80ED97E040
:104E00000E94D3117982D401E0EDF3E089E20190B0
:104E10000D928150E1F7C5016AE20E94C80F5D98CA
:104E2000419880E090E00E94D311C0929A030E94C2
:104E30007F0C62E370E080E090E00E941D2A809188
:104E40009A03843051F4C0929A038FE70E94960A25
:104E50000E94AA0A823409F4DD2482E10E941B2BFD
:104E6000892B69F5DD24D3942AC05E9A409A5D9A15
:104E7000419A87E396E00E94C52E8D30910569F036
:104E80008E3091051CF40A97B1F407C08332910566
:104E900069F08234910579F40CC087E396E064EA06
:104EA00071E00E94D02B0E94902605C00E94E61E51
:104EB00002C00E940E245E9840985D98419887E356
:104EC00096E00E948B2E892B09F47DCFCECF8F9256
:104ED0009F92AF92BF92CF92DF92EF92FF920F9389
:104EE0001F9382E10E941B2B892B09F083C068EC81
:104EF00070E080E090E00E941D2A80E090E00E9437
:104F0000D3110E94E9295B016C0160ECE62E62E19D
:104F1000F62E012D112DEA0CFB1C0C1D1D1D06C0CB
:104F200082E10E941B2B892B09F062C00E94E929B3
:104F30006E157F058007910798F382E10E941B2B75
:104F4000892B09F055C080ED97E00E94D3110E9493
:104F5000E9297B018C0199249394882488E496E2C2
:104F6000A0E0B0E0A80EB91ECA1EDB1E29C0AE1418
:104F7000BF04C006D10638F480ED97E00E94D3113B
:104F8000882483941DC00E94E9296E197F09800B33
:104F9000910B693C71058105910590F00E94E9290A
:104FA0007B018C0180E0992009F481E0982E882310
:104FB00019F480E090E002C080ED97E00E94D311E8
:104FC00082E10E941B2B892B91F280E090E00E94ED
:104FD000D311882049F080919B038F5F83700E94DA
:104FE000F5160E94D01606C00E941F240E94C71604
:104FF0000E94BA261F910F91FF90EF90DF90CF9003
:10500000BF90AF909F908F90089580E06DEF77E014
:1050100042E050E00E9424290895EF92FF920F93FE
:105020001F9380E00E9419080E94BE1186E061E093
:105030000E947C2A85E061E00E947C2A8EE061E08B
:105040000E947C2A8FE061E00E947C2A82E160E07D
:105050000E947C2A88E060E00E947C2A88E061E06F
:105060000E94E82A0E94E61487E396E040E052ECB2
:1050700061E070E00E94042E0E94E8160E94D016A3
:105080000E945F0D8FEF8093BE040E9405287894E4
:105090000E94E9297B018C018091BE048F3F09F0B9
:1050A000C8C00E94E9296E197F09800B910B605DD1
:1050B00077408040904008F0BCC0EECF87E396E098
:1050C0000E94C52E87E396E00E948B2E892BB1F7B4
:1050D00087E396E062E472E00E94432D81E793E06B
:1050E0000E947F1A87E396E069E572E00E94432DF3
:1050F00087E396E065E070E04AE050E00E942F2DE3
:1051000062E370E080E090E00E941D2A87E396E071
:105110000E948B2E04970CF187E396E00E94C52E27
:1051200082349105D1F487E396E00E94C52E8E3437
:10513000910599F487E396E00E94C52E8434910589
:1051400061F487E396E00E94C52E819731F480E0F8
:1051500090E00E94D3110E94BA264091D103509151
:10516000D2036091D3037091D403DB01CA0101978C
:10517000A109B1090497A105B10568F44093BF04E2
:10518000433029F040E052EC61E070E004C040EAB6
:1051900056E861E070E087E396E00E94042E0E94EA
:1051A00067275E98409880E090E00E94D3110E94AB
:1051B0005F0D80E00E94A00B8091A4040E94CB0AA6
:1051C0000E947F0C1092290510922A0510922B053F
:1051D00010E015C062E370E080E090E00E941D2ABC
:1051E00080ED97E00E94D31162E370E080E090E0F0
:1051F0000E941D2A80E090E00E94D3111F5F8091E1
:105200009B03811738F78091F80390E084FF09C071
:1052100020E088719070489709F421E0822F0E9465
:10522000FD148FE00E9419081F910F91FF90EF90DD
:10523000089580ED97E00E94D31182E161E00E9421
:10524000E82A5E9A409A3ECF823000F5E82FF0E0DF
:10525000EE0FFF1FEE55FA4F71836083882319F01C
:105260008130A1F408C0809169008C7F842B8093E9
:105270006900E89A089580916900440F551F440F12
:10528000551F837F842B80936900E99A08951F92AC
:105290000F920FB60F9211242F933F934F935F936A
:1052A0006F937F938F939F93AF93BF93EF93FF93EE
:1052B0008091A2059091A305892B29F0E091A20588
:1052C000F091A3050995FF91EF91BF91AF919F9147
:1052D0008F917F916F915F914F913F912F910F909F
:1052E0000FBE0F901F9018951F920F920FB60F923E
:1052F00011242F933F934F935F936F937F938F93DB
:105300009F93AF93BF93EF93FF938091A4059091E8
:10531000A505892B29F0E091A405F091A505099533
:10532000FF91EF91BF91AF919F918F917F916F917D
:105330005F914F913F912F910F900FBE0F901F9053
:1053400018951F920F920FB60F9211242F933F932F
:105350008F939F93AF93BF938091AA059091AB05D4
:10536000A091AC05B091AD053091AE050196A11D9F
:10537000B11D232F2D5F2D3720F02D570196A11D34
:10538000B11D2093AE058093AA059093AB05A09321
:10539000AC05B093AD058091A6059091A705A091AD
:1053A000A805B091A9050196A11DB11D8093A60580
:1053B0009093A705A093A805B093A905BF91AF91BD
:1053C0009F918F913F912F910F900FBE0F901F9043
:1053D00018958FB7F8942091AA053091AB054091AC
:1053E000AC055091AD058FBFB901CA0108959FB7B3
:1053F000F8942091A6053091A7054091A8055091F9
:10540000A90586B5A89B06C08F3F21F02F5F3F4FAF
:105410004F4F5F4F9FBF542F432F322F2227280F0C
:10542000311D411D511D82E0220F331F441F551FA6
:105430008A95D1F7B901CA010895EF92FF920F93AF
:105440001F93CF93DF937B018C010E94F729EB011F
:105450000EC00E94F7296C1B7D0B685E7340C8F379
:105460000894E108F10801091109C851DC4FE11461
:10547000F1040105110569F7CDB7DEB7E6E00C943C
:105480002930789484B5826084BD84B5816084BD00
:1054900085B5826085BD85B5816085BDEEE6F0E0AD
:1054A000808181608083E1E8F0E010828081826009
:1054B0008083808181608083E0E8F0E0808181608A
:1054C0008083E1EBF0E0808184608083E0EBF0E0BA
:1054D000808181608083EAE7F0E08081846080835E
:1054E0008081826080838081816080838081806808
:1054F00080831092C1000895CF93DF93482F50E02E
:10550000CA018D5F934FFC0134914151544FFA0110
:105510008491882369F190E0880F991FFC01EF5274
:10552000F44FA591B491FC01E552F44FC591D4918B
:10553000662351F42FB7F8948C91932F909589237B
:105540008C93888189230BC0623061F42FB7F89463
:105550008C91932F909589238C938881832B8883BA
:105560002FBF06C09FB7F8948C91832B8C939FBF5D
:10557000DF91CF910895833071F0843028F4813029
:10558000A1F0823021F514C08630B1F08730D1F01F
:105590008430E9F404C0809180008F7703C080914B
:1055A00080008F7D80938000089584B58F7702C03E
:1055B00084B58F7D84BD08958091B0008F778093EE
:1055C000B00008958091B0008F7D8093B000089561
:1055D000FF920F931F93F62E482F50E0CA01895E69
:1055E000934FFC012491CA018D5F934FFC011491EC
:1055F0004151544FFA0104910023C9F0222319F0BC
:10560000822F0E94BB2AE02FF0E0EE0FFF1FE55231
:10561000F44FA591B4919FB7F894FF2021F48C9199
:105620001095812302C08C91812B8C939FBF1F9179
:105630000F91FF9008950F931F93482F50E0CA01D8
:10564000895E934FFC012491CA018D5F934FFC0149
:1056500004914151544FFA011491112319F420E09F
:1056600030E015C0222319F0822F0E94BB2A812F1F
:1056700090E0880F991F8B51944FFC01A591B49134
:105680008C9120E030E0802311F021E030E0C9016E
:105690001F910F910895982F8E3008F09E509770AB
:1056A000809148038295880F880F807C892B809396
:1056B0007C0080917A00806480937A0080917A00E7
:1056C00086FDFCCF2091780040917900942F80E0F6
:1056D00030E0282B392BC9010895A0E0B0E0E3E7C2
:1056E000FBE20C940B307C016B018A01C0E0D0E03E
:1056F0000FC0D6016D916D01D701ED91FC91019024
:10570000F081E02DC7010995C80FD91F0150104045
:105710000115110571F7CE01CDB7DEB7E8E00C94A5
:105720002730EF92FF920F931F93CF93DF937C016B
:105730008B01C0E0D0E0F8010F5F1F4F649166233A
:1057400059F0D701ED91FC910190F081E02DC70156
:105750000995C80FD91FEFCFCE01CDB7DEB7E6E070
:105760000C942930DC01ED91FC910190F081E02D49
:1057700009950895EF92FF920F931F938C016DE0AE
:105780000E94B22B7C01C8016AE00E94B22B9C01EE
:105790002E0D3F1DC9011F910F91FF90EF900895AD
:1057A000EF92FF920F931F937C010E94912B8C012B
:1057B000C7010E94BA2B9C01200F311FC9011F9104
:1057C0000F91FF90EF900895EF92FF920F931F9328
:1057D0007C010E94B22B8C01C7010E94BA2B9C0154
:1057E000200F311FC9011F910F91FF90EF90089575
:1057F000CF93DF93EC016115710519F420E030E0DF
:105800000FC0DB010D900020E9F71197A61BB70B25
:10581000E881F9810280F381E02DAD0109959C01B9
:10582000C901DF91CF9108954F925F927F928F923D
:105830009F92AF92BF92CF92DF92EF92FF920F931F
:105840001F93DF93CF93CDB7DEB7A1970FB6F89430
:10585000DEBF0FBECDBF2C01742ECB01223008F469
:105860002AE019A231E2C32ED12CCC0EDD1E822EED
:105870009924AA24BB24672D752FA50194010E94A9
:10588000C42F79018A01C801B701A50194010E94C2
:10589000922F472D461B0894C108D1084A3010F4B6
:1058A000405D01C0495CF6014083E114F10401054B
:1058B000110521F07E2C5F2DC801DDCFC201B6019C
:1058C0000E94F82BA1960FB6F894DEBF0FBECDBF95
:1058D000CF91DF911F910F91FF90EF90DF90CF90CC
:1058E000BF90AF909F908F907F905F904F90089562
:1058F000DC012115310541F4ED91FC910190F0811D
:10590000E02D642F099508950E94142C0895EF92BC
:10591000FF920F931F937C010E94782C8C01C7018A
:105920000E94BA2B9C01200F311FC9011F910F91BA
:10593000FF90EF900895EF92FF920F931F939A01BB
:105940007B0100E010E0B801A7010E94782C1F91B4
:105950000F91FF90EF900895EF92FF920F931F9396
:105960007C010E949B2C8C01C7010E94BA2B9C01D8
:10597000200F311FC9011F910F91FF90EF900895E3
:10598000EF92FF920F931F939A01E62EFF2400E0FF
:1059900010E0B801A7010E94782C1F910F91FF9091
:1059A000EF900895EF92FF920F931F937C010E9456
:1059B000C02C8C01C7010E94BA2B9C01200F311F03
:1059C000C9011F910F91FF90EF900895A0E0B0E002
:1059D000ECEEFCE20C940B30EC016A017B0121152A
:1059E000310541F4E881F9810190F081E02D642FC7
:1059F00009951BC02A303105B1F477FF13C06DE261
:105A00000E94B22B8C0144275527BA014C195D091D
:105A10006E097F09CE012AE00E94142C9C01200F00
:105A2000311F04C02AE00E94142C9C01C901CDB78B
:105A3000DEB7E8E00C942730EF92FF920F931F93AC
:105A40007B019A010027F7FC0095102FB801A701F0
:105A50000E94E62C1F910F91FF90EF900895EF9216
:105A6000FF920F931F937C010E941C2D8C01C70194
:105A70000E94BA2B9C01200F311FC9011F910F9169
:105A8000FF90EF9008950E94F82B0895EF92FF92F7
:105A90000F931F937C010E94432D8C01C7010E942C
:105AA000BA2B9C01200F311FC9011F910F91FF904C
:105AB000EF90089508951F920F920FB60F92112440
:105AC0002F933F934F938F939F93EF93FF938091E7
:105AD000C00082FD1DC04091C6002091EF053091AD
