:100000000C9438070C9460070C9460070C946007FC
:100010000C9460070C9460070C9460070C946007C4
:100020000C9460070C9464090C949D320C94153365
:100030000C9460070C9460070C9460070C946007A4
:100040000C943D0E0C9460070C9460070C946007B0
:100050000C9460070C9460070C9460070C940A2AB7
:100060000C9460070C94DC2E0C94172F0C946007F2
:100070000C9460070C9460070C9460070C94600764
:100080000C9460070C9460070C9460070C94600754
:100090000C9460070C9460070C9460070C94600744
:1000A0000C9460070C9460070C9460079B1DA21DC4
:1000B000A21D9B1DA21DA21DA21DA21DA21DA21D4F
:1000C000A21DA21DA21DA21DA21DA21DA21D101DCA
:1000D000A21DA21DA21DA21DA21D731CA21DA21D58
:1000E000A21DA21DA21DA21DA21DA21DA21DA21D18
:1000F000A21DA21DA21DA21DA21D1C1D1C1D1C1D9A
:100100001C1D1C1D1C1D1C1D1C1D1C1DA21DA21D1B
:10011000A21DA21DA21DA21D781C1B1D1B1D1B1DA7
:100120001B1DA21D2C1D341D3C1D441D4C1D541DAA
:100130005C1D641D6E1D781D821D8C1DBF1C7F1CE7
:10014000A21DA21DA21DA21D101DA21DA21DA21D49
:10015000A21DA21DA21DA21DA21D1A1D1A1D1A1D3F
:100160001A1DA21D2C1D341D3C1D441D4C1D541D6B
:100170005C1D641D6E1D781D821D8C1DBF1C7F1CA7
:10018000A21DA21DA21DA21D101DD31DD31DD31D76
:10019000D31DD31DD31DD31DD31DD31DD31DD31DDF
:1001A000D31DD31DF41EF41EF41EF41EF41EF41E03
:1001B0001A1E241E2E1E381E9E1EA81EB61EC81EE7
:1001C000651FD51FA61FAB1FB01FB51FBA1FBF1FCE
:1001D000C41FD51FCF1FDB26F026FC2605271227BC
:1001E0003827402763275027532B562B492B4D2B5D
:1001F000772B772B772B5A2B5E2B622B682B6C2B54
:10020000772B722B456E746572206D656E752E2E80
:100210002E00546F67676C6564206D6963726F5060
:10022000504D00546F67676C656420696E76657227
:100230007465642050504D2100546F67676C65648D
:10024000205458206D7574696E672100546F67677C
:100250006C65642074656C656D65747279210050FD
:10026000726F746F636F6C206572726F7220776942
:1002700074682052580054696D656F7574207768F2
:10028000656E20636F6E6E656374696E6720746F50
:1002900020525800507265737320616E79206B652F
:1002A0007920746F2063616E63656C00436F6E6EBE
:1002B000656374696E6720746F2052582C20706FCC
:1002C00077657220757020746865205258202877F1
:1002D0006974682062696E6420706C756720696655
:1002E000206E6F74207573696E6720616C77617919
:1002F000732062696E642900546F67676C656420BF
:1003000027696D6D656469617465206F75747075BA
:10031000742700546F67676C65642027736C61767F
:1003200065206D6F64652700546F67676C65642096
:1003300027616C776179732062696E642700546F5E
:1003400067676C65642050504D206368616E6E6510
:100350006C206C696D697400536574205253534965
:1003600020696E6A656374696F6E206368616E6E82
:10037000656C2028303D3D64697361626C652900BD
:100380005365742050504D206D696E696D756D20F8
:1003900073796E630053657420626561636F6E20CC
:1003A000696E74657276616C005365742062656174
:1003B000636F6E2064656C617900536574206265BB
:1003C00061636F6E206672657175656E6379206911
:1003D0006E20487A3A20303D64697361626C652C06
:1003E0002050783D504D52206368616E6E656C20E0
:1003F000782C2046783D465253206368616E6E65C6
:100400006C2078005365742050574D2073746F70C2
:100410002064656C61792028302064697361626CA6
:1004200065642C20312D323535203D3D20302E3174
:1004300073202D2035306D696E290053657420506E
:10044000504D2073746F702064656C617920283082
:100450002064697361626C65642C20312D323535FE
:10046000203D3D20302E3173202D2035306D696EBA
:100470002900536574206661696C73616665206448
:10048000656C61792028302064697361626C6564F1
:100490002C20312D323535203D3D20302E3173203A
:1004A0002D2035306D696E29002A2A2A2A2A2A2A07
:1004B0002A2A2A2A2A2A2A2A2A2A2A2A2A2A2A2A9C
:1004C0002A2A2A2A2A2A0052582041636B6564206E
:1004D0002D2072657665727420737563636573731E
:1004E00066756C21002A2A2A2A2A2A2A2A2A2A2AD6
:1004F0002A2A2A2A2A2A2A2A2A2A2A2A2A2A2A2A5C
:100500002A2A002A2A2A2A2A2A2A2A2A2A2A2A2A75
:100510002A2A2A2A2A2A2A2A2A2A2A2A2A2A2A2A3B
:100520000052582041636B6564202D207570646112
:100530007465207375636365737366756C21002A37
:100540002A2A2A2A2A2A2A2A2A2A2A2A2A2A2A2A0B
:100550002A2A2A2A2A2A2A2A2A2A2A2A0056616C80
:1005600069642063686F69636573206172653A200E
:100570005B315D2D5B31365D20286368616E6E6591
:100580006C20312D31362900536574206F757470DD
:10059000757420666F7220706F727420005B585DF6
:1005A0002061626F7274206368616E676573206199
:1005B0006E64206578697420525820636F6E666996
:1005C00067005B535D2073617665207365747469A1
:1005D0006E677320746F205258005B525D20726505
:1005E000766572742052582073657474696E6773EF
:1005F00020746F2064656661756C74730055736553
:10060000206E756D62657273205B312D445D2074C0
:100610006F206564697420706F727473205B452D60
:10062000515D20666F722073657474696E67730024
:10063000202D20726563656976657220636F6E6632
:100640006967757261746F722C20727820737720DD
:10065000000A0A6F70656E4C52536E672000536536
:10066000742073657269616C206261756472617473
:10067000653A200056616C69642063686F69636540
:10068000733A2031202D20342B34202F2032202D7E
:100690002038202F2033202D20382B34202F2034B9
:1006A000202D203132202F2035202D2031322B34A7
:1006B000202F2036202D20313600536574204368CA
:1006C000616E6E656C20636F6E6669673A200053D9
:1006D00065742044617461726174652028302D3224
:1006E000293A200053657420486F70206368616E5A
:1006F0006E656C7320286D61782032342C20736510
:100700007061726174656420627920636F6D6D61E0
:1007100073292076616C69642076616C756573203D
:10072000312D3235353A2000536574206368616E8F
:100730006E656C2073706163696E67202878313054
:100740006B487A293A200053657420524620706F16
:100750007765722028302D37293A200053657420A0
:100760005246206D61676963202868657829206595
:100770002E672E20307844454144463030443A209C
:1007800000536574206261736520667265717565DA
:100790006E63792028696E20487A293A20005B5AD6
:1007A0005D20656E74657220726563656976657239
:1007B00020636F6E66696775726174696F6E20750C
:1007C00074696C79005B465D20646973706C617953
:1007D0002061637475616C206672657175656E6306
:1007E0006965732075736564005B525D2063616C9D
:1007F00063756C6174652072616E646F6D206B65EA
:100800007920616E6420686F70206C697374005B7E
:10081000495D207265696E697469616C697A6520E9
:1008200073657474696E677320746F20736B65747D
:1008300063682064656661756C7473005B585D2045
:10084000726576657274206368616E676573206196
:100850006E642065786974206D656E75005B535D0C
:1008600020736176652073657474696E6773207494
:100870006F20454550524F4D20616E642065786968
:1008800074206D656E7500557365206E756D6265BB
:100890007273205B302D395D20746F20656469743C
:1008A00020706172616D657465727300202D205334
:1008B000797374656D20636F6E66696775726174B4
:1008C000696F6E000A0A6F70656E4C52536E672036
:1008D000005129204F7574707574206265666F72BF
:1008E00065206C696E6B20283D465329203A200014
:1008F000502920536C617665206D6F6465202865F2
:1009000078706572696D656E74616C293A20004F6C
:10091000292054696D65642042494E442061742049
:100920007374617274757020203A20004E29205033
:10093000504D206F7574707574206C696D697465A5
:100940006420202020203A200044495341424C4555
:1009500044004D292050504D205253534920746F6C
:10096000206368616E6E656C202020203A20004C68
:10097000292050504D206D696E696D756D20737919
:100980006E63202875732920203A20004449534182
:10099000424C4544004B29204661696C7361666591
:1009A00020626561636F6E20696E74762E20283137
:1009B0002D32353573293A20004A29204661696C69
:1009C0007361666520626561636F6E2064656C614A
:1009D000792028302D323535203D3E2031307320AE
:1009E0002D203135306D696E293A20004929204685
:1009F00061696C7361666520626561636F6E206614
:100A000072712E203A200048292050574D207374CF
:100A10006F702064656C6179202020202020203AAE
:100A2000200047292050504D2073746F702064655A
:100A30006C6179202020202020203A2000462920A7
:100A40004661696C736166652064656C617920201C
:100A500020202020203A200050574D206368616EEE
:100A60006E656C200066756E6374696F6E3A200067
:100A70002920706F72742000506F776572546F7701
:100A8000657200445446205548462033322D626931
:100A9000742031306368004F70656E4C52536E673E
:100AA0005258206D696E6920342F36636800466C99
:100AB0007974726F6E2F4F72616E67655258205550
:100AC00048462038636800525820747970653A208F
:100AD0000044697361626C656400487A00203D3DA2
:100AE000200043616C63756C6174656420706163A0
:100AF0006B657420696E74657276616C3A20004291
:100B000029204D6963726F202868616C6629205026
:100B1000504D202020203A00412920496E766572F0
:100B20007465642050504D20696E20202020203AAA
:100B3000003029204D7574652062757A7A657220BF
:100B4000286D6F73746C79293A00392920536572C6
:100B500069616C2062617564726174653A00736DDD
:100B6000617274506F7274004672536B79005472E4
:100B7000616E73706172656E740044697361626C5A
:100B800065640038292054656C656D657472793A26
:100B900020202020202020003729204368616E6E0D
:100BA000656C20636F6E6669673A202000362920E5
:100BB00044617461726174652028302D32293A20B5
:100BC000202000352920486F70206368616E6E65B3
:100BD0006C733A2020202020003429204368616E65
:100BE0006E656C2073706163696E673A2020003314
:100BF0002920524620706F7765722028302D3729C2
:100C00003A202020003229205246206D6167696316
:100C10003A2020202020202020200031292042615D
:100C20007365206672657175656E63793A20202060
:100C30000000000000240027002A002D00300000E2
:100C4000000000250028002B002E003100000000CD
:100C5000002300260029002C002F000404040404B3
:100C6000030405020202020403020202020606064F
:100C70000606060404020202040408020110408071
:100C80004010204080408008020401804020100273
:100C9000011080102040400000000200080E0000FB
:100CA000030401000B000000000000000000000031
:100CB0000000000000070605040100080A0B0C0DE7
:100CC00009080B00020202010009040000010202EF
:100CD000000005240010010524010101042402067E
:100CE00005240600010705810310004009040100E6
:100CF000020A000000070502024000000705830207
:100D000040000004030904220341007200640075DE
:100D10000069006E006F0020004C0065006F006EDF
:100D2000006100720064006F0018034100720064EB
:100D300000750069006E006F0020004C004C0043FD
:100D40000012010002000000404123368000010132
:100D5000020001120100020200004041233680001F
:100D6000010102000100C18081C105010902A10148
:100D70000901A100850105091901290315002501B3
:100D800095037501810295017505810305010930FF
:100D9000093109381581257F750895038106C0C082
:100DA00005010906A1018502050719E029E71500DB
:100DB0002501750195088102950175088103950645
:100DC0007508150025650507190029658100C0090A
:100DD0000402000103000000092101010001226555
:100DE000000705840340000100000000000000002F
:100DF0002A2B280000000000000000000000000076
:100E000000000000000000002C9EB4A0A1A2A434A9
:100E1000A6A7A5AE362D3738271E1F202122232452
:100E20002526B333B62EB7B89F8485868788898AEE
:100E30008B8C8D8E8F909192939495969798999A8A
:100E40009B9C9D2F3130A3AD350405060708090A88
:100E50000B0C0D0E0F101112131415161718191A6A
:100E60001B1C1DAFB1B0B500262CBF30FB31833445
:100E700011241FBECFEFDAE0DEBFCDBF13E0A0E04C
:100E8000B1E0ECE9FCE602C005900D92A03CB10790
:100E9000D9F716E0A0ECB3E001C01D92A73EB10760
:100EA000E1F71EE0C0E7DEE004C02297FE010E94E9
:100EB0002936C836D107C9F70E9404310C944C3644
:100EC0000C940000A0E0B0E0E8E6F7E00C94F83500
:100ED000EC01A880B980CA80DB80A114B104C104F0
:100EE000D10441F484E2A82E89EDB82E8BE5C82EFA
:100EF00087E0D82EC601B5012DE133EF41E050E087
:100F00000E94D53527EA31E440E050E00E94813567
:100F10007B018C01C601B5012DE133EF41E050E0CA
:100F20000E94D535CA01B9012CEE34EF4FEF5FEFC7
:100F30000E9481356E0D7F1D801F911F97FF04C099
:100F40006150704080409048688379838A839B8396
:100F50009B01AC015F77B901CA01CDB7DEB7EAE00A
:100F60000C9414360E946207089581EB92E00E946F
:100F7000620708956093B1027093B2028093B30246
:100F80009093B4020895A0E0B0E0E9ECF7E00C948F
:100F9000F135EC012B016A016115710519F0FB01B6
:100FA00091838083C114D10449F0C60102978397CD
:100FB00028F020E030E040E050E0DCC0A9908A2D2D
:100FC00090E00E944136892BC9F7FDE2AF1621F46B
:100FD000A9903324339405C08BE2A81609F4A99094
:100FE0003324C114D10421F0E0E1CE16D10411F56F
:100FF000F0E3AF1669F48881883711F0883541F441
:10100000A980229682E0382A20E1C22ED12C12C07B
:10101000C114D10479F4E0E3AE1659F199E9E92E4F
:1010200099E9F92E99E9092F99E1192F8AE0C82E3B
:10103000D12C3AC0FAE0CF16D10491F080E1C81665
:10104000D10429F0E8E0CE16D104F9F415C0BFEFC1
:10105000EB2EBFEFFB2EBFEF0B2FBFE01B2F24C0EB
:10106000A9E9EA2EA9E9FA2EA9E90A2FA9E11A2F7E
:101070001BC0F8E0CF2ED12CEFEFEE2EEFEFFE2EBF
:10108000EFEF0E2FEFE11E2F0FC09601442737FD23
:101090004095542F6FEF7FEF8FEF9FEF0E94B33596
:1010A000C901DA017C018D0120E030E040E050E030
:1010B00060E03601882477FC8094982C70EDB72E80
:1010C000BA0CF9E0FB1570F48A2D81548A3118F4BA
:1010D00099ECB92E06C08A2D81568A3148F589EAE5
:1010E000B82EBA0C8B2D90E08C159D050CF56F3F3A
:1010F000E9F0E216F30604071507B8F0CA01B901D2
:10110000A40193010E9481359B01AC018B2D90E0DD
:10111000A0E0B0E0280F391F4A1F5B1F28173907CE
:101120004A075B0710F061E001C06FEFA990C6CFDE
:101130004114510451F0662311F0219703C031FE90
:1011400004C02297F201D183C08330FE07C05095BE
:101150004095309521953F4F4F4F5F4F67FF0AC035
:1011600082E290E09093E6068093E5062FEF3FEF52
:101170004FEF5FEFB901CA01CDB7DEB7E1E10C94E3
:101180000D36FC0188279927E89421912032E9F354
:10119000293010F02E30C8F32B3241F02D3239F4C3
:1011A000689404C00E941609820F911D219120535A
:1011B0002A30C0F31EF4909581959F4F089540EC1E
:1011C00053E00E94E4080895009731F4DA018D910C
:1011D0009C91009709F40EC0DC01FB013D91219127
:1011E000222319F03217C9F3FACF332331F4DA018D
:1011F0001D921C928827992708951197AF93BF934A
:10120000FB013D912191321771F4332321F488279A
:101210009927119702C01E921196FA01A193B083EB
:101220009F918F910895222369F7EACF7AE0979FE3
:10123000902D879F802D910D112408958091C203D8
:10124000813019F482E08093C2038091C20383301D
:1012500019F484E08093C2030895009721F19C0162
:1012600040E050E068E478EE81E090E00E94D535FF
:10127000C901DA018F3F9105A105B10531F028F0D0
:101280008FEF90E0A0E0B0E008C00097A105B105A5
:1012900021F481E090E0A0E0B0E08093D100809163
:1012A000C000806103C08091C0008F7E8093C00029
:1012B0000895EBE6F0E0808180688083E8E6F0E066
:1012C00080818160808308951F920F920FB60F92E4
:1012D00011242F933F934F935F936F937F938F933B
:1012E0009F93AF93BF93EF93FF931F9902C00E9408
:1012F0001E09FF91EF91BF91AF919F918F917F91C7
:101300006F915F914F913F912F910F900FBE0F9072
:101310001F90189581E008951F93182F0E948A0945
:101320008823E9F02FB781E08093C905F894809174
:101330000008909101088757974709F0A89588E120
:101340008093600010936000112341F080910008A9
:10135000909101088757974709F0A8952FBF1F91D3
:101360000895382F20E080915B0590915C058227DD
:10137000932740E061E270E19C01220F331F97FF49
:1013800004C0C9018627972701C0C9014F5F4830B3
:1013900099F790935C0580935B05089587E38093AC
:1013A000F80380E092ECA1E0B0E08093F903909321
:1013B000FA03A093FB03B093FC0387E0809305043A
:1013C00080EC92E9ADEEB9E18093FD039093FE03CA
:1013D000A093FF03B093000485E0809306048DEE94
:1013E0009EEFADEABEED8093010490930204A093BA
:1013F0000304B0930404A7E0B4E080E090E08630FA
:1014000010F0E0E004C0FC01E657FC4FE081ED93F2
:1014100001968831910599F782E080931F048AE054
:1014200080932004089580EC91EDA8E9BBE18093BE
:10143000C5039093C603A093C703B093C80310924B
:10144000C9031092CA031092CB031092CC03EDECA7
:10145000F3E080E081938F5F8031E1F70895843677
:10146000910520F4BC0180E090E025C08E3B910501
:1014700050F48A559040BC0180E090E02AE030E0D2
:1014800040E050E016C0823D910550F4845B9040EE
:10149000BC0180E090E024E630E040E050E009C08C
:1014A0008D5C9040BC0180E090E028E532E040E0B7
:1014B00050E00E94813524E630E040E050E00E9498
:1014C0008135089590E08C599F4F0E942F0A08950E
:1014D000DC019896EC91F0E0E770F070EE57FC4F6D
:1014E000808108958F929F92AF92BF92CF92DF92A8
:1014F000EF92FF920F931F938C010E94680AD8010C
:1015000097962C9130E043E150E0249FF001259F15
:10151000F00D349FF00D1124EB54FD4F808091802D
:10152000A280B38090E00F96AA2797FDA095BA2FCE
:10153000BC01CD0120E43FE14DE750E00E94813540
:10154000A50194010E94B33569017A0180ED97E00D
:10155000A0E0B0E0C80ED91EEA1EFB1ED801989686
:101560008C91887181F060E07EEE8AEB9BE0A501B2
:1015700094010E94B33528513C4F4F4F5F4FC20E2C
:10158000D31EE41EF51E87EE93E0A0E0B0E0C80E87
:10159000D91EEA1EFB1EC701B60128EE33E040E06B
:1015A00050E00E94B335CA01B90128EE33E040E0B3
:1015B00050E00E9481351F910F91FF90EF90DF90D6
:1015C000CF90BF90AF909F908F9008958F3F9105DF
:1015D00009F010F480E0089522E08030920710F4C2
:1015E00081E008958050934010F083E0089582E0F8
:1015F0000895CF92DF92FF920F931F93CF93DF93C3
:10160000F82FEB016A01182F1695E0E08881998187
:10161000D6018C938A819B8111968C9311978C8132
:101620009D8112968C9312978E819F8113968C9335
:101630001397288139814A815B816C817D818E81FC
:101640009F819295990F990F907C832F8370982B8F
:10165000852F8370880F880F982B872F8370829532
:10166000807F982B14969C9385E090E0C80ED91E3D
:101670002896EF5F1E1750F6F0FF21C088819981F0
:101680000E94E60AF82E8A819B810E94E60A182FA2
:101690008C819D810E94E60A082F8E819F810E9485
:1016A000E60AF294FF0CFF0C70ECF7221295107F03
:1016B0001F29182B000F000F012BD6010C93DF916F
:1016C000CF911F910F91FF90DF90CF90089523E06D
:1016D0008032920718F420E030E026C023E0883EF4
:1016E000920748F49C012F51334054E036952795DA
:1016F0005A95E1F719C027E0803D920720F49C013C
:101700002C5D334011C028E08839920718F02FEF84
:1017100033E00AC09C01285C374044E036952795A9
:101720004A95E1F72D503C4FC90108958C30910541
:1017300048F49C0174E0220F331F7A95E1F7285D8D
:101740003C4F17C023E0843F920720F49C012452B1
:101750003C4F0FC024E08030920718F020E938E0B9
:1017600008C09C012657334F64E0220F331F6A954F
:10177000E1F7C90108959C013695279525753575C2
:10178000821B930B9C0136952795369527952373DD
:10179000337383739373280F391FC901E4E096955F
:1017A0008795EA95E1F7820F931F8F709F7021E074
:1017B00031E0AC01429FC001439F900D529F900DBC
:1017C0001124892F0895882339F0299800002A9A36
:1017D0000000299A00000895299800002A98000026
:1017E000299A00000895299A000083B129980000E1
:1017F00090E0B3E096958795BA95E1F781700895EA
:101800000F931F93082F5E9A29985E9810E0802FFF
:1018100080780E94E30B000F1F5F1830C1F72998F2
:101820001F910F9108958F770E94000C08950F93D8
:101830001F93082F10E0802F80780E94E30B000F89
:101840001F5F1830C1F729981F910F9108950F93CA
:101850001F93299880E000E0182F110F0E94F30BCE
:10186000810F0F5F0830C1F71F910F9108950E94FB
:10187000130C0E94270C5E9A08951F93162F806800
:101880000E94000C812F0E94170C5E9A1F910895F0
:101890001F93109101041827E8EFF3E0E80FF11D02
:1018A00089E767850E943D0C8DE3612F0E943D0C06
:1018B00082E4612F0E943D0C1F91089586E20E94F0
:1018C000370C08950F931F938C018CE1F80164810C
:1018D0000E943D0C8DE1F80165810E943D0C8EE176
:1018E000F80166810E943D0C80E2F80167810E9448
:1018F0003D0C81E2F80160850E943D0C82E2F80116
:1019000061850E943D0C83E2F80162850E943D0CD6
:1019100084E2F80163850E943D0C85E2F80164854C
:101920000E943D0C8AE2F80165850E943D0C8EE61E
:10193000F80166850E943D0C8FE6F80167850E94DC
:101940003D0C80E7F80160890E943D0C81E7F801B9
:1019500061890E943D0C82E7F80162890E943D0C7A
:101960001F910F910895EF92FF920F931F93CF93C2
:10197000DF937B018C01603028E372072CE982073A
:101980002CE1920728F520E836E948E950E00E946A
:10199000B335E9016897B90180E090E020E839E6C5
:1019A00047E65FEF0E9481356E0D7F1D801F911FFE
:1019B00032E0660F771F881F991F3A95D1F721E70C
:1019C00032E040E050E00E94B335890180E421C05C
:1019D00020E03DE241E351E00E94B335E901689720
:1019E000B90180E090E020E033ED4EEC5EEF0E9424
:1019F00081356E0D7F1D801F911F660F771F881F19
:101A0000991F21E732E040E050E00E94B3358901A0
:101A100080E69E012F71622F680F85E70E943D0CC2
:101A200086E7612F0E943D0C87E7602F0E943D0CE6
:101A3000CDB7DEB7E6E00C9418369F92AF92BF9216
:101A4000CF92DF920F93DF93CF9300D000D0CDB72A
:101A5000DEB7982E83E00E94370C8093210484E047
:101A60000E94370C8093220486E060E00E943D0CC7
:101A700087E061E00E943D0C89E06FE70E943D0C29
:101A80008AE065E00E943D0C8BE065E10E943D0C20
:101A90008CE062E10E943D0C8DE06DEF0E943D0CF8
:101AA0008EE060E00E943D0C992019F084E193E003
:101AB00008C080911F0423E1829FC00111248B5430
:101AC0009D4F0E94620C80E36CE80E943D0C82E313
:101AD0006FE00E943D0C83E362E40E943D0C84E3CE
:101AE0006AE00E943D0C85E36AE20E943D0C86E3B9
:101AF0006DE20E943D0C87E364ED0E943D0C88E39B
:101B000060E00E943D0C89E360E00E943D0C99205A
:101B100049F065E8A62E61ECB62E61ECC62E6EED9E
:101B2000D62E08C0A0900104B0900204C090030417
:101B3000D09004040AE38D2D9927AA27BB27898317
:101B40009A83AB83BC83802F69810E943D0C802FD8
:101B50008B5F69810E943D0CDC2CCB2CBA2CAA2413
:101B60000F5F0E3341F783E46FEF0E943D0C84E476
:101B70006FEF0E943D0C85E46FEF0E943D0C86E400
:101B80006FEF0E943D0C992019F08DE666E003C0CE
:101B90008DE6609105040E943D0C89E760E00E949B
:101BA0003D0C8AE7609106040E943D0C83E760E0EB
:101BB0000E943D0C84E760E00E943D0C992029F0D2
:101BC00060EC72E98DEE99E108C06091FD037091BF
:101BD000FE038091FF03909100040E94B30C0F90CC
:101BE0000F900F900F90CF91DF910F91DF90CF90DA
:101BF000BF90AF909F90089587E061E00E943D0CF8
:101C00008EE764E20E943D0C88E063E00E943D0C98
:101C100088E060E00E943D0C87E065E00E943D0C9A
:101C200085E062E00E943D0C83E00E94370C8093C7
:101C3000210484E00E94370C809322040895582FD9
:101C40004091C604842F90E0FC01EF70F0709F017A
:101C50002F5F3F4F74E0959587957A95E1F72817A8
:101C6000390751F0EA54FB4F5083842F8F5F8F70F8
:101C7000407F842B8093C60408951F920F920FB665
:101C80000F9211241F932F933F934F935F936F9362
:101C90007F938F939F93AF93BF93CF93DF93EF93F4
:101CA000FF93C0918600D091870020910805309164
:101CB00009058091E704882309F047C0CE01821B03
:101CC000930B9C018091C90385FD02C03695279531
:101CD00099E0253C390708F1809147038430D0F022
:101CE000809147038F3FB1F020E00EC0E22FF0E07B
:101CF000EE0FFF1FDF01A851BB4F8D919C91E95D55
:101D0000FC4F918380832F5F80914703281770F3E6
:101D10001092E6041092470318C082E02D3B38076A
:101D200060F180914703803140F510914703C9016C
:101D30000E94670BE12FF0E0EE0FFF1FE851FB4F11
:101D4000918380831F5F10934703D0930905C0934D
:101D50000805FF91EF91DF91CF91BF91AF919F91D6
:101D60008F917F916F915F914F913F912F911F9133
:101D70000F900FBE0F901F9018958FEF8093470321
:101D8000E4CF83E0809380008AE980938100809192
:101D9000C90386FD05C08091810080648093810025
:101DA0008FEF9FEF909389008093880080916F0060
:101DB000806280936F0008956F3020F0869586953D
:101DC000805408958DE0689F802D11240895882304
:101DD00019F460E071E002C063E071E087E196E031
:101DE0000E94C72E0895A0E0B0E0E9EFFEE00C9459
:101DF000FA35182F0E94602A9B01AC01809155058D
:101E000090915605A0915705B091580569017A0146
:101E1000C81AD90AEA0AFB0AD701C60189589341B0
:101E2000A040B04010F01092540520935505309317
:101E3000560540935705509358052091E704822F8B
:101E400081508230E8F580915405882309F44FC110
:101E5000813011F482E0BCC1803108F035C1E82F37
:101E6000F0E0E851FB4F10838F5F80935405803181
:101E700009F0B0C1AAEEB4E0213039F41196EC912A
:101E80001197E695E6958C9109C08D919C911197DB
:101E9000E92FE695E695E69596958795E03140F42D
:101EA000F0E090E0EE0FFF1FE95DFC4F918380832F
:101EB0001092E604129684E0A83FB807E9F68AC1BA
:101EC000233009F004C180915405882321F41F3088
:101ED00009F080C10CC1883130F4E82FF0E0E951FD
:101EE000FB4F108374C1883109F0EEC0112309F053
:101EF000EBC0C0E0D0E00BE010E0DE0163E0AA0F31
:101F0000BB1F6A95E1F7C09FB001C19F700DD09FC4
:101F1000700D1124FB01E851FB4F80812181922F2C
:101F2000977095958795FD01EE0FFF1FE95DFC4FBA
:101F300091838083FB01E751FB4F308136953695C5
:101F400036952181422F4295440F407E842F832B6A
:101F5000269526952695922F977095958795FD0144
:101F6000EE0FFF1FE75DFC4F91838083FB01E6517D
:101F7000FB4F808182958695869583704181942F51
:101F8000990F990F292F282B429546954695437016
:101F900082818170880F880F382F342B35952795D3
:101FA000FD01EE0FFF1FE55DFC4F31832083FB0138
:101FB000E451FB4F308136952181422F47954427CC
:101FC0004795842F832B2695922F9770959587950B
:101FD000FD01EE0FFF1FE35DFC4F91838083FB014A
:101FE000E351FB4F308132953F702181422F429562
:101FF000407F842F832B22952F70922F9770959579
:102000008795FD01EE0FFF1FE15DFC4F91838083FB
:10201000FB01E251FB4F8081881F8827881F418187
:10202000942F990F292F282B441F4427441F828166
:102030008370880F382F342B35952795FD01EE0FCF
:10204000FF1FEF5CFC4F31832083FB01E051FB4F0E
:102050003081369536952181422F4295440F440FA9
:10206000407C842F832B26952695922F97709595EB
:102070008795AA0FBB1FFD01ED5CFC4F9183808308
:102080006F507B4FFB01208122952695277041815F
:10209000342F330F330F330F832F822B942F9295CE
:1020A0009695977095958795AB5CBC4F11969C93D0
:1020B0008E932196C230D10509F01FCF8091FE0486
:1020C00083FD02C01092E6041092540583C02430B0
:1020D00009F080C040915405442359F4183AB1F4F2
:1020E00010925C0510925B0588EA0E94B10981E0BC
:1020F0006FC0413019F41093590504C0423031F4D7
:1021000010935A05812F0E94B1095DC060915A0554
:10211000262F30E0220F331FE42FF0E0C901029692
:102120008E179F0734F0433268F7EB51FB4F108353
:10213000E9CF2D5F3F4F40915B0550915C05E21761
:10214000F30749F4912F80E04827592750935C0505
:1021500040935B0538C0812F90E04817590789F5F7
:1021600080915905813069F5613118F080E18093E3
:102170005A05D0905A0548EEE42E44E0F42E00E0D3
:1021800010E01BC0F701D081C0E0818190E08C2B72
:102190009D2B33E0969587953A95E1F70E94670B62
:1021A000F801EE0FFF1FE95DFC4F918380830F5F05
:1021B0001F4F82E090E0E80EF91E0D1518F3109203
:1021C000E6041092540580915405882319F08F5F1E
:1021D00080935405CDB7DEB7E8E00C941636FF9235
:1021E0000F931F93CF93DF93182F092FF62E8EE3B3
:1021F0000E943D0C212F302FC901EC0110E005C0D9
:102200008FE769910E943D0C1F5F1F15C8F385E0A1
:1022100064E00E943D0C83E00E94370C809321040F
:1022200084E00E94370C809322040E94602A60930D
:10223000230470932404809325049093260487E05C
:1022400069E00E943D0C81E08093C203CDB7DEB708
:10225000E5E00C9419360E94EF108091C2038130A2
:10226000D9F40E94602A20912304309124044091E3
:10227000250450912604621B730B840B950B605A46
:1022800076488140904040F4E8CF87E196E067E0EF
:1022900071E00E94C72E08958091C2038130A9F396
:1022A00008958DEA96E06EE70E947F300895A0E0E1
:1022B000B0E0EDE5F1E10C94F9356C018DEA96E0C2
:1022C0006EE70E947F30760100E010E0C0E0D0E0D1
:1022D000B0E2BB2E0AC00830110521F49E01209502
:1022E000F60120870894E11CF11CF7016081862F1C
:1022F0008D57823040F48DEA96E06DE70E947F3082
:10230000F70160816B258DEA96E00E947F30011510
:10231000110551F0F70180819E01280F311DC32F57
:10232000DD27C20FD31FD0700F5F1F4F093011057B
:1023300091F6CDB7DEB7E9E00C941536A9E0B0E030
:10234000E4EAF1E10C940036382FE62F8091CB04BB
:1023500090E0019664E270E00E94A035982F80938F
:10236000CB0488E9898380E18A83913071F09130D0
:1023700028F0923099F09330E1F416C085E08B8319
:1023800081EF8C832F5F2D8317C09B8381EF8C831C
:1023900084E6489FC00111249D830EC084E08B8396
:1023A00081EF8C833D8308C09B8381EF8C83ED8319
:1023B00003C00E94511104C0CE0101960E94571122
:1023C0002996E2E00C941C360F931F93CF93DF9372
:1023D000182F092F8DEA96E06EE70E947F30212F9B
:1023E000302FC901EC0110E000E288818D57823066
:1023F00040F48DEA96E06DE70E947F308881802767
:1024000088838DEA96E069910E947F301F5F1930C2
:1024100061F78DEA96E06EE70E947F30DF91CF9101
:102420001F910F910895A9E0B0E0E9E1F2E10C9469
:102430000036382F8091CB04882379F48EEF89837E
:102440003A836B83842F90E0959587958C832D83B9
:10245000198618861F821E822FC04091C604842FC1
:1024600090E09C012F70307054E0959587955A95B7
:10247000E1F78217930721F18DEF89831A821B827E
:10248000DE01149620E008C0EA54FB4F80818D9352
:10249000405F2F5F263069F0842F90E0FC0134E02C
:1024A000F595E7953A95E1F78F709070E817F90781
:1024B00059F74093C6042A83CE0101960E94E41185
:1024C0008091CB0490E0019666E070E00E94A03518
:1024D0008093CB042996E2E00C941C369F92AF9235
:1024E000BF92CF92DF92EF92FF920F931F93B82E7D
:1024F000A62ED42EC22E902E0E94602A7B018C0123
:102500008091B5042091C7043091C8044091C9045A
:102510005091CA048823B1F0D801C701821B930BE4
:10252000A40BB50B815E9E42A040B04020F12C2D43
:10253000DC1408F42D2D8B2D6A2D422F292D0E949D
:102540009E1111C0D801C701821B930BA40BB50BC0
:1025500081539547A040B04070F08B2D6A2D4D2DD2
:102560002C2D0E941312E092C704F092C80400932D
:10257000C9041093CA041F910F91FF90EF90DF9050
:10258000CF90BF90AF909F900895E82FF0E0EC536C
:10259000FC4FE185E03148F4F0E0EE0FFF1FE95D0C
:1025A000FC4F0190F081E02D13C0E03129F0E131C2
:1025B00029F0E0E0F2E00CC082E001C083E00E947C
:1025C000AB2B892B19F4ECE0F0E002C0E4EFF3E070
:1025D000CF010895A0E2B0E0E0EFF2E10C94F8350D
:1025E0008CE00E94370C882379F587E196E063E15F
:1025F00071E00E94C72E5F9A80E00E941D0D0E942C
:10260000FC0D5F9821C08DEA96E00E944630482F6D
:102610008091E704882321F0842F0E94F30E14C0D8
:1026200080915205E82FF0E031969F012F713070B4
:1026300031978091510590E02817390729F0E85D1E
:10264000FA4F4083209352058DEA96E00E940C30A9
:10265000892BC9F68091E704882339F40CC087E1FF
:1026600096E00E94032C0E94F30E87E196E00E9400
:10267000DC2B892BA1F78091C203843009F08EC036
:102680000E94602A6093D6047093D7048093D80484
:102690009093D904611571058105910561F481E07C
:1026A00090E0A0E0B0E08093D6049093D704A0938C
:1026B000D804B093D9048091E2049091E30481603E
:1026C0009093E3048093E20483E08093C2038FE756
:1026D0000E94130C0FE115E00E94270CF801819372
:1026E0008F01F5E008321F07B9F740910A05809184
:1026F0001F05282F30E0842F90E08227932786FF44
:1027000040C080E4482740930A05C901887390704F
:10271000C89709F510E014C01F5F80912004E12FD5
:10272000F0E084FF06C0E15EFA4F80810E941F0E38
:1027300007C0E15EFA4F8DEA96E060810E947F302B
:10274000212F30E080911F0590E0877090708217F4
:10275000930714F716C02F733070232B91F48091D8
:1027600020058093DA04809121058093DC04809118
:1027700022058093DD04809125058093E404109266
:10278000E50480915305813019F482E0809353056C
:1027900080915305833011F4109253050E94602AF2
:1027A0005B016C018091DE049091DF04A091E00454
:1027B000B091E1040097A105B105C9F0860175014A
:1027C000E81AF90A0A0B1B0BD801C701885B9B406A
:1027D000A040B04060F00E945E0C8093DB04109239
:1027E000DE041092DF041092E0041092E10488EFFE
:1027F00093E00E94720A2091D2043091D304409158
:10280000D4045091D50486017501E21AF30A040B31
:10281000150BE616F7060807190708F405C1A0927C
:10282000D204B092D304C092D404D092D504809143
:102830000008909101088757974709F0A895809163
:10284000E604883008F0E8C08091E6048F5F80934A
:10285000E604E090D604F090D7040091D8041091DB
:10286000D904E114F1040105110511F188EF93E099
:102870000E94720AAE18BF08C00AD10A6A157B0509
:102880008C059D0588F48091C90384FD04C080ED0A
:1028900097E00E942D091092D6041092D70410924E
:1028A000D8041092D90404C080E090E00E942D0961
:1028B00090910A05907C90930A0500915205109121
:1028C00051050117B1F180915305823091F590586F
:1028D00090930A0588EF93E00E94680A893010F00F
:1028E00048E002C0482F415030E013C03F5FA32FA3
:1028F000B0E0812F90E0FC01E85DFA4F2081FD01FE
:10290000E65FFA4F2083A85BBA4F2C930196182FED
:102910001F71341710F4101749F710935105832FC6
:10292000895C90910A05892B80930A0530934805AC
:102930001AC0209153052430D1F490914805E9E460
:10294000F5E0ABE0B5E0292F30E02E0F3F1F02C0CD
:1029500081918D93E217F307D9F7995C80910A056D
:10296000982B90930A0583E08093530537C080919C
:10297000CD04823029F4916090930A055F9A0FC0CC
:1029800090930A055F98222319F481E08093530500
:1029900080915305833019F484E080935305F894B3
:1029A0000DEC13E07E010894E11CF11CF80181910B
:1029B0008F010E94C512F701819391937F01F3E08B
:1029C0000D3D1F0799F7809120048770BE016F5F4E
:1029D0007F4F4BE055E00E94F90A7894469A809127
:1029E000CC040E94480C88EF93E00E94680A682F8C
:1029F0008AE095E00E94EF10E091CC04EF5FE09355
:102A0000CC04E83131F0F0E0E850FC4F87858823B2
:102A100059F41092CC0408C08091E604883009F47F
:102A20005F9A89E08093E60480912004887171F1B7
:102A30008091C203823051F58091E2049091E304C9
:102A4000880F991F9093E3048093E20483E08093BE
:102A5000C2030E94FC0D0E94602A6093DE04709302
:102A6000DF048093E0049093E10461157105810512
:102A7000910561F481E090E0A0E0B0E08093DE0495
:102A80009093DF04A093E004B093E10480912004CC
:102A900084FF1EC08091E2049091E3048E7F0E9427
:102AA000BB0B182F8091DA046091E4040E94DC0EC5
:102AB000082F8091DB04612F0E94DC0E282F80916B
:102AC000DC046091DD04402F0091C3030E946E126C
:102AD00046988091CD048130C9F0813020F0823059
:102AE00009F03FC033C082E10E94AB2B892BC9F5AE
:102AF00081E08093CD040E94522A6093CE047093AB
:102B0000CF048093D0049093D1042BC082E10E9423
:102B1000AB2B892B21F50E94522A2091CE043091B3
:102B2000CF044091D0045091D104621B730B840BED
:102B3000950B695E73408040904098F082E08093EE
:102B4000CD0480ED97E00E942D090BC082E10E9428
:102B5000AB2B892B31F080E090E00E942D09109280
:102B6000CD04A096EAE00C941436219A229A239878
:102B70008BE060E00E94002B8CE061E00E94002B63
:102B8000089588E08093C1008AE061E00E94002BF4
:102B90008AE060E00E94782B0895ACE1B0E0E3EDBC
:102BA000F5E10C94F8350E94602A7B018C0181E0EC
:102BB0000E941D0DB4E7AB2E6E010894C11CD11C00
:102BC000A3E0BA2EA982C60161E00E942B11B09247
:102BD000C2030E94FC0D6AEF70E080E090E00E946A
:102BE000862A8091C203833009F07DC087E196E098
:102BF0000E94DC2B892B09F076C00E94602A6E1996
:102C00007F09800B910B6058734C894C914008F000
:102C10006AC0D8CF8FE70E94130C0E94270C84351E
:102C200009F05CC089830E94270C182F00E01093E4
:102C3000B4040093B3040E94270C080F111D1093D5
:102C4000B4040093B3040E94270C8093B2040E9442
:102C5000270C8093B104813108F040C0FF2407C0E5
:102C60000E94270C0F561B4FF8018083F3940F2D01
:102C700010E08091B10490E0880F991F08171907A0
:102C800078F380E78983CE01019661E00E942B11E1
:102C900083E08093C2030E94FC0D62E370E080E059
:102CA00090E00E94862A8091C2038330A9F08FE7CA
:102CB0000E94130C0E94270C803581F489830DED4E
:102CC00013E00E94270CF80181938F01F3E0083F85
:102CD0001F07B9F781E003C082E001C083E06C9672
:102CE000EAE00C9414368091C203833009F092CF4D
:102CF000F3CF83E00E94370C8093210484E00E948C
:102D0000370C8093220487E061E00E943D0C6AE06A
:102D100070E080E090E00E94862A0E94FC0D000096
:102D200008950F931F93082F17C05F9A64E670E011
:102D300080E090E00E94862A5F9864E670E080E080
:102D400090E00E94862A1F5F101778F36CE271E012
:102D500080E090E00E94862A10E0F6CF482F392FBD
:102D600025E00DC0F999FECF1FBA842F932F92BD95
:102D700081BD60BD0FB6F894FA9AF99A0FBE215042
:102D800059F0F999FECF842F932F92BD81BDF89A07
:102D900080B5681739F7089582E00E94911608956A
:102DA000A0E0B0E0E6EDF6E10C94F135482E562EA9
:102DB000EE24FF2488249924C0E0D0E0CC24DD2434
:102DC00046E4342E04C055245394CC24DD244420FE
:102DD00069F48091C303839DE001112434ECE32E58
:102DE00033E0F32E29E1822E912C1DC021E0421602
:102DF00071F48091C303839DE00111246B9698EFD9
:102E0000E92E93E0F92E89E2882E912C0CC032E055
:102E1000431649F403ECE02E03E0F02E11E0812E7E
:102E2000912CC8E1D1E03E016C0C7D1C10925C0538
:102E300010925B05E3011BC0552059F4F999FECFB0
:102E4000D2BDC1BDF89A80B5F701E00FF11F8083B4
:102E500007C0F701E00FF11FCE0160810E94AE169E
:102E60000E0D1F1DF80180810E94B10921969E015F
:102E70002619022F10E008151905F0F2CE01552091
:102E8000D9F4F999FECFD2BDC1BDF89A20B5F99910
:102E9000FECF2196D2BDC1BD2197F89A80B590E0B2
:102EA000B22EAA248A299B2920915B0530915C05CA
:102EB0002817390759F487CF219660915C050E9445
:102EC000AE16CE0160915B050E94AE1680E291E0E5
:102ED000C80ED91E91EEC91692E0D90608F477CF34
:102EE000852DCDB7DEB7E1E10C940D3680E061E0D1
:102EF0000E94D01681E061E00E94D016089580E023
:102F000060E00E94D016882331F081E060E00E94EA
:102F1000D016882331F40E94130A0E94CE090E9421
:102F20007617089582E061E00E94D016089582E04D
:102F300060E00E94D0168091C303843020F010928C
:102F4000C3030E94921708951F93182F0E9497178A
:102F50008091C303811731F0143020F41093C30320
:102F60000E9492171F9108951F93182F0E94602AA4
:102F70006093C7047093C8048093C9049093CA04F3
:102F80001093B504112329F440E855E260E070E0A5
:102F900004C040E051EE60E070E08DEA96E00E94EF
:102FA000852F1F91089587E196E0609128040E9483
:102FB0003D2C08951F93182F87E196E0612F0E9402
:102FC0003D2C809128048127809328041F91089527
:102FD0001F93192F0E94DA17812F0E94DA171F9171
:102FE0000895DF92EF92FF920F931F93D82E7B01EB
:102FF0001092280407E116E0C80165EB0E943D2C01
:10300000C80162E60E943D2C8D2D0E94DA17C7018F
:103010000E94E8171F910F91FF90EF90DF900895A5
:1030200010928F0485E6EAE2F4E0DF011D928A95B2
:10303000E9F708951F93182F8F3711F08830E1F5C5
:10304000E0918F04EE2309F455C0E150E0938F0422
:10305000F0E0E65DFB4F108287E196E06DE00E94B4
:103060003D2C10E00AC0E12FF0E0E65DFB4F87E168
:1030700096E060810E943D2C1F5F80918F0418179D
:1030800090F387E196E060E20E943D2C87E196E0B4
:103090006DE00E943D2C10E00AC0E12FF0E0E65DFB
:1030A000FB4F87E196E060810E943D2C1F5F80917D
:1030B0008F04181790F31CC08B3119F40E9410185C
:1030C0001FC08D30E9F08A30D9F080918F048436AA
:1030D00088F487E196E0612F0E943D2C80918F0457
:1030E000E82FF0E0E65DFB4F10838F5F80938F0445
:1030F00080E007C087E196E067E00E94332DF8CFBB
:1031000081E01F9108951F93CF93DF93C7E0D4E030
:1031100010E03BC087E196E062E271E00E94C42EBD
:1031200087E196E0612F4AE050E00E94412E87E15E
:1031300096E06FE271E00E94C42E699170E080E039
:1031400090E02091060430E040E050E00E9481359C
:1031500020E137E240E050E00E948135DC01CB0104
:103160004091FD035091FE036091FF0370910004B4
:10317000480F591F6A1F7B1F87E196E02AE030E065
:103180000E94082E1F5F183119F08881882311F6DC
:10319000DF91CF911F910895EF92FF920F931F93AC
:1031A000882339F487E196E061ED7AE00E94512DA1
:1031B0003BC090E00E942F0A24E630E040E050E05F
:1031C0000E94B335122F032FF42EE52E622F732F9A
:1031D000842F952F2AE030E040E050E00E94B33584
:1031E00087E196E0BA01A9012AE030E00E94F92DBA
:1031F00087E196E06EE20E94332D612F702F8F2DB4
:103200009E2D2AE030E040E050E00E94B335AB0153
:10321000BC0187E196E02AE030E00E94F92D87E1C9
:1032200096E063E70E94652D1F910F91FF90EF904C
:103230000895FF920F931F93CF93DF9387E196E05A
:1032400067EC7AE00E94122D8091DD03813041F419
:1032500087E196E06EEA7AE00E94512DFF246DC06E
:10326000823029F487E196E067E97AE0F5CF84308F
:1032700029F487E196E063E87AE0EECF853071F7D4
:1032800087E196E068E77AE0E7CFCF2DD0E0C9305C
:10329000D1051CF06F2D685C02C06F2D6F5C87E15B
:1032A00096E00E94332D87E196E060E77AE00E9485
:1032B000122DBE016F5F7F4F87E196E04AE050E03C
:1032C0000E949D2E87E196E065E67AE00E94122D2D
:1032D0008E0103521C4FD8011196EC91E032F8F4A4
:1032E00087E196E068E57AE00E94122DF80181817D
:1032F000803130F087E196E063E371E00E94C42EF4
:10330000C352DC4F698170E06F7070706F5F7F4FE8
:1033100087E196E04AE050E00E94B02E0DC0F0E058
:10332000EF70F070EE0FFF1FEE5AFC4F608171815D
:1033300087E196E00E94C72EF3948091B204F816BC
:1033400008F4A3CF87E196E06DE37AE00E94122DA6
:103350008091F5030E94CC1887E196E062E27AE062
:103360000E94122D8091F6030E94CC1887E196E00E
:1033700067E07AE00E94122D8091F7030E94CC183A
:1033800087E196E06CEE79E00E94122D4091ED030A
:103390005091EE036091EF037091F00341155105D8
:1033A0006105710539F187E196E02AE030E00E947D
:1033B000082E87E196E069EB79E00E94122D80915A
:1033C000F1030E94620AAB01BC0187E196E02AE0AA
:1033D00030E00E94082E87E196E065E979E00E94DE
:1033E000122D87E196E06091F2034AE050E00E94DE
:1033F000532E06C087E196E06CE879E00E94512DDB
:1034000087E196E06FE679E00E94122D6091F30368
:103410007091F40387E196E04AE050E00E942D2E7F
:1034200087E196E062E579E00E94122D6091EC035D
:10343000603150F470E06F5F7F4F87E196E04AE0C3
:1034400050E00E94B02E06C087E196E069E479E082
:103450000E94512D87E196E06CE279E00E94122DE6
:103460008091EB0380FD03C065E371E002C069E376
:1034700071E087E196E00E94C72E87E196E06FE059
:1034800079E00E94122D8091EB0382700E94E70E7A
:1034900087E196E060EF78E00E94122D8091EB03C7
:1034A00084700E94E70E87E196E061ED78E00E946B
:1034B000122D8091EB0388700E94E70ECDB7DEB726
:1034C000E5E00C9419361F93CF93DF9387E196E0E4
:1034D0006BE17CE00E94122D4091FD035091FE03B0
:1034E0006091FF037091000487E196E02AE030E0EC
:1034F0000E94082E87E196E065E07CE00E94122D94
:1035000040910104509102046091030470910404FD
:1035100087E196E020E130E00E94082E87E196E006
:103520006FEE7BE00E94122D87E196E0609105042A
:103530004AE050E00E94532E87E196E069ED7BE07F
:103540000E94122D87E196E0609106044AE050E067
:103550000E94532E87E196E063EC7BE00E94122DDF
:10356000C7E0D4E010E012C0112331F087E196E00B
:103570006DE371E00E94C42E87E196E069914AE014
:1035800050E00E94412E1F5F183119F08881882376
:1035900059F787E196E00E943B2D87E196E06DEABE
:1035A0007BE00E94122D87E196E060911F044AE0C3
:1035B00050E00E94532E87E196E068E97BE00E948C
:1035C000122DE0912004F0E0E770F070EE0FFF1F85
:1035D000EE58FC4F6081718187E196E00E94C72E12
:1035E00087E196E063E87BE00E94122D8091200441
:1035F00090E0887190708830910589F0893091054C
:103600001CF4892B39F01BC08031910569F0489773
:10361000B1F40FC087E196E06AE77BE00EC087E176
:1036200096E06EE67BE009C087E196E068E67BE025
:1036300004C087E196E06EE57BE00E94512D87E1B2
:1036400096E06AE47BE00E94122D4091F9035091CC
:10365000FA036091FB037091FC0387E196E02AE096
:1036600030E00E94082E87E196E061E37BE00E9453
:10367000122D8091C90380710E94E70E87E196E0C8
:1036800068E17BE00E94122D8091C90380740E9442
:10369000E70E87E196E06FEF7AE00E94122D8091AD
:1036A000C90380720E94E70E87E196E062EE7AE03D
:1036B0000E94122D88EF93E00E94720AAB01BC01B8
:1036C00087E196E02AE030E00E94F92D87E196E05C
:1036D0006DED7AE00E94122D88EF93E00E94720A4D
:1036E0009B01AC0160E472E48FE090E00E94B3358E
:1036F00087E196E0BA01A9012AE030E00E94F92DA5
:1037000087E196E06AED7AE00E94512DDF91CF913A
:103710001F910895EF92FF920F931F938C01E7E1A1
:10372000EE2EE6E0FE2EC701612F70E04AE050E089
:103730000E941C2EC7016EE20E94332D74E0169584
:1037400007957A95E1F70F701070C701B8014AE04C
:1037500050E00E941C2E1F910F91FF90EF90089552
:103760000F931F93CF93DF93209129042F3FA9F547
:1037700087E196E061E576E00E94122D80E793E014
:103780000E948A1B87E196E060E376E00E94122D9A
:103790008091B3049091B4040E948A1B87E196E063
:1037A0006DEF75E00E94512D87E196E06AED75E0BE
:1037B0000E94512D87E196E062EC75E00E94512D48
:1037C00087E196E06DE975E00E94512D87E196E072
:1037D0000E943B2D0E94191969C012160CF066C098
:1037E000332727FD30958091B20490E0821793072C
:1037F0000CF45CC087E196E068E875E00E94122D49
:1038000060912904772767FD709587E196E04AE08B
:1038100050E00E94B02E87E196E06DE575E00E94D1
:10382000122D08E210E03AC0C12FD0E0CC0FDD1F0E
:10383000CF56DB4F288130E080912904992787FDFE
:10384000909501972817390741F587E196E06FE3D6
:1038500071E00E94C42E87E196E0602F4AE050E0BC
:103860000E94412E87E196E063E471E00E94C42E3D
:10387000E981F0E0EF70F070EE0FFF1FEE5AFC4FA1
:103880006081718187E196E00E94C42E87E196E015
:1038900067E471E00E94C42E0F5F1F5F8091B10446
:1038A000181710F287E196E00E943B2DDF91CF912F
:1038B0001F910F910895ACE1B0E0E1E6FCE10C94BA
:1038C000FA35282F809129048F3F09F042C1822FB9
:1038D00090E0FC013A97EF36F10508F033C1EA5A5F
:1038E000FF4F0C94273687E196E069E471E0AEC0A3
:1038F00087E196E069E471E00E94C72E1CC187E170
:1039000096E065E571E00E94C72E85E78983DE01B8
:103910001296EDEDF3E08BE101900D928150E1F70D
:10392000CE0101966CE10E942B110E94FC0D83E0F8
:103930008093C20368EC70E080E090E00E94862AE9
:103940008091C203843009F0FDC08FE70E94130C00
:103950000E94270C8983853509F0F4C087E196E041
:103960006FE375E00E94512D87E196E061E275E01A
:103970000E94512D87E196E063E075E0ACC087E1DD
:1039800096E06DE671E00E94C72E89E68983CE013C
:10399000019661E00E942B110E94FC0D83E0809350
:1039A000C20368EC70E080E090E00E94862A80917B
:1039B000C203843009F0C6C08FE70E94130C0E9436
:1039C000270C89838E010E5F1F4F9DE1E92EF12C9C
:1039D000EC0EFD1E0E94270CD8018D938D01AE15B3
:1039E000BF05C1F7ADEDB3E0FE0132968BE101906A
:1039F0000D928150E1F78981893409F0A3C087E1F4
:103A000096E065EE74E00E94512D87E196E067EC48
:103A100074E00E94512D87E196E069EA74E05BC092
:103A200087E196E067E871E00E94C72E8EEF8093F1
:103A3000290488C020522750922F90538091B204BD
:103A4000891738F487E196E066E971E00E94C72E95
:103A500079C0909329046FC084E18093290487E1A1
:103A600096E062E774E037C085E18093290487E13E
:103A700096E06BE374E02FC086E18093290487E130
:103A800096E064E074E027C087E18093290487E131
:103A900096E06AEB73E01FC088E18093290487E118
:103AA00096E069EA73E017C089E18093290487E111
:103AB00096E065E973E00FC08AE18093290487E10D
:103AC00096E060E873E007C08BE18093290487E10A
:103AD00096E068E573E00E94512D34C087E196E0DE
:103AE0006EE373E00E94512D8091EB0391E01DC0C5
:103AF00087E196E068E273E00E94512D8091EB032C
:103B000092E013C087E196E063E173E00E94512DDB
:103B10008091EB0394E009C087E196E068EF72E0E2
:103B20000E94512D8091EB0398E089278093EB034D
:103B30008FEF809329040E94B01B04C087E196E0B8
:103B40000E94032C87E196E00E94DC2B892BB1F7C1
:103B500063C1822F0E941A18882309F45DC18091E5
:103B60008F04882321F48FEF809329044DC18AE2CA
:103B700094E060E070E040E050E00E94C3079B01E9
:103B8000AC0160912904862F992787FD9095A92F74
:103B9000B92FFC013197EB31F10508F025C1EB534A
:103BA000FF4F0C942736E62FFF27E7FDF095809115
:103BB000B20490E08E179F070CF416C1DA01C90118
:103BC0000197A109B1098097A105B10540F0FF2433
:103BD00010E008E26F010894C108D10826C0E35242
:103BE000FC4F822F81508083E7C0612F70E0660F09
:103BF000771F6F567B4FFB01808190E08C159D05F0
:103C000099F4802F90E0A0E0B0E082179307A4071A
:103C1000B50749F4F601E352FC4FDB0111968C9194
:103C20008183FF24F3940F5F1F5F8091B104181705
:103C3000E0F2C0C02F3F31054105510511F008F0F9
:103C4000D3C02093F503B8C02F3F3105410551057E
:103C500011F008F0C9C02093F603AEC02F3F310524
:103C60004105510511F008F0BFC02093F703A4C02F
:103C700080912A048062803719F58BE294E060E03D
:103C800070E040E050E00E94C3079B01AC01DC0102
:103C9000CB010197A109B1090897A105B10508F069
:103CA000B6C0CA01B90124ED30E340E050E00E9403
:103CB00081359B01AC012A5E3C4A4A46554E24C0E0
:103CC000863611F58BE294E060E070E040E050E071
:103CD0000E94C3079B01AC01DC01CB010197A10944
:103CE000B1090797A105B10508F091C0CA01B90152
:103CF00028EA31E640E050E00E9481359B01AC01AA
:103D0000245E3C434E46544E211531054105510574
:103D100061F0DA01C9018054914EAD49B841815832
:103D2000904FAA4FB24008F05FC02093ED0330934C
:103D3000EE034093EF035093F0033EC02F3F310555
:103D40004105510511F008F04FC02093F10334C034
:103D5000DA01C9010197A109B1098F3F9105A105B8
:103D6000B10508F041C02093F20326C0DA01C90171
:103D7000845C9940A040B0408D549D41A040B0402B
:103D800038F43093F4032093F303FF24F39401C039
:103D9000FF24211531054105510511F48FEF07C0AE
:103DA000213131054105510528F4822F815080933E
:103DB000EC0302C0FF20C1F0809190048823D1F46D
:103DC0008091010490910204A0910304B091040435
:103DD0000196A11DB11D8093010490930204A0934C
:103DE0000304B093040406C087E196E068EA71E03A
:103DF0000E94C72E0E9410188FEF8093290487E13C
:103E000096E06AE00E94652D0E94B01B05C021E08B
:103E100030E040E050E07DCF6C96E8E00C94163640
:103E200087E196E06CEA72E00E94512D87E196E00E
:103E300064E972E00E94512D87E196E00E94DC2B3C
:103E4000892B31F087E196E00E94032C0E945B1CD5
:103E50000E94CD15823019F0833069F405C087E1E6
:103E600096E066E772E004C087E196E06FE572E0F5
:103E70000E94512D08958FEF809329041092900491
:103E80000E94B01B0CC087E196E00E94DC2B892BBE
:103E900031F087E196E00E94032C0E945B1C809128
:103EA00029048E3F81F7089580912904992787FD81
:103EB0009095A92FB92FFC013196EB30F10508F050
:103EC00074C0E052FF4F0C94273687E196E064EC13
:103ED00078E00E94512D80E793E00E948A1B87E1E1
:103EE00096E06CEA78E00E94512D87E196E067E861
:103EF00078E00E94512D87E196E06DE578E00E9420
:103F0000512D87E196E06CE378E00E94512D87E126
:103F100096E06FE078E00E94512D87E196E069EE2F
:103F200077E00E94512D87E196E065EC77E00E94F2
:103F3000512D87E196E06EE977E00E94512D87E1EF
:103F400096E00E943B2D0E94631A2FC087E196E005
:103F500061E877E028C087E196E06CE577E023C070
:103F600087E196E067E477E01EC087E196E068E2CB
:103F700077E019C087E196E064EE76E014C087E14F
:103F800096E06FEC76E00FC087E196E06AEB76E0B2
:103F90000E94512D87E196E064E776E004C087E156
:103FA00096E06EE576E00E94512D6AE070E080E0D8
:103FB00090E00E94862A04C087E196E00E94032CCC
:103FC00087E196E00E94DC2B892BB1F70895A2E2ED
:103FD000B0E0EDEEFFE10C94F0358E010F5F1F4F66
:103FE00080E1D8011D928A95E9F787E196E066ECB9
:103FF00071E00E94C72E0E94791620E431EE4DE94F
:1040000058E12F8F38A349A35AA380EC91EDA8E97A
:10401000BBE18B8F9C8FAD8FBE8F24EF31E040E0F2
:1040200050E02F8B388F498F5A8F50E5C52E53ECB7
:10403000D52EE12CF12C40E4442E41EE542E4DE9D6
:10404000642E48E1742E88249924540133241E8A56
:104050001D8A198A1A8A1B8A1C8AFFC087E196E08A
:104060000E94032C8434B9F0853430F48332B9F1E2
:104070008C3209F0CCC044C0833509F0C8C02F8D04
:1040800038A149A15AA1C901DA012C013D018824B6
:1040900099245401E2C087E196E064E40E94332D44
:1040A00087E196E040E451EE6DE978E12AE030E006
:1040B0000E94672E87E196E06CE20E94332D87E133
:1040C00096E040EC51ED68E97BE12AE030E00E94A7
:1040D000672E87E196E06CE20E94652DBEC01982D2
:1040E0001A821B821C821D821E821F8218861986DC
:1040F0001A861B861C861D861E861F86188A3AC055
:10410000339434E0331609F0A8C069817A818B8139
:104110009C8128EE33E040E050E00E9481356F8FB3
:1041200078A389A39AA36D817E818F8198850E944F
:1041300081356B8F7C8F8D8F9E8F89859A85AB851E
:10414000BC858F8B988FA98FBA8F6D857E858F8563
:1041500098890E9481356B017C0190E2C9169EE42A
:10416000D90690E0E90690E0F90630F48CE162E3CC
:104170000E943D0C332471C0A0E3CA16A5E7DA06FD
:10418000A0E0EA06A0E0FA0618F48CE162E2F0CFC3
:10419000B0E4CB16BCE9DB06B0E0EB06B0E0FB0612
:1041A00018F48CE166E2E4CFE0E5CE16E3ECDE063F
:1041B000E0E0EE06E0E0FE0618F48CE162E1D8CF24
:1041C000F0E6CF16FAEEDF06F0E0EF06F0E0FF06CD
:1041D00018F48CE165E1CCCF20E7C21621E1D206CC
:1041E00021E0E20620E0F20618F48CE161E0C0CFA5
:1041F00030EAC31636E8D30631E0E30630E0F306D2
:1042000018F48CE163E0B4CF8CE165E0B1CF30ED20
:10421000232E280E49E0421500F1032D10E0000F77
:10422000111F000F111F81E090E08C0F9D1F080FE0
:10423000191FD8016D917D918D919C912AE030E0FC
:1042400040E050E00E948135620D711D811D911D7D
:10425000F801608371838283938387E196E00E94F3
:10426000DC2B892B09F0FACE81149104A104B1044E
:1042700089F4C301B2010E94B30C61E070E080E0F8
:1042800090E00E94862AFFEFFE8B1D8A198A1A8A07
:104290001B8A1C8A2F89388D498D5A8D8216930668
:1042A000A406B506E0F40E945E0C29893A894B8980
:1042B0005C89280F311D411D511D298B3A8B4B8B79
:1042C0005C8B3D89381708F48D8B4E89841708F470
:1042D0008E8B0894811C911CA11CB11C56C0C3017B
:1042E000B20128EE33E040E050E00E94B33587E1B0
:1042F00096E0BA01A9012AE030E00E94F92D87E199
:1043000096E06CE20E94332D87E196E06D894AE0E9
:1043100050E00E94412E87E196E06CE20E94332D2E
:1043200069897A898B899C89A50194010E94B3359A
:1043300087E196E0BA01A9012AE030E00E94F92D58
:1043400087E196E06CE20E94332D87E196E06E896A
:104350004AE050E00E94412E87E196E06CE20E9424
:10436000652D4C0C5D1C6E1C7F1C8B8D9C8DAD8D4A
:10437000BE8D84159505A605B70520F44F8C58A071
:1043800069A07AA08824992454012F8D38A149A1CD
:104390005AA1285E33404040504009F05ECFA296BB
:1043A000E2E10C940C36AAE5B0E0E9EDF1E20C9400
:1043B000FC358B017A018B3009F425C18C3040F536
:1043C000853009F484C0863080F4823009F459C005
:1043D000833020F4813009F051C242C0833009F4A7
:1043E00061C0843009F04AC265C0883009F49DC0BC
:1043F000893038F4863009F486C0873009F03EC22F
:104400008CC0893009F499C08A3009F037C2C9C01C
:10441000893609F483C18A3680F4863609F42EC1C0
:10442000873620F4853609F029C20FC1873609F492
:104430003EC1883609F022C242C18C3609F4C5C19A
:104440008D3638F48A3609F474C18B3609F016C2F9
:10445000B0C18D3609F4EDC1873C09F00FC201C22D
:1044600081E069E270E00E94F11708EF13E0F801C3
:1044700081918F010E94DA17F4E001321F07B9F72A
:1044800005C282E06BE170E00E94F1170DED13E0D0
:10449000F80181918F010E94DA17F3E0083F1F07AE
:1044A000B9F7F4C183E061E070E00E94F1170E9467
:1044B000CD15EAC184E061E070E00E94F11781E06F
:1044C0000E94DA170E94D3170E94E71FE1C1609192
:1044D000B10470E0660F771F85E00E94F11700E0DD
:1044E00010E008C0F801EF56FB4F80810E94DA17F8
:1044F0000F5F1F4F8091B10490E0880F991F08173C
:10450000190780F3C3C186E062E070E00E94F117F2
:1045100080E793E00E94E817B9C187E061E070E0AE
:104520000E94F1178091B204AFC188E061E070E0B1
:104530000E94F1178091C303A7C186E68983CE014B
:10454000019661E00E942B110E94FC0D83E0809394
:10455000C20368EC70E080E090E00E94862A8091BF
:10456000C2038430E1F48FE70E94130C0E94270CF1
:104570008983863471F489E060E270E00E94F1176B
:1045800010E00E94270C0E94DA171F5F1032C9F753
:104590007DC189E061E070E00E94F117C8C089E048
:1045A0006EC18AE069E170E00E94F1171092C403C5
:1045B0008091C905882351F08091C9039091CA0365
:1045C000A091CB03B091CC03806809C08091C9034E
:1045D0009091CA03A091CB03B091CC038F778093C5
:1045E000C9039093CA03A093CB03B093CC0304EC0C
:1045F00013E0F80181918F010E94DA17F3E00D3D7D
:104600001F07B9F743C18BE061E270E00E94F11728
:104610008091E6048F3F39F08091E6048F5F8093AC
:10462000E604815002C08091E6040E94DA1710E08F
:10463000F894812F0E94C5120E94960B0E94E817E1
:1046400078941F5F1031A1F721C185E661E070E029
:104650000E94F1170932110509F015C120E030E080
:10466000F901E850FC4FD701A20FB31F8C91808352
:104670002F5F3F4F2932310599F759C086E661E037
:1046800070E00E94F1170B31110509F0FCC020E029
:1046900030E0F901E352FC4FD701A20FB31F8C9118
:1046A00080832F5F3F4F2B31310599F740C087E65C
:1046B00061E070E00E94F1170E94761738C088E62A
:1046C00061E070E00E94F11785E78A83DE011396AE
:1046D000EDEDF3E08BE101900D928150E1F7CE0119
:1046E00002966CE10E942B110E94FC0D83E08093E6
:1046F000C20360E273E080E090E00E94862A80912D
:10470000C203843009F0BFC08FE70E94130C0E94DF
:10471000270C8A83853509F0B6C009C089E661E0B7
:1047200070E00E94F1170E94CE090E94130A81E0F6
:10473000ABC08AE661E070E00E94F11789E68E8FD7
:10474000CE014E9661E00E942B110E94FC0D83E089
:104750008093C20360E273E080E090E00E94862ACA
:104760008091C203843009F08EC08FE70E94130C41
:104770000E94270C8E8F8E01015E1F4F6AE3E62E8A
:10478000F12CEC0EFD1E0E94270CF80181938F0185
:10479000EE15FF05C1F7ADEDB3E0FE017F968BE1AD
:1047A00001900D928150E1F78E8D893409F06BC034
:1047B000BECF8BE661E070E00E94F117F7018081C7
:1047C0000E94A4170E947F17B2CF8CE661E070E0D0
:1047D0000E94F1170032110571F487E68AAFDE01FD
:1047E000DB96F70180E201900D928150E1F7CE0156
:1047F000CA9661E205C087E48AAFCE01CA9661E03D
:104800000E942B110E94FC0D83E08093C2036CE494
:1048100074E080E090E00E94862A8091C203843098
:1048200091F58FE70E94130C0E94270C873459F5ED
:104830007ECF8DE661E070E00E94F117093111052D
:1048400011F520E030E0F901EC53FC4FD701A20F45
:10485000B31F8C9180832F5F3F4F2931310599F72A
:1048600066CF87EC61E070E00E94F11781E00E9462
:10487000DA170E94D317109227040AC08AEC61E06D
:1048800070E00E94F11780E00E94DA170E94D317AF
:10489000C65ADF4FE6E00C941836A0E0B0E0E3E53E
:1048A000F4E20C94F83584E0A82E06E0B02E15E072
:1048B000C12E0DE515E0B4E6DB2EA2E0EA2EF3E012
:1048C000FF2EA1C087E196E00E94032C982F8093D1
:1048D000C8058091C705833021F1843028F48130E8
:1048E00099F08230B8F409C0853009F448C08530A9
:1048F00020F1863009F087C05FC0953B09F083C086
:1049000081E08093C7057FC0923609F07AC0E092BB
:10491000C70579C09093C6059093C505F092C70569
:1049200072C09093C3051092C4058091C505892774
:104930008093C505A092C70566C0D92FC0E020911D
:10494000C3053091C4052C2B3D2B3093C405209317
:10495000C3058091C50589278093C505C092C70509
:104960002536310508F44FC08CEC61E070E00E9400
:10497000F11781E00E94DA170E94D31742C02091FC
:10498000C1053091C205F901E35AFA4F9083809135
:10499000C50589278093C5052F5F3F4F3093C2051A
:1049A0002093C1058091C3059091C405281739074C
:1049B00050F1B092C70527C08091C505891759F4F9
:1049C0006091C1057091C2058091C6054DE555E025
:1049D0000E94D3210DC08BEC62E070E00E94F117C1
:1049E0008091C6050E94DA17809128040E94DA1788
:1049F000F8018D2D11928A95E9F71092C205109257
:104A0000C1051092C70587E196E00E94DC2B892B37
:104A100009F058CFCDB7DEB7EAE00C94143681E048
:104A20008093270408C087E196E00E94DC2B892B45
:104A300011F00E944D24809127048823A1F7089546
:104A4000A0E0B0E0E6E2F5E20C94FB350E94602ABB
:104A50006115710581059105C9F30E94BA0710928D
:104A60000104109202041092030410920404DD2445
:104A7000E0900104F09002040091030410910404FA
:104A8000102F0F2DFE2CEE240E94B5072FEF30E0E3
:104A900040E050E00E94D535E60EF71E081F191FB2
:104AA000E0920104F09202040093030410930404C2
:104AB000D39444E0D416E1F6C7E0D4E000E010E07F
:104AC00090E1E92E97E2F92E4EC00F5F19F40E9493
:104AD000CE094DC00E94B50722E330E040E050E02F
:104AE0000E94D5356F5FE7E0F4E090E004C081916B
:104AF000861759F39F5F9117D0F38091060490E0D9
:104B00008E9D90018F9D300D9E9D300D1124862F1E
:104B100090E0AC01249FC001259F900D349F900D23
:104B20001124AA2797FDA095BA2F2091FD0330915B
:104B3000FE034091FF0350910004820F931FA41FB6
:104B4000B51F2091C5033091C6034091C703509112
:104B5000C803281739074A075B0708F4B6CF6993DB
:104B60001F5F183121F08881882309F0AECFCDB7BF
:104B7000DEB7E7E00C9417361F93109129041F3F0E
:104B800009F0F1C0893409F467C08A3428F5883304
:104B900009F479C0893368F4803309F486C081331D
:104BA00008F06FC08B3109F44DC0813209F0D5C0D7
:104BB0003DC0813409F49AC0823438F4893309F451
:104BC00072C0803409F0C9C031C0823409F4A1C078
:104BD000863409F0C2C052C0823609F49AC08336C6
:104BE00090F4883579F1893538F4823509F43FC07D
:104BF000833509F0B2C01FC08A3509F4A9C08136D7
:104C000009F0ABC073C0823791F1833730F4863638
:104C1000A9F1893609F0A1C01FC0883799F08A37F9
:104C200009F496C0833709F098C005C087E196E083
:104C300069E471E019C00E94761787E196E063EDA0
:104C400071E006C00E947F1787E196E06DEE71E08B
:104C50000E94C72E8EEF7FC00E94CE090E94130AC9
:104C600087E196E06CE072E00E94C72E76C00E9459
:104C7000202587E196E065E272E0F6CF0E94831876
:104C80006CC0805368C087E196E06CE472E00E94DB
:104C9000512D90912004892F885F8871977E892BF0
:104CA0008093200420C089E056C087E196E069E344
:104CB00072E00E94512D8091C9039091CA03A09186
:104CC000CB03B091CC0320E130E040E050E08227FC
:104CD0009327A427B5278093C9039093CA03A09371
:104CE000CB03B093CC031093290437C087E196E03F
:104CF00063E272E00E94512D8091C9039091CA0332
:104D0000A091CB03B091CC0320E430E040E050E030
:104D100012C087E196E062E172E00E94512D80911D
:104D2000C9039091CA03A091CB03B091CC0320E2B8
:104D300030E040E050E082279327A427B5278093F6
:104D4000C9039093CA03A093CB03B093CC0302C0D2
:104D50000E94101F8FEF80932904809129048E3FB9
:104D600009F4DDC0D4C00E941A18882309F4D7C002
:104D700080918F04882321F48FEF80932904C7C08A
:104D80008AE294E060E070E040E050E00E94C307F7
:104D90009B01AC0180912904992787FD9095A92F4B
:104DA000B92FFC013197E930F10508F08CC0E551CD
:104DB000FF4F0C942736DA01C9018154914EAD4959
:104DC000B8418F57904FAA4FB24008F07CC0209353
:104DD000FD033093FE034093FF03509300049AC0F9
:104DE000209301043093020440930304509304047D
:104DF00081E0809390048EC0283031054105510533
:104E000008F061C02093050485C0DA01C90101974B
:104E1000A109B1090A97A105B10508F054C0209372
:104E2000060478C08AE294E06DE371E00E94DF0836
:104E300010E00EC0183130F4E12FF0E0E850FC4FE4
:104E400087871F5F80E090E06DE371E00E94DF08DC
:104E5000009759F00E94C108009761F706C0E12F42
:104E6000F0E0E850FC4F17861F5F1831C0F352C0C6
:104E7000253031054105510530F520931F044AC006
:104E8000DA01C9010197A109B1090697A105B10588
:104E9000D0F480912004887F822B809320043AC034
:104EA000DA01C9010197A109B1098050924CA140D2
:104EB000B04048F42093F9033093FA034093FB0386
:104EC0005093FC0327C087E196E068EA71E00E94F6
:104ED000C72E13C08091010490910204A091030495
:104EE000B09104040196A11DB11D8093010490931B
:104EF0000204A0930304B09304040E9410188FEFDF
:104F00008093290487E196E06AE00E94652D0E9463
:104F1000541F05C0809190048823E1F2EECF1F91C9
:104F200008958FEF80932904109290040E94541FDB
:104F30000CC087E196E00E94DC2B892B31F087E1E1
:104F400096E00E94032C0E94BC25809129048E3F8C
:104F500081F76AE070E080E090E00E94862A04C059
:104F600087E196E00E94032C87E196E00E94DC2B0B
:104F7000892BB1F70895AAE2B0E0E1ECF7E20C94D6
:104F8000F5350E94522A7B018C0181E00E941D0DA3
:104F900004C087E196E00E94032C87E196E00E941E
:104FA000DC2B892BB1F75F98DD24D39452E6752E64
:104FB00042E0842E912C8C0E9D1E5E010894A11C53
:104FC000B11C33E0C32E0E94522A20E030E06E195B
:104FD0007F09800B910B693C71058105910510F0EB
:104FE00021E030E08D2D90E028233923232B99F107
:104FF0000E94522A7B018C01469A80ED97E00E9424
:105000002D097982D401E8EFF3E089E201900D9255
:105010008150E1F7C5016AE20E942B11469880E0B9
:1050200090E00E942D09C092C2030E94FC0D62E331
:1050300070E080E090E00E94862A8091C203843074
:1050400051F4C092C2038FE70E94130C0E94270CF8
:10505000823409F4DD2482E10E94AB2B892B49F5CF
:10506000DD24D39426C05F9A469A87E196E00E9499
:10507000032C8D30910569F08E3091051CF40A9750
:10508000B1F407C08332910569F08234910579F457
:105090000CC087E196E064E072E00E94512D0E940E
:1050A000912705C00E94E71F02C00E940F255F984C
:1050B000469887E196E00E94DC2B892B09F483CF88
:1050C000D2CF8F929F92AF92BF92CF92DF92EF9208
:1050D000FF920F931F9382E10E94AB2B892B09F063
:1050E00083C068EC70E080E090E00E94862A80E057
:1050F00090E00E942D090E94522A5B016C0160EC35
:10510000E62E62E1F62E012D112DEA0CFB1C0C1D82
:105110001D1D06C082E10E94AB2B892B09F062C0E5
:105120000E94522A6E157F058007910798F382E14D
:105130000E94AB2B892B09F055C080ED97E00E94AF
:105140002D090E94522A7B018C0199249394882472
:1051500088E496E2A0E0B0E0A80EB91ECA1EDB1EED
:1051600029C0AE14BF04C006D10638F480ED97E024
:105170000E942D09882483941DC00E94522A6E1912
:105180007F09800B910B693C71058105910590F0B9
:105190000E94522A7B018C0180E0992009F481E071
:1051A000982E882319F480E090E002C080ED97E00B
:1051B0000E942D0982E10E94AB2B892B91F280E0A5
:1051C00090E00E942D09882049F08091C3038F5FF1
:1051D00083700E94A4170E947F1706C00E9420259A
:1051E0000E9476170E94BB271F910F91FF90EF90AE
:1051F000DF90CF90BF90AF909F908F900895EF92E7
:10520000FF920F931F9380E00E948C090E94B515B6
:1052100086E061E00E94002B85E061E00E94002BA7
:1052200082E160E00E94002B84E060E00E94002B9D
:1052300084E061E00E94782B0E94C11587E196E02E
:1052400060E070E00E94DB2B0E9497170E947F179E
:105250000E94C10E8FEF8093E6040E945909789452
:105260000E94522A7B018C018091E6048F3F09F055
:10527000C7C00E94522A6E197F09800B910B605D96
:1052800077408040904008F0BBC0EECF87E196E0C9
:105290000E94032C87E196E00E94DC2B892BB1F75A
:1052A00087E196E062E472E00E94C42E80E793E01A
:1052B0000E948A1B87E196E069E572E00E94C42E95
:1052C00087E196E066E070E04AE050E00E94B02E90
:1052D00062E370E080E090E00E94862A87E196E039
:1052E0000E94DC2B04970CF187E196E00E94032CCE
:1052F00082349105D1F487E196E00E94032C8E342C
:10530000910599F487E196E00E94032C843491057D
:1053100061F487E196E00E94032C819731F480E0EC
:1053200090E00E942D090E94BB274091F903509103
:10533000FA036091FB037091FC03DB01CA01019742
:10534000A109B1090497A105B10568F44093E704E8
:10535000433029F040E052EC61E070E004C040EAE4
:1053600056E861E070E08DEA96E00E94852F0E9489
:1053700061285F9880E090E00E942D090E94C10E94
:1053800080E00E941D0D8091CC040E94480C0E9478
:10539000FC0D10925105109252051092530510E029
:1053A00015C062E370E080E090E00E94862A80ED04
:1053B00097E00E942D0962E370E080E090E00E9497
:1053C000862A80E090E00E942D091F5F8091C30330
:1053D000811738F78091200490E084FF09C020E015
:1053E00088719070489709F421E0822F0E94B417C9
:1053F0008FE00E948C091F910F91FF90EF9008950C
:1054000080ED97E00E942D0982E161E00E94782BF7
:105410005F9A40CF1F920F920FB60F9211242F93D5
:105420003F938F939F93AF93BF938091CE059091BD
:10543000CF05A091D005B091D1053091D20501964C
:10544000A11DB11D232F2D5F2D3720F02D57019663
:10545000A11DB11D2093D2058093CE059093CF0559
:10546000A093D005B093D1058091CA059091CB054A
:10547000A091CC05B091CD050196A11DB11D8093E1
:10548000CA059093CB05A093CC05B093CD05BF91F1
:10549000AF919F918F913F912F910F900FBE0F90E1
:1054A0001F9018958FB7F8942091CE053091CF05B5
:1054B0004091D0055091D1058FBFB901CA0108951F
:1054C0009FB7F8942091CA053091CB054091CC0547
:1054D0005091CD0586B5A89B06C08F3F21F02F5F68
:1054E0003F4F4F4F5F4F9FBF542F432F322F2227E5
:1054F000280F311D411D511D82E0220F331F441F13
:10550000551F8A95D1F7B901CA010895EF92FF920C
:105510000F931F93CF93DF937B018C010E94602A2E
:10552000EB010EC00E94602A6C1B7D0B685E73400D
:10553000C8F30894E108F10801091109C851DC4FCA
:10554000E114F1040105110569F7CDB7DEB7E6E016
:105550000C941836789484B5826084BD84B58160DB
:1055600084BD85B5826085BD85B5816085BDEEE66B
:10557000F0E0808181608083E1E8F0E0108280814A
:1055800082608083808181608083E0E8F0E08081B8
:1055900081608083E1E9F0E08081826080838081A6
:1055A00081608083E0E9F0E0808181608083E1ECCC
:1055B000F0E080818460808380818260808380814C
:1055C00081608083E3ECF0E0808181608083E0ECA7
:1055D000F0E0808182608083E2ECF0E08081816095
:1055E0008083EAE7F0E0808184608083808182604C
:1055F000808380818160808380818068808308953A
:10560000CF93DF93482F50E0CA018758934FFC0196
:105610003491455A534FFA018491882369F190E0FF
:10562000880F991FFC01EF5CF34FA591B491FC0129
:10563000E15CF34FC591D491662351F42FB7F894F0
:105640008C91932F909589238C93888189230BC00B
:10565000623061F42FB7F8948C91932F9095892341
:105660008C938881832B88832FBF06C09FB7F894C3
:105670008C91832B8C939FBFDF91CF91089590E005
:10568000FC013197EE30F10590F5EC50FF4F0C9492
:105690002736809180008F7703C0809180008F7DB6
:1056A00080938000089584B58F7702C084B58F7D84
:1056B00084BD0895809190008F7707C080919000FD
:1056C0008F7D03C080919000877F80939000089524
:1056D0008091C0008F7703C08091C0008F7D809340
:1056E000C00008958091C200877F8093C200089512
:1056F000FF920F931F93F62E482F50E0CA01895650
:10570000934FFC012491CA018758934FFC011491D7
:10571000455A534FFA0104910023C9F0222319F08E
:10572000822F0E943F2BE02FF0E0EE0FFF1FE15C85
:10573000F34FA591B4919FB7F894FF2021F48C9179
:105740001095812302C08C91812B8C939FBF1F9158
:105750000F91FF9008950F931F93482F50E0CA01B7
:105760008956934FFC012491CA018758934FFC013D
:105770000491455A534FFA011491112319F420E072
:1057800030E015C0222319F0822F0E943F2B812F79
:1057900090E0880F991F835B934FFC01A591B49112
:1057A0008C9120E030E0802311F021E030E0C9014D
:1057B0001F910F91089508952091130630911406BA
:1057C0008091150690911606281B390B2F733070A7
:1057D000C901089520911306309114068091150691
:1057E000909116062817390719F42FEF3FEF09C0DB
:1057F000E0911506F0911606ED52FA4F8081282FA0
:1058000030E0C9010895209113063091140680916B
:105810001506909116062817390719F42FEF3FEF58
:1058200013C0E0911506F0911606ED52FA4F208153
:10583000809115069091160601968F739070909343
:1058400016068093150630E0C901089510921A06D5
:105850001092190688EE93E0A0E0B0E080931B065A
:1058600090931C06A0931D06B0931E0684E993E056
:1058700090931806809317060895A1E0B0E0E3E442
:10588000FCE20C94FE358C01698380914F038823E0
:1058900069F083E0BE016F5F7F4F41E050E00E94FE
:1058A0001A321816190614F49C0107C081E090E022
:1058B000F8019383828320E030E0C9012196E4E07F
:1058C0000C941A3683E00E94F1310895CF93DF9350
:1058D00012C082E00E9461312FEF8F3F9207C9F022
:1058E000E0911306F0911406ED52FA4F8083D093A5
:1058F0001406C0931306C0911306D0911406219686
:10590000CF73D0708091150690911606C817D907ED
:1059100001F7DF91CF910895FC0180818E5F808334
:1059200080E861EC7CE042E450E00E949831089508
:10593000FC0181819081913A59F4813209F04CC087
:1059400080E068E473E047E050E00E94983142C094
:10595000913209F041C0803239F488E493E067E085
:1059600070E00E94DC3136C0823209F035C082819D
:1059700080934F038091480390914903A0914A037B
:10598000B0914B03805B9440A040B04019F58091EA
:105990004F0380FD12C087E797E79093010880933B
:1059A00000082BE088E190E00FB6F894A89580936A
:1059B00060000FBE209360000DC088E10FB6F89420
:1059C00080936000109260000FBEA89510920108AD
:1059D0001092000881E0089580E00895A0E0B0E012
:1059E000E4EFFCE20C94FA357C016B018A01C0E023
:1059F000D0E00FC0D6016D916D01D701ED91FC9102
:105A00000190F081E02DC7010995C80FD91F015001
:105A100010400115110571F7CE01CDB7DEB7E8E0F2
:105A20000C941636EF92FF920F931F93CF93DF9350
:105A30007C018B01C0E0D0E0F8010F5F1F4F649143
:105A4000662359F0D701ED91FC910190F081E02D92
:105A5000C7010995C80FD91FEFCFCE01CDB7DEB76B
:105A6000E6E00C941836DC01ED91FC910190F08198
:105A7000E02D09950895EF92FF920F931F938C01EB
:105A80006DE00E94332D7C01C8016AE00E94332D35
:105A90009C012E0D3F1DC9011F910F91FF90EF90AA
:105AA0000895EF92FF920F931F937C010E94122D95
:105AB0008C01C7010E943B2D9C01200F311FC901A1
:105AC0001F910F91FF90EF900895EF92FF920F9327
:105AD0001F937C010E94332D8C01C7010E943B2D36
