:100000000C941E060C94CF280C94FC280C944606E5
:100010000C9446060C9446060C9446060C94460630
:100020000C9446060C9446060C945C130C944606FD
:100030000C9446060C9446060C9446060C94460610
:100040000C9429290C9446060C94162D0C94592DC9
:100050000C9446060C9446060C9446060C944606F0
:100060000C9446060C9446064819AA1989198C194D
:100070008F199219951998199B19AA19A419DC1AA4
:10008000DE1ADE1ADC1ADE1ADE1ADE1ADE1ADE1AB2
:10009000DE1ADE1ADE1ADE1ADE1ADE1ADE1ADE1AA0
:1000A000621ADE1ADE1ADE1ADE1ADE1AD319DE1A18
:1000B000DE1ADE1ADE1ADE1ADE1ADE1ADE1ADE1A80
:1000C000DE1ADE1ADE1ADE1ADE1ADE1A6E1A6E1A50
:1000D0006E1A6E1A6E1A6E1A6E1A6E1A6E1ADE1A70
:1000E000DE1ADE1ADE1ADE1ADE1AD3196D1A6D1A3E
:1000F0006D1A6D1ADE1A7B1A811A871A8D1A931AD5
:10010000991A9F1AA51AAF1AB91AC31ACD1A141A36
:10011000D619DE1ADE1ADE1ADE1A621ADE1ADE1AA4
:10012000DE1ADE1ADE1ADE1ADE1ADE1A6C1A6C1AF3
:100130006C1A6C1ADE1A7B1A811A871A8D1A931A96
:10014000991A9F1AA51AAF1AB91AC31ACD1A141AF6
:10015000D619DE1ADE1ADE1ADE1A621A111B111BFC
:10016000111B111B111B111B111B111B111B111B2F
:10017000111B111B111B1D1C1D1C1D1C1D1C1D1CDE
:100180001D1C551B5F1B691B731BD11BDB1BE91B54
:10019000FA1B831D981DA41DAD1DBC1DE11DEA1D8C
:1001A000331EFC1D46214C215221592167218921F2
:1001B000A721456E746572206D656E752E2E2E001A
:1001C000546F67676C6564206D6963726F50504D42
:1001D00000546F67676C656420696E76657274653C
:1001E000642050504D2100546F67676C6564205443
:1001F00058206D7574696E672100546F67676C6570
:10020000642074656C656D65747279210050726F3D
:10021000746F636F6C206572726F72207769746897
:100220002052580054696D656F7574207768656E4B
:1002300020636F6E6E656374696E6720746F205201
:100240005800507265737320616E79206B65792058
:10025000746F2063616E63656C00436F6E6E6563DF
:1002600074696E6720746F2052582C20706F776508
:100270007220757020746865205258202877697440
:10028000682062696E6420706C7567206966206EF4
:100290006F74207573696E6720616C776179732064
:1002A00062696E642900546F67676C656420276912
:1002B0006D6D656469617465206F75747075742700
:1002C00000546F67676C65642027736C61766520E6
:1002D0006D6F64652700546F67676C6564202761E4
:1002E0006C776179732062696E642700546F676769
:1002F0006C65642050504D206368616E6E656C20A3
:100300006C696D69740053657420525353492069B8
:100310006E6A656374696F6E206368616E6E656C8A
:100320002028303D3D64697361626C652900536526
:10033000742050504D206D696E696D756D20737914
:100340006E630053657420626561636F6E20696E31
:1003500074657276616C0053657420626561636FC9
:100360006E2064656C617900536574206265616319
:100370006F6E206672657175656E637920696E2097
:10038000487A3A20303D64697361626C652C205074
:10039000783D504D52206368616E6E656C20782CFC
:1003A0002046783D465253206368616E6E656C202E
:1003B00078005365742050574D2073746F7020641B
:1003C000656C61792028302064697361626C6564B2
:1003D0002C20312D323535203D3D20302E317320FB
:1003E0002D2035306D696E29005365742050504DB5
:1003F0002073746F702064656C61792028302064EC
:10040000697361626C65642C20312D323535203D75
:100410003D20302E3173202D2035306D696E29003E
:10042000536574206661696C736166652064656CF0
:1004300061792028302064697361626C65642C20C6
:10044000312D323535203D3D20302E3173202D2089
:1004500035306D696E29002A2A2A2A2A2A2A2A2A50
:100460002A2A2A2A2A2A2A2A2A2A2A2A2A2A2A2AEC
:100470002A2A2A2A0052582041636B6564202D20C5
:1004800072657665727420737563636573736675E0
:100490006C21002A2A2A2A2A2A2A2A2A2A2A2A2AAD
:1004A0002A2A2A2A2A2A2A2A2A2A2A2A2A2A2A2AAC
:1004B000002A2A2A2A2A2A2A2A2A2A2A2A2A2A2AC6
:1004C0002A2A2A2A2A2A2A2A2A2A2A2A2A2A00528E
:1004D000582041636B6564202D20757064617465DC
:1004E000207375636365737366756C21002A2A2A0D
:1004F0002A2A2A2A2A2A2A2A2A2A2A2A2A2A2A2A5C
:100500002A2A2A2A2A2A2A2A2A2A0056616C696457
:100510002063686F69636573206172653A205B319F
:100520005D2D5B31365D20286368616E6E656C20E1
:10053000312D31362900536574206F7574707574D0
:1005400020666F7220706F727420005B585D2061AE
:10055000626F7274206368616E67657320616E6498
:10056000206578697420525820636F6E6669670051
:100570005B535D20736176652073657474696E6783
:100580007320746F205258005B525D20726576654F
:1005900072742052582073657474696E6773207486
:1005A0006F2064656661756C747300557365206EA9
:1005B000756D62657273205B312D445D20746F2010
:1005C0006564697420706F727473205B452D515D92
:1005D00020666F722073657474696E677300202DD6
:1005E00020726563656976657220636F6E66696700
:1005F000757261746F722C20727820737720000AF4
:100600000A6F70656E4C52536E67200053657420FC
:1006100073657269616C2062617564726174653AB8
:10062000200056616C69642063686F696365733A82
:100630002031202D20342B34202F2032202D203823
:10064000202F2033202D20382B34202F2034202D14
:10065000203132202F2035202D2031322B34202FF5
:100660002036202D20313600536574204368616E9A
:100670006E656C20636F6E6669673A20005365741F
:100680002044617461726174652028302D32293AEA
:10069000200053657420486F70206368616E6E653A
:1006A0006C7320286D61782032342C207365706162
:1006B000726174656420627920636F6D6D61732966
:1006C0002076616C69642076616C75657320312DCC
:1006D0003235353A2000536574206368616E6E656B
:1006E0006C2073706163696E6720287831306B48C5
:1006F0007A293A200053657420524620706F77653E
:10070000722028302D37293A200053657420524634
:10071000206D6167696320286865782920652E67E8
:100720002E20307844454144463030443A2000532E
:1007300065742062617365206672657175656E63AC
:10074000792028696E20487A293A20005B5A5D207A
:10075000656E746572207265636569766572206383
:100760006F6E66696775726174696F6E2075746902
:100770006C79005B465D20646973706C61792061FF
:10078000637475616C206672657175656E63696509
:10079000732075736564005B525D2063616C6375E3
:1007A0006C6174652072616E646F6D206B65792079
:1007B000616E6420686F70206C697374005B495DC2
:1007C000207265696E697469616C697A6520736508
:1007D0007474696E677320746F20736B65746368DB
:1007E0002064656661756C7473005B585D2072658A
:1007F00076657274206368616E67657320616E64EC
:100800002065786974206D656E75005B535D20739B
:100810006176652073657474696E677320746F20E8
:10082000454550524F4D20616E64206578697420B3
:100830006D656E7500557365206E756D62657273BA
:10084000205B302D395D20746F20656469742070E1
:100850006172616D657465727300202D2053797328
:1008600074656D20636F6E66696775726174696F18
:100870006E000A0A6F70656E4C52536E672000510D
:1008800029204F7574707574206265666F726520DB
:100890006C696E6B20283D465329203A2000502970
:1008A00020536C617665206D6F64652028657870D3
:1008B0006572696D656E74616C293A20004F29205C
:1008C00054696D65642042494E44206174207374FC
:1008D000617274757020203A20004E292050504DCE
:1008E000206F7574707574206C696D69746564200F
:1008F000202020203A200044495341424C454400E6
:100900004D292050504D205253534920746F20637D
:1009100068616E6E656C202020203A20004C2920F2
:1009200050504D206D696E696D756D2073796E63E1
:10093000202875732920203A200044495341424C15
:100940004544004B29204661696C736166652062ED
:100950006561636F6E20696E74762E2028312D32AA
:10096000353573293A20004A29204661696C736144
:10097000666520626561636F6E2064656C617920D5
:1009800028302D323535203D3E20313073202D204A
:100990003135306D696E293A200049292046616958
:1009A0006C7361666520626561636F6E206672714B
:1009B0002E203A200048292050574D2073746F7024
:1009C0002064656C6179202020202020203A2000BE
:1009D00047292050504D2073746F702064656C61FE
:1009E00079202020202020203A200046292046611E
:1009F000696C736166652064656C617920202020D4
:100A00002020203A200050574D206368616E6E65AB
:100A10006C200066756E6374696F6E3A2000292041
:100A2000706F72742000506F776572546F776572C3
:100A300000445446205548462033322D62697420C4
:100A400031306368004F70656E4C52536E67525878
:100A5000206D696E6920342F36636800466C7974A6
:100A6000726F6E2F4F72616E6765525820554846FF
:100A70002038636800525820747970653A20004429
:100A8000697361626C656400487A00203D3D200016
:100A900043616C63756C61746564207061636B6540
:100AA0007420696E74657276616C3A200042292068
:100AB0004D6963726F202868616C66292050504D23
:100AC000202020203A00412920496E766572746505
:100AD000642050504D20696E20202020203A0030A4
:100AE00029204D7574652062757A7A657220286DAB
:100AF0006F73746C79293A003929205365726961E2
:100B00006C2062617564726174653A00736D617224
:100B100074506F7274004672536B79005472616E38
:100B200073706172656E740044697361626C6564B0
:100B30000038292054656C656D657472793A2020FF
:100B40002020202020003729204368616E6E656CCC
:100B500020636F6E6669673A202000362920446161
:100B60007461726174652028302D32293A2020206A
:100B700000352920486F70206368616E6E656C7364
:100B80003A2020202020003429204368616E6E65C1
:100B90006C2073706163696E673A202000332920EE
:100BA000524620706F7765722028302D37293A2001
:100BB0002020003229205246206D616769633A2067
:100BC0002020202020202020003129204261736530
:100BD000206672657175656E63793A202020000089
:100BE00000000700020100000304060000000000EE
:100BF00000000001020408102040800102040810D7
:100C00002001020408102004040404040404040263
:100C10000202020202030303030303000000002395
:100C2000002600290000000000250028002B0000FD
:100C3000000000240027002A0000182E11241FBEE7
:100C4000CFEFD8E0DEBFCDBF13E0A0E0B1E0ECE332
:100C5000F2E602C005900D92A83CB107D9F716E064
:100C6000A8ECB3E001C01D92AA3CB107E1F716E081
:100C7000CEE1D6E004C02197FE010E94322FCD3193
:100C8000D107C9F70E94532E0C941C310C9400001C
:100C90008091AF05813019F482E08093AF05809197
:100CA000AF05833019F484E08093AF050895A895CB
:100CB0000895DC01ED91FC910190F081E02D099502
:100CC00008952091B0053091B105A9015827CA01B6
:100CD00028E0AC01440F551F97FF06C0CA0131E25E
:100CE000832730E1932701C0CA01215091F79093E7
:100CF000B1058093B005089589E38093B20580E043
:100D000092ECA1E0B0E08093B3059093B405A0937A
:100D1000B505B093B60587E08093BF0580EC92E9F6
:100D2000ADEEB9E18093B7059093B805A093B905EE
:100D3000B093BA0585E08093C0058DEE9EEFADEAD5
:100D4000BEED8093BB059093BC05A093BD05B09309
:100D5000BE0580E090E08630910528F4FC01EE5459
:100D6000FC4F208101C020E0FC01EE54FA4F2787A0
:100D700001968831910579F782E08093D9058AE060
:100D80008093DA05089580EC91EDA8E9BBE18093AA
:100D9000F7059093F805A093F905B093FA0580E064
:100DA00090E0A0E0B0E58093FB059093FC05A09354
:100DB000FD05B093FE05EFEFF5E080E081938F5FD6
:100DC0008031E1F70895A0E0B0E0E9EEF6E00C94A0
:100DD000FD2ED82F0E947F2961157105810591058F
:100DE000C9F30E948C2F1092BB051092BC05109283
:100DF000BD051092BE05C4E0812C912C54018A944B
:100E0000C090BB05D090BC05E090BD05F090BE053C
:100E1000FE2CED2CDC2CCC240E94872FA501940104
:100E20000E94DC2EC60ED71EE81EF91EC092BB051E
:100E3000D092BC05E092BD05F092BE05C15001F70D
:100E4000DD2309F457C081ECE82E85E0F82E8701F8
:100E5000D0E092E3892E912CA12CB12CF801808155
:100E6000882309F447C0CF5F19F40E947C0642C072
:100E70000E94872FA50194010E94DC2EE1E0E60F7D
:100E8000A1ECB5E08A2F8E198D1720F48D918E1369
:100E9000F9CFE9CF2091C00530E0A0E1B7E20E9490
:100EA000602E9B01AC01AE2FB0E00E946F2E4090EF
:100EB000B7055090B8056090B9057090BA05DC018F
:100EC000CB01840D951DA61DB71D4090F7055090D0
:100ED000F8056090F9057090FA05481659066A06FB
:100EE0007B0608F4C0CFD801ED938D01DF5FD831C8
:100EF00009F0B4CFCDB7DEB7E0E10C94192F8436FA
:100F0000910520F4BC0180E090E017C09C018E3B6D
:100F1000910528F42A553109AAE0B0E00CC0823DC1
:100F2000910528F4245B3109A4E6B0E004C02D5CEF
:100F30003109A8E5B2E00E94602EA4E6B0E09B0172
:100F4000AC010E946F2E089590E08C599F4F0E9433
:100F50007F07089561E08FE00E942E2A60E08FE015
:100F60000E946A2A0895892B11F061E001C060E0B7
:100F70008FE00E946A2A089560E08CE00E942E2A89
:100F800061E08BE00E942E2A61E08DE00E942E2A13
:100F900060E082E00E942E2A61E084E00E942E2A16
:100FA000089542E050E068E476E080E00E94AF28D7
:100FB0000895E3E0F0E089E080935700E491E67063
:100FC00081E0E63009F080E00895CF93DF93C82FE9
:100FD0000E94D907882381F0DFB781E08093AE05B6
:100FE000F8940E94570688E180936000C0936000E7
:100FF000C1110E945706DFBFDF91CF910895FC0118
:1010000090A5E92FE770F0E0E658FC4F8081292F8A
:10101000287119F0813108F481E195FD81E208958C
:10102000FC0180A585FD02C081E1089581E208955B
:10103000A4E0B0E0EEE1F8E00C94012F7C010E9406
:10104000FF0790E0F70110A517FD03C0AFE0B0E087
:1010500002C0A4E1B0E0F70137A123E1329FF00123
:101060001124E25CFE4F80809180A280B380A80FA3
:10107000B91F20E43FE14DE750E00E947A2EA50120
:1010800094010E94BA2E812F887149F469017A0176
:1010900080EDC80E87E0D81EE11CF11C39C0C701E5
:1010A00029833A834B835C830E941008E82FF0E089
:1010B00029813A814B815C8117FD03C0AFE0B0E02C
:1010C00002C0A4E1B0E069017A0198EBC90E9BE08F
:1010D000D91EE11CF11C26E4829FB00111248B0172
:1010E000222717FD2095322FC00ED11EE21EF31EBF
:1010F000AE0FBF1F20E43FE14DE750E00E947A2E83
:10110000A50194010E94BA2EC20ED31EE41EF51E44
:10111000C701B60169517C4F8F4F9F4F28EE33E0D6
:1011200040E050E00E94BA2EA8EEB3E00E946F2E7D
:101130002496ECE00C941D2F8F3F910551F048F060
:10114000811522E0920738F08115934030F083E05A
:10115000089580E0089581E0089582E00895A0E078
:10116000B0E0E5EBF8E00C94052FEB01682F6695F5
:101170009A0150E079012B5F3F4F651780F1A881FC
:10118000B981F9013597A083AA81BB813196A083EB
:10119000AC81BD813196A083AE81BF813196A083A1
:1011A000E880F9800A811B81AC81BD81CE80DF801F
:1011B00031964D2D4295440F440F407C9F2D9370E6
:1011C000942B412F4370440F440F942B4B2F4370AB
:1011D0004295407F942B908328965F5FCBCF80FF12
:1011E00023C0888199810E949C08082F8A819B8155
:1011F0000E949C0820E4029F80011124E0E18E9F60
:10120000C0011124082B8C819D810E949C08182FFD
:101210008E819F810E949C08802BF4E01F9F90018B
:101220001124282BF7012083CDB7DEB7E8E00C941A
:10123000212F803223E0920710F1883E23E09207AD
:1012400048F48752934061E170E00E94922ECB01F6
:1012500001960895813D27E0920718F48C5D934034
:101260000895803928E0920768F4865C974061E130
:1012700070E00E94922ECB018C509C4F089581E02B
:1012800090E008958FEF93E008958C30910550F42D
:1012900041E1489F9001499F300D1124C901805EB2
:1012A0009C4F0895853F23E0920718F484529C4F89
:1012B0000895811524E0920750F441E1489F900180
:1012C000499F300D1124C90188569B43089580E938
:1012D00098E008959C013695279525753575821BF4
:1012E000930B9C01237333739695879596958795F9
:1012F00083739373820F931F9C0164E03695279547
:101300006A95E1F7820F931F8F709F7041E051E063
:10131000849F9001859F300D949F300D1124832F61
:1013200008952D98882319F000002B9A02C0000020
:101330002B9800002D9A000008952D9A000083B18B
:101340002D980000829581700895CF93DF93D82F58
:101350005C9A2D985C98C8E08D2F80780E94910946
:10136000DD0FC150C9F72D98DF91CF9108958F7788
:101370000E94A5090895CF93DF93D82FC8E08D2F41
:1013800080780E949109DD0FC150C9F72D98DF9137
:10139000CF910895CF93DF932D98D8E080E0C82FA8
:1013A000CC0F0E949D098C0FD150C9F7DF91CF91CE
:1013B00008950E94B7090E94CA095C9A0895A1E0A5
:1013C000B0E0E5EEF9E00C940B2F806869830E9491
:1013D000A5096981862F0E94BB095C9A2196E2E0EB
:1013E0000C94272FCF93C091BB05C827E82FF0E0BE
:1013F000EE54FA4F678589E70E94DF096C2F8DE371
:101400000E94DF096C2F82E40E94DF09CF910895CA
:1014100086E20E94D9090895CF93DF93EC016C8195
:101420008CE10E94DF096D818DE10E94DF096E81F0
:101430008EE10E94DF096F8180E20E94DF096885EA
:1014400081E20E94DF09698582E20E94DF096A85E4
:1014500083E20E94DF096B8584E20E94DF096C85CC
:1014600085E20E94DF096D858AE20E94DF096E85B0
:101470008EE60E94DF096F858FE60E94DF0968898A
:1014800080E70E94DF09698981E70E94DF096A8994
:1014900082E70E94DF09DF91CF910895CF92DF921A
:1014A000EF92FF92CF93DF936B017C01C11488E32D
:1014B000D8068CE9E8068CE1F80648F5C701B601C4
:1014C00020E836E948E950E00E94BA2EE901689721
:1014D00060E879E687E69FEF0E94822EDC01CB016F
:1014E0008C0D9D1DAE1DBF1DBC01CD0132E0660FF0
:1014F000771F881F991F3A95D1F721E732E040E026
:1015000050E00E94BA2EF22EE32E80E425C0C701DF
:10151000B60120E03DE241E351E00E94BA2EE9012C
:10152000689760E073ED8EEC9EEF0E94822EDC01E6
:10153000CB018C0D9D1DAE1DBF1DBC01CD01660FE5
:10154000771F881F991F21E732E040E050E00E949A
:10155000BA2EF22EE32E80E66C2F6F71680F85E7AE
:101560000E94DF096E2D86E70E94DF096F2D87E755
:101570000E94DF09DF91CF91FF90EF90DF90CF9035
:101580000895682F8DE60E94DF0908958F929F923B
:10159000AF92BF92CF92DF92EF92FF92CF93DF9301
:1015A000D82F83E00E94D9098093AD0584E00E9482
:1015B000D9098093AC0560E086E00E94DF0961E014
:1015C00087E00E94DF096FE789E00E94DF0965E09C
:1015D0008AE00E94DF0962E18BE00E94DF0965E199
:1015E0008CE00E94DF096DEF8DE00E94DF0960E072
:1015F0008EE00E94DF09DD2319F08BE291E008C044
:101600008091D90523E1829FC0011124825C9E4F05
:101610000E940C0A6CE880E30E94DF096FE082E31D
:101620000E94DF0962E483E30E94DF098091DA050A
:1016300087FD02C06AE001C064E184E30E94DF0923
:101640006AE285E30E94DF096DE286E30E94DF091A
:1016500064ED87E30E94DF0960E088E30E94DF0910
:1016600060E089E30E94DF09D11109C0C090BB0589
:10167000D090BC05E090BD05F090BE0507C025EAFE
:10168000C22E21ECD22EED2C2EEDF22ECAE38F2CA1
:101690009924AA24BB24682D8C2F0E94DF09682D71
:1016A00085E08C0F0E94DF09FE2CED2CDC2CCC2475
:1016B000CF5FCE3361F76FEF83E40E94DF096FEFF6
:1016C00084E40E94DF096FEF85E40E94DF096FEF79
:1016D00086E40E94DF09DD2311F066E002C060911C
:1016E000BF058DE60E94DF0960E089E70E94DF09FF
:1016F0006091C0058AE70E94DF0960E083E70E94ED
:10170000DF0960E084E70E94DF09D11109C0609120
:10171000B7057091B8058091B9059091BA0504C0DC
:1017200060EC72E98DEE99E10E944E0ADF91CF9153
:10173000FF90EF90DF90CF90BF90AF909F908F90F1
:10174000089561E087E00E94DF0964E28EE70E946D
:10175000DF0963E088E00E94DF0960E088E00E9422
:10176000DF0965E087E00E94DF0962E085E00E9412
:10177000DF0983E00E94D9098093AD0584E00E94CF
:10178000D9098093AC05089583E00E94D90980931C
:10179000AD0584E00E94D9098093AC0561E087E043
:1017A0000E94DF096AE070E080E090E00E94A429D6
:1017B0000E94A10B00000895CF92DF92FF920F9339
:1017C0001F93CF93DF931F92CDB7DEB7082F162F4D
:1017D0008EE399830E94DF09F02EC02E9981D92EC5
:1017E0008C2D8F19811738F4F60161916F018FE705
:1017F0000E94DF09F5CF64E085E00E94DF0983E005
:101800000E94D9098093AD0584E00E94D909809394
:10181000AC050E947F296093A8057093A905809369
:10182000AA059093AB0569E087E00E94DF0981E09B
:101830008093AF050F90DF91CF911F910F91FF9093
:10184000DF90CF9008950F931F930E94DC0B80913F
:10185000AF058130A9F40E947F290091A80510915D
:10186000A9052091AA053091AB05DC01CB01801BB5
:10187000910BA20BB30B803A9648A140B10538F307
:101880008091AF05813031F46EE971E08EE196E030
:101890000E946A2B1F910F9108950F931F938091BF
:1018A000AF05823021F41092AF0581E022C0809113
:1018B000AF058130E9F40E947F290091A8051091BD
:1018C000A9052091AA053091AB05DC01CB01801B55
:1018D000910BA20BB30B813A9648A140B10540F0A1
:1018E00061E087E00E94DF091092AF0582E001C04D
:1018F00080E01F910F910895CF93DF93EC014AE0B0
:1019000050E06D2F70E08EE196E00E94362C6EE282
:101910008EE196E00E943C2BBE0184E076956795AF
:101920008A95E1F76F7077274AE050E08EE196E004
:101930000E94362CDF91CF910895D82FC0E0CD17AB
:1019400091F05E9A409A64E670E080E090E00E9438
:10195000A4295E98409864E670E080E090E00E94E0
:10196000A429CF5FECCF6CE271E080E090E00E94B0
:10197000A429E4CF0F931F93CF93DF938C01D62F2D
:10198000C5E0C15051F0C8010E940331D81741F0A1
:101990006D2FC8010E940B31F4CF82E00E949D0C94
:1019A000DF91CF911F910F910895A0E0B0E0EBED92
:1019B000FCE00C94FD2E482E562E00E010E0612C29
:1019C000712CC12CD12CE12CF12C41100EC0609057
:1019D000100686E4689E3001112479E1C72ED12CCF
:1019E000E6EFEE2EE5E0FE2E22C091E0491211C096
:1019F0006090100686E4689E300111249BE1690E18
:101A0000711C59E2C52ED12C62EBE62E65E0F62E54
:101A10000EC082E048120BC028E1622E7724739436
:101A2000CC24C394D12C4FE0E42E46E0F42E4301A5
:101A3000800E911E1092B1051092B0053401C62D92
:101A4000C819D0E0C30101965C01CC15DD0590F406
:101A5000CE0DDF1D511005C0C3010E9403318883E4
:101A600004C06881C3010E94BA0C88810E9461068B
:101A70003501E5CFC301511018C0C3010E940331E5
:101A8000C82FC5010E9403312C2F30E0322F2227AE
:101A9000282B8091B0059091B1058217930779F4B6
:101AA00000E010E05524539490CF35016091B105CA
:101AB0000E94BA0C6091B005C5010E94BA0C005E8C
:101AC0001E4F013E92E0190708F47FCF852DCDB758
:101AD000DEB7E0E10C94192F61E082E00E94D50CA2
:101AE000089560E082E00E94D50C80910F06853059
:101AF00028F084E080930F060E946C0D80910F0601
:101B000080931006089561E080E00E94D50C61E0AA
:101B100081E00E94D50C089560E080E00E94D50C21
:101B2000882351F060E081E00E94D50C882321F0E9
:101B30008091B205893349F00E94C3060E947C0659
:101B400081E00E94E3060E94830D0895811103C085
:101B50006EEA71E002C06AEA71E08EE196E00E94EE
:101B60006A2B0895EF92FF921F93CF93DF9369EC56
:101B70007BE08EE196E00E94182B4091B7055091D2
:101B8000B8056091B9057091BA052AE030E08EE1A0
:101B900096E00E943D2C63EB7BE08EE196E00E9494
:101BA000182B4091BB055091BC056091BD0570910B
:101BB000BE0520E130E08EE196E00E943D2C6DE90B
:101BC0007BE08EE196E00E94182B4AE050E06091A5
:101BD000BF058EE196E00E94652C67E87BE08EE110
:101BE00096E00E94182B4AE050E06091C0058EE11B
:101BF00096E00E94652C61E77BE08EE196E00E9412
:101C0000182BC1ECD5E010E07E0188818823A1F07B
:101C1000112331F061EB71E08EE196E00E94392BE7
:101C200021964AE050E0F70160818EE196E00E9443
:101C30002E2C1F5F183141F78EE196E00E94442B55
:101C40006BE57BE08EE196E00E94182B4AE050E0C5
:101C50006091D9058EE196E00E94652C66E47BE0F8
:101C60008EE196E00E94182BE091DA05E770F0E033
:101C7000EE0FFF1FEE57FC4F608171818EE196E001
:101C80000E946A2B61E37BE08EE196E00E94182BB4
:101C90008091DA058871883069F028F4811113C0C9
:101CA00068E27BE00CC0803141F0883161F46CE087
:101CB0007BE005C06CE17BE002C066E17BE08EE189
:101CC00096E00E94582B68EF7AE08EE196E00E9441
:101CD000182B4091B3055091B4056091B5057091F2
:101CE000B6052AE030E08EE196E00E943D2C6FEDD3
:101CF0007AE08EE196E00E94182B8091FB058071BE
:101D00000E94A60D66EC7AE08EE196E00E94182B08
:101D10008091FB0580740E94A60D6DEA7AE08EE149
:101D200096E00E94182B8091FB0580720E94A60D00
:101D300060E97AE08EE196E00E94182B82EB95E054
:101D40000E941808AB01BC012AE030E08EE196E069
:101D50000E941F2C6BE87AE08EE196E00E94182B1F
:101D600082EB95E00E9418089B01AC0160E472E4EC
:101D70008FE090E00E94BA2EBA01A9012AE030E07B
:101D80008EE196E00E941F2C68E87AE08EE196E0F2
:101D90000E94582BDF91CF911F91FF90EF900895F3
:101DA0008F929F92AF92BF92CF92DF92EF92FF926B
:101DB000811107C06FE77AE08EE196E00E94582B10
:101DC0002FC090E00E947F0724E630E040E050E022
:101DD0000E94BA2ECA01B9012AE030E040E050E08A
:101DE0000E94BA2E49015A016B017C012AE030E0C1
:101DF000B501A4018EE196E00E941F2C6EE28EE1F7
:101E000096E00E943C2B2AE030E0B701A6018EE16B
:101E100096E00E941F2C63E78EE196E00E947C2BE7
:101E2000FF90EF90DF90CF90BF90AF909F908F90FA
:101E300008951F93CF93DF9365E77AE08EE196E0F4
:101E40000E94182B8091DB05813041F46CE57AE02B
:101E50008EE196E00E94582B10E050C0823019F4B9
:101E600065E47AE0F5CF843019F461E37AE0F0CFED
:101E7000853091F766E27AE0EBCFC12FD0E0C93030
:101E8000D1050CF441C068E3610F8EE196E00E9439
:101E90003C2B6EE17AE08EE196E00E94182BBE01A9
:101EA0006F5F7F4F4AE050E08EE196E00E94FE2B8C
:101EB00063E17AE08EE196E00E94182BC552DA4F7A
:101EC000E981E03218F566E07AE08EE196E00E9462
:101ED000182B8981803130F06DE673E08EE196E059
:101EE0000E94392B69816F7070E06F5F7F4F4AE00D
:101EF00050E08EE196E00E94072C1F5F80918405E0
:101F0000181708F4BACF0FC061E3BECFEF70F0E04E
:101F1000EE0FFF1FEE56FC4F608171818EE196E05F
:101F20000E946A2BEACF6BEE79E08EE196E00E9488
:101F3000182B8091F3050E94D00E60ED79E08EE1C0
:101F400096E00E94182B8091F4050E94D00E65EB5C
:101F500079E08EE196E00E94182B8091F5050E94B1
:101F6000D00E6AE979E08EE196E00E94182B40914C
:101F7000EB055091EC056091ED057091EE05411572
:101F800051056105710539F12AE030E08EE196E0F6
:101F90000E943D2C67E679E08EE196E00E94182BC6
:101FA0008091EF050E94A407AB01BC012AE030E05C
:101FB0008EE196E00E943D2C63E479E08EE196E0AC
:101FC0000E94182B4AE050E06091F0058EE196E007
:101FD0000E94652C06C06AE379E08EE196E00E94DB
:101FE000582B6DE179E08EE196E00E94182B60910C
:101FF000F1057091F2054AE050E08EE196E00E9412
:102000004F2C60E079E08EE196E00E94182B609101
:10201000EA05603450F470E06F5F7F4F4AE050E0B3
:102020008EE196E00E94072C06C067EF78E08EE113
:1020300096E00E94582B6AED78E08EE196E00E94CF
:10204000182B8091E90580FD03C067EB71E002C0A9
:1020500063EB71E08EE196E00E946A2B6DEB78E015
:102060008EE196E00E94182B8091E90582700E9413
:10207000A60D6EE978E08EE196E00E94182B809123
:10208000E90584700E94A60D6FE778E08EE196E086
:102090000E94182B8091E90588700E94A60DDF919F
:1020A000CF911F9108950F931F93CF93DF9380914A
:1020B00081058F3FA9F56FEF75E08EE196E00E94F4
:1020C000182B80E993E00E947C0C6EED75E08EE1A8
:1020D00096E00E94182B80918205909183050E94C2
:1020E0007C0C6BEA75E08EE196E00E94582B68E864
:1020F00075E08EE196E00E94582B60E775E08EE176
:1021000096E00E94582B6BE475E08EE196E00E9409
:10211000582B8EE196E00E94442B0E94190F68C054
:1021200018160CF065C0992787FD909520918405BD
:1021300030E0281739070CF45BC066E375E08EE1E8
:1021400096E00E94182B60918105772767FD7095B6
:102150004AE050E08EE196E00E94072C6BE075E0CB
:102160008EE196E00E94182B10E008E28091850530
:102170001817D0F5C12FD0E0CC0FDD1FCA57DA4FAA
:10218000288130E080918105992787FD90950197FE
:102190002817390739F56BEB71E08EE196E00E9464
:1021A000392B4AE050E0602F8EE196E00E942E2C01
:1021B0006FEB71E08EE196E00E94392BE981EF70C0
:1021C000F0E0EE0FFF1FEE56FC4F608171818EE153
:1021D00096E00E94392B63EC71E08EE196E00E945C
:1021E000392B0F5F1F5FC2CF8EE196E00E94442B18
:1021F000DF91CF911F910F910895CF92DF92EF92CF
:10220000FF921F93CF93DF93C1ECD5E010E07E01E6
:1022100088818823C9F165EC71E08EE196E00E9427
:10222000392B4AE050E0612F8EE196E00E942E2C7F
:1022300062ED71E08EE196E00E94392B2196F70164
:10224000208130E0A0E1B7E20E94602E9B01AC014A
:10225000A091C005B0E00E946F2EC090B705D0904D
:10226000B805E090B905F090BA05AB01BC014C0D82
:102270005D1D6E1D7F1D2AE030E08EE196E00E941C
:102280003D2C1F5F183119F6DF91CF911F91FF9000
:10229000EF90DF90CF90089510921B0585E6ECE15A
:1022A000F5E0DF011D928A95E9F70895CF93C82FD5
:1022B0008F3719F0883009F045C0E0911B05EE23F7
:1022C000D9F1E150E0931B05F0E0E45EFA4F108293
:1022D0006DE070E08EE196E00E945906C0E08091CA
:1022E0001B05C81760F4EC2FF0E0E45EFA4F608144
:1022F00070E08EE196E00E945906CF5FF0CF60E279
:1023000070E08EE196E00E9459066DE070E08EE18B
:1023100096E00E945906C0E080911B05C81778F529
:10232000EC2FF0E0E45EFA4F608170E08EE196E021
:102330000E945906CF5FF0CF67E08EE196E00E94E1
:102340003C2B1DC08B3119F40E944C111AC08D30EA
:10235000C1F08A30B1F080911B05843668F76C2F8C
:1023600070E08EE196E00E945906E0911B0581E045
:102370008E0F80931B05F0E0E45EFA4FC08380E08F
:1023800001C081E0CF910895CF93C82F0E947F298B
:1023900060930405709305058093060590930705E7
:1023A000C0931905C11105C040E855E260E070E036
:1023B00004C040E051EE60E070E08EE196E00E94E3
:1023C000942DCF91089590910805292F2F7030E01A
:1023D000B9016F5F7F4F492F50E0E4E05595479575
:1023E000EA95E1F76417750759F0F901E75FFA4FCD
:1023F000808381E0890F8F70907F982B90930805E0
:1024000008956EE770E08EE196E00E945906089507
:102410002F923F924F925F927F928F929F92AF92B4
:10242000BF92CF92DF92EF92FF920F931F93CF93C1
:10243000DF93CDB7DEB7C351D1400FB6F894DEBFFE
:102440000FBECDBF91ECC92E95E0D92EF601F12C2F
:102450008191882321F0F39428E1F212F9CF66EDFF
:1024600071E08EE196E00E946A2B4AE050E06F2D09
:102470008EE196E00E94652C80E00E94C60A0E94D0
:10248000A10B8E010E5F1F4F812C912C5401839460
:10249000EE24EA94782C0E9473291B012C012091D0
:1024A000C00530E0A0E1B7E20E94602E9B01AC01C4
:1024B000C501B4010E94822E2091B7053091B80564
:1024C0004091B9055091BA05DC01CB01820F931FF1
:1024D000A41FB51F2091F7053091F8054091F9052B
:1024E0005091FA05281739074A075B0718F4F801D5
:1024F000E0822BC0882D0E94F20961E070E080E04C
:1025000090E00E94A429F80110820E947329DC0146
:10251000CB0182199309A409B509843F9140A10513
:10252000B10540F40E94080AF8019081981768F7F5
:102530008083EBCF70FE05C05D9841985E9A409A0B
:1025400004C05D9A419A5E9840982FEF821A920AD1
:10255000A20AB20A0F5F1F4F8FEF88169104A104E1
:10256000B10409F097CF8E011395F801B02E5FEFFB
:1025700048EC8E2F801B8F15C8F5DE01129631E0D6
:102580008FEF21E09D91981710F4892F232F3F5F43
:102590003F3FC1F72193822F90E0A1E0B0E0AC0F64
:1025A000BD1FA80FB91F3C93213079F0DE01A80FA1
:1025B000B91F3C93223049F0AFEFBFEFAC0FBD1F06
:1025C000A80FB91F4C932E3FA0F6A2E0B0E0AC0FCD
:1025D000BD1FA80FB91F5C932D3F58F6A3E0B0E0D4
:1025E000AC0FBD1FA80FB91F4C93C3CF91E09F152F
:1025F000D8F4892F282F30E0F801E20FF31F408133
:10260000AFEFB0E0AC0FBD1FA20FB31F2C9142176C
:1026100048F48150D801A80FB11D2C9120834C9310
:102620008111E8CF9F5FE3CF9F2D969580E08917BA
:1026300070F4D801A80FB11D2C91382F390FF80173
:10264000E30FF11D30813C9320838E5FF0CF802F0C
:102650008B198F1598F4F801E1908F014AE050E052
:102660006E2D8EE196E00E942E2C6CE28EE196E0BB
:102670000E943C2BF601E1926F01E9CF8EE196E0DA
:102680000E94442B81E0CD5EDE4F0FB6F894DEBF92
:102690000FBECDBFDF91CF911F910F91FF90EF90B3
:1026A000DF90CF90BF90AF909F908F907F905F9082
:1026B0004F903F902F9008951F920F920FB60F9258
:1026C00011240F931F932F933F934F935F936F9317
:1026D0007F938F939F93AF93BF93CF93EF93FF938A
:1026E00000918600109187008091C3049091C404EA
:1026F0002091E504211163C09801281B390B8091BA
:10270000FB059091FC05A091FD05B091FE0585FDAE
:1027100002C036952795253C49E03407B8F1409131
:102720000A0150E060E070E0ECE1B695A79597955E
:102730008795EA95D1F70097A105B10521F481E0CD
:1027400090E0A0E0B0E084179507A607B707D8F49B
:1027500080910A018F3FB9F020E080910A0128178B
:1027600080F4822F90E0880F991FFC01EB53FB4F00
:1027700040815181FC01E55FFE4F518340832F5F13
:10278000ECCF1092E60410920A0119C02D3B82E0B2
:10279000380768F180910A01803148F5C0910A013B
:1027A00081E08C0F80930A01C9010E941909EC2F66
:1027B000F0E0EE0FFF1FEB53FB4F918380831093EC
:1027C000C4040093C304FF91EF91CF91BF91AF91E7
:1027D0009F918F917F916F915F914F913F912F9139
:1027E0001F910F910F900FBE0F901F9018958FEFB4
:1027F00080930A01E4CF83E0809380008AE980938C
:1028000081008091FB0586FD05C080918100806478
:10281000809381008FEF9FEF9093890080938800D1
:1028200080916F00806280936F0008950E94710D07
:1028300080911006843011F41092100608956F30C4
:1028400018F086958058089589E0689F802D11249E
:102850000895A0E0B0E0EFE2F4E10C94052FC82F5A
:102860000E947F29009138041091390420913A0484
:1028700030913B046B017C01C01AD10AE20AF30AD1
:102880009701860149E8C41643E1D406E104F10446
:1028900010F010923C0460933804709339048093D4
:1028A0003A0490933B042091E5048FEF820F82302D
:1028B00008F044C0E0913C04EE2309F468C1E13023
:1028C00011F482E0D2C1E031B0F581E08E0F809347
:1028D0003C04F0E0EB53FB4FC083803109F0C7C1EB
:1028E000A5ECB4E037E0213049F41396EC9113974E
:1028F000E695E69512968C9112970AC012968D91E4
:102900009C911397E92FE695E695E6959695879520
:10291000E03140F4F0E090E0EE0FFF1FE55FFE4F86
:10292000918380831092E604315012963111DBCFEF
:102930009EC1E831C9F010923C0499C1233009F0DE
:1029400016C1E0913C04E11104C0CF3009F08FC101
:102950001EC1E83170F781E08E0F80933C04F0E0F7
:10296000EC53FB4FC08383C1C111E5CF40E050E081
:102970001BE0F12ECA01E3E0880F991FEA95E1F709
:10298000F49E9001F59E300D1124F901EB53FB4F9D
:102990006081E1817E2F777075956795FC01EE0F60
:1029A000FF1FE55FFE4F71836083FC013196890153
:1029B0000A531B4FD801CC91BC2FB695B695B6954E
:1029C000E801A981DA2FD295DD0FD07E6D2F6B2B18
:1029D000A695A695A6957A2F777075956795EE0FB3
:1029E000FF1FE55FFE4F71836083FC013296890112
:1029F00009531B4FE801B881B295B695B695B370EF
:102A0000A981DA2FDD0FDD0F6D2F6B2BBA2FB29559
:102A1000B695B695B370E801AA81A170AA0FAA0F66
:102A20007A2F7B2B75956795EE0FFF1FE55FFE4FA5
:102A300071836083FC013396890107531B4FE801C2
:102A4000B881B695A981DA2FD795DD27D7956D2F57
:102A50006B2BA6957A2F777075956795EE0FFF1FF4
:102A6000E55FFE4F71836083FC0134968901065354
:102A70001B4FE801B881B295BF70A981DA2FD295BA
:102A8000D07F6D2F6B2BA295AF707A2F77707595D5
:102A90006795EE0FFF1FE55FFE4F71836083FC01BA
:102AA0003596890105531B4FE801B881BB1FBB2731
:102AB000BB1FA981DA2FDD0F6D2F6B2BBA2FBB1F28
:102AC000BB27BB1FE801AA81A370AA0F7A2F7B2B1B
:102AD00075956795EE0FFF1FE55FFE4F718360836D
:102AE000FC013696890103531B4FE801B881B69566
:102AF000B695A981DA2FD295DD0FDD0FD07C6D2F31
:102B00006B2BA695A6957A2F777075956795EE0F26
:102B1000FF1FE55FFE4F71836083FC013796D9018B
:102B2000A253BB4F2C9122952695277011963C916C
:102B3000632F660F660F660F862F822B932F929559
:102B40009695977095958795EE0FFF1FE55FFE4F61
:102B5000918380834130510519F041E050E00ACF64
:102B60008091DB0483FDE7CE1092E604E4CE2430AE
:102B700009F07DC020913C0421110BC0C83AB1F48A
:102B80001092B1051092B00588EA0E94610681E0BA
:102B90006CC0213019F4C093370404C0223031F4E2
:102BA000C09336048C2F0E9461065AC0609136048F
:102BB000862F90E0880F991F422F50E0FC0132963B
:102BC000E417F5073CF0233268F7FA01EE53FB4FA8
:102BD000C083E8CF9C012D5F3F4F8C2F90E0E091A8
:102BE000B005F091B1054217530749F4982F882793
:102BF0008E279F279093B1058093B00531C0E817C9
:102C0000F90761F580913704813041F5613118F0A1
:102C100080E180933604F090360405EC14E0C0E0C7
:102C2000D0E0CF15C8F4F801808190E0982F882774
:102C30002181822B33E0969587953A95E1F70E94A2
:102C40001909FE01EE0FFF1FE55FFE4F91838083A0
:102C500021960E5F1F4FE5CF1092E60410923C04C0
:102C600080913C04882319F08F5F80933C04CDB79A
:102C7000DEB7E8E00C94212FE82FF0E0EA50FA4F9D
:102C8000E185E03150F4F894F0E0EE0FFF1FE55FCE
:102C9000FE4F80819181789408958EE08E0F8B3065
:102CA00060F42E2F30E0225F310944E6429FC001DC
:102CB000439F900D11240C960895E03F81F030F46D
:102CC000E03181F0E131C1F483E10DC0ED3F71F0FD
:102CD000EE3F79F0E13F81F486E090E0089580E0F6
:102CE00090E0089582E10E94C32A08958AEF93E05C
:102CF00008958FEF93E0089580E092E00895A3E3B4
:102D0000B0E0E5E8F6E10C94FB2ECE0101967C01E3
:102D100080E1D7011D928A95E9F764E072E08EE1C7
:102D200096E00E946A2B0E94C40B1D8E1E8E1F8E81
:102D300018A2212C312C10E0412C512C320120E41E
:102D400031EE4DE958E100E5B3ECB9A71AA61BA690
:102D5000E4EFEDA3F1E0FEA31FA218A680EC8CA780
:102D600091ED9DA7A8E9AEA7BBE1BFA7E0E4E9A369
:102D7000F1EEFAA38DE98BA398E19CA3298F3A8FFA
:102D80004B8F5C8FC02ED9A4EAA4FBA49DA19D8B80
:102D9000AEA1AE8BBFA1BF8BE8A5E88FFCA5F98BD8
:102DA0008DA58A8B9EA59B8BAFA5AC8B89A09AA085
:102DB000ABA0BCA08EE196E00E947C2C892B09F48C
:102DC000E4C08EE196E00E94A82C9C0133272C32AF
:102DD000310509F442C0ACF42332310509F0ACC02E
:102DE00019821A821B821C821D821E821F821886F3
:102DF00019861A861B861C861D861E861F86188AC3
:102E000099C02434310529F02335310509F4B5C0C2
:102E100093C064E48EE196E00E943C2B2AE030E00F
:102E200040E451EE6DE978E18EE196E00E94C72B17
:102E30006CE28EE196E00E943C2B2AE030E040EC10
:102E400051ED68E97BE18EE196E00E94C72B6CE2D0
:102E50008EE196E00E947C2BADCF1F5F143009F00D
:102E6000A9CF29813A814B815C81A8EEB3E00E9411
:102E70006F2E4B015C012D813E814F8158850E9450
:102E80006F2E698B7A8B8B8B9C8BC984DA84EB8455
:102E9000FC84CD8ADE8AEF8AF88E2D853E854F85AB
:102EA00058890E946F2E6B017C0180E2C8168EE467
:102EB000D806E104F10410F462E339C090E3C916C6
:102EC00095E7D906E104F10410F462E230C0A0E411
:102ED000CA16ACE9DA06E104F10410F466E227C090
:102EE000B0E5CB16B3ECDB06E104F10410F462E1CB
:102EF0001EC0E0E6CE16EAEEDE06E104F10410F4B0
:102F000065E115C0F0E7CF16F1E1DF06F1E0EF066D
:102F1000F10410F461E00BC080EAC81686E8D80618
:102F200081E0E806F10410F463E001C065E08CE1A3
:102F30000E94DF0910E03ECF00ED080F0A3008F0D4
:102F400039CFE1E0F0E0EC0FFD1F94E0199FE00DB8
:102F5000F11D11242081318142815381AAE0B0E02A
:102F60000E946F2EDC01CB01800F911DA11DB11DB0
:102F700080839183A283B3831DCF898E9A8EAB8E7B
:102F8000BC8E412C512C320115CF298D3A8D4B8DA1
:102F90005C8D0C2DD9A6EAA6FBA6AD89ADA3BE8992
:102FA000BEA3EF89EFA3F88DF8A789898CA79A892A
:102FB0009DA7AB89AEA7BC89BFA789A29AA2ABA2E5
:102FC000BCA24114510461047104C9F4CA01B901DD
:102FD00028AB39AB4AAB5BAB0E944E0A61E070E0B4
:102FE00080E090E00E94A4291D8E1E8E1F8E18A2E4
:102FF000212C33243A945BA94AA939A928A98D899F
:103000009E89AF89B88D481659066A067B0610F569
:1030100028AB39AB4AAB5BAB0E94080ACD8CDE8C87
:10302000EF8CF8A0C80ED11CE11CF11CCD8EDE8EF9
:10303000EF8EF8A228A939A94AA95BA9281608F495
:10304000282E831508F4382E8FEF481A580A680A7C
:10305000780A5AC0698D7A8D8B8D9C8D28EE33E06D
:1030600040E050E00E94BA2EBA01A9012AE030E007
:103070008EE196E00E941F2C6CE28EE196E00E94A9
:103080003C2B4AE050E0622D8EE196E00E942E2C0F
:103090006CE28EE196E00E943C2B6D8D7E8D8F8DD3
:1030A00098A1A30192010E94BA2EBA01A9012AE0B7
:1030B00030E08EE196E00E941F2C6CE28EE196E0FB
:1030C0000E943C2B4AE050E0632D8EE196E00E9486
:1030D0002E2C6CE28EE196E00E947C2B298D3A8D9D
:1030E0004B8D5C8D2C0D3D1D4E1D5F1DC988DA88F2
:1030F000EB88FC88C216D306E406F50610F4A50199
:103100009401412C512C320188EE881683E09806F8
:10311000A104B10409F032CEE396E2E10C94172F3A
:10312000ACE1B0E0E6E9F8E10C94052F0E947F29BC
:103130006B017C0181E00E94C60A14E703E0198359
:1031400061E0CE0101960E94230C0093AF050E941E
:10315000A10B6AEF70E080E090E00E94A4298091CA
:10316000AF05833099F48EE196E00E947C2C892B88
:1031700069F40E947F29DC01CB018C199D09AE09FD
:10318000BF098038934CA94CB140C8F28091AF057B
:10319000833009F44FC08FE70E94B7090E94CA0923
:1031A0008983843511F083E05DC00E94CA091092C2
:1031B0008205809383050E94CA092091820530917F
:1031C0008305280F311D30938305209382050E94CB
:1031D000CA09809384050E94CA09809385058131BC
:1031E00010F7F12C0F2D10E08091850590E0880FED
:1031F000991F0817190740F40E94CA09F801EA57F5
:10320000FA4F8083F394EECF80E7898361E0CE01AB
:1032100001960E94230C83E08093AF050E94A10BCE
:1032200062E370E080E090E00E94A4298091AF0505
:10323000833011F482E016C08FE70E94B7090E9424
:10324000CA098983803509F0AECF0BED15E08BE11B
:10325000F82EF00E0E94CA09F80181938F01FE1228
:10326000F9CF81E06C96E8E00C94212FE091810584
:103270008E2F992787FD9095A92FB92FFC013196A4
:10328000EB30F10508F066C0EC5CFF4F0C94322F78
:1032900062E778E08EE196E00E94582B80E993E0A7
:1032A0000E947C0C6AE578E08EE196E00E94582B43
:1032B00065E378E08EE196E00E94582B6BE078E0C1
:1032C0008EE196E00E94582B6AEE77E08EE196E060
:1032D0000E94582B6DEB77E08EE196E00E94582B10
:1032E00067E977E08EE196E00E94582B63E777E08C
:1032F0008EE196E00E94582B6CE477E08EE196E038
:103300000E94582B8EE196E00E94442B0E94B20D41
:1033100021C06FE277E01AC06AE077E017C065EF7E
:1033200076E014C066ED76E011C062E976E00EC08A
:103330006DE776E00BC068E676E08EE196E00E94ED
:10334000582B62E276E002C06CE076E08EE196E017
:103350000E94582B6AE070E080E090E00E94A4296F
:103360008EE196E00E947C2C892B29F08EE196E07C
:103370000E94A82CF5CF0895ACE1B0E0E2ECF9E1B1
:103380000C94052F909181059F3F09F023C1482F90
:1033900050E0FA013A97EF36F10508F00FC1E15C11
:1033A000FF4F0C94322F61E172E0A0C06DE172E03A
:1033B0008EE196E00E946A2B85E789838BE1EBED35
:1033C000F5E0DE01129601900D928A95E1F76CE12D
:1033D000CE0101960E94230C0E94A10B83E08093F2
:1033E000AF0568EC70E080E090E00E94A429809135
:1033F000AF05843009F0E2C08FE70E94B7090E9450
:10340000CA098983853509F0D9C06DEE74E08EE173
:1034100096E00E94582B6FEC74E08EE196E00E94DB
:10342000582B61EB74E096C065E372E08EE196E0A4
:103430000E946A2B89E6898361E0CE0101960E9491
:10344000230C0E94A10B83E08093AF0568EC70E031
:1034500080E090E00E94A4298091AF05843009F0BB
:10346000ADC08FE70E94B7090E94CA0989838E0107
:103470000E5F1F4F7E014DE1E40EF11C0E94CA0950
:10348000F80181938F01EE15FF05C1F78BE1FE0175
:103490003296ABEDB5E001900D928A95E1F7898106
:1034A000893409F08BC063E974E08EE196E00E94F4
:1034B000582B65E774E08EE196E00E94582B67E593
:1034C00074E048C06FE472E08EE196E00E946A2BDF
:1034D0008EEF8093810572C0805287508053909107
:1034E0008405981708F066C06EE572E08EE196E0FC
:1034F0000E946A2B63C084E18093810560E274E0DE
:1035000029C085E18093810569EE73E023C086E1DF
:103510008093810562EB73E01DC087E18093810594
:1035200068E673E017C088E18093810567E573E082
:1035300011C089E18093810563E473E00BC08AE1E7
:10354000809381056EE273E005C08BE18093810575
:1035500066E073E08EE196E00E94582B2FC06CEE7F
:1035600072E08EE196E00E94582B9091E90581E08F
:103570001DC066ED72E08EE196E00E94582B90919E
:10358000E90582E013C061EC72E08EE196E00E94F2
:10359000582B9091E90584E009C066EA72E08EE15B
:1035A00096E00E94582B9091E90588E08927809346
:1035B000E9058FEF809381050E9453108EE196E01C
:1035C0000E947C2C892B09F459C18EE196E00E945F
:1035D000A82CF4CF0E945611882309F44FC1809182
:1035E0001B05811104C08FEF8093810536C140E037
:1035F00050E060E070E08CE195E00E94952F4091F2
:103600008105042F112707FD1095212F312FF80177
:103610003197EB31F10508F010C1E255FF4F0C94E2
:10362000322F242F332727FD30954091840550E019
:10363000421753070CF401C16B017C01F1E0CF1A72
:10364000D108E108F10840E2C416D104E104F10414
:1036500050F000918505E6E8F5E040E010E058E222
:10366000215031090DC0F901E552FA4F61506083D4
:10367000CCC0A081B0E0A217B30729F04F5F32960B
:103680004013F7CFC0C0C52ED12CE12CF12CC616AB
:10369000D706E806F90639F41181D901A552BA4FC7
:1036A00011961C9311E05F5FE9CF6F3F71058105B3
:1036B000910511F008F0C1C06093F305A6C06F3FFB
:1036C00071058105910511F008F0B7C06093F4050C
:1036D0009CC06F3F71058105910511F008F0ADC0E8
:1036E0006093F50592C020911C0520622037E9F413
:1036F00040E050E060E070E08DE195E00E94952FA1
:103700009B01AC01DC01CB010197A109B10908972C
:10371000A105B10508F0A4C0A4EDB0E30E946F2E8E
:103720006A5E7C4A8A46954E24C02636E9F440E01B
:1037300050E060E070E08DE195E00E94952F9B01E4
:10374000AC01DC01CB010197A109B1090797A105E3
:10375000B10508F085C0A8EAB1E60E946F2E645E4C
:103760007C438E46944E05C0611571058105910517
:1037700079F08B019C010054114E2D4938410138DC
:10378000E0EF1E07EAEF2E07E2E03E0708F055C023
:103790006093EB057093EC058093ED059093EE0537
:1037A00034C06F3F71058105910511F008F045C0E7
:1037B0006093EF052AC08B019C010150110921097A
:1037C00031090F3F110521053105B8F56093F0056A
:1037D0001CC08B019C01045C1940210931090D3486
:1037E000FDE11F072105310528F47093F205609370
:1037F000F1050BC06115710581059105B1F58FEFDC
:103800008093EA0502C01123C1F080911A0581114D
:103810001AC08091BB059091BC05A091BD05B091E7
:10382000BE050196A11DB11D8093BB059093BC05FB
:10383000A093BD05B093BE0506C060E772E08EE1BF
:1038400096E00E946A2B0E944C118FEF80938105B5
:103850006AE08EE196E00E947C2B0E9453100EC01D
:1038600061E070E080E090E084CF61347105810513
:10387000910518F761506093EA05C7CF6C96E8E0B0
:103880000C94212F6AE572E08EE196E00E94582B9D
:1038900062E472E08EE196E00E94582B8EE196E0A1
:1038A0000E947C2C892B31F08EE196E00E94A82C9E
:1038B0000E94BC190E949018823029F0833051F484
:1038C0006DE072E002C064E272E08EE196E00E9478
:1038D000582B08958FEF8093810510921A050E944E
:1038E0005310809181058E3F69F08EE196E00E9431
:1038F0007C2C892BB1F38EE196E00E94A82C0E94CB
:10390000BC19EFCF08950F931F93109181051F3FAE
:1039100009F0D2C0893409F457C000F5883309F49E
:1039200069C058F4803309F477C008F061C08B3166
:1039300009F440C08132B1F1B9C0813409F487C0C3
:1039400030F4893309F466C0803461F1AFC0823449
:1039500009F48EC0863409F448C0A8C0823609F440
:1039600087C078F4883531F128F48235C1F1833588
:10397000E1F09CC08A3509F494C0813609F467C02F
:1039800095C0823761F128F4863679F18936E1F005
:103990008DC0883779F08A3709F483C0833709F0FE
:1039A00085C003C061E172E015C00E94830D6EE81E
:1039B00072E004C00E948C0D68EA72E08EE196E02D
:1039C0000E946A2B8EEF70C00E947C060E94C30684
:1039D00067EC72E08EE196E00E946A2B67C081E09E
:1039E0000E94E30660EE72E0F5CF0E94FD105EC01B
:1039F00080535AC06AEF71E08EE196E00E94582B26
:103A00008091DA0598E0980F9871877E892B8093D2
:103A1000DA051AC089E048C067EE71E08EE196E0F1
:103A20000E94582B8091FB059091FC05A091FD050B
:103A3000B091FE0520E182278093FB059093FC0561
:103A4000A093FD05B093FE05109381052FC061ED95
:103A500071E08EE196E00E94582B8091FB059091D9
:103A6000FC05A091FD05B091FE0540E4842710C03F
:103A700060EC71E08EE196E00E94582B8091FB058E
:103A80009091FC05A091FD05B091FE0520E28227F2
:103A90008093FB059093FC05A093FD05B093FE0574
:103AA00002C00E94421C8FEF8093810580918105A6
:103AB0008E3F09F0D5C0DEC00E945611882309F45C
:103AC000D9C080911B05811104C08FEF80938105BF
:103AD000C7C040E050E060E070E08CE195E00E94FB
:103AE000952FE09181050E2F112707FD1095212FAD
:103AF000312FF8013197E930F10508F0B4C0E753F0
:103B0000FF4F0C94322F8B019C010154114E2D4913
:103B100038410F37104F2A4F324008F0A4C060934D
:103B2000B7057093B8058093B9059093BA0577C02F
:103B30006093BB057093BC058093BD059093BE0553
:103B400081E080931A056BC068307105810591058D
:103B500008F089C06093BF0562C08B019C010150D1
:103B60001109210931090A3011052105310508F033
:103B70007AC06093C00553C061EB71E08CE195E0C1
:103B80000E94CF3010E0009799F00E94A930009772
:103B900079F0183130F4E12FF0E0EE54FA4F8787D6
:103BA0001F5F61EB71E080E090E00E94CF30EBCFCF
:103BB0001831A8F5E12FF0E0EE54FA4F17861F5F99
:103BC000F7CF653071058105910508F04CC0609311
:103BD000D90525C08B019C0101501109210931092A
:103BE0000630110521053105F0F52091DA05287F11
:103BF000622B6093DA0513C08B019C0101501109FF
:103C0000210931090115124C2140310560F56093FD
:103C1000B3057093B4058093B5059093B605809174
:103C20001A05811113C08091BB059091BC05A0912C
:103C3000BD05B091BE050196A11DB11D8093BB05C8
:103C40009093BC05A093BD05B093BE050E944C1196
:103C50008FEF809381056AE08EE196E00E947C2BD5
:103C60000E94361907C060E772E08EE196E00E947C
:103C70006A2BECCF1F910F9108958FEF80938105F0
:103C800010921A050E943619809181058E3F69F0C5
:103C90008EE196E00E947C2C892BB1F38EE196E0B8
:103CA0000E94A82C0E94831CEFCF6AE070E080E0A5
:103CB00090E00E94A4298EE196E00E947C2C892B42
:103CC00029F08EE196E00E94A82CF5CF0895CF93BD
:103CD000C82F682F8EE196E00E94D32C8091A60514
:103CE000C827C093A605CF910895A1E0B0E0EBE707
:103CF000FEE10C940B2F99830E94671E9981892FF6
:103D00000E94671E2196E2E00C94272F1F93CF9309
:103D1000DF93182FEB011092A60565EB70E08EE1A2
:103D200096E00E94590662E670E08EE196E00E94FD
:103D30005906812F0E94671ECE010E94751EDF91D9
:103D4000CF911F9108956091A6058EE196E00E94A3
:103D5000D32C0895A1E2B0E0E0EBFEE10C94072F34
:103D60007B018A018C3009F452C108F040C08630D2
:103D700009F4BCC018F5833009F491C070F48130A7
:103D800009F472C0823009F047C26BE170E082E052
:103D90000E94861E0BED15E078C0843009F487C0C0
:103DA000853009F039C26091850570E0660F771F94
:103DB00085E00E94861E06E815E086C0893009F479
:103DC000A7C070F4873009F49BC0883009F024C282
:103DD00061E070E088E00E94861E8091100622C299
:103DE0008A3009F4CAC08B3009F4F1C015C28A3692
:103DF00009F474C1D8F4873609F439C138F485362A
:103E000009F40DC1863609F41EC106C2883609F4CC
:103E100036C1893609F000C261E070E089E60E948F
:103E2000861E0E947C060E94C306F4C18D3609F4EA
:103E3000D3C138F48B3609F490C18C3609F499C19A
:103E4000EBC18E3609F4DBC1873C09F0E5C161E0C6
:103E500070E087EC0E94861E81E00E94671E0E942F
:103E6000A31E1092A705E2C169E270E081E00E9402
:103E7000861E02EB15E0F80181918F010E94671EFA
:103E8000F5E00B3D1F07B9F7CFC1F80181918F0114
:103E90000E94671EF5E0063F1F07B9F7C5C161E044
:103EA00070E083E00E94861E0E949018BBC161E012
:103EB00070E084E00E94861E81E00E94671E0E94DE
:103EC000A31E0E947F16B2C18091850590E0880FE5
:103ED000991F9801265835402817390708F0A4C1C2
:103EE000F80181918F010E94671EEECF62E070E0C1
:103EF00086E00E94861E80E993E00E94751E94C1B0
:103F000061E070E087E00E94861E809184058AC18E
:103F100086E6898361E0CE0101960E94230C0E940F
:103F2000A10B83E08093AF0568EC70E080E090E047
:103F30000E94A4298091AF058430D9F48FE70E94B4
:103F4000B7090E94CA098983863469F460E270E087
:103F500089E00E94861E10E20E94CA090E94671E24
:103F60001150D1F761C161E070E089E00E94861EC6
:103F700051C161E070E089E052C169E170E08AE01E
:103F80000E94861E1092F6052091AE058091FB05D9
:103F90009091FC05A091FD05B091FE05222311F042
:103FA000806801C08F778093FB059093FC05A093F8
:103FB000FD05B093FE0506EF15E0F80181918F0134
:103FC0000E94671EF6E00F301F07B9F72DC161E2AE
:103FD00070E08BE00E94861E8091E6048F3F39F0EE
:103FE0008091E60491E0980F9093E60402C08091DE
:103FF000E6040E94671E10E0812F0E943C160E947A
:1040000045090E94751E1F5F1031B1F70DC161E0B7
:1040100070E08CE00E94861E80910F0603C161E073
:1040200070E085E60E94861E89E2E816F10409F038
:10403000F8C0F801A2EBB5E081918D9385E0AB3D2E
:10404000B807D1F7E7C061E070E086E60E94861EFF
:10405000EBE1EE16F10409F0E4C0F801ABEDB5E0D8
:1040600081918D9385E0A63FB807D1F7D3C061E079
:1040700070E087E60E94861E0E94830DCBC061E03F
:1040800070E088E60E94861E85E789838BE1EBED70
:10409000F5E0DE01129601900D928A95E1F76CE150
:1040A000CE0101960E94230C0E94A10B83E0809315
:1040B000AF0560E273E080E090E00E94A429809167
:1040C000AF05843009F0ADC08FE70E94B7090E94A8
:1040D000CA098983853509F0A4C09CC061E070E0FD
:1040E0008AE60E94861E89E6898361E0CE010196F8
:1040F0000E94230C0E94A10B83E08093AF0560E235
:1041000073E080E090E00E94A4298091AF058430A4
:1041100009F087C08FE70E94B7090E94CA09898306
:104120008E010E5F1F4F7E01EDE1EE0EF11C0E942D
:10413000CA09F80181938F01EE15FF05C1F78BE1E4
:10414000FE013296ABEDB5E001900D928A95E1F754
:104150008981893409F065C05DC061E070E08BE65B
:104160000E94861EF8018081809310060E948C0DAB
:1041700051C061E070E08CE60E94861EF0E2EF160E
:10418000F10461F487E6898380E2F801DE0112968A
:1041900001900D928A95E1F761E203C087E489837B
:1041A00061E0CE0101960E94230C0E94A10B83E0E6
:1041B0008093AF056CE474E080E090E00E94A42955
:1041C0008091AF05843069F58FE70E94B7090E949E
:1041D000CA09873431F51EC061E070E08DE60E94A7
:1041E000861E89E1E816F104E1F4F801A6EFB5E0D6
:1041F00081918D9386E0AF30B807D1F70BC061E0B5
:1042000070E08EE60E94861EF801808180930F0682
:104210000E946C0D81E006C061E070E08AEC0E94B3
:10422000861E80E00E94671E0E94A31EA196E6E003
:104230000C94232FA0E0B0E0E0E2F1E20C94052F13
:10424000CAECD3E014E606E035E0F32E44E0E42EB9
:1042500053E0D52E62E0C62E8EE196E00E947C2CC3
:10426000892B09F49CC08EE196E00E94A82C282F8F
:1042700080933504E09134044E2F50E047305105CF
:1042800058F7FA01EE52FF4F0C94322F853B21F77D
:1042900081E080933404E0CF823609F07DC0C09283
:1042A0003404DACF8093330480933204D092340400
:1042B000D3CF9C0133273093310420933004909165
:1042C0003204892780933204E0923404C5CF582FFA
:1042D00044272091300430913104242B352B309326
:1042E0003104209330049091320489278093320462
:1042F000F09234042536310508F4AECF61E070E069
:104300008CEC0E94861E81E00E94671E0E94A31E04
:1043100043C020912E0430912F04F901E653FC4F45
:10432000808390913204892780933204C9010196D9
:1043300090932F0480932E04209130043091310407
:104340008217930708F488CF0093340485CF8091B7
:10435000320482130BC060912E0470912F044AEC3A
:1043600053E0809133040E94AA1E0DC062E070E009
:104370008BEC0E94861E809133040E94671E809100
:10438000A6050E94671EFE01812F11928A95E9F70A
:1043900010922F0410922E04109234045DCFCDB7EA
:1043A000DEB7E8E00C94212F81E08093A70580918F
:1043B000A705882349F08EE196E00E947C2C892B8A
:1043C000B1F30E941A21F3CF0895AAE2B0E0EBEE18
:1043D000F1E20C94032F0E9473296B017C0181E0B0
:1043E0000E94C60A8EE196E00E947C2C892B29F05F
:1043F0008EE196E00E94A82CF5CF5E98409811E0DF
:1044000082E6B82E99E2A92E03E00E947329DC010E
:10441000CB018C199D09AE09BF09893C9105A10505
:10442000B105E0F11123D1F10E9473296B017C01E8
:104430005D9A419A80ED97E00E94B307B982E2EB62
:10444000F5E0DE0112968A2D01900D928A95E1F732
:104450006AE2CE0101960E94230C5D98419880E0AB
:1044600090E00E94B3070093AF050E94A10B62E3A6
:1044700070E080E090E00E94A4298091AF05843034
:1044800061F40093AF058FE70E94B7090E94CA0943
:1044900011E0823419F410E001C011E083E10E94C0
:1044A0009A2A892BA1F411E012C05E9A409A5D9A73
:1044B000419A8EE196E00E94A82C8D309105B9F0CA
:1044C0006CF40A97A1F05E9840985D9841988EE14F
:1044D00096E00E947C2C892B41F797CF833291057F
:1044E00079F08234910579F70E94D421ECCF62EB08
:1044F00071E08EE196E00E94582B0E943D1EE3CFB2
:104500000E947F16E0CF8F929F92AF92BF92CF9280
:10451000DF92EF92FF921F93CF93DF9383E10E948C
:104520009A2A892B09F08BC068EC70E080E090E05B
:104530000E94A42980E090E00E94B3070E947329A2
:104540006B017C014B015C0180EC880E82E1981EBE
:10455000A11CB11C0E947329681579058A059B0569
:1045600030F483E10E949A2A892BA1F366C083E18B
:104570000E949A2A892B09F060C080ED97E00E9482
:10458000B3070E9473294B015C01D0E0C1E088E4CD
:10459000C80E86E2D81EE11CF11C11E083E10E94E6
:1045A0009A2A892B31F5C814D904EA04FB0430F4A3
:1045B00080ED97E00E94B307D1E0F0CF0E9473290D
:1045C000DC01CB0188199909AA09BB09893C91052D
:1045D000A105B10518F30E9473294B015C01C127A5
:1045E00019F080ED97E002C080E090E00E94B307F0
:1045F000D5CF80E090E00E94B307DD23B9F0809131
:104600000F0690E0019665E070E00E94A62E809370
:104610000F060E946C0D0E9416140E948C0D64EF10
:1046200071E080E090E00E94A42909C080E00E942F
:10463000E3060E9408120E94830D0E94E521DF918B
:10464000CF911F91FF90EF90DF90CF90BF90AF90F0
:104650009F908F900895CF92DF92EF92FF92CF9329
:1046600080E00E94E5070E94BC0761E086E00E94AE
:104670002E2A61E085E00E942E2A61E08EE00E94F1
:104680002E2A61E08FE00E942E2A60E083E10E94E2
:104690002E2A60E088E00E942E2A61E088E00E94D5
:1046A0006A2A0E94AA0740E052EC61E070E08EE1C5
:1046B00096E00E94942D0E9416140E948C0D0E9478
:1046C000FB138FEF8093E6040E94D10778940E9439
:1046D00073296B017C018091E6048F3F69F40E948D
:1046E0007329DC01CB018C199D09AE09BF09803DFE
:1046F0009740A105B10578F380ED97E00E94B307DC
:1047000061E083E10E946A2A5E9A409A8EE196E017
:104710000E947C2C892B29F08EE196E00E94A82C27
:10472000F5CF6DEF72E08EE196E00E94392B80E9C3
:1047300093E00E947C0C64E173E08EE196E00E94BD
:10474000392B4AE050E067E070E08EE196E00E948D
:10475000072C62E370E080E090E00E94A4298EE1E3
:1047600096E00E947C2C04970CF18EE196E00E946A
:10477000A82C82349105D1F48EE196E00E94A82CF9
:104780008E34910599F48EE196E00E94A82C843431
:10479000910561F48EE196E00E94A82C819731F496
:1047A00080E090E00E94B3070E94E5214091B305AC
:1047B0005091B4056091B5057091B605DB01CA0151
:1047C0000197A109B1090497A105B10580F44093AF
:1047D000E504433051056105710529F040E052ECD4
:1047E00061E070E004C040EA56E861E070E08EE10C
:1047F00096E00E94942D0E9483225E98409880E06B
:1048000090E00E94B3070E94FB1310920105809173
:10481000FB0583FF11C08091C705882351F080916B
:10482000CE05882331F08091D505882311F087E0EB
:1048300001C085E08093010580E00E94C60A809156
:1048400002050E94F2090E94A10B10923F041092EF
:104850003E0410923D04C0E0809110068C17B0F029
:1048600062E370E080E090E00E94A42980ED97E090
:104870000E94B30762E370E080E090E00E94A42908
:1048800080E090E00E94B307CF5FE6CF8091DA0529
:1048900084FF08C0982F987181E0983109F080E07A
:1048A0000E94C4118FE00E94E507CF91FF90EF9026
:1048B000DF90CF900895A0E0B0E0E1E6F4E20C9440
:1048C000062F8C016EE770E08EE196E00E9459069B
:1048D000E801075F1F4F80E2D82E7E0188818D5747
:1048E000823048F46DE770E08EE196E00E94590650
:1048F00088818D2588832196F70160818EE196E07D
:104900000E94D32CC017D10741F76EE770E08EE10B
:1049100096E00E945906CDB7DEB7E7E00C94222F4F
:10492000A9E0B0E0E6E9F4E20C940B2F90910305C6
:1049300091110EC09EEF99838A836B8350E0559549
:1049400047954C832D83198618861F821E822EC0A0
:1049500080910805482F50E064E0559547956A9589
:10496000E1F7282F2F7030E04217530719F19DEF20
:1049700099831B82FE01349690E0282F30E044E0BA
:10498000359527954A95E1F7482F4F7050E0241749
:10499000350749F0D901A75FBA4F2C912193805F69
:1049A0009F5F963051F7809308059A83CE01019658
:1049B0000E945B248091030590E0019666E070E020
:1049C0000E94A62E809303052996E2E00C94272FDF
:1049D000A0E0B0E0EEEEF4E20C94042F6C016EE780
:1049E00070E08EE196E00E945906760100E010E04A
:1049F000C0E0D0E090E2B92EF701608183E8860F35
:104A0000823078F46DE770E08EE196E00E945906FE
:104A1000F70160816B2570E08EE196E00E945906F7
:104A200004C08EE196E00E94D32C0115110549F0D7
:104A3000F7018081C80FD11D8D2F9927C80FD91F6D
:104A4000DD270F5F1F4F0930110559F008301105A0
:104A500021F48C2F8095F6018087FFEFEF1AFF0A73
:104A6000CBCFCDB7DEB7E9E00C94202FA9E0B0E0C2
:104A7000ECE3F5E20C940A2F182F362FE091030592
:104A8000F0E0CF01019664E270E00E94A62E8093D0
:104A9000030558E9598350E15A83813089F048F081
:104AA0008230B9F08330D9F48B8381EF8C833D83DE
:104AB00019C085E08B8381EF8C832F5F2D8312C01B
:104AC0008B8381EF8C8384E6489FA00111245D8352
:104AD00009C084E08B8381EF8C831D8303C00E9417
:104AE000011204C0CE0101960E94E8242996E3E059
:104AF0000C94262FA2E0B0E0E0E8F5E20C94002F41
:104B0000182F762E2A8349830E947F296B017C010E
:104B1000309119058091040590910505A091060535
:104B2000B09107052A81498146015701881A990ADF
:104B3000AA0ABB0A332381F031EE83163EE29306C4
:104B4000A104B104E0F0241708F4422F202F672DB0
:104B5000812F0E9436250BC031E3831635E793067B
:104B6000A104B10460F0672D812F0E949024C092AF
:104B70000405D0920505E0920605F09207052296FD
:104B8000EDE00C941C2FA2E2B0E0E9ECF5E20C940D
:104B9000012F8CE00E94D90981111AC06CE173E0E9
:104BA0008EE196E00E946A2B5E9A409A80E00E9415
:104BB000C60A0E94A10B5E9840980AC08EE196E05A
:104BC0000E94A82C9091E504992349F00E94291491
:104BD0008EE196E00E947C2C892B81F715C02091F4
:104BE0003E0430E0A9014F5F5F4F4F715527609140
:104BF0003F0470E04617570759F3F901EF59FB4F8F
:104C0000808340933E04E4CF8091AF05843009F067
:104C10008CC00E947F29611571058105910549F0BD
:104C20006093F3047093F4048093F5049093F60476
:104C30000CC081E090E0A0E0B0E08093F30490939A
:104C4000F404A093F504B093F6048091E9049091E4
:104C5000EA0481609093EA048093E90483E08093FE
:104C6000AF058FE70E94B70901E814E082EB95E0F9
:104C70000E94100890E09801215834402817390705
:104C800034F40E94CA09F80181938F01EFCF20917B
:104C9000A20480918104982F922796FF39C090E456
:104CA00092279093A20485FF1EC010E0212F30E0D0
:104CB000809181048F7190E0821793074CF11F5F00
:104CC0002091DA05812F90E0FC01EF57FB4F24FF84
:104CD00004C080810E94E311E9CF60818EE196E0FB
:104CE0000E94D32CE3CF8F7399F480918204809338
:104CF000F204809183048093F00480918404809373
:104D0000EF048091870490E09093E8048093E70497
:104D100080913D04813019F482E080933D048091BC
:104D20003D04833011F410923D040E947F296B01F1
:104D30007C018091EB049091EC04A091ED04B09182
:104D4000EE040097A105B105C9F0A7019601281B43
:104D5000390B4A0B5B0BDA01C901883B9B40A1056B
:104D6000B10560F00E94080A8093F1041092EB04F0
:104D70001092EC041092ED041092EE048091F7046E
:104D80009091F804A091F904B091FA0446015701FA
:104D9000881A990AAA0ABB0A82EB95E00E941808B1
:104DA00086169706A806B90608F4A3C0C092F704B1
:104DB000D092F804E092F904F092FA040E945706A7
:104DC0008091E6048830A0F08091FB059091FC056D
:104DD000A091FD05B091FE054CE1B695A79597957C
:104DE00087954A95D1F7892B8A2B8B2B09F0A5C182
:104DF0008091E6048F5F8093E6048091F3049091A4
:104E0000F404A091F504B091F6040097A105B10552
:104E1000F1F0C81AD90AEA0AFB0A82EB95E00E946F
:104E200018086C157D058E059F0508F006C1809158
:104E3000FB0584FD04C080ED97E00E94B30710924B
:104E4000F3041092F4041092F5041092F604809189
:104E5000A204807C8093A20410913E0400913F0440
:104E600090913D04101709F404C1923009F001C17A
:104E700080588093A20482EB95E00E94FF07815046
:104E8000202F90E0981708F4DDC020933F042FE115
:104E9000290F8091A204822B8093A2049093400456
:104EA00083E080933D045D9A419A8091BF052091F3
:104EB0000105211134C10E94C10A809102050E949E
:104EC000F20982EB95E00E94FF07682F82EA94E0E6
:104ED0000E94DC0BE0910205EF5FE0930205E831F0
:104EE00009F428C1F0E0EE54FA4F8785882309F4CD
:104EF00021C10E944D0C813079F58091DA058871CD
:104F000059F18091E9049091EA04880F991F9093D8
:104F1000EA048093E90483E08093AF050E94A10B2B
:104F20000E947F29611571058105910549F0609303
:104F3000EB047093EC048093ED049093EE040CC0AA
:104F400081E090E0A0E0B0E08093EB049093EC046B
:104F5000A093ED04B093EE048091DA0584FF1FC0A6
:104F60008091E9049091EA048E7F0E946A09182FCB
:104F70006091E7048091F2040E941F14482F612F72
:104F80008091F10449A30E941F1400911006282F5C
:104F900049A16091EF048091F0040E947A255D9808
:104FA00041988091FF048130C1F018F08230C1F146
:104FB000D2C083E10E949A2A892B09F0CCC081E0FB
:104FC0008093FF040E9473296093FB047093FC0498
:104FD0008093FD049093FE04BEC083E10E949A2A50
:104FE000892B41F50E9473290091FB041091FC0468
:104FF0002091FD043091FE04DC01CB01801B910B5C
:10500000A20BB30B893E9340A105B10508F4A3C0E0
:1050100082E08093FF0480ED97E00E94B3079BC07D
:1050200083E10E949A2A892B09F495C080E090E0E0
:105030000E94B3071092FF048EC080E090E00E94AF
:10504000B30705CF211709F420CF9F5F492F50E008
:1050500030E0FA01EE55FB4FD901AF59BB4F6C91CF
:105060006083FA01E05CFB4F60832F5F3F4F2F713D
:1050700009CF9430A9F48091400421E434E0A3EAFC
:10508000B4E0F9019E2F921B981718F491919D930B
:10509000F9CF815E9091A204892B8093A20400CF66
:1050A0009091FF04923091F481608093A2045E9A03
:1050B000409A3FEFE32E35E0F32E8E010F5F1F4F36
:1050C0006E0141E2C40ED11CB80111C05E98409837
:1050D00080913D04811103C081E080933D04809163
:1050E0003D04833031F784E080933D04E2CFF70143
:1050F00081917F0169A37AA30E943C16F8018193F4
:1051000091938F0169A17AA1EC15FD0581F780913A
:10511000DA0543EA54E087700E94AF08C4CE8823C2
:1051200009F4C9CE90910005921789F09F5F909382
:105130000005C1CE10920205DCCE8091E6048830D5
:1051400011F45E9A409A89E08093E604D2CE1092E0
:1051500000058150B0CEA296ECE00C941D2F823059
:10516000E8F4E82FF0E0EE0FFF1FEF5EF94F7183D8
:105170006083813041F0809169008C7F482B40939F
:105180006900E89A089580916900440F551F440F03
:10519000551F837F482B40936900E99A08951F9219
:1051A0000F920FB60F9211242F933F934F935F935B
:1051B0006F937F938F939F93AF93BF93EF93FF93DF
:1051C0008091110690911206892B29F0E091110629
:1051D000F09112060995FF91EF91BF91AF919F91C8
:1051E0008F917F916F915F914F913F912F910F9090
:1051F0000FBE0F901F9018951F920F920FB60F922F
:1052000011242F933F934F935F936F937F938F93CB
:105210009F93AF93BF93EF93FF9380911306909169
:105220001406892B29F0E0911306F09114060995D4
:10523000FF91EF91BF91AF919F918F917F916F916E
:105240005F914F913F912F910F900FBE0F901F9044
:1052500018951F920F920FB60F9211242F933F9320
:105260008F939F93AF93BF938091160690911706EB
:10527000A0911806B09119063091150623E0230F6E
:105280002D3720F40196A11DB11D05C026E8230F7E
:105290000296A11DB11D20931506809316069093CA
:1052A0001706A0931806B093190680911A069091DC
:1052B0001B06A0911C06B0911D060196A11DB11DF3
:1052C00080931A0690931B06A0931C06B0931D06AC
:1052D000BF91AF919F918F913F912F910F900FBEF2
:1052E0000F901F9018952FB7F89460911606709143
:1052F000170680911806909119062FBF08953FB7A1
:10530000F89480911A0690911B06A0911C06B0910A
:105310001D0626B5A89B05C02F3F19F00196A11DBB
:10532000B11D3FBFBA2FA92F982F8827820F911D3B
:10533000A11DB11DBC01CD0142E0660F771F881F82
:10534000991F4A95D1F70895CF92DF92EF92FF927D
:10535000CF93DF936B017C010E947F29EB01C11485
:10536000D104E104F10479F00E947F296C1B7D0BCC
:10537000683E7340A0F381E0C81AD108E108F10843
:10538000C851DC4FECCFDF91CF91FF90EF90DF90D1
:10539000CF900895789484B5826084BD84B581608F
:1053A00084BD85B5826085BD85B5816085BDEEE62D
:1053B000F0E0808181608083E1E8F0E0108280810C
:1053C00082608083808181608083E0E8F0E080817A
:1053D00081608083E1EBF0E0808184608083E0EB9A
:1053E000F0E0808181608083EAE7F0E08081846082
:1053F00080838081826080838081816080838081DE
:10540000806880831092C1000895833081F028F471
:10541000813099F08230A1F008958630A9F087306C
:10542000B9F08430D1F4809180008F7D03C08091E9
:1054300080008F7780938000089584B58F7702C0B5
:1054400084B58F7D84BD08958091B0008F7703C0AF
:105450008091B0008F7D8093B0000895CF93DF934B
:1054600090E0FC01ED50F44F2491FC01E95FF34F13
:105470008491882361F190E0880F991FFC01E15D20
:10548000F34FC591D491FC01EB5DF34FA591B4911D
:10549000611109C09FB7F894888120958223888381
:1054A000EC912E230BC0623061F49FB7F8943881E1
:1054B000822F809583238883EC912E2B2C939FBF82
:1054C00006C08FB7F894E8812E2B28838FBFDF9119
:1054D000CF9108951F93CF93DF93282F30E0F901E8
:1054E000E152F44F8491F901ED50F44FD491F90158
:1054F000E95FF34FC491CC23C9F0162F81110E94AC
:10550000052AEC2FF0E0EE0FFF1FEB5DF34FA591A6
:10551000B4918FB7F894111105C09C91ED2FE095CF
:10552000E92302C0EC91ED2BEC938FBFDF91CF917B
:105530001F910895CF93DF93282F30E0F901E152B6
:10554000F44F8491F901ED50F44FD491F901E95FE2
:10555000F34FC491CC2391F081110E94052AEC2FC6
:10556000F0E0EE0FFF1FE55EF34FA591B491EC91D3
:10557000ED2381E090E021F480E002C080E090E043
:10558000DF91CF9108958E3008F08E508770209172
:105590009D0190E4299F90011124822B80937C002F
:1055A00080917A00806480937A0080917A0086FDF1
:1055B000FCCF809178002091790090E0922B0895A3
:1055C000A0E0B0E0E6EEFAE20C94052F6C01EB01EE
:1055D0007B01E40EF51E00E010E0CE15DF0561F062
:1055E0006991D601ED91FC910190F081E02DC60109
:1055F0000995080F191FF1CFC801CDB7DEB7E8E054
:105600000C94212F6115710581F0FB0101900020A0
:10561000E9F73197AF01461B570BDC01ED91FC9187
:105620000280F381E02D0995089580E090E00895CF
:10563000EF92FF920F931F93CF93DF937C01FB01B7
:1056400000E010E06491EF012196662361F0D7013C
:10565000ED91FC910190F081E02DC7010995080FB3
:10566000191FFE01EFCFC801CDB7DEB7E6E00C94FD
:10567000232F0E94022B0895DC01ED91FC910190F3
:10568000F081E02D099508950F931F93CF93DF9339
:10569000EC016DE00E943C2B8C016AE0CE010E947F
:1056A0003C2B800F911FDF91CF911F910F91089597
:1056B0000F931F93CF93DF93EC010E94182B8C0163
:1056C000CE010E94442B800F911FDF91CF911F913B
:1056D0000F9108950F931F93CF93DF93EC010E94D6
:1056E000022B8C01CE010E94442B800F911FDF9171
:1056F000CF911F910F9108950F931F93CF93DF9335
:10570000EC010E943C2B8C01CE010E94442B800FA7
:10571000911FDF91CF911F910F910895A1E2B0E009
:10572000E4E9FBE20C94012F6C01142FE52FCB016F
:10573000022F19A2223008F40AE07E0121E2E20ED3
:10574000F11C802E912CA12CB12C612F7E2FA50154
:1057500094010E94BA2E029F1019112481E0E81AC8
:10576000F1081A3010F4105D01C0195CF7011083C4
:10577000122FE32FCA01232B242B252B31F7B7013E
:10578000C6010E94022BA196ECE00C941D2FA0E014
:10579000B0E0EDECFBE20C94052F8C016A017B017B
:1057A0002115310549F4DC01ED91FC910190F08166
:1057B000E02D642F09951DC02A303105A9F477FF2B
:1057C00012C06DE20E943C2BEC0144275527BA0120
:1057D0004C195D096E097F092AE0C8010E948E2BD1
:1057E0008C0F9D1F06C02AE0B701A601C8010E94C8
:1057F0008E2BCDB7DEB7E8E00C94212F9A01AB01D8
:10580000662757FD6095762F0E94C72B08950F934A
:105810001F93CF93DF93EC019A01AB01662757FDED
:105820006095762F0E94C72B8C01CE010E94442BDD
:10583000800F911FDF91CF911F910F910895211536
:10584000310549F4DC01ED91FC910190F081E02DEE
:10585000642F099508950E948E2B08959A01462F72
:1058600050E060E070E00E941F2C08959A01AB01A7
:1058700060E070E00E941F2C08950F931F93CF9358
:10588000DF93EC010E941F2C8C01CE010E94442B5F
:10589000800F911FDF91CF911F910F9108950F936A
:1058A0001F93CF93DF93EC019A01AB0160E070E0AE
:1058B0000E941F2C8C01CE010E94442B800F911F4F
:1058C000DF91CF911F910F9108950F931F93CF9365
:1058D000DF93EC019A01462F50E060E070E00E94F7
:1058E0001F2C8C01CE010E94442B800F911FDF9151
:1058F000CF911F910F910895FC0124853585F90101
:10590000E05CFF4F80819181329620813181821B42
:10591000930B8F7399270895DC011C96ED91FC91F0
:105920001D97DF01A05CBF4F2D913C9111971296FE
:105930008D919C9111972817390739F08D919C9181
:10594000E80FF91F808190E008958FEF9FEF089591
:10595000FC01A485B585FD01E05CFF4F208131810C
:105960003296808191812817390779F08081918161
:10597000A80FB91F8C91208131812F5F3F4F2F736A
:1059800033273183208390E008958FEF9FEF0895B0
:10599000FC0181A1882329F0A489B5898C9186FF17
:1059A000FBCF11A208950F931F93CF93DF93FC01B8
:1059B000A685B7858D01005C1F4FE801888199811C
:1059C00001968F739927AD014E5B5F4FEA012881E5
:1059D000398182179307D1F3E80128813981A20F19
:1059E000B31F6C93A685B785A05CBF4F11969C939F
:1059F0008E93A689B7892C9181E090E0078C02C034
:105A0000880F991F0A94E2F7822B8C9381E081A37F
:105A10000488F589E02D80818064808381E090E0B6
:105A2000DF91CF911F910F91089508951F920F92CA
:105A30000FB60F9211242F934F935F938F939F93E1
:105A4000EF93FF938091C00082FD1CC02091C6009F
:105A50008091C4069091C50601968F739927409155
:105A6000C6065091C7068417950771F0E091C406E9
:105A7000F091C506EC57F94F20839093C5068093AB
:105A8000C40602C08091C600FF91EF919F918F9153
:105A90005F914F912F910F900FBE0F901F9018950F
:105AA0008EE196E00E947C2C892B11F00E94152D2E
:105AB00008951F920F920FB60F9211242F933F93C8
:105AC0008F939F93EF93FF932091800630918106EF
:105AD00080918206909183062817390731F48091CE
